S02300007365637572652D73657269616C2D7573622D626F6F746C6F616465722E733337CE
S31508000000000400207500000881000008810000082F
S31508000010A70B0A0100000000070154610040000810
S31508000020040D00006D090008310E0008D40400080C
S3150800003000000000000000000000000000000000B2
S3150800004000000000000000000000000000000000A2
S31508000050FFFFFFFF05480068202100EA010020B1E4
S315080000600348016842688D46104770472C000040D7
S3150800007000400008FFF7EEFF00F00AF800F03EF82F
S3150800008002E00000854670474FF4017000F09AB808
S3150800009038B500F0C5F84FF20F043E4D28B140F2CE
S315080000A0052028806C80012032BD3B480068C006C8
S315080000B015D56888A0421ED1288840F202218842B8
S315080000C01CBF40F20621884215D040F20111884231
S315080000D01EBFB0F58A7F40F2111188420BD02F4C13
S315080000E0208A40F6A721884205D12068FFF7CAFF73
S315080000F06068804700BF002032BD000038B50400A4
S31508000100274872B6016849084900016000F0CEF830
S3150800011021480068000910F001000CBF2149224956
S3150800012002E0CD2201F8012B204A9142F9D3204959
S31508000130204A214B03E011F8015B02F8015B9A4261
S31508000140F9D31E491E4A002301E001F8013B9142FA
S31508000150FBD3104A53884FF20F05AB4240F20521F4
S315080001600AD113888B4205D030B1180A012818BF66
S31508000170022801D1194601E004B90021044801808A
S315080001804CF23C30508000F08BF9BDE832407BE7FA
S3150800019004150020000000202C0000400040000844
S315080001A0FCED00E00000002098000020000400207C
S315080001B02C26000800040020C4040020C8040020DF
S315080001C00E1500200E4A302111600E4A11600E4AA3
S315080001D0116010210D4A1160010A00290C4908BF57
S315080001E0000208804FF20F004880BFF35F8F09486E
S315080001F0002101604160084808490860704700000E
S315080002003020004030C8004030C0004010E00040B8
S31508000210000000201C4000400400FA050CED00E038
S315080002200020704780B500F059F90121062000F03A
S3150800023062F9062000F089F90121072000F05BF930
S31508000240072000F075F91748016821F010010160D0
S3150800025001BD0000052800D9704710B5DFE800F099
S315080002601721030F1C17104C2088411E2180C0B986
S31508000270072000F077F942F21070208010BD0720A1
S3150800028000F063F9BDE81040062000F06BB9BDE840
S315080002901040062000F04CB9BDE81040062000F0DA
S315080002A054B910BD00BC0040061500206049512015
S315080002B00860704738B55F49C9780429B4BF302447
S315080002C060244FF4F071B1FBF4F1451A1E2DBCBF42
S315080002D04FF40170FFF776FF5748584A0721016027
S315080002E00021416081604FF00071116005FB04F147
S315080002F0C91C8908491E416031BD4E4A0121517009
S31508000300D8E72DE9F0414F4F4D4D7888494E4FF6C5
S31508000310FF78404540F2DC541CD14B480188022343
S315080003207F22B81C00F034F97888404504BF0220C3
S315080003307880A869800703D4A86940F00200A861FC
S315080003400120B070788828602046FFF7D6FF20463F
S31508000350BDE8F081A8698007EED537480068C00374
S3150800036048BF00F051F8B0780028F0D1A868A9680D
S315080003707A8810F0010003D10F2A08D2521C06E031
S31508000380890704D5397811B1032AA8BF424492B225
S31508000390022A3870B8BF02227A802868798888428B
S315080003A0CED1A86900F00300032808D0A86920491F
S315080003B040F00100A8610120E86151200860002092
S315080003C0C6E710B504462148017869B9C0780728F8
S315080003D018BF092810D0032818BF11280CD01328D5
S315080003E01CBF15280B2807D01948016841F48071ED
S315080003F0016001E000F002F92046FFF782FF0100E4
S31508000400F8D110BD0220DCE70B480C4A00214160F8
S315080004108160016821F002010160002105484170F0
S315080004204FF000711160817809B100218170704721
S31508000430008000400915002010E000E004ED00E00F
S3150800044004400040C0040020282600089607080833
S31508000450384000400078704730B5DBB00446214686
S3150800046036A800F0DDF8002000904FF402630B4A2E
S3150800047036A901A800F07AFA0FF24C020FF25400DE
S3150800048001A900F0D5FC054600F031F828001CBF8C
S31508000490214600F01CF928465BB030BDE40C00206C
S315080004A080B5FFF7AFFFFFF7BDFE00F0EDFC00F0EB
S315080004B06FFD40F20120FFF785FE002002BD012AEC
S315080004C008BF00F0E9BC704783240008BF24000871
S315080004D05504000891080008CB08000811480121B6
S315080004E081604EF6BE2141600121016070470E49C8
S315080004F0012008607047F0B5C20852020B4CA518D7
S31508000500830010F0040014BF6E68A65803F00C03AD
S315080005100F279F40BE439940314308B16960F0BD3B
S31508000520A150F0BD006000400860004000B00040E7
S31508000530C108032908DA012100F007029140C00822
S31508000540104A02EB402001607047C108032908DA07
S31508000550012100F007029140C0080B4A02EB402037
S3150800056001607047C10803290ADA084A02EB4121EB
S3150800057001230A6800F0070003FA00F050400860FB
S315080005807047000014B0004010B000400CB00040A6
S3150800059030B5044610467F2808BF00204BF2346267
S315080005A0914283B01AD108237F2240F61201684689
S315080005B0FFF7EEFF08220FF23C01684600F008FE3E
S315080005C030B908237F2240F2A2716846FFF7E0FFA0
S315080005D008226946204600F0DBFD37BD044D294355
S315080005E000FB03111A46204600F0D2FD37BD000075
S315080005F000000808FFFFFFFFFFFFFFFF07490A6823
S31508000600032809D34B6D43F001034B650B689B1A0E
S31508000610C3F313038342F9D3704700003820004020
S315080006200170012201290CBF80214021818042707E
S3150800063000218270C1800181204801600E218162FB
S31508000640016821F0100101600021416341624261A5
S3150800065070472DE9F041194F194E044600F032F85B
S3150800066090464FF0FF303060C7F82C800020786243
S315080006700D46386840F001003860FFF738FF012C56
S315080006800FD135B900F062FC00F0010080F00100DE
S3150800069002E0284600F064FC28B900F013F80020B0
S315080006A00AE0012008E03068C007E6D55FEA0800DE
S315080006B0E3D000F007F81620BDE8F08100F000400E
S315080006C000A800403868400840003860704738B5D0
S315080006D004460D4600F009F800F007F82A462146B8
S315080006E0BDE838401820FFF7EABE2A4621461820FA
S315080006F0FFF7E5BE70B5044682B0002020814AF6B1
S31508000700B43220786946FFF7A4FF08B11C2076BDED
S315080007109DF80000032818BF182801D1182076BDB7
S31508000720042801D1172076BD012801D0212076BDE5
S31508000730002500E06D1CA188EDB2091D8D420BDA7B
S31508000740601900F10A01207840F2DD22FFF781FFE7
S315080007500028EFD0262076BD0025002006E00146B9
S31508000760EDB260196D1C007B00F044FDA288E9B269
S315080007709142F4D3A37AE17AC918FF2901D022203D
S3150800078076BDA5182E7BB6EB102F01D0232076BD9B
S31508000790697BC0B2814201D0242076BDA07883420D
S315080007A007D0401EC0B2834201D1272076BD25203E
S315080007B076BD901C20810220E080002076BD38B5E9
S315080007C004466078012804D040D303283CD033D3AC
S315080007D03CE02078012816D13B25684600F0C0FB8E
S315080007E00028FAD0432000F057FB207840F2DD229B
S315080007F00021FFF72EFF30B12846451EC0B200285B
S31508000800F0D11B2032BD022060702046FFF772FF30
S31508000810050018BF00F0AFFB272D19D1A078227864
S31508000820411EC9B20620FFF74AFE002DEDD103206E
S31508000830FFF710FD002032BD00F09DFB00F023F805
S31508000840A078401CA070E0E7172032BD182032BD02
S31508000850A80603D52278A1781520E4E7680603D40C
S31508000860182D18BF1C2D07D121782846FFF72FFF12
S3150800087004206070284632BD172DD6D100F003F843
S3150800088003206070E0E72278A1780620FFF717BEFC
S31508000890F8B504460D461646002707E0E088411CD1
S315080008A02044E180BFB2807AE8557F1CB8B2B042D6
S315080008B009D2E08821898842F0D32046FFF77FFFD6
S315080008C00100EBD0F2BD0020F2BD10B5044620466B
S315080008D0FFF775FF0100FAD010BD0000F8B5044611
S315080008E00D4616461F4607E03046A047294600F043
S315080008F094FC05467F1E761CB8B20028F4D128461B
S31508000900F2BD38B50C46154605E0014614F8010B4C
S3150800091000F083FC6D1EA9B20029F6D132BDF8B5E8
S3150800092007460E4614461D4630683B682A46214649
S315080009309847070005D1F0682A462146FFF7E1FFE8
S31508000940F060D6F8A8002818C6F8A80096F8A700F8
S3150800095050B1AC362A462146304600F033FD2A46C9
S315080009602146304600F0AEFC3846F2BD10B5029C72
S31508000970847203814260016000224FF0FF31C1603A
S315080009800021017400F1A401AC300A8080228A702B
S315080009900022CA704A602822BDE81040002100F0F3
S315080009A010BC2DE9F84F8B4604469BF81B70D0689F
S315080009B09849802FA8BF802788421E4653D1002E0B
S315080009C04FD0B06800904FF0FF384FF000090BEB9E
S315080009D0490000F1480A9AF800500DE0FFF787FD34
S315080009E0E80240F0006200984FF400634146FFF7C2
S315080009F075FF6D1C8046ADB29AF80100A84205DA6B
S31508000A0009F10109B9F1060F02DAE0E7FF2DE5D190
S31508000A10DBF844006FEA0801884224D1A0687368AD
S31508000A2000BA7A0859469847C8B9E06805BAA0686E
S31508000A3002BAB0683B464FF0FF31FFF74FFFC0439D
S31508000A4085420CD140F6A720ABF810000122A06819
S31508000A50736800BA0BF110011030984708B14220AC
S31508000A6002E0172000E04320BDE8F28F2DE9F04FA1
S31508000A70894609F1040783B08046D7F800B0B888DC
S31508000A80ADF80400164604235A464046FFF747FFCA
S31508000A90010077D1BBF8000040BA80B20090BBF8DD
S31508000AA0020044BAA4B2E00706D500984FF20861DE
S31508000AB0884218BF462065D1B4F5026FC8BF4E20DC
S31508000AC060DC002C5DD00098DFF84CA109F13C05EC
S31508000AD040B14FF60441401A53D0FF3856D0FE387D
S31508000AE054D095E0387B08B151204BE08D2C28BFB7
S31508000AF04F2047D2234609F1180249464046FFF7D8
S31508000B000EFF01003ED1EA78802AA8BF802202F1B2
S31508000B100C00844201BFB88A40BA00F47F40B0F5A1
S31508000B20007F31D1F88A40BA4EF25031884202BF6E
S31508000B30388E40F6A721884226D1788E00F47F4069
S31508000B40B0F5807F01BFB86900BADAF81C10884290
S31508000B501AD14FF6FF70388609F124014FF0FF309D
S31508000B60FFF7CFFEF96909BAC943884204BF287856
S31508000B70042809D168780D2818BF062804D1012051
S31508000B8038730020BDE8FE8F4520FBE7387B08B99F
S31508000B904120F7E7042300F041F80100F2D1DBF821
S31508000BA0000007BADAF81C00241F8742A4B238BF2F
S31508000BB04820E7D3E96BE019884228BF4920E1D2EB
S31508000BC000984FF6035188420AD14EB13268394629
S31508000BD00220904720B14A20D4E7641BA4B2EF193B
S31508000BE0002CCED0BDF804008442B4BF2546054685
S31508000BF02B4600F013F80100C4D1002EEDD073681F
S31508000C006A085946384698470028E6D04B20B9E77F
S31508000C104420B7E7E320BBDE000000085A464946F1
S31508000C2040467CE62DE9F04715462E1D0446B6F8E3
S31508000C3004A0102C894638BF4E2031D305F1AC08E4
S31508000C400423424600F02EF8010029D10C2305F1B1
S31508000C50B00200F027F8010022D1D5F8AC0000BA9E
S31508000C60103CC5F8AC00A4B22146404600F0F2FAA2
S31508000C7005E031683A46404600F024FBE41BA0B282
S31508000C8050B1A7B2574588BF574632683B4600F071
S31508000C9009F80100EDD003E0404600F036FB0020DD
S31508000CA0BDE8F0872946484639E62DE9FE4F8346D2
S31508000CB0884608F1A40608F10404B0782568832854
S31508000CC091464FF6071A05D1B788822250465146F3
S31508000CD0B2700DE004232A465846FFF720FE0100AD
S31508000CE06AD12888698840BA80B24FBABFB201462D
S31508000CF0FA0706D54FF6062291421CBF51454620F3
S31508000D005AD14FF20972B178801A56D04FF4FF7251
S31508000D10801A37D0FF382CD0FF3802D0FF3868D079
S31508000D207FE0802967D1062F20D3062301AA4146F2
S31508000D305846FFF7F4FD010019D1BDF8040040BA82
S31508000D4000F47F40B0F5007F01BFBDF8080040BA47
S31508000D504EF25031884209D1BDF8060041BA012940
S31508000D6003BF40BA30800020522000E04520812190
S31508000D7055E081293FD1424659463846FFF752FF8A
S31508000D8082214CE0822936D1042F2DD30120F07020
S31508000D904A460020706041465846FFF767FE010044
S31508000DA022D10021F17071688F421DD3B94239D220
S31508000DB08322791AB270716034E082291BD108F156
S31508000DC0AC09484600F0A1FAA088B842B8BF4F203F
S31508000DD028DB3B4600F028F8010023D1FAB2294661
S31508000DE0484600F0B8FA08B954201BE000208421D0
S31508000DF015E0842901D0512014E0042F18BF4C2097
S31508000E0010D1042300F010F801000BD14B464246DE
S31508000E1008F1240108F11400FFF7C3FD8521B1701C
S31508000E2000E04420BDE8FE8F2A464146584676E54E
S31508000E3070B50D46044628898028164601DA4F20E3
S31508000E4070BD00F0FBF908B9532070BD324629463B
S31508000E502046FFF72AFF002818BF172803D08F213E
S31508000E6085F8A61070BD95F8A600852806D12868CD
S31508000E7061688847172805D1002070BDA87A002820
S31508000E80E4D0502070BD000080B500230022002168
S31508000E90032000F0C3FA04E080B50146032000F001
S31508000EA033FBBDE8014000F0DFBB10B5044603E0A4
S31508000EB014F8010BFFF7F0FF20780028F8D110BDD1
S31508000EC030B50FF2C40283B0D2E90034CDE900345C
S31508000ED005210A250BE0C9B280B20A24034690FB15
S31508000EE0F4F405FB143330330DF801302046491E5F
S31508000EF0CBB2002BEFD1C9B2042905D21DF80130B7
S31508000F00302B08BF491CF6D00DEB0100FFF7CDFFCB
S31508000F1037BD10B5044600090A28ACBF3730303053
S31508000F20C0B2FFF7B9FF04F00F000A28BDE8104069
S31508000F30ACBF37303030C0B2AEE710B50446000A51
S31508000F40FFF7E7FFE0B2BDE81040E2E780B500F042
S31508000F508BFB032000F08CFA00B10120C0B202BD61
S31508000F6010B5044600F080FB2146032000F08BFAFA
S31508000F7000B1012010BD80B56846FFF7F1FF0028D3
S31508000F80FAD001BD000000003030303030000000DB
S31508000F902DE9F84FFFF7ABFAFFF7EDFF0020FFF753
S31508000FA059F9474C0FF2641B464E0FF234180FF2EC
S31508000FB0181A41A70FF204191BE05046FFF775FFF0
S31508000FC00C252088E84000F00F00FFF779FF012D77
S31508000FD0A4BF2E20FFF760FF2D1FF2D54846FFF766
S31508000FE064FF608EFFF76CFF4046FFF75EFFFFF772
S31508000FF0C2FFFFF77CFA0220FFF72CF96846FFF7D5
S31508001000AFFF0028F5D19DF80000FFF745FF9DF8D2
S3150800101000000A2818BF0D28CFD0312804D032285E
S315080010202ED0332831D0E2E70FF2F000FFF73DFF6C
S315080010300120FFF711FA05460FF2F400FFF735FF16
S315080010402DB90520FFF706F90FF2F800CDE70420C1
S31508001050FFF700F90FF2F800FFF727FFA80648BFC9
S315080010600FF2F80005D468064CBF0FF208100FF20D
S315080010701410FFF71AFF2846FFF75FFF3846B4E754
S315080010800120FFF7E7F8BDE8F18F3846FFF70DFFB7
S31508001090308A002540F6A721884218BF5846A4D1B1
S315080010A070196D1C90F824000100E7D0FFF7F4FED4
S315080010B0EDB2202DF4DBE1E70D0A00002062000006
S315080010C01A000008004000080D0A454D3335383629
S315080010D02053657269616C2042746C2076000000AA
S315080010E00D0A312E2075706C6F61642065626C0D77
S315080010F00A322E2072756E0D0A332E2065626C2018
S31508001100696E666F0D0A424C203E20002A2A206E20
S315080011106F20617070202A2A0D0A00000D0A626588
S3150800112067696E2075706C6F61640D0A00000000B7
S315080011300D0A53657269616C2075706C6F61642065
S3150800114000000000636F6D706C6574650D0A000021
S3150800115061626F727465640D0A0000000D0A584DCD
S315080011606F64656D20626C6F636B206572726F7257
S31508001170203078000D0A66696C65206572726F7298
S31508001180203078000D0A6572726F72203078000080
S31508001190814212D210441144401E491E93B2002BBC
S315080011A01EBF11F8013900F80139521EF6D17047F1
S315080011B011F8013B00F8013B521E93B2002BF7D100
S315080011C07047130003D00A46194600F04FBB704714
S315080011D010B500E0521E93B223B100F005F8F9D01D
S315080011E0181B10BD002010BD10F8013B11F8014B6B
S315080011F0A34270470A46090241EA12214840C0F351
S315080012000311484080EA003041010206C9B2D20EF5
S3150800121041EA0221484080B270470A0A484000F075
S31508001220FF0008214308C00746BF03485840184630
S31508001230491EF7D1504070472083B8ED0020604919
S31508001240095CFF2901D001207047401C1028F6DBF5
S315080012500020704712B5044683B02068039900BA87
S3150800126000903A2001B17A2020740C22211D04F145
S315080012701100FFF78DFF03220DF1010104F11D0096
S31508001280FFF786FF00F03CF80398D0B1B0F57F4F22
S3150800129005D200BA039002220DF10E010EE00FF2FC
S315080012A078100088ADF804000222039800BA03906B
S315080012B001A9204600F006F8042203A9204600F0FA
S315080012C001F81FBDF8B504460D461646002714E07A
S315080012D094F82500EA5D2044017C5140017494F895
S315080012E02500401C84F82500C0B2102804D300F05D
S315080012F007F8002084F825007F1CB742E8D3F1BD23
S315080013002F4904F1100000F01BBB1FB504466846C0
S31508001310102100F01FFB94F82500C0F11000C11041
S3150800132000EB11710911A0EB011269462046FFF77F
S31508001330C9FF1FBD1FB50C46011D6A46002000F0F7
S3150800134027F80020215C1DF8002051402154401C3C
S315080013501028F7DB1FBD38B5102A04460D4607D1FD
S31508001360216A94F82420206802EB0111884201D0F2
S31508001370002032BD29462046FFF7DCFF102204F183
S3150800138010012846FFF724FF401E8041C00F32BDDA
S3150800139011B581B000BA01901446022020700C22C3
S315080013A0601CFFF7F5FE03220DF1050104F10D009F
S315080013B0FFF7EEFE0249204600F0C2FA13BD000010
S315080013C0F80808082DE9FF4104460D469046002016
S315080013D0002704F120061AE0010006D130686A46A3
S315080013E0211D401CFFF7D4FF01203379E95D1DF864
S315080013F003205140E9553179491CC9B2102904DB4B
S315080014003068401C30600021002031717F1C474540
S31508001410E2D3BDE8FF810000FFFE0000F8B50446F0
S315080014200D4616461F4600F0CFF8002801BF204695
S315080014300FF2B411095C012918D1DFF8841151F8AB
S31508001440202000239380138001EB800153800969D3
S31508001450DFF870218B800B804B80135432463B4655
S31508001460294601B0BDE8F04000F078BA2120F2BD67
S3150800147010B5044600F0F6FADFF8440100EB8400E4
S315080014800069808810BD2DE9F84380464446DFF898
S31508001490300100EB840089460569404600F094F85F
S315080014A008B101202EE0DFF81C61305D010006EB73
S315080014B0440706D0B9886A88914202D1002131557D
S315080014C020E0404600F0CEFAA888D0B168880FF22E
S315080014D024112844807989F80000688831F81410A6
S315080014E000F024F868804FF6FF70A9884118A98093
S315080014F0315D21B1B988814204BF2888B8800020AF
S3150800150000E02620BDE8F28302B50122694600F014
S3150800151013F802BD80880FF2C80333F81110891A30
S31508001520884201DA0120704700207047401C90FB72
S31508001530F1F201FB120070472DE9F84F8046474645
S315080015400FF2A400C05D01288B46164634D11C480C
S315080015500FF2A80950F827400FF2900A002510E06C
S31508001560A08800B9012521881BF8010B611888712C
S3150800157020883AF81710FFF7D9FF2080A088401C6A
S31508001580A0803046461EC0B288B100224146204699
S31508001590FFF7C0FF0028E3D11DB1404600F023FA4B
S315080015A0002519F807000028EFD1222005E040465B
S315080015B000F019FA002000E00120BDE8F28F0000D3
S315080015C0A0040020D80C0020042806DA0FF218011F
S315080015D0095C481E8041C00F704701207047000013
S315080015E0000000000000800000000001000000006C
S315080015F0000080000000000000000001000000015B
S31508001600002180F83410011D016070478278007847
S3150800161001219140C9438A4A18B1106808401060F0
S3150800162002E05068084050600020704710B500215D
S3150800163000F00F020D2A01DB002010BD814B1B684C
S315080016401A44D43204064CBF1278527B2AB1282099
S315080016505043184400F1340104E00F22104208BF39
S3150800166003F13401084610BD2DE9F84F00F0BCF827
S315080016707548D0F80080C0F80080B8F1000F00F077
S31508001680AB80724D6F4EE96849084900E9604068C9
S315080016905FEAC8201BD57F20E8613068FFF7B0FFF6
S315080016A0306800F13407002087F8200038610120EF
S315080016B038703846FFF7AAFF002038703846FFF71B
S315080016C0A5FF3068006B0068010018BF8047286BCB
S315080016D050B90120E8613068FFF792FF306834306E
S315080016E0002180F82010016118F47E5F584F4AD017
S315080016F000244FF08009DFF85CA11FFA89F918EA7F
S31508001700090F3BD0544850F824B0E0B2FFF78EFFDB
S3150800171038600269DBF800108A4234BF1146DBF8EC
S31508001720001000F05BF890F82010022908D1DBF8C9
S31508001730002081785AF82110806892B2FFF728FDB8
S315080017401CB9306800F0F6F90CE0DBF800103868D0
S3150800175080785AF82000C9B200F04AF93868C0788B
S3150800176000F082FADBF800205AF8240092B2002131
S31508001770FFF727FD40F20110A0402860641C072CE3
S315080017804FEA4909B9DB18F07F0F25D00025012457
S31508001790DFF8C890A4B218EA040F19D059F825A0A2
S315080017A045F08000C0B2FFF741FF38600269DAF8F9
S315080017B000108A4234BF1146DAF8001000F00EF81D
S315080017C01DB9306800F0B6F902E0C07800F04CFAAE
S315080017D06D1C6400072DDDDBBDE8F18F521A02612E
S315080017E0426989184161704710B51D481D4C4FF470
S315080017F00041C160082101601B48A168C90811F0B1
S31508001800010101700DD000F019FB042816D02068DC
S3150800181020F4706040F4807020600420206103206A
S3150800182008E0206820F4706040F48060206004209E
S3150800183060610020BDE8104000F0EBBA10BD000062
S31508001840541001407004002088A800404810014048
S31508001850280B00200004002038040020540400202F
S3150800186014A8004000B000400815002062F30F22BB
S3150800187062F31F42401810F0030308D0C91A1FD399
S31508001880DB0748BF00F8012D28BF20F8022D1300FA
S3150800189030B414461546103928BF20E93C00FAD85A
S315080018A0490728BF20E90C0048BF40F8042D8900E5
S315080018B028BF20F8022D48BF00F8012D30BC70471C
S315080018C0C91818BF00F8012DCB0728BF00F8012D4D
S315080018D0704700000268174912BACA60426812BA0D
S315080018E08A60826812BA4A60C06800BA086070479F
S315080018F010B5114980220A600623104A136007238F
S315080019000B6013689B07FCD5002350F823405B1C2B
S3150800191024BA042B8C62F8D313685B07FCD5002223
S315080019200B6B1BBA40F82230521C042AF8D310BDA0
S3150800193000000000383000400030004010A0004091
S3150800194010B504460846FFF7C5FF2046BDE8104017
S31508001950CEE70000002200F03BBC00007CB503285F
S315080019603FD1FEF7C4FD4048018808237F22684618
S31508001970FEF70EFE002400213C4A1DF80150631CA8
S3150800198028090A28E4B2B4BF3026372602EB4404F5
S31508001990301860805C1C05F00F000A28DBB2B4BF63
S315080019A03020372005F00F0502EB4303491C401988
S315080019B008295880E1DB2E4800F058FA00F022FC8E
S315080019C0044600F03BFA042809D0FFF74DFE00F064
S315080019D019FC001B80B2B0F57A7FF2DD01E0002029
S315080019E076BD212076BD032808BF00F0DFBB70470F
S315080019F0F8B5204EF76804460D46FEF778FD1E48F2
S31508001A000FE03A8814F8011B3A4491713988C28864
S31508001A10491C91FBF2F302FB13113980B988491C62
S31508001A20B98029464D1EC9B2D9B1B988FF29E8DB64
S31508001A30124AF068D378124923B90088C88023204F
S31508001A40D070F1BDC98801802321D17002884188F0
S31508001A508A4204D20B4BDB88591A511800E0511AF6
S31508001A608180F1BD704700002A2600087C0400200A
S31508001A7004260008B0040020F4150008D80C00203D
S31508001A80DC0C002020260008002180F83410011DF7
S31508001A90016070478278007801219140A34A18B105
S31508001AA010680843106002E0506808435060002040
S31508001AB0704738B50446A078010003D12046BDE832
S31508001AC032401FE02178E1B1A58921698D4288BF9E
S31508001AD00D46002D1CBFA168002905D0944B53F86C
S31508001AE02000EAB2FFF754FBA068A1782844A0605A
S31508001AF0904850F8210005600120A17888408E4959
S31508001B00086031BD38B50446207890B1A5892069AA
S31508001B10854288BF05462DB18548A1680068EAB2A6
S31508001B20FFF736FBA0682844A0600121824885603B
S31508001B30016031BDF8B5814EB368074607F1540513
S31508001B4007F134042878032819D8DFE800F0025C86
S31508001B50387B002020616070B0603070784800687B
S31508001B60006800287BD0384600F054FB10F1010FBE
S31508001B7006D100F075F800202070381D3860F1BDD8
S31508001B802878022802D16868B060F1BD012804BF30
S31508001B906868B060206960B13968C98888425ED2D1
S31508001BA0A189B0FBF1F201FB1200002857D10120F0
S31508001BB03CE0381D3860607800284DD11CE020696B
S31508001BC010B10020207020E018005E4F10D0616927
S31508001BD00022002098470021B16048B100F040F883
S31508001BE0002000F03EF83868FFF74EFF002027E097
S31508001BF03868FFF749FF00202870002300220021DB
S31508001C0000F023FA1BE0206918B12046BDE8F2402F
S31508001C1078E7607801280BD160697060002300209E
S31508001C2028700022002100F010FA02206070F1BD31
S31508001C3018B9606970600120607001203070032057
S31508001C402870F1BD307808B1381D3860180003D007
S31508001C507168002200209847002028702070F1BD86
S31508001C6001202070204615E738B5002400F00F0142
S31508001C700D2913DA334A12681144D43103064CBFCE
S31508001C800978497B29B128204843104400F13404D7
S31508001C9004E00F21084208BF02F1340494F820003A
S31508001CA0012814D1206918B12046BDE8324000E762
S31508001CB084F82000636A180004D0002060620022BD
S31508001CC061699847BDE832400320FFF78CBE0228B9
S31508001CD02BD12269E2B11A4DA07855F82000006888
S31508001CE0A1898018884208D2636A18001DD000208E
S31508001CF060626FF00B00616913E02046FFF7D9FEBA
S31508001D00A17855F82110A06809680844A06031BD7B
S31508001D10002084F82000636A180006D00020616954
S31508001D20606201B0BDE83040184731BD541001402B
S31508001D301C04002054040020081001402C0B00202D
S31508001D40380400207004002081780078DFF82C24FD
S31508001D50002814BF10685068C84000F0010070479A
S31508001D6070B50446DFF81854A0782178DFF81434E3
S31508001D70020011D169B3A6892069864288BF064642
S31508001D8026B1A1681868F2B2FFF702FAA0683044D3
S31508001D90A060AE6001201BE0D9B1A68921698E42F8
S31508001DA088BF0E46002E1CBFA168002904D053F830
S31508001DB02000F2B2FFF7ECF9A068A1783044A060E1
S31508001DC0DFF8C40350F8210006600120A178884096
S31508001DD0286070BD10B5002100F00F020D2A01DB46
S31508001DE0002010BDDFF8A4331B681A44D432040659
S31508001DF04CBF1278527B2AB128205043184400F170
S31508001E00340104E00F22104208BF03F134010846EA
S31508001E1010BDDFF87813096801F11F0306281A7840
S31508001E2008BF5A709A701870096B4B68190018BF6A
S31508001E30824202D00146104618477047DFF84C0325
S31508001E400068C07F704710B500F00EF8040004BFA4
S31508001E504FF40170FEF7B6F994F8200000B101209E
S31508001E6010BD0C4615461E46C0B2B3E72DE9F84F1D
S31508001E700546DFF8186300F027FA3068F0220021DB
S31508001E80FFF79FF93068011D016007222968416242
S31508001E904FF0010A696881620027A968C162D346C2
S31508001EA0297B8177306800F11D018A700022CA708B
S31508001EB00A716A69026300220A70012100F8342F48
S31508001EC0C18182600821818182700221C2700271FB
S31508001ED042710261426180F820204262C1619046E7
S31508001EE03068846A608820449146009014E02B6923
S31508001EF0DB5D9208521C5A43C26109F10109326836
S31508001F00114481F8E17080780628A4BF4FF4017067
S31508001F10FEF758F9207804440098844238D220788D
S31508001F2008B900F0C2F860780528F3D17F1C30683C
S31508001F30282179430844A178C90900F8341F0023E9
S31508001F4000218160A178C17001F00F010BFA01F23E
S31508001F50C2818170E27802F003020271A2880361ED
S31508001F60436180F82030436282810378002BBED01B
S31508001F70920880F805A008F101082B69DB5D5A4331
S31508001F80C2610AF1010A3268114481F8D470BAE7CD
S31508001F90032F1CBF4FF40170FEF714F9B8F1060FB2
S31508001FA024BF4FF40170FEF70DF9B9F1060F24BFEF
S31508001FB04FF40170FEF706F97648774C4FF4002582
S31508001FC00560002060604FF0FF38C4F800800121EA
S31508001FD0012000F0AFF948B96060C4F8008001211B
S31508001FE06E486B4A60606E48056012E000F05DF866
S31508001FF06FF0030027E0536885780BFA05F52B4345
S31508002000536080256368807805FA00F0184360609D
S31508002010491CC9B20846874212DB3368282568433B
S31508002020184410F8343F002BE5D0136885780BFA6E
S3150800203005F52B431360636880780BFA00F0E5E733
S3150800204000F068F90020BDE8F28FF8B5FFF709FF40
S31508002050070004D100F029F86FF00300F2BD002C48
S315080020601EBF14F003004FF40170FEF7ABF83846B4
S31508002070FFF76AFE00B151E097F8200000B150E082
S31508002080B87800281FBF41480068C07F042800D0E0
S315080020904AE000F03DF810B90120387003E03878BE
S315080020A008B900F002F8012041E04FF40170FEF78C
S315080020B089B8F8B5FFF7D5FE070004BF4FF40170DD
S315080020C0FEF780F8002C1EBF14F003004FF40170D1
S315080020D0FEF778F83846FFF737FE00B11EE097F8A6
S315080020E02000012800D11CE0B87800281FBF274827
S315080020F00068C07F042800D016E000F009F808B987
S31508002100387003E0387808B1FFF7CFFF02200EE0F9
S3150800211000207861BC603D61B87870476FF00400B4
S31508002120F2BD6FF00100F2BD6FF00800F2BD87F84E
S3150800213020007E623846FFF713FE0020F2BD70B518
S315080021401849194BCA68002110E054881444491CE0
S31508002150A47900F8014B5488DD88641C94FBF5F6D5
S3150800216005FB164454809488641E9480948814B1A0
S31508002170C9B24029E9DBC8B270BD0000541001405D
S31508002180081001401C04002054040020700400209C
S315080021904C10014080E100E088A800408100100052
S315080021A000E100E0A0040020EC15000800B591B09D
S315080021B08520FFF748FE48B96846FFF7C0FF28B1F3
S315080021C00246002369468520FFF73FFF11B000BD90
S315080021D000B500BF130096469446103928BFA0E8FC
S315080021E00C50FAD85FEA417C28BF0CC048BF40F8BB
S315080021F0042BC90728BF20F8022B48BF00F8012B7B
S3150800220000BD000002480168406880B270470000BF
S315080022101060004038B504460E4D05F108002060F0
S31508002220206B8168080005D005F10800884710F181
S31508002230030F0DD1297AC1F34111002904BF697A28
S3150800224006294FF0FF3003D12046BDE8324003E0AF
S3150800225032BD0000C8040020F8B5066831780024AD
S3150800226000251F2211424FF0FF372AD1C90928D06D
S31508002270718801F0FF02090A012904D014D3032941
S315080022800BD003D310E0E2B9456A0CE0CAB9856AF7
S315080022906C880420FFF7BDFD06E0817F8A4210DACC
S315080022A0C06A50F822502C7820000AD0F088844260
S315080022B028BF04460023224629460020FFF7C5FE0C
S315080022C000273846F2BD0000104842F6E06101607A
S315080022D00C214160782181604FF49661C1600C48F9
S315080022E08169890889008161016A41F001010162F9
S315080022F0816921F070018161816941F03001816154
S31508002300016841F00101016070470000380B0020A8
S3150800231000F0004080B500F027F82348007840B167
S315080023202248016821F4706141F48071016004213A
S31508002330016101BD10B51D481D4C01680909090157
S3150800234001604FF4AE62016821F0F00101600021DE
S3150800235018482060FEF735FFE06D20F0050040F0D4
S315080023600100E065002010BD10B51048124B016849
S31508002370124C21F4704141F4804101600022104959
S315080023808A654FF400421A6008230B60CA6003236B
S31508002390236060238B6580680349C00800F001004C
S315080023A008700848026010BD0815002000B00040FB
S315080023B000100140C804002080E100E024BC004071
S315080023C014A8004000E100E002466FF0020013780E
S315080023D003F07F01212900D0704710B554781849B9
S315080023E0202C14D02AD3222C22D027D25488002C71
S315080023F001BF9488002CD288072A1FD1DA091DD07C
S31508002400BDE81040002307220020FFF71EBE5488AF
S31508002410002C01BF9488002CD288072A0ED1DA092D
S315080024200CD1BDE81040002307220020FFF741BE6B
S315080024309188002902BFD1880029002010BD00001C
S3150800244074040020042900D0704780B50D208DF84B
S3150800245000000023012269460520FFF72AFE01BD78
S315080024602748018A40F6A772914202BF408A4FF474
S315080024707F41084203D1022801DB01207047002072
S315080024807047F8B504461D4E012030700D46FFF71B
S31508002490E7FF18B94FF40170FDF794FE1848876AEC
S315080024A0294644F48070B847002131700FF254066B
S315080024B018B9294644F40070B847305CF2BD2DE9D6
S315080024C0F041044688465600FFF7CAFF18B94FF48C
S315080024D00170FDF777FE0A480FF22805476A0023C0
S315080024E0324641462046B84720B93346002241467F
S315080024F02046B847285CBDE8F08100000D1500208D
S3150800250000000808000202024B4B4647120100026F
S3150800251002000008C4100F000000010203010000B9
S3150800252009024300020100C0320904000001020248
S3150800253000000524002001052401000104240200EE
S315080025400524060001070582030800FF09040100A7
S31508002550020A00000007058502400000070505027B
S3150800256040000000040309043403530069006C00AA
S31508002570690063006F006E0020004C006100620075
S315080025806F007200610074006F00720069006500D8
S315080025907300200049006E0063002E000000000052
S315080025A03A03530069006C00690063006F006E000F
S315080025B020004C00610062007300200043004400C4
S315080025C043002000530065007200690061006C003A
S315080025D0200050006F007200740000006425000897
S315080025E068250008A02500087C04002001010202D5
S315080025F00000000045240008C92300080000000068
S31508002600000000000C25000820250008DC2500082D
S3150800261004000000EC250008F02500080000000072
S315080026200000000000000001EE0834B6D0040020C7
S31508002630E0040020F004002038050020980500205A
S31508002640F805002038080020C8040020D804002017
S31508002650E8040020F804002078050020B8050020CA
S3150800266038060020781001407C1001408010014097
S3150800267084100140881001408C10014090100140E0
S315080026801010014014100140181001401C100140A0
S31508002690201001402410014028100140380A00206B
S315080026A000C201000000080022033000300030009C
S315080026B0300030003000300030003000300030008C
S315080026C0300030003000300030000000000000000C
S315080026D00000000000000000480B00200000000079
S315080026E00000000000000000D00B00200100FFFFE2
S705080000757D
