S01500006170702D626F6F746C6F616465722E73333746
S31508000000000400207500000881000008810000082F
S31508000010A70B0A0100000000010254610020000835
S31508000020041B00008F0D00081F11000818060008A1
S315080000308B070008010900084D090008090800088F
S31508000040E7070008DD090008ED07000800000000C2
S31508000050FFFFFFFF05480068202100EA010020B1E4
S315080000600348016842688D46104770472C000040D7
S3150800007000200008FFF7EEFF00F00DF800F040F84A
S3150800008005E00000854670474248008870474FF4EF
S31508000090017000F099B838B500F0C0F84FF20F04B7
S315080000A03D4D28B140F2052028806C80012032BDE4
S315080000B03A480068C00615D56888A0421ED1288827
S315080000C040F2022188421CBF40F20621884215D020
S315080000D040F2011188421EBFB0F58A7F40F2111125
S315080000E088420BD02E4C208A40F6A721884205D19B
S315080000F02068FFF7C7FF6068804700BF002032BD51
S3150800010038B50400274872B60168490849000160F5
S3150800011000F0CAF821480068000910F001000CBF79
S315080001202149224902E0CD2201F8012B204A9142B9
S31508000130F9D32049204A214B03E011F8015B02F864
S31508000140015B9A42F9D31E491E4A002301E001F8D1
S31508000150013B9142FBD3104A53884FF20F05AB423D
S3150800016040F205210AD113888B4205D030B1180A0E
S31508000170012818BF022801D1194601E004B9002157
S31508000180044801804CF23C30508000F015FABDE876
S3150800019032407CE7B40C0020000000202C00004010
S315080001A000200008FCED00E0000000209800002078
S315080001B0000400204C13000800040020040400205A
S315080001C004040020BD0C00200D4A302111600D4AA0
S315080001D0116010210C4A1160010A00290B4908BF59
S315080001E0000208804FF20F004880BFF35F8F08486F
S315080001F00021016041600748074908607047000010
S315080002003020004030C8004010D0004000000020D8
S315080002101C4000400400FA050CED00E00020704781
S3150800022080B500F0FDF90121152000F006FA152029
S3150800023000F02DFA0121072000F0FFF9072000F051
S3150800024019FA1748016821F01001016001BD000084
S31508000250052800D9704710B5DFE800F01721030F0D
S315080002601C17104C2088411E2180C0B9072000F0B9
S315080002701BFA42F21070208010BD072000F007FA22
S31508000280BDE81040152000F00FBABDE81040152053
S3150800029000F0F0B9BDE81040152000F0F8B910BD1F
S315080002A000BC0040B60C0020554951200860704734
S315080002B038B55449C9780429B4BF302460244FF4AA
S315080002C0F071B1FBF4F1451A1E2DBCBF4FF4017055
S315080002D0FFF77AFF4C484D4A07210160002141602B
S315080002E081604FF00071116005FB04F1C91C890893
S315080002F0491E416031BD434A01215170D8E72DE9B5
S31508000300F041444F424D78883E4E4FF6FF784045BF
S3150800031040F2DC541CD14048018802237F22B81CD5
S3150800032000F0D8F97888404504BF02207880A8698B
S31508000330800703D4A86940F00200A8610120B070C4
S31508000340788828602046FFF7D6FF2046BDE8F0816A
S31508000350A8698007EED52C480068C00348BF00F09E
S315080003603BF8B0780028F0D1A868A9687A8810F018
S31508000370010003D10F2A08D2521C06E0890704D5CA
S31508000380397811B1032AA8BF424492B2022A3870BA
S31508000390B8BF02227A80286879888842CED1A869AF
S315080003A000F00300032808D0A869154940F00100A9
S315080003B0A8610120E861512008600020C6E710B551
S315080003C0044601E000F0BCF92046FFF798FF01005B
S315080003D0F8D110BD0220F2E70B480C4A0021416013
S315080003E08160016821F00201016000210548417021
S315080003F04FF000711160817809B100218170704752
S3150800040000800040B80C002010E000E004ED00E099
S315080004100440004000040020481300080078704794
S31508000420002101608180C18001817047F8B50446CA
S315080004300D461646002711E020688030206000200F
S31508000440E08080202081A088401CA080BFB2E08880
S31508000450411C2044E180807AE8557F1CB8B2B0423E
S315080004600CD2E08821898842F0D32068802204F1E2
S315080004700A0100F045FA0100DED0F2BD0020F2BD07
S315080004801720704710B5044600F0D3F82046BDE89B
S31508000490104000F0C8BA2DE9F041A4B000F0ACFA5B
S315080004A000F0C7F800F0FEFA0121684600F002FBEA
S315080004B03F4C04F1800500206860A86000F093F9BD
S315080004C000280FBFE8608168E96040882880684690
S315080004D000F0BFFB0028074644D1BDF80610BDF85A
S315080004E004600DEB010000F10A0828788007F6B2CF
S315080004F00ED5E96861B1686832184B1E22EA03070F
S3150800050010B1A868B84203D2384600F067FAAF605F
S3150800051032466868414600F019FA074680B96868A5
S315080005203246214600F0ECF9002000E0401CB042BB
S3150800053006DA215C18F800209142F7D0832706E0F6
S3150800054068683018002F6860C1D01B2FBFD0042000
S31508000550FFF77EFE0121384600F003FB384624B03B
S31508000560BDE8F081172FF0D10020F8E770B5DAB0B2
S31508000570044636A8FFF754FF012000904FF40263A3
S315080005800C4A36A901A800F002FC0FF28C050FF2FE
S315080005907C0600F04EF8200014BF3246002201A95E
S315080005A0284600F0BCFD5028F3D05AB070BD0000B4
S315080005B0240C00200404002010B5FFF765FD04464E
S315080005C000F0D0FDFFF72CFE00F0DFF818B14FF46D
S315080005D00170FFF7F9FD00F02CF840F20110844293
S315080005E01CBF40F21110844209D0B4F58A7F1FBFA0
S315080005F040F20520844240F20320844201D10120C2
S3150800060000E0002000F0B0FD002010BDB312000885
S31508000610EF1200081D0400082D04000881040008D4
S315080006201148012181604EF6BE2141600121016019
S3150800063070470E49012008607047F0B5C20892025B
S315080006400B4CA518830010F0040014BF6E68A6585A
S3150800065003F00C030F279F40BE439940314308B16E
S315080006606960F0BDA150F0BD006000400860004020
S3150800067000B00040C108032908DA012100F007028A
S315080006809140C008104A02EB802001607047C108FB
S31508000690032908DA012100F007029140C0080B4A35
S315080006A002EB802001607047C10803290ADA084A6C
S315080006B002EB812101230A6800F0070003FA00F023
S315080006C0504008607047000014B0004010B0004069
S315080006D00CB0004030B5044610467F2808BF0020FD
S315080006E04BF23462914283B01AD108237F2240F636
S315080006F012016846FFF7EEFF08220FF23C01684632
S3150800070000F08FFD30B908237F2240F2A2716846B7
S31508000710FFF7E0FF08226946204600F069FD37BD6D
S31508000720044D294300FB03111A46204600F060FDDC
S3150800073037BD000000000408FFFFFFFFFFFFFFFFB3
S3150800074007490A68032809D34B6D43F001034B6533
S315080007500B689B1AC3F313038342F9D3704700004F
S31508000760382000409949086048680007FCD50868A1
S3150800077070479649FF2008604A681207FCD54A6800
S31508000780920748BF0868C0B2704710B5092109200A
S31508000790FFF753FF04210A20FFF74FFF09210B201B
S315080007A0FFF74BFF01210C20FFF747FF8848894CCC
S315080007B00021C16001614160102141600221016090
S315080007C044F62060FFF7BCFF102060609F20FFF70B
S315080007D0C9FFFFF7CEFF10211F28216001D1002095
S315080007E010BD862010BD0FF2F81070470020704724
S315080007F010B5784C10206060D720FFF7B3FFFFF7DD
S31508000800B8FF1021216010BD80B5FFF7F1FF8028E1
S31508000810FBDB01BDF8B504460D461646FFF7E8FFB3
S315080008208028FBDB6B4F10207860D220FFF79AFFF9
S315080008306002000EFFF796FF200A4006000EFFF73B
S3150800084091FFE0B2FFF78EFF00F016F800F014F8FB
S3150800085000F012F800F010F805E0FFF7EAFEFFF7DF
S3150800086088FF05F8010B3046461E80B20028F4D1F1
S31508000870102038600020F2BD002073E72DE9F84308
S31508000880064688469146FFF7B3FF8028FBDB300A09
S315080008904400F50BB9F1FF0F4E4F13DC10207860BA
S315080008A05320FFF75FFFE8B2FFF75CFFE0B2FFF700
S315080008B059FFF0B2FFF756FF10203860FFF798FF90
S315080008C08028FBDB102078608220FFF74BFFE8B218
S315080008D0FFF748FFE0B2FFF745FFF0B203E0FFF786
S315080008E0A8FE18F8010BFFF73DFF4846A0F10109DD
S315080008F080B20028F3D1102038600020BDE8F283CA
S315080009002DE9F84300F05BF83ABF3119814285209A
S315080009101AD200F048F804D000F04BF803D3071BAE
S3150800092004E04E4501DA374600E0474630000AD073
S31508000930BAB229462046FFF76DFF010004D100F040
S315080009402BF8F2DAEFE70020BDE8F2832DE9F84349
S3150800095000F035F83ABF3119814285201AD200F0E5
S3150800096022F804D000F025F803D3071B04E04E450F
S3150800097001DA374600E0474630000AD0BAB22946BF
S315080009802046FFF77BFF010004D100F005F8F2DAF4
S31508000990EFE70020BDE8F283F61BBFB23C19ED195C
S315080009A0B6B24E457047200640F201194FF48078DA
S315080009B07047200A000200F580708142704704469D
S315080009C005480D4616468442704700003CC800405C
S315080009D054C8004010B40040010004008820704745
S315080009E002010000000000000001000000000400F1
S315080009F03C1300080100000080B5274868214161C2
S31508000A00022181600121016009200921FFF715FEF5
S31508000A10BDE8044004210A20FFF70FBE1F480068FE
S31508000A204006FBD570471E49CA685207FCD50860C0
S31508000A30704710B5044603E014F8010BFFF7F3FFFF
S31508000A4020780028F8D110BD10B5044600090A28F8
S31508000A50ACBF37303030C0B2FFF7E5FF04F00F0007
S31508000A600A28BDE81040ACBF37303030C0B2DAE7EC
S31508000A700A48006810F0020018BF0120704710B538
S31508000A800446FFF7F5FF20B10548006820700020EE
S31508000A9010BD012010BD000054C8004048C80040E1
S31508000AA03CC8004080B56846FFF7E9FF0028FAD041
S31508000AB001BD00000170012201290CBF80214021DF
S31508000AC08180427000218270C180018120480160C6
S31508000AD00E218162016821F0100101600021416345
S31508000AE04162426170472DE9F041194F194E04469B
S31508000AF000F032F890464FF0FF303060C7F82C808F
S31508000B00002078620D46386840F001003860FFF72B
S31508000B1090FD012C0FD135B9FFF7AAFF00F00100AF
S31508000B2080F0010002E02846FFF7A9FF28B900F087
S31508000B3013F800200AE0012008E03068C007E6D56F
S31508000B405FEA0800E3D000F007F81620BDE8F08158
S31508000B5000E0004000A800403868400840003860BF
S31508000B60704738B504460D4600F009F800F007F856
S31508000B702A462146BDE838401820FFF783BC2A4696
S31508000B8021461820FFF77EBC70B5044682B00020C7
S31508000B9020814AF6B43220786946FFF7A4FF08B1E7
S31508000BA01C2076BD9DF80000032818BF182801D11F
S31508000BB0182076BD042801D1172076BD012801D05A
S31508000BC0212076BD002500E06D1CA188EDB2091D27
S31508000BD08D420BDA601900F10A01207840F2DD2215
S31508000BE0FFF781FF0028EFD0262076BD00250020DC
S31508000BF006E00146EDB260196D1C007B00F024FB8F
S31508000C00A288E9B29142F4D3A37AE17AC918FF29F6
S31508000C1001D0222076BDA5182E7BB6EB102F01D069
S31508000C20232076BD697BC0B2814201D0242076BDDF
S31508000C30A078834207D0401EC0B2834201D1272044
S31508000C4076BD252076BD901C20810220E0800020FC
S31508000C5076BD38B504466078012804D040D3032809
S31508000C603CD033D33CE02078012816D13B25684692
S31508000C70FFF705FF0028FAD04320FFF7D4FE2078B7
S31508000C8040F2DD220021FFF72EFF30B12846451E2F
S31508000C90C0B20028F0D11B2032BD02206070204669
S31508000CA0FFF772FF050018BFFFF7FCFE272D19D1C5
S31508000CB0A0782278411EC9B20620FFF7E3FB002D73
S31508000CC0EDD10320FFF7C4FA002032BDFFF7EAFE94
S31508000CD000F023F8A078401CA070E0E7172032BD8A
S31508000CE0182032BDA80603D52278A1781520E4E796
S31508000CF0680603D4182D18BF1C2D07D1217828465D
S31508000D00FFF72FFF04206070284632BD172DD6D175
S31508000D1000F003F803206070E0E72278A178062047
S31508000D20FFF7B0BBF8B504460D4616461F4607E062
S31508000D303046A047294600F09AFA05467F1E761CDB
S31508000D40B8B20028F4D12846F2BD38B50C46154687
S31508000D5005E0014614F8010B00F089FA6D1EA9B2E8
S31508000D600029F6D132BDF8B504460D4616461F468B
S31508000D70286823683A4631469847040005D1E8684A
S31508000D803A463146FFF7E1FFE8602046F2BD70B506
S31508000D908AB004460E98A072238162600D4602222C
S31508000DA028686946FFF7ACFDBDF8000048B3286817
S31508000DB0202201A9FFF7A4FD00200FF29C3101AA09
S31508000DC00B5C125C9A421CD1401C0828F7DBBDF864
S31508000DD00C0040BAA8B9079801BA202911D306BA57
S31508000DE0FFF701FDC06886420BD2202201A94FF009
S31508000DF0FF30FFF7AAFFC349884202D1079800BA15
S31508000E00286025604FF0FF30E060002020740AB0AB
S31508000E1070BD2DE9F84F8B4604469BF81B70D068C9
S31508000E20B849802FA8BF802788421E4653D1002E76
S31508000E304FD0B06800904FF0FF384FF000090BEB29
S31508000E40490000F1480A9AF800500DE0FFF7F1FB57
S31508000E50E80240F0006200984FF400634146FFF74D
S31508000E6061FF6D1C8046ADB29AF80100A84205DA0A
S31508000E7009F10109B9F1060F02DAE0E7FF2DE5D11C
S31508000E80DBF844006FEA0801884224D1A068736839
S31508000E9000BA7A0859469847C8B9E06805BAA068FA
S31508000EA002BAB0683B464FF0FF31FFF73BFFC0433D
S31508000EB085420CD140F6A720ABF810000122A068A5
S31508000EC0736800BA0BF110011030984708B1422038
S31508000ED002E0172000E04320BDE8F28F2DE9F04F2D
S31508000EE0894609F1040583B08046D5F800A0A8888C
S31508000EF0ADF8000014460423524600F00AF9010032
S31508000F0010D1BAF8000040BA80B20190BAF80200CF
S31508000F1047BABFB2F80706D501984FF2086188426A
S31508000F2018BF46207CD1B7F5026FC8BF4E2077DCC4
S31508000F30002F74D00198DFF8D0B109F13C0668B1EA
S31508000F404FF20861401A6FD040F2FC51401A00F087
S31508000F50BF80FF387BD0FE3879D0D1E0287B08B136
S31508000F6051205DE08D2F28BF4F2059D23B4609F10D
S31508000F70180200F0CDF8010052D1F278802AA8BFF5
S31508000F80802202F10C00874201BFA88A40BA00F409
S31508000F907F40B0F5007F45D1E88A40BA4EF250311D
S31508000FA0884202BF288E40F6A72188423AD1688E29
S31508000FB000F47F41B1F5807F01BFA96909BADBF862
S31508000FC01C3099422ED1BBF8181040F203239942DF
S31508000FD00DD1B0F5847F25DB706C410522D14B49D4
S31508000FE0081AB0F5303F1DD8B0F5005F1AD34FF692
S31508000FF0FF70288609F124014FF0FF30FFF7A5FEA0
S31508001000E96909BAC943884204BF3078042809D176
S3150800101070781B2818BF062804D1012028730020E1
S31508001020BDE8FE8F4520FBE7287B002852D0BDF897
S3150800103000008742B4BF3C460446234600F06BF8DE
S315080010400100EDD13F1BBFB2002FF0D1E7E7287BA7
S3150800105000283FD0042300F05EF80100E0D1DAF85A
S31508001060000005BADBF81C003F1F8542BFB238BF37
S315080010704820D5D3F16B7819884228BF4920CFD2AA
S3150800108001984FF6035188420AD14CB12268294685
S315080010900220904720B14A20C2E7BF1BBFB275198C
S315080010A0002FBCD0BDF800008742B4BF3E460646B6
S315080010B0334600F030F80100B2D1002CEDD0636859
S315080010C072085146284698470028E6D04B20A7E7DD
S315080010D0287B08B94120A3E7042F18BF4C209FD1CD
S315080010E02A68042300F014F8010099D123464A46D9
S315080010F009F1240109F1140003B0BDE8F04F88E6B0
S3150800110044208DE7E320BBDE00000008000003084A
S315080011104946404627E652464946404623E670B5C4
S315080011200D46044628898028164603DA4F2070BDE6
S31508001130A87A78B9324629462046FFF7CFFE002816
S31508001140F6D0172807D1286861688847172802D17A
S31508001150002070BD502070BD534C41424942522078
S3150800116000000000FFF736B910B504460020FFF767
S315080011706FF824BB0020FFF7F9F950B90120FFF7F3
S31508001180F5F930B90520FFF763F840F20120FFF7BB
S315080011901BF80420FFF75CF80120FFF759F8BDE8B3
S315080011A0104040F20320FFF70FB80FF23400FFF7A4
S315080011B040FCFFF733FC40F20220FFF705F8FFF783
S315080011C06AF90400F1D00FF22000FFF732FC20463E
S315080011D0FFF73AFC01A0FFF72CFCF0E70D0A000028
S315080011E00D0A4F6B0D0A00000D0A455252200000E9
S315080011F0814212D210441144401E491E93B2002B5C
S315080012001EBF11F8013900F80139521EF6D1704790
S3150800121011F8013B00F8013B521E93B2002BF7D19F
S31508001220704710B500E0521E93B223B100F005F8DE
S31508001230F9D0181B10BD002010BD10F8013B11F89D
S31508001240014BA342704700000A46090241EA1221EF
S315080012504840C0F30311484080EA003041010206C5
S31508001260C9B2D20E41EA0221484080B270470A0A42
S31508001270484000F0FF0008214308C00746BF03485E
S3150800128058401846491EF7D1504070472083B8ED9C
S315080012902748018A40F6A772914202BF408A4FF456
S315080012A07F41084203D1022801DB01207047002054
S315080012B07047F8B504461D4E012030700D46FFF7FD
S315080012C0E7FF18B94FF40170FEF77EFF1848876AE2
S315080012D0294644F48070B847002131700FF254064D
S315080012E018B9294644F40070B847305CF2BD2DE9B8
S315080012F0F041044688465600FFF7CAFF18B94FF46E
S315080013000170FEF761FF0A480FF22805476A0023B5
S31508001310324641462046B84720B933460022414660
S315080013202046B847285CBDE8F0810000BC0C0020C8
S3150800133000000408000202024B4B4647415434356C
S315080013404442303231440000EE0800000100FFFF3D
S705080000757D
