S02A000066756C6C2D66656174757265642D636F6E74726F6C6C65722D686172642D636F6465632E73333732
S3150800200098150020913A0108B5310108B93101083F
S31508002010A70A090100220008041903AC20599100F7
S3150800202000000000000000000000000000000000A2
S315080020300000000000000000000000000000000092
S315080020400000000000000000FFFFFFFFFFFFFFFF8A
S31508002050FFFFFFFF00E0010800000000000000008D
S31508002060FFFFFFFFFFFFFFFFFF000000000000006B
S315080020700000000000000000000000000000000052
S31508002080F02F002000000000F02F0020F02F002085
S3150800209098150020444C0108903C0108380C002093
S311080020A06C0B0020000002080030002035
S3150800220098150020913A0108B5310108B93101083D
S31508002210C1310108BD310108C53101083C32010848
S315080022203C3201083C3201083C3201083C320108C4
S31508002230C93101083C3201083C3201085B6E0008CE
S31508002240530201083C320108B74400083C32010831
S31508002250092B00083C3201086DE800083C320108E9
S31508002260A52800082F600008CB32000899AE0008A0
S315080022703C3201083C320108292300083C32010897
S31508002280C77100083C3201083C3201083C3201089B
S31508002290322000F0BCB880B52C482D4A2D4B0021C1
S315080022A041654FF48041116004220260C1600D222D
S315080022B01A6000224265426D42F060024265264875
S315080022C0016000F059F80A2302220FF29C0132201D
S315080022D000F0F6F802220FF29C01FFF7D9FF02225E
S315080022E00FF28801FFF7D4FF02220FF28401FFF7ED
S315080022F0CFFFBDE8084002220FF26801322000F045
S3150800230086B8164810B50068154C800606D52046CE
S31508002310BDE810404FF4A05100F014B9042000F0B5
S3150800232010FA0020207010BD08484FF48041C160A3
S315080023300421016009480068800644BF042000F0B3
S31508002340F3B94FF4A051064800F0FCB814A80040B1
S3150800235080E100E014BC004000E100E008B4004061
S31508002360941700201158000014B600001607000044
S3150800237019040000280400005948017849B9594948
S3150800238000220A600E22CA6003220A610A6001213D
S31508002390017070475448554902680A8002684A80A5
S315080023A0504A13688B80D368CB8013690B81002150
S315080023B011600E21D160032111611160016821F4B9
S315080023C0706141F450610160016821F0F00141F04B
S315080023D0D00101607047454843490A68038822F4DA
S315080023E0706203F470631A430A600A68837822F0FD
S315080023F0F00203F0F0031A430A60002239490A6022
S31508002400C288CA6002890A618088086070472DE917
S31508002410F04100F073F8364E042000F075F8804657
S31508002420B068000705D400F0B7F900F063F8F7D2F2
S315080024303DE007F0FE0000F065F80746B068800743
S3150800244006D400F0A9F907F635418142F6D22EE006
S31508002450B068C00703D5FFF7BEFF02202EE00027AD
S3150800246000E07F1CF8B2A84214D2FFB2E05D00F08B
S3150800247049F88046B068800705D400F08DF900F069
S3150800248039F8F7D213E0B068C007EAD5FFF7A3FF1B
S31508002490032013E0082000F037F80446B068000768
S315080024A009D400F079F904F635418142F6D2FFF7EE
S315080024B092FF012002E0FFF78EFF0020BDE8F081C1
S315080024C038B51C46FFF7A3FF0546200005D04FF494
S315080024D07A70604380B200F090FA284632BD000058
S315080024E0C12F002054C8004000B400405E180020E8
S315080024F03CC8004008F635418142704707460C46FD
S31508002500154647E730600220306100F045B9000003
S3150800251038B54478456800F0C1FA00F087F85B1BC7
S31508002520B3F1004F98BF5550BDE8324000F0BCBA31
S3150800253010B500F066F86060042020702046BDE8FB
S315080025401040E5E738B504460D4600F0C5FA2818E8
S315080025506060012020702046BDE83240D8E770B59B
S3150800256000F04FF8054600F099FA064660686FF0E5
S31508002570004100F02CF8401920603046BDE8704054
S3150800258000F092BAF8B504460D46164600F0A4FACD
S31508002590002156B1FF22327007E0121AAA4202D26F
S315080025A0154606B13170491C083422680AB928460E
S315080025B0F2BD13781F00F6D0042B04D05268831A94
S315080025C0B3F1004FE9D806B131700020F2BD002200
S315080025D0D8E738B500F015F805460EE001780A0088
S315080025E00AD0042904D04168691AB1F1004F03D80A
S315080025F00421017061688847083420680028EDD1F5
S3150800260031BD044600F068BA10B5FFF7FAFF00F0CE
S315080026100DF8C01AB0F1004F07D854186068FFF7D4
S31508002620D8FF2046BDE8104099E710BD0C2161434C
S31508002630364A5358704770B5354E364909780446B8
S315080026407078884204D3E6210FF2CC0000F00CFB28
S315080026507578681C70700C212C4869430844012160
S315080026604460017200E04D7054F8081B0029FAD145
S31508002670FFF775FF284670BDF8B54FF0FF310C24FB
S3150800268000916043214D224E284400210172307882
S3150800269020B300F0EBFB28B940F21D110FF27800C9
S315080026A000F0E2FA00F018FA002105E0009B9A42D1
S315080026B088BF1A460092491C7378CAB29A4211D248
S315080026C0C9B204FB01F3EA58871AB7F1004F05D9D6
S315080026D02B44121A1B7A0BB9002AE7D100F0CEFB5D
S315080026E00020F2BD684600F028FC10B9684600F0E4
S315080026F015FA0120F2BD0C23044A5843104401215F
S315080027000172704702490870704700006818002077
S31508002710CC2F0020504001086576656E742D636FD6
S315080027206E74726F6C2E6300C108032908DA0121E2
S3150800273000F007029140C008134A02EB80200160AE
S315080027407047C108032908DA012100F00702914001
S31508002750C0080E4A02EB80200160704710B5044697
S3150800276000F09CF9E108032909DA094A02EB8121FC
S3150800277001230A6804F00704A3405A400A60BDE82A
S31508002780104000F091B9000010B0004014B00040AD
S315080027900CB000407047000000F06ABE2DE9F8430F
S315080027A005460E463000144605D100F061FE201895
S315080027B0C0F313004DE02F46022F0FF23C1803DB3F
S315080027C04021404600F050FA102C05D22846B04762
S315080027D0BDE8F14300F04CBEDFF8109159F8270028
S315080027E018B14821404600F03FFAB4F5002F03D34C
S315080027F04921404600F038FA49F827603C4F3D4EDB
S3150800280095B900F04BF9054600F032FE2418A0B23F
S315080028107860200C386002203060284600F044F9C1
S31508002820306C40F0020011E000F038F9054600F07F
S315080028301FFE2418A0B2F860200CB860042030608F
S31508002840284600F031F9306C40F004003064C4F3D7
S315080028501300BDE8F28370B504462646022E0D46DF
S3150800286004DB66210FF2900000F0FEF900F016F97D
S315080028701E4951F82620AA4210D1002241F82620E6
S31508002880002C1C490A6C04D122F002020A640222B6
S3150800289003E022F004020A6404220A60BDE87040DC
S315080028A000F002B970B5134C104E2068216C01EA8D
S315080028B00005ADB2A80709D5206C20F002002064F7
S315080028C03168080002D000203060884768070AD5BA
S315080028D0206C20F0040020647168080003D00020F2
S315080028E0706001208847256070BD0000E02C00203C
S315080028F04020004008A0004073796D626F6C2D740B
S31508002900696D65722E63000010B5002000F0E3FEC5
S315080029105A4C40F68C2188422068B4BF40F0080023
S3150800292020F00800206010BD10B504465448018800
S3150800293082B000F05DF89DF800109DF80100FF29AF
S3150800294002BFFF280420002122004E4A136818BF40
S31508002950801C23F46073C0B20828A8BF072043EA86
S31508002960C010106008291068A8BF0721C00841EAEE
S31508002970C00010604448047013BD444800B501887F
S3150800298083B000F035F8BDF800004FF6FF718842B5
S315080029900EBF4FF4E1600A2190FBF1F0ADF800009C
S315080029A03948007808B33648018802237F2201A8EF
S315080029B000F0C6FE9DF80500BDF80030FF2808BFE8
S315080029C00420811CC9B20829A8BF0721C1F12F021A
S315080029D002EBD272C0F12F00521000FB0320C1F1A6
S315080029E02F01B0FBF1F0ADF80000BDF800000EBDF8
S315080029F002237F22684600F0A3BE25490A680328F9
S31508002A0009D34B6D43F001034B650B689B1AC3F35F
S31508002A1013038342F9D3704710B5040004D110BDDF
S31508002A204FF47A70FFF7E9FF2046441E80B200286B
S31508002A30F6D110BD704720B1012807D0032818D059
S31508002A4019E0144801B11721016012E049B148089C
S31508002A5000F1B77000F55850B0FBF1F0B0F1011F66
S31508002A6001D3202070470C4900F001024A60400853
S31508002A7008600020704721207047000000BC004015
S31508002A80284A010818000040D12F00202A4A0108C8
S31508002A9038200040100004E068C80040EFF31180B9
S31508002AA0602181F31188704780F311887047000010
S31508002AB0012100F01F0291405F4A04E0012100F065
S31508002AC01F0291405D4A400942F82010704780B5C0
S31508002AD000F002F880B202BD10B5FFF7DFFF5849D3
S31508002AE00A68496841EA0244FFF7DEFF554801785B
S31508002AF031B1554909688C4202D15448406810BD25
S31508002B0000210170204610BD80B500F0A9F8504993
S31508002B100720086001204D49087001BD2DE9F843DA
S31508002B2004460025206810B900F0A8F92EE0FFF742
S31508002B30B5FF00F02EF82068444E454F10F1010FFE
S31508002B401CBF401C2060FFF7C7FF2168814600F0C4
S31508002B506DF821684944090C016035700220386017
S31508002B6038640420FFF7A4FF4046FFF79DFF0120C5
S31508002B7001F01FF93D64307838B9FFF7ADFF2168D9
S31508002B80081A48448525206000E025602846BDE8E7
S31508002B90F2838046042091E72DE9F84F0D468246D8
S31508002BA028689346002710B900F068F93BE0FFF75C
S31508002BB075FFFFF7EEFF2868244C254E10F1010F2C
S31508002BC01CBF401C2860FFF787FF277081462968CD
S31508002BD000F02CF829684944090C0160022030608D
S31508002BE030640420FFF764FF4046FFF75DFF28685E
S31508002BF0C8B14844BAF1000F606003D1022001F061
S31508002C00D8F803E05946022001F0AEF83764207878
S31508002C1038B9FFF761FF2968081A484485272860EC
S31508002C2001E02F6027703846BDE8F28F094849440D
S31508002C3089B241607047000000E100E080E100E0F1
S31508002C4010600040AC2C0020B02C0020E82C00209E
S31508002C5014A00040186000400146002200209BE7AF
S31508002C607047000042DE704738B504460D4601F04D
S31508002C70DCF8FFF713FF2946204601F04AF92B46F0
S31508002C8022460FF2D411002001F0B3FB2946204654
S31508002C90BDE83440E6E767482DE9F047664D016828
S31508002CA02E1D4FF420687165016AB165634909688C
S31508002CB0F165416A3166816A7166C16AB166016BFE
S31508002CC0F166806B306796F8340040074CBFF46BAA
S31508002CD0B46B01F070FC0022F2648442584A014643
S31508002CE024BFA2F1200AA2452746316505F18C03C7
S31508002CF0DFF850C1DFF850E118D3A0693064E46901
S31508002D007464746DC4F30804062C13D1704511D38A
S31508002D1060450FD200884DF64264A0420AD1306859
S31508002D20586040F201787068986003E000273764BD
S31508002D30776407464548814202D2014600E0091DEC
S31508002D400846904203D20C68B4F1CD3FF7D040490B
S31508002D50081AB0640021002005EB8004401C0628F0
S31508002D60A167F9DB002003E0C0B205EB8004A16788
S31508002D70974222D252F8041D7145F9D36145F7D21C
S31508002D80CC07F5D5002405EB8409D9F87890894550
S31508002D9002D0641C062CF6DB062CE9D1002814BFE9
S31508002DA0401E0520E0E7716F002405EB8402641CD1
S31508002DB0D76F9767052CF8DB19600146481EC9B21C
S31508002DC00029F0D1706DC0F3080002280AD0032844
S31508002DD015D0042816D0052817D0062818D00C2890
S31508002DE01CD01EE01B480168890748BF40F6021838
S31508002DF01CD40068C00719D540F2025816E040F600
S31508002E00012813E040F6022810E040F603280DE0FA
S31508002E10B8F5206F0AD140F6042807E040F60528E1
S31508002E2004E018B1242838BF40F607284046BDE814
S31508002E30F087000004ED00E00000002000E300E059
S31508002E4098150020903C0108902200089800002060
S31508002E50981500201CA000400D0A5B4153534552AB
S31508002E60543A25703A25645D0D0A0000EFF3118087
S31508002E7060288041C043C00F70470000002181F3DD
S31508002E801188704770470120704770477047704730
S31508002E90704770477047002070470020704770479A
S31508002EA070477047704770477020704770B5044682
S31508002EB043380FF2940508D0401E012809D9801E10
S31508002EC001280ED9C01F33D02BE0BDE8704002F0B0
S31508002ED0F2B802F0C7F820B102F0EDF80028FBD1ED
S31508002EE070BD144E307818BB01203070002002F0F7
S31508002EF057F9442C12D00CD3462C05D00ED3472CA8
S31508002F0007D140F6010001E040F6020001F0B2FAEE
S31508002F1004E040F216312846FFF7A6FE002030707E
S31508002F2070BD2846BDE870404FF44A71FFF79CBE55
S31508002F3070BD0000C62F00207047002070477047FC
S31508002F4002F08ABB0000000072663463652D636177
S31508002F506C6C6261636B2D73747562732E6300000B
S31508002F6010B5DFF8544610202063FFF797FDDFF809
S31508002F704C160A6842F001020A60FFF795FDDFF871
S31508002F804006606020608A3061688931616001218D
S31508002F902163E060A060DFF82C16E0688930E06005
S31508002FA0022020634FF6FF70086010BDDFF8180690
S31508002FB045F26401C1601E21416250210162C821A7
S31508002FC0C1618165F021C16545F690014166882198
S31508002FD081660621C16644F2066101604FF6FF71FB
S31508002FE04160DFF8E805007838B1DFF8E40548F213
S31508002FF0607101604FF4C1514160DFF8D80501687E
S3150800300041F0040101600020DFF8CC1548707047D4
S31508003010DFF8B0050068C00700D408E07047DFF89D
S31508003020A405006810F0190F00D100E070470021D0
S31508003030002002F08FBC2DE9F0478046DFF89C158A
S315080030400120FFF708FC8A21DFF8740501FB08F167
S315080030504518681C4178007800EB0126DFF88015D2
S31508003060DFF880050978017000EB0809002089F867
S315080030700200B6B2B00603D5DFF86C45606E0006EE
S3150800308040F18180002006F00701032953D106F498
S31508003090406306F44041B3F5806F1CBFB1F5804F1D
S315080030A0002948D00422B3F5006F08BF082203D0D0
S315080030B0B3F5406F08BF0E2273065CBF921CD2B2EE
S315080030C0B1F5004F0CBF971C02F10807FFB27B1C35
S315080030D003EBD373DB054FEA136A5FEA080314BFF1
S315080030E063682368534526D3A818B1F5404F02D123
S315080030F002F054FD06E04078A95C01EB002080B29E
S3150800310002F04AFD010016D0310714D45FEA08011F
S3150800311014BF616821680AF10102914207D2E16889
S315080031205FEA080214BF022201221142EED1E95DCC
S31508003130042918BF0020E16D090901F00101884240
S3150800314089F802101FD00028A06C4FF400614FF4D4
S3150800315080620BD0B8F1000F08BF1146084212D0A2
S31508003160606C40F00100606401200AE0B8F1000FCD
S3150800317008BF1146084206D0606C400840006064EB
S31508003180002089F80200BDE8F0872DE9F84F0446CB
S31508003190DFF85454DFF84C6420000CBF28686868D0
S315080031A0C1B2052905DAFFF733FF7068401C706065
S315080031B089E040008DF800008A2000FB04FBDFF858
S315080031C000849DF8000008EB0B09484410F8081D18
S315080031D0427802EB01211FFA81FA81786631817003
S315080031E0317819B9DFF8F813097831703178DFF8D2
S315080031F0D4730170002131704170386C20F480500E
S3150800320038642000686E02D17868400504D4012C21
S3150800321023D17868000520D5FFF7FAFEDFF8CC033E
S31508003220017891B1002101701AF4E45FDFF8C00358
S31508003230016802D00022402005E099F80100000943
S3150800324000F001028F2002F006FD20000CBF4FF4AB
S3150800325080604FF40060786030E01AF4E45F2BD1A8
S3150800326003F07AF910B15FEA4A4025D518F80B0041
S31508003270802821DA386C99F80110890626440ED57B
S31508003280696E09060FD4A96CC9060CD439682200E0
S315080032900CBF80224FF480720840104203D1FFF71A
S315080032A0B7FE0020B070B2789DF80010484603F0CB
S315080032B0E3F90020B07001E0FFF7AAFE002C0CBF6E
S315080032C0012002202861BDE8F18F2DE9F84FBD4C99
S315080032D0DFF814632068216CDFF818A3DFF8FC8296
S315080032E0DFF8149301EA000538E060B18A22B44891
S315080032F0514308444078C00605D4BD4801680022F9
S315080033008F2002F0A8FC280608D50FB9FFF780FE23
S3150800331002F012FD802025F080052060E80509D519
S315080033200FB9FFF775FE02F007FD4FF4807025F41C
S3150800333080752060680407D50FB9FFF769FE4FF45A
S31508003340804025F480452060280407D50FB9FFF78B
S315080033505FFE4FF4004025F400452060002D00F084
S3150800336083800027280706D50020FFF764FE08207B
S3150800337025F008052060E80606D50120FFF75BFE64
S31508003380102025F01005206005F06000602803D1A4
S31508003390B06CC0050AD401E0A80605D52020206037
S315080033A025F02005002006E0680606D540202060A6
S315080033B025F040050120FFF7E8FEE80413D54FF491
S315080033C0805020600820D9F800B0C9F8000025F41C
S315080033D08055D9F80400000548BF02F019FD1FFA08
S315080033E08BF0C9F80000E8078DD5012020606D082C
S315080033F002F0D7FA6D0078B14FF4487241460120C1
S31508003400FFF7CCF902F054FA40054CBF032001201F
S31508003410002102F09FFA01279AF8010008B100F08E
S31508003420FBF89AF80000002806D003F017F80128E0
S3150800343007D16E48007800283FF465AF6F480078DA
S3150800344004287FF460AFF068400800F00101002905
S3150800345014BF7068306810B92068C004F7D5002911
S3150800346014BF7068306840E700202060BDE8F18F1F
S31508003470634800687047F0B506460D4689B00021D6
S31508003480032000F0CBF804AC08E034F811205040D3
S31508003490491C08293080F8DB6D1EB61CE8B290B1CD
S315080034A0002700F0D6F824F8170000F0D2F869468D
S315080034B021F817007F1C082FF3DB04A803F042FA53
S315080034C000200021E5E700F000F9012009B0F0BD71
S315080034D00321022000F0A2B84FF6FF71081A29212D
S315080034E090FBF1F03A3040B2704738B500F0B1F8C9
S315080034F0FFF7F2FF434D04462878B0B903210320AD
S3150800350000F08CF84048018802237F22684600F0C4
S3150800351017F900F09EF8BDF80010401880B2FFF7C2
S31508003520DBFF153868700120287000F0CEF868783F
S31508003530201A40B232BD80B50321022000F06EF891
S31508003540BDE80140D1E770B530480078002490B94D
S31508003550FFF7F1FF204E0546707848B13078401BDA
S3150800356040B203F0F8F90B2805DB3570012402E0B8
S31508003570012035707070204670BD25480078704768
S3150800358023490B78984200D1704780B5087040B13E
S315080035902049002008600948016821F0800101607F
S315080035A001BD03F010F802F0E6FF02F098FFBDE84F
S315080035B0024002F07CBF000000200040842000404A
S315080035C0A02E002000A000404C10004089170020C3
S315080035D0D010004080200040D62F00201F30000861
S315080035E088170020D82C002020200040AC2D002071
S315080035F0B42D0020D22F0020B82000406B170020E1
S3150800360038200040D42F00202C4A01086C170020CF
S31508003610D82F0020541000407047000070B50546AA
S315080036200E4603F09DF93F4C206C20F008002064FC
S3150800363003F098F9FFF732FAE90141F001013A4A35
S3150800364041EA0631116008212160BDE87040FFF7A4
S315080036502BBA2DE9F041354C354D324E25E003F0B5
S315080036607FF9344904200860306C40F00800306463
S315080036702F68286840084000286003F075F9D4F8D8
S315080036800080206820F04000206003F075F9C4F837
S3150800369000802F6003F068F9306C274920F0080095
S315080036A030640420086003F05DF930680007D6D559
S315080036B0082030602148006880B2BDE8F08180B5F6
S315080036C0FFF7ACFFBDE80140C3E7174801684908A2
S315080036D0490001607047F8B50746FFF74EF90446FA
S315080036E039460320FFF7EBFF054639460120FFF769
S315080036F0E6FF064600F0E7FB39460020FFF7DFFF46
S31508003700074600F0DFFB08480168490849000160E0
S31508003710781B0004711BB0FBF1F060434000000CFD
S31508003720F2BD000018A00040047000400080004070
S3150800373094ED00E000E100E080E200E00070004067
S3150800374030B5044610467F2808BF00204BF2346285
S31508003750914283B01AD108237F2240F612016846A7
S31508003760FFF7EEFF08220FF23C01684603F052F914
S3150800377030B908237F2240F2A2716846FFF7E0FFBE
S3150800378008226946204603F0FBF837BD044D294355
S3150800379000FB03111A46204603F0F2F837BD000075
S315080037A000000408FFFFFFFFFFFFFFFF012100F0F5
S315080037B01F029140DFF80026400942F820107047A2
S315080037C02DE9F04FDFF8F8459BB0834660681990FD
S315080037D0BBF1070F08BF4FF0030B0AD0BBF1080F68
S315080037E008BF4FF0020B04D0BBF1050F08BF4FF01E
S315080037F0040BDFF8D0653068716840EA0120B168CB
S3150800380040EA014000907068400703D5E06940F03F
S315080038100200E0613068400703D5E06940F0040023
S31508003820E06100983169C840C00703D5E06940F0F7
S315080038300800E0610020DFF88475DFF88C853860C1
S31508003840ABF10100032800F28682DFE810F05C0283
S3150800385007001F0004000020606017E0D8F8400049
S31508003860C00703D5E06940F04000E061D8F84000A1
S31508003870400703D5E06940F02000E061D8F8400031
S31508003880800703D5E06940F01000E061FFF706F90C
S3150800389000F0D8FA8DF860004FF00009D8F840001B
S315080038A0DFF828A5DFF82855DFF828151790D8F887
S315080038B044001690DFF82005C06C1590DFF818054F
S315080038C0006D1490DFF81005406D1390DFF80805B9
S315080038D0806D1290DAF800001190DAF80400109062
S315080038E0DAF814000F90DAF824000E90DAF83400AB
S315080038F00D9028680C9068680B90A8680A90E8688C
S3150800390009902869089068690790A8690690E86987
S315080039100590A86B0490DFF8C40400680968039151
S3150800392002212160DFF8B81409688DF80410DFF861
S31508003930B41409688DF80510DFF8AC1409688DF819
S3150800394006104FF0FF316162DFF86C140968C9048C
S315080039500BD57168C90708D5E169C90705D539685E
S3150800396041F480714FF001093960DFF84C14096899
S3150800397089040BD57168490608D5E169C90705D5D3
S31508003980396841F480414FF0010939600121DFF8B7
S315080039902824126852040ED5009AF368DA40D20732
S315080039A009D5E269D20706D53A68F36801FA03F33E
S315080039B01A4389463A60DFF800241268120410D5C3
S315080039C0009A3369DA40D2070BD5E269D20702D4E6
S315080039D0E269120705D53A68336989469940114361
S315080039E03960DFF8D4130968C90308D5E1690906FF
S315080039F005D5F97841F008014FF00109F970002161
S31508003A007268D207726848BF4FF480515206009A0E
S31508003A10F36848BF41F40051DA40D207009A336987
S31508003A2048BF41F48041DA40D207E26948BF41F411
S31508003A300041D20605D4E269920602D4E26952062A
S31508003A4001D541F01001E269120648BF41F4803100
S31508003A5008400290A52000F0ECF90120E063E06937
S31508003A60A16B11B1616A0142FAD0616A014200F0A4
S31508003A70F2800020E0634FF00109F87840F040003A
S31508003A80F87002F06DFF0D98D349CAF83400072084
S31508003A90C8F800000F20086002F0CEFF1998CE493A
S31508003AA060601798C8F840001698C8F8440015983A
S31508003AB0C864149808651398486512988865C749B4
S31508003AC01198CAF800001098CAF804000F98CAF8A6
S31508003AD014000E98CAF824000C9828600B986860A1
S31508003AE00A98A8600998E8600898286107986861A4
S31508003AF00698A8610598E8610498A8630298086082
S31508003B00B449039808604FF0FF30B8490860B448D4
S31508003B1000683870B34800687870B3480068B870B1
S31508003B20606AE16932693B68084001994B4000992F
S31508003B300B400106490E01F0010143EA8123010603
S31508003B40890E01F0010143EA81030106C90E01F05D
S31508003B50010101FA02F200051A4300F07C501043F5
S31508003B603860FEF79BFF02F0FDFE002020609DF8FE
S31508003B70600008B100F050F9F87898490968C90357
S31508003B8004D5C0F3C00109B120212162D8F840103C
S31508003B90890704D5C10744BF0221C8F80C10D8F814
S31508003BA04010490705D5C0F3400111B10421C8F8F2
S31508003BB00C10D8F84010C90705D5C0F3800010B11D
S31508003BC00120C8F80C008448C06C10F0E00F05D03E
S31508003BD03868C00544BF0C20FFF7E8FD7E48006D35
S31508003BE010F0E00F05D03868400444BF0D20FFF7F9
S31508003BF0DDFD7948406D10F0E00F07D03868F168B0
S31508003C00C840C00744BF0E20FFF7D0FD7248806D3C
S31508003C1010F0E00F07D038683169C840C00744BFC4
S31508003C200F20FFF7C3FDB9F1000F63D17048006894
S31508003C3000055FD5606880075CD5BBF1040F59D0D5
S31508003C4066480068C0063DD55B480068C00639D599
S31508003C50012038714EE0B9F1000F7FF40EAFDAF8A3
S31508003C6018005C4940084000CAF81800594880689E
S31508003C7040F00400886040F207215E4800888842C8
S31508003C8001BF5C4840884FF20F01884205D1594967
S31508003C904CF23C3048804FF00109012002F006FF43
S31508003CA0B9F1000F05D053494FF20F0048804FF085
S31508003CB000094F484E4940680004B86089680843BF
S31508003CC0B860E0E6002038714B48416D41F00101CB
S31508003CD041650168464A464B52689B6843EA024278
S31508003CE0BB689A4206D10268521AC2F31302B2F5A9
S31508003CF07A7FEFD3F87840F08000F8701BB0BDE803
S31508003D00F04FFFF7BBB800F09DF80446A52000F079
S31508003D1090F802F025FEFFF7B1F8384D384F2E68B7
S31508003D20286840084000286002F01EFED7F8008088
S31508003D30386820F04000386002F01EFEC7F80080A0
S31508003D402E6002F011FE0CB100F066F81BB0BDE85B
S31508003D50F04F02F007BE1BB0BDE8F04F40F25441E9
S31508003D600FF2A800FEF780BF11F1010F154A08D01F
S31508003D7001F0FF031360C1F307235360C1F3074142
S31508003D80916000231F490B601368002B04BF53681A
S31508003D90002B01D192681AB10A6842F001020A6042
S31508003DA00A6842F400720A600A6842F080020A60F1
S31508003DB006E51549D8E7000000E200E0A82C002037
S31508003DC00400004008BC004014A000400440004025
S31508003DD00050004008ED00E014A8004000E100E0B3
S31508003DE008B0004008B4004008B8004080E200E08F
S31508003DF00C600040000000203820004094ED00E0F0
S31508003E0000800040200000400E24CC00736C6565DD
S31508003E10702E630002F027BF2248012181604EF60A
S31508003E20BE2141600121016070471F4901200860D9
S31508003E307047A52805D11B484DF6AD6141600221A2
S31508003E40016070471748006810F0010018BF01208C
S31508003E50704780B51549164A102008601549164856
S31508003E60007803000BD003280CBF00200120106047
S31508003E7040F6510008600020FEF7CEFD06E002205D
S31508003E8010604FF40060086002F0B3FE0B4807218B
S31508003E90016000210164102009490860002002BD64
S31508003EA000000000006000400860004080E100E07B
S31508003EB0080000400C600040C52F002014A00040F8
S31508003EC000E100E07047704770B503F009FAB24C9C
S31508003ED0204603F093FCD8B9204603F069FCFF2876
S31508003EE0044615D0AD490968085C851EE9B2204626
S31508003EF003F0EFFB0646E9B2204603F098FB21469D
S31508003F00304600F0F8F82046BDE8704003F060BA85
S31508003F1070BD03460A469EA10420FFE70CB480B58F
S31508003F2002AA00F03DF801BC5DF80CFB0A0003D0BC
S31508003F30034698A11120F1E7704700B587B003F052
S31508003F40B3FD002105910246202104910023592141
S31508003F5003910120002102910191914900910FF2EC
S31508003F605021FFF7DBFF8F488179C3788278039168
S31508003F7001880291417901910179009142200FF25D
S31508003F803C21FFF7CBFF07B000BD10B5044621461C
S31508003F90814803F0F8FB2046BDE8104003F00ABA52
S31508003FA02DE9F04F85B005460C46904603F0F9FD1D
S31508003FB00026F8B903F073F8E0B1012003F09DF983
S31508003FC08246BAF1FF0F15D0002103F091F9294670
S31508003FD001A803F074F805469CB900F087F830B9D3
S31508003FE0504603F0E7F810B1042003F0CBFD504625
S31508003FF003F0EEF905B0BDE8F08F8DF80420012531
S31508004000641C20780100E8D0A0F130010A2905D205
S315080040100A2101FB0600A0F13006F1E700F066F878
S315080040200028E4D122780025422A01A80ED0442A85
S315080040301AD0462A25D0572A0DD0622A3AD0662A9F
S315080040402AD06C2A25D0702A26D0D6E758F8040B31
S315080040508DF80400D3E758F8041B8DF804100225E0
S315080040600904090E4170CBE758F8041B8DF80410B3
S315080040700A0A427004250A0C8270080E8DF8070099
S31508004080BEE758F8041B504603F092FA0028B7D04A
S31508004090ADE758F8046BB3E7012358F8041B662A02
S315080040A008BF0223F2B2504603F061FA002808BF9F
S315080040B00026ECE7394858F8047B006810F80A909F
S315080040C0FFB2FF2F9CD010F807B00BEB0901C9B25D
S315080040D0504603F0ACFA002889D1CDF800B0002389
S315080040E03A464946504603F01AFB89E72A4601A98B
S315080040F0504603F05BBA2DE9F043122885B0804696
S315080041000D4609D03A281DD04FF6FE71884204BFE5
S315080041102846FEF7B7FE33E02048234F0068465D81
S3150800412008E0284603F0DEF8214603F093FD3868D8
S31508004130455D203EFF2D23D0F6B2212EACBF2024AC
S315080041403446EEE703F090FF814602F0FDF9064695
S3150800415001F0C3FA074601F0BDFA044602F0ECF98D
S3150800416002460F480FF25C010390CDF810900196B5
S31508004170009723460D48008802903B20FFF7CEFEA5
S315080041802946404605B0BDE8F04303F02BBD0000C4
S31508004190574600006C7000002C170020BC15002044
S315080041A0F02C00203C4A0108C4150020BC2F002032
S315080041B042423870424242425742420042424242DA
S315080041C057420000574242575738704200000000D5
S315080041D02DE9F0470446884691469A4600F02FF99D
S315080041E0002801BF25460FF27420405D012821D121
S315080041F0DFF83C6256F82570FEF750FC0021B980BE
S3150800420039807980FEF750FC06EB85000669FEF7D3
S3150800421045FC0021B18031807180DFF818225155A4
S31508004220FEF742FC53464A4641462046BDE8F0475B
S3150800423003F0E6BC2120BDE8F08710B5044603F07C
S315080042404DFDDFF8EC0100EB84000069808810BDA5
S315080042502DE9F84381464C46DFF8D40100EB84008B
S3150800426088460669484600F0EAF808B1012037E0B2
S31508004270DFF8C051285D05EB440760B1B88871883E
S31508004280884208D1FEF70AFC2E5D00212955FEF763
S315080042900BFC304624E0484603F020FDB088F0B118
S315080042A0FEF7FCFB71880FF2C0123144897988F851
S315080042B000104FF6FF78718832F8142000F03BF8AA
S315080042C07180B1884144B180FEF7EEFB285D20B1CC
S315080042D0B888404504BF3088B880002000E0262012
S315080042E0BDE8F2830FF27411095C01290AD10FF2B5
S315080042F064114F4A31F8101052F820008088081AC5
S3150800430080B270470020704710B50446FFF7EAFFF1
S315080043100FF2401131F81410081A80B210BD8088C7
S315080043200FF2301333F81110891A884201DA012086
S31508004330704700207047491C91FBF2F302FB1311EA
S3150800434070472DE9F84F804647460FF21010C05DBA
S3150800435001288B46164638D135480FF2141950F8FD
S3150800436027400FF2FC0A002514E0FEF797FBA18808
S3150800437001B9012522881BF8011BA2189171218811
S315080043803AF81720FFF7D7FF2180A188491CA1809A
S31508004390FEF78AFB3046461EC0B288B10022414667
S315080043A02046FFF7BCFF0028DFD11DB1404603F0C9
S315080043B02DFC002519F807000028EFD1222005E07A
S315080043C0404603F023FC002000E00120BDE8F28F00
S315080043D080B501460FF28402525C012A05D1144ABF
S315080043E052F821108A88002AFCD103F031FC0020FB
S315080043F002BD0CB438B504460D4603F01DFC04ABEB
S315080044002A4621460C4803F0F3FE20460FF24C01DB
S31508004410095C012907D1064951F82000808810B1A6
S31508004420204603F0F3FB32BC00205DF80CFB0000CD
S31508004430FC160020042C00203B7C0008704704284A
S3150800444006DA0FF21801095C481E8041C00F704752
S3150800445001207047800000000000000001000000F5
S31508004460800000000000000080000000000000003E
S315080044700100000010B50446FEF710FB4F49302036
S3150800448008604F4908604F49086010204E49086087
S31508004490200A00284D4808BF24024FF20F01048065
S315080044A04180BFF35F8F4A48002101604160494857
S315080044B04949086010BD10B5484C2068C00609D5A2
S315080044C0474948480A6842604968016040F606203C
S315080044D0FFF7D0FF2068C00708D5434903200870B6
S315080044E0206C4008400020640120206020680007F6
S315080044F003D5206C20F00800206410BD80B500208C
S3150800450000F009F830B9BDE80440FD210FF2EC00CF
S31508004510FEF7AABB01BD2DE9F042344C21684242A0
S315080045208D1815F01F0108D0002802D4484205440A
S3150800453003E04842284400F120052D48A5F120064D
S31508004540A84224BF2B48864203D3EFF3088085424E
S3150800455001D300202DE0FEF7A1FA8146264800681F
S3150800456010F0010718BF02F07EFA206801468D4256
S3150800457006D2A84224BFCD2100F80119F9D206E0D7
S315080045802038002201E000F8012B8842FBD3256081
S31508004590304602F06DFAE22001E006F8010BAE4261
S315080045A0FBD30FB102F048FA4846FEF77DFA2068B9
S315080045B02038BDE8F0820D4800687047302000407A
S315080045C030C8004030C0004010D000400000002035
S315080045D01C4000400400FA050CED00E018A000405D
S315080045E03050004090000020DF2F002030170020B8
S315080045F0380C00206C0B002094ED00E06D696372A6
S315080046006F2D696E7465726E616C2E630000000012
S3150800461010B5DFF8944ADFF8143B2488001B06E03F
S3150800462010B5DFF80C4BDFF8043B24681B1B03EBC3
S315080046304000002304E030F8134021F813405B1CC7
S315080046409342F8DB002010BD2DE9F04182B0044604
S315080046500D4616460027DFF8D48A01E0BF1CFFB2D4
S31508004660B74217DAE819E95D4078DFF8C83A1B88D7
S3150800467001EB0020ADF80000012207EBD77004EB30
S315080046806000C01A00F09CFB0100E7D0FEF70EFCA4
S31508004690002000E00120BDE8F681F8B504460F4683
S315080046A0154600260DE000F019F8BDF8000004EBE9
S315080046B04601000A48707F1CBDF8000004F8160081
S315080046C0761CB6EB550FEEDBE80706D500F006F8C4
S315080046D0BDF80000611901F8010CF1BD0122694617
S315080046E0B8B295E7DFF8C029DFF8401A1288801AB1
S315080046F001EB4001022003F0C6BEDFF83C1ADFF8E2
S315080047003C2A095C125CDFF8383A185C10B102F5ED
S31508004710997292B241EAC21080B27047DFF8183A2D
S31508004720DFF8202A1B5C012B1CBF32F81000081882
S3150800473002EB4000704738B50C46DFF80C1A0D78C6
S315080047402A462146FFF764FF208801001CBF4FF662
S31508004750FF7188420BD0012000E0401CC1B2A9427B
S3150800476007D2C0B234F8101022889142F5D0002042
S3150800477032BD012032BDF0B5DFF8B41987B0086044
S315080047800C2269460020FFF74BFFBDF81600BDF85E
S315080047900C200346040A012000254FF6FF763DF853
S315080047A01570BDF80010B94203D1B74218BF002FE3
S315080047B000D100206D1C062DF1DBB21A914218BFFC
S315080047C00020DBB2C4F1FF018B4218BF002007B0FE
S315080047D0F0BD2DE9F24F0446DFF87069002030700D
S315080047E070809CB0DFF868090088ADF8020007A958
S315080047F0FFF7A1FF83460120707009A9DFF8540965
S315080048000588DFF85409B0F80080DFF89C080788A7
S31508004810BDF802A03846FFF78EFFB8B1BBF1000F0E
S315080048203DD0BDF81C10BDF824004FF6FE7291422B
S3150800483002D1012804D10CE0012908BF90422ED0EC
S315080048400846BDF82410884229D202E0BBF1000FC1
S3150800485024D000207070029750460695CDF8108037
S315080048600122DFF8E41891F800804044ADF806000C
S315080048706946BDF80600FFF7CBFEDFF8E0080088BA
S3150800488005904FF6FF79BDF80000000B404518BFAC
S315080048900F2801D1200021D0002516E001247078C8
S315080048A00028D8D03846CDF808A0CDF81880049549
S315080048B0D6E7059805FB00F4E01900F05DFCBDF8A5
S315080048C00200201800F058FC6D1C4545F1DB01205C
S315080048D030704D20FEF7EAFA0025F7E0BDF80650DD
S315080048E0012201A92846FFF793FEBDF80400C0433C
S315080048F000F0FF00ADF804006F1CDFF864080588B7
S31508004900BDF80400A84218BF01244FF0000A20E0B1
S31508004910401CC1B2A94218D2C0B2DFF84818BDF887
S315080049200E20834631F81B109142F1D1FFF7E5FEC0
S315080049304FF680710840BDF80C104FF68072114092
S31508004940884204BF1C9800F80BA00AF101001FFA60
S3150800495080FABDF80400824507DA022203A9B8B234
S31508004960FFF756FEBF1C0020D3E7002001E0401CDD
S3150800497080B2A84217DA1C99095C8142F7D0012453
S3150800498011E02AF81070BDF8060000EB4300401C41
S3150800499000F0DBFABDF80200C0F3C710401C00EBBC
S315080049A0D07007EB60070498DFF898A7BFB2874274
S315080049B00EDA00F099F8BDF80000484508D0030A59
S315080049C000F07F01BDF804007F1C834202DB01244E
S315080049D000252DE0002000E0401CA842D3DA1C9AEE
S315080049E0125C9A42F8D1C0B2FF28CCD0DFF848272B
S315080049F0125C7F290CBF4FF0000C8C4694450BDAED
S31508004A00BDF800C0DFF838E71EF800E04FEA0C6C86
S31508004A104FEADC7CF44501D00124B4E7012AB0D082
S31508004A207F293AF8100008BF00210818A9E76D1C6D
S31508004A30DFF834070088854204DA3AF81500484555
S31508004A40F5D1012477800498BFB2874207DA00F0CF
S31508004A504BF8BDF800007F1C4845F4D039E7002C18
S31508004A60FCD1029801220BA980B2FFF7D1FDBDF84F
S31508004A702C0048450DD105E0401C80B2202813DBE8
S31508004A802034A4B20699029A891A8C4205DB0120C1
S31508004A90307000201DB0BDE8F08FA51820220BA9A4
S31508004AA0A8B2FFF7B5FD00200BA931F8101049454B
S31508004AB0E2D0A8B2FFF716FE203CA4B2E0E70298BF
S31508004AC0059905FB010000F057FB6D1C4545F6DB13
S31508004AD001203070494600F046F818B100F035F963
S31508004AE00028D6D10120D5E70122694638468FE548
S31508004AF02DE9F0420F46DFF86816DFF840560988B8
S31508004B008F420446164699460CD2DFF82C16C95D24
S31508004B1030467F2808BF0020884203DAE95D8945C8
S31508004B2000D11CB940F2D64100F00BFA314638469E
S31508004B30FFF7F4FD0188DFF80806C05D60B1384666
S31508004B4000F035FAE95D012908BF207009D002296D
S31508004B5014BF2060208004E04A462046BDE8F042A3
S31508004B609BE5BDE8F0822DE9F34FDFF83C05DFF859
S31508004B70D8150488DFF8D4050978407883B000286A
S31508004B801ABFDFF8CC05008820460D18DFF8D005D7
S31508004B900088ADF80800ADB2C04300F0FF0000EB96
S31508004BA0013000F55060ADF802002B1BDFF87C05DC
S31508004BB001220DF1020100F0E3FA6E1C0100B6B203
S31508004BC03AD10025DFF89C7513E0E8B2FFF795FDAA
S31508004BD0ADF80400331B37F81500ADF806000222BD
S31508004BE0DFF8480500F0CBFA010025D1B61CB6B2AD
S31508004BF06D1CBDF808008542E7DB002500E06D1C4A
S31508004C00BDF80800854280F29B80DFF83405405DD8
S31508004C108DF80A004FF0000A1BE001220DF102018F
S31508004C201FFA89F0FFF7F4FCBB19DFF8000500F05E
S31508004C3092F9010009F101097AD17F1CFFB2B7EB9D
S31508004C401B6FEADBDFF82405405D8619B6B20AF168
S31508004C50010ADFF8E404475D5FFA8AF0B842CED26B
S31508004C605FFA8AF1E8B2FFF759FD80469DF80A0017
S31508004C70B8F80090C00140EA0520ADF80000012F01
S31508004C80BDF800000EBF40F07F005FFA8AFA4AEAD4
S31508004C900000ADF80000311BDFF8900400EB41007E
S31508004CA04FF6FF71771C89451EBFBDF80010BDF889
S31508004CB010209142BFB219D19DF80C100029C6D018
S31508004CC00122694603F019FC01003E4630D1DFF89F
S31508004CD06C04A8F80060425DDFF8940450F82510CB
S31508004CE03046FFF7B1FC0028ACD124E0DFF84C14BD
S31508004CF0495D491C01EBD1714FEAC15B0122694646
S31508004D0003F0FBFB01003E4612D1A8F800609DF8AF
S31508004D100A0098B14946E8B200F049F90190331BF8
S31508004D20DFF808044FEA1B6200F029FA010089D06F
S31508004D30FEF7BCF8002005B0BDE8F08F00277DE738
S31508004D40DFF8080446800120F5E7DFF804042DE9BA
S31508004D50F0410688DFF85003DFF8F05304886878D6
S31508004D60DFF8C883002882B012BF204630462646A0
S31508004D7001226946FFF74CFCBDF8000001280CBF6C
S31508004D804FF6FE70401EADF80000DFF8BC0307784A
S31508004D903846471E58B1BFB2B819001B012200F0A9
S31508004DA00FF80100F4D0FEF781F8002006E06878D5
S31508004DB080F001006870002028700120BDE8F681A7
S31508004DC0694608EB400003F098BB2DE9FE4F0D46F7
S31508004DD0DFF88C1309888842044617461E464FF0AA
S31508004DE000094FF001080ED2DFF84C13095D38466A
S31508004DF07F2808BF0020884205DADFF84013095DDE
S31508004E008E4200D11DB940F2FA5100F09AF839469F
S31508004E102046FFF783FC0190CC4F787820B1CD4827
S31508004E20B0F800A0A04803E0CB48B0F800A0C848F6
S31508004E303978008849B97988081ACE490988884294
S31508004E40B4BF43204420FEF731F801980188BC48D6
S31508004E50005DF8B1204600F0AAF8012E08BF2978AF
S31508004E6003D0022E0CBF29882968814267D0019891
S31508004E700088401E00F069F8BC48065D7888AAF1EB
S31508004E800101891B814201DB002837D1387868BBCC
S31508004E90452046E00291CB4622E002980BEBDB73F5
S31508004EA000EB630000F002F905EB0B0015F80B1098
S31508004EB0407801EB0020711E8B4580B207D1BDF802
S31508004EC0001001F0FF0100F0FF00ADF80010BDF87A
S31508004ED0001088420BF1020018BFC8465FFA80FB33
S31508004EE0B345DADBB8F1000FC1D028E0BDF80210EF
S31508004EF00020FFF738FE10B34FF0010978888F4974
S31508004F00401C788080B20A5D2946FFF79DFBB0B148
S31508004F10654C7B88248885485B1E00F01CF80100D8
S31508004F2002D0FDF7C3FF0AE0B9F1000F02D0FFF780
S31508004F300CFF20B101997888088030187880BDE880
S31508004F40F78F0FF24420FDF78FBE01220DF1020103
S31508004F5080B2FFF75DBB1B1B01220DF1020100EBBE
S31508004F60430003F0CABA70B582B004460025192674
S31508004F7001226946A0B2FFF74BFBBDF80000641C8E
S31508004F8048B14FF47F41401A02D0FF3806D007E0F7
S31508004F90681C40B276BDAD1C761EE9D168B276BDF6
S31508004FA0BDF80000C0B200B96D1CE843F1E738B59A
S31508004FB00C460021009161490D5C2A462146684647
S31508004FC0FFF76BFB681C00EBD07004EB600080B247
S31508004FD0FFF7C9FF002848BFC043009940B24018F0
S31508004FE032BDF0B55E4909880446564883B0254661
S31508004FF030F815608C4202D25148405D18B940F22B
S315080050003D71FFF79EFF4D48455D681C00EBD0706B
S3150800501006EB6007B8B2FFF7A6FF322814D2BFB274
S31508005020C10707EB6000204F404B3F884CBF00216B
S315080050304FF47F41ADF80410C01B012201A903EB10
S31508005040400003F05AFA60B131462046FFF7AFFF39
S3150800505000902B46401C00907F2269462046FFF7A9
S31508005060B4FEF7BD70B53948017882B00024C1B9DD
S315080050704078002814BF36480B4805883248067819
S315080050800BE0F6B2701900F011F8BDF80000002820
S315080050901EBF4FF6FF718842641C3046461E002824
S315080050A0EFD1E0B276BD000030450108012269461D
S315080050B080B2FFF7ADBAF8B5244C2078002700284F
S315080050C032D11C480588607800281ABF204806880F
S315080050D02E461D4807783846471E02281DDBFFB2B4
S315080050E0B819FFF7E3FFBDF800000028F3D01B4806
S315080050F0008807FB006000F03FF80020ADF80000CC
S31508005100BB190A485B1B0122694600F039F8010001
S3150800511018BFFDF7CBFE3846F2BD3046FFF7E2FA78
S31508005120F8B208B901202070F8B2F2BD00E0010813
S31508005130042D002030450108DC450108BC4501085E
S315080051409C450108102C00202C450108B42F00208E
S315080051503445010832450108364501082E4501083F
S315080051603A450108604501083C45010840450108E3
S315080051701C4801083845010880B2FFF7B3BA01A9EF
S3150800518000EB430003F0B9B973696D2D656570725C
S315080051906F6D2D696E7465726E616C2E630000000A
S315080051A02DE9F04F89B080461E22FF21684601F09E
S315080051B02AFCDFF8B0A09622FF21504601F023FC16
S315080051C01E250027284CDFF8A490294EF05D19F813
S315080051D007B0E15D401C00EBD070401001B11930FA
S315080051E0401C00FB0BF2234830F817100FF298000A
S315080051F092B202F094FCBBF1010F1CBF2AF81750BB
S315080052005D447F1C1E2FE1DB0FF298001E2340F23F
S315080052101C4240F2412102F082FC4FF4E040FFF7C5
S31508005220AAFA0FF2540518B19D212846FDF71CFD70
S315080052304FF48040FFF79FFA18B19F212846FDF7E3
S3150800524013FD4FF48050FFF796FA18B1A1212846AE
S31508005250FDF70AFD69464046FFF7BBFA09B0BDE807
S31508005260F08F0000102C00209C450108DC45010841
S31508005270BC4501086045010873696D2D6565707246
S315080052806F6D2E630000000043726561746F723A99
S315080052902030782532582C20576F7264733A2025AF
S315080052A0640A000053696D454520646174613A20BB
S315080052B0256420776F726473206F66202564206DDD
S315080052C061782C20746F6B656E436F756E743A2027
S315080052D025640A00DFF8F03433F810001040C8409F
S315080052E0704730B50FF2A054DFF8E03434F81040B8
S315080052F09C601140DFF8D04434F810509543294398
S31508005300D96002221A6000221A6024F81010586820
S315080053100028FCD130BDDFF8B824DFF8B8041278CD
S31508005320DFF8B4140AB149780EE0895611F1090F6D
S31508005330B8BF302108DBC16D39B1C26D40F24A31C0
S31508005340B1FBF2F189B2C91E01607047E0B5DFF81A
S315080053508C0401880A2300F065F8BDF806104FF69C
S31508005360FF720D20FFF7BDFF07BDF8B50546B5F579
S31508005370004FDFF864441AD1DFF864040188022379
S3150800538000F050F8BDF80000000AFF2801D001001F
S3150800539000D118206070BDF800000006C00E102865
S315080053A01CBF001D00F09DF9BDF80000C543DFF8DD
S315080053B02064707808B1002005E0A089ADB2684085
S315080053C0C00701D501207070DFF81804A58105F023
S315080053D00104016841F4004101604FF440520FF2A4
S315080053E0CC4000EB4400C5F340074078010389B27E
S315080053F00220FFF776FF204603F0C4F84022B901E1
S3150800540000F00CFA2D06A80E00F0010038433070A3
S31508005410FFF781FF707818B1FFF798FF00207070CA
S315080054200020F2BD7F226846FEF78AB92DE9F04FC3
S31508005430DFF8B843DFF8B073207887B00423049008
S315080054400C210B38C0B203906846039A03F052F950
S315080054509DF800008DF80A009DF801008DF80900F6
S315080054609DF802008DF808009DF803008DF80500E8
S31508005470DFF87C030078012806BF607880F0010514
S315080054800125FEF732F882469DF9020003990AF1D2
S315080054900A06AAF10A09B042B6BF81454FF00108CB
S315080054A04FF0000801208840ADF806009DF801007D
S315080054B0000604D47888BDF80610084201D04FF0DB
S315080054C0010803F05FF99DF8030000060AD4B888BE
S315080054D0BDF80610084205D19DF90000B042B8BFD4
S315080054E0814502DB4FF0010901E04FF0000948EA67
S315080054F0050059EA000000F0A480DFF8F8B2BE49BA
S31508005500DBF80000BD4E400800F001008DF80400ED
S31508005510BB48006800F4E06005904FF4E06008605E
S31508005520002001F01CF801F008FDADB1607858B113
S31508005530DBF80000AE4940084000CBF80000012027
S315080055400870FDF75AFA07E0306840F400503060FA
S31508005550306820F480503060A5480078012810D1C2
S3150800556061780D4208BF02F038FADBF80000A0495E
S3150800557040F00100CBF80000002008706420FDF719
S315080055803CFA607880F00100054203D00498C0B266
S3150800559003F031F9607838B1306820F48050306013
S315080055A0306840F400503060BDF80600C543B8F1D5
S315080055B0000F08D003F00AFA8DF801008DF802A052
S315080055C0788828407880B9F1000F08D003F0AFFA40
S315080055D08DF803008DF800A0B8882840B8809DF99A
S315080055E000009DF90A10884202BF9DF801009DF847
S315080055F0091088420BD19DF902009DF908108842CE
S3150800560002BF9DF803009DF80510884206D003994D
S3150800561004236A46C9B20C2003F07DF80598784938
S315080056200860FDF79DFC9DF8040000F098FFFEF762
S315080056304CF8607828B148F2607030606420FDF755
S31508005640DCF99DF8010003F02DF99DF8030003F03D
S3150800565069FA07B0BDE8F08F80B5FDF739FFBDE8F8
S315080056600140E3E6FDF734BF70B5064600F0ECFEF0
S315080056700546A6F10B001028A6F10B0401D38A20D3
S3150800568070BD60488168090702D40068C00701D563
S315080056908C2070BD554806705B4801680C290FD0F0
S315080056A00FF27C11594A92F90020A4B231F824105D
S315080056B05118C161FFF7BAFE012D08BF00F055FE6B
S315080056C0002070BD10B50446FDF702FF2046BDE870
S315080056D01040C9E74548007870473F4890F90000F0
S315080056E070472DE9F041044614F12B0F86B048DBCC
S315080056F0474801881423FFF795FEBDF810004FF6BA
S31508005700FF71884203D0400448BF012606D43F22D1
S3150800571000211020FFF7DEFD0546002604F12B02C6
S315080057202F2A2D483B491AD213220FF2341300E0D0
S31508005730521ED2B213F91270BC42F9DB03EB4204D3
S31508005740032764780C60002413F8121001700021F6
S315080057508846C6B1BDF810104FF6BF722AE0092C6C
S315080057600FDA025D0A60047014232B480188FFF7DC
S3150800577059FE4FF4C0514FF480744FF08008282723
S31508005780E7E78B201BE04FF4605200F047F84FF430
S31508005790E062214600F042F88022414600F03EF8D9
S315080057A085F020003D18ADB2402DA8BF3F253F2209
S315080057B085F0200100F032F8FFF7ADFD002006B0B5
S315080057C0BDE8F08100000000B42C0020E81000407D
S315080057D0CF2F0020641000401C170020264A01081D
S315080057E0304A01081C100040B22900208817002002
S315080057F06C1700208020004080E100E0D0100040B7
S3150800580000E100E060200040AC100040CE2F0020F0
S31508005810224A0108C0100040244A01080B2060E50E
S31508005820AA2129005523290000252800AA26270091
S3150800583055282700002A2600AA2B2600552D2500C4
S31508005840002F2400AA3024005532230000342200F9
S31508005850AA3522005537210000392000AA3A20002F
S31508005860D500E601EC02EF03F204F405F506F707A6
S31508005870F808F909FA0AFB0BFC0DFD0FFE11FF13D8
S3150800588000160119021C031F100011002000300029
S315080058904000410050006000700080009000A000A9
S315080058A0B000C000D000E000F000000000000103D6
S315080058B042484068704710B5404CA078E17800F03F
S315080058C0010001F0010108436168C90319D4C0B198
S315080058D0E06848B1E078000706D5E16808208847FF
S315080058E0E07800F0F700E070A06870B1A0780007D3
S315080058F00BD5A16808208847A07800F0F700A070AB
S3150800590003E0607808B100206070BDE810404DE003
S315080059102DE9F04104460D46FDF7C0F8274F8046AD
S3150800592038780126A8B120000BD1B87800281CBF0A
S31508005930B868002805D0B878400602D5B96840206E
S315080059408847BD60B878A0421CBFBC70FFF7B3FF9C
S31508005950002620E02DE9F04104460D46FDF79EF8A5
S31508005960164F804638780126A8B120000BD1F87862
S3150800597000281CBFF868002805D0F878400602D52C
S31508005980F96840208847FD60F878A0421CBFFC7083
S31508005990FFF791FF00264046FDF786F83046BDE83A
S315080059A0F081064800787047704700BF03480178C1
S315080059B0002141700020FDF7E3BD0000C417002058
S315080059C080B503F022FA03F02FFBBDE8014003F08F
S315080059D00DBD65490020087164480078022808BF93
S315080059E004F0AEB8704770B5614801F0E1FE0446B0
S315080059F0FF2C48D004F05EF90646032120465A4D8E
S31508005A0004F039F928700421204604F034F9687046
S31508005A100521204604F02FF9A8700120FCF7BAFEEC
S31508005A20204604F047F900F00C00082803D1204668
S31508005A3003F074FB1FE006F00C000C281BD120466F
S31508005A4004F029F9064604F04DF9305C072802BF30
S31508005A504648007802280ED1287960B904F0D3F9AF
S31508005A60810900EB5161C909A0EBC110411C89B23B
S31508005A70281DFCF767FD204601F0AAFCBDE870402A
S31508005A800020FCF787BE70BD2DE9F04180460E4622
S31508005A900025300008BF012502D0312E08BF002698
S31508005AA0404604F007F90C210842324F02D13978F2
S31508005AB0012014E0404604F031F90324B0F5006FE4
S31508005AC008D1404604F04EF94FF6FF71884208BFE8
S31508005AD0012402D0300018BF05243978204604F086
S31508005AE0FBF93146404603F0B2F928B92A46314651
S31508005AF04046BDE8F04101E0BDE8F08170B50446D6
S31508005B000D46164604F0D6F800F00C00082806D113
S31508005B10324629462046BDE8704003F0C6BA70BD35
S31508005B2010B50446A079012804D11348017841F03C
S31508005B3001010170207804F0BDF800F00C00082877
S31508005B4009D1207803F013FB28B9607800F0F0003B
S31508005B506070002010BD012010BD08490870411E64
S31508005B608941C80F00F07DBCF82C0020EB2F0020DF
S31508005B7048170020EC2F0020EA2D0020EA2F0020ED
S31508005B8080B504F06CFB08B1002002BD702002BD90
S31508005B90002070470120704700207047002070479A
S31508005BA001224FF48061824805F012B938B50446DF
S31508005BB00D460120FCF7EEFD7E48002D12BF0021A0
S31508005BC00178491C017003F0FBFF7B4D98B9200052
S31508005BD003D0FFF76DFE002808D5FFF769FE4005DC
S31508005BE04CBF032001200021FFF792FE6C701020A5
S31508005BF0FFF7D6FF22E001280DD100206870FFF7D5
S31508005C0057FE40054CBF022000206C4940F01100A9
S31508005C10FFF77EFE12E002280BD100210020FFF7D5
S31508005C2077FE0021202004F057F98D2003F0CEFEE0
S31508005C3004E075210FF2AC10FDF716F8BDE8324006
S31508005C400020FCF7A7BD80B500F001FCBDE80240C6
S31508005C50312003F0BBBE38B50446402C154606D1A4
S31508005C60FFF726FE00F08020B0F1004F03D0002198
S31508005C700020FFF74DFE002C49D0402C27D0882C59
S31508005C8018BF892C4AD08C2C4AD08D2C33D08F2C17
S31508005C904ED14B48007804280FD155B14949022006
S31508005CA008704AF26002BDE8384047490020FCF710
S31508005CB075BD00F0CCFB312036E0012001F062FF13
S31508005CC000F0C5FB002D0CBF312000202CE000F0B1
S31508005CD0BEFB05F081F837483C49007809788842C8
S31508005CE004D2BDE83440002101205FE7002001F01E
S31508005CF049FF402018E005F06DF8002001F042FF4A
S31508005D0000F0A5FB0021202004F0E6F80BE00120B6
S31508005D1001F038FF00F09BFB002005E000F097FB40
S31508005D20002001F02FFF8D20BDE8324003F04EBE63
S31508005D30BDE83440E22151E022480078022800D02C
S31508005D40704780B522480078042807D00C2810D15F
S31508005D5020480078022818BF7C280AD11A49002052
S31508005D60FCF779FD00F073FBBDE80240002003F064
S31508005D702DBE01BD38B5FCF791FE054611480078E1
S31508005D80002410B9FDF7DFFB04462846FCF78CFE15
S31508005D901CB1BDE83140FDF7D3B831BD80B5FFF77A
S31508005DA0E9FFBDE804404FF4A0510B48FCF7CABB15
S31508005DB0FC2D0020EC2F002034170020A15B0008E2
S31508005DC06B170020E82D0020475C00088D1700207F
S31508005DD0EE2F0020EF2F0020D82D00200FF2040010
S31508005DE0FCF742BF6D61632D7068792E6300000071
S31508005DF0DFF8DC07007848B1DFF8D8070179012910
S31508005E0004BF4079042801D101207047002070475B
S31508005E10DFF8C407016821F480510160DFF8BC0788
S31508005E20017881B100210170DFF8B4170A685208B9
S31508005E3052000A600A6842F001020A60002281687C
S31508005E404020FFF708BF7047010644BF4FF6F831F8
S31508005E5001EAC0007047491C800189B2B0FBF1F025
S31508005E6080B2FF288CBF0020C0F1FF00C0B2704787
S31508005E7038B5DFF86807C17809B1002032BDDFF808
S31508005E806847617871B1E178007945182079ADB233
S31508005E908542A8BF054603F0B6FF0121A940491E61
S31508005EA0084000E0002061790818C0B232BD2DE92B
S31508005EB0F0470446C00705D540F27B110FF2A870DB
S31508005EC0FCF7D2FEDFF82457286DC00748BF8C20A0
S31508005ED000F18280DFF80407DFF80C7700210170F3
S31508005EE0417829B9397819B1A96F41F0010102E061
S31508005EF0A96F49084900A967DFF8D8867A7898F81B
S31508005F000610DFF8EC96DFF8EC6692B10022027113
S31508005F100129286D40F00400286506D14FF6FF7068
S31508005F2030604FF40070C9F80000FFF7A1FF824601
S31508005F300CE0286D20F00400012928654FF0000ABE
S31508005F4004D100F04FFA6420FCF757FDA86F20F043
S31508005F500800A8671420E864C5F848A0787838B11E
S31508005F6098F80600002801BFA86C00280120A8643C
S31508005F70B8790028286D14BF40F0080020F0080002
S31508005F802865FFF735FF18B1306C40F0080030641B
S31508005F90202028626C602C604FF4E06468687F30CB
S31508005FA0686004202862DFF85006046006E0FCF703
S31508005FB05DFF18B1FCF762FFFCF770FDDFF83C06E1
S31508005FC0006800F003000328F1D0C9F80040286DE6
S31508005FD040F0010028650020BDE8F087DFF82006BC
S31508005FE0002141608160016821F0020101604FF0E3
S31508005FF00070DFF8101608600120DFF80C1608702C
S315080060007047A0F13301DFF80426914200D37047A8
S3150800601010B5DFF8F4450021217000F0BBFD02E061
S315080060200120FDF7CDFB20780028F9D010BD2DE919
S31508006030F84FDFF8DC65DFF8A4557068716CDFF897
S31508006040AC7508401FFA80F8C6F8048068780028FE
S3150800605040F0DB805FEAC870DFF8B845DFF888955E
S3150800606053D5D7F800A0386C796C41EA0041A9608D
S3150800607099F80000002844D09AF80100800640D517
S31508006080012028704FF480503060306C40F4805006
S315080060903064FFF7ADFEC0B31920FCF7AEFCDFF89D
S315080060A078B54FF44040CBF82800DBF800000090A4
S315080060B0E06E40F40050E066E06E40F48050E06622
S315080060C09AF80010A8684901B83101EB000AFDF7F3
S315080060D0CFF9AAEB0000C0F31300FFF792FFE06EBA
S315080060E080098001E066E06EBDF800100843E066AE
S315080060F00020CBF8280048F26070E066E888206047
S3150800610003E000220020FFF7A6FD5FEA08600CD531
S31508006110287830B1002028700022A9684020FFF7AF
S315080061209AFD306C20F4805030645FEA486008D5E8
S31508006130687830B9FDF79CF9014600228920FFF7F7
S315080061408AFD5FEAC86052D5DFF888A4DFF8A0B4F4
S315080061509AF80400012804BF9AF8061001291FD1ED
S3150800616001F03BFC386F40F0010038674FF000083B
S3150800617000208AF80600FCF7F3FE0A20FCF73DFC2F
S315080061804FF6FF7070604FF4E060CBF8000009200E
S31508006190B8660120B864B86F40F00800B86718E020
S315080061A02979491C2971C9B299F80220914215D258
S315080061B0012808BF00F0D9F8B86F20F00800B867C2
S315080061C01420B866FFF754FEB8644FF40070CBF895
S315080061D00000386D40F00100386508E0687830B98D
S315080061E0FDF746F9014600228D20FFF734FD5FEAE8
S315080061F008700AD5FFF7FCFD38B12068E880012051
S315080062002060706C20F0080070645FEA88600AD528
S3150800621020203862687830B9FDF72AF9014600224D
S315080062208820FFF718FD687820B118F4407F04BF6E
S315080062300120A870BDE8F18FDFF89C1300280868D4
S3150800624014BF40F4404020F440400860704770B5E1
S3150800625082B00546FFF706FADFF8C803DFF8804381
S31508006260DFF87063002101601521E16009210165ED
S315080062701F21416001210166DFF8A4030088FFF7AA
S3150800628074F8FCF793FE04F0A9FD00F02BF93089A9
S3150800629000F055F9708900F05AF9FCF7FFFB6168C0
S315080062A041F040016160FCF7FFFB707800F0EBF805
S315080062B0B07800F0FCF8DFF87003007800F029F9F0
S315080062C0DFF8680390F90000FFF70BFA307800F062
S315080062D046F996F9030000F04EF9DFF8540300F08A
S315080062E06CF9BDF80000DFF84C13C0054CBF002060
S315080062F0BDF800000870DFF840030078FFF7B4F92E
S3150800630028B140F2C2310FF26030FCF7ADFC012D26
S3150800631004D12068C00748BF00F027F86DB9206887
S31508006320C0070AD401F059FB206840F0010020603C
S31508006330C820FCF762FB0020B071F120DFF8B452E8
S31508006340286440F2F910E863FFF72BFBFFF774FFA8
S31508006350FCF706FE2068C00704D54FF6FF702860D4
S3150800636000F06DF800F0E9FD73BD70B5DFF8CC52AA
S31508006370DFF860422E68A079012832D0FCF78EFB40
S3150800638048F2D00129606A68520509D548F2220206
S315080063902A606A68D205F5D529606A685207F1D479
S315080063A0B6B2DFF854222E604FF4E0611160DFF8D0
S315080063B06C120A6A520852000A620A6852085200A7
S315080063C00A600A6842F002020A604A6A42F001025A
S315080063D04A620121A171FCF767FBBDE8704001F034
S315080063E0EEBA70BD70B57B4CA07938B301F0F5FAFA
S315080063F0FCF754FB0546DFF848127A4E0120086080
S31508006400306D40F0010030650020A071FCF7A8FD52
S3150800641020203060306B40F002003063F06D40F0B1
S315080064200800F0652846FCF73FFB0A20FCF7E5FA6A
S3150800643070494FF6FF70086000F001F870BD4FF420
S31508006440E0606B4908607047624880797047614828
S315080064500079012808BFFFF788BF70475D480079B3
S31508006460704780B5022801DB012002BD5949087131
S315080064708979884205D010B9FFF7B4FF01E0FFF724
S3150800648074FF002002BD10B50446FCF707FB6D49F2
S315080064900A68002C04D042F012020A60012103E0C7
S315080064A022F012020A6000214A4A517040E038B5CB
S315080064B00546FCF7F3FA0446FDF75FF840B961486C
S315080064C02900016814BF41F0800121F080010160B4
S315080064D0404885702046BDE83240FCF7E5BA3D489D
S315080064E08078704758494A780B78584803EB022257
S315080064F002608B78CA7803EB022242600B794A79EC
S3150800650003EB02228260CA79897901EB0221C16014
S31508006510704710B50446FCF7C1FA4A4922000A68D2
S3150800652014BF42F0200222F020020A603E490C7095
S31508006530BDE81040FCF7B8BA2648008970472549D7
S3150800654008814349086070472248408970472149B5
S3150800655048814049086070473F480078704720499D
S3150800656002000A6814BF42F0020222F002020A6020
S3150800657018490870704738B504467F2C0AD1374841
S3150800658000F01BF8BDF80000C00554BFBDF8004078
S315080065906FF04A04FCF782FA0546FCF7EEFF30B9BD
S315080065A064B204F19A0080052D49000C0860094878
S315080065B0C4702846FCF778FA31BD018802237F2289
S315080065C06846FDF7BDB8034890F903007047000018
S315080065D0E82F00206617002040A00040AC2D0020C0
S315080065E08020004030200040341700201020004052
S315080065F000E100E004A0004080E100E0A82000409F
S3150800660010E000E004ED00E0E92F0020CDFF0700D0
S3150800661000A0004064100040E410004060200040E4
S31508006620281700205C100040E72F00201C170020C8
S31508006630344A0108CE2F0020881700201C1000407D
S315080066402810004084200040F02C002098200040AC
S3150800665094200040902000408B170020384A0108FB
S3150800666054100040704700007068792D636F6D6D97
S315080066706F6E2E630000000070B504460D46164680
S31508006680FFF72DFF38B16078002E14BF40F02000C8
S3150800669000F0DF0060702946204600F0FBFEFF2868
S315080066A023D0864C864D0146201D01F06CF82888BB
S315080066B0401C288080B2218881420AD26888401C02
S315080066C06880201D01F074F800F082FE2888401EBC
S315080066D02880208829888842F3D37A480078FCF7EE
S315080066E00AF8BDE87040FCF72ABC70BD2DE9F04FEA
S315080066F0A5B08146FCF7D2F9714D2988491E298033
S315080067000027FCF7D1F9484600F0ECFD04788178BB
S315080067104078009700EB01201FFA80F800F0B0F8E7
S31508006720A0F108020823D2B2494602A800F0CEFE1C
S31508006730654800780DF1080AD8B16868002817D0AE
S315080067409AF80300FFF780FB2146FFF784FB07460C
S3150800675000200090631C9AF90260DBB200224946C9
S3150800676004A800F0B3FE6B683246394604A8984779
S315080067707EE008F0070002287BD0FF208DF8040091
S31508006780484600F0AFFD00F1010B584603F0AAFA9F
S315080067900546601B861E76B2002E6AD45FEA8850CC
S315080067A003D508F00700032810D101A9584603F0BD
S315080067B05AF900285DD108F0070001280BD19DF889
S315080067C004000BEB0501FFF7E5F920B99DF8040075
S315080067D000F0FEFD4DE03D499DF8040009680F5C98
S315080067E03B49096801F8009000F04AF800F12001D9
S315080067F09DF80400C9B200F07BFD9DF8040003F083
S3150800680059FA00F00C0004281CBFAE19002570B216
S3150800681080B200906B1C9DF804009BB24A4639462C
S3150800682000F07DFFF1199DF80400C9B200F0FFFEE3
S315080068309AF80300FFF708FB2146FFF70CFB024610
S315080068409DF80400032103F00FFA9AF802209DF838
S315080068500400042103F008FA9DF808209DF80400B6
S31508006860052103F001FA9DF80490484603F0C5F89F
S315080068700127484600F0ACFD384625B0BDE8F08F44
S315080068801248006810F80900704710B50C4C61886A
S31508006890080005D0C9B21D2003F01EFB0020608049
S315080068A00C4800F085FFFF2803D0FFF71FFF0028DC
S315080068B0F6D010BD074800F0A1BF00004017002021
S315080068C0D02D0020D92F0020AD2D0020BC1500208A
S315080068D0C4150020441700200268174912BACA6076
S315080068E0426812BA8A60826812BA4A60C06800BAF8
S315080068F00860704710B5114980220A600623104ABD
S31508006900136007230B6013689B07FCD5002350F818
S3150800691023405B1C24BA042B8C62F8D313685B07EC
S31508006920FCD500220B6B1BBA40F82230521C042AF5
S31508006930F8D310BD00000000383000400030004099
S3150800694010A0004010B504460846FFF7C5FF2046CC
S31508006950BDE81040CEE7002848BF40427047000017
S3150800696072B6704762B67047BFF35F8FBFF34F8F3B
S31508006970BFF36F8F7047000000BF30BF00BF70477E
S31508006980814233D210441144401E491E10E011F8CA
S31508006990013900F80139121F11F8013900F80139D7
S315080069A011F8013900F8013911F8013900F80139EF
S315080069B092B2042AEBDA93B2002B1EBF11F8013902
S315080069C000F80139521EF6D1704711F8013B00F85C
S315080069D0013B121F11F8013B00F8013B11F8013B7E
S315080069E000F8013B11F8013B00F8013B92B2042A7A
S315080069F0EBDA93B2002B1EBF11F8013B00F8013BFE
S31508006A00521EF6D17047130003D00A46194604F001
S31508006A10F1B9704710B500E0521E93B223B100F0E9
S31508006A2005F8F9D0181B10BD002010BD10F8013B61
S31508006A3011F8014BA3427047174838B50446FCF7CE
S31508006A402DF8054615480021016008212268826054
S31508006A506268C2600834491EF8D101210160FFF757
S31508006A6083FF284613E00D4900200860FFF77CBF26
S31508006A7038B545096D010A480A4C854238BF0A4CA3
S31508006A80FCF70CF8044945F014024C620A62BDE8AA
S31508006A903240FCF709B80000F815002094ED00E034
S31508006AA09800002009000B1008000B1070B12DE9A2
S31508006AB0F05FEFF308800D490860EFF309800C4991
S31508006AC00860EFF314800B49086030BF0748006878
S31508006AD080F308880648006880F309880548006836
S31508006AE080F31488BDE8F05F70470000A02D0020F1
S31508006AF0A42D0020A82D0020DFF89C145120086042
S31508006B0070472DE9F041DFF894640546F0780428CB
S31508006B10B4BF302760274FF4F070B0FBF7F41E2D92
S31508006B2024B201DB281B04D5A8B2BDE8F041FBF767
S31508006B3064BFFBF7B3FF00F028F870700721DFF891
S31508006B406004DFF8602400F047F8291B09B279438E
S31508006B50C91C8908491EDFF85054DFF83C744160A7
S31508006B602E6800F0ABF83C68386820F040003860C2
S31508006B70FFF702FF3C602E60FFF7F6FE00F0D2F941
S31508006B804046BDE8F041FBF78FBF8046012080F301
S31508006B901088704738B5DFF80414C9780429B4BFDB
S31508006BA0302460244FF4F071B1FBF4F1451A1E2D20
S31508006BB004DA9C210FF23840FCF756F8DFF8E003B8
S31508006BC0DFF8E023072100F007F805FB04F1C91CEC
S31508006BD08908491E416031BD01600021416081601C
S31508006BE04FF0007111607047DFF8B0230121517032
S31508006BF0D0E72DE9F041DFF8B453DFF8B463002499
S31508006C002C6034604FF4A040706041F29A08404608
S31508006C10FFF777FF686844F69041081A00B24FF408
S31508006C20487190FBF1F000B20828A8BF072004DAE3
S31508006C3010F1080FB8BF6FF007003060082740460C
S31508006C40FFF75FFF4046FFF75CFF686804197F1E81
S31508006C50F8D1211DDFF85C03C908B0FBF1F080B25A
S31508006C607060BDE8F08138B5D34D01206FF00F0490
S31508006C70A8602C608020FFF744FFE868FF2802D848
S31508006C80641C102CF5DB31BD70B5CC48C64D0168C7
S31508006C9041F00101016001214160FBF7FFFE2E680A
S31508006CA0044600F00BF8BC49512008602E60FFF737
S31508006CB05BFE2046BDE87040FBF7F6BE2868400834
S31508006CC040002860FFF750BE10B5B44C0120207074
S31508006CD000202071BA48816901F00301032907D110
S31508006CE00020A070042000F060F80120207110BD7B
S31508006CF00F210160022181610120E0706420BDE856
S31508006D00104071E72DE9F041AE4CAD4EA088A34F77
S31508006D104FF6FF78404540F2DC551CD1AA48018859
S31508006D2002237F22201DFCF70BFDA088404504BFE7
S31508006D300220A080B069800703D4B06940F0020041
S31508006D40B0610120B870A08830602846FFF74CFF74
S31508006D502846BDE8F081B2699207EED5BA78002ACE
S31508006D60F6D1B268B36812F0010203D10F2809D22E
S31508006D70401C06E09B0705D523781BB1032801DBD9
S31508006D804044A080A08822700228BCBF0220A080B0
S31508006D903068A1888842D4D1B06900F0030003287E
S31508006DA018BFFFF771FF0020D3E72DE9F0478046AB
S31508006DB00024794D7C4EFBF771FE8146FFF7E6FE0F
S31508006DC04046FFF79FFF08B901240AE000F0AEF835
S31508006DD0D5F800A000F006F9C5F800A03760FFF75F
S31508006DE0C3FD00F09FF84846FBF75EFE002CE2D094
S31508006DF0BDE8F0870220D8E769486A4A0021416061
S31508006E008160016821F00201016000216348417038
S31508006E104FF000711160817809B100218170C17845
S31508006E20012914D1694901220A60694A1268D20700
S31508006E3048BF03210FD40222C270086C40F001003B
S31508006E400864042063490860634908607047C1788C
S31508006E50042901D10521C17070475048407800289F
S31508006E6018BFFFF7C9BFFFF7B9B82DE9F8434B4C70
S31508006E70207908B354E0FBF711FE0546FFF786FEB6
S31508006E80E078032813D0484EDFF80C8100F04EF85E
S31508006E90D8F80090D8F8000020F04000C8F80000A4
S31508006EA0FFF76AFDC8F800903760FFF75DFD00F050
S31508006EB039F82846FBF7F8FDE0780328DBD1414E80
S31508006EC03F4DB08828604FF6FF777088B8420CD1DE
S31508006ED04248018802237F22B01CFCF731FC7088E7
S31508006EE0B84202D16420708001E0708878B1708859
S31508006EF03B494A6D42F001024A650A68AB68DB07FE
S31508006F00FBD50B689B1AC3F313038342F6D3FFF72B
S31508006F10BBFE0420E0704FF4C870BDE8F24363E698
S31508006F20BDE8F183002080F3108870473768306821
S31508006F30400840003060FFF717BD2DE9F843174CAD
S31508006F402179207881F00101084219D120E0FBF768
S31508006F50A5FDFFF71AFEE07805280CD0124E0E4D57
S31508006F60FFF7E4FFD5F8009000F03CF8C5F800906C
S31508006F703760FFF7F9FCFFF7D5FF4046FBF794FDAE
S31508006F80E0780528E3D10020A0700520FFF70DFF63
S31508006F9000202070BDE8F18300800040DC2F00202F
S31508006FA010E000E004ED00E094ED00E01040004041
S31508006FB00C0000400060E316084000401C400040FA
S31508006FC00440004056170020324A010818A0004025
S31508006FD00C40004080E200E000E100E0364A01088B
S31508006FE038200040286820F040002860FFF7C4BC1D
S31508006FF0636C6F636B732E630000000080B5A64850
S315080070000021416041708170A5210170012000F0C6
S3150800701083FD00F0B2FD00F01EF8002002BD9F4877
S315080070200168C90700D4704780B59D490A6822F4EB
S3150800703040620A600168490849000160016809025E
S31508007040FCD49848006810B16420FBF7D6FC964932
S315080070500020086001BD80B59448016841F0807140
S31508007060016001209249086000209249FBF7E3FC81
S315080070709149924A02200860002091490860914887
S315080070809149016001211160844A9049116040F2DA
S31508007090014101654FF480308D49086001BD824881
S315080070A0006800281EBF7F480068002805D07F4872
S315080070B00068000E00F00100704700207047D122DA
S315080070C002704170090A817082490A78C270501CA0
S315080070D00870042070472DE9F14F82B0DFF8F88177
S315080070E000900026D8F800000099405C451DFBF783
S315080070F0EEFCEDB201904FF6FF7A19E0B11E9DF84D
S315080071000800C9B200F0DAFA0746514603F0A6FEAF
S3150800711082465E46FFB24FEAC90007FA00F004430A
S3150800712009F10109B9F1040F17DB4FF0604004605B
S31508007130FFF7B5FFF6B298B3AE4231DAFBF7C7FCF4
S315080071400199401A80B2B0F5FA7F29DC4FF0604009
S3150800715000680128ECD10024A146F0B210B95B27DB
S315080071600126D7E706F1010B0128F6B204D1D8F8B3
S3150800717000000099475CCCE7E91E884208BF5746DD
S31508007180C7D0A91E884208BF4FEA1A27C1D0691E70
S31508007190884208BF5D27BCD0A842AFD10027B9E70F
S315080071A04FF4C870FBF729FCAE420CBF0020012043
S315080071B0BDE8FE8F48490968095C0429A8BFFFF79E
S315080071C08ABF012070472DE9F04D334D6E783000A7
S315080071D060D0FBF77CFC83463146002000F05AF964
S315080071E00446FF2CA04602D10020687052E0202EEB
S315080071F0B4BF3746202700F075F86860AF70DFF82F
S31508007200DCA004E0404600F06DF86860AF7068786E
S31508007210C8B1FBF75CFCA0EB0B0080B2B0F5FA7FB7
S3150800722011DCA8780028F2D1F61BF0B200286E709F
S31508007230EDD0DAF8000010F80880F6B2202EB4BFB8
S3150800724037462027DEE7F6B2002E04BF6878002806
S3150800725018D1A878B0B920480068005D851EE9B243
S31508007260204600F036FA122808D1E9B2204600F086
S31508007270DEF921461220FCF73EFF06E02046FCF721
S3150800728084FE02E000206870A8702046BDE8F04D34
S3150800729000F09EB8BDE8F08DF02F0020800E00E0CB
S315080072A0001000E034000040100004E0FCED00E0AF
S315080072B0040004E020A10700F00004E0000E00E04E
S315080072C0040304E0B00F00E055CEACC50D00010084
S315080072D000E100E0E12F0020BC150020C4150020C5
S315080072E070470000DFF8F414096801EB4010704796
S315080072F0DFF8EC241268115470472DE9F0410400B8
S3150800730035D0FBF7CBFBDFF8DC14DFF8DC340E787E
S31508007310FF228046FE2EDFF8D4041BD100260E700D
S31508007320DFF8CCC4DFF8CC6437781F70002708E094
S3150800733007F1010E05F807E0DCF80050EA555FFA98
S315080073408EF796F800E005687745F1DB05EB0E0643
S3150800735006F8012C1E78A6420BD24046FBF7A4FB82
S31508007360052000F00FFC00211B2002F0B5FDFF20D0
S315080073701EE0361B1E70DFF880340E780F78D3F8BF
S3150800738000E001250EF80750641E056815F807E0A9
S3150800739081F800E05FFA84FEBEF1000FEED1EA55EF
S315080073A000213046FFF7A4FF4046FBF77DFB304639
S315080073B0BDE8F08110B50446FBF770FBDFF838141A
S315080073C009680A5D521C0A55BDE81040FBF76CBBFC
S315080073D02DE9F041054600F031F80446FBF75EFB5F
S315080073E0DFF80024DFF80034DFF80064DFF80884EB
S315080073F0FF2D1FD0D8F800104F5D7F1E4F557F27F1
S31508007400D8F800E01EF80510394213D13168495DF5
S3150800741000270EF805701F787F1C1F70FF29376834
S3150800742092F800E007F805E0157006BF2546FF2428
S315080074300D46DDE7BDE8F041FBF736BB80B5DFF862
S31508007440B8130968095C090603D5FFF74BFF0078EE
S3150800745002BDFF2002BDB0B504460D46FFF7EEFF9C
S31508007460FF2818BFFFF7B4FFFF2DDFF88C7304D190
S315080074703868015D01F07F0106E02846FFF79AFFAC
S315080074803868015D41F0800101552046FFF72AFF63
S315080074900570B0BD70B504460D4605F11F00000421
S315080074A0400D82B0C0B2FFF728FF0646FF2E0CD06B
S315080074B02946FFF71DFF3CB1012000902B4600220C
S315080074C03146204600F002F8304676BD73B500F026
S315080074D0C0F8405C15461E467119884203DA40F228
S315080074E0571100F0DBF830000CD0294601A800F04F
S315080074F0D9F8024606989DF80410009033462046AF
S3150800750000F001F873BD2DE9F843089CDFF8DC822A
S315080075100546894616461F460BE06A5C4254491CD6
S31508007520B142FADBD8F80000BF1BAD1910F8099074
S315080075300026F8B2C8B14846FFF7D4FEFFB2801954
S31508007540F1192029B2BF3E46C6F12006F6B221003F
S31508007550324604D101462846FFF712FAE2E7012C23
S3150800756008BF2946F8D00021DAE7BDE8F1832DE9FE
S31508007570F04100F06EF882B0055D17467819A8420A
S3150800758088461E4606DB0ED07919C9B2204600F099
S315080075904EF808B1182007E000963B462A462146D1
S315080075A04046FFF793FF0020BDE8F6810123DEE79A
S315080075B00A4600E0521C1378002BFBD1521A02230C
S315080075C0D2B2D4E7F8B5044601F11F00C50402F1AA
S315080075D01F00C0042D0E000E05B9012500B90120B3
S315080075E0854222D0DFF8046210DA401BC0B2FFF7EA
S315080075F084FE0746FF2F01D10020F2BD691EC9B2DD
S31508007600204600F02BF831680F540EE08A420CD25F
S31508007610411EC9B2204600F021F804463068005DD4
S31508007620FFF7D6FE3168FF2008550120F2BD38B5B0
S3150800763000F00FF80D46015D2A462046FFF7C2FF07
