S01D000073657269616C2D756172742D626F6F746C6F616465722E73333716
S31508000000000400207500000881000008810000082F
S31508000010A70B0A0100000000010154610040000816
S31508000020041200006B090008310C0008F8040008E7
S3150800003000000000000000000000000000000000B2
S3150800004000000000000000000000000000000000A2
S31508000050FFFFFFFF05480068202100EA010020B1E4
S315080000600348016842688D46104770472C000040D7
S3150800007000400008FFF7EEFF00F00DF800F040F82A
S3150800008005E00000854670474248008870474FF4EF
S31508000090017000F099B838B500F0C4F84FF20F04B3
S315080000A03D4D28B140F2052028806C80012032BDE4
S315080000B03A480068C00615D56888A0421ED1288827
S315080000C040F2022188421CBF40F20621884215D020
S315080000D040F2011188421EBFB0F58A7F40F2111125
S315080000E088420BD02E4C208A40F6A721884205D19B
S315080000F02068FFF7C7FF6068804700BF002032BD51
S3150800010038B50400274872B60168490849000160F5
S3150800011000F0CEF821480068000910F001000CBF75
S315080001202149224902E0CD2201F8012B204A9142B9
S31508000130F9D32049204A214B03E011F8015B02F864
S31508000140015B9A42F9D31E491E4A002301E001F8D1
S31508000150013B9142FBD3104A53884FF20F05AB423D
S3150800016040F205210AD113888B4205D030B1180A0E
S31508000170012818BF022801D1194601E004B9002157
S31508000180044801804CF23C30508000F08BF9BDE801
S3150800019032407CE7240C0020000000202C000040A0
S315080001A000400008FCED00E0000000209800002058
S315080001B000040020D01000080004002004040020D9
S315080001C0040400202D0C00200E4A302111600E4A2E
S315080001D011600E4A116010210D4A1160010A0029AA
S315080001E00C4908BF000208804FF20F004880BFF391
S315080001F05F8F094800210160416008480849086086
S31508000200704700003020004030C8004030C0004031
S3150800021010E00040000000201C4000400400FA05E1
S315080002200CED00E00020704780B500F069F9012167
S31508000230062000F072F9062000F099F9012107203E
S3150800024000F06BF9072000F085F91748016821F0DE
S315080002501001016001BD0000052800D9704710B5DE
S31508000260DFE800F01721030F1C17104C2088411EE9
S315080002702180C0B9072000F087F942F2107020806B
S3150800028010BD072000F073F9BDE81040062000F005
S315080002907BB9BDE81040062000F05CB9BDE8104007
S315080002A0062000F064B910BD00BC0040260C0020F2
S315080002B0604951200860704738B55F49C9780429F4
S315080002C0B4BF302460244FF4F071B1FBF4F1451A41
S315080002D01E2DBCBF4FF40170FFF776FF5748584AEA
S315080002E0072101600021416081604FF000711160B3
S315080002F005FB04F1C91C8908491E416031BD4E4AF7
S3150800030001215170D8E72DE9F0414F4F4D4D7888BE
S31508000310494E4FF6FF78404540F2DC541CD14B4815
S31508000320018802237F22B81C00F044F978884045EA
S3150800033004BF02207880A869800703D4A86940F022
S315080003400200A8610120B070788828602046FFF76F
S31508000350D6FF2046BDE8F081A8698007EED5374864
S315080003600068C00348BF00F051F8B0780028F0D103
S31508000370A868A9687A8810F0010003D10F2A08D264
S31508000380521C06E0890704D5397811B1032AA8BF9B
S31508000390424492B2022A3870B8BF02227A8028688C
S315080003A079888842CED1A86900F00300032808D0CE
S315080003B0A869204940F00100A8610120E8615120A0
S315080003C008600020C6E710B504462148017869B9D7
S315080003D0C078072818BF092810D0032818BF112885
S315080003E00CD013281CBF15280B2807D019480168FC
S315080003F041F48071016001E000F012F92046FFF730
S3150800040082FF0100F8D110BD0220DCE70B480C4A38
S31508000410002141608160016821F00201016000212C
S31508000420054841704FF000711160817809B10021CB
S315080004308170704700800040280C002010E000E022
S3150800044004ED00E00440004000040020CC10000841
S3150800045096070808384000400078704730B5DBB08A
S315080004600446214636A800F0EDF8002000904FF427
S3150800047002630B4A36A901A800F077FA0FF26C025C
S315080004800FF2740001A900F0D3FB054600F041F80D
S3150800049028001CBF214600F02CF928465BB030BD69
S315080004A00404002080B5FFF7AFFFFFF7EDFDB0F5B8
S315080004B08A7F09D100F0DAFB00F03BFC0028FBD06C
S315080004C040F21110FFF780FEFFF7AEFE00F0CEFBFC
S315080004D000F056FC40F20120FFF776FE002002BD30
S315080004E0012A08BF00F0D4BB70470000431000087B
S315080004F07F10000859040008B5080008EF0800082E
S315080005001148012181604EF6BE214160012101603A
S3150800051070470E49012008607047F0B5C2085202BC
S315080005200B4CA518830010F0040014BF6E68A6587B
S3150800053003F00C030F279F40BE439940314308B18F
S315080005406960F0BDA150F0BD006000400860004041
S3150800055000B00040C108032908DA012100F00702AB
S315080005609140C008104A02EB402001607047C1085C
S31508000570032908DA012100F007029140C0080B4A56
S3150800058002EB402001607047C10803290ADA084ACD
S3150800059002EB412101230A6800F0070003FA00F084
S315080005A0504008607047000014B0004010B000408A
S315080005B00CB0004030B5044610467F2808BF00201E
S315080005C04BF23462914283B01AD108237F2240F657
S315080005D012016846FFF7EEFF08220FF23C01684653
S315080005E000F0E7FC30B908237F2240F2A271684682
S315080005F0FFF7E0FF08226946204600F0C1FC37BD38
S31508000600044D294300FB03111A46204600F0B8FCA6
S3150800061037BD000000000808FFFFFFFFFFFFFFFFD0
S3150800062007490A68032809D34B6D43F001034B6554
S315080006300B689B1AC3F313038342F9D37047000070
S31508000640382000400170012201290CBF8021402179
S315080006508180427000218270C1800181204801603A
S315080006600E218162016821F01001016000214163B9
S315080006704162426170472DE9F041194F194E04460F
S3150800068000F032F890464FF0FF303060C7F82C8003
S31508000690002078620D46386840F001003860FFF7A0
S315080006A038FF012C0FD135B900F043FB00F00100EB
S315080006B080F0010002E0284600F042FB28B900F06D
S315080006C013F800200AE0012008E03068C007E6D5E4
S315080006D05FEA0800E3D000F007F81620BDE8F081CD
S315080006E000F0004000A80040386840084000386024
S315080006F0704738B504460D4600F009F800F007F8CB
S315080007002A462146BDE838401820FFF7E9BE2A46A2
S3150800071021461820FFF7E4BE70B5044682B00020D3
S3150800072020814AF6B43220786946FFF7A4FF08B15B
S315080007301C2076BD9DF80000032818BF182801D193
S31508000740182076BD042801D1172076BD012801D0CE
S31508000750212076BD002500E06D1CA188EDB2091D9B
S315080007608D420BDA601900F10A01207840F2DD2289
S31508000770FFF781FF0028EFD0262076BD0025002050
S3150800078006E00146EDB260196D1C007B00F024FC02
S31508000790A288E9B29142F4D3A37AE17AC918FF296B
S315080007A001D0222076BDA5182E7BB6EB102F01D0DE
S315080007B0232076BD697BC0B2814201D0242076BD54
S315080007C0A078834207D0401EC0B2834201D12720B9
S315080007D076BD252076BD901C20810220E080002071
S315080007E076BD38B504466078012804D040D303287E
S315080007F03CD033D33CE02078012816D13B25684607
S3150800080000F09EFA0028FAD0432000F041FA20783A
S3150800081040F2DD220021FFF72EFF30B12846451EA3
S31508000820C0B20028F0D11B2032BD022060702046DD
S31508000830FFF772FF050018BF00F096FA272D19D1A9
S31508000840A0782278411EC9B20620FFF749FE002D7E
S31508000850EDD10320FFF700FD002032BD00F084FA39
S3150800086000F023F8A078401CA070E0E7172032BDFE
S31508000870182032BDA80603D52278A1781520E4E70A
S31508000880680603D4182D18BF1C2D07D121782846D1
S31508000890FFF72FFF04206070284632BD172DD6D1EA
S315080008A000F003F803206070E0E72278A1780620BC
S315080008B0FFF716BEF8B504460D461646002707E0AC
S315080008C0E088411C2044E180BFB2807AE8557F1C4D
S315080008D0B8B2B04209D2E08821898842F0D32046CE
S315080008E0FFF77FFF0100EBD0F2BD0020F2BD10B587
S315080008F004462046FFF775FF0100FAD010BD000038
S31508000900F8B504460D4616461F4607E03046A0478A
S31508000910294600F074FB05467F1E761CB8B20028EF
S31508000920F4D12846F2BD38B50C46154605E0014611
S3150800093014F8010B00F063FB6D1EA9B20029F6D16D
S3150800094032BDF8B504460D4616461F462868236884
S315080009503A4631469847040005D1E8683A46314692
S31508000960FFF7E1FFE8602046F2BD10B5029C8472ED
S315080009700381426001604FF0FF31C16000210174BC
S3150800098010BD2DE9F84F8B4604469BF81B70D068BE
S31508000990A349802FA8BF802788421E4653D1002E20
S315080009A04FD0B06800904FF0FF384FF000090BEBBE
S315080009B0490000F1480A9AF800500DE0FFF7A9FD32
S315080009C0E80240F0006200984FF400634146FFF7E2
S315080009D097FF6D1C8046ADB29AF80100A84205DA69
S315080009E009F10109B9F1060F02DAE0E7FF2DE5D1B1
S315080009F0DBF844006FEA0801884224D1A0687368CE
S31508000A0000BA7A0859469847C8B9E06805BAA0688E
S31508000A1002BAB0683B464FF0FF31FFF771FFC0439B
S31508000A2085420CD140F6A720ABF810000122A06839
S31508000A30736800BA0BF110011030984708B14220CC
S31508000A4002E0172000E04320BDE8F28F2DE9F04FC1
S31508000A50894609F1040583B08046D5F800A0A88820
S31508000A60ADF804001646042352464046FFF769FFD0
S31508000A70010076D1BAF8000040BA80B20090BAF800
S31508000A80020044BAA4B2E00706D500984FF20861FE
S31508000A90884218BF462064D1B4F5026FC8BF4E20FD
S31508000AA05FDC002C5CD00098DFF878B109F13C07D0
S31508000AB048B14FF60441401A00F09880FF3854D0E8
S31508000AC0FE3852D0AAE0287B08B1512049E08D2C87
S31508000AD028BF4F2045D2234609F1180200F0A5F891
S31508000AE001003ED1FA78802AA8BF802202F10C00C4
S31508000AF0844201BFA88A40BA00F47F40B0F5007F5F
S31508000B0031D1E88A40BA4EF25031884202BF288E67
S31508000B1040F6A721884226D1688E00F47F40B0F5BA
S31508000B20807F01BFA86900BADBF81C1088421AD179
S31508000B304FF6FF70288609F124014FF0FF30FFF7C2
S31508000B40F2FEE96909BAC943884204BF387804281D
S31508000B5009D17878122818BF062804D101202873ED
S31508000B600020BDE8FE8F4520FBE7287B00283FD004
S31508000B70042300F059F80100F3D1DAF8000005BAA9
S31508000B80DBF81C00241F8542A4B238BF4820E8D3EE
S31508000B90F96B6019884228BF4920E2D200984FF6BF
S31508000BA0035188420AD14EB132682946022090473D
S31508000BB020B14A20D5E7E41BA4B27D19002CCFD07A
S31508000BC0BDF804008442B4BF274607463B4600F0FA
S31508000BD02BF80100C5D1002EEDD073687A0851466E
S31508000BE0284698470028E6D04B20BAE7287B08B95C
S31508000BF04120B6E7042C18BF4C20B2D12A6804233A
S31508000C0000F013F80100ACD133464A4609F1240135
S31508000C1009F1140003B0BDE8F04FB2E64420A0E79E
S31508000C20E320BBDE0000000852464946404688E6F7
S31508000C3070B50D46044628898028164603DA4F20E3
S31508000C4070BDA87A78B9324629462046FFF7FEFED7
S31508000C500028F6D0172807D128686168884717281A
S31508000C6002D1002070BD502070BD000080B53B4801
S31508000C706821416102218160012101600920092161
S31508000C80FFF74BFCBDE8044004210A20FFF745BCEA
S31508000C903449CA685207FCD50860704710B504463F
S31508000CA003E014F8010BFFF7F3FF20780028F8D1CA
S31508000CB010BD1CB50FF2C0020521D2E90034CDE9FA
S31508000CC0003404220EE080B20A2390FBF3F30A24D0
S31508000CD004FB1304E4B2184604F130030DF801309E
S31508000CE004B10A46491E49B20029ECD5D2B20DEB29
S31508000CF00200FFF7D3FF13BD10B5044600090A2802
S31508000D00ACBF37303030C0B2FFF7C2FF04F00F0077
S31508000D100A28BDE81040ACBF37303030C0B2B7E75C
S31508000D2010B50446000AFFF7E7FFE0B2BDE8104039
S31508000D30E2E70B48006810F0020018BF0120704770
S31508000D4010B50446FFF7F5FF20B106480068207085
S31508000D50002010BD012010BD0000000054C800404E
S31508000D6048C800403CC8004080B56846FFF7E8FF21
S31508000D700028FAD001BD00003030303030000000C5
S31508000D802DE9F84FFFF7C5FBFFF7EEFF0020FFF749
S31508000D9063FA474C0FF2641B464E0FF234180FF2F3
S31508000DA0181A41A70FF204191BE05046FFF776FF01
S31508000DB00C252088E84000F00F00FFF77AFF012D88
S31508000DC0A4BF2E20FFF764FF2D1FF2D54846FFF774
S31508000DD065FF608EFFF76DFF4046FFF75FFFFFF781
S31508000DE0C3FFFFF796FB0220FFF736FA6846FFF7C0
S31508000DF0A7FF0028F5D19DF80000FFF749FF9DF8E9
S31508000E0000000A2818BF0D28CFD0312804D0322870
S31508000E102ED0332831D0E2E70FF2F000FFF73EFF7D
S31508000E200120FFF71BFB05460FF2F400FFF736FF1C
S31508000E302DB90520FFF710FA0FF2F800CDE70420C8
S31508000E40FFF70AFA0FF2F800FFF728FFA80648BFCF
S31508000E500FF2F80005D468064CBF0FF208100FF21F
S31508000E601410FFF71BFF2846FFF75AFF3846B4E76A
S31508000E700120FFF7F1F9BDE8F18F3846FFF70EFFBD
S31508000E80308A002540F6A721884218BF5846A4D1C3
S31508000E9070196D1C90F824000100E7D0FFF7F8FEE2
S31508000EA0EDB2202DF4DBE1E70D0A00002062000018
S31508000EB01A000008004000080D0A454D3335393838
S31508000EC02053657269616C2042746C2076000000BC
S31508000ED00D0A312E2075706C6F61642065626C0D89
S31508000EE00A322E2072756E0D0A332E2065626C202A
S31508000EF0696E666F0D0A424C203E20002A2A206E33
S31508000F006F20617070202A2A0D0A00000D0A62659A
S31508000F1067696E2075706C6F61640D0A00000000C9
S31508000F200D0A53657269616C2075706C6F61642077
S31508000F3000000000636F6D706C6574650D0A000033
S31508000F4061626F727465640D0A0000000D0A584DDF
S31508000F506F64656D20626C6F636B206572726F7269
S31508000F60203078000D0A66696C65206572726F72AA
S31508000F70203078000D0A6572726F72203078000092
S31508000F80814212D210441144401E491E93B2002BCE
S31508000F901EBF11F8013900F80139521EF6D1704703
S31508000FA011F8013B00F8013B521E93B2002BF7D112
S31508000FB0704710B500E0521E93B223B100F005F851
S31508000FC0F9D0181B10BD002010BD10F8013B11F810
S31508000FD0014BA342704700000A46090241EA122162
S31508000FE04840C0F30311484080EA00304101020638
S31508000FF0C9B2D20E41EA0221484080B270470A0AB5
S31508001000484000F0FF0008214308C00746BF0348D0
S3150800101058401846491EF7D1504070472083B8ED0E
S315080010202748018A40F6A772914202BF408A4FF4C8
S315080010307F41084203D1022801DB012070470020C6
S315080010407047F8B504461D4E012030700D46FFF76F
S31508001050E7FF18B94FF40170FFF7B6F81848876A22
S31508001060294644F48070B847002131700FF25406BF
S3150800107018B9294644F40070B847305CF2BD2DE92A
S31508001080F041044688465600FFF7CAFF18B94FF4E0
S315080010900170FFF799F80A480FF22805476A0023F6
S315080010A0324641462046B84720B9334600224146D3
S315080010B02046B847285CBDE8F08100002C0C0020CB
S315080010C000000808000202024B4B4647EE080000E3
S309080010D00100FFFF0F
S705080000757D
