S01600007468726561642D746573742D6170702E7333370B
S3150000000078D90320F18D0300258A0300298A03008D
S31500000010A70B0000000000000000FFFF54000000D6
S3150000002004180F000000000000000000000000009F
S3150000003000000000000000000000000000000000BA
S315000000400000000000000000000000008C0000001E
S315000000500000000078D90320F18D0300258A0300F3
S31500000060298A0300A70A01020002000004180FAC47
S3150000007010228C00000000000000000000000000BC
S31500000080000000000000000000000000000000006A
S31500000090000000000000000000000000FFFFFFFF5E
S315000000A0FFFFFFFFFFFFFFFFFFFFFFFFFFFFFFFF5A
S315000000B0FFFFFFFF00E00F0000000000000000004F
S315000000C0FFFFFFFFFFFFFFFF1C0000000000000016
S315000000D000000000000000000000000069FD032091
S315000000E069FD032078D90320D4E903008296030032
S315000000F0A0CA0320401F00200000100000000000DE
S3150000020078D90320F18D0300258A0300298A03008B
S31500000210318A03002D8A0300358A0300B18A030060
S31500000220B18A0300B18A0300B18A0300B18A0300D0
S31500000230398A0300B18A0300B18A0300752E0000D3
S315000002403BA50000D97800006D1A0000B18A0300B2
S31500000250E17800002379000001790000FF780000B2
S315000002601B790000A5C60200779500006397000081
S315000002709B6D0000B18A0300B18A030043050000AC
S31500000280B18A0300B18A030095950000B18A030084
S31500000290B18A0300B18A0300B18A0300B18A030060
S315000002A0B18A0300B18A0300B18A0300B18A030050
S315000002B00B7900001379000007990000B18A03004A
S315000002C0B18A0300A5920300B18A0300B18A030034
S315000002D0B18A0300B18A0300B18A0300B18A030020
S315000002E0B18A0300B18A0300B18A0300B18A030010
S315000002F0B18A0300B18A0300B18A0300B18A030000
S31500000300B18A0300B18A0300B18A03006F49704ABB
S3150000031001E021B1491E1369DB07FAD401B9B0E047
S31500000320506001201060106910F0060F05D04107DB
S3150000033000D5A9E0800700D5A9E000207047F0B5F8
S3150000034013460022002936D0604C614D8BB98B4292
S3150000035031D250F8046BEE605B1C08262E602646F0
S3150000036001E036B3761E2F69FF07FAD4002EEED1D0
S315000003701FE0EFF3108672B600230EE02F6907F038
S315000003801907102F08BF2F602F693F07F6D550F8C1
S31500000390047BEF605B1C10272F608B42F4D306B9F9
S315000003A062B6264601E026B1761E2869C007FAD451
S315000003B00EB96FF002021046F0BD2DE9F0479A46DD
S315000003C0444B454F1C681B683B688046002043F041
S315000003D001033B60950881460C4602E0B14404EBFC
S315000003E08604A94517D208EB89063046FFF78EFF2B
S315000003F0010014D1C6F30A00C0F500608608A5EB1B
S315000004000900B04238BF0646524631462046FFF73D
S3150000041096FF0100E2D03968490849003960BDE815
S31500000420F0872C49294A0B6809682B490B6843F069
S3150000043001030B608860012048604869400704D5C5
S3150000044008684008400008601EE04869800704D537
S31500000450086840084000086019E00220486001E092
S3150000046022B1521E4869C007FAD422B9086840086A
S315000004704000086005E00868400840000860002069
S3150000048070476FF0020070474FF0FF3070476FF013
S3150000049001007047002390E70F48016841F0010111
S315000004A0016046F21A31C1644FF4807141604169BE
S315000004B0C907FCD44FF4007141604169C907FCD4F7
S315000004C00021C1640020704700000000809698005B
S315000004D00C000E4004300E4008000E40072803D2E0
S315000004E00FF2EC01085C7047FF207047072803D223
S315000004F00FF2E401085C7047FF20704738B50446E8
S315000005002D4800EB8105A8780009FFF7E7FF207169
S31500000510A87800F00F00FFF7E9FF6071FF2814BF0D
S3150000052001200020E8702146E878A07128786070E4
S315000005306878224DA070284600F09BF80120A8603C
S3150000054031BD10B50FF27C0184B01CC968461CC0D1
S3150000055019481B4A817BD36814682340DB072AD5D8
S31500000560032928DA126900EB810400EB4103E478E1
S315000005701CB114B2002C48BF00229A820122C37B10
S3150000058002FA01F11943C173417B91B10021437B0A
S31500000590CB40DB0708D581738A40437B5A404273C0
S315000005A06846FFF7ABFF1FBD491CC9B20329EEDB46
S315000005B01FBD032181731FBD50E1032000200040B1
S315000005C0382000400000000000FF0000000000008E
S315000005D0E07B7C65466C6D00FF7B7C65466C6D0040
S315000005E0890001EB401000F184400260704730B58D
S315000005F0002A446B1ABF1022DFF82431DFF82431B9
S3150000060023400025DFF8204151B101290CD00229F1
S315000006101ED003290CD0062915D0812918D023E035
S3150000062021682568246816E021682568246802E0A8
S31500000630616865686468090C01F4FE41C5F3034509
S315000006402943240C0CE0A168A46801F00F0107E01F
S3150000065061686568646801F4FE4105F00F05294389
S3150000066004F0F00444EA010505FA02F11943416376
S3150000067030BD38B504460D460220A0600022A97898
S315000006802046FFF7B4FF287969786B79020242EABF
S31500000690016242EA0342EB7842EAC302EB790BB10C
S315000006A042F000522B7A0BB142F00402AB790BB147
S315000006B042F002026B7A0BB142F00102AB78F328EA
S315000006C006D1180004D10429BCBF042060F31B62C4
S315000006D018064CBF42F0E00042EA4310206113497D
S315000006E060690840A9780A0644BF21F080010843E2
S315000006F0297840EA4140E97A09B140F480406061D6
S315000007000221AA7A2046FFF76BFF2879F32804F125
S315000007103000BDE838400CBF0122002210215FE7FF
S31500000720FFFF00800080FFFF1082E00F07401E00E1
S3150000073042DE704738B504460D4600F0DFFB01F097
S31500000740B8F901F0CDF92946204601F0CFF92B463C
S3150000075022460FF2B811012001F050FB294620462F
S31500000760BDE83440E4E761482DE9F047604D016893
S315000007702E1D4FF420687165016AB1655D490A68EE
S31500000780F26549683166416A7166816AB166C16A15
S31500000790F166016B3167806B706796F8340040072D
S315000007A04CBFF46BB46B01F0E8FB0022F2648442A8
S315000007B0514A014624BFA2F1200AA24527463165C7
S315000007C005F19003DFF834C1DFF834E118D3A069EE
S315000007D03064E4697464746DC4F30804062C13D1A0
S315000007E0704511D360450FD200884DF64264A04291
S315000007F00AD13068586040F201787068986003E06A
S3150000080000273764776407463E48814202D2014694
S3150000081000E0091D0846904203D20C68B4F1CD3FB2
S31500000820F7D03949081AB0640021002005EB80048E
S31500000830401C0628E167F9DB002003E0C0B205EBA7
S315000008408004E167974223D252F8041D7145F9D31B
S315000008506145F7D2CC07F5D5002405EB8409D9F814
S315000008607C90894502D0641C062CF6DB062CE9D167
S31500000870002814BF401E0520E0E7B16F002405EBF9
S315000008808402641CD2F88070D767052CF7DB1960E8
S315000008900146481EC9B20029EFD1706DC0F30800A9
S315000008A0032808D0042809D005280AD006280BD02A
S315000008B00C280FD011E040F6012813E040F602287C
S315000008C010E040F603280DE0B8F5206F0AD140F697
S315000008D0042807E040F6052804E018B1312838BF9F
S315000008E040F607284046BDE8F087000004ED00E02A
S315000008F00000002000E300E078D903208296030080
S31500000900DC0400009C00002078D903200D0A5B411E
S3150000091053534552543A25703A25645D0D0A00003A
S31500000920890001EB401000F184400260704700F13D
S31500000930806300F1C06019600260704710B54C001A
S31500000940214601F0BBFBA04201D0002010BD0120D2
S3150000095010BD80B501F0E6FB00B10120C0B202BDBA
S31500000960DFF8100A007800B101207047DFF8741A2A
S31500000970097B01B9704780B501F052FB20B1BDE893
S31500000980044040F22911B5E201BD10B5DFF8E429B3
S315000009901378010018BF012103B101239942107099
S315000009A017D058B16FF07F00FFF7E0FF01F0F2FBC0
S315000009B0C0050ED5BDE8104001F00FBDDFF8784A3E
S315000009C094F9050000F056FD2079BDE8104000F0CE
S315000009D0B0BC10BDDFF89C19097801F0FE01084390
S315000009E0D3E7DFF8640A0068000E00F00F00032862
S315000009F001D1012070470020704780B5B0F5004F47
S31500000A0007D100F061FDDFF8E00900F061FCBDF8F8
S31500000A100000DFF8241A4883002002BD410904D1F2
S31500000A20DFF8D019097861F34710A0F10B011029FE
S31500000A3004D2DFF8041A084410F8030C70472DE9B5
S31500000A40F04F440900F01F050027DFF8F08900E0A9
S31500000A507F1C98F80660F8B2B04245D2D8F8080074
S31500000A60FFB250F827004FF0000C01E00CF1010C2A
S31500000A70C67E5FFA8CFEB645EAD2D0F81CE05FFA75
S31500000A808CFC182616FB0CF6B6449EF8086006F099
S31500000A900706A642EAD19EF80960B542E6DB9EF853
S31500000AA001B09EF8009006EB0B0AAAEB090AAA45CC
S31500000AB0DCDBDFF89849247854B1DFF82849E47B79
S31500000AC034B9DEF80C401CB12468EC40E4070BD5C1
S31500000AD011B1AC1B4C440C7012B19EF80810117089
S31500000AE01BB1C3F800E000E00020BDE8F08F40092C
S31500000AF018BF40F01800704780B501F013FBBDE841
S31500000B00084001460022002001F019BB0B381028CE
S31500000B1034BFDFF85C09DFF8300A0068704710B5AB
S31500000B20DFF8D009C1790A0018BF022913D100786D
S31500000B3000F0B3F8044601F063FC60B10121002027
S31500000B4001F08EFC204601F05BFC20B1BDE81040B0
S31500000B5040F28E21CEE110BD2DE9FF41FFF75EFF89
S31500000B60044604F01F001B2824D2002000906B4688
S31500000B7001AA00212046FFF762FF07001AD020468F
S31500000B80FFF7C4FF5FEA000814D0DFF85868DFF803
S31500000B90A858706B80450FD002A84146082201F084
S31500000BA0D9FC288BADF80A00C6F8348002A801F0FB
S31500000BB00DFD08B98A2020E000983062F7610098A0
S31500000BC000B1006970629DF8040070730020291856
S31500000BD0097AA14214D0401CC0B21028F7D3297854
S31500000BE0E0B288421CBF2C70FFF799FF96F90E0001
S31500000BF0DFF85C1AC0010860002004B0BDE8F0818F
S31500000C0000F10B04EBE7DFF8EC0800787047DFF83B
S31500000C10E408B0F91800002854BF05216FF004015C
S31500000C2008180A2190FBF1F040B270470A2110FB28
S31500000C3001F0FFE7F8B500F5D77240F277239A4244
S31500000C4001D38B20F2BDDFF89C27DFF8A848136A92
S31500000C500A25002B1EBFA67E06F0C006802E12D0E7
S31500000C60D67B86B993F9026016FB05F7B842B8BF82
S31500000C7016FB05F007DB93F9033013FB05F68642F6
S31500000C80B8BF13FB05F0117B11B102F07CF801E04F
S31500000C9010FB05F020830020F2BD38B5FFF7BEFE3D
S31500000CA00446FFF733FF90B10023002200212046BF
S31500000CB0FFF7C5FE58B104F01F051B2D07D22046CD
S31500000CC0FFF715FF18B90B2D01DB284632BDFF20B3
S31500000CD032BD7047C0B2704710F1630F01DA0020D1
S31500000CE0704710F1240F01DBFF20704764300002CB
S31500000CF0411100EB91608004000E704738B5DFF8B3
S31500000D00E446DFF89C590020A063687828B102F019
S31500000D103DF8012818BF032801D1002032BD616AC1
S31500000D20DFF8EC2900291FBF236A5B69002B022824
S31500000D3013D1207DA26318B100200021642203E0B4
S31500000D40E87829794FF4A0722070A2806170A878A3
S31500000D50A0708020E080002028E0DFF8F459207D94
S31500000D60AB420FD1DFF8A42AA26368B908792070D4
S31500000D7001228B7808799A40101891F903201018EF
S31500000D80401E08E0A26318B100202080642005E020
S31500000D90487820708878607008780001A0804879CB
S31500000DA0A07008890001E080C8880001A06000F0FA
S31500000DB091FBE07094F90200010048BF4042C0B2C6
S31500000DC032BD2DE9FC410446DFF81866257896F910
S31500000DD0150008B18C2042E0FFF790FFF075DFF8B0
S31500000DE0C078DFF82C8AB87928B1012200F06CFAB5
S31500000DF0AD1E012203E0002200F066FA00220A215D
S31500000E0000F063FAF07B60B9387850B160788006FC
S31500000E1007D5012030766FF001007075E078B07567
S31500000E2004E0002030764FF0FF307075032000F0AC
S31500000E30BBF80094EDB2681CADF804006424684663
S31500000E4001F0B2FF20B1641EE0B20028F7D101E044
S31500000E50E4B21CB940F24A4100F067FA0020BDE84E
S31500000E60F68138B5DFF87C4594F9151021B9FFF7FE
S31500000E70A8FF010004D032BD94F91500012837DA25
S31500000E8001F067FAE8B1A06BDFF88418884218D140
S31500000E90E07DB0B1DFF8B0050068002811D5DFF8B5
S31500000EA07409C168C1600122006800F00F0002FAEF
S31500000EB000F0401E014204D100F048FB642001F01E
S31500000EC077FF94F91500DFF82C56404260752878B4
S31500000ED0FFF7E3FEA26B234604F1180101F03AFF87
S31500000EE020B901F09BFF2862002032BD002060750A
S31500000EF08C2032BDDFF8740AFFF71CBC70B501F018
S31500000F00C4FFDFF834550446E879012801D12046AC
S31500000F1027E2DFF85C1ADFF8546A4020086000F028
S31500000F2097FADFF8CC1A4FF400100860002200216F
S31500000F30022001F0F3FA18B140F2CE4100F010F9A8
S31500000F400021012001F0D6FA18B14FF49A6100F0A1
S31500000F5007F902F083FC0021002001F072F900F08D
S31500000F60E4FA0120E87100F01AF8891C05290BD86B
S31500000F70DFE801F003030E0606060021417507E0CF
S31500000F80892000F067FB03E040F2E94100F0E8F851
S31500000F90204602F03DFEBDE8704002F009BFDFF8D2
S31500000FA0500590F9151070472DE9F843DFF888547D
S31500000FB00446E879A04251D00328DFF8387ADFF8F2
S31500000FC0AC89DFF82C9A4FF4001640D8DFE800F021
S31500000FD03802301F02F0F5FE687880F00102012128
S31500000FE0022001F09BFA20B140F206514046FFF77D
S31500000FF0A1FB0121012001F07DFA20B14FF4A1618E
S315000010004046FFF797FB0320032CE87116D0C9F87A
S3150000101000600220E8712878FFF73FFE01F0F0F942
S3150000102020B140F216514046FFF784FB022C15D042
S31500001030002C18BF032C11D10020E8713E600DE092
S31500001040022C0BD1C9F800600220E87106E0404688
S31500001050BDE8F44340F22C51FFF76CBBBDE8F183C9
S3150000106010B5032804460ED8DFE800F00902090986
S31500001070FFF744FFBDE81040002000F06ABC0120E5
S3150000108000F067FCDCE1BDE8104040F24A5131E770
S31500001090DFF8500390F91510002944BF002141756F
S315000010A0DFF894038079012808BFFFF727BF704750
S315000010B0DFF868098079704780B5032801DB0120D5
S315000010C002BDDFF874138871C979884218BFFFF72B
S315000010D0C7FF002002BD38B5DFF84449226822EA7E
S315000010E00003084040EA0305954209D0012128463D
S315000010F001F079F918B140F2735100F016F9256044
S3150000110031BD70B5B7490446087B40B340F674401C
S31500001110220018BF014602D1C97C01B10421FFF7A4
S31500001120DAFFDFF800590FF624164CB1DE2001F085
S315000011300FFE18B140F2AC5100F012F8002208E0A0
S315000011401E2001F005FE18B140F2B45100F008F877
S3150000115001222846BDE870400321FFF7E1BB70BDC0
S315000011603046FFF7E7BA2DE9F0410446022C82B07B
S315000011700FF6D80703DB40F2E55100F0A2F8994DCF
S31500001180287B002840F09880AB4EF079012803D0E8
S3150000119040F2EB5100F095F80FF6B80001F03CF97B
S315000011A018B140F2ED5100F08CF8052001F04AF933
S315000011B018B140F2EE5100F084F806F12C0002F06E
S315000011C075FE18B140F2EF5100F07BF802F0B6FE62
S315000011D018B14FF4BE6100F074F84FF400424FF4BA
S315000011E07041DFF84408FFF7A2FB1E2001F0B0FDB6
S315000011F018B14FF4C06100F064F80FF6640000F017
S31500001200BAFF18B140F2016100F05BF800224FF41A
S315000012108031002000F093FFDFF8088801220021CA
S3150000122000F053F80122032100F04FF80120287343
S315000012300223DFF8F80700F04BF8BDF80000C00500
S315000012404CBF0020BDF80000A87301F082F8FFF73C
S3150000125058FF708BFFF7D1FB02F0C6FE00F08CF84A
S315000012603078FFF779FC18B140F2216100F029F8D7
S31500001270F07800F03EF8307900F05BF8687C00F01A
S315000012808BF8707800F0C9F800F024F900F0F2F855
S31500001290E87C00F0B1FBB6F91800FFF7CBFCB08B89
S315000012A000F08AF8F08B00F0A7F8B07800F0D4F8D8
S315000012B0601E8041C00FF0712046FFF7D1FEBDE8E9
S315000012C0F3813846FFF736BA0B214046FFF728BBB5
S315000012D001887F22684602F0B9BE80B500F0A2FE02
S315000012E010F5007F02D16FF07F0002BD8005001669
S315000012F002BD38B5044601F0C8FD05463948007BF5
S3150000130048B1601E8041C00F02F045FE18B140F2A0
S31500001310636100F00AF82000474918BF0120C87031
S315000013202846BDE8324002F073BC0FF22070FFF78A
S3150000133001BA70B5044601F0A8FD05463E480471A1
S315000013402848067BFFF70CFB00F0010080F0010047
S31500001350064205D014B101F042F801E001F03DF873
S315000013602846BDE8704002F053BCDFF8B0060079AD
S31500001370704700004EFD03201A48007B00B97047F5
S3150000138080B5DFF8AC0602F0F8FD20B9BDE80440F0
S3150000139040F28D61AEE501BDDFF898164874097B11
S315000013A001B9704780B502F0EAFD20B1BDE80440FE
S315000013B040F297619EE501BD1F498883DFF87416E8
S315000013C0097B01B9704780B502F0D5FD20B9BDE8AB
S315000013D0044040F2A6618DE501BDDFF84006808B32
S315000013E070470000D0F1032006E50300DFF82C0665
S315000013F0C08B70474DFD03200F49C883DFF83416B4
S31500001400097B01B9704780B502F0B3FD20B9BDE88C
S31500001410044040F2BA616DE501BD07494A7882424F
S3150000142000D1704710B5CC794870012C02D0FFF777
S3150000143065FD05E010BD0000E8DC03204CDC030080
S315000014402046BDE81040AFE504400840F5DF032024
S315000014500121012001F004B810B5040002D002F009
S31500001460F9FE01E002F012FFDFF8B005847010BD4E
S3150000147098DB032038B504467F2C0CD100F024F805
S31500001480DFF8B405FFF724FFBDF80000C00554BF20
S31500001490BDF800407E2401F0F8FC0546FFF760FA2F
S315000014A058B960B27E2804D11149096A09B191F987
S315000014B004007E28B8BFFFF759FADFF860054471CB
S315000014C0284602F0A5FB31BD4FF6FF70ADF80000CF
S315000014D002237047074890F905007E2807D1DFF8F8
S315000014E05405006A08B97F20704790F904007047D8
S315000014F0D0F10320E8DC032010B500F04BFE800499
S3150000150011D5DFF818454FF0FF30606200F042FE5B
S31500001510C0044CBF03200120002100F0B4FE01F0FE
S315000015207DFCA06210BDBDE8104080B5DFF8EC047C
S315000015304FF0FF3141628162FFF753FA10B9BDE8FF
S3150000154004402FE101BD0000D0E1032080B500F08A
S3150000155021FE4005BDE804404CBF032001200021C8
S3150000156000F06FBE10B5DFF8CC4400206075042093
S3150000157001F013FCDFF8A4144FF0FF300862E07BA3
S3150000158010B10120207410BDBDE8104000220021DA
S315000015908D2002F0D6BEDFF89C0490F915100329C1
S315000015A00BD1002141754FF0FF31DFF87024116235
S315000015B00022816A402002F0C4BE704738B5DFF8C9
S315000015C07444054694F91500012835DB94F9150095
S315000015D0032831DADFF86404006868B3002003F0FA
S315000015E0FAF848BB2868A06201F029FCE062E07DB9
S315000015F008B1E06A206394F91500012804D0022896
S3150000160014D10320607531BD002060754FF0FF30A6
S31500001610DFF808140862E07B10B10120207431BDA8
S31500001620A16ABDE83840002202F08BBEBDE8344016
S3150000163040F60101FFF75EBCFFF777FF01F0FFFB05
S31500001640E06202F0DAFEBDE8314001F0A4BB000022
S3150000165040300840F8B50446FFF767FFDFF8BC6383
S31500001660DFF8D0534FF0FF37376201F0E8FBE8624E
S3150000167095F91500012812DBE87D08B1E86A2863B0
S31500001680002068753762E87B10B101202874F1BD2F
S315000016902046BDE8F8400022002102F052BEF1BD0E
S315000016A0C0DE032010B5DFF88C4394F9151001292C
S315000016B006DAC0062BD5FFF738FF0020A07410BD50
S315000016C0810748BF882002D4010703D58920BDE8D9
S315000016D01040BFE71421084202D0BDE8104041E7A0
S315000016E0410609D54C480068400410D4BDE81040B6
S315000016F00021002000F0A5BD000602D5BDE810407F
S3150000170024E7BDE8104040F68701FFF7F3BB10BDA4
S315000017105934000010B500F01CFE78B1FFF761F9EE
S3150000172060B1DFF8F8424FF0FF30A06201F076FBBF
S31500001730606200F0CFFD002100F0A5FDDFF8F402A5
S31500001740C07C18B1BDE8104000F08FB910BD000094
S31500001750681A000010B50446600748BF002002D48E
S31500001760200702D50120FFF7D5FFE00648BFFFF7A7
S31500001770C3FE14F48C6F18BFFFF7D7FE200510D5F3
S3150000178000F0E7FD68B1FFF72CF950B100F0AEFDAF
S31500001790044600F09FFD844203D02046BDE8104079
S315000017A000E010BD002100F06EBD38B50178A14CF7
S315000017B0DFF88C52022909D1408803F0B5F8FF28DA
S315000017C00ED000F015F80BD100200FE00329FBD155
S315000017D0801C03F0C8F8FF2802D000F009F8F3D007
S315000017E00020A07402F0EFFB08B90120A07431BDFF
S315000017F0296831F810004FF4567108427047952851
S3150000180001D3002070478F487047000083350000E1
S31500001810A40008404C500840044008407047084463
S31500001820704770472DE9F0417C4E7278044682F08D
S315000018300102207994F8088000F00101114379D063
S31500001840B8F1060F76DBA17A090673D4E17A0FF2B6
S31500001850FC15784F01F00701022926D1FFF765FE36
S3150000186097F9150003281CD12079B8F1060F14D179
S31500001870410716D5B97D627B91420ED1002078755D
S3150000188000214FF0FF303062E07ABDE8F0410009F8
S3150000189000F001028F2002F054BD400748BFFFF759
S315000018A07AFEF078002848D115E0400748BFFFF7D8
S315000018B072FEF07878B12079400706D540F66F11B0
S315000018C02846FEF737FFF07828B1E07A800602D581
S315000018D000F087FD18B1FFF728FE0020B874A07A43
S315000018E0401C404504D040F689112846FEF722FFE9
S315000018F004EB08053078A8720020E8726079287336
S3150000190095F90C00FFF7E8F9687308F10801FF2064
S31500001910A873C9B22068000CE8732068000A28740E
S315000019202068687404F10A00BA7C03F053F80020BA
S31500001930B87402E0BDE8F041DEE5BDE8F0810020C4
S3150000194003F0B2B903F036BA704770477047704774
S3150000195070473249C979012906D13B490B7898422B
S315000019601CBF087002F02FBA704700004C1A000026
S315000019700840084038B50446012C0D4607DB01F047
S315000019804DFA011B89B28D428041C00F32BD002045
S3150000199032BD70B5040004D101F0FEF901F075FA0C
S315000019A005461E4E306A4FF47A71FFF7E3FF50B1D9
S315000019B0204890F91500032802D1FFF7ECFD02E05C
S315000019C08920FFF747FE706A0A21FFF7D3FF08B1A7
S315000019D0FFF7ABFD00F0DEFB00F0FF01B06AFFF79A
S315000019E0C9FF08B1FFF7A1FD04B9B9E470BD000055
S315000019F0186008461860084438B50E4D0446287B22
S31500001A0050B1200002D100F0A4FC08B1042100E08E
S31500001A1000210420FFF75FFBEC7431BDE8DC0320F6
S31500001A200CF20320440008400400084008E50300C7
S31500001A3034F60320D0F103200AE50300081008401D
S31500001A40BCDB032010F203204FFD03207068792EC3
S31500001A50630000007F00000000F049020100010061
S31500001A60010001008CD10300000070471248006895
S31500001A70800704D52E210FF25800FEF75BBE704793
S31500001A8080B501210D4803F083FA0421072003F0F5
S31500001A9019FE0B480B490C4A016004211160022112
S31500001AA041620421094A1160816A41F002018162A2
S31500001AB001BD034803F06ABE1C200540002508004E
S31500001AC0002005400108030080E200E000E100E09C
S31500001AD06D6963726F2D636F6D6D6F6E2E6300009F
S31500001AE0602080F31188704703F028BF03460A463A
S31500001AF08FA10420FFE70CB480B502AA00F040F8DD
S31500001B0001BC5DF80CFB0A0003D0034689A1112035
S31500001B10F1E7704700B589B002F066F90021079138
S31500001B200691059104910391029101910246824921
S31500001B30009100230FF214210120FFF7DCFF7F48FC
S31500001B40C178437802780391816802918188019176
S31500001B508178009143200FF20021FFF7CCFF09B0F6
S31500001B6000BD7749087070470C220021754803F0C4
S31500001B707FBF744931F81020521C21F8102070479D
S31500001B802DE9F04107466E480078A2B00C46904613
S31500001B90002690B9380018BF012F0ED0042F18BFA9
S31500001BA0052F0AD0312F18BF332F06D0372F1EBF6F
S31500001BB03B2F4FF6FF718F4275D103F049FE002887
S31500001BC071D0802202A9384600F076F8002C68D041
S31500001BD007E08DF80400012201A9002000F078F842
S31500001BE0641C207801005CD0A0F130020A2A05D2DC
S31500001BF00A2101FB0600A0F13006F1E7422818BFD2
S31500001C0044280CD0462827D0572808D0622836D03A
S31500001C10662821D06C281CD070281DD0D9E7422810
S31500001C2007D158F8042B6946012003F04CFF012226
S31500001C300DE0572858F8042B694604D1012003F01B
S31500001C4042FF022203E0012003F03DFF0422694621
S31500001C50C3E758F8046BC3E758F8041B462807D1B6
S31500001C600026885D00281EBF761CF6B2FF2EF8D12E
S31500001C70F2B2002000F02CF898B90026B0E758F828
S31500001C80047BB8B20028ABD004F068FB0546B8B2B6
S31500001C9004F04DFB0146EAB2002000F019F80028D6
S31500001CA09ED000F039F822B0BDE8F081122804BFBA
S31500001CB0002005F082B8704710B5234C61600146DC
S31500001CC02270606803F0CAFD607010BD000000005D
S31500001CD0F8B515000C461C4E1CD070783178736828
S31500001CE00F1AFFB2EDB2BD42B8BF2F463A462146A3
S31500001CF0184403F05BFE707838187070ED1B3C4496
S31500001D00E8B238B17068711C03F00BFE0028E4D00D
S31500001D100120F2BD0020F2BD10B50B4C6068611CBD
S31500001D2003F0FFFD08B1012010BD607010BD00007A
S31500001D30574600006C70000034F6032030CD0300D7
S31500001D4050FD0320A4F20320B0F203204242387073
S31500001D5042424242574242004242425744420000F7
S31500001D602DE9F04194B004460F4690461E460125E3
S31500001D7014B1012C11D021E0002105F04CF80546E4
S31500001D80012C1CBF022C032C25D1012E0197ADF886
S31500001D900C8015D14FF4805016E00AA80FF2780196
S31500001DA0242200F0E7FB68460AA9242200F0E2FBA1
S31500001DB01020ADF82400ADF82600E1E701200BE085
S31500001DC0022E03D14FF44050ADF80A006946204672
S31500001DD005F021F80546E8B214B0BDE8F08180B5FB
S31500001DE005F0E1F8C0B202BD80B505F033F9C0B226
S31500001DF002BD80B505F03AFAC0B202BD0CB480B59A
S31500001E000A46014602AB034805F0D6FA02BC00209A
S31500001E105DF80CFBFD7100000000014000C20100EE
S31500001E200000001000000000020002000300000095
S31500001E3000000000000000001E1E0000890001EBEB
S31500001E40401000F1844002607047000010B504465F
S31500001E50FFF746FE4E484AF6E8510160C162016B43
S31500001E6001F00F01022913D14A4A01211160806B4A
S31500001E7000F00300012818BF022809D100221C2106
S31500001E804548FFF7DBFF002200214448FFF7D6FF55
S31500001E90200A0028424808BF24024FF20F0104809E
S31500001EA04180BFF35F8FBFF34F8F3E483E4A0168C4
S31500001EB001F4E06111430160BFF34F8F00BFFDE7FE
S31500001EC080B5002000F009F830B9BDE80440E021F3
S31500001ED00FF2EC00FEF72EBC01BD2DE9F042334CAB
S31500001EE0216842428D1815F01F0108D0002802D43F
S31500001EF04842054403E04842284400F120052C48A6
S31500001F00A5F12006A84224BF2A48864203D3EFF350
S31500001F100880854201D300202DE000F0B6FF8146FF
S31500001F202548006810F0010718BF05F0D4FB2068AB
S31500001F3001468D4206D2A84224BFCD2100F80119E0
S31500001F40F9D206E02038002201E000F8012B884291
S31500001F50FBD32560304605F0C5FBE22001E006F81C
S31500001F60010BAE42FBD30FB105F092FB484601F0E0
S31500001F704FFE20682038BDE8F0820C4800687047A4
S31500001F800A480068203870470C4870470000000077
S31500001F9008300E404040084060300E4074300E401D
S31500001FA0000000200CED00E00400FA0524DD03200B
S31500001FB0A0CA0320401F002094ED00E0000000208E
S31500001FC06D6963726F2D696E7465726E616C2E63D6
S31500001FD00000000080B505F056FC3349012008706A
S31500001FE0002002BD10B5044600F044FA206841689E
S31500001FF0806805F03BFE05F01FFE002814BF2B4845
S315000020002B4805F0EDFE2848017829B10021017022
S315000020104FF4803000F060F820680088C0B210BD30
S3150000202001F0EEBA05F039BD80B506F091F8BDE8CD
S31500002030044006F0FBB810B50446208806F088FA7E
S315000020402080608806F06FFA6080A08806F0F5F9B7
S31500002050A080E08806F01BFAE080002010BD10B5D5
S3150000206084B00178032928BF00201BD269460022CC
S31500002070002300241CC1002109E04268525C0DF8CF
S3150000208001200DEB01038268525C9A70491C0278AC
S315000020909142F2DBC0680190FF208DF80800684687
S315000020A006F0A4FF04B010BD66FD0320C0CF6A0091
S315000020B0E067350006F0BEBF06F0CDBF07F066B993
S315000020C010B5044607F0F2F915494C6000220A6083
S315000020D0BDE8104007F0EEB910B5044607F0E6F982
S315000020E00F494A680B682240140018BF01241A439E
S315000020F00A6007F0DFF91CB1BDE81040FFF722BC0B
S3150000210010BD10B5044607F0D1F905494B680A68B9
S31500002110234022EA03040C600DE001484068704742
S3150000212094FB032010B507F0C1F9014902E000BF96
S3150000213094FB03200C6807F0BDF9204610BD70B56E
S3150000214082B0040006BF0FF24800006820680D4602
S315000021501646009015B9FFF7E5FF05462846FFF736
S31500002160D0FF2946684601F08FFB002E1EBF002CCB
S315000021700098206073BD38B5044601F082FB054621
S31500002180206800F00110FFF79BFF284632BD0000D3
S31500002190FFFFFFFF764840687047F8B5744F7D68CB
S315000021A0044600267348044214BF02267C6024EAD3
S315000021B00500C00307D50021002000F042F80021E9
S315000021C0002000F060F830000CD1786800F4804000
S315000021D005F48041884205D0A00B00F0010000F014
S315000021E0BBF806463046F2BD10B5614CA078E178E2
S315000021F000F0010001F0010108436168C90319D428
S31500002200C0B1E06848B1E078000706D5E16808206B
S315000022108847E07800F0F700E070A06870B1A07819
S3150000222000070BD5A16808208847A07800F0F700C2
S31500002230A07003E0607808B100206070BDE810402F
S315000022408FE02DE9F04104460D4600F01EFE484F92
S31500002250804638780126A8B120000BD1B87800282E
S315000022601CBFB868002805D0B878400602D5B96802
S3150000227040208847BD60B878A0421CBFBC70FFF7FD
S31500002280B3FF002620E02DE9F04104460D4600F09C
S31500002290FCFD374F804638780126A8B120000BD1C7
S315000022A0F87800281CBFF868002805D0F8784006A2
S315000022B002D5F96840208847FD60F878A0421CBF27
S315000022C0FC70FFF791FF0026404601F0A1FC304666
S315000022D0BDE8F08126494A680978002029B15103F2
S315000022E003D40120110548BF0320704720490A780E
S315000022F00020002A1FBF012049681F4A114218BF4B
S315000023000320704738B51A4D2978884204461ED0F6
S3150000231020000ED00121194802F03AFE122007F0E3
S31500002320DAF818B90A2007F0D6F850B107F0F5F830
S3150000233007E000210020FFF7A6FF00210020FFF79D
S3150000234080FF2C702046FEF7DCFE00F00AF8002025
S3150000235032BD07480078704700B1022070477047C9
S3150000236000BF03480178002141700020FEF732BB10
S315000023706CE10320FFFC0FF8000808000035080098
S315000023801CB5044600222178022000F0C7F820B9C7
S315000023902178012000F0AEF808B1012016BD608852
S315000023A0ADF804006088ADF80000A088ADF806001E
S315000023B0A0880A38ADF802006846FFF73CFE2046C2
S315000023C001F0EEFA01F0D8FA002016BD0179412994
S315000023D0B8BF01F0FDBA0120704701F021BB01F042
S315000023E027BB01F037BB10B5044611B101F076F9F1
S315000023F001E001F078F92046BDE8104001F078B917
S3150000240010B5044600F039F8010004D12046BDE8B5
S31500002410104001F012B910BD10B5044682B0A06894
S3150000242000F00110FFF74CFE204600F0F7FE010019
S3150000243007D100200090684600F0B8FC010008BFF4
S31500002440002016BD10B5044600F07DFF08B102203D
S3150000245010BD2046BDE8104000F052BF002101200B
S3150000246010B50C4600F05AFF1CB100F06CFF0028B6
S31500002470FBD110BD1E4988607047F8B51C4DA96890
S31500002480044600291CBF0868002811D0496879B1A4
S3150000249000220C2606FB02F7C35B9C4222BFC7192B
S315000024A07F88A7423CBF521C8A42F3D38A4201D39B
S315000024B00120F2BD06FB02F14618E868B04204D1DD
S315000024C02878A04203D10020F2BD012200E00022BC
S315000024D03146204601F022FA010004BFEE602C705E
S315000024E0F2BD034800787047014840687047000015
S315000024F0A0FB032038B504460D46022C18BF022D5A
S3150000250001D1012032BD00F01EFF022805D0294668
S315000025102046BDE8344001F0CDB932BD70B50D4658
S31500002520022D0446164601D1012070BD00F00BFFB6
S31500002530012801D1022070BD2946204601F0C5F9C7
S31500002540010005D1304601F053F9010008BF002013
S3150000255070BD000062B38B0708D0521E11F8013B14
S3150000256000F8013B00F024808B07F6D1830740F08A
S31500002570208000BF103A07D330B4B1E83810103AC3
S31500002580A0E83810F9D230BC530724BFB1E80810D0
S31500002590A0E8081044BF51F8043B40F8043BD207BA
S315000025A024BF31F8022B20F8022B44BF0B780370AE
S315000025B07047083A07D3B1E80810083A40F8043BD8
S315000025C040F804CBF7D25307E4E7000010B5040047
S315000025D014D005F02DF9DFF8C405DFF8C435002165
S315000025E00160DFF8C0052178022909D1196889023E
S315000025F01BD503210170DFF8B0154180002010BD06
S31500002600012904D1196811F4400FF2D10DE0002917
S31500002610EFD1DFF8981509681A6801F0010181F019
S31500002620010102F480021143E3D108222146FFF79B
S3150000263091FFE08800F0F9F900F014F8B4F902000F
S3150000264000F008F8DFF868150320086000F082FA49
S31500002650012010BD80B500F052F9DFF84805B0F949
S31500002660020002BDDFF83C050078022808BF00F032
S3150000267036B8012808BF00F019B8DFF82005DFF8E2
S315000026803425016811400160052241F0804141F086
S31500002690040101600721DFF820054160DFF81C1501
S315000026A04A60C0220260812008607047DFF8EC04AF
S315000026B0DFF8002501681140016041F00301016067
S315000026C00721DFF8FC04DFF8FC2481600621116095
S315000026D0DFF8F41441604FF4404101607047DFF8C1
S315000026E0BC04DFF8D02401681140016041F080414C
S315000026F001604FF4EE40DFF8D41408604FF48A41CD
S31500002700DFF8CC044160012101607047F8B5DFF8BD
S3150000271094341C78032C01D10020F2BD012CDFF883
S315000027207C240FD10828A8BF072002DA010008BFC1
S3150000273001201168DFF89C341940116041EA0061FC
S315000027401160F2BD1468DFF890542C40146044F414
S315000027507C5444F0C8041460DFF88054DFF8404429
S315000027602468E44304F4FE14B4FA84F4C4F11304B4
S31500002770C4EB4414E6B2B04288BF304606000446B5
S3150000278004D1DFF85C142960002103E04FF0E06615
S315000027902E60401EC0B21F2590FBF5F5012705F1FE
S315000027A0010C07FA0CF77F1E1668BF0307F47F17A4
S315000027B03E431660C5EB45151668401B401C46EAAD
S315000027C0006010604FF4800039B1197829B9DFF83C
S315000027D0EC13086044F4807402E0DFF8DC13086050
S315000027E0C82000F0CAF82046F2BDC11320F400400C
S315000027F04211521EC2EB421200F01F0080B5801833
S31500002800FF2803DA012802DA012000E0FF2001F0A8
S315000028100101C0B2FFF77AFF10F47F4F14BF4FF4E7
S315000028200041002120F47F401F2290FBF2F2531C4E
S31500002830C2EB421241EA4311801A084302BDB1F9C4
S3150000284000208242B8BF1046A0F1C8026FF02703ED
S3150000285092FBF3F2082AA8BF072201EBC201091D69
S3150000286001284B68B1F9021000FB0131A8BF01F540
S31500002870FA714FF47A70B1FBF0F0072A1FBFC9490D
S315000028800978022940F400407047012231F83230BD
S31500002890834202D3521C082AF8D3521E01EBC2010E
S315000028A020F400404FF47A7250434A68B1F902109E
S315000028B0801A0128A8BF00F5FA7090FBF1F0704766
S315000028C0B8490978032919D0B449C64B0A681A4091
S315000028D083280A6008DA130A03F47F531A431F2871
S315000028E00A6006DAB44905E042F47C5242F0C802B6
S315000028F00A60B24901220A608A613EE0704770B5FB
S31500002900A84CB4F9041045182078032834D00128BF
S3150000291015D1A248AF4A01681140016006210FF2A5
S31500002920204232F911309D4201DA491EF9D132F9BD
S3150000293011500268491C42EA0161016016E06178A3
S3150000294000B1891C44220FF2E82051434618314653
S315000029502846FFF774FFFFF748FF212808BFB6F99E
S31500002960025003D0311DFFF790FF05462846FFF7BA
S31500002970A7FFA088281A608070BD8A4A9A49527AB1
S315000029807AB179280DDB4DF6017008679749984AA8
S3150000299008604FF4574197480167116008210160AC
S315000029A0704708200860704710B505F045F9924C4D
S315000029B028B12068216800F00CF8206004E0A069C6
S315000029C0A16900F006F8A0614FF000708B4908601D
S315000029D010BD490820F47F1001F4FE11084370472A
S315000029E0704738B505F028F9854C86494FF400152F
S315000029F0002814BF2560A5614FF00060086031BD56
S31500002A006848C088704780B500F0A4F865487E4ADB
S31500002A10017A1268C2F38212914204D0C06800F0B3
S31500002A2004F8012002BD002002BD7CB55D4C0646BF
S31500002A307548E6600068800900F007002072801E75
S31500002A40012801D9001F01D1002508E020780228BD
S31500002A5008BF962503D001280CBF3225B42506F001
S31500002A60CCFD4FF47A71B0FBF1F07043B0FBF5F09A
S31500002A704001B0FBF1F04FF0FF3101E04008491C86
S31500002A800028FBD149B21029A8BF4FF4706003DAC1
S31500002A90002958BF084600020FF28C11D1E9002325
S31500002AA0CDE90023009028040190684600F012F852
S31500002AB000F01BF8054606F0A0FD6421B0FBF1F01E
S31500002AC042F210716943B1FBF0F0E08005F067FD5A
S31500002AD0E08876BD41684D4A116040F6FF714C4A68
S31500002AE0116000684B490860704730B54A494A682A
S31500002AF048684B680C680D68D2B2000404F00F04F5
S31500002B00000E096802FA04F4821AC5F303151B02C3
S31500002B10AA401B0E090A5211181A01F00F0102EB06
S31500002B206412884002EB601030BD3C4B3C4A1A6090
S31500002B300204000502F4E02200F0F870104301F0F0
S31500002B4007020901104301F4F8710843354908608A
S31500002B507047000080B505F05EF8401E082817D8BB
S31500002B60DFE800F005160E0E1010131313000D48C3
S31500002B700078012819BF042100200421042009E05F
S31500002B80002103E00321032004E00A21002001E0E4
S31500002B900A210F20BDE80440C7E70000EC1F002112
S31500002BA088410E402CDF03200080FFFFD481E00F18
S31500002BB058410844E8FFFFBF084108440841084659
S31500002BC0044108440C410846C10040002441084421
S31500002BD0204108463F00C0E0FF3FC0E058410840A2
S31500002BE02C00000737C0FFFF944008441C410844EE
S31500002BF01C41084694400846004108401C400840D5
S31500002C00004108442040084418600840BC60084061
S31500002C10B8600844B8600846B860084050410844A7
S31500002C20F701F701504108460000000000000000CF
S31500002C30C800FCFE1F811D0B6ABDFBFFB0807F052F
S31500002C404A32FFFF74801603EA4B00005180B5013B
S31500002C5027B200003F80490184C500003280D100C0
S31500002C60F0C300002880740034B4000028004B0034
S31500002C70EAB500008C00FCFEFFFF0000000000002B
S31500002C801F8158114C42FAFFA180CA050197FFFF28
S31500002C905D806A024CA4000041805701A7CC000069
S31500002CA03480E000BECA00002A808C00CABC000046
S31500002CB029005200B5B90000C800FCFE1F01C80B70
S31500002CC07D30FBFFAB001C05035BFFFF7300FD02BD
S31500002CD0DC5500005300D501BEAF00003F001901CE
S31500002CE0E4C800003300AC0090C700002C006C0064
S31500002CF0B1BC00002700430046AF00009600FCFE72
S31500002D00FFFF0000000000001F016D0FA182FAFF07
S31500002D107E00C103791F00005500E401F4B10000F4
S31500002D2041003701C7C900003300C000CAC7000010
S31500002D302B006E00F7B90000260038008AA80000B4
S31500002D4083FFBFFFE2FFF1FFF9FFFEFF0000000077
S31500002D5000F01FBDF8B504460D4616461F4600F0A6
S31500002D601EFB08B90220F2BD2046FFF786FB0100D4
S31500002D7008D13B4632462946204601B0BDE8F04020
S31500002D8000F040BCF2BD00F0B3BD0000002070476B
S31500002D90FEF767B87047704770470249087070477A
S31500002DA00000000067FD032000F031BB00F08CBE80
S31500002DB006F0ADBC10B504460521112002F02DFA2F
S31500002DC000220021022002F021FB104910480A6867
S31500002DD002400A600B680F4A02EAC42213430B60E2
S31500002DE04B6818404860486810434860012201213A
S31500002DF0022002F00BFBBDE810400421112002F076
S31500002E000CBA054800680003C00D70472C400E4000
S31500002E10FF07F0FF00F80F0030400E4080B506F0C7
S31500002E2053FD06F05EFD80B202BD80B506F04CFD96
S31500002E3006F057FDFA21B0FBF1F080B202BD80B575
S31500002E4006F042FDBDE8044006F04BBD80B506F035
S31500002E5006FC074800214160001D06F0CBFC20B1AE
S31500002E603A210FF21400FDF765FC002002BD0000B8
S31500002E70C4F2032000F008B873797374656D2D747D
S31500002E80696D65722E6300007047EFF31180602153
S31500002E9081F311887047000080B505F0CEFE05F07D
S31500002EA094FB00906846FEF789FB01BD2DE9F04FC3
S31500002EB087B0044604F039FD8346278800254FF67F
S31500002EC0FF7087426CD0A7EB0B07BFB207F10C006F
S31500002ED0FEF795FC80461EE005F10A097E1B00966A
S31500002EE06A4649464046FEF79AFC8246009810B963
S31500002EF04FF0000A00965046009989B205F095FDFC
S31500002F0049464519BAF1000F08BF0020024640465F
S31500002F10FEF787FCADB2BD42DEDB01A9584605F0DF
S31500002F2094FD0C2000906A4600214046FEF777FC8F
S31500002F30050002D000980C2801D2002226E0DFF816
S31500002F40D0092F81C16801682A7900F007FE29712E
S31500002F508021816028799DF80A2000F0F9FD28710A
S31500002F609DF809002979687101F0FB01A078C00875
S31500002F7000F0010041EA80002871E078A871049809
S31500002F8005F01BFB28600C220020E871002140465A
S31500002F90FEF747FC4046FEF745FC4046FEF73EFC82
S31500002FA007B0BDE8F08F80B5684601F0A5FCDFF8F4
S31500002FB0E8090078400703D50020FEF733FC01BD81
S31500002FC06846FFF773FF01BDDFF8D019802008605F
S31500002FD01020FEF7BFBB2020FEF7BCBB4FF40060FD
S31500002FE0FEF7B8BBDFF80409DFF8282900684FF0C0
S31500002FF08071C001116054BF4FF480604020FEF71D
S31500003000A9BBDFF8B019C968012806D002280AD181
S31500003010C80508D54FF4807003E0880503D54FF442
S315000030200070FEF797BB7047DFF8C01809680020EC
S3150000303009060FD5DFF8E0080068800800F00100F7
S3150000304090F0010006D0DFF87009006800F001007A
S3150000305080F00100704710B5044614F01C0F0AD02A
S31500003060FFF7E2FF38B1DFF8AC18802008601020C7
S31500003070DFF800190860DFF83C090069204205D036
S315000030802040BDE81040C0B2FEF70CBB10BD0220C8
S31500003090FEF760BB0420FEF75DBB0820FEF75ABBB7
S315000030A0DFF8B8090068000E00F00F00FEF74EBC0E
S315000030B03EB50446A00248BFFEF76DFA200328D5A8
S315000030C006F014F928B3DFF8F418DFF8F438486886
S315000030D00968402202FA01F11A68DFF890391B6884
S315000030E0491EC3F38113032B00F1005089B292B23B
S315000030F08DF800300ED100239C18083C0C400DEBD7
S315000031000305045DAC705B1C082BF5DB6846FEF717
S315000031104CFB37BD022BFCD1931E0B40521EC35CE9
S31500003120ADF802301140405C43EA0020ADF80200E1
S31500003130ECE7DFF890286FF0FF011160000ADFF876
S31500003140481900020860704738B50546042004F0A7
S3150000315042FF6802DFF8704811D5272001F0A0F879
S3150000316001202060DFF86418086800F07F40B0F1A5
S31500003170007F1AD1DFF8D8180220086015E0E802AF
S3150000318004D5282001F08CF820200FE0E80410D5A3
S3150000319005F03CF8DFF8F408006810F4A00F08D139
S315000031A02A2001F07DF8012020600420BDE832408D
S315000031B051E731BD4020FEF775BA8020FEF772BA9E
S315000031C080B5DFF8AC180120087106F088F8BDE874
S315000031D00140FEF7B4BB10B5DFF8D847E07800F041
S315000031E0FB00E070206805F08FFA04F056FC2081A1
S315000031F0FFF734F96179002914BFDFF87818DFF892
S3150000320044194FF400100860B4F90800FEF79DFB5E
S315000032106069FFF78EFF0120A07110BD10B504464E
S3150000322006F0EBF96168884201D0012010BD05F077
S3150000323064FBDFF85C08DFF87C471B2181606021B6
S315000032400160207840F007002070A07840F0400030
S31500003250A070FEF762FFC00703D5A07840F0080013
S31500003260A070A07840F01000A0700FF2280005F0C2
S3150000327007FB2068DFF8204705F046FA201D01F01D
S3150000328000FA0020206001F01AFAFEF75DFB00202C
S3150000329010BD0000992E000057300000A72F000037
S315000032A0C92F0000D72F0000E52F000003300000D3
S315000032B00000000000000000DD2F000000000000FC
S315000032C08F300000953000009B30000000000000A9
S315000032D0A130000000000000000000000000000017
S315000032E07D380000B13000000000000049310000C8
S315000032F0B5310000BB310000C1310000D7310000FC
S31500003300F021084201D001207047DFF83C180A6816
S31500003310120900F00F0040EA021037E200230021F4
S315000033200022032807D8DFE800F00302070A01237A
S31500003330184605F0F7BB704701230121F8E7012382
S3150000334001210122F4E7DFF80408006800F070604C
S31500003350B0F1807F18BFB0F1007F1AD0B0F1407F86
S3150000336018BFB0F1806F14D0B0F1A06F18BFB0F1E4
S31500003370E06F0ED0B0F1006F18BFB0F1106F0AD039
S31500003380B0F1206F1CBFB0F1306FB0F1406F02D0CA
S3150000339003E0012070470220704700207047DFF8E5
S315000033A04C050068C00900F0010080F0010070477C
S315000033B070B506F07BF80446032004F0B3FE10B99E
S315000033C004F02DFF18B1204606F074F81BE0DFF874
S315000033D08C060568DFF814050668204606F06AF8CC
S315000033E015F0404F0FD130060DD405F07060B0F1E6
S315000033F0407F18BFB0F1C06F05D0B0F1106F18BF95
S31500003400B0F1406F01D1002070BD012070BD70B5D4
S31500003410044606F04BF80646DFF840060068000E44
S31500003420032500F00F00082818BF072803D0092835
S3150000343018BF0C2804D1DFF8B4040068C00309D40F
S31500003440DFF86C1701200860A2882168002001F0CF
S3150000345057F9002500F0DFBA2DE9F84F0400DFF830
S315000034602C576DD094F90310E08804F031FBA07856
S31500003470217862784FF00109A0F1010A884618B94F
S315000034804FF0000AD146C8469346C34538BFC346E7
S3150000349019B9561EB641F60F00E00026A088DFF8DF
S315000034A00C7704F0D7FE4FF6040136B3034600222C
S315000034B001E04008521C80B2FF28FADC5FFA82FB6A
S315000034C0BBF1000F09D0FF2807DA9BB2A2F1010871
S315000034D023FA08F303F001031818BB6D9BB28B4265
S315000034E008BF5B1C012191402B80491EB9654FF036
S315000034F008088021B967C34604E02A888A421CBFAF
S31500003500BA65298080B2401EFF28A8BFFF20F86256
S315000035105FFA8AF3002000904A465946404604F076
S3150000352036FE56B1DFF88C164FF480100860386806
S3150000353020F4400040F480003860A068686001E034
S3150000354004F04FFE05F039FA6C68ACB1042004F0C3
S31500003550E9FD10B1042004F03EFD204604F07AFE99
S31500003560012200920B460246042004F044FD00F0BE
S31500003570010090F0010401D104F03FFE2046BDE8B1
S31500003580F28F10B584B0B8B30178002904BF417832
S31500003590002931D01CC869461CC110F80C1D0A0050
S315000035A00FD08388BDF8062059438918ADF8061058
S315000035B002789DF80110891A8DF8011000218DF806
S315000035C0001001219DF8012000E0491C01238B40D9
S315000035D09342FAD380888DF800105C0802FB004005
S315000035E0B0FBF3F0ADF804009DF800008DF8010083
S315000035F06846FFF731FF01E0FFF72EFF04B010BD6C
S3150000360004F08ABA70B514461D4639B1DFF8A8250C
S315000036101068800644BF087800F02EFA00262000C5
S3150000362007D02846A047060005D0012000F024FA5E
S3150000363001E005F0DDF9304670BD80B5DFF87C05A8
S315000036400068000608BF01F0F1F8002005F043FA13
S31500003650002002BD012809D00BD3032803D008D2CD
S315000036604FF0C05006E04FF0005003E04FF06050BE
S3150000367000E00020DFF848150A6822F06052104387
S3150000368008604FF40010DFF8EC13DFF83825086007
S31500003690DFF83405016821F0060141F004010160FC
S315000036A04FF0805111600421416100207047DFF81E
S315000036B01C15062008600020DFF8141508604FF07E
S315000036C08050DFF8101508604FF40011DFF874041D
S315000036D001604FF06051016000207047DFF8F81478
S315000036E01B2008607047DFF8F01400200860704760
S315000036F010B5040904F00104DFF8B8124A7843084B
S3150000370002F0F70203F0010342EAC302830802F063
S31500003710EF0203F0010342EA0312C30802F0DF02DC
S3150000372003F0010342EA43120B784A7003F0F703F1
S3150000373043EAC403440903F0EF0304F0010443EA37
S315000037400413840A03F0DF0304F0010443EA44137C
S315000037500B7010F4407403F0BF0318BF012443EA52
S3150000376084130B7002F0FD02C30A03F0010342EA60
S3150000377043024A7000F00103DFF86044227802F049
S31500003780F70242EAC3022270C86029E008600020FE
S31500003790704710B58749804C8A7802F07F0283090A
S315000037A042EAC31242F040028A70C309CA7802F0A4
S315000037B0FE0203F001031A43CA7010F01B030A78D5
S315000037C002F0FD0218BF012342EA43020A7000F02C
S315000037D00103227802F0FD0242EA430222700861E8
S315000037E0086804F091FF206800F069FF002010BD12
S315000037F0C00747BF0220DFF8E8130220DFF8E41312
S31500003800C4E7F8B50C0018BF01240229064603D107
S3150000381000F024F80020F2BD05F048FEDFF85072F3
S315000038200546F87840F00200F870386804F06CFF3E
S3150000383000203871304604F00DFD224605F047FDA4
S315000038400446284605F036FE84F00100F2BD80B538
S3150000385005F048FDBDE8044004F0E8BC80B505F07D
S315000038603EFDDFF80C02C17801F0FD01C170BDE834
S315000038700240006804F048BF04F0ECB80120FEF7EF
S315000038802BBC406806F020B938B504460D46E8075B
S3150000389048BF06F0F3FCE8030BD5206810F1010FD2
S315000038A003D106F088F9206031BDBDE8324006F04C
S315000038B0E4B931BD10B5454A1368012410309BB2F6
S315000038C004FA00F01831184309E010B53F4A1368AE
S315000038D001241B0C04FA00F0083140EA034004FA04
S315000038E001F108431060002010BD00008840084028
S315000038F038B5FEF7AFFEDFF8F8520446286820B167
S31500003900FEF7EFFD2A6801219047204632BD0000F0
S3150000391060000840884008440C500840F8B504464A
S315000039200D461646FEF7E0FD01281FD0FFF740FDC5
S315000039304A4F18B1386810F0706FF7D1386810F038
S31500003940706F01D00220F2BDDFF8A40202681000F9
S3150000395002D00021204690471EB16968A86804F08D
S3150000396085F92888201AC0B205F0D9F80020F2BDE2
S31500003970000000000040084410B505F097FDDFF890
S3150000398038120C6844F02002FFE70A6005F092FD49
S31500003990600900F0010010BD54DF032068000840F4
S315000039A080B5C08804F056FCDFF84822404210601B
S315000039B0002002BD3CDF0320305108403010084093
S315000039C0081F00211870084428100840101F002105
S315000039D070B5044605F06AFD0646DFF81C120220A3
S315000039E0086003251D480068000E00F00F00082837
S315000039F018BF072803D0092818BF0C2804D1DFF800
S31500003A00FC010068800304D42179206800F0EBFEF5
S31500003A10002500F025F8304605F04CFD284670BD1F
S31500003A2080B505F043FD00F00FF842F0080206E00D
S31500003A3080B505F03BFD00F007F822F008020A60A9
S31500003A40BDE8024005F036BD5B490A6870470000D4
S31500003A5000400846584908681CE000000440084039
S31500003A606749022008607047000000008C4008404B
S31500003A703CDF03201860084600280CBF5E486048FB
S31500003A804FF4807101607047187008465C5008401A
S31500003A9044000840C00800F00100704780B50020CF
S31500003AA000F08EFEBDE80240FDF752BF0120FDF793
S31500003AB0F9BD80B5012000F08EFEBDE80240FDF79D
S31500003AC046BF0120FDF746BE38B50446A078E1782A
S31500003AD0884201D0012032BD6078010002D1FFF793
S31500003AE0E6FD01E0FFF7B6FD3C4DA178287819B94F
S31500003AF000F0FE00287004E040F00100287000F09D
S31500003B0037F82878E17851B900F0FB00287060207A
S31500003B103349086040203A49086000200BE040F035
S31500003B200400287060202F49086000F031F83249FF
S31500003B30402008600120FFF75BFE286800F0BFFD0B
S31500003B40002032BD18600844681F00210440084068
S31500003B5000F0FE0002B1012210437047C90901F0CE
S31500003B60010181F0010102F0FD0242EA41017047C4
S31500003B701E490420086001200D4908604FF40050DA
S31500003B802049086004200EE00000000068DF0320E2
S31500003B9016491D4A4FF480600860012111604FF4F8
S31500003BA000511A4A116010490860704700500840D9
S31500003BB0281008404C500846041F002100400840C9
S31500003BC01860084094400846700008407000084499
S31500003BD084000840944008444C00084054DF032009
S31500003BE04400084644000844EC100846EC1008441B
S31500003BF09CFB03200C1F0021884008468840084093
S31500003C0088400844241008445810084054100844BA
S31500003C1080F311887047000070B5054655480C467C
S31500003C2082B001884FF6FF76ADF8006002237F224E
S31500003C30684606F055FBBDF80000B04205D0288066
S31500003C40BDF800002080012076BD002076BD00B5BD
S31500003C5087B001A80FF2D4111422FEF78BFC694637
S31500003C600DF10200FFF7D8FF38B1BDF80200ADF83C
S31500003C700800BDF80000ADF80A0001A801F071FBCC
S31500003C8001220121022001F0C1FB3B4805F0B8FCEE
S31500003C900421112001F0C1FA00220021032001F0C5
S31500003CA0B5FB07B000BD10B534498CB001200860E3
S31500003CB0334934480068000E08D14AF6E852CA6211
S31500003CC04A6B42F004024A630022CA62022803DAFF
S31500003CD0086840F40050086002AC2B48016821F4E3
S31500003CE0401141F4881101602848016841F480714F
S31500003CF001600FF24C1000F051F8FFF7A8FF012207
S31500003D000121012001F082FB0321214801F085FAFF
S31500003D100321204801F081FA01211F4801F038F9FA
S31500003D2006F020FB06F060FB06A80FF22411142211
S31500003D30FEF720FC06A800F045FA0FF2281000F066
S31500003D402DF805F07AFD06F076FCFDF799FE0FF2E8
S31500003D502410D0E90023CDE9002301208DF80300CB
S31500003D60684606F0EFFC06F051FFFFF76FF80CB05F
S31500003D7010BD00000EE5030000F0490210300E40B1
S31500003D8064310E40FC81E00F20400E4000000E40E2
S31500003D9002001A0003001C00002508000FC884E872
S31500003DA00F0002A806F078BD40F20160FEF74EB89B
S31500003DB080B500210020FEF766FABDE80140FEF757
S31500003DC0CEBAFEF7CDBA002818BF01F039B801F017
S31500003DD038B880B506F067FF01460FF2A0000C293F
S31500003DE038BF00EB810002BD10B506F05CFF04464B
S31500003DF006F05DFFC0B208B9012C07D1072C11D817
S31500003E00DFE804F004100608080A0C0E002010BDB6
S31500003E10092010BD022010BD032010BD0B2010BDCF
S31500003E20062010BD44F0800010BD00000000000018
S31500003E30A00042010A200706020A0407000000004B
S31500003E40000108070F000A00C8002000A0000100BA
S31500003E5001000000006A180006010C0000000601BF
S31500003E600D000000000108070F000A00C80020002E
S31500003E70A00001000000000000000000554E4B00AD
S31500003E804649420042544C0045585400505752008F
S31500003E9057444700205357004352530046534800A7
S31500003EA042414400464C540042524F0070B588B01F
S31500003EB0044606F019FF607800F061F8207800F0FB
S31500003EC06AF8A07800F073F8E0788DF80400A0880E
S31500003ED0ADF80600E088ADF808002089ADF80A00C4
S31500003EE001A8FEF74DFA050002D106F077FF054658
S31500003EF0FEF7E2F80020ADF8020003AE0FF2CC00A8
S31500003F000088ADF800000FF2C8000FC886E80F0061
S31500003F100DF102000490CDF814D003A8FEF79FF827
S31500003F20064606F0EBFE064208BF0125FEF7C2F87C
S31500003F30E06800F00CF8284608B070BD80B50FF2B6
S31500003F40A000FEF74FF8BDE8014006F0D1BE38B537
S31500003F50040001D1002032BD208806F0E1FE0546AE
S31500003F60608806F0E3FE0543606806F0EDFE284330
S31500003F7032BD06F0D5BE06F0D9BE06F0E5BE10B5D8
S31500003F80044606F0B3FE08B9022010BD2046BDE87F
S31500003F90104006F0EABE10B5044606F0A7FE08B9C2
S31500003FA0022010BD2046BDE8104006F0D1BE10B577
S31500003FB0044606F09BFE08B9022010BD2046BDE867
S31500003FC0104006F0E3BE06F0ECBE0000020800005A
S31500003FD002000000000000000000000000000000D9
S31500003FE02CDC03000100000010B5144C207858B9F1
S31500003FF01348018808237F22201D00F027F8201D82
S3150000400000F011F80120207010BD10B50B4C0146D0
S315000040100822201D01F0CAFC201D00F004F8012032
S31500004020207010BD074880B501460822064801F0F9
S31500004030BDFCBDE80140FDF79FB9000028F603204E
S3150000404010E503002CF6032034F6032030B50446B1
S315000040507F2A08BF00224BF23460814283B041F2CE
S31500004060F01519D108237F2241F202016846FFF7B5
S31500004070EDFF08220FF24411684601F000FD28B951
S3150000408008237F2229466846FFF7E0FF0822694693
S31500004090204601F08BFC37BDA94211D1404801688A
S315000040A0406821700A0A627020710A0C090EE170DC
S315000040B0A270010A6171010C000EA171E07137BD99
S315000040C012FB03F001F47042B2F5805FC1F30B05F9
S315000040D003D11A4645F07E610CE0B2F5005F1CBFC5
S315000040E001F47041B1F5405F08D145F07C611A4694
S315000040F041F401114118204601F058FC37BD2DE965
S31500004100F84307460024F807884615466FF00F0661
S315000041100FF29C0902D5542100F046F8E80702D5B3
S31500004120552100F041F807F47041B1F5805FC7F3FF
S315000041300B000CD140F07E64B4F17E6F264604D3AA
S315000041402819401E1749884210D35A210CE0B1F5B0
S31500004150005F18BFB1F5405F05D140F07C6444F4C0
S315000041600114264602E0612100F01EF8002706E051
S31500004170F05DFF2802D06B2100F016F87F1CAF42DD
S31500004180F6D36A084146204606F08AFE28B148461C
S31500004190BDE8F4437421FCF7CDBABDE8F183000015
S315000041A0F081E00F0008E00F4846FCF7C3BA0000B4
S315000041B06D66672D746F6B656E2E6300FFFFFFFFE4
S315000041C0FFFFFFFF10B5040030D00121384806F08C
S315000041D08FFE0121374800F0DBFE374960684860F2
S315000041E0F82236488260227AE37A42EA0322A37BE7
S315000041F042EA034242602278130018D102220A6082
S31500004200072101600023617B207B042206F03FFF2B
S31500004210217CE07B0023042206F039FFA17A607A34
S31500004220BDE810400123042206F031BF10BD012A6B
S3150000423003D10A6005210160EAE7022A04D10522BA
S315000042400A6001210160E9E7032AE7D100220A603A
S31500004250026010BD70B51A4C174E256871680020B3
S3150000426049B1134806F063FE716800EB5100B0FBDC
S31500004270F1F0401E0002134A4FF080411160124ACD
S3150000428031682A4011430843206070BD0C4801681C
S315000042908908890001604FF080400C49086070472A
S315000042A00B490968002944BF0A49086070470000A5
S315000042B00034060000350800BCF2032074000840F4
S315000042C07C00084094400846FC00FFFF94400844E8
S315000042D0944008408000084038B504466048614D67
S315000042E0002912BF00210178491C0170012001211B
S315000042F006F014FF2878411C89B2032006F00EFF51
S31500004300200003D0FDF746FF002808D5FDF742FF41
S3150000431040054CBF032001200021FDF792FF5248C3
S3150000432044702846BDE8384001224FF47A71FEF702
S315000043302FBD80B5FCF7ACFEBDE80240312007F08A
S3150000434044B838B50446402C154606D1FDF722FF81
S3150000435000F08020B0F1004F03D000210020FDF7CF
S3150000436070FF002C3AD0402C24D0882C18BF892C02
S3150000437038D08C2C38D08D2C2DD08F2C39D13B4871
S31500004380007804280FD155B13949022008704CF243
S315000043905032BDE838403749002000F093BCFCF7A6
S315000043A077FE312021E0FCF773FE002D0CBF312093
S315000043B000201AE0FCF76CFE07F0CBF828482E49DF
S315000043C000780978884204D2BDE8344000210120F3
S315000043D082E7402009E0FEF7DDFC03E0FCF758FE2B
S315000043E0002002E0FCF754FE8D20BDE8324006F0C6
S315000043F0ECBFBDE83440B62145E01D4800780228F0
S3150000440000D0704780B51D480078012807D00328E2
S3150000441010D11B480078022818BF7C280AD11549FC
S31500004420002000F08DFCFCF733FEBDE802400020C2
S3150000443006F0CBBF01BD38B5FEF727FD05460C4893
S315000044400078002410B9FCF784FA04462846FFF7E2
S31500004450DFFB1CB1BDE8314000F0ACBC31BD000053
S3150000446060FD03209AFC0320C0DE0320F4DF032056
S315000044705AFD032033430000FADF032061FD0320C9
S3150000448062FD0320EB210FF20800FCF753B9000090
S315000044906D61632D7068792E63000000012100F0C4
S315000044A01F029140DFF8E023400942F820107047D0
S315000044B0890001EB401000F184400068704710B598
S315000044C00446FFF7EBFF012004F01F018840DFF8E8
S315000044D0BC13620941F8220010BD2DE9F047DFF850
S315000044E0B073DFF8B083F86DB96EDFF8ACA3DFF810
S315000044F0AC53DFF8AC6301EA000460077C664FF456
S3150000450000590FD53078C0070CD50D212846FFF786
S31500004510CFFF28B1CAF80090B0680068804701E074
S31500004520C8F80090600505D53078400702D5B06818
S315000045308068804760031AD50D213846FFF7B8FF1B
S3150000454030B1DFF8601310200860CAF860900EE002
S31500004550DFF85403DFF8542310210160116031792C
S3150000456019B10021317140210160C8F86090DFF86F
S315000045704003044209D000F059F9A00505D530786A
S31500004580000702D5B068C068804714F0090FDFF84D
S3150000459024730BD02020386001206860E00705D521
S315000045A03078800702D5B0684068804714F0106FF5
S315000045B005D0202038600021BDE8F04727E1BDE89E
S315000045C0F08730B53025BC4C68432044016042601A
S315000045D003991943416230BD38B50020009040F67A
S315000045E0FF75B64C2B46224603210120FFF7E9FF53
S315000045F0002000902B464FF4007022180321002063
S31500004600FFF7DFFF0020009003234FF4806022189D
S3150000461000210220FFF7D5FF4FF400500090002341
S315000046204FF48860221800210320FFF7CAFF0021FB
S31500004630002003F096F90021012003F092F90121F0
S31500004640022003F08EF90121032003F08AF99C4928
S31500004650F0200860A0209B49086003209A4903F0D7
S3150000466036F90820FFF72BFF984901200860984982
S31500004670086000F0DBF8BDE832400FF2A8200068C1
S315000046801DE010B504460820FFF708FF91494FF4D6
S31500004690807008600022824884602146C26051B161
S315000046A051F8223023B1C368012494402343C360E8
S315000046B0521C042AF4D3BDE810400820FFE611B5C9
S315000046C077480099C268844C1140009100990160B6
S315000046D082489DF80010C9079DF8001048BF804821
S315000046E0490780494A6848BF40F4806082EA00036F
S315000046F01A4022600A60184008607B49086011BDB4
S3150000470002B9704710B46C4B00EB400403EB041085
S31500004710D31DDB0802F00702072A1FD8DFE802F0E4
S3150000472004191613100D0A0711F8012B826111F8EE
S31500004730012B826111F8012B826111F8012B826134
S3150000474011F8012B826111F8012B826111F8012BFE
S3150000475082615B1E11F8012B8261E5D110BC7047A6
S3150000476002B9704710B4544B00EB400403EB04103D
S31500004770D31DDB0802F00702072A1FD8DFE802F084
S3150000478004191613100D0A07426901F8012B426934
S3150000479001F8012B426901F8012B426901F8012B4E
S315000047A0426901F8012B426901F8012B426901F8BF
S315000047B0012B5B1E426901F8012BE5D110BC704745
S315000047C030223D4950430844006AC0F30C00C0F54E
S315000047D0007080B270473022374950430844006A5F
S315000047E0C0F30C007047F8B50446394E012030601E
S315000047F00D4604F05BFE07462A4621460320FFF7D6
S315000048007FFF384604F056FE04203060F1BD0020DC
S31500004810E9E73649002248600A8018B132494FF468
S3150000482080600860704731484068704780B504F082
S315000048303DFE2E4A0021118001222D490A600A639D
S3150000484010212C4A1160BDE8024004F033BE0A462E
S315000048500146012084E710B582B0044604E0012138
S315000048606846FFF7F4FF641EA0B20028F7D113BD17
S3150000487080B50220FFF7AFFF04288041C043C00F78
S3150000488002BD0120A7E7000080E200E000E100E0B1
S3150000489084100840241008462410084424100840B8
S315000048A084FB03206C000844640008406C00084642
S315000048B0000A0A00084008400010084004F70320D8
S315000048C04000084440000846DB4400002810084029
S315000048D0B810084080E100E0EC100844090A0E090F
S315000048E00D0A0E09E8100840EC100846FCF60320F5
S315000048F0581008406800084010B50446FFF7B8FF96
S3150000490028B94FF6FF7020800020A07010BD042249
S3150000491021460220FFF724FF2088C0F308002080EC
S3150000492010BD000000000000F8B5274D2E680400F9
S3150000493001D1FF20F2BDFEF7A8FA244F29683A7884
S3150000494021F8124036F8021BA142FBD1FFF760F9AD
S3150000495029683A78B01E401A4010C1B2914208BF89
S31500004960FF20C0B2F2BD2DE9F843194C174D266859
S315000049708146287806EBC007FEF787FA80460822AC
S315000049804946384601F012F8F88800E00836F18802
S31500004990814202BF31883A889142F7D171887A887C
S315000049A0914202BFB188BA889142EFD14046FFF7E3
S315000049B02FF920682A78301AC010C1B2914208BF78
S315000049C0FF20C0B2BDE8F283C0DB0320EDDF032089
S315000049D0C4DB032070B504469E480D460178164692
S315000049E019B14188491C418070BD204606F0B8FDCA
S315000049F080B1FCF7BAFC38B1A078002E14BF40F0A5
S31500004A00010000F0FE00A07029462046BDE8704077
S31500004A102E2200E070BD70B504460D461646601C99
S31500004A2001F040F810F0070F1ABF41F6490188421D
S31500004A3000260121002006F071FB2078411C89B276
S31500004A40022006F06BFB32462946204601F012FE94
S31500004A5018B1BDE8704007F075B87E488188491CDA
S31500004A60818070BD2DE9F04FA3B001F04DFE794D68
S31500004A700FF2FC1B81466888010009D000908B224A
S31500004A800FF200235946072007F023FE0020688016
S31500004A90A98808000DD00D2006F040FBA8880FF26B
S31500004AA0F013009091225946072007F012FE0020CD
S31500004AB0A8805FEA09003AD001F039FC0746781C65
S31500004AC03E7800F0EFFF10F0070F1BBF41F64901DB
S31500004AD0884200242E24484601F040FC38446142B6
S31500004AE00844A0F10801082201A800F05FFF0DF1BB
S31500004AF0040A9AF80300FCF7ECF83146FCF7EAF8EA
S31500004B00044655489AF902A0007888B1A86800289A
S31500004B100DD000200090731CDBB20022494603A88A
S31500004B2001F00EFEAB685246214603A898478EE078
S31500004B30484608F0FBF80028F9D00521484601F060
S31500004B4045FE80460320FDF714F8444E444908F01C
S31500004B5007003070FF2008707C7087F802A09DF86F
S31500004B600400F870484608F0A6FD0328484602D11E
S31500004B700AF078F96BE008F08FFD00F005000428D4
S31500004B8007D03078032804D1484606F05EFC00289A
S31500004B905DD107F034F818B107F031F8012802D1D9
S31500004BA03078002853D1EA68100004D00021484626
S31500004BB0904700284BD12B4D2878032818BF04288E
S31500004BC005D0022829D128480078C00725D407F047
S31500004BD016F8032821D1484608F025FEB0F5004F07
S31500004BE01BD1484608F042FE20490988814214D06C
S31500004BF0484608F051FD00070FD4484608F04CFD22
S31500004C00400602D53078012807D00FF28C03EB223C
S31500004C105946072007F05DFD19E02878042804D1DD
S31500004C205FEAC86048BF06F0F1FA307820B1012883
S31500004C300AD0032804D00AE0484609F055FB06E0EE
S31500004C4048460BF023F902E048460BF06DF923B015
S31500004C50BDE8F08F68F60320DFF1032061FD032035
S31500004C6062FD03204EF6032052F603209EDD03204C
S31500004C7069702D6D61632D726563656976652E6356
S31500004C8000000000666C6167207825750000000052
S31500004C906D656D20782575006E6F742066726F6D78
S31500004CA020706172656E740010B53C4A014652F878
S31500004CB021301C0005D0002442F82140BDE81040F8
S31500004CC0184710BD2DE9F84304460E463000154638
S31500004CD003D1FDF7A9F928182DE02746022F0FF278
S31500004CE0C40802DB452100F028F8DFF8B09059F837
S31500004CF0270010B1462100F020F8B5F1004F02D38D
S31500004D00472100F01AF849F82760200002D04A210E
S31500004D1000F013F801212846FEF773FD38B1FDF7C0
S31500004D2083F905462046FFF7BFFF681E03E0BDE88E
S31500004D30F143FEF78CBDBDE8F2834046FBF7FABCB3
S31500004D402DE9F04104462646022E0D460FF2540781
S31500004D5003DB57213846FBF7EDFCFEF796F8804655
S31500004D600E4850F82610A94209D1002140F8261015
S31500004D701CB160213846FBF7DDFCFEF76FFD4046AF
S31500004D80BDE8F041FEF744BF0CF01DBB010008BFB3
S31500004D90012002010249002094E70000B0FB032035
S31500004DA0894D000073796D626F6C2D74696D657243
S31500004DB02E630000FBF7A0BE70B5044643380FF221
S31500004DC0880508D0401E012809D9801E01280ED961
S31500004DD0C01F31D02AE0BDE870400DF0C4B80DF018
S31500004DE09AF820B10DF0BFF80028FBD170BD134E24
S31500004DF0307808BB0120307000200DF02DF9442CCE
S31500004E0011D00CD3462C05D00DD3472C07D140F634
S31500004E10010001E040F60200FDF718F803E07221F8
S31500004E202846FBF787FC0020307070BD2846BDE899
S31500004E3070408421FBF77EBC70BD00004BFD032053
S31500004E407047704700000000656D6265722D6261F3
S31500004E5073652D636F6E66696775726174696F6ECF
S31500004E602E630000890001EB401000F184400260CF
S31500004E707047890001EB401000F1844000687047DC
S31500004E8000F1806300F1C06019600260704710B5E0
S31500004E908142A441E20F1021DFF86005FFF7E2FF2F
S31500004EA0E20FBDE810401821DFF87807DAE7DFF8EF
S31500004EB05015CA6B02B1012241F67133CB630B6800
S31500004EC0DFF84035984228BF4FF0007009D2DFF86E
S31500004ED038351818DFF87837984234BF4FF08070AD
S31500004EE000200B6823F0407318430860D2B20AB161
S31500004EF00020C8637047C01C0F2801D20007704706
S31500004F004FF070407047000038B50446002500F0A9
S31500004F103DF9DFF82C26DFF8E815944208D0DFF8D3
S31500004F202426944206D0DFF82026944204D006E0D8
S31500004F30086802E0486800E0886800F00700401E44
S31500004F40032819D8DFE800F002050C0804F076FB08
S31500004F5004E004F077FB01E004F071FB05460BE08A
S31500004F60DFF8F0060068C00103D504F01FFB8508D2
S31500004F7002E004F01BFB4508284632BDDFF8A81600
S31500004F804A68D20702D40A680242FCD17047000080
S31500004F9070B502120C4602F00F020021521E092AB9
S31500004FA0DFF8B85614D8DFE802F005141313071615
S31500004FB019131C20DFF84454C0F3043611B1084617
S31500004FC0FFF7DCFF224631462846BDE8704049E738
S31500004FD070BD1035F0E730350121EDE73835102189
S31500004FE0EAE740354FF48031E6E7DFF87456E3E749
S31500004FF070B5DFF83816DFF86C460E68DFF8402526
S31500005000DFF84015012510F4781072D0B0F5003F96
S315000050102DD0B0F5802F24D0B0F5002F69D0B0F593
S31500005020202F2AD0B0F5402F5BD0B0F5602F65D089
S31500005030B0F5901F50D0B0F5A01F27D0B0F5B01F27
S3150000504036D0B0F5D01F1FD0B0F5E01F2ED0B0F58A
S31500005050001F41D0B0F5281F1FD0B0F5301F2ED04D
S315000050604BE004F0B2FA6168C1F308210AE004F0EB
S31500005070ACFA2168C1F3082104E004F0A6FAE1685D
S31500005080C1F30421491C24E0104627E01046FFF72F
S315000050903BFFA16901F00F0119E01046FFF734FF4D
S315000050A00646A069C0F30110C64027E0084615E091
S315000050B00846FFF729FF216AC1F3011107E00846F8
S315000050C0FFF722FF216A090A01F00301091D05FA0B
S315000050D001F1B0FBF1F611E0DFF86C04FFF714FF05
S315000050E009E0DFF8840500F051F8072806D0082803
S315000050F003D104F06AFA064600E00026304670BD89
S31500005100031103F00F0301215B1E072BDFF81425A3
S315000051103AD8DFE803F004060A0E101423391068A3
S3150000512000E05069C0F3042070471068C0F30060C7
S315000051307047D06800E09068C0F308207047DFF839
S315000051402C35984204D0DFF82835984204D01BE06D
S31500005150106A00F00F0013E0106A09E0DFF814355A
S31500005160984204D0DFF81035984204D00CE0906ADB
S31500005170C0F3011004E0906A000A00F00300001D6D
S3150000518001FA00F0401E70470020704700F00F0043
S315000051900121401E0528DFF8EC243BD8DFE800F0AB
S315000051A00311153A2230506A00F00700022804D095
S315000051B005D3042807D01FD301E004212BE00521E5
S315000051C029E010690FE0022125E0506900F0070090
S315000051D0401E03281FD8DFE800F00F020311F2E794
S315000051E0062118E0906900F00700012804D0022883
S315000051F0E9D0042802D00EE003210CE009210AE0E0
S31500005200106810F0010003D0012804D1082102E043
S31500005210072100E00021084670472DE9F84F834634
S3150000522000250327BBF1110F0C46B84612D1042CFA
S3150000523002D104F0E2F908E0052C0BD1DFF84804AE
S31500005240DFF848140068884204DB05001CBF002113
S3150000525005F056FA0BF00F000128DFF8A091DFF8F1
S3150000526080A3DFF89C6206D0022844D0032841D0F0
S3150000527005283DD04CE0022CDFF8040406D0032CB0
S315000052802BD0042C2CD0052C30D04BE004274FF02B
S31500005290000801220121404600F0B8F804F093F915
S315000052A0FFF705FE35B11221DFF8E403FFF7E1FD54
S315000052B00028F8D1C9F87470DFF8C003FFF798FE2C
S315000052C05146FFF7E4FD04F071F9FFF7F0FDFDB973
S315000052D00121002005F014FA1AE04FF00108D8E782
S315000052E00227B8465146FFF7D2FDD2E70127F9E774
S315000052F0083600E0361D012C08D0022C14D0032CF1
S3150000530019D0062C1ED0092C29D00BE000203060C5
S31500005310102100F0F8F8BDE8F44F1821DFF8040377
S31500005320FFF7A7BDBDE8F18F01220121002000F0A3
S315000053306DF80220EBE701220121012000F066F85A
S315000053400120E4E704F032F95146FFF7A0FD0122FF
S315000053500221DFF80803FFF785FD0320D7E70420C5
S31500005360D5E710B500F046F8DFF8300300680122F3
S315000053700021022000F04AF8207C00220228207832
S3150000538008BF012208B142F4807240F20111DFF831
S315000053900803FFF775FDA088617A41EAC022DFF8AD
S315000053A00013DFF80003FFF76BFD207AFFF7A3FD7C
S315000053B0227AE188D20142EAC121A27A114340EA67
S315000053C001026FF07F61DFF8E002FFF759FD617BB4
S315000053D0207B090341EA0040A17B40EA0110E17B02
S315000053E0BDE8104041EA0002DFF8C012DFF8C00253
S315000053F0FFF746BD04461120C8E6000000400E40F7
S3150000540004000E40015A62027F4573FE2DE9F84FF3
S3150000541004288246904670D8DFE800F04B463C03ED
S31500005420410001260220012700240029DFF82892E6
S31500005430994D5DD0BAF1020F04BF286810F0300F05
S315000054404FF0000B0AD12868C0074FF0010B05D5B5
S31500005450286820F0300040F010002860EE6300F06D
S3150000546051F80028FBD0B8F1000F46D0394600F0BD
S315000054704AF80028FAD0BAF1020F3ED1BBF1000F6C
S315000054803BD02868C0071BD501222021022000F04E
S31500005490CFF819E00426082003270224C5E71026C2
S315000054A0202005270424C0E740268020072706245D
S315000054B0BBE74FF480764FF4007009270824B4E761
S315000054C00021022000F08EF8022000F01FF80446AA
S315000054D0012200210220FFF799FF2146022000F059
S315000054E035F8EE63394600F00EF80028FAD004E0ED
S315000054F0E86300F007F80028FBD1BDE8F18F000053
S3150000550080400E4021464846FFF7B3BC401E0328A4
S31500005510604912D8DFE800F0020C06080869C0F3FB
S3150000552008007047086800E0886800F07F00704750
S3150000553060480068C0F30A0070470020704700000A
S3150000554002001A0003001C000500200070B5401E72
S315000055500C46032804F07F014E4D334E3FD8DFE85A
S3150000556000F0022A101DC4F308041A213046FFF782
S3150000557080FC0028F9D12869400A44EA40202861C5
S3150000558070BD0C4618213046FFF773FC0028F9D190
S315000055902868C00944EAC010286070BD0C4619216D
S315000055A03046FFF766FC0028F9D1A868C00944EA2E
S315000055B0C010A86070BD3C4E306E686920F03000A7
S315000055C040F010006861C4F3C310FFF794FC40EA92
S315000055D004023046BDE870403749FFF751BC70BD44
S315000055E00048E8012C48026812F0300F18BF002965
S315000055F007D0202902D0302903D005E04FF400015E
