S01600007468726561642D746573742D6170702E7333370B
S3150800000030610020E1170308410C0308450C03087A
S31508000010A70B0000000000000000FFFF54000008C6
S31508000020040D0300000000000000000000000000AE
S3150800003000000000000000000000000000000000B2
S315080000400000000000000000000000008C00000016
S315080000500000000030610020E1170308410C030886
S31508000060450C0308A70A090100020008040D03ACA1
S3150800007010228C00000000000000000000000000B4
S315080000800000000000000000000000000000000062
S31508000090000000000000000000000000FFFFFFFF56
S315080000A0FFFFFFFFFFFFFFFF00E00708000000005B
S315080000B000000000FFFFFFFFFFFFFFFFFF0000003B
S315080000C00000000000000000000000000000000022
S315080000D000000000F07F002000000000EE7F0020F6
S315080000E0EE7F002030610020F85E03080C2203082A
S315080000F058520020401F00200000080800800020F9
S3150800020030610020E1170308410C0308450C030878
S315080002104D0C0308490C0308510C0308C80C0308C5
S31508000220C80C0308C80C0308C80C0308C80C030844
S31508000230550C0308C80C0308C80C0308AB0D0008C6
S31508000240090C0308C80C03084F4D0008C80C03081E
S315080002503D530208D7500008C80C0308C80C030809
S31508000260213F0008E31C00085B170008A5020008E8
S31508000270C80C03085F4C0008A74C0008CB100308FD
S3150800028071F80008C80C0308C80C03082D0F0308EA
S31508000290012100F01F029140314A400942F820101E
S315080002A07047000070B52F4C2F4D607829684907B4
S315080002B027D5032825DAA18804EB4002918101217C
S315080002C0A27801FA00F01043A070284A2078002886
S315080002D012D0002320FA03F6F60708D59940637072
S315080002E04840207004EB4300808A106009E05B1CDC
S315080002F0DBB2032BEEDB04E0106000F091F803207C
S3150800030060704FF6FF702860BFF35F8F70BD80B5D1
S315080003101448002101700022032141700021C17098
S315080003200521018100218170001D10490A604A607B
S315080003304FF400428A601022CA6048610120886131
S315080003400320C8600421084801644FF6FF71016064
S315080003500B20FFF79DFFBDE8014000F09FB80000A5
S3150800036000E100E0686A002010A8004004E00040B0
S3150800037000F0FFBB2248012181604EF6BE21416094
S315080003800121016070471F49012008607047A528B0
S3150800039005D11B484DF6AD614160022101607047E9
S315080003A01748006810F0010018BF0120704780B593
S315080003B01549164A102008601549164800780300A2
S315080003C00BD003280CBF00200120106040F6510016
S315080003D00860002000F046FE06E0022010604FF498
S315080003E00060086000F08BFB0B48072101600021C4
S315080003F00164102009490860002002BD00000000C1
S31508000400006000400860004080E100E0080000400D
S315080004100C600040B47F002014A0004000E100E01A
S3150800042070477047DFF8F43433F810001040C840BE
S31508000430704730B50FF2A454DFF8E43434F81040AE
S315080004409C601140DFF8D44434F810509543294392
S31508000450D96002221A6000221A6024F8101058681F
S315080004600028FCD130BDDFF8BC24DFF8BC041278C4
S31508000470DFF8B8140AB149780EE0895611F1090F68
S31508000480B8BF302108DBC16D39B1C26D40F24A31BF
S31508000490B1FBF2F189B2C91E01607047E0B5DFF819
S315080004A0900401880A2300F065F8BDF806104FF697
S315080004B0FF720D20FFF7BDFF07BDF8B50546B5F578
S315080004C0004FDFF868441AD1DFF868040188022370
S315080004D000F050F8BDF80000000AFF2801D001001E
S315080004E000D118206070BDF800000006C00E102864
S315080004F01CBF001D00F09FF9BDF80000C543DFF8DA
S315080005002464707808B1002005E0A089ADB268407F
S31508000510C00701D501207070DFF81C04A58105F01D
S315080005200104016841F4004101604FF440520FF2A2
S31508000530D04000EB4400C5F340074078010389B278
S315080005400220FFF776FF204600F0CCFD4022B901D5
S3150800055000F00EFA2D06A80E00F0010038433070A0
S31508000560FFF781FF707818B1FFF798FF00207070C9
S315080005700020F2BD7F22684600F028BE2DE9F04F24
S31508000580DFF8BC43DFF8B473207887B004230490FF
S315080005900D210B38C0B203906846039A00F0D4FECA
S315080005A09DF800008DF80A009DF801008DF80900F5
S315080005B09DF802008DF808009DF803008DF80500E7
S315080005C0DFF880030078012806BF607880F001050F
S315080005D0012501F0C3F982469DF9020003990AF143
S315080005E00A06AAF10A09B042B6BF81454FF00108CA
S315080005F04FF0000801208840ADF806009DF801007C
S31508000600000604D47888BDF80610084201D04FF0D9
S31508000610010801F03BFA9DF8030000060AD4B888E1
S31508000620BDF80610084205D19DF90000B042B8BFD2
S31508000630814502DB4FF0010901E04FF0000948EA65
S31508000640050059EA000000F0A680DFF8FCB2BF49B1
S31508000650DBF80000BE4E400800F001008DF80400EB
S31508000660BC48006800F4E06005904FF4E06008605C
S31508000670002001F0D1FD00F001FCADB1607858B161
S31508000680DBF80000AF4940084000CBF80000012025
S31508000690087000F0D8FC07E0306840F4005030607D
S315080006A0306820F480503060A6480078012812D1BE
S315080006B061780D4203D101F0E7FD01F001FFDBF897
S315080006C00000A04940F00100CBF8000000200870A7
S315080006D0642000F0B8FC607880F00100054203D081
S315080006E00498C0B201F09FFF607838B1306820F4F2
S315080006F080503060306840F400503060BDF8060025
S31508000700C543B8F1000F08D002F078F88DF801005B
S315080007108DF802A0788828407880B9F1000F08D0B3
S3150800072002F01DF98DF803008DF800A0B88828405E
S31508000730B8809DF900009DF90A10884202BF9DF80D
S3150800074001009DF8091088420BD19DF902009DF918
S315080007500810884202BF9DF803009DF805108842DC
S3150800076006D0039904236A46C9B20D2000F0FCFDA1
S3150800077005987849086000F02DFE9DF8040001F000
S315080007804BFD02F00CFA607828B148F260703060D0
S31508000790642000F058FC9DF8010001F09BFF9DF8CD
S315080007A0030002F0D7F807B0BDE8F08F80B501F076
S315080007B0C8F8BDE80140E1E601F0C3B870B50646E1
S315080007C001F08CFC0546A6F10B001028A6F10B04D7
S315080007D001D38A2070BD60488168090702D4006881
S315080007E0C00701D58C2070BD554806705B48016866
S315080007F00C290FD00FF27C11594A92F90020A4B2A5
S3150800080031F824105118C161FFF7B8FE012D08BF51
S3150800081001F004FC002070BD10B5044601F091F803
S315080008202046BDE81040C9E74548007870473F486C
S3150800083090F9000070472DE9F041044614F12B0F9A
S3150800084086B048DB474801881423FFF793FEBDF8B6
S3150800085010004FF6FF71884203D0400448BF0126B6
S3150800086006D43F2200211020FFF7DCFD05460026AE
S3150800087004F12B022F2A2D483B491AD213220FF2D4
S31508000880341300E0521ED2B213F91270BC42F9DBDF
S3150800089003EB4204032764780C60002413F8121053
S315080008A0017000218846C6B1BDF810104FF6BF7218
S315080008B02AE0092C0FDA025D0A60047014232B481B
S315080008C00188FFF757FE4FF4C0514FF480744FF07C
S315080008D080082827E7E78B201BE04FF4605200F0DA
S315080008E047F84FF4E062214600F042F8802241467C
S315080008F000F03EF885F020003D18ADB2402DA8BFA7
S315080009003F253F2285F0200100F032F8FFF7ABFDC6
S31508000910002006B0BDE8F0810000000050780020F5
S31508000920E8100040BC7F00206410004050620020A0
S31508000930105B03081C5B03081C100040DA7D0020CE
S31508000940E7640020D46400208020004080E100E0B5
S31508000950D010004000E100E060200040AC100040EC
S31508000960BB7F00200C5B0308C01000400E5B030829
S315080009700B205EE5AA212900552329000025280019
S31508000980AA26270055282700002A2600AA2B260073
S31508000990552D2500002F2400AA30240055322300A7
S315080009A000342200AA3522005537210000392000DC
S315080009B0AA3A2000D500E601EC02EF03F204F4059A
S315080009C0F506F707F808F909FA0AFB0BFC0DFD0FFF
S315080009D0FE11FF1300160119021C031F1000110057
S315080009E02000300040004100500060007000800088
S315080009F09000A000B000C000D000E000F0000000A9
S31508000A0000000103DFF8DC145120086070472DE967
S31508000A10F041DFF8D4640546F0780428B4BF3027DF
S31508000A2060274FF4F070B0FBF7F41E2D24B201DBFB
S31508000A30281B04D5A8B2BDE8F04100F004BB02F0BB
S31508000A40E9F800F028F870700721DFF8A004DFF84D
S31508000A50A02400F047F8291B09B27943C91C890864
S31508000A60491EDFF89054DFF87C7441602E6800F068
S31508000A70AEF83C68386820F04000386002F0D0F8DC
S31508000A803C602E6002F0D0F800F0F4F94046BDE86C
S31508000A90F04102F0D1B88046012080F310887047F3
S31508000AA038B5DFF84414C9780429B4BF3024602463
S31508000AB04FF4F071B1FBF4F1451A1E2D04DA9C21AE
S31508000AC00FF2844002F0BEF8DFF82004DFF8202495
S31508000AD0072100F007F805FB04F1C91C8908491E1F
S31508000AE0416031BD01600021416081604FF00071B5
S31508000AF011607047DFF8F02301215170D0E72DE926
S31508000B00F041DFF8F453DFF8F46300242C60346016
S31508000B104FF4A040706041F29A084046FFF777FF0D
S31508000B20686844F69041081A00B24FF4487190FB81
S31508000B30F1F000B20828A8BF072004DA10F1080F60
S31508000B40B8BF6FF00700306008274046FFF75FFF21
S31508000B504046FFF75CFF686804197F1EF8D1211D1F
S31508000B60DFF89C03C908B0FBF1F080B27060BDE8FD
S31508000B70F08138B5DFF88C5301206FF00F04A860B8
S31508000B802C608020FFF743FFE868FF2802D8641C22
S31508000B90102CF5DB31BD70B5DFF86C03DFF8545364
S31508000BA0016841F0010101600121416002F032F85B
S31508000BB02E68044600F00BF8CA49512008602E60DA
S31508000BC002F032F82046BDE8704002F035B82868D1
S31508000BD040084000286002F027B810B5C24C012032
S31508000BE0207000202071C948816901F0030103299A
S31508000BF007D10020A070042000F060F801202071C1
S31508000C0010BD0F210160022181610120E07064207E
S31508000C10BDE810406EE72DE9F041BD4CBB4EA088FB
S31508000C20B14F4FF6FF78404540F2DC551CD1B94824
S31508000C30018802237F22201D00F0C8FAA0884045BB
S31508000C4004BF0220A080B069800703D4B06940F0D1
S31508000C500200B0610120B870A08830602846FFF70E
S31508000C6049FF2846BDE8F081B2699207EED5BA7801
S31508000C70002AF6D1B268B36812F0010203D10F2830
S31508000C8009D2401C06E09B0705D523781BB103282B
S31508000C9001DB4044A080A08822700228BCBF022045
S31508000CA0A0803068A1888842D4D1B06900F00300DA
S31508000CB0032818BFFFF76FFF0020D3E72DE9F04799
S31508000CC0804695480178002569B9C078072818BF75
S31508000CD009280DD0032818BF112809D013281CBFCE
S31508000CE015280B2804D08D48016841F480710160ED
S31508000CF001F090FF8146FFF7CFFE4046FFF78BFFD6
S31508000D0008B9012515E07B4F764E3C6838684008DF
S31508000D104000386001F088FFD6F800A0306820F05F
S31508000D204000306001F07CFFC6F800A03C6001F08E
S31508000D307BFF00F09FF8484601F07EFF2800D7D0D9
S31508000D40BDE8F0870220B9E76848694A0021416092
S31508000D508160016821F0020101600021624841704A
S31508000D604FF000711160817809B100218170C17856
S31508000D70012914D16A4901220A606A4A1268D2070F
S31508000D8048BF03210FD40222C270086C40F001004C
S31508000D900864042064490860644908607047C1789B
S31508000DA0042901D10521C17070474F4840780028B1
S31508000DB018BFFFF7C9BF00F06BBF2DE9F8434A4CCF
S31508000DC0207908B354E001F025FF0546FFF764FED5
S31508000DD0E078032813D0474EDFF8088100F0ACF816
S31508000DE0D8F80090D8F8000020F04000C8F80000B5
S31508000DF001F016FFC8F80090376001F015FF00F003
S31508000E0039F8284601F018FFE0780328DBD1404E70
S31508000E103E4DB08828604FF6FF777088B8420CD1EF
S31508000E204348018802237F22B01C00F0CFF970885E
S31508000E30B84202D16420708001E0708878B1708869
S31508000E403C494A6D42F001024A650A68AB68DB070D
S31508000E50FBD50B689B1AC3F313038342F6D3FFF73C
S31508000E609AFE0420E0704FF4C870BDE8F24341E6EC
S31508000E70BDE8F183002080F3108870472DE9F84318
S31508000E80194C2179207881F0010108421DD124E00E
S31508000E9001F0C0FEFFF7FFFDE078052810D0154EDB
S31508000EA0104D00F049F8D5F80090286820F0400069
S31508000EB0286001F0B5FEC5F80090376001F0B4FE71
S31508000EC0FFF7D8FF404601F0B7FEE0780528DFD1E6
S31508000ED00020A0700520FFF7F1FE00202070BDE875
S31508000EE0F183000000800040C27F002010E000E08F
S31508000EF004ED00E094ED00E0104000400C000040D6
S31508000F000060E316084000401C40004004400040D2
S31508000F10B2640020205B03089607080838400040A2
S31508000F2018A000400C40004080E200E000E100E02C
S31508000F30245B0308382000403768306840084000C2
S31508000F40306001F071BE0000636C6F636B732E63D3
S31508000F500000000010B5002001F027FE594C40F6AD
S31508000F608C2188422068B4BF40F0080020F00800B1
S31508000F70206010BD10B504465348018882B000F0C1
S31508000F805DF89DF800109DF80100FF2902BFFF28B3
S31508000F900420002122004D4A136818BF801C23F440
S31508000FA06073C0B20828A8BF072043EAC0101060C3
S31508000FB008291068A8BF0721C00841EAC0001060C8
S31508000FC04348047013BD434800B5018883B000F058
S31508000FD035F8BDF800004FF6FF7188420EBF4FF492
S31508000FE0E1600A2190FBF1F0ADF80000384800787E
S31508000FF008B33548018802237F2201A800F0E6F8E5
S315080010009DF80500BDF80030FF2808BF0420811CA4
S31508001010C9B20829A8BF0721C1F12F0202EBD27273
S31508001020C0F12F00521000FB0320C1F12F01B0FBC5
S31508001030F1F0ADF80000BDF800000EBD02237F22D6
S31508001040684600F0C3B824490A68032809D34B6DDB
S3150800105043F001034B650B689B1AC3F313038342E2
S31508001060F9D3704710B5040004D110BD4FF47A7057
S31508001070FFF7E9FF2046441E80B20028F6D110BDCE
S3150800108020B1012807D0032818D019E0134801B168
S315080010901721016012E049B1480800F1B77000F560
S315080010A05850B0FBF1F0B0F1011F01D32020704772
S315080010B00B4900F001024A604008086000207047AA
S315080010C02120704700BC0040125B0308180000404E
S315080010D0BE7F0020145B030838200040100004E09F
S315080010E068C80040F0B5044689B00020FFF742FF03
S315080010F0284801880A237F22684600F067F8BDF869
S3150800110002004FF6FF75A84204D1DC210FF29000C9
S3150800111001F098FD00260FF2A00701E02A4616B94D
S315080011204FF47C4203E0022E08BF4EF23F023DF820
S315080011301610B85DFFF77DF9761C052EEED3012C47
S3150800114003D114237F22144802E014237F22134874
S3150800115001880FF26C0703A800F038F800262A4623
S3150800116008E02A46012E08BF4FF6C07202D0082EA4
S3150800117008BF002203A830F81610B85DFFF759F922
S31508001180761C0A2EEDD3012C04BF0120FFF7F2FED0
S3150800119009B0F0BD105B03080E5B03080C5B03087F
S315080011A0616E616C6F6775652D63656C6C2D626920
S315080011B061732E630000000000100C0D0E00000085
S315080011C0010203040708090A0B0F000030B504469C
S315080011D010467F2808BF00204BF23462914283B044
S315080011E01AD108237F2240F612016846FFF7EEFF60
S315080011F008220FF2C401684601F08FFE30B90823B1
S315080012007F2240F2A2716846FFF7E0FF082269468E
S31508001210204601F019FE37BD1F4D294300FB031177
S315080012201A46204601F010FE37BD2DE9F0410C465E
S3150800123019490FF2780841EA0006C007154602D593
S31508001240622100F02FF8E80702D5632100F02AF89A
S315080012501248864204D3A819401E1149884202D36F
S31508001260642100F01FF8002706E0F05DFF2802D091
S315080012706B2100F017F87F1CAF42F6D36A082146A7
S31508001280304601F0A8FE28B14046BDE8F04171217C
S3150800129001F0D8BCBDE8F08100000808000808087D
S315080012A000100808404601F0CDBC00006D66672DA9
S315080012B0746F6B656E2E6300FFFFFFFFFFFFFFFF76
S315080012C030B50FF20411DFF8F8500A6883B001A8A8
S315080012D00024026001202870002001F0C1FE30B110
S315080012E0002001F0BDFE10B12C7049203EBDDFF88C
S315080012F0D400018802237F220DF1020000F024F8B1
S3150800130002237F220021684600F01EF8002001A96A
S31508001310BDF8022031F81010914208BF0124401C84
S315080013200228F4D3BDF8000024B1B0F57F7F07D1B9
S3150800133000203EBDB0F57F7F14BF0420062000E0E4
S315080013400720002129703EBD10B5FF2907DC1C4C7B
S31508001350247844B1BDE81040C9B202F039B9BDE8F5
S315080013601040FFF733BF10BD2DE9F0410546FF2DAC
S315080013700E46174698460FF2540012DC104C217898
S31508001380A1B1617811B1C02101F05CFC0120607047
S31508001390434632463946E8B202F087FA00206070C2
S315080013A004E0BDE8F041CB2101F04CBCBDE8F0817A
S315080013B003490978002918BF02F083BB704700006B
S315080013C0B57F0020185B0308FE01FD02746F6B658C
S315080013D06E2E630010B5DFF850461020206301F02A
S315080013E019FCDFF848160A6842F001020A6001F0A3
S315080013F023FCDFF83C06606020608A30616889312A
S31508001400616001212163E060A060DFF82816E068CA
S315080014108930E060022020634FF6FF70086010BD37
S31508001420DFF8140645F26401C1601E2141625021AD
S315080014300162C821C1618165F021C16545F6900147
S315080014404166882181660621C16644F2066101600B
S315080014504FF6FF714160DFF8E405007838B1DFF830
S31508001460E00548F2607101604FF4C1514160DFF850
S31508001470D405016841F0040101600020DFF8C815B1
S3150800148048707047DFF8AC050068C00700D408E06C
S315080014907047DFF8A005006810F0190F00D100E0CA
S315080014A070470021002002F064BC2DE9F84F804601
S315080014B0DFF89815012002F00CFD8A21DFF8700587
S315080014C001FB08F14518681C4178007800EB0126F5
S315080014D0DFF87C15DFF87C050978017000EB080950
S315080014E0002089F80200B6B2B00603D5DFF86845D1
S315080014F0606E000640F18F80002106F00700032881
S3150800150061D106F4406006F44042B0F5806F1CBF16
S31508001510B2F5804F002A56D00423B0F5006F08BFF5
S31508001520082303D0B0F5406F08BF0E2370065CBFD2
S315080015309B1CDBB2B2F5004F0CBF9F1C03F10807DA
S31508001540FFB2781C00EBD070C0054FEA106A5FEA5C
S31508001550080014BF60682068504534D3E818B2F50F
S31508001560404FDFF8F8B402D102F035FD06E04078C6
S31508001570E95C01EB002080B202F00EFD0021FF2895
S3150800158007D0DBF8002032F810004FF456721042EC
S3150800159000D00121080016D0300714D45FEA0800ED
S315080015A014BF606820680AF10102904207D2E06819
S315080015B05FEA080214BF022201221042EED1E85D5A
S315080015C0042818BF0021E06D000900F001008142DF
S315080015D089F802001FD00029A16C4FF400604FF46F
S315080015E080620BD0B8F1000F08BF1046014212D036
S315080015F0606C40F00100606401200AE0B8F1000F59
S3150800160008BF1046014206D0606C4008400060647E
S31508001610002089F80200BDE8F18F2DE9F84F04464D
S31508001620DFF83454DFF82C6420000CBF286868689B
S31508001630C1B2052905DAFFF725FF7068401C7060FE
S3150800164089E040008DF800008A2000FB04FBDFF8E3
S31508001650E0839DF8000008EB0B09484410F8081DC4
S31508001660427802EB01211FFA81FA8178663181708E
S31508001670317819B9DFF8D813097831703178DFF87D
S31508001680B4730170002131704170386C20F48050B9
S3150800169038642000686E02D17868400504D4012CAD
S315080016A023D17868000520D5FFF7ECFEDFF8B003F4
S315080016B0017891B1002101701AF4E45FDFF8A40300
S315080016C0016802D00022402005E099F801000009CF
S315080016D000F001028F2002F0EAFC20000CBF4FF454
S315080016E080604FF40060786030E01AF4E45F2BD134
S315080016F000F08FFD10B15FEA4A4025D518F80B00B7
S31508001700802821DA386C99F80110890626440ED506
S31508001710696E09060FD4A96CC9060CD4396822006B
S315080017200CBF80224FF480720840104203D1FFF7A5
S31508001730A9FE0020B070B2789DF80010484602F065
S3150800174063FD0020B07001E0FFF79CFE002C0CBF83
S31508001750012002202861BDE8F18F2DE9F84FB54C2C
S31508001760BD4E2068216CDFF800B3DFF8F482DFF89D
S31508001770FC92DFF8D8A201EA000538E061B18A22B6
S31508001780AB49504308444078C00605D4B5480168BB
S3150800179000228F2002F08BFC280608D50FB9FFF728
S315080017A071FE02F0E0FC802025F080052060E80547
S315080017B009D50FB9FFF766FE02F0D5FC4FF4807025
S315080017C025F480752060680407D50FB9FFF75AFE1F
S315080017D04FF4804025F480452060280407D50FB9CA
S315080017E0FFF750FE4FF4004025F400452060002D19
S315080017F073D00027280706D50020FFF756FE0820D5
S3150800180025F008052060E80606D50120FFF74DFEFD
S31508001810102025F01005206005F06000602803D12F
S31508001820B06CC0050AD401E0A80605D520202060C2
S3150800183025F02005002006E0680606D54020206031
S3150800184025F040050120FFF7E8FEE80404D54FF42B
S31508001850805025F480552060E8079DD5012020603A
S315080018606D0802F0C5FA6D0078B14FF4487251461A
S31508001870012002F0D1FA02F003FA40054CBF03201A
S315080018800120002102F075FA012799F8010008B134
S3150800189000F0FAF899F80000002806D000F028FCB5
S315080018A0012807D198F8000000283FF475AF9BF887
S315080018B0000004287FF470AFF068400800F00100CB
S315080018C0002814BF7168316811B92168C904F7D5B1
S315080018D0002814BF7168316850E700202060BDE811
S315080018E0F18F634800687047F0B506460D4689B023
S315080018F00021032001F0FCF804AC08E034F81120BC
S315080019005040491C08293080F8DB6D1EB61CE8B229
S3150800191090B1002701F007F924F8170001F003F940
S31508001920694621F817007F1C082FF3DB04A802F08C
S3150800193041FE00200021E5E701F031F9012009B058
S31508001940F0BD0321022001F0D3B84FF6FF71081A43
S31508001950292190FBF1F03A3040B2704738B501F0D2
S31508001960E2F8FFF7F2FF434D04462878B0B90321A1
S31508001970032001F0BDF84048018802237F2268460B
S31508001980FFF724FC01F0CFF8BDF80010401880B22C
S31508001990FFF7DBFF153868700120287001F0FFF8A3
S315080019A06878201A40B232BD80B50321022001F0C2
S315080019B09FF8BDE80140D1E770B5304800780024AB
S315080019C090B9FFF7F1FF204E0546707848B1307898
S315080019D0401B40B202F0F4FD0B2805DB35700124EC
S315080019E002E0012035707070204670BD24480078EA
S315080019F0704723490B78984200D1704780B5087024
S31508001A0040B12049002008600848016821F080019B
S31508001A10016001BD00F034FC00F00AFC00F0BCFBDC
S31508001A20BDE8024000F0A0BB002000408420004032
S31508001A30E47D002000A000404C100040E86400202F
S31508001A40D010004080200040CC7F0020931400086E
S31508001A50E76400208C7900202020004004620020E2
S31508001A60307D0020387D0020D3640020C87F002008
S31508001A7038200040CA7F0020165B0308D464002083
S31508001A80CE7F0020541000407047000010B50D4866
S31508001A90018884B00A237F226846FFF797FBBDF8C2
S31508001AA000004FF6FF74A04204D14E210FF2180031
S31508001AB001F0C8F8BDF8001022460020FEF7B9FC70
S31508001AC01FBD0000105B0308616E616C6F6775656A
S31508001AD02D66696C7465722E63000000DFF8C00716
S31508001AE0007848B1DFF8BC070179012904BF4079BD
S31508001AF0042801D10120704700207047010644BF21
S31508001B004FF6F83101EAC0007047491C800189B2D6
S31508001B10B0FBF1F080B2FF288CBF0020C0F1FF00B7
S31508001B20C0B2704738B5DFF88407C17809B100201C
S31508001B3032BDDFF88447617871B1E17800794518DC
S31508001B402079ADB28542A8BF054602F052FD0121B3
S31508001B50A940491E084000E0002061790818C0B273
S31508001B6032BD2DE9F0470446C00705D540F27B1182
S31508001B700FF2C87001F066F8DFF84057286DC00705
S31508001B8048BF8C2000F18280DFF82007DFF828772D
S31508001B9000210170417829B9397819B1A96F41F046
S31508001BA0010102E0A96F49084900A967DFF8F48630
S31508001BB07A7898F80610DFF80897DFF8086792B180
S31508001BC0002202710129286D40F00400286506D11B
S31508001BD04FF6FF7030604FF40070C9F80000FFF749
S31508001BE0A1FF82460CE0286D20F004000129286533
S31508001BF04FF0000A04D100F03EFA6420FFF723FAFA
S31508001C00A86F20F00800A8671420E864C5F848A063
S31508001C10787838B198F80600002801BFA86C002823
S31508001C200120A864B8790028286D14BF40F0080080
S31508001C3020F008002865FFF751FF18B1306C40F016
S31508001C4008003064202028626C602C604FF4E06441
S31508001C5068687F30686004202862DFF86C060460D4
S31508001C6006E002F0D7FC18B102F0DCFC00F0D2FF67
S31508001C70DFF85806006800F003000328F1D0C9F819
S31508001C800040286D40F0010028650020BDE8F08777
S31508001C90DFF83C06002141608160016821F00201FD
S31508001CA001604FF00070DFF82C1608600120DFF89D
S31508001CB0281608707047A0F13301DFF820269142F4
S31508001CC000D3704710B5DFF8104600212170FEF7E3
S31508001CD0E7FE02E0012002F0B3FC20780028F9D0E4
S31508001CE010BD2DE9F84FDFF8DC85DFF8C055D8F8C8
S31508001CF00000D8F84010DFF8C47501EA0004A4B261
S31508001D00C8F800406878002840F0D380E007DFF87C
S31508001D10D065DFF8A4954CD5D7F800A0386C796C57
S31508001D2041EA0041A96099F8000000283DD09AF8D8
S31508001D300100800639D501202870FFF7CFFEC0B311
S31508001D401920FFF780F9DFF89CB54FF44040CBF82F
S31508001D502800DBF800000090F06E40F40050F066B2
S31508001D60F06E40F48050F0669AF80010A8684901B1
S31508001D70B83101EB000AFFF7B4FDAAEB0000C0F387
S31508001D801300FFF798FFF06E80098001F066F06E89
S31508001D90BDF800100843F0660020CBF8280048F28A
S31508001DA06070F066E888306003E00022002002F0E8
S31508001DB07EF920060ED5287830B10020287000223A
S31508001DC0A968402002F073F9D8F83C0020F4805046
S31508001DD0C8F83C00600608D5687830B9FFF781FD79
S31508001DE001460022892002F062F9E00652D5DFF8A2
S31508001DF0B4A4DFF8CCB49AF80400012804BF9AF812
S31508001E00061001291FD100F05BFB386F40F0010076
S31508001E103867002400208AF80600FFF7DBFA0A2054
S31508001E20FFF711F94FF6FF70C8F800004FF4E060AD
S31508001E30CBF800000920B8660120B864B86F40F0F6
S31508001E400800B86718E02979491C2971C9B299F8B8
S31508001E500220914215D2012808BF00F0DFF8B86FBA
S31508001E6020F00800B8671420B866FFF75BFEB86470
S31508001E704FF40070CBF80000386D40F0010038656B
S31508001E8008E0687830B9FFF72CFD014600228D205E
S31508001E9002F00DF920070CD5FFF720FE48B130688F
S31508001EA0E88001203060D8F8400020F00800C8F823
S31508001EB04000A0060AD520203862687830B9FFF7B6
S31508001EC010FD01460022882002F0F1F8687820B15A
S31508001ED014F4407F04BF0120A870BDE8F18FDFF835
S31508001EE0C8130028086814BF40F4404020F4404056
S31508001EF00860704770B582B00546FEF75DFCDFF8EE
S31508001F00F003DFF8AC43DFF89C630021016015217C
S31508001F10E160092101651F21416001210166DFF8A1
S31508001F20CC030088FEF7C9FAFFF77AFA02F020FE1A
S31508001F3000F035F9308900F05FF9708900F064F92E
S31508001F4000F068FE616841F04001616000F074FECF
S31508001F50707800F0F5F8B07800F006F9DFF8940329
S31508001F60007800F033F9DFF8900390F90000FEF7E7
S31508001F7062FC307800F050F996F9030000F058F941
S31508001F80DFF8780300F076F9BDF80000DFF8701383
S31508001F90C0054CBF0020BDF800000870DFF86403D8
S31508001FA00078FEF70BFC28B140F2C2310FF28C30F4
S31508001FB000F048FE012D07D12068C00704D500F0BF
S31508001FC02DF8002000F060F985B92068C0070DD407
S31508001FD0012000F059F900F073FA206840F001007A
S31508001FE02060C820FFF72FF80020B071F120DFF835
S31508001FF0D452286440F2F910E86301F0F9FEFFF7BD
S315080020006EFFFFF7E7F92068C00704D54FF6FF70A3
S31508002010286000F05EF8FEF731FF73BD70B5DFF893
S31508002020E852DFF880422E68A079012822D000F015
S31508002030F1FDB6B2DFF890222E604FF4E061116030
S31508002040DFF8A4120A6A520852000A620A6852089D
S3150800205052000A600A6842F002020A604A6A42F0BE
S3150800206001024A620121A17100F0E6FDBDE8704057
S3150800207000F018BA70BD70B5DFF82842A07938B3F9
S3150800208000F01EFA00F0C6FD0546DFF88012894EFC
S3150800209001200860306D40F0010030650020A07115
S315080020A0FFF798F920203060306B40F0020030636B
S315080020B0F06D40F00800F065284600F0BDFD0A20E6
S315080020C0FEF7C1FF7F494FF6FF70086000F001F880
S315080020D070BD4FF4E0607A490860704771488079AE
S315080020E0704770480079012808BFFFF797BF704707
S315080020F06C480079704780B5022801DB012002BDD3
S3150800210068490871897988420BD028B9012000F0FE
S31508002110BBF8FFF7B0FF04E0FFF780FF002000F0F0
S31508002120B3F8002002BD7A480068800200149A3885
S3150800213001B211F1800FB8BF6FF07F0040B270474F
S3150800214010B5044600F066FD72490A68002C04D0F2
S3150800215042F012020A60012103E022F012020A602C
S315080021600021504A517040E038B5054600F052FD4E
S315080021700446FFF73BFC40B966482900016814BFCE
S3150800218041F0800121F080010160464885702046B3
S31508002190BDE8324000F050BD4248807870475E493D
S315080021A04A780B785D4803EB022202608B78CA787E
S315080021B003EB022242600B794A7903EB0222826022
S315080021C0CA79897901EB0221C160704710B50446C6
S315080021D000F020FD4F4922000A6814BF42F0200291
S315080021E022F020020A6043490C70BDE8104000F056
S315080021F023BD2C48008970472A4908814849086048
S3150800220070472848408970472649488145490860EB
S315080022107047454800787047254902000A6814BF88
S3150800222042F0020222F002020A601E490870704754
S3150800223038B504467F2C0AD13C4800F01BF8BDF897
S315080022400000C00554BFBDF800406FF04A0400F016
S31508002250E1FC0546FFF7CAFB30B964B204F19A00FF
S3150800226080053349000C08600E48C470284600F003
S31508002270E3FC31BD018802237F226846FEF7A6BF2C
S31508002280084890F90300704706498979012906D15B
S3150800229028490B7898421CBF087000F069B9704746
S315080022A0DF7F0020CE64002040A00040307D002063
S315080022B0802000403020004064620020102000404A
S315080022C000E100E004A0004080E100E0A820004012
S315080022D010E000E004ED00E0E07F0020CDFF0700FD
S315080022E064100040E4100040602000405C6200205A
S315080022F05C100040DE7F002050620020225B03084D
S31508002300BB7F0020E76400201C1000402810004016
S315080023100C10004084200040187D002098200040C2
S315080023209420004090200040ED640020265B0308BE
S3150800233054100040E17F0020704700007068792D36
S31508002340636F6D6D6F6E2E630000000038B5012057
S31508002350FEF761FC0020FEF70DFE774C206840F082
S3150800236008002060FEF706F8FEF7F4FD7349744886
S315080023700A78C2604B78734AD360734B8D78DD60F8
S315080023808D880560CD884560088910604889506049
S3150800239088891860C889586000F084F8206820F099
S315080023A010002060FDF7B3FF02F014FCFEF7CAFC2C
S315080023B0FDF7DEFFBDE83140FDF7F9BF40F20160E9
S315080023C002F0A4BC8A68037802F00F0203F0F00357
S315080023D01A438A6043785B4AD3605B4B8478DC6037
S315080023E0C4880C600189116041895160818919602E
S315080023F0C0895860704710B5FEF7EFFBFEF7AAFDD7
S3150800240053494E48FFF7DEFF00F04CF800F006F897
S31508002410FEF7D3FCBDE8104002F051BE46480168FD
S3150800242021F010010160FDF772BFF0B50F249D0081
S3150800243004FA05F51668284215D0002505EB83072A
S3150800244020FA07F7FF070BD5AF0004FA07FC26EAC0
S315080024500C0631F813C004FA07F707EA0C073E43DF
S315080024606D1C042DEADB1660F0BDF0B5FF24DD0017
S31508002470AC401668204213D00024012504EBC3079C
S3150800248020FA07F7FF0708D505FA04F7BE43CF5C1D
S3150800249005FA04FC0CEA07073E43641C082CEDDB2E
S315080024A01660F0BD38B50021002001F062FC01F08D
S315080024B0A5FC284C2068002801D0244D0AE031BD2F
S315080024C038B501F09CFC234C2068002801D01B4D30
S315080024D000E031BD204A00232946FFF7C6FF2068E1
S315080024E01E4A01232946FFF7C0FF20681C4A02231B
S315080024F02946FFF7BAFF2068114A002300F036F88C
S315080025002068134A012300F031F820680D4A022397
S3150800251000F02CF82068134A032300F027F82068F7
S31508002520094A042300F022F82068291D01B0BDE8F5
S31508002530304005230C4A78E700BC00407061002053
S3150800254000B0004000B2004000B4004080610020A6
S3150800255004B000400C6B00200CB000400CB20040E8
S315080025600CB4004004B2004004B40040291D5CE7E6
S31508002570002818BF02F036BE02F035BE80B502F05C
S3150800258082FE01460FF250000B2938BF00EB81008E
S3150800259002BD000010B502F076FE044602F077FE92
S315080025A0C0B208B9012C07D1072C11D8DFE804F00E
S315080025B004100608080A0C0E002010BD092010BDDC
S315080025C0022010BD032010BD0B2010BD062010BD33
S315080025D044F0800010BD0000554E4B0046494200AD
S315080025E042544C004558540050575200574447002F
S315080025F02053570043525300465348004241440073
S31508002600464C54002A490A68920992010A600A68E7
S31508002610104308604FF4004126480160002101601C
S315080026206420FEF710BD2DE9F047234D204FD5F85D
S315080026300090224C8046286840F40040286038689C
S3150800264020F480503860207868B162781C48A178F8
S3150800265000EB820200EB880012F82A2C10F82A0CEC
S31508002660891A461802E0012020262070B0B2FFF72A
S31508002670C9FF0FF2500A02E0B0B2FFF7C3FF386B8A
S31508002680042805D0386B400754BF761E761CF3E73E
S31508002690F86A38B184F80180A6701FFA89F02860B4
S315080026A0BDE8F08740F22111504600F0CBFAE6E784
S315080026B0D0100040181000401C100040EB7F00208E
S315080026C074090008616E616C6F6775652D76636FB6
S315080026D02E63000081014FF4FE5289B20C20FDF7EB
S315080026E0A8BE2DE9F84F8F4CDFF83CB2A5682068E4
S315080026F01FFA80FA00F053FA0127B020ADB200267F
S315080027004FF00A08B946206308E016F1190FB8BF5A
S315080027104FF00A08464436B27019A060DBF800008C
S31508002720000702D559EA070028D00120FEF78BFCDE
S31508002730B9F1000F11D0AAF10300874202DAFF1C93
S31508002740BFB213E00AF5004020600621092000F018
S31508002750CFF957464FF000090BE0DBF800000007F9
S3150800276007D5042FA6BFFF1EBFB2002707F50040F6
S3150800277020601A2EC9DB6FF00908CBE7A560C4F8FC
S3150800278000A00820CBF800006848006880B2BDE8C1
S31508002790F28F80B5624B66491B784FF0FF326BB1FA
S315080027A0002819BF4A606348486041F21110086062
S315080027B0614841880088BDE8044092E7002819BFAF
S315080027C04A600A604860086000F0E9F9BDE804401C
S315080027D00621092000F0DDB938B50120FFF7D9FF39
S315080027E004460020FFF7D5FF05460120FFF7D1FF75
S315080027F04042001B00EB450000B232BD2DE9FE4FFA
S315080028004E4CDFF83C81A06A454EADF802002568BB
S31508002810D8F800B0307860B14FF6FF720021082072
S31508002820FDF700FEADF80000C022C0210820FDF724
S3150800283000FE4448DFF81091007818B148F260703D
S31508002840C9F8000070883C4F40F4404040F04C0006
S31508002850C9F83C000220A0620120206040F24C40EA
S31508002860FEF7F1FB0120C8F80C00C8F800000020AC
S31508002870388040207880307800B12020FFF72AFF82
S31508002880FFF7AAFF8246402038807F207880FFF72E
S3150800289021FFFFF7A1FF0290504601F091FEFE21AD
S315080028A001FB00F70298AAEB00000190307860B1AE
S315080028B0029801F085FE8246019801F081FE80B2F9
S315080028C007EB8A11B1FBF0F005E0019801F078FEFC
S315080028D080B2B7FBF0F080B2401CC7031FFA8BF03A
S315080028E0C8F80000ADB20020C8F80C00022020602D
S315080028F02560BDF80200A0620020C9F83C003078C7
S3150800290030B1BDF800104FF6FF720820FDF791FDB3
S3150800291040F24C40FEF797FB380CBDE8FE8F0000EE
S31508002920DA640020C010004018A000400070004083
S3150800293038100040EEEEFFFF9E7F0020602000402A
S3150800294028100040E8640020D010004041003F22D3
S3150800295089B201E001463F220220FDF76ABD2DE952
S31508002960F04F564C564D95B0E06CADF810004FF64A
S31508002970FF782068ADF80E004246E86AADF80C000C
S3150800298000210120FDF74EFDADF80A004246002160
S315080029900B20FDF747FDADF8080000264FF4004070
S315080029A020600DF1140B00202861686148F20200CE
S315080029B000F088F84CF68C30E0644FF4805248F208
S315080029C0F000E86211460120FDF733FD424600217A
S315080029D00B20FDF72EFD0621062000F0DAF80190FF
S315080029E000F082F800904CF69C30E0640020FFF777
S315080029F0ADFF0621062000F07BF8B0B2FFF7A6FF70
S31508002A000621062000F074F800F08DF82BF8160061
S31508002A10761C202EF1DB00F086F81020FFF796FFD3
S31508002A2000F062F80099019A401ABBF820108E1A35
S31508002A30404306FB06094FF0100A112700F04EF82E
S31508002A4000F052F800F043F805DB1FFA87FA7F1CFE
S31508002A50202F8146F2DBBAF1100F0ED10F2700F0B6
S31508002A603DF800F041F800F032F806DB1FFA87FA65
S31508002A707F1E3FB2002F8146F1D5BDF81000E064F5
S31508002A804246BDF80E002060BDF80C00E862012041
S31508002A90BDF80A10FDF7CDFCBDF8081042460B201C
S31508002AA0FDF7C7FC01202861002000F00BF84FEA6B
S31508002AB04A00C0B215B0BDE8F08F0000C010004053
S31508002AC018100040286040F24C40FEF7BCBA009946
S31508002AD0401A404306FB0600484570473BF8170076
S31508002AE00199461AB8B231E70621072000F051B815
S31508002AF070B505460E4602F0DFFB3F4C206C20F011
S31508002B000800206402F0DAFB00F084F8E90141F0DD
S31508002B1001013A4A41EA0631116008212160BDE8FF
S31508002B20704000F089B82DE9F041354C354D324EEC
S31508002B3025E002F0C1FB344904200860306C40F0FF
S31508002B40080030642F68286840084000286000F0B4
S31508002B506BF8D4F80080206820F04000206000F070
S31508002B605FF8C4F800802F6000F05EF8306C2749E3
S31508002B7020F0080030640420086002F09FFB3068EB
S31508002B800007D6D5082030602148006880B2BDE825
S31508002B90F08180B5FFF7ACFFBDE80140C3E71748F1
S31508002BA001684908490001607047F8B50746FEF70D
S31508002BB00AFA044639460320FFF7EBFF054639466D
S31508002BC00120FFF7E6FF0646FDF72BFC39460020F5
S31508002BD0FFF7DFFF0746FDF723FC084801684908A9
S31508002BE049000160781B0004711BB0FBF1F06043DB
S31508002BF04000000CF2BD000018A000400470004020
S31508002C000080004094ED00E000E100E080E200E092
S31508002C1000700040EFF31180602181F3118870473E
S31508002C2000BF30BF00BF7047BFF35F8FBFF34F8F42
S31508002C30BFF36F8F7047000080F31188704700005C
S31508002C4042DE704738B504460D46FDF79CFBFFF794
S31508002C50E1FF2946204602F035FB2B4622460FF2B5
S31508002C60D411012002F08DFD29462046BDE83440E6
S31508002C70E6E767482DE9F047664D01682E1D4FF4D3
S31508002C8020687165016AB16563490968F165416A39
S31508002C903166816A7166C16AB166016BF166806BDD
S31508002CA0306796F8340040074CBFF46BB46B02F0FB
S31508002CB0C0F80022F2648442584A014624BFA2F1B1
S31508002CC0200AA2452746316505F18C03DFF850C175
S31508002CD0DFF850E118D3A0693064E4697464746D50
S31508002CE0C4F30804062C13D1704511D360450FD2DE
S31508002CF000884DF64264A0420AD13068586040F216
S31508002D0001787068986003E000273764776407469F
S31508002D104548814202D2014600E0091D0846904214
S31508002D2003D20C68B4F1CD3FF7D04049081AB06415
S31508002D300021002005EB8004401C0628A167F9DB6A
S31508002D40002003E0C0B205EB8004A167974222D2B7
S31508002D5052F8041D7145F9D36145F7D2CC07F5D56C
S31508002D60002405EB8409D9F87890894502D0641CBB
S31508002D70062CF6DB062CE9D1002814BF401E0520D8
S31508002D80E0E7716F002405EB8402641CD76F976730
S31508002D90052CF8DB19600146481EC9B20029F0D196
S31508002DA0706DC0F3080002280AD0032815D004283D
S31508002DB016D0052817D0062818D00C281CD01EE0D7
S31508002DC01B480168890748BF40F602181CD40068EA
S31508002DD0C00719D540F2025816E040F6012813E05C
S31508002DE040F6022810E040F603280DE0B8F5206FFB
S31508002DF00AD140F6042807E040F6052804E018B191
S31508002E00242838BF40F607284046BDE8F08700006A
S31508002E1004ED00E00000002000E300E0306100203F
S31508002E200C22030890020008980000203061002058
S31508002E301CA000400D0A5B4153534552543A257075
S31508002E403A25645D0D0A0000814233D210441144CC
S31508002E50401E491E10E011F8013900F80139121F09
S31508002E6011F8013900F8013911F8013900F801396A
S31508002E7011F8013900F8013992B2042AEBDA93B253
S31508002E80002B1EBF11F8013900F80139521EF6D180
S31508002E90704711F8013B00F8013B121F11F8013B7E
S31508002EA000F8013B11F8013B00F8013B11F8013B22
S31508002EB000F8013B92B2042AEBDA93B2002B1EBF4C
S31508002EC011F8013B00F8013B521EF6D1704710E09D
S31508002ED011F8013B00F8013B121F11F8013B00F8FD
S31508002EE0013B11F8013B00F8013B11F8013B00F8E2
S31508002EF0013B92B2042AEBDA93B2002B1EBF11F8FB
S31508002F00013B00F8013B521EF6D17047130003D06F
S31508002F100A46194602F076BC704710B500E0521E04
S31508002F2093B223B100F005F8F9D0181B10BD0020A4
S31508002F3010BD10F8013B11F8014BA3427047000081
S31508002F404148018A40F6A772914202BF408A4FF46F
S31508002F507F41084203D1022801DB01207047002087
S31508002F6070472DE9F84F82468846384DDFF8D4B0C9
S31508002F70FFF750FE2F68044628684008400028607E
S31508002F80FFF752FE01208BF80000FFF7D9FF28B99A
S31508002F9040F201110FF2B800FFF754FE2A48D0F8A4
S31508002FA0289041464AF48070C84706462F60FFF7C6
S31508002FB03BFE2046FFF740FE00208BF800000FF28C
S31508002FC098040EB1A05D04E041464AF40070C84773
S31508002FD0205CBDE8F28F2DE9F84F804689464FEA16
S31508002FE0420A1A4EFFF716FE37680546306840084B
S31508002FF040003060FFF718FEFFF7A2FF28B94FF42C
S31508003000A2710FF24C00FFF71DFE0F48D0F824B04E
S315080030100023524649464046D84704463760FFF7DC
S3150800302003FE2846FFF708FE0FF22C050CB1285DB3
S3150800303005E05346002249464046D847285CBDE885
S31508003040F28F0000C77F00200000080894ED00E01A
S31508003050666C6173682E6300000202024B4B46479A
S315080030607FB504460F22FF216846FFF74FFF1A4E29
S315080030706422FF213046FFF749FF0F250020174934
S315080030800A5C012A1CBF26F810505519401C0F2847
S31508003090F6DB0FF24C054FF4E04000F0DCF818B10F
S315080030A09D212846FFF7CEFD4FF4804000F0D3F867
S315080030B018B19F212846FFF7C5FD4FF4805000F050
S315080030C0CAF818B1A1212846FFF7BCFD6946204673
S315080030D000F0EFF804B070BDA86A00203C2703088A
S315080030E073696D2D656570726F6D2E630000000043
S315080030F010B5DFF8944ADFF8143B2488001B06E075
S3150800310010B5DFF80C4BDFF8043B24681B1B03EBF8
S315080031104000002304E030F8134021F813405B1CFC
S315080031209342F8DB002010BD2DE9F04182B0044639
S315080031300D4616460027DFF8D48A01E0BF1CFFB209
S31508003140B74217DAE819E95D4078DFF8C83A1B880C
S3150800315001EB0020ADF80000012207EBD77004EB65
S315080031606000C01A00F09CFB0100E7D001F0F6FFF2
S31508003170002000E00120BDE8F681F8B504460F46B8
S31508003180154600260DE000F019F8BDF8000004EB1E
S315080031904601000A48707F1CBDF8000004F81600B6
S315080031A0761CB6EB550FEEDBE80706D500F006F8F9
S315080031B0BDF80000611901F8010CF1BD012269464C
S315080031C0B8B295E7DFF8C029DFF8401A1288801AE6
S315080031D001EB40010220FFF7C4BEDFF83C1ADFF816
S315080031E03C2A095C125CDFF8383A185C10B102F523
S315080031F0997292B241EAC21080B27047DFF8183A63
S31508003200DFF8202A1B5C012B1CBF32F810000818B7
S3150800321002EB4000704738B50C46DFF80C1A0D78FB
S315080032202A462146FFF764FF208801001CBF4FF697
S31508003230FF7188420BD0012000E0401CC1B2A942B0
S3150800324007D2C0B234F8101022889142F5D0002077
S3150800325032BD012032BDF0B5DFF8B41987B0086079
S315080032600C2269460020FFF74BFFBDF81600BDF893
S315080032700C200346040A012000254FF6FF763DF888
S315080032801570BDF80010B94203D1B74218BF002F18
S3150800329000D100206D1C062DF1DBB21A914218BF31
S315080032A00020DBB2C4F1FF018B4218BF002007B033
S315080032B0F0BD2DE9F24F0446DFF870690020307042
S315080032C070809CB0DFF868090088ADF8020007A98D
S315080032D0FFF7A1FF83460120707009A9DFF854099A
S315080032E00588DFF85409B0F80080DFF89C080788DD
S315080032F0BDF802A03846FFF78EFFB8B1BBF1000F44
S315080033003DD0BDF81C10BDF824004FF6FE72914260
S3150800331002D1012804D10CE0012908BF90422ED021
S315080033200846BDF82410884229D202E0BBF1000FF6
S3150800333024D000207070029750460695CDF810806C
S315080033400122DFF8E41891F800804044ADF8060041
S315080033506946BDF80600FFF7CBFEDFF8E0080088EF
S3150800336005904FF6FF79BDF80000000B404518BFE1
S315080033700F2801D1200021D0002516E001247078FD
S315080033800028D8D03846CDF808A0CDF8188004957E
S31508003390D6E7059805FB00F4E01900F05DFCBDF8DA
S315080033A00200201800F058FC6D1C4545F1DB012091
S315080033B030704D2001F0D2FE0025F7E0BDF806502A
S315080033C0012201A92846FFF793FEBDF80400C04371
S315080033D000F0FF00ADF804006F1CDFF864080588EC
S315080033E0BDF80400A84218BF01244FF0000A20E0E7
S315080033F0401CC1B2A94218D2C0B2DFF84818BDF8BD
S315080034000E20834631F81B109142F1D1FFF7E5FEF5
S315080034104FF680710840BDF80C104FF680721140C7
S31508003420884204BF1C9800F80BA00AF101001FFA95
S3150800343080FABDF80400824507DA022203A9B8B269
S31508003440FFF756FEBF1C0020D3E7002001E0401C12
S3150800345080B2A84217DA1C99095C8142F7D0012488
S3150800346011E02AF81070BDF8060000EB4300401C76
S3150800347000F0DBFABDF80200C0F3C710401C00EBF1
S31508003480D07007EB60070498DFF898A7BFB28742A9
S315080034900EDA00F099F8BDF80000484508D0030A8E
S315080034A000F07F01BDF804007F1C834202DB012483
S315080034B000252DE0002000E0401CA842D3DA1C9A23
S315080034C0125C9A42F8D1C0B2FF28CCD0DFF8482760
S315080034D0125C7F290CBF4FF0000C8C4694450BDA22
S315080034E0BDF800C0DFF838E71EF800E04FEA0C6CBC
S315080034F04FEADC7CF44501D00124B4E7012AB0D0B8
S315080035007F293AF8100008BF00210818A9E76D1CA2
S31508003510DFF834070088854204DA3AF8150048458A
S31508003520F5D1012477800498BFB2874207DA00F004
S315080035304BF8BDF800007F1C4845F4D039E7002C4D
S31508003540FCD1029801220BA980B2FFF7D1FDBDF884
S315080035502C0048450DD105E0401C80B2202813DB1D
S315080035602034A4B20699029A891A8C4205DB0120F6
S31508003570307000201DB0BDE8F08FA51820220BA9D9
S31508003580A8B2FFF7B5FD00200BA931F81010494580
S31508003590E2D0A8B2FFF716FE203CA4B2E0E70298F4
S315080035A0059905FB010000F057FB6D1C4545F6DB48
S315080035B001203070494600F046F818B100F035F998
S315080035C00028D6D10120D5E70122694638468FE57D
S315080035D02DE9F0420F46DFF86816DFF840560988ED
S315080035E08F420446164699460CD2DFF82C16C95D5A
S315080035F030467F2808BF0020884203DAE95D8945FE
S3150800360000D11CB940F2D64100F00BFA31463846D3
S31508003610FFF7F4FD0188DFF80806C05D60B138469B
S3150800362000F035FAE95D012908BF207009D00229A2
S3150800363014BF2060208004E04A462046BDE8F042D8
S315080036409BE5BDE8F0822DE9F34FDFF83C05DFF88E
S31508003650D8150488DFF8D4050978407883B000289F
S315080036601ABFDFF8CC05008820460D18DFF8D0050C
S315080036700088ADF80800ADB2C04300F0FF0000EBCB
S31508003680013000F55060ADF802002B1BDFF87C0511
S3150800369001220DF1020100F0E3FA6E1C0100B6B238
S315080036A03AD10025DFF89C7513E0E8B2FFF795FDDF
S315080036B0ADF80400331B37F81500ADF806000222F2
S315080036C0DFF8480500F0CBFA010025D1B61CB6B2E2
S315080036D06D1CBDF808008542E7DB002500E06D1C7F
S315080036E0BDF80800854280F29B80DFF83405405D0E
S315080036F08DF80A004FF0000A1BE001220DF10201C5
S315080037001FFA89F0FFF7F4FCBB19DFF8000500F093
S3150800371092F9010009F101097AD17F1CFFB2B7EBD2
S315080037201B6FEADBDFF82405405D8619B6B20AF19D
S31508003730010ADFF8E404475D5FFA8AF0B842CED2A0
S315080037405FFA8AF1E8B2FFF759FD80469DF80A004C
S31508003750B8F80090C00140EA0520ADF80000012F36
S31508003760BDF800000EBF40F07F005FFA8AFA4AEA09
S315080037700000ADF80000311BDFF8900400EB4100B3
S315080037804FF6FF71771C89451EBFBDF80010BDF8BE
S3150800379010209142BFB219D19DF80C100029C6D04D
S315080037A001226946FFF717FC01003E4630D1DFF8D3
S315080037B06C04A8F80060425DDFF8940450F8251000
S315080037C03046FFF7B1FC0028ACD124E0DFF84C14F2
S315080037D0495D491C01EBD1714FEAC15B012269467B
S315080037E0FFF7F9FB01003E4612D1A8F800609DF8E4
S315080037F00A0098B14946E8B200F049F90190331B2E
S31508003800DFF808044FEA1B6200F029FA010089D0A4
S3150800381001F0A4FC002005B0BDE8F08F00277DE785
S31508003820DFF8080446800120F5E7DFF804042DE9EF
S31508003830F0410688DFF85003DFF8F053048868780B
S31508003840DFF8C883002882B012BF204630462646D5
S3150800385001226946FFF74CFCBDF8000001280CBFA1
S315080038604FF6FE70401EADF80000DFF8BC0307787F
S315080038703846471E58B1BFB2B819001B012200F0DE
S315080038800FF80100F4D001F069FC002006E0687822
S3150800389080F001006870002028700120BDE8F681DC
S315080038A0694608EB4000FFF796BB2DE9FE4F0D462B
S315080038B0DFF88C1309888842044617461E464FF0DF
S315080038C000094FF001080ED2DFF84C13095D38469F
S315080038D07F2808BF0020884205DADFF84013095D13
S315080038E08E4200D11DB940F2FA5100F09AF83946D5
S315080038F02046FFF783FC0190CC4F787820B1CD485D
S31508003900B0F800A0A04803E0CB48B0F800A0C8482B
S315080039103978008849B97988081ACE4909888842C9
S31508003920B4BF4320442001F019FC01980188BC4823
S31508003930005DF8B1204600F0AAF8012E08BF2978E4
S3150800394003D0022E0CBF29882968814267D00198C6
S315080039500088401E00F069F8BC48065D7888AAF120
S315080039600101891B814201DB002837D1387868BB01
S31508003970452046E00291CB4622E002980BEBDB732A
S3150800398000EB630000F002F905EB0B0015F80B10CD
S31508003990407801EB0020711E8B4580B207D1BDF837
S315080039A0001001F0FF0100F0FF00ADF80010BDF8AF
S315080039B0001088420BF1020018BFC8465FFA80FB68
S315080039C0B345DADBB8F1000FC1D028E0BDF8021024
S315080039D00020FFF738FE10B34FF0010978888F49A9
S315080039E0401C788080B20A5D2946FFF79DFBB0B17E
S315080039F0654C7B88248885485B1E00F01CF801000E
S31508003A0002D001F0ABFB0AE0B9F1000F02D0FFF7D4
S31508003A100CFF20B101997888088030187880BDE8B5
S31508003A20F78F0FF24420FFF70DB901220DF10201BD
S31508003A3080B2FFF75DBB1B1B01220DF1020100EBF3
S31508003A404300FFF7C8BA70B582B0044600251926A8
S31508003A5001226946A0B2FFF74BFBBDF80000641CC3
S31508003A6048B14FF47F41401A02D0FF3806D007E02C
S31508003A70681C40B276BDAD1C761EE9D168B276BD2B
S31508003A80BDF80000C0B200B96D1CE843F1E738B5CF
S31508003A900C460021009161490D5C2A46214668467C
S31508003AA0FFF76BFB681C00EBD07004EB600080B27C
S31508003AB0FFF7C9FF002848BFC043009940B2401825
S31508003AC032BDF0B55E4909880446564883B0254696
S31508003AD030F815608C4202D25148405D18B940F260
S31508003AE03D71FFF79EFF4D48455D681C00EBD070A1
S31508003AF006EB6007B8B2FFF7A6FF322814D2BFB2AA
S31508003B00C10707EB6000204F404B3F884CBF0021A0
S31508003B104FF47F41ADF80410C01B012201A903EB45
S31508003B204000FFF758FA60B131462046FFF7AFFF6D
S31508003B3000902B46401C00907F2269462046FFF7DE
S31508003B40B4FEF7BD70B53948017882B00024C1B912
S31508003B504078002814BF36480B480588324806784E
S31508003B600BE0F6B2701900F011F8BDF80000002855
S31508003B701EBF4FF6FF718842641C3046461E002859
S31508003B80EFD1E0B276BD0000942A03080122694607
S31508003B9080B2FFF7ADBAF8B5244C20780027002884
S31508003BA032D11C480588607800281ABF2048068844
S31508003BB02E461D4807783846471E02281DDBFFB2E9
S31508003BC0B819FFF7E3FFBDF800000028F3D01B483B
S31508003BD0008807FB006000F03FF80020ADF8000001
S31508003BE0BB190A485B1B0122694600F039F8010037
S31508003BF018BF01F0B3FA3846F2BD3046FFF7E2FACD
S31508003C00F8B208B901202070F8B2F2BD00E0070842
S31508003C1088780020942A03083C2703082C270308E1
S31508003C201C270308A86A0020902A0308E07D0020C4
S31508003C30982A0308962A03089A2A0308922A030848
S31508003C409E2A0308FC260308A02A0308A42A0308B8
S31508003C50542A03089C2A030880B2FFF7B3BA01A9BD
S31508003C6000EB4300FFF7B7B973696D2D6565707290
S31508003C706F6D2D696E7465726E616C2E630000003F
S31508003C80634840687047F8B5614F7D68044600266A
S31508003C906048044214BF02267C6024EA0500C0037B
S31508003CA007D50021002000F042F80021002000F08E
S31508003CB060F830000CD1786800F4804005F4804143
S31508003CC0884205D0A00B00F0010000F094F80646E3
S31508003CD03046F2BD10B54E4CA078E17800F00100F0
S31508003CE001F0010108436168C90319D4C0B1E0684D
S31508003CF048B1E078000706D5E16808208847E078EB
S31508003D0000F0F700E070A06870B1A07800070BD546
S31508003D10A16808208847A07800F0F700A07003E0A3
S31508003D20607808B100206070BDE8104068E02DE9B1
S31508003D30F04104460D46FEF76DFF354F804638784C
S31508003D400126A8B120000BD1B87800281CBFB86896
S31508003D50002805D0B878400602D5B96840208847BB
S31508003D60BD60B878A0421CBFBC70FFF7B3FF002641
S31508003D7020E02DE9F04104460D46FEF74BFF244F9F
S31508003D80804638780126A8B120000BD1F87800289B
S31508003D901CBFF868002805D0F878400602D5F968EF
S31508003DA040208847FD60F878A0421CBFFC70FFF7EA
S31508003DB091FF00264046FEF73FFF3046BDE8F081FA
S31508003DC038B5134D2978884204460FD0200007D10C
S31508003DD000210020FFF7CDFF00210020FFF7A7FFF5
S31508003DE02C702046FEF77BF800F00AF8002032BD5A
S31508003DF007480078704700B102207047704700BF37
S31508003E0003480178002141700020FDF7F2BD00004B
S31508003E10106B0020FFFC0FF82DE9F84305460E4607
S31508003E203000144605D1FDF75CFD2018C0F31300D9
S31508003E304DE02F46022F0FF2501803DB4021404673
S31508003E40FEF700FF102C05D22846B047BDE8F1431F
S31508003E50FDF747BDDFF8209159F8270018B148212A
S31508003E604046FEF7EFFEB4F5002F03D3492140463E
S31508003E70FEF7E8FE49F82760404F414E95B9FEF730
S31508003E80C9FE0546FDF72DFD2418A0B27860200C62
S31508003E903860022030602846FEF7CEFE306C40F0CF
S31508003EA0020011E0FEF7B6FE0546FDF71AFD2418D6
S31508003EB0A0B2F860200CB860042030602846FEF7EF
S31508003EC0BBFE306C40F004003064C4F31300BDE858
S31508003ED0F28370B504462646022E0D4604DB66219B
S31508003EE00FF2A400FEF7AEFEFEF794FE224951F843
S31508003EF02620AA4210D1002241F82620002C20496B
S31508003F000A6C04D122F002020A64022203E022F0BB
S31508003F1004020A6404220A60BDE87040FEF78CBEFB
S31508003F2070B5174C144E2068216C01EA0005ADB235
S31508003F30A80709D5206C20F0020020643168080023
S31508003F4002D000203060884768070AD5206C20F028
S31508003F50040020647168080003D000207060012006
S31508003F608847256070BD01F014BD010008BF012017
S31508003F700201044900204FE7A07D002040200040B0
S31508003F8008A00040673F000873796D626F6C2D7456
S31508003F90696D65722E630000F8B5274D2E6804001A
S31508003FA001D1FF20F2BDFEF735FE244F29683A7885
S31508003FB021F8124036F8021BA142FBD1FEF73CFE5F
S31508003FC029683A78B01E401A4010C1B2914208BF1B
S31508003FD0FF20C0B2F2BD2DE9F843194C174D2668EB
S31508003FE08146287806EBC007FEF714FE80460822AD
S31508003FF049463846FEF728FFF88800E00836F18873
S31508004000814202BF31883A889142F7D171887A880D
S31508004010914202BFB188BA889142EFD14046FEF775
S315080040200BFE20682A78301AC010C1B2914208BF28
S31508004030FF20C0B2BDE8F28308620020E0640020D9
S315080040400C62002038B504466048614D002912BF4D
S3150800405000210178491C01700120012101F026FD8B
S315080040602878411C89B2032001F020FD200003D0E6
S31508004070FFF706FE002808D5FFF702FE40054CBFED
S31508004080032001200021FFF752FE524844702846BB
S31508004090BDE8384001224FF4806101F045BD80B586
S315080040A0FEF71FF8BDE80240312001F05ABE38B5C8
S315080040B00446402C154606D1FFF7E2FD00F08020A5
S315080040C0B0F1004F03D000210020FFF730FE002C8E
S315080040D03AD0402C24D0882C18BF892C38D08C2C68
S315080040E038D08D2C2DD08F2C39D13B480078042818
S315080040F00FD155B13949022008704CF25032BDE84B
S31508004100384037490020FFF787BEFDF7EAFF312020
S3150800411021E0FDF7E6FF002D0CBF312000201AE054
S31508004120FDF7DFFF01F0E1FE28482E4900780978FF
S31508004130884204D2BDE834400021012082E74020AD
S3150800414009E001F0F3FC03E0FDF7CBFF002002E0F5
S31508004150FDF7C7FF8D20BDE8324001F002BEBDE87D
S315080041603440B62145E01D480078022800D0704743
S3150800417080B51D480078012807D0032810D11B48B0
S315080041800078022818BF7C280AD115490020FFF7B5
S31508004190A0FEFDF7A6FFBDE80240002001F0E1BD44
S315080041A001BD38B5FEF736FD05460C4800780024F3
S315080041B010B9FDF701FC04462846FEF73DFD1CB183
S315080041C0BDE8314000F0C8BF31BD0000E57F0020E2
S315080041D0047F002064620020D3640020D97F002079
S315080041E09F400008EE640020E67F0020E77F00205D
S315080041F0EB210FF20800FEF725BD00006D61632D67
S315080042007068792E6300000070B504469E480D4616
S315080042100178164619B14188491C418070BD20466F
S3150800422001F06AFE80B1FDF7B7FF38B1A078002E1D
S3150800423014BF40F0010000F0FE00A0702946204699
S31508004240BDE870402E2200E070BD70B504460D46EC
S315080042501646601C01F054FE10F0070F1ABF41F60F
S315080042604901884200260121002001F01FFC207820
S31508004270411C89B2022001F019FC32462946204623
S3150800428002F026FC18B1BDE8704003F099B87E48E4
S315080042908188491C818070BD2DE9F04FA3B002F0DA
S315080042A061FC794D0FF2FC1B81466888010009D034
S315080042B000908B220FF200235946072003F02DFEAB
S315080042C000206880A98808000DD00D2001F0EEFBBB
S315080042D0A8880FF2F013009091225946072003F0A0
S315080042E01CFE0020A8805FEA09003AD002F04DFAC9
S315080042F00746781C3E7801F003FE10F0070F1BBF37
S3150800430041F64901884200242E24484602F054FA10
S31508004310384461420844A0F10801082201A8FEF7C2
S3150800432093FD0DF1040A9AF80300FDF7E7FB314601
S31508004330FDF7EBFB044655489AF902A0007888B1C8
S31508004340A86800280DD000200090731CDBB200225C
S31508004350494603A802F022FCAB685246214603A848
S3150800436098478EE0484604F004F90028F9D005215C
S31508004370484602F059FC8046032000F0DFFF444E11
S31508004380444908F007003070FF2008707C7087F8F1
S3150800439002A09DF80400F870484604F0AEFD032814
S315080043A0484602D106F080F96BE004F097FD00F06C
S315080043B00500042807D03078032804D1484601F0C0
S315080043C010FD00285DD103F05FF818B103F05CF822
S315080043D0012802D13078002853D1EA68100004D0A9
S315080043E000214846904700284BD12B4D28780328B2
S315080043F018BF042805D0022829D128480078C00704
S3150800440025D403F041F8032821D1484604F02DFEAF
S31508004410B0F5004F1BD1484604F04AFE20490988EA
S31508004420814214D0484604F059FD00070FD4484687
S3150800443004F054FD400602D53078012807D00FF263
S315080044408C03EB225946072003F067FD19E028780C
S31508004450042804D15FEAC86048BF01F0A3FB30789E
S3150800446020B101280AD0032804D00AE0484605F0FE
S315080044705DFB06E0484607F02BF902E0484607F0E0
S3150800448075F923B0BDE8F08F3C7D0020317D002012
S31508004490E67F0020E77F0020A2790020A679002089
S315080044A0EE62002069702D6D61632D726563656922
S315080044B076652E6300000000666C616720782575B6
S315080044C0000000006D656D20782575006E6F7420FC
S315080044D066726F6D20706172656E74002F49486050
S315080044E000200870704710B52C4C2278616800F0DF
S315080044F003F80120207010BD2DE9F0410446284834
S315080045000068C0050D46904604D071210FF2A80038
S31508004510FEF798FB234F244E3868002818BFB8F1D9
S31508004520000F02D03068854203D0284600F028F8EC
S3150800453035608020386006211C48016007213960F3
S3150800454001688907FCD5216809BAB962616809BAA0
S31508004550B962A16809BAB962E16809BAB9620168BB
S315080045604907FCD5386B00BA2060386B00BA606022
S31508004570386B00BAA060386B00BAE060BDE8F0811D
S3150800458002680B4912BACA60426812BA8A6082681F
S3150800459012BA4A60C06800BA08607047907D002069
S315080045A004ED00E000300040987D002010A0004097
S315080045B03830004000229FE76165732E63000000D3
S315080045C0002848BF4042704701468AB20AB94BF6EE
S315080045D0EF610F4A000C08BF4FF6CE2011805080BD
S315080045E070470288130448BF4A40510001801046AC
S315080045F0704738B5064C62212046FFF7F2FF05469C
S3150800460041F20B01A01CFFF7ECFF684032BD000029
S31508004610A8640020EFF3118060288041C043C00FD2
S3150800462070470000002181F311887047012100F0CE
S315080046301F029140DFF8E824400942F8201070472D
S315080046402DE9F04FDFF8E04491B061681091072832
S3150800465008BF032006D0082808BF022002D0052874
S3150800466008BF0420DFF8C45429686A6841EA0221B1
S31508004670AA6841EA024100916968490703D5E169D8
S3150800468041F00201E1612968490703D5E16941F072
S315080046900401E1610099EA69D140C90703D5E169D6
S315080046A041F00801E161401EDFF87864DFF88074A4
S315080046B000210328316000F22A82DFE810F00002A8
S315080046C006001B000400616014E0386CC00703D5BF
S315080046D0E06940F04000E061386C400703D5E069C6
S315080046E040F02000E061386C800703D5E06940F0AF
S315080046F01000E061FEF78EFAFBF752FE8DF83C00DB
S315080047000120DFF83014DFF830A4C1F50041090BA9
S3150800471000FA01F1491ECAF838104FF00009090AD3
S3150800472007D1DFF81814097819B1616C41F0200136
S315080047306164396CDFF80884DFF808240E91796C17
S315080047400D91D8F84C100C91D8F850100B91D8F858
S3150800475054100A91D8F858100991DAF800100891FF
S31508004760DAF804100791DAF814100691DAF824102A
S315080047700591DAF834100491DFF8CC130968126849
S31508004780039202222260DFF8C42312688DF80420FF
S31508004790DFF8BC2312688DF80520DFF8B823126805
S315080047A08DF806204FF0FF326262DFF87423136833
S315080047B0DB040AD56B68DB0707D5E369DB0704D595
S315080047C0336843F480738146336013689B040AD5C3
S315080047D06B685B0607D5E369DB0704D5336843F4E2
S315080047E080438146336013685B0412D5009BD5F875
S315080047F018C023FA0CF3DB070BD5E369DB0708D5EA
S315080048003368D5F818C000FA0CFC4CEA0303814655
S31508004810336013681B0414D5009BD5F81CC023FA13
S315080048200CF3DB070DD5E369DB0702D4E3691B0745
S3150800483007D53368D5F81CC0814600FA0CF0184332
S3150800484030601068C00308D5E069000605D5F07821
S3150800485040F008004FF00109F07000206A68D2079E
S315080048606A6848BF4FF480505206009AAB6948BF41
S3150800487040F40050DA40D207009AEB6948BF40F48A
S315080048808040DA40D207E26948BF40F40040D206C9
S3150800489005D4E269920602D4E269520601D540F0CF
S315080048A01000E269120648BF40F4803008400290C2
S315080048B0A520FBF76CFD0120E063E069A16B11B14F
S315080048C0616A0142FAD0616A014200F0C98000209B
S315080048D0E063F07840F04000F07000F0EDFC0498DA
S315080048E0CAF83400072038600F20C8F8000008F01E
S315080048F0F9F81098944960600E9838640D987864B1
S315080049000C98C8F84C000B98C8F850000A98C8F8D4
S3150800491054000998C8F858000898CAF8000007987B
S31508004920CAF804000698CAF814000598CAF82400BC
S31508004930029808608349039808604FF0FF3086495B
S315080049400860824800683070814800687070814845
S315080049500068B070606AE169EA69336808400199DD
S315080049604B4000990B400106490E01F0010143EA4C
S3150800497081230106890E01F0010143EA810301063C
S31508004980C90E01F0010101FA02F200051A4300F00E
S315080049907C5010433060FEF73DF900F08FFC002094
S315080049A020609DF83C0008B1FBF7E4FCF078664906
S315080049B00968C90304D5C0F3C00109B120212162E1
S315080049C0396C890703D5C10744BF0221F960396CE0
S315080049D0490704D5C0F3400109B10421F960396CCF
S315080049E0C90704D5C0F3800008B10120F860D8F8DB
S315080049F04C0010F0E00F05D03068C00544BF0C200D
S31508004A00FFF714FED8F8500010F0E00F05D0306814
S31508004A10400444BF0D20FFF709FED8F8540010F0F3
S31508004A20E00F07D03068A969C840C00744BF0E2008
S31508004A30FFF7FCFDD8F8580010F0E00F07D03068F3
S31508004A40E969C840C00744BF0F20FFF7EFFDF078BB
S31508004A5040F08000F07011B0BDE8F04FFFF7E2BDFE
S31508004A60B9F1000F7FF435AFDAF818003549DFF8E9
S31508004A70ECB040084000CAF818003248806840F098
S31508004A800400886040F20721BBF80000884202BF94
S31508004A90BBF802004FF20F01884205D14CF23C30B8
S31508004AA0ABF802004FF00109012008F055F8B9F1FA
S31508004AB0000F03D04FF20F00ABF802000FE7FBF729
S31508004AC06FFC0446A520FBF762FC00F0F5FBFFF738
S31508004AD0A9FD234D234F2E6828684008400028600A
S31508004AE0FEF7A2F8D7F80080386820F04000386052
S31508004AF0FEF796F8C7F800802E60FEF795F80CB119
S31508004B00FBF738FC11B0BDE8F04F00F0D7BB11B089
S31508004B10BDE8F04F40F254410FF24C00FEF792B850
S31508004B2000E200E0206B00200400004008BC0040C2
S31508004B3014A0004000000000044000409807080840
S31508004B4014A8004008ED00E000E100E008B00040CD
S31508004B5008B2004008B4004080E200E000000020EF
S31508004B6094ED00E000800040736C6565702E63006C
S31508004B7010B5144C207858B91348018808237F22A9
S31508004B80201DFCF723FB201D00F011F801202070E2
S31508004B9010BD10B50B4C01460822201DFEF754F92E
S31508004BA0201D00F004F80120207010BD074880B5CC
S31508004BB0014608220648FEF747F9BDE80140FDF719
S31508004BC0EEBA00000C7D0020285B0308107D00204B
S31508004BD0187D00202DE9F041454C464EDFF8188136
S31508004BE0002020654FF40055356002202060E560FE
S31508004BF0002020654FF48047206D40F06000206556
S31508004C000E2000F01BF888F8000000206065376069
S31508004C1004202060E7601620384908600020606597
S31508004C20606D40F060006065162000F007F888F8AF
S31508004C300100334805600760BDE8F0810E2802D000
S31508004C40162802D009E02F4800E02F48006880099E
S31508004C5000F0010080F0010070470020704710B591
S31508004C602348254C4FF40051C160022101600E20F3
S31508004C70FFF7E4FF227801468A4218BF21700DD15A
S31508004C80501E8041C00F20700E2021780AF0CBF903
S31508004C902178481E8041C00F20702178BDE8104059
S31508004CA00E200AF0C0B910B51148134C4FF48041D4
S31508004CB0C160042101601620FFF7C0FF6278014633
S31508004CC08A4218BF61700DD1501E8041C00F6070B6
S31508004CD0162061780AF0A7F96178481E8041C00F4E
S31508004CE060706178BDE8104016200AF09CB9000093
S31508004CF014A8004080E100E0B27F002020BC0040FC
S31508004D0000E100E008B2004008B4004010B50446CF
S31508004D10FDF780FF4B49302008604B4908604B4936
S31508004D20086010204A490860200A0028494808BF38
S31508004D3024024FF20F0104804180BFF35F8F46487B
S31508004D4000210160416045484549086010BD454855
S31508004D500168C90708D5444A03211170016C49083E
S31508004D6049000164012101600168090703D5016C46
S31508004D7021F008010164704780B5002000F009F8A9
S31508004D8030B9BDE80440FD210FF2F400FDF75ABF23
S31508004D9001BD2DE9F042354C216842428D1815F0C7
S31508004DA01F0108D0002802D44842054403E04842BF
S31508004DB0284400F120052E48A5F12006A84224BF64
S31508004DC02C48864203D3EFF30880854201D300209E
S31508004DD02DE0FDF71FFF81462748006810F0010700
S31508004DE018BF07F096FE206801468D4206D2A842F3
S31508004DF024BFCD2100F80119F9D206E02038002297
S31508004E0001E000F8012B8842FBD32560304607F005
S31508004E1085FEE22001E006F8010BAE42FBD30FB196
S31508004E2007F060FE4846FDF707FF20682038BDE812
S31508004E30F0820E48006870470C48006820387047B2
S31508004E400E4870473020004030C8004030C000404F
S31508004E5010E00040000000201C4000400400FA0555
S31508004E600CED00E018A00040C57F0020606200201D
S31508004E7058520020401F002094ED00E0000000205A
S31508004E806D6963726F2D696E7465726E616C2E63DF
S31508004E90000000009D48016C41F4C04141F0090141
S31508004EA001644FF6FF710160202099490860704738
S31508004EB070B5012815461E4636D113293CBF0FF298
S31508004EC08420415C08096422504301F00F010B2934
S31508004ED003DA884006E00A2250430A46511ED2B237
S31508004EE00B2AF8DA01460120FCF7CAF801001CD1A2
S31508004EF0300907280CBF00200220012D08BF40F00A
S31508004F00180003D0022D08BF40F0080006F00F0174
S31508004F1002298049A8BF40F0040088600120086083
S31508004F20FFF7B8FF002062BD212062BD012800D02E
S31508004F30704720B57748006801280FD1FDF76AFE4B
S31508004F4005467548016841F006010160012000F038
S31508004F5099F82846BDE82040FDF76EBE20BD012819
S31508004F6004D16D48016821F00601016070470128E7
S31508004F7002BF6A488369012B07D021207047C3689E
S31508004F805B07FCD511F8013B036013465A1EDBB2DA
S31508004F90002BF4D1C1684906FCD50020704710B52E
S31508004FA00446FBF7F0F9012C03D15D48006840067A
S31508004FB0FBD510BD70472DE9F0435A495A4B51F8B5
S31508004FC020205A4C5A4DDFF86C81DFF8509118E0D2
S31508004FD0978838F81060761EB74224DAB2F800E0EF
S31508004FE096448EF806C0168835F8107006F1010C3E
S31508004FF09CFBF7F607FB16CCA2F800C09688761C31
S315080050009680D9F80C60B60739D5D9F80C60D9F866
S3150800501000C016F03806DBD0370707D4F70608D5E0
S315080050204FF0240E0BE04FF0230E08E04FF0270E4A
S3150800503005E0B6064CBF4FF0250E4FF0010E51F8AD
S3150800504020C0265C36B9BCF8006023F8106004F866
S3150800505000E0D6E733F81060ACF8006004F800E02A
S31508005060BCF80260BCF800E0B6452FBFAEEB0606FA
S3150800507038F81070BE1B7644ACF80460C1E7BDE88A
S31508005080F083704770B52C492C4A51F82010234BF1
S315080050900FE04C880C44A4791C604C8832F81050F8
S315080050A0641C94FBF5F605FB16444C808C88641E3C
S315080050B08C808C8814B1DC686407EAD470BD2049FA
S315080050C014480A6842614A688261896881600121D8
S315080050D001600120DEE638B50C4C0FE046F2297077
S315080050E00542256003D0A9B20120FFF764FF41F607
S315080050F0D60005421CBF0120FFF7C4FF2068216CBB
S3150800510011EA0005EAD131BD0000000008A80040F8
S3150800511000E100E054C8004048A800403CC80040F0
S3150800512048C8004040620020107600200C76002017
S31508005130F85700088C46030830620020F05700082C
S31508005140246B0020306090C0C1C2C394C495C55C6E
S3150800515096C6AC9798990D00FBF728BB70B5044620
S3150800516043380FF2880508D0401E012809D9801E49
S3150800517001280ED9C01F31D02AE0BDE87040FEF7DD
S315080051800ABDFEF7DFFC20B1FEF705FD0028FBD1BE
S3150800519070BD134E307808BB012030700020FDF733
S315080051A05FFF442C11D00CD3462C05D00DD3472CC9
S315080051B007D140F6010001E040F60200FFF7A6FD20
S315080051C003E072212846FDF73DFD0020307070BDD2
S315080051D02846BDE870408421FDF734BD70BD000047
S315080051E0B97F00207047704700000000656D626552
S315080051F0722D626173652D636F6E6669677572617C
S3150800520074696F6E2E63000030B52348016800206C
S31508005210002201249440CBB2234213D00FF2880017
S315080052201E4C30F8120006284CF23C324FF20F039F
S315080052301DD16088984216D12188080A0B2812DAEF
S31508005240084612E0521C92B2082AE2D31449088191
S3150800525040F201720889904204D11248D0E900232D
S31508005260C1E9002330BD4FF4C0606280EEE740F22A
S315080052700725A84201BF618899422188A942E5D13C
S3150800528062800846E2E706480089000A7047044833
S3150800529000897047024870472C0000400000002033
S315080052A09C6A002090000020010402040103010505
S315080052B0060007020309010972B6704762B670470D
S315080052C00AF03EBB03460A468CA10420FFE70CB44D
S315080052D080B502AA00F039F801BC5DF80CFB00B5F0
S315080052E089B0FDF757F900210791069105910491B8
S315080052F003910291019102468149009100230FF220
S3150800530014210120FFF7E3FF7E48C178437802782D
S3150800531003918168029181880191817800914320E7
S315080053200FF2FC11FFF7D3FF09B000BD76490870EC
S3150800533070470C2200217548FDF7E8BD734931F81E
S315080053401020521C21F8102070472DE9F04107461D
S315080053506D480078A2B00C469046002690B93800F1
S3150800536018BF012F0ED0042F18BF052F0AD0312FD2
S3150800537018BF332F06D0372F1EBF3B2F4FF6FF71AE
S315080053808F4275D10AF0E7F9002871D0802202A968
S31508005390384600F078F8002C68D007E08DF804004D
S315080053A0012201A9002000F079F8641C2078010088
S315080053B05CD0A0F130020A2A05D20A2101FB0600B8
S315080053C0A0F13006F1E7422818BF44280CD0462839
S315080053D027D0572808D0622836D0662821D06C28CE
S315080053E01CD070281DD0D9E7422807D158F8042BBD
S315080053F06946012000F095FD01220DE0572858F86E
S31508005400042B694604D1012000F08BFD022203E03B
S31508005410012000F086FD04226946C3E758F8046BAC
S31508005420C3E758F8041B462807D10026885D0028DC
S315080054301EBF761CF6B2FF2EF8D1F2B2002000F09D
S315080054402DF898B90026B0E758F8047BB8B20028BA
S31508005450ABD001F0B1F90546B8B201F096F90146AC
S31508005460EAB2002000F01AF800289ED000F03AF8B8
S3150800547022B0BDE8F0810B461146122804BF184633
S31508005480FFF798BD704710B5214C61600146227040
S3150800549060680AF06FF9607010BD0000F8B5150075
S315080054A00C461B4E1CD07078317873680F1AFFB201
S315080054B0EDB2BD42B8BF2F463A4621461844FDF71D
S315080054C0C3FC707838187070ED1B3C44E8B238B1EC
S315080054D07068711C0AF0BFF90028E4D00120F2BDFB
S315080054E00020F2BD10B50A4C6068611C0AF0B3F9D9
S315080054F008B1012010BD607010BD000057460000BD
S31508005500187D002080460308BF7F0020747800209D
S315080055108078002042423870424242425742420056
S3150800552042424257444200002DE9F0470446884665
S3150800553091469A4600F04AF9002801BF25460FF21F
S31508005540AC20405D012821D1DFF8746256F8257039
S31508005550FDF760FB0021B98039807980FDF76CFB87
S3150800556006EB85000669FDF755FB0021B180318001
S315080055707180DFF850225155FDF75EFB53464A46C7
S3150800558041462046BDE8F047FFF792BC2120BDE81A
S31508005590F0872DE9F84381464C46DFF8240200EBF4
S315080055A0840088460669484600F010F908B10120CB
S315080055B037E0DFF81052285D05EB440760B1B8887C
S315080055C07188884208D1FDF725FB2E5D00212955F3
S315080055D0FDF732FB304624E04846FFF752FDB08817
S315080055E0F0B1FDF717FB71880FF20C223144897967
S315080055F088F800104FF6FF78718832F8142000F00A
