S01300007461726765742D7A726332302E7333377C
S31508002000A820002049490108294001082D40010857
S31508002010A70A090100220008040303AC205991000D
S3150800202000000000000000000000000000000000A2
S315080020300000000000000000000000000000000092
S315080020400000000000000000FFFFFFFFFFFFFFFF8A
S31508002050FFFFFFFF00E0020800000000000000008C
S31508002060FFFFFFFFFFFFFFFFFF000000000000006B
S315080020700000000000000000000000000000000052
S31508002080F02F002000000000EF2F0020EF2F002087
S31508002090A8200020905B0108484B0108481700203B
S311080020A03C0C0020000003080030002063
S31508002200A820002049490108294001082D40010855
S31508002210354001083140010839400108B04001083D
S31508002220B0400108B0400108B0400108B0400108BC
S315080022303D400108B0400108B0400108632D000880
S3150800224055E50008B040010813710008B0400108C0
S31508002250E1B50008CF6E0008B0400108B04001089B
S31508002260B15D00084B3C00086B360008A522000843
S31508002270B0400108237000086B700008B0400108E0
S3150800228037740008B0400108B0400108B0400108A2
S31508002290012100F01F029140314A400942F82010FE
S315080022A07047000070B52F4C2F4D60782968490794
S315080022B027D5032825DAA18804EB4002918101215C
S315080022C0A27801FA00F01043A070284A2078002866
S315080022D012D0002320FA03F6F60708D59940637052
S315080022E04840207004EB4300808A106009E05B1CBC
S315080022F0DBB2032BEEDB04E0106000F091F803205C
S3150800230060704FF6FF702860BFF35F8F70BD80B5B1
S315080023101448002101700022032141700021C17078
S315080023200521018100218170001D10490A604A605B
S315080023304FF400428A601022CA6048610120886111
S315080023400320C8600421084801644FF6FF71016044
S315080023500B20FFF79DFFBDE8014000F09FB8000085
S3150800236000E100E09822002010A8004004D00040B8
S3150800237000F0FDBB2248012181604EF6BE21416076
S315080023800121016070471F49012008607047A52890
S3150800239005D11B484DF6AD614160022101607047C9
S315080023A01748006810F0010018BF0120704780B573
S315080023B01549164A10200860154916480078030082
S315080023C00BD003280CBF00200120106040F65100F6
S315080023D00860002000F01EFE06E0022010604FF4A0
S315080023E00060086000F089FB0B48072101600021A6
S315080023F00164102009490860002002BD00000000A1
S31508002400006000400860004080E100E008000040ED
S315080024100C600040C42F002014A0004000E100E03A
S3150800242070477047DFF8F03433F810001040C840A2
S31508002430704730B50FF2A054DFF8E03434F8104096
S315080024409C601140DFF8D04434F810509543294376
S31508002450D96002221A6000221A6024F810105868FF
S315080024600028FCD130BDDFF8B824DFF8B8041278AC
S31508002470DFF8B4140AB149780EE0895611F1090F4C
S31508002480B8BF302108DBC16D39B1C26D40F24A319F
S31508002490B1FBF2F189B2C91E01607047E0B5DFF8F9
S315080024A08C0401880A2300F065F8BDF806104FF67B
S315080024B0FF720D20FFF7BDFF07BDF8B50546B5F558
S315080024C0004FDFF864441AD1DFF864040188022358
S315080024D000F050F8BDF80000000AFF2801D00100FE
S315080024E000D118206070BDF800000006C00E102844
S315080024F01CBF001D00F09DF9BDF80000C543DFF8BC
S315080025002064707808B1002005E0A089ADB2684063
S31508002510C00701D501207070DFF81804A58105F001
S315080025200104016841F4004101604FF440520FF282
S31508002530CC4000EB4400C5F340074078010389B25C
S315080025400220FFF776FF204600F0A6FD4022B901DB
S3150800255000F00CFA2D06A80E00F001003843307082
S31508002560FFF781FF707818B1FFF798FF00207070A9
S315080025700020F2BD7F22684600F002BE2DE9F04F2A
S31508002580DFF8B843DFF8B073207887B004230490E7
S315080025900C210B38C0B203906846039A00F06AFE15
S315080025A09DF800008DF80A009DF801008DF80900D5
S315080025B09DF802008DF808009DF803008DF80500C7
S315080025C0DFF87C030078012806BF607880F00105F3
S315080025D0012501F05AF982469DF9020003990AF18C
S315080025E00A06AAF10A09B042B6BF81454FF00108AA
S315080025F04FF0000801208840ADF806009DF801005C
S31508002600000604D47888BDF80610084201D04FF0B9
S31508002610010801F0D3F99DF8030000060AD4B8882A
S31508002620BDF80610084205D19DF90000B042B8BFB2
S31508002630814502DB4FF0010901E04FF0000948EA45
S31508002640050059EA000000F0A480DFF8F8B2BE4998
S31508002650DBF80000BD4E400800F001008DF80400CC
S31508002660BB48006800F4E06005904FF4E06008603D
S31508002670002001F08FFD00F0E4FBADB1607858B1A1
S31508002680DBF80000AE4940084000CBF80000012006
S31508002690087000F0B0FC07E0306840F40050306085
S315080026A0306820F480503060A5480078012810D1A1
S315080026B061780D4208BF01F0CAFEDBF80000A049A8
S315080026C040F00100CBF8000000200870642000F0FC
S315080026D092FC607880F00100054203D00498C0B2ED
S315080026E001F08BFF607838B1306820F48050306094
S315080026F0306840F400503060BDF80600C543B8F1B4
S31508002700000F08D002F064F88DF801008DF802A0D9
S31508002710788828407880B9F1000F08D002F009F9C6
S315080027208DF803008DF800A0B8882840B8809DF978
S3150800273000009DF90A10884202BF9DF801009DF825
S31508002740091088420BD19DF902009DF908108842AC
S3150800275002BF9DF803009DF80510884206D003992C
S3150800276004236A46C9B20C2000F095FD05987849FD
S31508002770086000F0C5FD9DF8040001F00BFD02F0AD
S31508002780F8F9607828B148F260703060642000F08B
S3150800279032FC9DF8010001F087FF9DF8030002F066
S315080027A0C3F807B0BDE8F08F80B501F061F8BDE861
S315080027B00140E3E601F05CB870B5064601F052FC4C
S315080027C00546A6F10B001028A6F10B0401D38A20B2
S315080027D070BD60488168090702D40068C00701D542
S315080027E08C2070BD554806705B4801680C290FD0CF
S315080027F00FF27C11594A92F90020A4B231F824103C
S315080028005118C161FFF7BAFE012D08BF01F0BBFBE5
S31508002810002070BD10B5044601F02AF82046BDE830
S315080028201040C9E74548007870473F4890F90000CE
S3150800283070472DE9F041044614F12B0F86B048DBAA
S31508002840474801881423FFF795FEBDF810004FF698
S31508002850FF71884203D0400448BF012606D43F22B0
S3150800286000211020FFF7DEFD0546002604F12B02A5
S315080028702F2A2D483B491AD213220FF2341300E0AF
S31508002880521ED2B213F91270BC42F9DB03EB4204B2
S31508002890032764780C60002413F8121001700021D5
S315080028A08846C6B1BDF810104FF6BF722AE0092C4B
S315080028B00FDA025D0A60047014232B480188FFF7BB
S315080028C059FE4FF4C0514FF480744FF08008282702
S315080028D0E7E78B201BE04FF4605200F047F84FF40F
S315080028E0E062214600F042F88022414600F03EF8B8
S315080028F085F020003D18ADB2402DA8BF3F253F22E8
S3150800290085F0200100F032F8FFF7ADFD002006B093
S31508002910BDE8F08100000000782C0020E810004097
S31508002920CC2F002064100040282200207E59010880
S31508002930885901081C1000405A2300208D220020C7
S31508002940702200208020004080E100E0D010004086
S3150800295000E100E060200040AC100040CB2F0020D2
S315080029607A590108C01000407C5901080B2060E51F
S31508002970AA2129005523290000252800AA26270070
S3150800298055282700002A2600AA2B2600552D2500A3
S31508002990002F2400AA3024005532230000342200D8
S315080029A0AA3522005537210000392000AA3A20000E
S315080029B0D500E601EC02EF03F204F405F506F70785
S315080029C0F808F909FA0AFB0BFC0DFD0FFE11FF13B7
S315080029D000160119021C031F100011002000300008
S315080029E04000410050006000700080009000A00088
S315080029F0B000C000D000E000F000000000000103B5
S31508002A00DFF89C145120086070472DE9F041DFF883
S31508002A1094640546F0780428B4BF302760274FF43D
S31508002A20F070B0FBF7F41E2D24B201DB281B04D589
S31508002A30A8B2BDE8F04100F0DEBA02F0D5F800F021
S31508002A4028F870700721DFF86004DFF8602400F0CA
S31508002A5047F8291B09B27943C91C8908491EDFF8BA
S31508002A605054DFF83C7441602E6800F0ABF83C68BF
S31508002A70386820F04000386002F0BCF83C602E60F0
S31508002A8002F0BCF800F0D2F94046BDE8F04102F089
S31508002A90BDB88046012080F31088704738B5DFF846
S31508002AA00414C9780429B4BF302460244FF4F071A3
S31508002AB0B1FBF4F1451A1E2D04DA9C210FF23840B9
S31508002AC002F0AAF8DFF8E003DFF8E023072100F0B8
S31508002AD007F805FB04F1C91C8908491E416031BD88
S31508002AE001600021416081604FF0007111607047FC
S31508002AF0DFF8B02301215170D0E72DE9F041DFF866
S31508002B00B453DFF8B46300242C6034604FF4A0405B
S31508002B10706041F29A084046FFF777FF686844F606
S31508002B209041081A00B24FF4487190FBF1F000B2D8
S31508002B300828A8BF072004DA10F1080FB8BF6FF0FD
S31508002B400700306008274046FFF75FFF4046FFF75B
S31508002B505CFF686804197F1EF8D1211DDFF85C0345
S31508002B60C908B0FBF1F080B27060BDE8F08138B5F5
S31508002B70D34D01206FF00F04A8602C608020FFF76A
S31508002B8044FFE868FF2802D8641C102CF5DB31BD29
S31508002B9070B5CC48C64D016841F0010101600121BC
S31508002BA0416002F021F82E68044600F00BF8BC4993
S31508002BB0512008602E6002F021F82046BDE87040DA
S31508002BC002F024B8286840084000286002F016B8C9
S31508002BD010B5B44C0120207000202071BA488169D4
S31508002BE001F00301032907D10020A070042000F09A
S31508002BF060F80120207110BD0F210160022181615A
S31508002C000120E0706420BDE8104071E72DE9F0412D
S31508002C10AE4CAD4EA088A34F4FF6FF78404540F224
S31508002C20DC551CD1AA48018802237F22201D00F00A
S31508002C30A7FAA088404504BF0220A080B069800793
S31508002C4003D4B06940F00200B0610120B870A088D2
S31508002C5030602846FFF74CFF2846BDE8F081B26988
S31508002C609207EED5BA78002AF6D1B268B36812F0A0
S31508002C70010203D10F2809D2401C06E09B0705D59F
S31508002C8023781BB1032801DB4044A080A08822706A
S31508002C900228BCBF0220A0803068A1888842D4D10F
S31508002CA0B06900F00300032818BFFFF771FF002082
S31508002CB0D3E72DE9F04780460024794D7C4E01F094
S31508002CC093FF8146FFF7E6FE4046FFF79FFF08B9E8
S31508002CD001240AE000F0AEF8D5F800A000F006F9E5
S31508002CE0C5F800A0376001F089FF00F09FF8484654
S31508002CF001F08CFF002CE2D0BDE8F0870220D8E76F
S31508002D0069486A4A002141608160016821F0020130
S31508002D1001600021634841704FF0007111608178AD
S31508002D2009B100218170C178012914D169490122AC
S31508002D300A60694A1268D20748BF03210FD40222E3
S31508002D40C270086C40F001000864042063490860FA
S31508002D50634908607047C178042901D10521C1700B
S31508002D60704750484078002818BFFFF7C9BF00F0E1
S31508002D7043BF2DE9F8434B4C207908B354E001F0E2
S31508002D8033FF0546FFF786FEE078032813D0484E42
S31508002D90DFF80C8100F04EF8D8F80090D8F800005B
S31508002DA020F04000C8F8000001F024FFC8F80090A1
S31508002DB0376001F023FF00F039F8284601F026FFB6
S31508002DC0E0780328DBD1414E3F4DB08828604FF6A6
S31508002DD0FF777088B8420CD14248018802237F22C7
S31508002DE0B01C00F0CDF97088B84202D1642070801A
S31508002DF001E0708878B170883B494A6D42F001025B
S31508002E004A650A68AB68DB07FBD50B689B1AC3F3F0
S31508002E1013038342F6D3FFF7BBFE0420E0704FF49A
S31508002E20C870BDE8F24363E6BDE8F183002080F38D
S31508002E30108870473768306840084000306001F0F5
S31508002E40DDBE2DE9F843174C2179207881F0010180
S31508002E50084219D120E001F0C7FEFFF71AFEE07814
S31508002E6005280CD0124E0E4DFFF7E4FFD5F800905A
S31508002E7000F03CF8C5F80090376001F0BFFEFFF798
S31508002E80D5FF404601F0C2FEE0780528E3D10020D0
S31508002E90A0700520FFF70DFF00202070BDE8F18324
S31508002EA000800040DB2F002010E000E004ED00E089
S31508002EB094ED00E0104000400C0000400060E3166E
S31508002EC0084000401C400040044000405A220020B0
S31508002ED08A59010818A000400C40004080E200E032
S31508002EE000E100E08E59010838200040286820F0EB
S31508002EF04000286001F07EBE636C6F636B732E63BF
S31508002F000000000010B5002001F039FE5A4C40F6CA
S31508002F108C2188422068B4BF40F0080020F00800E1
S31508002F20206010BD10B504465448018882B000F0F0
S31508002F305DF89DF800109DF80100FF2902BFFF28E3
S31508002F400420002122004E4A136818BF801C23F46F
S31508002F506073C0B20828A8BF072043EAC0101060F3
S31508002F6008291068A8BF0721C00841EAC0001060F8
S31508002F704448047013BD444800B5018883B000F086
S31508002F8035F8BDF800004FF6FF7188420EBF4FF4C2
S31508002F90E1600A2190FBF1F0ADF8000039480078AD
S31508002FA008B33648018802237F2201A800F0E8F812
S31508002FB09DF80500BDF80030FF2808BF0420811CD5
S31508002FC0C9B20829A8BF0721C1F12F0202EBD272A4
S31508002FD0C0F12F00521000FB0320C1F12F01B0FBF6
S31508002FE0F1F0ADF80000BDF800000EBD02237F2207
S31508002FF0684600F0C5B825490A68032809D34B6D09
S3150800300043F001034B650B689B1AC3F31303834212
S31508003010F9D3704710B5040004D110BD4FF47A7087
S31508003020FFF7E9FF2046441E80B20028F6D110BDFE
S31508003030704720B1012807D0032818D019E0144892
S3150800304001B11721016012E049B1480800F1B770D3
S3150800305000F55850B0FBF1F0B0F1011F01D3202064
S3150800306070470C4900F001024A60400808600020D9
S31508003070704721207047000000BC004080590108B5
S3150800308018000040CE2F0020825901083820004041
S31508003090100004E068C80040F0B5044689B0002076
S315080030A0FFF740FF284801880A237F22684600F078
S315080030B067F8BDF802004FF6FF75A84204D1DC2177
S315080030C00FF2900001F0A8FD00260FF2A00701E01C
S315080030D02A4616B94FF47C4203E0022E08BF4EF288
S315080030E03F023DF81610B85DFFF7A3F9761C052ECA
S315080030F0EED3012C03D114237F22144802E01423B3
S315080031007F22134801880FF26C0703A800F038F8ED
S3150800311000262A4608E02A46012E08BF4FF6C07246
S3150800312002D0082E08BF002203A830F81610B85D92
S31508003130FFF77FF9761C0A2EEDD3012C04BF012078
S31508003140FFF7F0FE09B0F0BD7E5901087C59010869
S315080031507A590108616E616C6F6775652D63656CD8
S315080031606C2D626961732E630000000000100C0D5F
S315080031700E000000010203040708090A0B0F0000ED
S3150800318030B5044610467F2808BF00204BF234624B
S31508003190914283B01AD108237F2240F6120168466D
S315080031A0FFF7EEFF08220FF23C01684601F080FEA9
S315080031B030B908237F2240F2A2716846FFF7E0FF84
S315080031C008226946204601F029FE37BD044D2943E9
S315080031D000FB03111A46204601F020FE37BD000009
S315080031E000000408FFFFFFFFFFFFFFFF30B50FF2E7
S315080031F00411DFF8F8500A6883B001A800240260B9
S3150800320001202870002001F065FE30B1002001F091
S3150800321061FE10B12C7049203EBDDFF8D40001884C
S3150800322002237F220DF1020000F024F802237F22F8
S315080032300021684600F01EF8002001A9BDF802200A
S3150800324031F81010914208BF0124401C0228F4D31B
S31508003250BDF8000024B1B0F57F7F07D100203EBD40
S31508003260B0F57F7F14BF0420062000E00720002168
S3150800327029703EBD10B5FF2908DCDFF870402478B8
S3150800328044B1BDE81040C9B202F02EB9BDE81040FD
S31508003290FFF776BF10BD2DE9F0410546FF2D0E4616
S315080032A0174698460FF2500012DC104C2178A1B14F
S315080032B0617811B1C02101F0AFFC0120607043466E
S315080032C032463946E8B202F07CFA0020607004E023
S315080032D0BDE8F041CB2101F09FBCBDE8F081034970
S315080032E00978002918BF02F078BB7047C92F00205B
S315080032F086590108FE01FD02746F6B656E2E630028
S3150800330010B5DFF854461020206301F06DFCDFF895
S315080033104C160A6842F001020A6001F077FCDFF8F1
S315080033204006606020608A306168893161600121E9
S315080033302163E060A060DFF82C16E0688930E06061
S31508003340022020634FF6FF70086010BDDFF81806EC
S3150800335045F26401C1601E21416250210162C82103
S31508003360C1618165F021C16545F6900141668821F4
S3150800337081660621C16644F2066101604FF6FF7157
S315080033804160DFF8E805007838B1DFF8E40548F26F
S31508003390607101604FF4C1514160DFF8D8050168DA
S315080033A041F0040101600020DFF8CC154870704731
S315080033B0DFF8B0050068C00700D408E07047DFF8FA
S315080033C0A405006810F0190F00D100E0704700212D
S315080033D0002002F033BC2DE9F0478046DFF89C1543
S315080033E0012002F0BEFC8A21DFF8740501FB08F112
S315080033F04518681C4178007800EB0126DFF880152F
S31508003400DFF880050978017000EB0809002089F8C3
S315080034100200B6B2B00603D5DFF86C45606E00064A
S3150800342040F18180002006F00701032953D106F4F4
S31508003430406306F44041B3F5806F1CBFB1F5804F79
S31508003440002948D00422B3F5006F08BF082203D02C
S31508003450B3F5406F08BF0E2273065CBF921CD2B24A
S31508003460B1F5004F0CBF971C02F10807FFB27B1C91
S3150800347003EBD373DB054FEA136A5FEA080314BF4D
S3150800348063682368534526D3A818B1F5404F02D17F
S3150800349002F0BEFD06E04078A95C01EB002080B290
S315080034A002F0B4FD010016D0310714D45FEA080112
S315080034B014BF616821680AF10102914207D2E168E6
S315080034C05FEA080214BF022201221142EED1E95D29
S315080034D0042918BF0020E16D090901F0010188429D
S315080034E089F802101FD00028A06C4FF400614FF431
S315080034F080620BD0B8F1000F08BF1146084212D0FF
S31508003500606C40F00100606401200AE0B8F1000F29
S3150800351008BF1146084206D0606C40084000606447
S31508003520002089F80200BDE8F0872DE9F84F044627
S31508003530DFF85454DFF84C6420000CBF286868682C
S31508003540C1B2052905DAFFF733FF7068401C7060C1
S3150800355089E040008DF800008A2000FB04FBDFF8B4
S3150800356000849DF8000008EB0B09484410F8081D74
S31508003570427802EB01211FFA81FA8178663181705F
S31508003580317819B9DFF8F813097831703178DFF82E
S31508003590D4730170002131704170386C20F480506A
S315080035A038642000686E02D17868400504D4012C7E
S315080035B023D17868000520D5FFF7FAFEDFF8CC039B
S315080035C0017891B1002101701AF4E45FDFF8C003B5
S315080035D0016802D00022402005E099F801000009A0
S315080035E000F001028F2002F070FD20000CBF4FF49E
S315080035F080604FF40060786030E01AF4E45F2BD105
S3150800360000F0C5FD10B15FEA4A4025D518F80B0051
S31508003610802821DA386C99F80110890626440ED5D7
S31508003620696E09060FD4A96CC9060CD4396822003C
S315080036300CBF80224FF480720840104203D1FFF776
S31508003640B7FE0020B070B2789DF80010484602F028
S315080036500BFE0020B07001E0FFF7AAFE002C0CBF9D
S31508003660012002202861BDE8F18F2DE9F84FBD4CF5
S31508003670DFF814632068216CDFF818A3DFF8FC82F2
S31508003680DFF8149301EA000538E060B18A22B448ED
S31508003690514308444078C00605D4BD480168002255
S315080036A08F2002F012FD280608D50FB9FFF780FE15
S315080036B002F07CFD802025F080052060E80509D50C
S315080036C00FB9FFF775FE02F071FD4FF4807025F40F
S315080036D080752060680407D50FB9FFF769FE4FF4B7
S315080036E0804025F480452060280407D50FB9FFF7E8
S315080036F05FFE4FF4004025F400452060002D00F0E1
S3150800370083800027280706D50020FFF764FE0820D7
S3150800371025F008052060E80606D50120FFF75BFEC0
S31508003720102025F01005206005F06000602803D100
S31508003730B06CC0050AD401E0A80605D52020206093
S3150800374025F02005002006E0680606D54020206002
S3150800375025F040050120FFF7E8FEE80413D54FF4ED
S31508003760805020600820D9F800B0C9F8000025F478
S315080037708055D9F80400000548BF00F057F91FFA2C
S315080037808BF0C9F80000E8078DD5012020606D0888
S3150800379002F07BFA6D0078B14FF448724146012079
S315080037A002F082FA02F0F8F940054CBF0320012026
S315080037B0002102F043FA01279AF8010008B100F047
S315080037C0FBF89AF80000002806D000F055FC0128FE
S315080037D007D16E48007800283FF465AF6F48007837
S315080037E004287FF460AFF068400800F00101002962
S315080037F014BF7068306810B92068C004F7D500296E
S3150800380014BF7068306840E700202060BDE8F18F7B
S31508003810634800687047F0B506460D4689B0002132
S31508003820032001F04FF904AC08E034F811205040A9
S31508003830491C08293080F8DB6D1EB61CE8B290B129
S31508003840002701F05AF924F8170001F056F96946DD
S3150800385021F817007F1C082FF3DB04A802F06AFE84
S3150800386000200021E5E701F084F9012009B0F0BD48
S315080038700321022001F026B94FF6FF71081A292103
S3150800388090FBF1F03A3040B2704738B501F035F99F
S31508003890FFF7F2FF434D04462878B0B90321032009
S315080038A001F010F94048018802237F226846FFF795
S315080038B067FC01F022F9BDF80010401880B2FFF746
S315080038C0DBFF153868700120287001F052F9687816
S315080038D0201A40B232BD80B50321022001F0F2F869
S315080038E0BDE80140D1E770B530480078002490B9AA
S315080038F0FFF7F1FF204E0546707848B13078401B37
S3150800390040B202F020FE0B2805DB3570012402E0E8
S31508003910012035707070204670BD254800787047C4
S3150800392023490B78984200D1704780B5087040B19A
S315080039302049002008600948016821F080010160DB
S3150800394001BD00F05BFC00F031FC00F0E3FBBDE8D4
S31508003950024000F0C7BB0000002000408420004061
S31508003960A02E002000A000404C1000408E2200200F
S31508003970D010004080200040D32F0020BF3300081D
S315080039808D2200209C2C0020202000407C2D002029
S31508003990842D0020CF2F0020B82000406F22002061
S315080039A038200040D12F00208459010870220020B9
S315080039B0D52F0020541000407047000010B50D4860
S315080039C0018884B00A237F226846FFF7D9FBBDF831
S315080039D000004FF6FF74A04204D14E210FF21800E2
S315080039E001F01AF9BDF8001022460020FEF721FD65
S315080039F01FBD00007E590108616E616C6F677565B1
S31508003A002D66696C7465722E63000000DFF8F40792
S31508003A10007848B1DFF8F0070179012904BF407939
S31508003A20042801D10120704700207047DFF8DC0721
S31508003A30016821F480510160DFF8D407017881B16B
S31508003A4000210170DFF8CC170A68520852000A6094
S31508003A500A6842F001020A6000228168402002F0EA
S31508003A6034BB7047010644BF4FF6F83101EAC0007F
S31508003A707047491C800189B2B0FBF1F080B2FF287B
S31508003A808CBF0020C0F1FF00C0B2704738B5DFF820
S31508003A908007C17809B1002032BDDFF88047617818
S31508003AA071B1E178007945182079ADB28542A8BF91
S31508003AB0054602F062FD0121A940491E084000E0C2
S31508003AC0002061790818C0B232BD2DE9F0470446D6
S31508003AD0C00705D540F27B110FF2C47001F09CF8BF
S31508003AE0DFF83C57286DC00748BF8C2000F182805C
S31508003AF0DFF81C07DFF8247700210170417829B91F
S31508003B00397819B1A96F41F0010102E0A96F490896
S31508003B104900A967DFF8F0867A7898F80610DFF882
S31508003B200497DFF8046792B1002202710129286D13
S31508003B3040F00400286506D14FF6FF7030604FF458
S31508003B400070C9F80000FFF7A1FF82460CE0286D57
S31508003B5020F00400012928654FF0000A04D100F07E
S31508003B604FFA6420FFF747FAA86F20F00800A86705
S31508003B701420E864C5F848A0787838B198F80600A3
S31508003B80002801BFA86C00280120A864B87900287D
S31508003B90286D14BF40F0080020F008002865FFF7DC
S31508003BA035FF18B1306C40F00800306420202862D8
S31508003BB06C602C604FF4E06468687F3068600420AD
S31508003BC02862DFF86806046006E002F0E7FC18B130
S31508003BD002F0ECFC01F008F8DFF85406006800F083
S31508003BE003000328F1D0C9F80040286D40F0010011
S31508003BF028650020BDE8F087DFF838060021416017
S31508003C008160016821F0020101604FF00070DFF861
S31508003C10281608600120DFF8241608707047A0F1FE
S31508003C203301DFF81C26914200D3704710B5DFF840
S31508003C300C4600212170FEF731FF02E0012002F058
S31508003C40C3FC20780028F9D010BD2DE9F84FDFF81D
S31508003C50F465DFF8BC557068716CDFF8C475084008
S31508003C601FFA80F8C6F804806878002840F0DB80E0
S31508003C705FEAC870DFF8D045DFF8A09553D5D7F8C6
S31508003C8000A0386C796C41EA0041A96099F80000F7
S31508003C90002844D09AF80100800640D501202870F3
S31508003CA04FF480503060306C40F480503064FFF739
S31508003CB0ADFEC0B31920FFF79EF9DFF890B54FF4B3
S31508003CC04040CBF82800DBF800000090E06E40F496
S31508003CD00050E066E06E40F48050E0669AF8001006
S31508003CE0A8684901B83101EB000AFFF791FDAAEB74
S31508003CF00000C0F31300FFF792FFE06E8009800111
S31508003D00E066E06EBDF800100843E0660020CBF8D8
S31508003D10280048F26070E066E888206003E0002228
S31508003D20002002F0D2F95FEA08600CD5287830B195
S31508003D30002028700022A968402002F0C6F9306CDD
S31508003D4020F4805030645FEA486008D5687830B956
S31508003D50FFF75EFD01460022892002F0B6F95FEA08
S31508003D60C86052D5DFF8A0A4DFF8B8B49AF8040002
S31508003D70012804BF9AF8061001291FD100F067FB35
S31508003D80386F40F0010038674FF0000800208AF8C5
S31508003D900600FFF7B5FA0A20FFF72DF94FF6FF7070
S31508003DA070604FF4E060CBF800000920B866012087
S31508003DB0B864B86F40F00800B86718E02979491C5C
S31508003DC02971C9B299F80220914215D2012808BF73
S31508003DD000F0D9F8B86F20F00800B8671420B86664
S31508003DE0FFF754FEB8644FF40070CBF80000386D46
S31508003DF040F00100386508E0687830B9FFF708FD3B
S31508003E00014600228D2002F060F95FEA08700AD5A3
S31508003E10FFF7FCFD38B12068E88001202060706C4F
S31508003E2020F0080070645FEA88600AD520203862AE
S31508003E30687830B9FFF7ECFC01460022882002F0CA
S31508003E4044F9687820B118F4407F04BF0120A870AF
S31508003E50BDE8F18FDFF8B4130028086814BF40F4F2
S31508003E60404020F440400860704770B582B005466F
S31508003E70FEF7A0FCDFF8E003DFF89843DFF8886375
S31508003E80002101601521E160092101651F214160BA
S31508003E9001210166DFF8BC030088FEF70EFBFFF779
S31508003EA055FA02F0BBFE00F038F9308900F062F9E5
S31508003EB0708900F067F900F097FE616841F04001EB
S31508003EC0616000F0A3FE707800F0F8F8B07800F0B2
S31508003ED009F9DFF88803007800F036F9DFF880037F
S31508003EE090F90000FEF7A5FC307800F053F996F932
S31508003EF0030000F05BF9DFF86C0300F079F9BDF810
S31508003F000000DFF86413C0054CBF0020BDF80000B0
S31508003F100870DFF858030078FEF74EFC28B140F227
S31508003F20C2310FF27C3000F077FE012D04D12068F3
S31508003F30C00748BF00F027F86DB92068C0070AD443
S31508003F4000F085FA206840F001002060C820FFF7DD
S31508003F5052F80020B071F120DFF8CC52286440F204
S31508003F60F910E86301F091FEFFF774FFFFF7C8F94F
S31508003F702068C00704D54FF6FF70286000F06DF87A
S31508003F80FEF75FFF73BD70B5DFF8E452DFF87842DD
S31508003F902E68A079012832D000F026FE48F2D0011A
S31508003FA029606A68520509D548F222022A606A68B9
S31508003FB0D205F5D529606A685207F1D4B6B2DFF89A
S31508003FC06C222E604FF4E0611160DFF884120A6AF1
S31508003FD0520852000A620A68520852000A600A68C1
S31508003FE042F002020A604A6A42F001024A6201216C
S31508003FF0A17100F00BFEBDE8704000F01ABA70BD62
S3150800400070B5814CA07938B300F021FA00F0ECFDC8
S315080040100546DFF86012804E01200860306D40F0DA
S31508004020010030650020A071FFF76AF92020306092
S31508004030306B40F002003063F06D40F00800F06528
S31508004040284600F0E3FD0A20FEF7D5FF76494FF62D
S31508004050FF70086000F001F870BD4FF4E060714928
S315080040600860704768488079704767480079012872
S3150800407008BFFFF788BF704763480079704780B567
S31508004080022801DB012002BD5F490871897988424F
S3150800409005D010B9FFF7B4FF01E0FFF774FF002061
S315080040A002BD75480068800200149A3801B211F101
S315080040B0800FB8BF6FF07F0040B2704710B5044656
S315080040C000F092FD6D490A68002C04D042F01202F5
S315080040D00A60012103E022F012020A6000214A4A1E
S315080040E0517040E038B5054600F07EFD0446FFF7FE
S315080040F014FC40B961482900016814BF41F08001E9
S3150800410021F080010160404885702046BDE83240B4
S3150800411000F07CBD3C488078704759494A780B784E
S31508004120584803EB022202608B78CA7803EB022216
S3150800413042600B794A7903EB02228260CA7989794F
S3150800414001EB0221C160704710B5044600F04CFD32
S315080041504A4922000A6814BF42F0200222F02002CF
S315080041600A603E490C70BDE8104000F04FBD264875
S3150800417000897047244908814349086070472248E6
S31508004180408970472049488140490860704740483F
S31508004190007870471F4902000A6814BF42F00202FD
S315080041A022F002020A6018490870704738B50446BA
S315080041B07F2C0AD1374800F01BF8BDF80000C0056F
S315080041C054BFBDF800406FF04A0400F00DFD0546E7
S315080041D0FFF7A3FB30B964B204F19A0080052E49B3
S315080041E0000C08600848C470284600F00FFD31BD71
S315080041F0018802237F226846FEF7C2BF024890F96B
S3150800420003007047E72F00206A22002040A00040E4
S315080042107C2D0020802000403020004040220020D5
S315080042201020004000E100E004A0004080E100E02A
S31508004230A820004010E000E004ED00E0E82F002090
S31508004240CDFF070000A0004064100040E4100040C5
S3150800425060200040342200205C100040E62F002039
S31508004260282200208C590108CB2F00208D220020FF
S315080042701C100040281000400C100040842000400C
S31508004280AC2C00209820004094200040902000404C
S3150800429090220020905901085410004070470000F1
S315080042A07068792D636F6D6D6F6E2E630000000068
S315080042B038B50120FEF7AAFC0020FEF733FE824C33
S315080042C0206840F008002060FEF754F8FEF71AFE52
S315080042D07E4900F03AF88D78DD608D880560CD88D6
S315080042E0456000F029F800F0A4F8206820F01000D6
S315080042F02060FEF70CF802F0E9FD02F04DFEFEF72D
S31508004300FDFCFEF735F8BDE83140FEF750B840F23F
S31508004310016002F0DDBE10B502F0B9FF02F0C1FD82
S315080043206B4900F012F88C78DC608C880460CC88C5
S31508004330446000F001F810BD088910604889506093
S3150800434088891860C8895860704762480A78C260C8
S315080043504B78614AD360614B704710B5FEF738FC5D
S31508004360FEF7D0FD00F011F800F008F8FEF701FDA1
S3150800437002F0A0FDBDE8104002F0A5BF5248016852
S3150800438021F010010160FDF7C2BF504951480A7873
S31508004390C2604B78504AD360504B8C78DC608C886E
S315080043A00460CC8844600889106048895060888910
S315080043B01860C88958603CE0F0B50F249D0004FADF
S315080043C005F51668284215D0002505EB830720FA5F
S315080043D007F7FF070BD5AF0004FA07FC26EA0C0619
S315080043E031F813C004FA07F707EA0C073E436D1CB9
S315080043F0042DEADB1660F0BDF0B5FF24DD00AC4005
S315080044001668204213D00024012504EBC30720FABE
S3150800441007F7FF0708D505FA04F7BE43CF5C05FA88
S3150800442004FC0CEA07073E43641C082CEDDB166007
S31508004430F0BD38B50021002001F000FC01F028FC91
S31508004440284C2068002801D0214D0AE031BD38B536
S3150800445001F01FFC234C2068002801D01B4D00E00A
S3150800446031BD214A00232946FFF7C6FF20681F4AA7
S3150800447001232946FFF7C0FF20681D4A0223294663
S31508004480FFF7BAFF2068134A002300F037F82068C0
S31508004490134A012300F032F820680F4A022300F07D
S315080044A02DF82068134A032300F028F820680B4AE1
S315080044B0042300F023F82068291D01B0BDE8304028
S315080044C005230D4A78E7000000BC0040E8200020DC
S315080044D0F820002000B0004000B4004000B80040BA
S315080044E004B00040942300200CB000400CB40040F7
S315080044F00CB8004004B4004004B80040291D5BE72E
S315080045000320FEF7ECBE80B503F063F801460FF210
S3150800451070000B2938BF00EB810002BD80B503F09F
S315080045205CF80FF288010204120E51F8221000F00E
S31508004530FF0001EB800002BD0000000010B503F08B
S3150800454048F8044603F049F8C0B208B9012C07D167
S31508004550072C11D8DFE804F004100608080A0C0E28
S31508004560002010BD092010BD022010BD032010BD7B
S315080045700B2010BD062010BD44F0800010BD0000C1
S31508004580554E4B004649420042544C00455854008B
S315080045905057520057444700205357004352530080
S315080045A04653480042414400464C5400C050010856
S315080045B0C45001081C5101083C5101084451010826
S315080045C0505101085C5101086851010870510108F1
S315080045D07C5101088C5101082A490A6892099201FE
S315080045E00A600A68104308604FF4004126480160D3
S315080045F0002101606420FEF7FEBC2DE9F047234D3B
S31508004600204FD5F80090224C8046286840F4004098
S315080046102860386820F480503860207868B162785D
S315080046201C48A17800EB820200EB880012F82A2CBD
S3150800463010F82A0C891A461802E001202026207054
S31508004640B0B2FFF7C9FF0FF2500A02E0B0B2FFF7A7
S31508004650C3FF386B042805D0386B400754BF761E55
S31508004660761CF3E7F86A38B184F80180A6701FFA59
S3150800467089F02860BDE8F08740F22111504600F025
S31508004680CBFAE6E7D0100040181000401C10004096
S31508004690E32F002070290008616E616C6F677565ED
S315080046A02D76636F2E63000081014FF4FE5289B2A6
S315080046B00C20FDF7BEBE2DE9F84F8F4CDFF83CB253
S315080046C0A56820681FFA80FA00F053FA0127B0207F
S315080046D0ADB200264FF00A08B946206308E016F185
S315080046E0190FB8BF4FF00A08464436B27019A060D1
S315080046F0DBF80000000702D559EA070028D0012098
S31508004700FEF779FCB9F1000F11D0AAF10300874230
S3150800471002DAFF1CBFB213E00AF50040206006214A
S31508004720092000F0CFF957464FF000090BE0DBF8F7
S315080047300000000707D5042FA6BFFF1EBFB200273B
S3150800474007F5004020601A2EC9DB6FF00908CBE791
S31508004750A560C4F800A00820CBF8000068480068E7
S3150800476080B2BDE8F28F80B5624B66491B784FF080
S31508004770FF326BB1002819BF4A606348486041F2AE
S3150800478011100860614841880088BDE8044092E736
S31508004790002819BF4A600A604860086000F0E9F915
S315080047A0BDE804400621092000F0DDB938B501202E
S315080047B0FFF7D9FF04460020FFF7D5FF054601207D
S315080047C0FFF7D1FF4042001B00EB450000B232BDA7
S315080047D02DE9FE4F4E4CDFF83C81A06A454EADF8F8
S315080047E002002568D8F800B0307860B14FF6FF723D
S315080047F000210820FDF716FEADF80000C022C021F2
S315080048000820FDF716FE4448DFF81091007818B125
S3150800481048F26070C9F8000070883C4F40F4404088
S3150800482040F04C00C9F83C000220A062012020603C
S3150800483040F24C40FEF7DFFB0120C8F80C00C8F830
S3150800484000000020388040207880307800B1202091
S31508004850FFF72AFFFFF7AAFF8246402038807F200D
S315080048607880FFF721FFFFF7A1FF0290504601F07D
S315080048706AFEFE2101FB00F70298AAEB00000190F0
S31508004880307860B1029801F05EFE8246019801F028
S315080048905AFE80B207EB8A11B1FBF0F005E00198E9
S315080048A001F051FE80B2B7FBF0F080B2401CC7039E
S315080048B01FFA8BF0C8F80000ADB20020C8F80C004B
S315080048C0022020602560BDF80200A0620020C9F819
S315080048D03C00307830B1BDF800104FF6FF72082062
S315080048E0FDF7A7FD40F24C40FEF785FB380CBDE806
S315080048F0FE8F000066220020C010004018A000406D
S315080049000070004038100040EEEEFFFFB82F002080
S3150800491060200040281000408E220020D010004061
S3150800492041003F2289B201E001463F220220FDF7FD
S3150800493080BD2DE9F04F564C564D95B0E06CADF85C
S3150800494010004FF6FF782068ADF80E004246E86A78
S31508004950ADF80C0000210120FDF764FDADF80A0052
S31508004960424600210B20FDF75DFDADF80800002644
S315080049704FF4004020600DF1140B00202861686197
S3150800498048F2020000F088F84CF68C30E0644FF4E8
S31508004990805248F2F000E86211460120FDF749FD11
S315080049A0424600210B20FDF744FD0621062000F0B3
S315080049B0DAF8019000F082F800904CF69C30E0643A
S315080049C00020FFF7ADFF0621062000F07BF8B0B205
S315080049D0FFF7A6FF0621062000F074F800F08DF810
S315080049E02BF81600761C202EF1DB00F086F8102036
S315080049F0FFF796FF00F062F80099019A401ABBF893
S31508004A0020108E1A404306FB06094FF0100A11279C
S31508004A1000F04EF800F052F800F043F805DB1FFAF4
S31508004A2087FA7F1C202F8146F2DBBAF1100F0ED1D0
S31508004A300F2700F03DF800F041F800F032F806DBE9
S31508004A401FFA87FA7F1E3FB2002F8146F1D5BDF8BF
S31508004A501000E0644246BDF80E002060BDF80C0068
S31508004A60E8620120BDF80A10FDF7E3FCBDF808105E
S31508004A7042460B20FDF7DDFC01202861002000F0EE
S31508004A800BF84FEA4A00C0B215B0BDE8F08F000037
S31508004A90C010004018100040286040F24C40FEF755
S31508004AA0AABA0099401A404306FB060048457047D3
S31508004AB03BF817000199461AB8B231E706210720D4
S31508004AC000F051B870B505460E4602F099FD3F4C08
S31508004AD0206C20F00800206402F094FD00F084F8B1
S31508004AE0E90141F001013A4A41EA0631116008211B
S31508004AF02160BDE8704000F089B82DE9F041354CD9
S31508004B00354D324E25E002F07BFD3449042008601D
S31508004B10306C40F0080030642F6828684008400070
S31508004B20286000F06BF8D4F80080206820F0400078
S31508004B30206000F05FF8C4F800802F6000F05EF88F
S31508004B40306C274920F0080030640420086002F021
S31508004B5059FD30680007D6D508203060214800681E
S31508004B6080B2BDE8F08180B5FFF7ACFFBDE8014033
S31508004B70C3E7174801684908490001607047F8B556
S31508004B800746FEF7F8F9044639460320FFF7EBFF18
S31508004B90054639460120FFF7E6FF0646FDF741FCC4
S31508004BA039460020FFF7DFFF0746FDF739FC0848BE
S31508004BB00168490849000160781B0004711BB0FBB5
S31508004BC0F1F060434000000CF2BD000018A0004060
S31508004BD0047000400080004094ED00E000E100E031
S31508004BE080E200E000700040EFF31180602181F35D
S31508004BF01188704700BF30BF00BF7047BFF35F8F93
S31508004C00BFF34F8FBFF36F8F7047000080F3118893
S31508004C107047000042DE704738B504460D46FDF77A
S31508004C20B2FBFFF7E1FF2946204602F012FD2B46AC
S31508004C3022460FF2D411012002F07BFF29462046B6
S31508004C40BDE83440E6E767482DE9F047664D016858
S31508004C502E1D4FF420687165016AB16563490968BC
S31508004C60F165416A3166816A7166C16AB166016B2E
S31508004C70F166806B306796F8340040074CBFF46BDA
S31508004C80B46B02F0C6FA0022F2648442584A01461E
S31508004C9024BFA2F1200AA2452746316505F18C03F7
S31508004CA0DFF850C1DFF850E118D3A0693064E46931
S31508004CB07464746DC4F30804062C13D1704511D3BB
S31508004CC060450FD200884DF64264A0420AD130688A
S31508004CD0586040F201787068986003E000273764EE
S31508004CE0776407464548814202D2014600E0091D1D
S31508004CF00846904203D20C68B4F1CD3FF7D040493C
S31508004D00081AB0640021002005EB8004401C062820
S31508004D10A167F9DB002003E0C0B205EB8004A167B8
S31508004D20974222D252F8041D7145F9D36145F7D24C
S31508004D30CC07F5D5002405EB8409D9F87890894580
S31508004D4002D0641C062CF6DB062CE9D1002814BF19
S31508004D50401E0520E0E7716F002405EB8402641C01
S31508004D60D76F9767052CF8DB19600146481EC9B24C
S31508004D700029F0D1706DC0F3080002280AD0032874
S31508004D8015D0042816D0052817D0062818D00C28C0
S31508004D901CD01EE01B480168890748BF40F6021868
S31508004DA01CD40068C00719D540F2025816E040F630
S31508004DB0012813E040F6022810E040F603280DE02B
S31508004DC0B8F5206F0AD140F6042807E040F6052812
S31508004DD004E018B1242838BF40F607284046BDE845
S31508004DE0F087000004ED00E00000002000E300E08A
S31508004DF0A8200020484B01089022000898000020AF
S31508004E00A82000201CA000400D0A5B4153534552C0
S31508004E10543A25703A25645D0D0A0000814233D262
S31508004E2010441144401E491E10E011F8013900F8DB
S31508004E300139121F11F8013900F8013911F8013941
S31508004E4000F8013911F8013900F8013992B2042A3B
S31508004E50EBDA93B2002B1EBF11F8013900F80139BD
S31508004E60521EF6D1704711F8013B00F8013B121F9C
S31508004E7011F8013B00F8013B11F8013B00F8013B32
S31508004E8011F8013B00F8013B92B2042AEBDA93B21F
S31508004E90002B1EBF11F8013B00F8013B521EF6D14C
S31508004EA07047130003D00A46194602F083BE7047BE
S31508004EB010B500E0521E93B223B100F005F8F9D000
S31508004EC0181B10BD002010BD10F8013B11F8014B4E
S31508004ED0A34270472DE9F04F89B080461D22FF2175
S31508004EE06846FFF7DEFFDFF8B0A0AE22FF21504686
S31508004EF0FFF7D7FF1D250027284CDFF8A490294E79
S31508004F00F05D19F807B0E15D401C00EBD070401069
S31508004F1001B11930401C00FB0BF2234830F817107A
S31508004F200FF2980092B202F07CFEBBF1010F1CBF93
S31508004F302AF817505D447F1C1D2FE1DB0FF29800FD
S31508004F401D2340F21C4240F2B62102F06AFE4FF4DD
S31508004F50E04000F00CF90FF2540518B19D212846DF
S31508004F60FFF75AFE4FF4804000F001F918B19F216F
S31508004F702846FFF751FE4FF4805000F0F8F818B1B4
S31508004F80A1212846FFF748FE6946404600F01DF96C
S31508004F9009B0BDE8F08F0000982B00208456010860
S31508004FA0C4560108A45601084856010873696D2DB0
S31508004FB0656570726F6D2E6300000000437265614F
S31508004FC0746F723A2030782532582C20576F7264E5
S31508004FD0733A2025640A000053696D4545206461CB
S31508004FE074613A20256420776F726473206F662097
S31508004FF02564206D61782C20746F6B656E436F7520
S315080050006E743A2025640A0010B5DFF8944ADFF872
S31508005010143B2488001B06E010B5DFF80C4BDFF8BC
S31508005020043B24681B1B03EB4000002304E030F814
S31508005030134021F813405B1C9342F8DB002010BD97
S315080050402DE9F04182B004460D4616460027DFF8E2
S31508005050D48A01E0BF1CFFB2B74217DAE819E95D46
S315080050604078DFF8C83A1B8801EB0020ADF800004D
S31508005070012207EBD77004EB6000C01A00F09CFB16
S315080050800100E7D002F056FE002000E00120BDE84E
S31508005090F681F8B504460F46154600260DE000F0E1
S315080050A019F8BDF8000004EB4601000A48707F1C99
S315080050B0BDF8000004F81600761CB6EB550FEEDBBB
S315080050C0E80706D500F006F8BDF80000611901F8F2
S315080050D0010CF1BD01226946B8B295E7DFF8C0298F
S315080050E0DFF8401A1288801A01EB4001022002F00C
S315080050F08CBEDFF83C1ADFF83C2A095C125CDFF844
S31508005100383A185C10B102F5997292B241EAC210A7
S3150800511080B27047DFF8183ADFF8202A1B5C012BAB
S315080051201CBF32F81000081802EB4000704738B56B
S315080051300C46DFF80C1A0D782A462146FFF764FF5D
S31508005140208801001CBF4FF6FF7188420BD0012052
S3150800515000E0401CC1B2A94207D2C0B234F8101010
S3150800516022889142F5D0002032BD012032BDF0B52B
S31508005170DFF8B41987B008600C2269460020FFF7EB
S315080051804BFFBDF81600BDF80C200346040A0120A3
S3150800519000254FF6FF763DF81570BDF80010B942A8
S315080051A003D1B74218BF002F00D100206D1C062D71
S315080051B0F1DBB21A914218BF0020DBB2C4F1FF013D
S315080051C08B4218BF002007B0F0BD2DE9F24F044608
S315080051D0DFF870690020307070809CB0DFF86809CD
S315080051E00088ADF8020007A9FFF7A1FF8346012052
S315080051F0707009A9DFF854090588DFF85409B0F872
S315080052000080DFF89C080788BDF802A03846FFF73B
S315080052108EFFB8B1BBF1000F3DD0BDF81C10BDF82C
S3150800522024004FF6FE72914202D1012804D10CE007
S31508005230012908BF90422ED00846BDF8241088429E
S3150800524029D202E0BBF1000F24D00020707002972B
S3150800525050460695CDF810800122DFF8E41891F83B
S3150800526000804044ADF806006946BDF80600FFF721
S31508005270CBFEDFF8E008008805904FF6FF79BDF809
S315080052800000000B404518BF0F2801D1200021D08F
S31508005290002516E0012470780028D8D03846CDF8C5
S315080052A008A0CDF818800495D6E7059805FB00F404
S315080052B0E01900F05DFCBDF80200201800F058FC6B
S315080052C06D1C4545F1DB012030704D2002F032FDA2
S315080052D00025F7E0BDF80650012201A92846FFF788
S315080052E093FEBDF80400C04300F0FF00ADF80400CB
S315080052F06F1CDFF864080588BDF80400A84218BFCB
S3150800530001244FF0000A20E0401CC1B2A94218D27D
S31508005310C0B2DFF84818BDF80E20834631F81B10D6
S315080053209142F1D1FFF7E5FE4FF680710840BDF8CE
S315080053300C104FF680721140884204BF1C9800F882
S315080053400BA00AF101001FFA80FABDF80400824595
S3150800535007DA022203A9B8B2FFF756FEBF1C0020DF
S31508005360D3E7002001E0401C80B2A84217DA1C9956
S31508005370095C8142F7D0012411E02AF81070BDF8C3
S31508005380060000EB4300401C00F0DBFABDF8020003
S31508005390C0F3C710401C00EBD07007EB60070498F9
S315080053A0DFF898A7BFB287420EDA00F099F8BDF881
S315080053B00000484508D0030A00F07F01BDF8040044
S315080053C07F1C834202DB012400252DE0002000E03B
S315080053D0401CA842D3DA1C9A125C9A42F8D1C0B291
S315080053E0FF28CCD0DFF84827125C7F290CBF4FF086
S315080053F0000C8C4694450BDABDF800C0DFF838E798
S315080054001EF800E04FEA0C6C4FEADC7CF44501D04C
S315080054100124B4E7012AB0D07F293AF8100008BF62
S3150800542000210818A9E76D1CDFF8340700888542B3
S3150800543004DA3AF815004845F5D10124778004982E
S31508005440BFB2874207DA00F04BF8BDF800007F1CB0
S315080054504845F4D039E7002CFCD1029801220BA963
S3150800546080B2FFF7D1FDBDF82C0048450DD105E007
S31508005470401C80B2202813DB2034A4B20699029A75
S31508005480891A8C4205DB0120307000201DB0BDE86A
S31508005490F08FA51820220BA9A8B2FFF7B5FD0020AA
S315080054A00BA931F810104945E2D0A8B2FFF716FE4D
S315080054B0203CA4B2E0E70298059905FB010000F03C
S315080054C057FB6D1C4545F6DB01203070494600F058
S315080054D046F818B100F035F90028D6D10120D5E7ED
S315080054E00122694638468FE52DE9F0420F46DFF876
S315080054F06816DFF8405609888F42044616469946CC
S315080055000CD2DFF82C16C95D30467F2808BF00206C
S31508005510884203DAE95D894500D11CB940F2D641D3
S3150800552000F00BFA31463846FFF7F4FD0188DFF83C
S315080055300806C05D60B1384600F035FAE95D012914
S3150800554008BF207009D0022914BF2060208004E01B
S315080055504A462046BDE8F0429BE5BDE8F0822DE9C3
S31508005560F34FDFF83C05DFF8D8150488DFF8D405D3
S315080055700978407883B000281ABFDFF8CC05008880
S3150800558020460D18DFF8D0050088ADF80800ADB242
S31508005590C04300F0FF0000EB013000F55060ADF8A5
S315080055A002002B1BDFF87C0501220DF1020100F039
S315080055B0E3FA6E1C0100B6B23AD10025DFF89C75F5
S315080055C013E0E8B2FFF795FDADF80400331B37F892
S315080055D01500ADF806000222DFF8480500F0CBFA00
S315080055E0010025D1B61CB6B26D1CBDF8080085426F
S315080055F0E7DB002500E06D1CBDF80800854280F257
S315080056009B80DFF83405405D8DF80A004FF0000AEC
S315080056101BE001220DF102011FFA89F0FFF7F4FCE5
S31508005620BB19DFF8000500F092F9010009F101093C
S315080056307AD17F1CFFB2B7EB1B6FEADBDFF82405D4
S31508005640405D8619B6B20AF1010ADFF8E404475D3F
S315080056505FFA8AF0B842CED25FFA8AF1E8B2FFF76B
S3150800566059FD80469DF80A00B8F80090C00140EA46
S315080056700520ADF80000012FBDF800000EBF40F070
S315080056807F005FFA8AFA4AEA0000ADF80000311B8B
S31508005690DFF8900400EB41004FF6FF71771C89454F
S315080056A01EBFBDF80010BDF810209142BFB219D137
S315080056B09DF80C100029C6D00122694602F0DFFBCE
S315080056C001003E4630D1DFF86C04A8F80060425D60
S315080056D0DFF8940450F825103046FFF7B1FC00288F
S315080056E0ACD124E0DFF84C14495D491C01EBD171BB
S315080056F04FEAC15B0122694602F0C1FB01003E4642
S3150800570012D1A8F800609DF80A0098B14946E8B297
S3150800571000F049F90190331BDFF808044FEA1B62D1
S3150800572000F029FA010089D002F004FB002005B038
S31508005730BDE8F08F00277DE7DFF8080446800120E2
S31508005740F5E7DFF804042DE9F0410688DFF8500391
S31508005750DFF8F05304886878DFF8C883002882B039
S3150800576012BF20463046264601226946FFF74CFC02
S31508005770BDF8000001280CBF4FF6FE70401EADF8BC
S315080057800000DFF8BC0307783846471E58B1BFB299
S31508005790B819001B012200F00FF80100F4D002F03E
S315080057A0C9FA002006E0687880F0010068700020D9
S315080057B028700120BDE8F681694608EB400002F032
S315080057C05EBB2DE9FE4F0D46DFF88C13098888422B
S315080057D0044617461E464FF000094FF001080ED240
S315080057E0DFF84C13095D38467F2808BF0020884239
S315080057F005DADFF84013095D8E4200D11DB940F283
S31508005800FA5100F09AF839462046FFF783FC0190D2
S31508005810CC4F787820B1CD48B0F800A0A04803E076
S31508005820CB48B0F800A0C8483978008849B97988C3
S31508005830081ACE4909888842B4BF4320442002F09A
S3150800584079FA01980188BC48005DF8B1204600F055
S31508005850AAF8012E08BF297803D0022E0CBF298882
S315080058602968814267D001980088401E00F069F8CF
S31508005870BC48065D7888AAF10101891B814201DBD3
S31508005880002837D1387868BB452046E00291CB46D8
S3150800589022E002980BEBDB7300EB630000F002F9E1
S315080058A005EB0B0015F80B10407801EB0020711E74
S315080058B08B4580B207D1BDF8001001F0FF0100F05A
S315080058C0FF00ADF80010BDF8001088420BF1020089
S315080058D018BFC8465FFA80FBB345DADBB8F1000F9C
S315080058E0C1D028E0BDF802100020FFF738FE10B33B
S315080058F04FF0010978888F49401C788080B20A5D8C
S315080059002946FFF79DFBB0B1654C7B8824888548FE
S315080059105B1E00F01CF8010002D002F00BFA0AE048
S31508005920B9F1000F02D0FFF70CFF20B10199788872
S31508005930088030187880BDE8F78F0FF24420FFF70B
S315080059406BB901220DF1020180B2FFF75DBB1B1B8B
S3150800595001220DF1020100EB430002F090BA70B586
S3150800596082B004460025192601226946A0B2FFF72F
S315080059704BFBBDF80000641C48B14FF47F41401A48
S3150800598002D0FF3806D007E0681C40B276BDAD1CD1
S31508005990761EE9D168B276BDBDF80000C0B200B97E
S315080059A06D1CE843F1E738B50C46002100916149C2
S315080059B00D5C2A4621466846FFF76BFB681C00EB20
S315080059C0D07004EB600080B2FFF7C9FF002848BF1B
S315080059D0C043009940B2401832BDF0B55E49098807
S315080059E00446564883B0254630F815608C4202D2E4
S315080059F05148405D18B940F23D71FFF79EFF4D488A
S31508005A00455D681C00EBD07006EB6007B8B2FFF77F
S31508005A10A6FF322814D2BFB2C10707EB6000204F99
S31508005A20404B3F884CBF00214FF47F41ADF804102E
S31508005A30C01B012201A903EB400002F020FA60B165
S31508005A4031462046FFF7AFFF00902B46401C0090DA
S31508005A507F2269462046FFF7B4FEF7BD70B5394880
S31508005A60017882B00024C1B94078002814BF3648AE
S31508005A700B480588324806780BE0F6B2701900F034
S31508005A8011F8BDF8000000281EBF4FF6FF718842C6
S31508005A90641C3046461E0028EFD1E0B276BD0000F1
S31508005AA0185601080122694680B2FFF7ADBAF8B563
S31508005AB0244C20780027002832D11C4805886078B5
S31508005AC000281ABF204806882E461D4807783846FB
S31508005AD0471E02281DDBFFB2B819FFF7E3FFBDF822
S31508005AE000000028F3D01B48008807FB006000F080
S31508005AF03FF80020ADF80000BB190A485B1B0122DD
S31508005B00694600F039F8010018BF02F013F9384663
S31508005B10F2BD3046FFF7E2FAF8B208B90120207064
S31508005B20F8B2F2BD00E00208C02C002018560108A1
S31508005B30C4560108A456010884560108982B00206B
S31508005B4014560108B42F00201C5601081A560108DD
S31508005B501E5601081656010822560108485601081D
S31508005B602456010828560108045901082056010838
S31508005B7080B2FFF7B3BA01A900EB430002F07FB980
S31508005B8073696D2D656570726F6D2D696E746572BA
S31508005B906E616C2E6300000042484068704710B57D
S31508005BA0404CA078E17800F0010001F001010843BB
S31508005BB06168C90319D4C0B1E06848B1E078000744
S31508005BC006D5E16808208847E07800F0F700E0701D
S31508005BD0A06870B1A07800070BD5A168082088478F
S31508005BE0A07800F0F700A07003E0607808B1002004
S31508005BF06070BDE810404DE02DE9F04104460D46C1
S31508005C00FEF7F2FF274F804638780126A8B1200014
S31508005C100BD1B87800281CBFB868002805D0B8781A
S31508005C20400602D5B96840208847BD60B878A042CA
S31508005C301CBFBC70FFF7B3FF002620E02DE9F0413A
S31508005C4004460D46FEF7D0FF164F804638780126E3
S31508005C50A8B120000BD1F87800281CBFF8680028E6
S31508005C6005D0F878400602D5F96840208847FD60D7
S31508005C70F878A0421CBFFC70FFF791FF002640464B
S31508005C80FEF7C4FF3046BDE8F08106480078704745
S31508005C90704700BF03480178002141700020FDF7D6
S31508005CA03FBE0000C02200202DE9F84305460E46F7
S31508005CB03000144605D1FDF7ABFD2018C0F31300DC
S31508005CC04DE02F46022F0FF2501803DB40214046C5
S31508005CD0FEF7A2FF102C05D22846B047BDE8F143CF
S31508005CE0FDF796BDDFF8209159F8270018B148212D
S31508005CF04046FEF791FFB4F5002F03D349214046ED
S31508005D00FEF78AFF49F82760404F414E95B9FEF7DE
S31508005D106BFF0546FDF77CFD2418A0B27860200CC1
S31508005D203860022030602846FEF770FF306C40F07D
S31508005D30020011E0FEF758FF0546FDF769FD241835
S31508005D40A0B2F860200CB860042030602846FEF740
S31508005D505DFF306C40F004003064C4F31300BDE806
S31508005D60F28370B504462646022E0D4604DB6621EC
S31508005D700FF2A400FEF750FFFEF736FF224951F84E
S31508005D802620AA4210D1002241F82620002C2049BC
S31508005D900A6C04D122F002020A64022203E022F00D
S31508005DA004020A6404220A60BDE87040FEF72EBFAA
S31508005DB070B5174C144E2068216C01EA0005ADB287
S31508005DC0A80709D5206C20F0020020643168080075
S31508005DD002D000203060884768070AD5206C20F07A
S31508005DE0040020647168080003D000207060012058
S31508005DF08847256070BD02F015B9010008BF01206B
S31508005E000201044900204FE7B02D00204020004041
S31508005E1008A00040F75D000873796D626F6C2D74F9
S31508005E20696D65722E63000080B502F056FC02F0BB
S31508005E306EFDBDE8014002F055BF684900200871B3
S31508005E4067480078022808BF02F01CBB704770B587
S31508005E50644803F03BFB0446FF2C4CD003F0B0FB30
S31508005E6000F00C06032120465C4D03F08AFB2870DF
S31508005E700421204603F085FB68700521204603F0BF
S31508005E8080FBA870012003F065FC204603F098FB10
S31508005E9000F00C00082803D1204602F0B2FD22E0EB
S31508005EA00C2E1CD1204603F07CFB064603F0A0FB13
S31508005EB0305C072802BF4A480078022813D128799F
S31508005EC088B900F05AFB810900EB5161C909A0EBBA
S31508005ED0C110411C89B2281D03F05EFC03E016B907
S31508005EE0204604F0D6F9204603F000F9BDE87040D4
S31508005EF0002003F02FBC70BD2DE9F04180460E4608
S31508005F000025300008BF012502D0312E08BF002623
S31508005F10404603F055FB0C210842334F02D139782D
S31508005F20012014E0404603F07FFB0324B0F5006F20
S31508005F3008D1404603F09CFB4FF6FF71884208BF24
S31508005F40012402D0300018BF05243978204605F010
S31508005F50D5F83146404602F0E2FB28B92A463146D2
S31508005F604046BDE8F04101E0BDE8F08170B5044661
S31508005F700D46164603F024FB00F00C00082806D14F
S31508005F80324629462046BDE8704002F001BD70BD84
S31508005F9010B50446A079012804D11448017841F0C7
S31508005FA001010170207803F00BFB00F00C000828B3
S31508005FB009D1207802F04EFD28B9607800F0F0008B
S31508005FC06070002010BD012010BD04F057B80849C4
S31508005FD00870411E8941C80FFEF751B8B42C00203D
S31508005FE0EA2F002050220020EB2F0020C22D00208F
S31508005FF0E92F002080B503F0F9FE08B1002002BDA4
S31508006000702002BD002070470120704700207047AD
S315080060100020704701224FF48061824805F070B86D
S3150800602038B504460D46012003F094FB7E48002D42
S3150800603012BF00210178491C017002F065FA7B4DF8
S3150800604098B9200003D0FFF7A7FD002808D5FFF769
S31508006050A3FD40054CBF032001200021FFF7CCFD1E
S315080060606C701020FFF7D6FF22E001280DD1002022
S315080060706870FFF791FD40054CBF022000206C496F
S3150800608040F01100FFF7B8FD12E002280BD10021FD
S315080060900020FFF7B1FD0021202005F02FF88D2004
S315080060A002F0F2F804E075210FF2B010FEF7B4FD25
S315080060B0BDE83240002003F04DBB80B5FDF7D5FFA3
S315080060C0BDE80240312002F0DFB838B50446402C5E
S315080060D0154606D1FFF760FD00F08020B0F1004FAD
S315080060E003D000210020FFF787FD002C49D0402C63
S315080060F027D0882C18BF892C4AD08C2C4AD08D2CB6
S3150800610033D08F2C4ED14B48007804280FD155B187
S315080061104949022008704AF26002BDE838404749FA
S315080061200020FFF7C1BDFDF7A0FF312036E00120B2
S3150800613001F0AAFDFDF799FF002D0CBF31200020C4
S315080061402CE0FDF792FF04F0DFFF37483C49007862
S315080061500978884204D2BDE83440002101205FE76F
S31508006160002001F091FD402018E004F0CBFF00204C
S3150800617001F08AFDFDF779FF0021202004F0BEFF1B
S315080061800BE0012001F080FDFDF76FFF002005E020
S31508006190FDF76BFF002001F077FD8D20BDE832404A
S315080061A002F072B8BDE83440E22153E02248007894
S315080061B0022800D0704780B522480078042807D006
S315080061C00C2810D120480078022818BF7C280AD14C
S315080061D01A490020FFF7C5FDFDF747FFBDE8024055
S315080061E0002002F051B801BD38B5FEF7FDFC0546A2
S315080061F011480078002410B9FDF775FB04462846B7
S31508006200FEF704FD1CB1BDE8314001F0DEBD31BD2D
S3150800621080B5FFF7E9FFBDE804404FF4A0510B48ED
S3150800622003F0BABAD42D0020EB2F0020402200201C
S31508006230156000086F220020C02D0020BB600008F2
S3150800624092220020ED2F0020EE2F0020A82D0020FE
S3150800625040F213110FF20400FEF7DEBC6D61632DE8
S315080062607068792E6300000070B504460D46164620
S31508006270FDF750FF38B16078002E14BF40F02000BB
S3150800628000F0DF0060702946204602F091FFFF28E3
S3150800629023D0864C864D0146201D03F002F9288836
S315080062A0401C288080B2218881420AD26888401C16
S315080062B06880201D03F00AF902F018FF2888401E9E
S315080062C02880208829888842F3D37A48007803F002
S315080062D03CFBBDE8704001F076BD70BD2DE9F04F7E
S315080062E0A5B08146FEF780FC714D2988491E298094
S315080062F00027FEF78BFC484602F082FE0478817878
S315080063004078009700EB01201FFA80F800F0B0F8FB
S31508006310A0F108020823D2B2494602A802F064FF97
S31508006320654800780DF1080AD8B16868002817D0C2
S315080063309AF80300FDF796FB2146FDF79AFB0746F8
S3150800634000200090631C9AF90260DBB200224946DD
S3150800635004A802F049FF6B683246394604A89847F4
S315080063607EE008F0070002287BD0FF208DF80400A5
S31508006370484602F045FE00F1010B584603F038F98D
S315080063800546601B861E76B2002E6AD45FEA8850E0
S3150800639003D508F00700032810D101A9584601F0D3
S315080063A0C9FF00285DD108F0070001280BD19DF828
S315080063B004000BEB0501FFF727FE20B99DF8040042
S315080063C002F094FE4DE03D499DF8040009680F5C13
S315080063D03B49096801F8009000F04AF800F12001ED
S315080063E09DF80400C9B202F011FE9DF8040003F0FE
S315080063F0E7F800F00C0004281CBFAE19002570B29F
S3150800640080B200906B1C9DF804009BB24A46394640
S3150800641003F013F8F1199DF80400C9B202F095FFCC
S315080064209AF80300FDF71EFB2146FDF722FB0246FC
S315080064309DF80400032103F09DF89AF802209DF8C0
S315080064400400042103F096F89DF808209DF804003E
S31508006450052103F08FF89DF80490484601F034FFB3
S315080064600127484602F042FE384625B0BDE8F08FBF
S315080064701248006810F80900704710B50C4C61887E
S31508006480080005D0C9B21D2004F038FE002060803F
S315080064900C4803F01BF8FF2803D0FFF71FFF00285E
S315080064A0F6D010BD074803F037B800004822002090
S315080064B0A02D0020D82F00207D2D0020CC200020E4
S315080064C0D42000204C2200200268174912BACA605C
S315080064D0426812BA8A60826812BA4A60C06800BA0C
S315080064E00860704710B5114980220A600623104AD1
S315080064F0136007230B6013689B07FCD5002350F82D
S3150800650023405B1C24BA042B8C62F8D313685B0700
S31508006510FCD500220B6B1BBA40F82230521C042A09
S31508006520F8D310BD000000003830004000300040AD
S3150800653010A0004010B504460846FFF7C5FF2046E0
S31508006540BDE81040CEE7002848BF4042704700002B
S3150800655001468AB20AB94BF6EF610F4A000C08BF2A
S315080065604FF6CE201180508070470288130448BF2A
S315080065704A40510001801046704738B5064C6221E2
S315080065802046FFF7F2FF054641F20B01A01CFFF774
S31508006590ECFF684032BD000054220020EFF3118062
S315080065A060288041C043C00F70470000002181F376
S315080065B011887047012100F01F029140DFF800267C
S315080065C0400942F8201070472DE9F04FDFF8F845EA
S315080065D09BB0834660681990BBF1070F08BF4FF060
S315080065E0030B0AD0BBF1080F08BF4FF0020B04D00B
S315080065F0BBF1050F08BF4FF0040BDFF8D065306814
S31508006600716840EA0120B16840EA0140009070686C
S31508006610400703D5E06940F00200E06130684007B2
S3150800662003D5E06940F00400E06100983169C8408C
S31508006630C00703D5E06940F00800E0610020DFF8F4
S315080066408475DFF88C853860ABF10100032800F209
S315080066508682DFE810F05C0207001F0004000020B5
S31508006660606017E0D8F84000C00703D5E06940F03D
S315080066704000E061D8F84000400703D5E06940F0E3
S315080066802000E061D8F84000800703D5E06940F0B3
S315080066901000E061FEF7A8FAFBF782FE8DF86000AD
S315080066A04FF00009D8F84000DFF828A5DFF828558C
S315080066B0DFF828151790D8F844001690DFF820055B
S315080066C0C06C1590DFF81805006D1490DFF81005FA
S315080066D0406D1390DFF80805806D1290DAF8000017
S315080066E01190DAF804001090DAF814000F90DAF82E
S315080066F024000E90DAF834000D9028680C9068682B
S315080067000B90A8680A90E868099028690890686953
S315080067100790A8690690E8690590A86B0490DFF8C9
S31508006720C40400680968039102212160DFF8B814DF
S3150800673009688DF80410DFF8B41409688DF8051097
S31508006740DFF8AC1409688DF806104FF0FF31616266
S31508006750DFF86C140968C9040BD57168C90708D530
S31508006760E169C90705D5396841F480714FF0010917
S315080067703960DFF84C14096889040BD57168490635
S3150800678008D5E169C90705D5396841F480414FF054
S31508006790010939600121DFF82824126852040ED550
S315080067A0009AF368DA40D20709D5E269D20706D516
S315080067B03A68F36801FA03F31A4389463A60DFF840
S315080067C000241268120410D5009A3369DA40D207F9
S315080067D00BD5E269D20702D4E269120705D53A68F1
S315080067E033698946994011433960DFF8D41309683B
S315080067F0C90308D5E169090605D5F97841F0080104
S315080068004FF00109F97000217268D207726848BF13
S315080068104FF480515206009AF36848BF41F400517C
S31508006820DA40D207009A336948BF41F48041DA401A
S31508006830D207E26948BF41F40041D20605D4E269AD
S31508006840920602D4E269520601D541F01001E269C6
S31508006850120648BF41F4803108400290A520FBF794
S3150800686096FD0120E063E069A16B11B1616A0142FE
S31508006870FAD0616A014200F0F2800020E0634FF02E
S315080068800109F87840F04000F87000F0B9FE0D985C
S31508006890D349CAF834000720C8F800000F2008605A
S315080068A004F034FC1998CE4960601798C8F840007F
S315080068B01698C8F844001598C8641498086513987B
S315080068C0486512988865C7491198CAF80000109853
S315080068D0CAF804000F98CAF814000E98CAF82400DB
S315080068E00C9828600B9868600A98A8600998E86070
S315080068F008982861079868610698A8610598E8616C
S315080069000498A86302980860B449039808604FF091
S31508006910FF30B8490860B44800683870B348006862
S315080069207870B3480068B870606AE16932693B6894
S31508006930084001994B4000990B400106490E01F0A9
S31508006940010143EA81230106890E01F0010143EAA8
S3150800695081030106C90E01F0010101FA02F20005E0
S315080069601A4300F07C5010433860FEF73DF900F0FA
S3150800697049FE002020609DF8600008B1FBF7FAFC8C
S31508006980F87898490968C90304D5C0F3C00109B164
S3150800699020212162D8F84010890704D5C10744BFD1
S315080069A00221C8F80C10D8F84010490705D5C0F3DD
S315080069B0400111B10421C8F80C10D8F84010C907D5
S315080069C005D5C0F3800010B10120C8F80C00844832
S315080069D0C06C10F0E00F05D03868C00544BF0C2025
S315080069E0FFF7E8FD7E48006D10F0E00F05D0386827
S315080069F0400444BF0D20FFF7DDFD7948406D10F0D7
S31508006A00E00F07D03868F168C840C00744BF0E20B9
S31508006A10FFF7D0FD7248806D10F0E00F07D0386898
S31508006A203169C840C00744BF0F20FFF7C3FDB9F15D
S31508006A30000F63D17048006800055FD5606880075D
S31508006A405CD5BBF1040F59D066480068C0063DD531
S31508006A505B480068C00639D5012038714EE0B9F1A7
S31508006A60000F7FF40EAFDAF818005C4940084000C2
S31508006A70CAF818005948806840F00400886040F257
S31508006A8007215E480088884201BF5C4840884FF26B
S31508006A900F01884205D159494CF23C3048804FF0E5
S31508006AA00109012004F06CFBB9F1000F05D0534928
S31508006AB04FF20F0048804FF000094F484E49406892
S31508006AC00004B86089680843B860E0E600203871B9
S31508006AD04B48416D41F0010141650168464A464B04
S31508006AE052689B6843EA0242BB689A4206D102682A
S31508006AF0521AC2F31302B2F57A7FEFD3F87840F050
S31508006B008000F8701BB0BDE8F04FFFF74FBDFBF7EC
S31508006B1047FC0446A520FBF73AFC00F071FDFFF799
S31508006B2045FD384D384F2E682868400840002860D3
S31508006B30FEF764F8D7F80080386820F0400038601F
S31508006B40FEF758F8C7F800802E60FEF757F80CB124
S31508006B50FBF710FC1BB0BDE8F04F00F053BD1BB0AF
S31508006B60BDE8F04F40F254410FF2A800FEF754B8C2
S31508006B7011F1010F154A08D001F0FF031360C1F3A4
S31508006B8007235360C1F30741916000231F490B6037
S31508006B901368002B04BF5368002B01D192681AB101
S31508006BA00A6842F001020A600A6842F400720A6042
S31508006BB00A6842F080020A6006E51549D8E700002F
S31508006BC000E200E0482C00200400004008BC004019
S31508006BD014A00040044000400050004008ED00E0CA
S31508006BE014A8004000E100E008B0004008B40040E6
S31508006BF008B8004080E200E00C6000400000002079
S31508006C003820004094ED00E000800040200000405D
S31508006C1000404000736C6565702E63000348018868
S31508006C20034808237F22FCF7ABBA00BF9259010834
S31508006C30AC2C0020DFF80803016C41F4C04141F098
S31508006C40090101644FF6FF7101602020DFF8F41294
S31508006C500860704770B50446200015461E4603D1E5
S31508006C60BDE8704000F002BB012C36D113293CBFA9
S31508006C700FF21030415C08096422504301F00F01FD
S31508006C800B2903DA884006E00A2250430A46511EB9
S31508006C90D2B20B2AF8DA01460120FCF7CAF901003C
S31508006CA01CD1300907280CBF00200220012D08BF7F
S31508006CB040F0180003D0022D08BF40F0080006F087
S31508006CC00F010229A049A8BF40F0040088600120EE
S31508006CD00860FFF7AFFF002070BD212070BD38B5F2
S31508006CE0040012D199480468608828B140F24D2101
S31508006CF00FF28820FDF790FFA188C9B2A01D00F009
S31508006D00B5FC0020A080208031BD012802BF8E4836
S31508006D10006801280FD1FDF767FF05468C48016812
S31508006D2041F006010160012000F09BF82846BDE805
S31508006D303240FDF76BBF31BD012804D18448016894
S31508006D4021F00601016070470B4680B51146020026
S31508006D5004D1184600F08AFC002002BD012802BFB3
S31508006D607C488269012A07D0212002BDC2685207E1
S31508006D70FCD513F8012B02600A46511ED2B2002A2E
S31508006D80F4D1C1684906FCD5E6E710B50446FBF719
S31508006D90FAFA012C03D1724800684006FBD510BDEB
S31508006DA070B56D4A6D4B12680CE0158810F8014BEA
S31508006DB01544AC7114881D8800F06DF81480948809
S31508006DC0641C94800C46611EE4B254B19488654DE7
S31508006DD02D886D1EAC42E8DBBDE8704023210020FB
S31508006DE08EE070BD2DE9F84304465B48DFF86C91E8
S31508006DF0DFF87081574F254650F8256014E0B188B2
S31508006E0038F81520521E91421CDA318831448871AF
S31508006E10308839F81510401C90FBF1F201FB12007E
S31508006E203080B088401CB080F868800716D5F868AE
S31508006E3010F038013868E2D0080705D4C80605D529
S31508006E40242107E0232105E0272103E088064CBF1B
S31508006E5025210121204600F053F8E5E7BDE8F18336
S31508006E60704770B53949404A51F82010394B0CE043
S31508006E704C880C44A4791C604C8832F8105000F0F9
S31508006E800AF84C808C88641E8C808C8814B1DC6867
S31508006E906407EDD470BD641C94FBF5F605FB164437
S31508006EA0704732483249C2680A6002694A60006817
S31508006EB0886070472E4924480A6842614A68826198
S31508006EC089688160012101600120B3E6704738B501
S31508006ED01B4C0FE046F229700542256003D0A9B283
S31508006EE00120FFF77FFF41F6D60005421CBF0120AF
S31508006EF0FFF7B7FF2068216C11EA0005EAD131BD1A
S31508006F0030B5154A1B4C52F82020255C1A4B25B97A
S31508006F10128823F81020215430BD33F8103013801E
S31508006F202154138851888B4205D20E4C34F8100030
S31508006F30401A181800E0581A908030BD000000006A
S31508006F4008A8004000E100E054C8004008220020DC
S31508006F5048A800403CC8004018220020A87B00082A
S31508006F6048C800400C560108A07B00085CC80040D1
S31508006F706C2C00208C2B0020902B002075617274DD
S31508006F802E630000306090C0C1C2C394C495C55C2E
S31508006F9096C6AC9798990D002DE9F041454C464E9A
S31508006FA0DFF81881002020654FF40055356002206F
S31508006FB02060E560002020654FF48047206D40F092
S31508006FC0600020650E2000F01BF888F800000020FD
S31508006FD06065376004202060E7601620384908603D
S31508006FE000206065606D40F060006065162000F066
S31508006FF007F888F80100334805600760BDE8F081A6
S315080070000E2802D0162802D009E02F4800E02F48A3
S315080070100068800900F0010080F001007047002038
S31508007020704710B52348254C4FF40051C160022122
S3150800703001600E20FFF7E4FF227801468A4218BF56
S3150800704021700DD1501E8041C00F20700E2021786E
S3150800705004F0DAF82178481E8041C00F20702178A4
S31508007060BDE810400E2004F0CFB810B51148134CF7
S315080070704FF48041C160042101601620FFF7C0FF6C
S31508007080627801468A4218BF61700DD1501E804150
S31508007090C00F60701620617804F0B6F86178481E53
S315080070A08041C00F60706178BDE81040162004F07A
S315080070B0ABB8000014A8004080E100E0BE2F002015
S315080070C014BC004000E100E008B4004008B80040E5
S315080070D010B50446FDF788FD4F49302008604F4932
S315080070E008604F49086010204E490860200A0028A9
S315080070F04D4808BF24024FF20F0104804180BFF3B8
S315080071005F8F4A4800210160416049484949086043
S3150800711010BD10B5484C2068C00609D547494848EF
S315080071200A6842604968016040F60620FFF7D0FF0A
S315080071302068C00708D5434903200870206C40081A
S3150800714040002064012020602068000703D5206CD9
S3150800715020F00800206410BD80B5002000F009F872
S3150800716030B9BDE80440FD210FF2EC00FDF754BD2F
S3150800717001BD2DE9F042344C216842428D1815F0C4
S315080071801F0108D0002802D44842054403E04842BB
S31508007190284400F120052D48A5F12006A84224BF61
S315080071A02B48864203D3EFF30880854201D300209B
S315080071B02DE0FDF719FD81462648006810F0010705
S315080071C018BF03F0BAFF206801468D4206D2A842CE
S315080071D024BFCD2100F80119F9D206E02038002293
S315080071E001E000F8012B8842FBD32560304603F006
S315080071F0A9FFE22001E006F8010BAE42FBD30FB16E
S3150800720003F084FF4846FDF701FD20682038BDE8F5
S31508007210F0820D48006870473020004030C80040B2
S3150800722030C0004010D00040000000201C40004044
S315080072300400FA050CED00E018A0004030500040AC
S3150800724090000020DE2F00203C2200204817002056
S315080072503C0C002094ED00E06D6963726F2D696E39
S315080072607465726E616C2E630000000080B5A648D6
S315080072700021416041708170A5210170012000F054
S31508007280CDFC00F0FCFC00F01EF8002002BD9F4873
S315080072900168C90700D4704780B59D490A6822F479
S315080072A040620A60016849084900016001680902EC
S315080072B0FCD49848006810B16420FBF79CFE9649F8
S315080072C00020086001BD80B59448016841F08071CE
S315080072D0016001209249086000209249FBF7A9FE47
S315080072E09149924A02200860002091490860914815
S315080072F09149016001211160844A9049116040F268
S31508007300014101654FF480308D49086001BD82480E
S31508007310006800281EBF7F480068002805D07F48FF
S315080073200068000E00F00100704700207047D12267
S3150800733002704170090A817082490A78C270501C2D
S315080073400870042070472DE9F14F82B0DFF8F88104
S3150800735000900026D8F800000099405C451D04F00E
S3150800736022F9EDB201904FF6FF7A19E0B11E9DF8A9
S315080073700800C9B202F030F80746514604F0DEF9B3
S3150800738082465E46FFB24FEAC90007FA00F0044398
S3150800739009F10109B9F1040F17DB4FF060400460E9
S315080073A0FFF7B5FFF6B298B3AE4231DA04F0FBF850
S315080073B00199401A80B2B0F5FA7F29DC4FF0604097
S315080073C000680128ECD10024A146F0B210B95B2769
S315080073D00126D7E706F1010B0128F6B204D1D8F841
S315080073E000000099475CCCE7E91E884208BF57466B
S315080073F0C7D0A91E884208BF4FEA1A27C1D0691EFE
S31508007400884208BF5D27BCD0A842AFD10027B9E79C
S315080074104FF4C870FBF7EFFDAE420CBF0020012009
S31508007420BDE8FE8F48490968095C0429A8BFFFF72B
S315080074308ABF012070472DE9F04D334D6E78300034
S3150800744060D004F0B0F883463146002001F0B0FE63
S315080074500446FF2CA04602D10020687052E0202E78
S31508007460B4BF3746202701F0CBFD6860AF70DFF860
S31508007470DCA004E0404601F0C3FD6860AF706878A0
S31508007480C8B104F090F8A0EB0B0080B2B0F5FA7F13
S3150800749011DCA8780028F2D1F61BF0B200286E702D
S315080074A0EDD0DAF8000010F80880F6B2202EB4BF46
S315080074B037462027DEE7F6B2002E04BF6878002894
S315080074C018D1A878B0B920480068005D851EE9B2D1
S315080074D0204601F08CFF122808D1E9B2204601F0B7
S315080074E034FF2146122000F0A6F906E0204600F0F7
S315080074F0ECF802E000206870A8702046BDE8F04D60
S3150800750001F0F4BDBDE8F08DF02F0020800E00E0FC
S31508007510001000E034000040100004E0FCED00E03C
S31508007520040004E020A10700F00004E0000E00E0DB
S31508007530040304E0B00F00E055CEACC50D00010011
S3150800754000E100E0E02F0020CC200020D42000201D
S315080075507047000030B52248016800200022012447
S315080075609440CBB2234213D00FF284001D4C30F85E
S31508007570120006284CF23C324FF20F031DD16088E8
S31508007580984216D12188080A0B2812DA084612E012
S31508007590521C92B2082AE2D31349088140F20172BA
S315080075A00889904204D11148D0E90023C1E9002393
S315080075B030BD4FF4C0606280EEE740F20725A8426E
S315080075C001BF618899422188A942E5D162800846AF
S315080075D0E2E705480089000A7047034800897047B2
S315080075E02C000040000000205023002090000020BE
S315080075F00104020401030105060007020309010943
S3150800760072B6704762B6704770B5FFF7A1FFB24C05
S31508007610204601F081FFD8B9204601F057FFFF2820
S31508007620044615D0AD490968085C851EE9B22046AE
S3150800763001F0DDFE0646E9B2204601F086FE214647
S31508007640304600F0F8F82046BDE8704001F04EBD1F
