S01D0000486143617053656E736544696D6D65725377697463682E7333374C
S3150800400098ED0020D95802084136020845360208BC
S31508004010A70A090100420008040E03AC20599100C2
S315080040200000000000000000000000000000000082
S315080040300000000000000000000000000000000072
S315080040400000000000000000FFFFFFFFFFFFFFFF6A
S31508004050FFFFFFFF00080408090000000028040805
S31508004060FFFFFFFFFFFFFFFFFF000000000000004B
S315080040700000000000000000000000000000000032
S31508004080F0FF002000000000F0FF0020F0FF0020F5
S3150800409098ED0020D0D90208EA5B020838E400202F
S311080040A03C0F0020002804080000012046
S3150800420098ED0020D95802084136020845360208BA
S315080042104D3602084936020851360208C8370208E0
S31508004220C8370208C8370208C8370208C83702085C
S3150800423055360208C8370208C83702080B4E000868
S3150800424099300208C8370208AF900008C837020834
S3150800425023DE0008C8370208C8370208C83702082C
S3150800426005810008D95D000845580008A5420008E0
S31508004270AF210208C837020809900008B3210208CE
S31508004280AF930008C8370208C8370208C8370208BB
S31508004290012100F01F029140314A400942F82010DE
S315080042A07047000070B52F4C2F4D60782968490774
S315080042B027D5032825DAA18804EB4002918101213C
S315080042C0A27801FA00F01043A070284A2078002846
S315080042D012D0002320FA03F6F60708D59940637032
S315080042E04840207004EB4300808A106009E05B1C9C
S315080042F0DBB2032BEEDB04E0106000F0A7F8032026
S3150800430060704FF6FF702860BFF35F8F70BD80B591
S315080043101448002101700022032141700021C17058
S315080043200521018100218170001D10490A604A603B
S315080043304FF400428A601022CA60486101208861F1
S315080043400320C8600421084801644FF6FF71016024
S315080043500B20FFF79DFFBDE8014000F0B5B800004F
S3150800436000E100E028F1002010A8004004E0004029
S3150800437000F02FBC2C48012181604EF6BE21416019
S315080043800121016070472949012008607047A52866
S3150800439005D125484DF6AD6141600221016070479F
S315080043A02148006810F0010018BF0120704701215C
S315080043B000F0070291401E4AC00802EB4020416106
S315080043C07047012100F007029140194AC00802EB24
S315080043D040200161704780B51649174A10200860C9
S315080043E016491748007803000BD003280CBF002095
S315080043F00120106040F651000860002000F062FEBF
S3150800440006E0022010604FF40060086000F0A7FB89
S315080044100C48072101600021016410200A49086040
S31508004420002002BD00000000006000400860004057
S3150800443000B0004080E100E0080000400C60004049
S31508004440BCFF002014A0004000E100E07047704760
S31508004450DFF8243533F810001040C840704730B5EF
S315080044600FF2D854DFF8143534F810409C60114028
S31508004470DFF8044534F8105095432943D9600222E1
S315080044801A6000221A6024F8101058680028FCD117
S3150800449030BDDFF8EC24DFF8EC041278DFF8E81416
S315080044A00AB149780EE0895611F1090FB8BF3021D3
S315080044B008DBC16D39B1C26D40F24A31B1FBF2F188
S315080044C089B2C91E01607047E0B5DFF8C0040188EB
S315080044D00A2300F065F8BDF806104FF6FF720D20A6
S315080044E0FFF7BDFF07BDF8B50546B5F5004FDFF880
S315080044F098441AD1DFF898040188022300F050F88E
S31508004500BDF80000000AFF2801D0010000D11820DC
S315080045106070BDF800000006C00E10281CBF001D04
S3150800452000F0B8F9BDF80000C543DFF854647078A8
S3150800453008B1002005E0A089ADB26840C00701D5E2
S3150800454001207070DFF84C04A58105F001040168AC
S3150800455041F4004101604FF440520FF2045000EB61
S315080045604400C5F340074078010389B20220FFF7EB
S3150800457076FF204600F00EFE4022B90100F028FA28
S315080045802D06A80E00F0010038433070FFF781FFB2
S31508004590707818B1FFF798FF002070700020F2BD00
S315080045A07F22684600F06ABEA0F10B02A0F10B015B
S315080045B0102A89B201D38A207047012202FA01F132
S315080045C0DFF8D42353880B43538001231370938851
S315080045D0194391800021DFF8C42311704BE12DE9BE
S315080045E0F04FDFF8BC43DFF8B073207887B00423B8
S315080045F004900C210B38C0B203906846039A00F069
S31508004600FBFE9DF800008DF80A009DF801008DF864
S3150800461009009DF802008DF808009DF803008DF842
S315080046200500DFF880030078012806BF607880F06F
S315080046300105012501F007FA82469DF90200039952
S315080046400AF10A06AAF10A09B042B6BF81454FF037
S3150800465001084FF0000801208840ADF806009DF8D3
S315080046600100000604D47888BDF80610084201D077
S315080046704FF0010801F080FA9DF8030000060AD4FD
S31508004680B888BDF80610084205D19DF90000B04269
S31508004690B8BF814502DB4FF0010901E04FF0000980
S315080046A048EA050059EA000000F0A480DFF8F8B2ED
S315080046B0BE49DBF80000BE4E400800F001008DF848
S315080046C00400BC48006800F4E06005904FF4E06020
S315080046D00860002001F05EFE00F000FCADB16078D5
S315080046E058B1DBF80000AF4940084000CBF800009D
S315080046F00120087000F0D7FC07E0306840F400504D
S315080047003060306820F480503060A6480078012870
S3150800471010D161780D4208BF01F091FFDBF8000067
S31508004720A04940F00100CBF8000000200870642082
S3150800473000F0B9FC607880F00100054203D00498C7
S31508004740C0B202F052F8607838B1306820F4805070
S315080047503060306840F400503060BDF80600C5434C
S31508004760B8F1000F08D002F02BF98DF801008DF88A
S3150800477002A0788828407880B9F1000F08D002F0A6
S31508004780D0F98DF803008DF800A0B8882840B880C5
S315080047909DF900009DF90A10884202BF9DF80100A4
S315080047A09DF8091088420BD19DF902009DF9081061
S315080047B0884202BF9DF803009DF80510884206D07E
S315080047C0039904236A46C9B20C2000F03CFE0598FA
S315080047D07849086000F070FE9DF8040001F0DAFDE3
S315080047E002F0BFFA607828B148F260703060642041
S315080047F000F059FC9DF8010002F04EF89DF8030000
S3150800480002F08AF907B0BDE8F08F80B501F00EF91D
S31508004810BDE80140E3E601F009B970B5064601F0C6
S31508004820D5FC0546A6F10B001028A6F10B0401D30A
S315080048308A2070BD60488168090702D40068C007ED
S3150800484001D58C2070BD564806705C4801680C2955
S315080048500FD00FF280115A4A92F90020A4B231F80B
S3150800486024105118C161FFF7BAFE012D08BF01F0E7
S315080048704EFC002070BD10B5044601F0D7F820465E
S31508004880BDE81040C9E74648007870473E4890F9A9
S31508004890000070472DE9F041044614F12B0F86B04D
S315080048A048DB484801881423FFF77AFEBDF8100054
S315080048B04FF6FF71884203D0400448BF012606D44C
S315080048C03F2200211020FFF7C3FD0546002604F10C
S315080048D02B022F2A2C483C491AD213220FF23413E2
S315080048E000E0521ED2B213F91270BC42F9DB03EB98
S315080048F04204032764780C60002413F81210017030
S3150800490000218846C6B1BDF810104FF6BF722AE0DE
S31508004910092C0FDA025D0A60047014232B480188FB
S31508004920FFF73EFE4FF4C0514FF480744FF08008F5
S315080049302827E7E78B201BE04FF4605200F048F881
S315080049404FF4E062214600F043F88022414600F029
S315080049503FF885F020003D18ADB2402DA8BF3F2591
S315080049603F2285F0200100F033F8FFF792FD002082
S3150800497006B0BDE8F081000040FB0020E8100040CA
S31508004980C5FF00206410004064F00020F2D502083C
S3150800499000D602081C100040EEFD0020DFFF0020B4
S315080049A00CF10020DEF000208020004080E100E0CD
S315080049B0D010004000E100E060200040AC1000404C
S315080049C0C4FF0020EED50208C0100040F0D502084A
S315080049D00B2044E5AA212900552329000025280093
S315080049E0AA26270055282700002A2600AA2B2600D3
S315080049F0552D2500002F2400AA3024005532230007
S31508004A0000342200AA35220055372100003920003B
S31508004A10AA3A2000D500E601EC02EF03F204F405F9
S31508004A20F506F707F808F909FA0AFB0BFC0DFD0F5E
S31508004A30FE11FF1300160119021C031F10001100B6
S31508004A4020003000400041005000600070008000E7
S31508004A509000A000B000C000D000E000F000000008
S31508004A6000000103DFF8DC145120086070472DE9C7
S31508004A70F041DFF8D4640546F0780428B4BF30273F
S31508004A8060274FF4F070B0FBF7F41E2D24B201DB5B
S31508004A90281B04D5A8B2BDE8F04100F004BB02F01B
S31508004AA09BF900F028F870700721DFF8A004DFF8FA
S31508004AB0A02400F047F8291B09B27943C91C8908C4
S31508004AC0491EDFF89054DFF87C7441602E6800F0C8
S31508004AD0AEF83C68386820F04000386002F082F989
S31508004AE03C602E6002F082F900F0F4F94046BDE819
S31508004AF0F04102F083B98046012080F310887047A0
S31508004B0038B5DFF84414C9780429B4BF30246024C2
S31508004B104FF4F071B1FBF4F1451A1E2D04DA9C210D
S31508004B200FF2844002F070F9DFF82004DFF8202441
S31508004B30072100F007F805FB04F1C91C8908491E7E
S31508004B40416031BD01600021416081604FF0007114
S31508004B5011607047DFF8F02301215170D0E72DE985
S31508004B60F041DFF8F453DFF8F46300242C60346076
S31508004B704FF4A040706041F29A084046FFF777FF6D
S31508004B80686844F69041081A00B24FF4487190FBE1
S31508004B90F1F000B20828A8BF072004DA10F1080FC0
S31508004BA0B8BF6FF00700306008274046FFF75FFF81
S31508004BB04046FFF75CFF686804197F1EF8D1211D7F
S31508004BC0DFF89C03C908B0FBF1F080B27060BDE85D
S31508004BD0F08138B5DFF88C5301206FF00F04A86018
S31508004BE02C608020FFF743FFE868FF2802D8641C82
S31508004BF0102CF5DB31BD70B5DFF86C03DFF85453C4
S31508004C00016841F0010101600121416002F0E4F808
S31508004C102E68044600F00BF8CA49512008602E6039
S31508004C2002F0E4F82046BDE8704002F0E7B82868CC
S31508004C3040084000286002F0D9B810B5C24C0120DF
S31508004C40207000202071C948816901F003010329F9
S31508004C5007D10020A070042000F060F80120207120
S31508004C6010BD0F210160022181610120E0706420DE
S31508004C70BDE810406EE72DE9F041BD4CBB4EA0885B
S31508004C80B14F4FF6FF78404540F2DC551CD1B94884
S31508004C90018802237F22201D00F0F0FAA0884045F3
S31508004CA004BF0220A080B069800703D4B06940F031
S31508004CB00200B0610120B870A08830602846FFF76E
S31508004CC049FF2846BDE8F081B2699207EED5BA7861
S31508004CD0002AF6D1B268B36812F0010203D10F2890
S31508004CE009D2401C06E09B0705D523781BB103288B
S31508004CF001DB4044A080A08822700228BCBF0220A5
S31508004D00A0803068A1888842D4D1B06900F0030039
S31508004D10032818BFFFF76FFF0020D3E72DE9F047F8
S31508004D20804695480178002569B9C078072818BFD4
S31508004D3009280DD0032818BF112809D013281CBF2D
S31508004D4015280B2804D08D48016841F4807101604C
S31508004D5002F042F88146FFF7CFFE4046FFF78BFF89
S31508004D6008B9012515E07B4F764E3C68386840083F
S31508004D704000386002F03AF8D6F800A0306820F013
S31508004D804000306002F02EF8C6F800A03C6002F041
S31508004D902DF800F09FF8484602F030F82800D7D0E2
S31508004DA0BDE8F0870220B9E76848694A00214160F2
S31508004DB08160016821F002010160002162484170AA
S31508004DC04FF000711160817809B100218170C178B6
S31508004DD0012914D16A4901220A606A4A1268D2076F
S31508004DE048BF03210FD40222C270086C40F00100AC
S31508004DF00864042064490860644908607047C178FB
S31508004E00042901D10521C17070474F484078002810
S31508004E1018BFFFF7C9BF00F0B6BF2DE9F8434A4CE3
S31508004E20207908B354E001F0D7FF0546FFF764FE82
S31508004E30E078032813D0474EDFF8088100F0ACF875
S31508004E40D8F80090D8F8000020F04000C8F8000014
S31508004E5001F0C8FFC8F80090376001F0C7FF00F0FE
S31508004E6039F8284601F0CAFFE0780328DBD1404E1E
S31508004E703E4DB08828604FF6FF777088B8420CD14F
S31508004E804348018802237F22B01C00F0F7F9708896
S31508004E90B84202D16420708001E0708878B17088C9
S31508004EA03C494A6D42F001024A650A68AB68DB076D
S31508004EB0FBD50B689B1AC3F313038342F6D3FFF79C
S31508004EC09AFE0420E0704FF4C870BDE8F24341E64C
S31508004ED0BDE8F183002080F3108870472DE9F84378
S31508004EE0194C2179207881F0010108421DD124E06E
S31508004EF001F072FFFFF7FFFDE078052810D0154E88
S31508004F00104D00F049F8D5F80090286820F04000C8
S31508004F10286001F067FFC5F80090376001F066FF6A
S31508004F20FFF7D8FF404601F069FFE0780528DFD192
S31508004F300020A0700520FFF7F1FE00202070BDE8D4
S31508004F40F183000000800040D9FF002010E000E057
S31508004F5004ED00E094ED00E0104000400C00004035
S31508004F600060E316084000401C4000400440004032
S31508004F70CEF0002002D602089607080838400040FE
S31508004F8018A000400C40004080E200E000E100E08C
S31508004F9006D60208382000403768306840084000C6
S31508004FA0306001F023BF0000636C6F636B732E6380
S31508004FB00000000010B5002001F0D9FE684C40F64C
S31508004FC08C2188422068B4BF40F0080020F0080011
S31508004FD0206010BD10B504466248018882B000F012
S31508004FE05DF89DF800109DF80100FF2902BFFF2813
S31508004FF00420002122005C4A136818BF801C23F491
S315080050006073C0B20828A8BF072043EAC010106022
S3150800501008291068A8BF0721C00841EAC000106027
S315080050205248047013BD524800B5018883B000F099
S3150800503035F8BDF800004FF6FF7188420EBF4FF4F1
S31508005040E1600A2190FBF1F0ADF8000047480078CE
S3150800505008B34448018802237F2201A800F00EF90C
S315080050609DF80500BDF80030FF2808BF0420811C04
S31508005070C9B20829A8BF0721C1F12F0202EBD272D3
S31508005080C0F12F00521000FB0320C1F12F01B0FB25
S31508005090F1F0ADF80000BDF800000EBD02237F2236
S315080050A0684600F0EBB833490A68032809D34B6D04
S315080050B043F001034B650B689B1AC3F31303834242
S315080050C0F9D3704710B5040004D110BD4FF47A70B7
S315080050D0FFF7E9FF2046441E80B20028F6D110BD2E
S315080050E02548017869B9C078072818BF092814D057
S315080050F0032818BF112810D013281CBF15280B2801
S315080051000BD01E48016841F480720260C80504D4B9
S3150800511038210FF2740001F077BE704720B10128DC
S3150800512007D0032818D019E0154801B117210160E6
S3150800513012E049B1480800F1B77000F55850B0FBC5
S31508005140F1F0B0F1011F01D3202070470D4900F09E
S3150800515001024A6040080860002070472120704715
S3150800516000BC0040F4D5020818000040C7FF002024
S31508005170F6D502083820004096070808384000404F
S31508005180100004E068C800407573625F6572726F4C
S31508005190722E6300F0B5044689B00020FFF71AFFA7
S315080051A0284801880A237F22684600F067F8BDF878
S315080051B002004FF6FF75A84204D1DC210FF29000D9
S315080051C001F022FE00260FF2A00701E02A4616B9D2
S315080051D04FF47C4203E0022E08BF4EF23F023DF830
S315080051E01610B85DFFF73BF9761C052EEED3012C99
S315080051F003D114237F22144802E014237F22134884
S3150800520001880FF26C0703A800F038F800262A4632
S3150800521008E02A46012E08BF4FF6C07202D0082EB3
S3150800522008BF002203A830F81610B85DFFF717F973
S31508005230761C0A2EEDD3012C04BF0120FFF7CAFE07
S3150800524009B0F0BDF2D50208F0D50208EED502087D
S31508005250616E616C6F6775652D63656C6C2D62692F
S3150800526061732E630000000000100C0D0E00000094
S31508005270010203040708090A0B0F000030B50446AB
S3150800528010467F2808BF00204BF23462914283B053
S315080052901AD108237F2240F612016846FFF7EEFF6F
S315080052A008220FF2C401684601F0FAFE30B9082355
S315080052B07F2240F2A2716846FFF7E0FF082269469E
S315080052C0204601F0A3FE37BD1F4D294300FB0311FD
S315080052D01A46204601F09AFE37BD2DE9F0410C46E4
S315080052E019490FF2780841EA0006C007154602D5A3
S315080052F0622100F02FF8E80702D5632100F02AF8AA
S315080053001248864204D3A819401E1149884202D37E
S31508005310642100F01FF8002706E0F05DFF2802D0A0
S315080053206B2100F017F87F1CAF42F6D36A082146B6
S31508005330304601F020FF28B14046BDE8F041712112
S3150800534001F062BDBDE8F081000008080008080801
S3150800535000100808404601F057BD00006D66672D2D
S31508005360746F6B656E2E6300FFFFFFFFFFFFFFFF85
S3150800537030B50FF23811DFF828510A6883B001A852
S315080053800024026001202870002001F039FF30B1A6
S31508005390002001F035FF10B12C7049203EBDDFF822
S315080053A00401018802237F220DF1020000F024F88F
S315080053B002237F220021684600F01EF8002001A97A
S315080053C0BDF8022031F81010914208BF0124401C94
S315080053D00228F4D3BDF8000024B1B0F57F7F07D1C9
S315080053E000203EBDB0F57F7F14BF0420062000E0F4
S315080053F00720002129703EBD10B5FF2908DCDFF81B
S31508005400A040247844B1BDE81040C9B202F002BAFF
S31508005410BDE81040FFF732BF10BD10B5FF2908DC04
S31508005420DFF87C4024786CB1BDE81040C9B202F0C0
S315080054302CBA7F2A08BF0022DFF86C40214302FB02
S315080054400311016010BD2DE9F0410546FF2D0E46FA
S31508005450174698460FF2580013DCDFF844402178C7
S31508005460A1B1617811B1C02101F0CEFC01206070B4
S31508005470434632463946E8B202F04AFB00206070DD
S3150800548004E0BDE8F041CB2101F0BEBCBDE8F081E7
S31508005490DFF80C100978002918BF02F045BC7047E0
S315080054A0C0FF0020FAD5020800000808FE01FD0228
S315080054B0746F6B656E2E630010B5DFF858461020C2
S315080054C0206301F089FCDFF850160A6842F00102F1
S315080054D00A6001F093FCDFF84406606020608A30B9
S315080054E061688931616001212163E060A060DFF8AD
S315080054F03016E0688930E060022020634FF6FF70BE
S31508005500086010BDDFF81C0645F26401C1601E2163
S31508005510416250210162C821C1618165F021C165DE
S3150800552045F690014166882181660621C16644F2E6
S31508005530066101604FF6FF714160DFF8EC050078FF
S3150800554038B1DFF8E80548F2607101604FF4C151DF
S315080055504160DFF8DC05016841F0040101600020C4
S31508005560DFF8D01548707047DFF8B4050068C00743
S3150800557000D408E07047DFF8A805006810F0190F96
S3150800558000D100E070470021002002F0FFBC2DE9A1
S31508005590F0478046DFF8A015012002F08CFD8A212D
S315080055A0DFF8780501FB08F14518681C4178007892
S315080055B000EB0126DFF88415DFF884050978017009
S315080055C000EB0809002089F80200B6B2B00603D538
S315080055D0DFF87045606E000640F18F80002106F006
S315080055E00700032861D106F4406006F44042B0F58E
S315080055F0806F1CBFB2F5804F002A56D00423B0F541
S31508005600006F08BF082303D0B0F5406F08BF0E230C
S3150800561070065CBF9B1CDBB2B2F5004F0CBF9F1C2B
S3150800562003F10807FFB2781C00EBD070C0054FEAFB
S31508005630106A5FEA080014BF60682068504534D3D2
S31508005640E818B2F5404F03D102F09BFD014613E07E
S315080056504078E95C01EB002080B202F09BFD002156
S31508005660FF2808D0DFF8E024126832F810004FF45B
S31508005670E462104200D00121080016D0300714D485
S315080056805FEA080014BF606820680AF101029042C8
S3150800569007D2E0685FEA080214BF0222012210421C
S315080056A0EED1E85D042818BF0021E06D000900F07E
S315080056B00100814289F802001FD00029A16C4FF42D
S315080056C000604FF480620BD0B8F1000F08BF104697
S315080056D0014212D0606C40F00100606401200AE0CB
S315080056E0B8F1000F08BF1046014206D0606C4008AA
S315080056F040006064002089F80200BDE8F0872DE9C3
S31508005700F84F0446DFF83C54DFF8346420000CBF39
S3150800571028686868C1B2052905DAFFF725FF7068A9
S31508005720401C70608CE040008DF800008A2000FB69
S3150800573004FBDFF8E8839DF8000008EB0B094844F2
S31508005740A0F108073878797801EB00201FFA80FA6B
S31508005750B8786630B870307818B9DFF8E0030078A2
S315080057603070307838700020307002F0E6FD7870BE
S31508005770DFF8AC73386C20F4805038642000686E0B
S3150800578002D17868400504D4012C23D17868000535
S3150800579020D5FFF7E9FEDFF8B403017891B10021BF
S315080057A001701AF4E45FDFF8A803016802D000224A
S315080057B0402005E099F80100000900F001028F2059
S315080057C002F07DFE20000CBF4FF480604FF40060AD
S315080057D0786030E01AF4E45F2BD100F08FFD10B149
S315080057E05FEA4A4025D518F80B00802821DA386C7C
S315080057F099F80110890626440ED5696E09060FD454
S31508005800A96CC9060CD4396822000CBF80224FF453
S3150800581080720840104203D1FFF7A6FE0020B07040
S31508005820B2789DF80010484602F018FF0020B070C4
S3150800583001E0FFF799FE002C0CBF01200220286129
S31508005840BDE8F18F2DE9F84FB54CBE4E2068216CA6
S31508005850DFF800B3DFF8F482DFF8FC92DFF8D8A2AD
S3150800586001EA000538E061B18A22AC495043084490
S315080058704078C00605D4B648016800228F2002F099
S315080058801EFE280608D50FB9FFF76EFE02F088FE41
S31508005890802025F080052060E80509D50FB9FFF7B7
S315080058A063FE02F07DFE4FF4807025F4807520605B
S315080058B0680407D50FB9FFF757FE4FF4804025F463
S315080058C080452060280407D50FB9FFF74DFE4FF431
S315080058D0004025F400452060002D73D000272807D6
S315080058E006D50020FFF753FE082025F0080520609E
S315080058F0E80606D50120FFF74AFE102025F0100518
S31508005900206005F06000602803D1B06CC0050AD499
S3150800591001E0A80605D52020206025F020050020F6
S3150800592006E0680606D54020206025F040050120DF
S31508005930FFF7E5FEE80404D54FF4805025F48055BA
S315080059402060E8079DD5012020606D0802F045FB20
S315080059506D0078B14FF448725146012002F04EFBB3
S3150800596002F0C2FA40054CBF03200120002102F0D4
S315080059700DFB012799F8010008B100F0FBF899F82A
S315080059800000002806D000F02BFC012807D198F863
S31508005990000000283FF475AF9BF8000004287FF448
S315080059A070AFF068400800F00100002814BF716865
S315080059B0316811B92168C904F7D5002814BF716880
S315080059C0316850E700202060BDE8F18F6348006821
S315080059D07047F0B506460D4689B00021032001F050
S315080059E069F904AC08E034F811205040491C08292C
S315080059F03080F8DB6D1EB61CE8B290B1002701F0C6
S31508005A0074F924F8170001F070F9694621F81700AF
S31508005A107F1C082FF3DB04A802F0B4FF0020002146
S31508005A20E5E701F09EF9012009B0F0BD0321022047
S31508005A3001F040B94FF6FF71081A292190FBF1F0E1
S31508005A403A3040B2704738B501F04FF9FFF7F2FF28
S31508005A50434D04462878B0B90321032001F02AF9FA
S31508005A604048018802237F226846FFF707FC01F0B9
S31508005A703CF9BDF80010401880B2FFF7DBFF153877
S31508005A8068700120287001F06CF96878201A40B215
S31508005A9032BD80B50321022001F00CF9BDE80140B2
S31508005AA0D1E770B530480078002490B9FFF7F1FFC8
S31508005AB0204E0546707848B13078401B40B202F057
S31508005AC06AFF0B2805DB3570012402E001203570DA
S31508005AD07070204670BD25480078704723490B78BA
S31508005AE0984200D1704780B5087040B1204900201F
S31508005AF008600948016821F08001016001BD00F0D5
S31508005B007DFC00F053FC00F0BCFBBDE8024000F051
S31508005B10A0BB00000020004084200040F8FD0020C3
S31508005B2000A000404C1000400DF10020D0100040AD
S31508005B3080200040D5FF0020775500080CF1002092
S31508005B40A8FB002020200040A8EE002024FC00200E
S31508005B502CFC0020DDF00020D1FF0020382000407A
S31508005B60D3FF0020F8D50208DEF00020D7FF00207A
S31508005B70541000407047704710B50D48018884B02E
S31508005B800A237F226846FFF779FBBDF800004FF627
S31508005B90FF74A04204D14E210FF2180001F034F927
S31508005BA0BDF8001022460020FEF759FC1FBD000074
S31508005BB0F2D50208616E616C6F6775652D66696C52
S31508005BC07465722E63000000DFF83C08007848B15F
S31508005BD0DFF838080179012904BF4079042801D182
S31508005BE001207047002070470FF6D0014008085C76
S31508005BF07047010644BF4FF6F83101EAC000704706
S31508005C00491C800189B2B0FBF1F080B2FF288CBF35
S31508005C100020C0F1FF00C0B2704738B5DFF8F407BE
S31508005C20C17809B1002032BDDFF8F447617871B157
S31508005C30E178007945182079ADB28542A8BF0546B6
S31508005C4002F0C3FE0121A940491E084000E00020D9
S31508005C5061790818C0B232BD2DE9F0470446C0077D
S31508005C6005D540F27B110FF6440001F0CDF8DFF8B8
S31508005C70B457286DC00748BF8C2000F18280DFF832
S31508005C809407DFF89C7700210170417829B93978A3
S31508005C9019B1A96F41F0010102E0A96F490849004D
S31508005CA0A967DFF868877A7898F80610DFF8789792
S31508005CB0DFF8786792B1002202710129286D40F059
S31508005CC00400286506D14FF6FF7030604FF4007067
S31508005CD0C9F80000FFF7A1FF82460CE0286D20F006
S31508005CE00400012928654FF0000A04D100F03CFAA7
S31508005CF06420FFF7D8F9A86F20F00800A8671420D9
S31508005D00E864C5F848A0787838B198F806000028FD
S31508005D1001BFA86C00280120A864B8790028286D5E
S31508005D2014BF40F0080020F008002865FFF74CFF74
S31508005D3018B1306C40F008003064202028626C608E
S31508005D402C604FF4E06468687F306860042028623D
S31508005D50DFF8DC06046006E002F048FE18B102F03F
S31508005D604DFE01F039F8DFF8CC06006800F00300B4
S31508005D700328F1D0C9F80040286D40F001002865D5
S31508005D800020BDE8F087DFF8B00600214160816099
S31508005D90016821F0020101604FF00070DFF89C16DF
S31508005DA008600120DFF8981608707047A0F13301E3
S31508005DB0DFF89026914200D3704710B5DFF8804689
S31508005DC000212170FEF79CFE02E0012002F024FE6D
S31508005DD020780028F9D010BD2DE9F84FDFF84C8659
S31508005DE0DFF83056D8F80000D8F84010DFF83476D7
S31508005DF001EA0004A4B2C8F800406878002840F018
S31508005E00D380E007DFF84066DFF814964CD5D7F85C
S31508005E1000A0386C796C41EA0041A96099F8000045
S31508005E2000283DD09AF80100800639D5012028704F
S31508005E30FFF7CAFEC0B31920FFF735F9DFF80CB62D
S31508005E404FF44040CBF82800DBF800000090F06ED5
S31508005E5040F40050F066F06E40F48050F0669AF810
S31508005E600010A8684901B83101EB000AFFF7AEFD3A
S31508005E70AAEB0000C0F31300FFF798FFF06E800945
S31508005E808001F066F06EBDF800100843F066002049
S31508005E90CBF8280048F26070F066E888306003E0C6
S31508005EA00022002002F00BFB20060ED5287830B120
S31508005EB0002028700022A968402002F000FBD8F8CC
S31508005EC03C0020F48050C8F83C00600608D5687885
S31508005ED030B9FFF77BFD01460022892002F0EFFA70
S31508005EE0E00652D5DFF824A5DFF83CB59AF8040099
S31508005EF0012804BF9AF8061001291FD100F09FFB5C
S31508005F00386F40F001003867002400208AF8060040
S31508005F10FFF7D2FA0A20FFF7C6F84FF6FF70C8F85F
S31508005F2000004FF4E060CBF800000920B8660120B5
S31508005F30B864B86F40F00800B86718E02979491CBA
S31508005F402971C9B299F80220914215D2012808BFD1
S31508005F5000F0DDF8B86F20F00800B8671420B866BE
S31508005F60FFF75BFEB8644FF40070CBF80000386D9D
S31508005F7040F00100386508E0687830B9FFF726FD7B
S31508005F80014600228D2002F09AFA20070CD5FFF769
S31508005F901BFE48B13068E88001203060D8F8400020
S31508005FA020F00800C8F84000A0060AD5202038626C
S31508005FB0687830B9FFF70AFD01460022882002F00A
S31508005FC07EFA687820B114F4407F04BF0120A870D7
S31508005FD0BDE8F18FDFF87C0400887047DFF83014DD
S31508005FE00028086814BF40F4404020F44040086088
S31508005FF0704770B582B00546FEF70DFCDFF8580409
S31508006000DFF81444DFF80464002101601521E1601B
S31508006010092101651F21416001210166DFF8340469
S315080060200088FEF760FAFFF76DFA02F0B9FF00F094
S315080060302BF9308900F055F9708900F05AF900F00B
S31508006040CBFE616841F04001616000F0D7FE7078D0
S3150800605000F0E8F8B07800F0FCF8DFF80004007803
S3150800606000F029F9DFF8F80390F90000FEF712FCB2
S31508006070307800F08FF996F9030000F097F9DFF809
S31508006080E40300F0B5F9BDF80000DFF8DC13C0053D
S315080060904CBF0020BDF800000870DFF8D003007878
S315080060A0FEF7BBFB28B140F2C2310FF2004000F008
S315080060B0ABFE012D04D12068C00748BF00F027F8C1
S315080060C06DB92068C0070AD400F0B9FA206840F014
S315080060D001002060C820FEF7E6FF0020B071F1201D
S315080060E0DFF84853286440F2F910E86301F075FFB9
S315080060F0FFF774FFFFF7E0F92068C00704D54FF6ED
S31508006100FF70286000F05DF8FEF7E8FE73BD70B515
S31508006110DFF85C53DFF8F4422E68A079012822D014
S3150800612000F05AFEB6B2DFF808232E604FF4E0619D
S315080061301160DFF81C130A6A520852000A620A68DC
S31508006140520852000A600A6842F002020A604A6A65
S3150800615042F001024A620121A17100F04FFEBDE83A
S31508006160704000F05EBA70BD70B5A84CA07938B31F
S3150800617000F065FA00F030FE0546DFF8F812A74E83
S3150800618001200860306D40F0010030650020A071E4
S31508006190FFF792F920203060306B40F00200306340
S315080061A0F06D40F00800F065284600F027FE0A204A
S315080061B0FEF779FF9D494FF6FF70086000F001F879
S315080061C070BD4FF4E0609849086070478F48807941
S315080061D070478E480079012808BFFFF798BF7047B7
S315080061E08A480079704780B5022801DB012002BD84
S315080061F0864908718979884205D010B9FFF7B4FF36
S3150800620001E0FFF784FF002002BD9B48006880027A
S3150800621000149A3801B211F1800FB8BF6FF07F00F1
S3150800622040B2704710B5044600F0D6FD93490A6897
S31508006230002C04D042F012020A60012103E022F089
S3150800624012020A600021714A517043E06F48407893
S31508006250704738B5054600F0BFFD0446FFF73BFC1E
S3150800626040B986482900016814BF41F0800121F031
S3150800627080010160654885702046BDE8324000F01F
S31508006280BDBD6248807870477D494A780B787D485D
S3150800629003EB022202608B78CA7803EB0222426083
S315080062A00B794A7903EB02228260CA79897901EB74
S315080062B00221C160704710B5044600F08DFD6F4994
S315080062C022000A6814BF42F0200222F020020A6067
S315080062D062490C70BDE8104000F090BD4B4800893B
S315080062E070474A49088168490860704747484089A5
S315080062F07047464948816549086070476448007890
S3150800630070475348816A41F00201816201210160A8
S3150800631070474F4800210160816A21F002018162BD
S315080063205020FEF7C0BE38B55A4C5B4821695B4D14
S315080063300180E1694180E96C818000202061FFF7D6
S31508006340E0FF0120E0610020606220624CF25D00FF
S31508006350E864286840F4004028604FF40040206054
S3150800636048F20200206031BD80B5FFF7D2FF4948E8
S315080063704FF4004101600021016048490A6822F48F
S3150800638000420A60444A9388CB64118801615188A7
S31508006390C16101BD204902000A6814BF42F0020229
S315080063A022F002020A6019490870704738B5044697
S315080063B07F2C0AD13A4800F01BF8BDF80000C0054A
S315080063C054BFBDF800406FF04A0400F005FD0546CD
S315080063D0FFF781FB30B964B204F19A0080053149B0
S315080063E0000C08600948C470284600F007FD31BD56
S315080063F0018802237F226846FEF740BF034890F9CA
S315080064000300704700000000E3FF0020D8F00020DA
S3150800641040A0004024FC002080200040302000409E
S3150800642074F000201020004000E100E004A00040C5
S3150800643080E100E0A820004010E000E004ED00E064
S31508006440E4FF0020CDFF070064100040E410004080
S315080064506020004070F000205C100040E2FF002041
S3150800646064F0002004D60208C4FF00200CF10020C6
S315080064701C100040281000400C10004084200040EA
S31508006480A0FB002098200040942000409020004067
S3150800649017F100201810004020FF0020C01000400F
S315080064A00AD6020854100040704700007068792D1B
S315080064B0636F6D6D6F6E2E6300000000FEF7C801F6
S315080064C038B50120FEF7D7FB0020FEF783FD7A4C8E
S315080064D0206840F008002060FDF74CFFFEF76AFDD3
S315080064E0764977480A78C2604B78764AD360764B05
S315080064F08D78DD608D880560CD88456008891060D7
S315080065004889506088891860C889586000F089F8F9
S31508006510206820F010002060FDF7F9FE02F04CFD1F
S31508006520FEF740FCFDF724FFBDE83140FDF753BFF9
S3150800653040F2016002F09ABD10B502F064FE03F065
S3150800654034F8624900F001F810BD5D480A78C26067
S315080065504B785C4AD3605C4B8C78DC608C88046032
S31508006560CC8844600889106048895060888918601A
S31508006570C8895860704710B5FEF75FFBFEF71AFD2D
S315080065804E49FFF7E2FF00F04CF84B48016821F04E
S3150800659010010160FDF7BBFEFEF73FFC03F006F8AD
S315080065A0BDE8104002F04BBEF0B50F249D0004FA7A
S315080065B005F51668284215D0002505EB830720FA4D
S315080065C007F7FF070BD5AF0004FA07FC26EA0C0607
S315080065D031F813C004FA07F707EA0C073E436D1CA7
S315080065E0042DEADB1660F0BDF0B5FF24DD00AC40F3
S315080065F01668204213D00024012504EBC30720FAAD
S3150800660007F7FF0708D505FA04F7BE43CF5C05FA76
S3150800661004FC0CEA07073E43641C082CEDDB1660F5
S31508006620F0BD38B50021002001F0B0FC01F0D8FC1F
S31508006630274C2068002801D0244D0AE031BD38B522
S3150800664001F0CFFC224C2068002801D01B4D00E049
S3150800665031BD204A00232946FFF7C6FF20681E4A97
S3150800666001232946FFF7C0FF20681C4A0223294652
S31508006670FFF7BAFF2068124A002300F037F82068AF
S31508006680174A012300F032F820680E4A022300F068
S315080066902DF82068134A032300F028F820680A4AD0
S315080066A0042300F023F82068291D01B0BDE8304016
S315080066B005230D4A78E7000000BC004090EF002053
S315080066C000B0004000B2004000B40040A0EF002037
S315080066D00CF800200CB000400CB200400CB400408E
S315080066E004B0004004B2004004B40040291D5BE732
S315080066F00320FEF7CDBE80B502F09DFF01460FF2DE
S3150800670070000B2938BF00EB810002BD80B502F08E
S3150800671096FF0FF288010204120E51F8221000F0BB
S31508006720FF0001EB800002BD0000000010B502F07A
S3150800673082FF044602F083FFC0B208B9012C07D1D4
S31508006740072C11D8DFE804F004100608080A0C0E16
S31508006750002010BD092010BD022010BD032010BD69
S315080067600B2010BD062010BD44F0800010BD0000AF
S31508006770554E4B004649420042544C004558540079
S31508006780505752005744470020535700435253006E
S315080067904653480042414400464C540084CF020800
S315080067A088CF0208E0CF020800D0020808D0020805
S315080067B014D0020820D002082CD0020834D00208CF
S315080067C040D0020850D002082A490A689209920164
S315080067D00A600A68104308604FF4004126480160C1
S315080067E0002101606420FEF75EBC2DE9F047234DC9
S315080067F0204FD5F80090224C8046286840F4004087
S315080068002860386820F480503860207868B162784B
S315080068101C48A17800EB820200EB880012F82A2CAB
S3150800682010F82A0C891A461802E001202026207042
S31508006830B0B2FFF7C9FF0FF2500A02E0B0B2FFF795
S31508006840C3FF386B042805D0386B400754BF761E43
S31508006850761CF3E7F86A38B184F80180A6701FFA47
S3150800686089F02860BDE8F08740F22111504600F013
S31508006870CBFAE6E7D0100040181000401C10004084
S31508006880DFFF0020D4490008616E616C6F6775658B
S315080068902D76636F2E63000081014FF4FE5289B294
S315080068A00C20FDF7DCBD2DE9F84F8F4CDFF83CB224
S315080068B0A56820681FFA80FA00F053FA0127B0206D
S315080068C0ADB200264FF00A08B946206308E016F173
S315080068D0190FB8BF4FF00A08464436B27019A060BF
S315080068E0DBF80000000702D559EA070028D0012086
S315080068F0FEF7D9FBB9F1000F11D0AAF103008742C0
S3150800690002DAFF1CBFB213E00AF500402060062138
S31508006910092000F0CFF957464FF000090BE0DBF8E5
S315080069200000000707D5042FA6BFFF1EBFB2002729
S3150800693007F5004020601A2EC9DB6FF00908CBE77F
S31508006940A560C4F800A00820CBF8000068480068D5
S3150800695080B2BDE8F28F80B5624B66491B784FF06E
S31508006960FF326BB1002819BF4A606348486041F29C
S3150800697011100860614841880088BDE8044092E724
S31508006980002819BF4A600A604860086000F0E9F903
S31508006990BDE804400621092000F0DDB938B501201C
S315080069A0FFF7D9FF04460020FFF7D5FF054601206B
S315080069B0FFF7D1FF4042001B00EB450000B232BD95
S315080069C02DE9FE4F4E4CDFF83C81A06A454EADF8E6
S315080069D002002568D8F800B0307860B14FF6FF722B
S315080069E000210820FDF734FDADF80000C022C021C3
S315080069F00820FDF734FD4448DFF81091007818B1F7
S31508006A0048F26070C9F8000070883C4F40F4404076
S31508006A1040F04C00C9F83C000220A062012020602A
S31508006A2040F24C40FEF73FFB0120C8F80C00C8F8BE
S31508006A3000000020388040207880307800B120207F
S31508006A40FFF72AFFFFF7AAFF8246402038807F20FB
S31508006A507880FFF721FFFFF7A1FF0290504601F06B
S31508006A609AFFFE2101FB00F70298AAEB00000190AD
S31508006A70307860B1029801F08EFF8246019801F0E5
S31508006A808AFF80B207EB8A11B1FBF0F005E00198A6
S31508006A9001F081FF80B2B7FBF0F080B2401CC7035B
S31508006AA01FFA8BF0C8F80000ADB20020C8F80C0039
S31508006AB0022020602560BDF80200A0620020C9F807
S31508006AC03C00307830B1BDF800104FF6FF72082050
S31508006AD0FDF7C5FC40F24C40FEF7E5FA380CBDE878
S31508006AE0FE8F0000D4F00020C010004018A000401F
S31508006AF00070004038100040EEEEFFFF1CFF00203B
S31508006B0060200040281000400DF10020D010004001
S31508006B1041003F2289B201E001463F220220FDF7EB
S31508006B209EBC2DE9F04F564C564D95B0E06CADF82D
S31508006B3010004FF6FF782068ADF80E004246E86A66
S31508006B40ADF80C0000210120FDF782FCADF80A0023
S31508006B50424600210B20FDF77BFCADF80800002615
S31508006B604FF4004020600DF1140B00202861686185
S31508006B7048F2020000F088F84CF68C30E0644FF4D6
S31508006B80805248F2F000E86211460120FDF767FCE2
S31508006B90424600210B20FDF762FC0621062000F084
S31508006BA0DAF8019000F082F800904CF69C30E06428
S31508006BB00020FFF7ADFF0621062000F07BF8B0B2F3
S31508006BC0FFF7A6FF0621062000F074F800F08DF8FE
S31508006BD02BF81600761C202EF1DB00F086F8102024
S31508006BE0FFF796FF00F062F80099019A401ABBF881
S31508006BF020108E1A404306FB06094FF0100A11278B
S31508006C0000F04EF800F052F800F043F805DB1FFAE2
S31508006C1087FA7F1C202F8146F2DBBAF1100F0ED1BE
S31508006C200F2700F03DF800F041F800F032F806DBD7
S31508006C301FFA87FA7F1E3FB2002F8146F1D5BDF8AD
S31508006C401000E0644246BDF80E002060BDF80C0056
S31508006C50E8620120BDF80A10FDF701FCBDF808102E
S31508006C6042460B20FDF7FBFB01202861002000F0BF
S31508006C700BF84FEA4A00C0B215B0BDE8F08F000025
S31508006C80C010004018100040286040F24C40FEF743
S31508006C900ABA0099401A404306FB06004845704761
S31508006CA03BF817000199461AB8B231E706210720C2
S31508006CB000F051B870B505460E4602F0D3FC3F4CBD
S31508006CC0206C20F00800206402F0CEFC00F084F866
S31508006CD0E90141F001013A4A41EA06311160082109
S31508006CE02160BDE8704000F089B82DE9F041354CC7
S31508006CF0354D324E25E002F0B5FC344904200860D3
S31508006D00306C40F0080030642F682868400840005E
S31508006D10286000F06BF8D4F80080206820F0400066
S31508006D20206000F05FF8C4F800802F6000F05EF87D
S31508006D30306C274920F0080030640420086002F00F
S31508006D4093FC30680007D6D50820306021480068D3
S31508006D5080B2BDE8F08180B5FFF7ACFFBDE8014021
S31508006D60C3E7174801684908490001607047F8B544
S31508006D700746FEF758F9044639460320FFF7EBFFA6
S31508006D80054639460120FFF7E6FF0646FDF75FFB95
S31508006D9039460020FFF7DFFF0746FDF757FB08488F
S31508006DA00168490849000160781B0004711BB0FBA3
S31508006DB0F1F060434000000CF2BD000018A000404E
S31508006DC0047000400080004094ED00E000E100E01F
S31508006DD080E200E000700040EFF31180602181F34B
S31508006DE01188704700BF30BF00BF7047BFF35F8F81
S31508006DF0BFF34F8FBFF36F8F7047000080F3118882
S31508006E007047000042DE704738B504460D46FDF768
S31508006E10BAFAFFF7E1FF2946204602F04CFC2B465A
S31508006E2022460FF2D411002002F0B7FE294620466A
S31508006E30BDE83440E6E767482DE9F047664D016846
S31508006E402E1D4FF420687165016AB16563490968AA
S31508006E50F165416A3166816A7166C16AB166016B1C
S31508006E60F166806B306796F8340040074CBFF46BC8
S31508006E70B46B02F08EF90022F2648442584A014645
S31508006E8024BFA2F1200AA2452746316505F18C03E5
S31508006E90DFF850C1DFF850E118D3A0693064E4691F
S31508006EA07464746DC4F30804062C13D1704511D3A9
S31508006EB060450FD200884DF64264A0420AD1306878
S31508006EC0586040F201787068986003E000273764DC
S31508006ED0776407464548814202D2014600E0091D0B
S31508006EE00846904203D20C68B4F1CD3FF7D040492A
S31508006EF0081AB0640021002005EB8004401C06280F
S31508006F00A167F9DB002003E0C0B205EB8004A167A6
S31508006F10974222D252F8041D7145F9D36145F7D23A
S31508006F20CC07F5D5002405EB8409D9F8789089456E
S31508006F3002D0641C062CF6DB062CE9D1002814BF07
S31508006F40401E0520E0E7716F002405EB8402641CEF
S31508006F50D76F9767052CF8DB19600146481EC9B23A
S31508006F600029F0D1706DC0F3080002280AD0032862
S31508006F7015D0042816D0052817D0062818D00C28AE
S31508006F801CD01EE01B480168890748BF40F6021856
S31508006F901CD40068C00719D540F2025816E040F61E
S31508006FA0012813E040F6022810E040F603280DE019
S31508006FB0B8F5206F0AD140F6042807E040F6052800
S31508006FC004E018B1242838BF40F607284046BDE833
S31508006FD0F087000004ED00E00000002000E300E078
S31508006FE098ED0020EA5B020890420008980000200D
S31508006FF098ED00201CA000400D0A5B4153534552F2
S31508007000543A25703A25645D0D0A0000814233D250
S3150800701010441144401E491E10E011F8013900F8C9
S315080070200139121F11F8013900F8013911F801392F
S3150800703000F8013911F8013900F8013992B2042A29
S31508007040EBDA93B2002B1EBF11F8013900F80139AB
S31508007050521EF6D1704711F8013B00F8013B121F8A
S3150800706011F8013B00F8013B11F8013B00F8013B20
S3150800707011F8013B00F8013B92B2042AEBDA93B20D
S31508007080002B1EBF11F8013B00F8013B521EF6D13A
S315080070907047130003D00A46194602F0BFBD704771
S315080070A010B500E0521E93B223B100F012F8F9D0E1
S315080070B0181B10BD002010BD10B500E0521E93B27B
S315080070C02BB100F006F8F9D0181B40B210BD00200D
S315080070D010BD10F8013B11F8014BA34270470000A0
S315080070E04148018A40F6A772914202BF408A4FF48E
S315080070F07F41084203D1022801DB012070470020A6
S3150800710070472DE9F84F82468846384DDFF8D4B0E7
S31508007110FFF762FE2F68044628684008400028608A
S31508007120FFF764FE01208BF80000FFF7D9FF28B9A6
S3150800713040F201110FF2B800FFF766FE2A48D0F8B0
S31508007140289041464AF48070C84706462F60FFF7E4
S315080071504DFE2046FFF752FE00208BF800000FF286
S3150800716098040EB1A05D04E041464AF40070C84791
S31508007170205CBDE8F28F2DE9F84F804689464FEA34
S31508007180420A1A4EFFF728FE376805463068400857
S3150800719040003060FFF72AFEFFF7A2FF28B94FF438
S315080071A0A2710FF24C00FFF72FFE0F48D0F824B05B
S315080071B00023524649464046D84704463760FFF7FB
S315080071C015FE2846FFF71AFE0FF22C050CB1285DAE
S315080071D005E05346002249464046D847285CBDE8A4
S315080071E0F28F0000D8FF00200000080894ED00E0A8
S315080071F0666C6173682E6300000202024B4B4647B9
S315080072002DE9F04F8BB080462A22FF216846FFF70A
S3150800721040FFDFF8B0A0AE22FF215046FFF739FF46
S315080072202A250027284CDFF8A490294EF05D19F886
S3150800723007B0E15D401C00EBD070401001B1193079
S31508007240401C00FB0BF2234830F817100FF2980089
S3150800725092B202F017FDBBF1010F1CBF2AF81750B6
S315080072605D447F1C2A2FE1DB0FF298002A2340F2A7
S315080072701C4240F2AD2102F005FD4FF4E04000F05B
S315080072800CF90FF2540518B19D212846FFF7BCFDED
S315080072904FF4804000F001F918B19F212846FFF706
S315080072A0B3FD4FF4805000F0F8F818B1A121284634
S315080072B0FFF7AAFD6946404600F01DF90BB0BDE888
S315080072C0F08F0000E0F9002060D10208B8D102086A
S315080072D08CD102080CD1020873696D2D6565707230
S315080072E06F6D2E630000000043726561746F723A19
S315080072F02030782532582C20576F7264733A20252F
S31508007300640A000053696D454520646174613A203A
S31508007310256420776F726473206F66202564206D5C
S3150800732061782C20746F6B656E436F756E743A20A6
S3150800733025640A0010B5DFF8B84ADFF8383B248818
S31508007340001B06E010B5DFF8304BDFF8283B246851
S315080073501B1B03EB4000002304E030F8134021F820
S3150800736013405B1C9342F8DB002010BD2DE9F04169
S3150800737082B004460D4616460027DFF8F88A01E073
S31508007380BF1CFFB2B74217DAE819E95D4078DFF8A3
S31508007390EC3A1B8801EB0020ADF80000012207EB50
S315080073A0D77004EB6000C01A00F0ADFB0100E7D00F
S315080073B002F076FC002000E00120BDE8F681F8B571
S315080073C004460F46154600260DE000F019F8BDF8EC
S315080073D0000004EB4601000A48707F1CBDF8000057
S315080073E004F81600761CB6EB550FEEDBE80706D553
S315080073F000F006F8BDF80000611901F8010CF1BDAE
S3150800740001226946B8B295E7DFF8E429DFF8641A7D
S315080074101288801A01EB40010220FFF772BEDFF8DE
S31508007420601ADFF8602A095C125CDFF85C3A185CBF
S3150800743010B102F5997292B241EAC21080B2704751
S31508007440DFF83C3ADFF8442A1B5C012B1CBF32F8F4
S315080074501000081802EB4000704738B50C46DFF8F4
S31508007460301A0D782A462146FFF764FF2088010066
S315080074701CBF4FF6FF7188420BD0012000E0401C6C
S31508007480C1B2A94207D2C0B234F81010228891427C
S31508007490F5D0002032BD012032BDF0B5DFF8D8198D
S315080074A087B008600C2269460020FFF74BFFBDF83D
S315080074B01600BDF80C200346040A012000254FF6E5
S315080074C0FF763DF81570BDF80010B94203D1B742F2
S315080074D018BF002F00D100206D1C062DF1DBB21A53
S315080074E0914218BF0020DBB2C4F1FF018B4218BFDE
S315080074F0002007B0F0BD2DE9F24F0446DFF8946985
S315080075000020307070809CB0DFF88C090088ADF8D8
S31508007510020007A9FFF7A1FF83460120707009A999
S31508007520DFF878090588DFF87809B0F80080DFF811
S31508007530C0080788BDF802A03846FFF78EFFB8B125
S31508007540BBF1000F3DD0BDF81C10BDF824004FF666
S31508007550FE72914202D1012804D10CE0012908BF2C
S3150800756090422ED00846BDF82410884229D202E05F
S31508007570BBF1000F24D00020707002975046069584
S31508007580CDF810800122DFF8081991F800804044F0
S31508007590ADF806006946BDF80600FFF7CBFEDFF832
S315080075A00409008805904FF6FF79BDF80000000B26
S315080075B0404518BF0F2801D1200021D0002516E02C
S315080075C0012470780028D8D03846CDF808A0CDF820
S315080075D018800495D6E7059805FB00F4E01900F035
S315080075E06FFCBDF80200201800F06AFC6D1C4545CA
S315080075F0F1DB012030704D2002F052FB0025F7E048
S31508007600BDF80650012201A92846FFF793FEBDF8EA
S315080076100400C04300F0FF00ADF804006F1CDFF85B
S3150800762088080588BDF80400A84218BF01244FF051
S31508007630000A20E0401CC1B2A94218D2C0B2DFF845
S315080076406C18BDF80E20834631F81B109142F1D113
S31508007650FFF7E5FE4FF680710840BDF80C104FF6AF
S3150800766080721140884204BF1C9800F80BA00AF1EA
S3150800767001001FFA80FABDF80400824507DA0222E3
S3150800768003A9B8B2FFF756FEBF1C0020D3E70020B7
S3150800769001E0401C80B2A84217DA1C99095C8142B5
S315080076A0F7D0012411E02AF81070BDF8060000EBA7
S315080076B04300401C00F0ECFABDF80200C0F3C71006
S315080076C0401C00EBD07007EB60070498DFF8BCA7F6
S315080076D0BFB287420EDA00F099F8BDF800004845B7
S315080076E008D0030A00F07F01BDF804007F1C83421E
S315080076F002DB012400252DE0002000E0401CA84202
S31508007700D3DA1C9A125C9A42F8D1C0B2FF28CCD0C0
S31508007710DFF86C27125C7F290CBF4FF0000C8C46F3
S3150800772094450BDABDF800C0DFF85CE71EF800E008
S315080077304FEA0C6C4FEADC7CF44501D00124B4E72F
S31508007740012AB0D07F293AF8100008BF002108188E
S31508007750A9E76D1CDFF858070088854204DA3AF86D
S3150800776015004845F5D1012477800498BFB28742B1
S3150800777007DA00F04BF8BDF800007F1C4845F4D046
S3150800778039E7002CFCD1029801220BA980B2FFF739
S31508007790D1FDBDF82C0048450DD105E0401C80B24E
S315080077A0202813DB2034A4B20699029A891A8C423F
S315080077B005DB0120307000201DB0BDE8F08FA5184C
S315080077C020220BA9A8B2FFF7B5FD00200BA931F8B6
S315080077D010104945E2D0A8B2FFF716FE203CA4B225
S315080077E0E0E70298059905FB010000F069FB6D1CAE
S315080077F04545F6DB01203070494600F057F818B1C8
S3150800780000F046F90028D6D10120D5E701226946BD
S3150800781038468FE52DE9F0420F46DFF88C16DFF87B
S31508007820645609888F420446164699460CD2DFF8F4
S315080078305016C95D30467F2808BF0020884203DA03
S31508007840E95D894500D11CB940F2D64100F01CFA21
S3150800785031463846FFF7F4FD0188DFF82C06C05D8F
S3150800786060B1384600F046FAE95D012908BF207084
S3150800787009D0022914BF2060208004E04A46204629
S31508007880BDE8F0429BE5BDE8F08210B5044608461F
S315080078901146FFF7D5FDDFF8582500881288DFF86E
S315080078A0D415801A01EB4000206010BD2DE9F34F76
S315080078B0DFF83C05DFF8D8150488DFF8D80509781D
S315080078C0407883B000281ABFDFF8CC050088204628
S315080078D00D18DFF8D4050088ADF80800ADB2C0432E
S315080078E000F0FF0000EB013000F55060ADF8020033
S315080078F02B1BDFF8800501220DF1020100F0E4FAE6
S315080079006E1C0100B6B23AD10025DFF8A07513E067
S31508007910E8B2FFF784FDADF80400331B37F815000D
S31508007920ADF806000222DFF84C0500F0CCFA01009B
S3150800793025D1B61CB6B26D1CBDF808008542E7DB3A
S31508007940002500E06D1CBDF80800854280F29B808A
S31508007950DFF83405405D8DF80A004FF0000A1BE099
S3150800796001220DF102011FFA89F0FFF7E3FCBB19AA
S31508007970DFF8000500F092F9010009F101097AD152
S315080079807F1CFFB2B7EB1B6FEADBDFF82805405D0B
S315080079908619B6B20AF1010ADFF8E404475D5FFA10
S315080079A08AF0B842CED25FFA8AF1E8B2FFF748FD0C
S315080079B080469DF80A00B8F80090C00140EA052004
S315080079C0ADF80000012FBDF800000EBF40F07F00A3
S315080079D05FFA8AFA4AEA0000ADF80000311BDFF8C0
S315080079E0940400EB41004FF6FF71771C89451EBFD2
S315080079F0BDF80010BDF810209142BFB219D19DF80C
S31508007A000C100029C6D001226946FFF7B4FB010015
S31508007A103E4630D1DFF86C04A8F80060425DDFF816
S31508007A20980450F825103046FFF7A0FC0028ACD182
S31508007A3024E0DFF85014495D491C01EBD1714FEA87
S31508007A40C15B01226946FFF796FB01003E4612D14B
S31508007A50A8F800609DF80A0098B14946E8B200F017
S31508007A6049F90190331BDFF80C044FEA1B6200F05A
S31508007A702AFA010089D002F013F9002005B0BDE802
S31508007A80F08F00277DE7DFF80C0446800120F5E734
S31508007A90DFF804042DE9F0410688DFF85403DFF81F
S31508007AA0F45304886878DFF8CC83002882B012BFC4
S31508007AB020463046264601226946FFF73BFCBDF8BC
S31508007AC0000001280CBF4FF6FE70401EADF80000FE
S31508007AD0DFF8BC0307783846471E58B1BFB2B81955
S31508007AE0001B012200F00FF80100F4D002F0D8F8CC
S31508007AF0002006E0687880F0010068700020287091
S31508007B000120BDE8F681694608EB4000FFF733BB64
S31508007B102DE9FE4F0D46DFF8901309888842044682
S31508007B2017461E464FF000094FF001080ED2DFF83F
S31508007B305013095D38467F2808BF0020884205DAB9
S31508007B40DFF84013095D8E4200D11DB940F2FA51A3
S31508007B5000F09AF839462046FFF772FC0190CD4F9F
S31508007B60787820B1CD48B0F800A0A14803E0CC4809
S31508007B70B0F800A0C8483978008849B97988081A41
S31508007B80CE4909888842B4BF4320442002F088F8C9
S31508007B9001980188BC48005DF8B1204600F0AAF8B3
S31508007BA0012E08BF297803D0022E0CBF2988296820
S31508007BB0814267D001980088401E00F069F8BD48E8
S31508007BC0065D7888AAF10101891B814201DB00283C
S31508007BD037D1387868BB452046E00291CB4622E08B
S31508007BE002980BEBDB7300EB630000F003F905EB7F
S31508007BF00B0015F80B10407801EB0020711E8B4521
S31508007C0080B207D1BDF8001001F0FF0100F0FF00B7
S31508007C10ADF80010BDF8001088420BF1020018BF3D
S31508007C20C8465FFA80FBB345DADBB8F1000FC1D06E
S31508007C3028E0BDF802100020FFF738FE10B34FF019
S31508007C40010978888F49401C788080B20A5D2946E8
S31508007C50FFF78CFBB0B1664C7B88248885485B1E91
S31508007C6000F01CF8010002D002F01AF80AE0B9F197
S31508007C70000F02D0FFF70CFF20B101997888088021
S31508007C8030187880BDE8F78F0FF24420FFF7BCB8AC
S31508007C9001220DF1020180B2FFF74CBB1B1B01222A
S31508007CA00DF1020100EB4300FFF765BA70B582B02B
S31508007CB004460025192601226946A0B2FFF73AFBB9
S31508007CC0BDF80000641C48B14FF47F41401A02D049
S31508007CD0FF3806D007E0681C40B276BDAD1C761E9C
S31508007CE0E9D168B276BDBDF80000C0B200B96D1C16
S31508007CF0E843F1E738B50C460021009161490D5C6F
S31508007D002A4621466846FFF75AFB681C00EBD070E6
S31508007D1004EB600080B2FFF7C9FF002848BFC043E4
S31508007D20009940B2401832BDF0B55F49098804464B
S31508007D30564883B0254630F815608C4202D2524820
S31508007D40405D18B940F23D71FFF79EFF4D48455D0D
S31508007D50681C00EBD07006EB6007B8B2FFF7A6FF09
S31508007D60322814D2BFB2C10707EB6000204F414B3F
S31508007D703F884CBF00214FF47F41ADF80410C01B6B
S31508007D80012201A903EB4000FFF7F5F960B131467E
S31508007D902046FFF7AFFF00902B46401C00907F223D
S31508007DA069462046FFF7B4FEF7BD70B53948017835
S31508007DB082B00024C1B94078002814BF36480C4860
S31508007DC00588334806780BE0F6B2701900F012F809
S31508007DD0BDF8000000281EBF4FF6FF718842641CDC
S31508007DE03046461E0028EFD1E0B276BD00000000FE
S31508007DF0D0D002080122694680B2FFF79BBAF8B5CF
S31508007E00244C20780027002832D11C480588607841
S31508007E1000281ABF204806882E461D480778384687
S31508007E20471E02281DDBFFB2B819FFF7E3FFBDF8AE
S31508007E3000000028F3D01B48008807FB006000F00C
S31508007E403FF80020ADF80000BB190A485B1B012269
S31508007E50694600F039F8010018BF01F021FF3846DD
S31508007E60F2BD3046FFF7D0FAF8B208B90120207003
S31508007E70F8B2F2BD00080408BCFB0020D0D0020806
S31508007E80B8D102088CD1020860D10208E0F90020B6
S31508007E90CCD002080CFF0020D4D00208D2D00208A9
S31508007EA0D6D00208CED00208DAD002080CD10208D1
S31508007EB0DCD00208E0D0020898D40208D8D002081C
S31508007EC080B2FFF7A1BA01A900EB4300FFF753B947
S31508007ED073696D2D656570726F6D2D696E74657247
S31508007EE06E616C2E6300000042484068704710B50A
S31508007EF0404CA078E17800F0010001F00101084348
S31508007F006168C90319D4C0B1E06848B1E0780007D0
S31508007F1006D5E16808208847E07800F0F700E070A9
S31508007F20A06870B1A07800070BD5A168082088471B
S31508007F30A07800F0F700A07003E0607808B1002090
S31508007F406070BDE810404DE02DE9F04104460D464D
S31508007F50FEF742FF274F804638780126A8B1200051
S31508007F600BD1B87800281CBFB868002805D0B878A7
S31508007F70400602D5B96840208847BD60B878A04257
S31508007F801CBFBC70FFF7B3FF002620E02DE9F041C7
S31508007F9004460D46FEF720FF164F80463878012620
S31508007FA0A8B120000BD1F87800281CBFF868002873
S31508007FB005D0F878400602D5F96840208847FD6064
S31508007FC0F878A0421CBFFC70FFF791FF00264046D8
S31508007FD0FEF714FF3046BDE8F08106480078704782
S31508007FE0704700BF03480178002141700020FDF763
S31508007FF075BD000090F40020FDF7E8BC2DE9F843B4
S3150800800005460E463000144605D1FDF7DFFC20185C
S31508008010C0F313004DE02F46022F0FF2501803DB72
S3150800802040214046FEF7F0FE102C05D22846B04700
S31508008030BDE8F143FDF7CABCDFF8209159F82700DF
S3150800804018B148214046FEF7DFFEB4F5002F03D3EA
S3150800805049214046FEF7D8FE49F82760404F414E71
S3150800806095B9FEF7B9FE0546FDF7B0FC2418A0B28F
S315080080707860200C3860022030602846FEF7BEFE85
S31508008080306C40F0020011E0FEF7A6FE0546FDF74B
S315080080909DFC2418A0B2F860200CB860042030605B
S315080080A02846FEF7ABFE306C40F004003064C4F39B
S315080080B01300BDE8F28370B504462646022E0D4627
S315080080C004DB66210FF2A400FEF79EFEFEF784FE8F
S315080080D0224951F82620AA4210D1002241F826202A
S315080080E0002C20490A6C04D122F002020A640222FA
S315080080F003E022F004020A6404220A60BDE8704024
S31508008100FEF77CBE70B5174C144E2068216C01EA48
S315080081100005ADB2A80709D5206C20F0020020643E
S315080081203168080002D000203060884768070AD501
S31508008130206C20F0040020647168080003D0002039
S31508008140706001208847256070BD01F0E9BE010016
S3150800815008BF01200201044900204FE7FCFB00206C
S315080081604020004008A000404B81000873796D62EA
S315080081706F6C2D74696D65722E630000704701205F
S315080081807047002070470020704700207047002085
S3150800819070477047F8B50F4D2E68040001D1FF20CF
S315080081A0F2BDFEF719FE0C4F29683A7821F81240FD
S315080081B036F8021BA142FBD1FEF720FE29683A7861
S315080081C0B01E401A4010C1B2914208BFFF20C0B28B
S315080081D0F2BD00BFA4EE0020F1F0002010B57348F0
S315080081E0734C00682060606048220021FEF751FF4A
S315080081F07048216800780870002021680873216893
S3150800820048730B202168887303202168C8734FF6CA
S31508008210FE71206801824FF6FF71418200F0D5FB9E
S315080082202168087600F0D1FB2168487600F0CDFB7E
S3150800823021688876604821680078C8765F49206892
S31508008240096840F8281F5E49097801715D48216868
S315080082500068086310BD10B5FCF715FB544C61683F
S31508008260897B884203D00846FCF705FB50B9FCF722
S315080082700DFB0146606890F90F00814204D0FCF7B7
S3150800828009FB08B1012010BD6068008AFEF729F8CD
S315080082906068408AFEF72DF86068007B012818BFE1
S315080082A00020FEF708F8002010BD10B5464C002047
S315080082B0207001F051FF20B92046BDE8104001F0BA
S315080082C0ABBF02F0A7F908B102F0D5F962E080B5B4
S315080082D0002000F015F828B1002000F005F808B1D4
S315080082E0002002BDFF2002BD31480068407B0228FD
S315080082F01CBF1128432801D1012070470020704770
S315080083002B480068007B012818BF022804D00328E0
S315080083101CBF0628072801D1012070470020704796
S31508008320002070470020704770477047002070474C
S31508008330012070477047002070470020704770473B
S3150800834070470020704780B50020FFF7CDFF18B1B1
S31508008350BDE802400020D3E702BD80B50020FFF744
S31508008360C3FF30B112480068007B032801DA0020F9
S3150800837002BDFF2002BD10B5040004D0E5210FF2AE
S315080083806C00FEF741FD094800684821614308442E
S3150800839007494860BDE810405DE705484068008A1F
S315080083A0704703484068408A70470000B8EE0020CE
S315080083B06CFB0020FCF00020FDF00020BCEE002045
S315080083C0F5F00020C0EE002064FB00207047002076
S315080083D070470020704702F0A8B9704702F092BBB8
S315080083E002F02ABD02F09BBB00000000656D6265C5
S315080083F0722D6D756C74692D6E6574776F726B2D41
S31508008400737475622E63000001224FF480618248FE
S3150800841002F08CBE38B504460D46012002F08AFEED
S315080084207E48002D12BF00210178491C017001F019
S31508008430B1FE7B4D98B9200003D0FFF755FD002803
S3150800844008D5FFF751FD40054CBF03200120002148
S31508008450FFF77AFD6C701020FFF7D6FF22E001289F
S315080084600DD100206870FFF73FFD40054CBF022084
S3150800847000206C4940F01100FFF766FD12E0022863
S315080084800BD100210020FFF75FFD00212020FFF718
S31508008490A9FF8D2002F0F9F904E075210FF2B0105A
S315080084A0FEF7B2FCBDE83240002002F043BE80B5BC
S315080084B0FDF78FFEBDE80240312002F0E6B938B577
S315080084C00446402C154606D1FFF70EFD00F0802025
S315080084D0B0F1004F03D000210020FFF735FD002C36
S315080084E049D0402C27D0882C18BF892C4AD08C2CF0
S315080084F04AD08D2C33D08F2C4ED14B480078042887
S315080085000FD155B14949022008704AF26002BDE808
S31508008510384047490020FFF771BDFDF75AFE312064
S3150800852036E0012001F0B2FBFDF753FE002D0CBF2B
S31508008530312000202CE0FDF74CFE02F0FCFD374808
S315080085403C4900780978884204D2BDE834400021C5
S3150800855001205FE7002001F099FB402018E002F0B7
S31508008560E7FD002001F092FBFDF733FE00212020F5
S31508008570FFF738FF0BE0012001F088FBFDF729FE25
S31508008580002005E0FDF725FE002001F07FFB8D2089
S31508008590BDE8324002F079B9BDE83440E22153E043
S315080085A022480078022800D0704780B52248007813
S315080085B0042807D00C2810D120480078022818BFB4
S315080085C07C280AD11A490020FFF775FDFDF701FE40
S315080085D0BDE80240002002F058B901BD38B5FEF7E3
S315080085E0FBFB054611480078002410B9FDF759FA37
S315080085F004462846FEF702FC1CB1BDE8314001F0EE
S315080086004DBB31BD80B5FFF7E9FFBDE804404FF427
S31508008610A0510B4801F00ABE26FF0020E5FF002006
S3150800862074F0002009840008DDF00020D4FC002046
S31508008630AF8400081AF10020E7FF0020E8FF0020B9
S31508008640ACFC002040F213110FF20400FEF7DCBB6D
S315080086506D61632D7068792E6300000070B504465D
S315080086600D461646FDF70DFE38B16078002E14BF8C
S3150800867040F0200000F0DF0060702946204602F036
S3150800868056FEFF2823D0984C984D0146201D03F02E
S315080086905FF82888401C288080B2218881420AD247
S315080086A06888401C6880201D03F067F802F0BCFD4E
S315080086B02888401E2880208829888842F3D38C4839
S315080086C0007801F0A1FEBDE8704002F030BA70BD36
S315080086D02DE9F04FA5B08246FEF77EFB834C218834
S315080086E0491E21800027FEF789FB504602F026FD29
S315080086F090F8009081784078009700EB01201FFAE7
S3150800870080F800F0D3F8A0F108020823D2B2514647
S3150800871002A802F028FE02AD687800F00F00FFF705
S315080087200EFE74480078F8B1606800281BD0E87817
S31508008730FDF75FFA4946FDF763FA07460020009001
S3150800874009F1010395F90250DBB20022514604A84B
S3150800875002F009FEFFF7EEFD63682A46394604A8CB
S315080087609847FFF7EDFD97E008F0070002282DD09F
S31508008770FF208DF80400504602F0E0FC00F1010BE2
S31508008780584603F0ABF80446A9EB0400861E76B2F9
S31508008790002E1BD45FEA885003D508F0070003288B
S315080087A010D101A9584603F035FA002875D108F00A
S315080087B0070001280BD19DF804000BEB040104F017
S315080087C07BFD20B99DF8040002F02EFD65E04A49BC
S315080087D09DF8040009680F5C4849096801F800A07B
S315080087E000F064F800F120019DF80400C9B202F017
S315080087F0ABFC9DF8040003F03BF800F00C000428DD
S315080088001CBFA619002470B280B20090631C9DF8A4
S3150800881004009BB25246394602F066FFF1199DF8EC
S315080088200400C9B202F050FE35496878097800F0AC
S315080088300F00884204DBD1210FF2CC00FEF7E4FAE0
S315080088409DF8040003F00FF86978C0F30D0040EABC
S3150800885081319DF8040089B203F007F8E878FDF73E
S31508008860C8F94946FDF7CCF902469DF804000321EC
S3150800887002F0D8FFAA789DF80400042102F0D2FF7E
S315080088809DF808209DF80400052102F0CBFF9DF80D
S3150800889004A0504602F055F80127504602F0C4FCE1
S315080088A0FFF74EFD384625B0BDE8F08F1248006840
S315080088B010F80A00704710B50C4C6188080005D0FE
S315080088C0C9B21D20FFF78EFD002060800D4802F01A
S315080088D054FFFF2803D0FFF7FBFE0028F6D010BD93
S315080088E0084802F071BF0000A4F00020BCFC00207C
S315080088F0C8FF002025FC002094EE00209CEE0020F6
S31508008900F4F00020A8F000206D61632D72656365A0
S315080089106976652E630000000268174912BACA60B4
S31508008920426812BA8A60826812BA4A60C06800BA97
S3150800893008607047704710B5104980220A60062300
S315080089400F4A136007230B6013689B07FCD50023A7
S3150800895050F823405B1C24BA042B8C62F8D31368A6
S315080089605B07FCD500220B6B1BBA40F82230521C61
S31508008970042AF8D310BD000038300040003000400B
S3150800898010A0004010B504460846FFF7C5FF20466C
S31508008990BDE81040CFE7002848BF404270470000B6
S315080089A001468AB20AB94BF6EF610F4A000C08BFB6
S315080089B04FF6CE201180508070470288130448BFB6
S315080089C04A40510001801046704738B5064C62216E
S315080089D02046FFF7F2FF054641F20B01A01CFFF700
S315080089E0ECFF684032BD0000BCF00020EFF31180B8
S315080089F060288041C043C00F70470000002181F302
S31508008A0011887047012100F01F029140DFF83825D0
S31508008A10400942F8201070472DE9F04FDFF830453D
S31508008A2091B061681091072808BF032006D008286E
S31508008A3008BF022002D0052808BF0420DFF8145515
S31508008A4029686A6841EA0221AA6841EA0241009156
S31508008A506968490703D5E16941F00201E1612968BE
S31508008A60490703D5E16941F00401E1610099EA6922
S31508008A70D140C90703D5E16941F00801E161401E0B
S31508008A80DFF8C864DFF8D07400210328316000F2EB
S31508008A902A82DFE810F0000206001B00040061606D
S31508008AA014E0386CC00703D5E06940F04000E06187
S31508008AB0386C400703D5E06940F02000E061386C67
S31508008AC0800703D5E06940F01000E061FEF784F9FD
S31508008AD0FBF766FC8DF83C000120DFF88014DFF810
S31508008AE080A4C1F58031090B00FA01F1491ECAF8C4
S31508008AF038104FF00009090A07D1DFF86814097819
S31508008B0019B1616C41F020016164396CDFF8588451
S31508008B10DFF858240E91796C0D91D8F84C100C9109
S31508008B20D8F850100B91D8F854100A91D8F8581064
S31508008B300991DAF800100891DAF804100791DAF8C2
S31508008B4014100691DAF824100591DAF83410049115
S31508008B50DFF81C1409681268039202222260DFF803
S31508008B60142412688DF80420DFF80C2412688DF896
S31508008B700520DFF8082412688DF806204FF0FF322A
S31508008B806262DFF8C4231368DB040AD56B68DB0767
S31508008B9007D5E369DB0704D5336843F48073814658
S31508008BA0336013689B040AD56B685B0607D5E369CF
S31508008BB0DB0704D5336843F4804381463360136882
S31508008BC05B0412D5009BD5F818C023FA0CF3DB0713
S31508008BD00BD5E369DB0708D53368D5F818C000FA62
S31508008BE00CFC4CEA03038146336013681B0414D556
S31508008BF0009BD5F81CC023FA0CF3DB070DD5E369F7
S31508008C00DB0702D4E3691B0707D53368D5F81CC010
S31508008C10814600FA0CF0184330601068C00308D586
S31508008C20E069000605D5F07840F008004FF0010924
S31508008C30F07000206A68D2076A6848BF4FF480500F
S31508008C405206009AAB6948BF40F40050DA40D20792
S31508008C50009AEB6948BF40F48040DA40D207E269DF
S31508008C6048BF40F40040D20605D4E269920602D411
S31508008C70E269520601D540F01000E269120648BFC3
S31508008C8040F4803008400290A520FBF780FB0120C5
S31508008C90E063E069A16B11B1616A0142FAD0616AC9
S31508008CA0014200F0C9800020E063F07840F04000FF
S31508008CB0F07000F0D7FC0498CAF834000720386032
S31508008CC00F20C8F8000004F07BFB1098A8496060E4
S31508008CD00E9838640D9878640C98C8F84C000B9870
S31508008CE0C8F850000A98C8F854000998C8F85800F7
S31508008CF00898CAF800000798CAF804000698CAF83F
S31508008D0014000598CAF82400029808609749039841
S31508008D1008604FF0FF309A4908609648006830703E
S31508008D2095480068707095480068B070606AE16997
S31508008D30EA693368084001994B4000990B400106DF
S31508008D40490E01F0010143EA81230106890E01F06B
S31508008D50010143EA81030106C90E01F0010101FA86
S31508008D6002F200051A4300F07C5010433060FEF70B
S31508008D7033F800F079FC002020609DF83C0008B12B
S31508008D80FBF7F8FAF0787A490968C90304D5C0F3FD
S31508008D90C00109B120212162396C890703D5C107B1
S31508008DA044BF0221F960396C490704D5C0F3400174
S31508008DB009B10421F960396CC90704D5C0F38000EC
S31508008DC008B10120F860D8F84C0010F0E00F05D083
S31508008DD03068C00544BF0C20FFF714FED8F85000D1
S31508008DE010F0E00F05D03068400444BF0D20FFF7AF
S31508008DF009FED8F8540010F0E00F07D03068A969CA
S31508008E00C840C00744BF0E20FFF7FCFDD8F858003D
S31508008E1010F0E00F07D03068E969C840C00744BFC2
S31508008E200F20FFF7EFFDF07840F08000F07011B0EA
S31508008E30BDE8F04FFFF7E2BDB9F1000F7FF435AF9B
S31508008E40DAF818004949DFF83CB140084000CAF88A
S31508008E5018004648806840F00400886040F2072100
S31508008E60BBF80000884202BFBBF802004FF20F01B0
S31508008E70884205D14CF23C30ABF802004FF00109AC
S31508008E80012004F0D7FAB9F1000F03D04FF20F0012
S31508008E90ABF802000FE7FBF783FA0446A520FBF7B9
S31508008EA076FA00F0DFFBFFF7A9FD374D374F2E683E
S31508008EB02868400840002860FDF798FFD7F800802A
S31508008EC0386820F040003860FDF78CFFC7F800804E
S31508008ED02E60FDF78BFF0CB1FBF74CFA11B0BDE81D
S31508008EE0F04F00F0C1BB11B0BDE8F04F40F254415D
S31508008EF00FF2A400FDF788BF11F1010F154A08D03B
S31508008F0001F0FF031360C1F307235360C1F3074160
S31508008F10916000231E490B601368002B04BF536839
S31508008F20002B01D192681AB10A6842F001020A6060
S31508008F300A6842F400720A600A6842F080020A600F
S31508008F406AE51449D8E7000000E200E090FA00203C
S31508008F500400004008BC004014A0004000000000C7
S31508008F60044000409807080814A8004008ED00E0EF
S31508008F7000E100E008B0004008B2004008B4004034
S31508008F8080E200E00000002094ED00E00080004050
S31508008F902000004000016000736C6565702E630058
S31508008FA003480188034808237F22FCF767B900BFF6
S31508008FB00ED60208A0FB002010B52648264A002136
S31508008FC041654FF4804425490C6004210160C46062
S31508008FD01621116000214165416D41F0600141652E
S31508008FE0162000F005F81E4908701E48046010BDDA
S31508008FF0162807D11C480068800900F0010080F097
S31508009000010070470020704710B51248144C4FF401
S315080090108041C160042101601620FFF7E9FF22782C
S3150800902001468A4218BF21700DD1501E8041C00FDB
S3150800903020701620217804F0E1FD2178481E804131
S31508009040C00F20702178BDE81040162004F0D6BD68
S315080090500000000014A8004020BC004080E100E0A9
S31508009060ABFF002000E100E008B4004010B504465C
S31508009070FDF7B2FE4849302008604849086048496B
S315080090800860102047490860200A0028464808BF9B
S3150800909024024FF20F0104804180BFF35F8F4348DB
S315080090A000210160416042484249086010BD4248BB
S315080090B00168C90708D5414A03211170016C49089E
S315080090C049000164012101600168090703D5016CA3
S315080090D021F008010164704780B5002000F009F806
S315080090E030B9BDE80440FD210FF2E400FDF78CBE5F
S315080090F001BD2DE9F042324C216842428D1815F027
S315080091001F0108D0002802D44842054403E048421B
S31508009110284400F120052B48A5F12006A84224BFC3
S315080091202948864203D3EFF30880854201D30020FD
S315080091302DE0FDF751FE81462448006810F001072E
S3150800914018BF04F054F9206801468D4206D2A84299
S3150800915024BFCD2100F80119F9D206E020380022F3
S3150800916001E000F8012B8842FBD32560304604F065
S3150800917043F9E22001E006F8010BAE42FBD30FB13A
S3150800918004F01EF94846FDF739FE20682038BDE888
S31508009190F0820B48006870473020004030C8004015
S315080091A030C0004010E00040000000201C40004095
S315080091B00400FA050CED00E018A00040DCFF0020D2
S315080091C09CF0002038E400203C0F002094ED00E0DD
S315080091D06D6963726F2D696E7465726E616C2E634C
S315080091E00000000080B5A6480021416041708170EA
S315080091F0A5210170012000F044FD00F046FD00F0B5
S315080092001EF8002002BD9F480168C90700D47047B0
S3150800921080B59D490A6822F440620A6001684908D7
S315080092204900016001680902FCD49848006810B139
S315080092306420FBF738FF96490020086001BD80B519
S315080092409448016841F080710160012092490860E4
S3150800925000209249FBF762FF9149924A0220086072
S3150800926000209149086091489149016001211160E7
S31508009270844A9049116040F2014101654FF48030FB
S315080092808D49086001BD8248006800281EBF7F48D6
S315080092900068002805D07F480068000E00F001002D
S315080092A0704700207047D12202704170090A817008
S315080092B082490A78C270501C0870042070472DE94C
S315080092C0F14F82B0DFF8F88100900026D8F8000048
S315080092D00099405C451D04F08EFDEDB201904FF6F5
S315080092E0FF7A19E0B11E9DF80800C9B202F033F9F9
S315080092F00746514604F03CFE82465E46FFB24FEAF8
S31508009300C90007FA00F0044309F10109B9F1040F8D
S3150800931017DB4FF060400460FFF7B5FFF6B298B36D
S31508009320AE4231DA04F067FD0199401A80B2B0F511
S31508009330FA7F29DC4FF0604000680128ECD1002450
S31508009340A146F0B210B95B270126D7E706F1010B53
S315080093500128F6B204D1D8F800000099475CCCE79A
S31508009360E91E884208BF5746C7D0A91E884208BFCB
S315080093704FEA1A27C1D0691E884208BF5D27BCD0AC
S31508009380A842AFD10027B9E74FF4C870FBF78BFEA8
S31508009390AE420CBF00200120BDE8FE8F484909688F
S315080093A0095C0429A8BFFFF78ABF012070472DE989
S315080093B0F04D334D6E78300060D004F01CFD8346C6
S315080093C03146002001F0B3FF0446FF2CA04602D127
S315080093D00020687052E0202EB4BF3746202701F0DF
S315080093E0ADFE6860AF70DFF8DCA004E0404601F02F
S315080093F0A5FE6860AF706878C8B104F0FCFCA0EB05
S315080094000B0080B2B0F5FA7F11DCA8780028F2D1FB
S31508009410F61BF0B200286E70EDD0DAF8000010F8EE
S315080094200880F6B2202EB4BF37462027DEE7F6B20C
S31508009430002E04BF6878002818D1A878B0B920484B
S315080094400068005D851EE9B2204602F02AF9122856
S3150800945008D1E9B2204602F037F82146122000F07A
S315080094601CFA06E0204600F062F902E00020687067
S31508009470A8702046BDE8F04D01F0D6BEBDE8F08DD7
S31508009480F0FF0020800E00E0001000E034000040ED
S31508009490100004E0FCED00E0040004E020A1070051
S315080094A0F00004E0000E00E0040304E0B00F00E062
S315080094B055CEACC50D00010000E100E0DEFF00203E
S315080094C094EE00209CEE002070470000002808BF9C
S315080094D0FFF788BE2120704700B1704710B52C48A9
S315080094E00468608828B140F24D210FF2C400FDF7E8
S315080094F08BFCA188C9B2A01D00F0EAF80020A08064
S31508009500208010BD704780B50B46114620B9184615
S3150800951000F0DEF8002002BD212002BDFAF733BFB5
S31508009520F0B51C4B1D4A1C6812881B4D0FE0278896
S3150800953010F8016B2744BE7126882F88761C96FB87
S31508009540F7FC07FB1C662680A688761CA6800E46B6
S31508009550711EF6B2CEB1A688571EBE42E7DB186862
S315080095600F4B10491C7824B90088088023201870EE
S31508009570F0BD0988018023211970038841888B4230
S315080095803ABF511A5918591A8180F0BD00000000D7
S3150800959024F0002034F00020109C0008C4D00208F3
S315080095A0ACF90020B0F900207047704770470000FA
S315080095B0756172742E63000030B522480168002078
S315080095C0002201249440CBB2234213D00FF2840028
S315080095D01D4C30F8120006284CF23C324FF20F03AD
S315080095E01DD16088984216D12188080A0B2812DAFC
S315080095F0084612E0521C92B2082AE2D3134908819F
S3150800960040F201720889904204D11148D0E900233A
S31508009610C1E9002330BD4FF4C0606280EEE740F236
S315080096200725A84201BF618899422188A942E5D148
S3150800963062800846E2E705480089000A7047034841
S31508009640008970472C000040000000203CF50020EF
