S00F00006E6F6465746573742E7333377F
S31500000000E8E603203D560100AD550100B15501005B
S31500000010A70A01020002000004180FAC10228C008F
S3150000002000000000000000000000000000000000CA
S3150000003000000000000000000000000000000000BA
S315000000400000000000000000FFFFFFFFFFFFFFFFB2
S31500000050FFFFFFFFFFFFFFFFFFFFFFFFFFFFFFFFAA
S3150000006000D00F000000000000000000FFFFFFFFAF
S31500000070FFFFFFFF1C000000000000000000000062
S315000000800000000000000000B2FF0320B2FF0320C2
S31500000090E8E60320CC950100AE58010010D80320F5
S311000000A07017002000F00F0000000000A8
S31500000200E8E603203D560100AD550100B155010059
S31500000210B9550100B5550100BD550100395601001B
S315000002203956010039560100395601003956010088
S31500000230C155010039560100395601005D630000C1
S31500000240539A0000DDF90000C91700003956010075
S31500000250E5F9000027FA000005FA000003FA00009D
S315000002601FFA00006DF30000A3ED000037BF000089
S31500000270B34D00003956010039560100BF53010045
S315000002803956010039560100C1ED0000395601000A
S315000002903956010039560100395601003956010018
S315000002A03956010039560100395601003956010008
S315000002B00FFA000017FA00007F9800003956010077
S315000002C0395601006D5801003956010039560100B2
S315000002D039560100395601003956010039560100D8
S315000002E039560100395601003956010039560100C8
S315000002F039560100395601003956010039560100B8
S315000003003956010039560100395601008C498D4A8B
S3150000031001E021B1491E1369DB07FAD401B9EAE00D
S31500000320506001201060106910F0060F05D04107DB
S3150000033000D5E3E0800700D5E3E000207047F0B584
S31500000340814C2668134600250022360704D425680A
S3150000035045F0040525600125002958D0784E1BBBC1
S315000003608B4254D22DB950F8047B27615B1C0827B9
S315000003700CE067693F07FCD550F8047B27615B1CDE
S3150000038067693F0701D58B42F6D31027676037466A
S3150000039002E0002F39D07F1ED4F814C05FEACC7C6F
S315000003A0F7D4002FDCD130E0EFF3108772B60023CC
S315000003B005E000F032F84FF0100CC4F804C08B4290
S315000003C00CD307B962B637461BE0D4F814C00CF05C
S315000003D0190CBCF1100F08BFC4F804C0D4F814C03F
S315000003E05FEA0C7CF1D5002DE3D000F016F8D4F8C6
S315000003F014C05FEA0C7CDED58B42F6D3DBE727B16F
S315000004007F1E6069C007FAD40FB96FF00202206838
S3150000041020F0040020601046F0BD50F804CBC4F86C
S3150000042010C05B1C70472DE9F0479A46474B464F74
S315000004301C681B683B688046002043F001033B6054
S31500000440950881460C4602E0B14404EB8604A945B2
S3150000045017D208EB89063046FFF758FF010018D17E
S31500000460C6F30A00C0F500608608A5EB0900B04295
S3150000047038BF0646524631462046FFF760FF010068
S31500000480E2D03968490849003960396821F0040129
S315000004903960BDE8F0872D49294A0B6809682A4961
S315000004A00B6843F001030B608860012048604869CF
S315000004B0400704D508684008400008601EE0486907
S315000004C0800704D5086840084000086019E002204B
S315000004D0486001E022B1521E4869C007FAD422B929
S315000004E0086840084000086005E0086840084000C9
S315000004F00860002070476FF0020070474FF0FF3031
S3150000050070476FF00100704700238CE70E480168C2
S3150000051041F00101016046F21A31C1644FF4807165
S3150000052041604169C907FCD44FF4007141604169DB
S31500000530C907FCD40021C1640020704700000000F8
S31500000540809698000C000E4008000E4004300E40C5
S3150000055070472DE9F047DFF8DC570FF29C010FF2E8
S315000005603C5A0FF22858DFF8D0970446287800F056
S31500000570B7FD0027CEA603E000F03CFC7F1CBFB20F
S31500000580206800EB07114A68287813001AD04A45FC
S3150000059009D14A69130018BF4A45EFD00A68414697
S315000005A000F09EFDEAE78B680A68514600F098FD68
S315000005B0206800EB0710C2682878002ADCD00FF20A
S315000005C0E441EDE70FF2AC0100F08AFD28780FF266
S315000005D0CC0100F085FD28780FF2F00100F080FDD7
S315000005E028780FF2141100F07BFD28783146BDE81B
S315000005F0F04700F075BD0000434F4D4D414E44207D
S315000006005B504152414D45544552535D205B2D2070
S315000006104445534352495054494F4E5D0D0A2020DC
S3150000062077686572653A20623D6275666665722C0A
S315000006302073313D696E74385F742C2073323D69C6
S315000006406E7431365F742C2075313D75696E743861
S315000006505F742C2075323D75696E7431365F742C6B
S315000006602075343D75696E7433325F740D0A0D0A58
S315000006700000000020202120202D20526563616C9F
S315000006806C73207468652070726576696F75732067
S31500000690636F6D6D616E640D0A00000020205B744F
S315000006A061625D202D20417474656D7074732074D1
S315000006B06F2074616220636F6D706C657465206372
S315000006C06F6D6D616E640D0A000000002020202011
S315000006D02A2A204E4F54453A20616C6C20696E7070
S315000006E075742076616C7565732061726520696E1C
S315000006F020686578210D0A00202020202A2A204320
S315000007006F6D6D616E647320617265204E4F54206B
S31500000710636173652073656E7369746976650D0A26
S3150000072000000000A0F141011A293CBF2030C0B2F0
S3150000073070472DE9F84F05460024A8680668F6B20A
S31500000740304600F026FD5FFA80F8304600F00AFDDC
S31500000750A1468246002606E01AF80600FFF7E2FFE9
S315000007600AF80600761C4645F6DB42460FF2A8015B
S31500000770504600F08FFD40B94FF0010905E038788A
S315000007800FF29C015A4600F0ABFC296820010A18BA
S31500000790526813003DD0DFF8A065641CB242A4B2D3
S315000007A0F3D151F800B0DFF88C75B9F1000FE6D13E
S315000007B0584600F083FD4045E7D14246514658462B
S315000007C000F05CFD0028E0D10FF2B4280FF2D42926
S315000007D00FF2540A04E0414600F082FC641CA4B205
S315000007E0286800EB041041680A0018BFB14210D017
S315000007F0836802683878514600F072FC286800EB7E
S315000008000410C2683878002AE5D0494600F068FC32
S31500000810E4E7BDE8F18F00006D6F64756C657300E9
S3150000082025700D0A000000002570202570000000CC
S3150000083070B5044688B0A068016801B10121DFF8EF
S31500000840FC542970406800B10120DFF8F464307070
S315000008500FF2600000F04DFFA068C16801B10121F0
S31500000860DFF8E0241170006900B10120DFF8D81428
S31500000870087008782B78079004F111010FF25C00DC
S31500000880069010780FF25C0205900FF2600004905B
S31500000890012003907BA00290307801900FF2540063
S315000008A000900FF2580000F024FF08B070BD000061
S315000008B00D0A00005475726E696E67206F666620B9
S315000008C074616773206E6F74207965742073757018
S315000008D0706F727465640D0A0000000074657874A8
S315000008E000000000686561646572000064656C69FB
S315000008F06D000000636F6D6D616E64007B264E2097
S31500000900566572626F73697479206F7074696F6E61
S31500000910732073657420746F3A0D0A2674750D0A78
S315000009202674750D0A2674750D0A2674750D0A2629
S3150000093074757D0D0A000000DFF81014007C51F874
S315000009402020DFF8F0030FF20801007800F0C8BBA2
S315000009504349204572726F723A2025700D0A0000D5
S3150000096038B5DFF8D043207845A500F03FFA207867
S315000009700FF2340100F0B4FB00F037FA20780FF2E2
S315000009804C0100F0ADFB20783FA100F0A9FB2078D8
S315000009900FF2440100F0A4FB20780FF24801BDE8F5
S315000009A0344000F09DBB0000456D626572204E6FBD
S315000009B064652054657374204170706C696361745A
S315000009C0696F6E2076312E30000000004170722073
S315000009D0203720323031370031373A33393A31391E
S315000009E0000000000D0A0D0A000000002DE9F24F7C
S315000009F0044682B0256BDFF83CB39046002705E03D
S31500000A001FA100F06DFB7F1CBFB210356868A8B34C
S31500000A10D5F80090DDF808A000260DE01AF8010BC5
S31500000A20FFF780FE009019F8010BFFF77BFE009997
S31500000A30C9B28142E7D1761CB0B24045EED32068F8
S31500000A40BD4E00EB07114B680A689BF80000B342E5
S31500000A5004D10FF2380100F043FBD4E78B680FF2A4
S31500000A603C0100F03DFB206800EB0710C2689BF8D4
S31500000A700000002AC4D00FF22C01ECE7BDE8F78F86
S31500000A800D0A0000746167002C2000002D2D2D2D0D
S31500000A90202570202D2D2D2D0D0A000020202570DB
S31500000AA020257000202D2025700D0A002DE9F04329
S31500000AB09BB00EA80FF29821342200F04BFE4FF0A7
S31500000AC000098DF80190A52000F0A4FE00F0F2FECA
S31500000AD000F07DF9002001F021F8050005D000F0B6
S31500000AE071F9002001F01AF8054600F070F90120AE
S31500000AF001F014F8060005D000F064F9012001F0B9
S31500000B000DF8064600F063F9022001F007F85FEAE7
S31500000B10000805D000F056F9022000F0FFFF8046DD
S31500000B2001F086F8834C5DB1002E68D0B8F1000F55
S31500000B306BD040F2FB110FF24C2001F07FF804E07D
S31500000B40002E18BFB8F1000F62D084F80090201D67
S31500000B5001F06AF9201DFFF703FF0FF23825207810
S31500000B600FF2382800F042F920780FF29C2100F0AD
S31500000B70B7FA6DA600F03DF9201D01F081FB00F0EB
S31500000B8034F920780FF28C2100F0AAFA00F031F93E
S31500000B90201D01F092FB00F028F920780FF2802149
S31500000BA000F09EFA00F025F9201D01F0E5FB00F0AB
S31500000BB01CF920780FF2742100F092FA00F019F96E
S31500000BC0201D02F07FFC00F010F920780FF268215A
S31500000BD000F086FA00F00DF9201D02F086FC00F008
S31500000BE004F920780FF2BC1100F07AFA00F001F94E
S31500000BF0201D03F013FC4DA54DA601AF3FE0B8F153
S31500000C00000F05D001202070A1E70220FBE7257028
S31500000C102078FF289BD100256946284600F0BFFFB3
S31500000C2038B99DF800000D2818BF0A2818BF2A28D1
S31500000C30EDD06D1CEDB2032DEEDBE9E78DF800007B
S31500000C409DF800107A5C481C0A2A18BF0D2A18BFA6
S31500000C50002AF3D10D227A548DF8000001A99DF8DF
S31500000C600020201D01F0ECF89DF8002001A90EA837
S31500000C7000F0BAFA9DF8009000208DF8010000F00F
S31500000C80B0F820780DF10103322201A900F08CFFA3
S31500000C900028D3D000F0BBFD00F003FF02F0FEFFFA
S31500000CA09DF8010020B39DF8011001A8084410F832
S31500000CB0010C09281CD100F09CF89DF80100401E8B
S31500000CC08DF8010001A99DF80120201DFFF78EFE79
S31500000CD09DF801100020785400F083F8002004E00D
S31500000CE000F07AF89DF80000401C00F063F8F7D396
S31500000CF09DF804002128C4D100F07BF84A460EA9CD
S31500000D0001A800F071FAA9F101008DF8010000F0C8
S31500000D1068F8002000F04EF8B3D200F05DF89DF8B8
S31500000D200000401CF6E700005D0D0A002563000088
S31500000D300D0A00002CE9032051050000F0EB03200A
S31500000D40F1EB0320F2EB0320F3EB032024EB03206B
S31500000D500D00000000000000000000000000000080
S31500000D60000000000000000000000000000000007D
S31500000D70000000000000000000000000000000006D
S31500000D8000000000706C6174666F726D7465737438
S31500000D902E6300005B494E49542000000D0A3E2098
S31500000DA0000000007365745065725465737454785E
S31500000DB0000000008DF800009DF801109DF800006D
S31500000DC088427047012300224FF4164170470123E1
S31500000DD000224FF4E13170473A5C2078294600F052
S31500000DE07FB94146207800F07BB92078294600F08B
S31500000DF077B92078314600F073B980B503F0AFFCBF
S31500000E00BDE80240002051E66372617368696E6650
S31500000E106F0000007265736574737472696E6700A3
S31500000E20696E6974546F6B656E730000696E6974E0
S31500000E30526164696F00000073656564506E726785
S31500000E400000000070B51346104402E0A4192C708F
S31500000E505B1EDCB24CB101F00F060909451E0A2ED5
S31500000E602846B4BF30243724F0E7104470BDF0B5EF
S31500000E70002341B1002806D501232D21B0F1004FF2
S31500000E80117018BF4042002100240FF2702555F85A
S31500000E902470002601E0C01B761CB842FBD2F7B2D4
S31500000EA00FB90F0005D0DBB206F13001D1545B1C3F
S31500000EB00121641C092CEADBDBB23030D054581C0B
S31500000EC0C0B2F0BD2DE9F24F804696B013A801904E
S31500000ED0154603A89B4603AE002700248DF80000A4
S31500000EE00BE0012405460198864205D300F0DCF8A4
S31500000EF000284FD100F0CEF86D1C9DF8000029782F
S31500000F00301A0A000BD0252903D014B906F8011BA4
S31500000F10E9E7002C14BF00246D1C29780A0000F0B4
S31500000F20AF80B1F1250216D00B3A092A40F289802A
S31500000F30283A7DD00A3A12D0521E41D0521E5FD0B6
S31500000F40083A5DD0121F3ED0D21E3CD0921E57D01A
S31500000F50D21E6DD0C7E7252006F8010BC3E7DBF8E4
S31500000F60000002904FF0000A0BF1040000F1040BA0
S31500000F70D0F80090CA45B6D2029810F80A1002229C
S31500000F803046FFF75FFF06460198864205D300F01C
S31500000F908BF800287AD100F07DF8A9F1010082458E
S31500000FA03CBF202006F8010B0198864205D300F0CD
S31500000FB07BF800286AD100F06DF80AF1010AD9E73A
S31500000FC05BF8040BC8E75BF8049B00F067F80028A1
S31500000FD05CD100F05FF84FF0000A01E00AF1010A67
S31500000FE05FFA8AFA19F80A000028F7D19DF8580026
S31500000FF052464946C047002848D15744FFB272E7D7
S315000010006C290AD16A785BF8040B752A0EBF002199
S315000010100121642A07D16D1C05E075295BF8040BD4
S315000010200CBF002101213246FFF721FF36185AE78F
S315000010305BF8041B0222C9B23046FFF703FF0646DF
S3150000104051E76A780124782A18BF582AF8D16D1C0E
S315000010500024681E322904D15BF8040B042281B2F5
S31500001060EAE734297FF43DAF5BF8049B04224FEA9C
S3150000107019413046FFF7E6FE04221FFA89F1DCE744
S3150000108000F00CF810B9F019C0B200E0002017B05B
S31500001090BDE8F08FF719FFB203AE704706469DF81C
S315000010A05800F2B203A940479DF80000361A9DF891
S315000010B05800F2B203A9404701A111E00000000068
S315000010C00D0A00000CB438B5044604AA00F010F866
S315000010D005462046FFF7F0FF284632BC5DF80CFBBC
S315000010E00CB480B502AA00F003F802BC5DF80CFB54
S315000010F080B504F0DDF8C0B202BD000000CA9A3B1C
S3150000110000E1F5058096980040420F00A086010098
S3150000111010270000E8030000640000000A00000039
S31500001120DFF8AC104A69904203D3C969884200F0DF
S315000011304CB800207047002818BFFFF7F1BF012008
S315000011407047010001D100207047DFF8841049691B
S3150000115001EB4000801E704780B5FFF7F2FFBDE847
S315000011600240E8E710B5040001D1002010BDFFF7EA
S31500001170F3FF18B940F2124100F023F82046FFF7BA
S31500001180E0FF0188090402D5D0F80A0010BD083036
S3150000119010BD10B5010001D1002010BDFFF7D1FF31
S315000011A00446FFF7C8FF18B94FF4856100F009F847
S315000011B02088000401D5208910BD6088C0F30C008A
S315000011C010BD0FF2100000F039BD8041C00F70470E
S315000011D044F503206275666665722D6D616E616702
S315000011E0656D656E742E6300814233D210441144DE
S315000011F0401E491E10E011F8013900F80139121F8E
S3150000120011F8013900F8013911F8013900F80139EE
S3150000121011F8013900F8013992B2042AEBDA93B2D7
S31500001220002B1EBF11F8013900F80139521EF6D104
S31500001230704711F8013B00F8013B121F11F8013B02
S3150000124000F8013B11F8013B00F8013B11F8013BA6
S3150000125000F8013B92B2042AEBDA93B2002B1EBFD0
S3150000126011F8013B00F8013B521EF6D170471300FE
S3150000127003D00A46194604F039B9704710B500E0A4
S31500001280521E93B223B100F012F8F9D0181B10BD0C
S31500001290002010BD10B500E0521E93B22BB100F035
S315000012A006F8F9D0181B40B210BD002010BD10F88A
S315000012B0013B11F8014BA3427047000000F1010306
S315000012C0810704D010F8011B89B18107FAD10268A1
S315000012D0B2F10131914311F0803F04BF50F8042F61
S315000012E0F6E710F8011B11B110F8011BFBE7C01A55
S315000012F07047000038B50446611D206A2368451A08
S315000013002079EAB2984708B1002032BD00F018F8FB
S31500001310601D2062012032BD38B50446002500E07C
S315000013206D1CEDB2485D0028FAD1207923682A4663
S31500001330984718B900F004F8012032BD002032BDEC
S3150000134094F82900281884F8290070472DE9F04FF1
S31500001350804608F1200785B008F1050038600E4682
S3150000136008F115007860914600207872DFF8B443E2
S3150000137013E018B108F105003860164625B17D2046
S3150000138000F0A0F901F8010D38687968884203D3A6
S3150000139000F096F9002862D0761C3078010000F043
S315000013A075812528617818BF262809D07B281CBF9F
S315000013B07D28232802D10029E6D0E1E7A178FAE7C3
S315000013C016F8012F252A18BF262A04D100F07AF92B
S315000013D001F8012DD8E726280BD151B101256E2A37
S315000013E018BF4E2A06D000F06DF97B2001F8010DDA
S315000013F000E00025317800204E2906D0542923D05C
S315000014006E2902D074291FD032E0207859F804BB27
S315000014100028B9D035B138687B210170811C39604C
S315000014202821417000F04CF9002818D000F03BF953
S31500001430002814D0002DA7D0386829210170811CFE
S3150000144039607D2141709FE700F038F9002806D009
S3150000145000F029F9002802D000F032F9002800F047
S315000014607C8000F02FF93A2001F8010D761C01204E
S31500001470317896F801E0A1F13002D2B2911E052929
S315000014803CD2BEF1640F18BFBEF1750F36D159F8C4
S3150000149004CB002301211FFA8CFCBEF1640FE24647
S315000014A009D15FEA0C4E06D56FEA0C0C0CF1010C63
S315000014B001231FFA8CFCBCF1000F0AD04FF00A0E74
S315000014C09CFBFEFC5B1C1FFA8CFCBCF1000FF5D1EB
S315000014D00BE05B1C09E0D7F800E00EF1010EC7F83F
S315000014E000E04FF0200C0EF801CD9C460CF10103F4
S315000014F05FFA8CFC9445EEDB761C00E00021337825
S31500001500721E002B00F0BE80322B18BF342B00F069
S315000015109580482B06D0582B0FD0632B0FD0642B09
S315000015201FD0682B00F07F806C2B52D0702B18BF19
S31500001530732B0BD0752B14D0782B76D019E738681F
S31500001540411C396059F8041B017017E700F0B6F822
S3150000155018B100F0A8F80028F7D1002005B0BDE8C2
S31500001560F08F002919BF1FFA8AFA514659F8041B51
S3150000157089B229B900F0A6F8302001F8010DFDE680
S315000015800020642B0DD10A040BD53B685B1C3B6025
S315000015902D22B1F5004F03F8012D02D0494289B240
S315000015A059B10A2291FBF2F20A23C0B203FB1211CF
S315000015B00DF80010401C91B2F2E70146481EC9B270
S315000015C00029DCD0C0B23A681DF8001000F065F8BA
S315000015D0F3E759F8041B0029CCD0002000290AD5CE
S315000015E03B685B1C3B602D22B1F1004F03F8012DD7
S315000015F001D0494259B10A22B1FBF2F20A2303FB98
S31500001600121102ABC0B21954401C1146F2E7014652
S31500001610481EC9B2002910D002A9C0B23A68095CB6
S3150000162000F03BF8F3E700F041F8022259F8041BFA
S315000016303868C9B2FFF706FC38609FE616F8010F56
S31500001640682818BF48280BD100F030F816F8011C9E
S31500001650386832290AD159F8041B042289B2E9E70D
S31500001660782818BF5828F1D0761E87E659F804BBAB
S3150000167004224FEA1B41FFF7E5FB386004221FFAFC
S315000016808BF1D7E701007FF474AE76E600F018F828
S3150000169000283FF462AF787A60E7521C3A60303136
S315000016A002F8011D70475946404635E63868302134
S315000016B00170811C396078214170704759F804BB6C
S315000016C0404617E63968491C396070470EB410B5B4
S315000016D0154909788BB0002409B9002008E000F00C
S315000016E019F801466846FFF731FE00B90124204685
S315000016F00CE00EB410B58BB000F00CF800240146D7
S315000017006846FFF723FE00B9012420460BB010BC43
S315000017105DF810FB054900910DAA054909788DF879
S3150000172004107047F1EB0320F0EB0320DD520000BC
S315000017302CE9032062B38B0708D0521E11F8013B37
S3150000174000F8013B00F024808B07F6D1830740F0B8
S31500001750208000BF103A07D330B4B1E83810103AF1
S31500001760A0E83810F9D230BC530724BFB1E80810FE
S31500001770A0E8081044BF51F8043B40F8043BD207E8
S3150000178024BF31F8022B20F8022B44BF0B780370DC
S315000017907047083A07D3B1E80810083A40F8043B06
S315000017A040F804CBF7D25307E4E70000890001EBC9
S315000017B0401000F1844002607047890001EB401040
S315000017C000F18440006870472F480068800704D500
S315000017D02E210FF2D00000F031BA704780B50121FA
S315000017E02A4803F051FF0421072004F087FB28480C
S315000017F02849294A0160042111600221416204211D
S31500001800264A1160816A41F00201816201BD2048C9
S3150000181004F0D8BBA52800D0704780B500F008F8C2
S3150000182028B1BDE80840002200211948BEE701BDE5
S315000018301748006810F0010018BF0120704738B53E
S3150000184004460D4600F015F82A4604F00F0101B0D3
S3150000185003462005BDE83040000E04F01CBC00F035
S315000018600F010005000E30230D4A584310441C306A
S31500001870A3E700F00F010005000E3023084A584385
S3150000188010440C3099E700001C2005400025080094
S31500001890002005400108030080E200E000E100E0CE
S315000018A000A000406D6963726F2D636F6D6D6F6E82
S315000018B02E63000080B50121824803F0E5FE8249CF
S315000018C001200860002004F0AAFB01230422022163
S315000018D0052004F0E0FB01220121042004F09EF91A
S315000018E004F0CAFC0123402278490FF2202004F0BC
S315000018F091FC77490028086001D5012002BD00F05F
S3150000190032F8002002BD38B504F0C6FC714C2178CF
S315000019100025022912BF01250321217004F0C2FC13
S3150000192005BB6D480168C9070ED56C490A6822F4E3
S3150000193040620A60016849084900016001680902BD
S31500001940FCD4642004F0B2FC00220021042004F040
S3150000195065F96349002008606249086062490860C9
S315000019600120207031BD10B55F485D4C016841F023
S31500001970010101600022C16841F08071C16000234D
S315000019805A495B4808605B480260534A1360022369
S3150000199023601523584C236000230364574B0B65C3
S315000019A0574911604FF480714E4A1160016841F445
S315000019B08071016010BD4C48006800B10120C0B2C2
S315000019C07047D12202704170090A81704D490A7828
S315000019D0C270501C0870042070472DE9F84F8046ED
S315000019E04D1D04F099FC002782464FF6FF7B464CBE
S315000019F015E008EB0700594610F8026C304604F073
S31500001A00B9FC83464F4634480068C00707D53948B5
S31500001A100068C00503D520680028FCD02670FFF7B3
S31500001A20CAFF40B3F8B2E9B2884224D204F074FC8B
S31500001A30A0EB0A0080B2B0F5FA7F22DCF8B210B94A
S31500001A405B260127DFE707F10109FFB2012F08BF77
S31500001A506E1FD7D0EDB2E81E874208BF5E46D1D0D2
S31500001A60A81E874208BF4FEA1B26CBD0681E8742B6
S31500001A70BFD15D26C6E7FFB2EDB2AF4208BF002078
S31500001A8000D00120BDE8F28F10B50C460246217841
S31500001A9000200529A4BF1046FFF79FFF04212170EF
S31500001AA010BD00B50A48006891B04022694604F0AE
S31500001AB09CFB20B1C2B26946122004F00DFD11B0A4
S31500001AC000BD0000003508001088144288F7032086
S31500001AD04CEB0320A9FF0320800E00E0001000E07D
S31500001AE0F00004E0040304E0F0ED00E0B00F00E0D5
S31500001AF055CEACC5000E00E0100004E0FF03004028
S31500001B000D000100AAFF0320200000E073696C614C
S31500001B1062737675617274646F776E002DE9F041B9
S31500001B2094B004460F4690461E46012514B1012C7A
S31500001B3011D021E0002103F0B1F90546012C1CBFAC
S31500001B40022C032C25D1012E0197ADF80C8015D15E
S31500001B504FF4805016E00AA80FF2B0012422FFF7D6
S31500001B60F9FD68460AA92422FFF7F4FD1020ADF816
S31500001B702400ADF82600E1E701200BE0022E03D198
S31500001B804FF44050ADF80A006946204603F086F946
S31500001B900546E8B214B0BDE8F08103F044BA80B55A
S31500001BA003F04CFAC0B202BD80B503F099FAC0B298
S31500001BB002BD70B582B0044600200D4616468DF86B
S31500001BC0000001E0FFF723FE6B4632462946204619
S31500001BD0FFF7EAFF0028F5D176BD80B503F00BFBD1
S31500001BE0C0B202BD80B503F01BFCC0B202BD0CB48E
S31500001BF080B50A46014602AB0348FFF763F902BC0B
S31500001C0000205DF80CFB0000A1530000000001401D
S31500001C1000C20100000000100000000002000200E7
S31500001C200300000000000000000000001E1E00006F
S31500001C30002080F31188704742DE704738B50446AD
S31500001C400D4604F09FFFFFF7E2FD05F0D8FD29469B
S31500001C50204604F0A3FB2B4622460FF2B8110120C2
S31500001C60FFF7C5FF29462046BDE83440E4E7614852
S31500001C702DE9F047604D01682E1D4FF4206871650F
S31500001C80016AB1655D490A68F26549683166416A6B
S31500001C907166816AB166C16AF166016B3167806BF4
S31500001CA0706796F8340040074CBFF46BB46B05F0D0
S31500001CB04AFE0022F2648442514A014624BFA2F140
S31500001CC0200AA2452746316505F19003DFF834C1A5
S31500001CD0DFF834E118D3A0693064E4697464746D84
S31500001CE0C4F30804062C13D1704511D360450FD2F6
S31500001CF000884DF64264A0420AD13068586040F22E
S31500001D0001787068986003E00027376477640746B7
S31500001D103E48814202D2014600E0091D0846904233
S31500001D2003D20C68B4F1CD3FF7D03949081AB06434
S31500001D300021002005EB8004401C0628E167F9DB42
S31500001D40002003E0C0B205EB8004E167974223D28E
S31500001D5052F8041D7145F9D36145F7D2CC07F5D584
S31500001D60002405EB8409D9F87C90894502D0641CCF
S31500001D70062CF6DB062CE9D1002814BF401E0520F0
S31500001D80E0E7B16F002405EB8402641CD2F8807092
S31500001D90D767052CF7DB19600146481EC9B2002932
S31500001DA0EFD1706DC0F30800032808D0042809D0CD
S31500001DB005280AD006280BD00C280FD011E040F6D3
S31500001DC0012813E040F6022810E040F603280DE053
S31500001DD0B8F5206F0AD140F6042807E040F605283A
S31500001DE004E018B1312838BF40F607284046BDE860
S31500001DF0F087000004ED00E00000002000E300E0B2
S31500001E00E8E60320AE580100500500009C000020C3
S31500001E10E8E603200D0A5B4153534552543A2570B8
S31500001E203A25645D0D0A00000021C173C1830022BA
S31500001E3000F124010A7082730068C86070470000D0
S31500001E402DE9F74F82B000208DF801000298041D9D
S31500001E502430019051E0102E3ED100F02FF90120E0
S31500001E60E07202999DF8000000F03AF945E09DF80D
S31500001E70100020B99DF8010005B0BDE8F08F039869
S31500001E80401C0390401E00788DF800009DF810005D
S31500001E90401E8DF81000A8469DF80000672810D255
S31500001EA09DF800100FF27030405C00F0300600F034
S31500001EB00F08400608D50198407A804504DA0125C6
S31500001EC002E07B2838BF10269DF800000A2818BFBC
S31500001ED00D2829D1012028E09DF80000232802D1F1
S31500001EE00620E07209E0202E07D003208DF80000BE
S31500001EF09DF80010029800F0E5F8039800260025EA
S31500001F000028B4D19DF810006946FFF748FE002866
S31500001F10C1D02628AED00298012100F0D3F878204F
S31500001F208DF80000A846102600208DF80100E07A02
S31500001F300628E2D8DFE800F00515599B9B6B0600E2
S31500001F40DBE788E79DF801000028D6D0207B20B18A
S31500001F50029821688847002020730298FFF764FFE3
S31500001F60CBE7102E1CBF9DF800005F2800D025B1DE
S31500001F70019800780C28B8DA73E7202E18BF302EA7
S31500001F8040D1019A029912781144002048744FF00A
S31500001F9000090198C7680AE01AF8010B00F099F8E1
S31500001FA01BF8011B814209D009F101091037786835
S31500001FB040B30298D7F800A000F1110B9BF800007F
S31500001FC00028E9D19AF800000028EDD1A4F81A906B
S31500001FD00198618BC06800EB01108068E061002009
S31500001FE0A072019908700220E07200F067F80DB344
S31500001FF001992B2008720198C0F8048000F05EF861
S3150000200004206EE70298032100F05CF89AE79DF839
S31500002010010018B1029800F06FF89EE79DF80000E5
S31500002020232803D1029800F067F859E7202E18D02C
S3150000203004205BE79DF800002D2818BF2B2808D147
S315000020400199087200200199486000F037F80320D2
S3150000205047E7222806D140F229110FF2A410FFF714
S31500002060EDFD4AE77B28D2D14FF49B71F5E755B1D8
S31500002070019801994068497A01FB00800421E172C8
S315000020800199486039E79DF80010782918BF58294A
S3150000209006D10199496819B90199102048722CE7AF
S315000020A0032803D0202E18BF302E01D007201DE7AD
S315000020B0029800F040F80028A8D094E70199607AC9
S315000020C048727047027C1AB90622C273017475E021
S315000020D07047A0F141011A293CBF2030C0B27047B9
S315000020E038B50C4694F82450FFF7F3FF611948748D
S315000020F0681C84F8240031BD10B50446206A0178B6
S3150000210031B162290CBF01210221405C2A2807D186
S31500002110216BE28B01EB021120464968884706E0F5
S3150000212004202074204661688847002020742046D9
S31500002130BDE8104042E070B500F108018A6990F8E8
S315000021402C600D6A137854782D2E08BF6D42752BBE
S3150000215007D1342C10D18B790E79B3421ED10521CB
S3150000216018E0732B0FD1312C07BF6FF07F037F244C
S31500002170114B47F6FF7408E00023312C14BF4FF6CD
S31500002180FF74FF2401E0042104E09D42A8BFAC4295
S31500002190E1DA0621FFF796FF002070BD086840F8D7
S315000021A023508879401C887190782A281CBF901C7F
S315000021B08861012070BD00000080FFFFF8B504466D
S315000021C0206BE18B0FF2380500EB011000278668C3
S315000021D005E00220315C2A2918BF36187F1CA17B36
S315000021E0F8B2884209D230786228F2D140F22B2127
S315000021F02846FFF723FD0120ECE70020A073F1BD80
S31500002200636F6D6D616E642D696E74657270726553
S315000022107465722E630000000000000000000000DC
S315000022200020202020200000000000000000000008
S315000022300000000000000000200030300000000018
S31500002240000000300030000040414243444546470C
S315000022504849000000000000005A5B5C5D5E5F10AC
S315000022601010101010101010101010101010101068
S315000022701010103000000000005A5B5C5D5E5F00CD
S3150000228010B505F0C4FB40F2A174C440E0070BD5BD
S31500002290064C207805F0DAFB207805F076FC2078ED
S315000022A0BDE8104005F03EBD10BD00BF2CE903207F
S315000022B021210FF22C00FFF7C1BC10B502F0EEFA97
S315000022C0044602F0E0FA0246234604480FF22001D3
S315000022D00078BDE81040FEF703BF00002CE903209C
S315000022E072657365742D746573742E630000000047
S315000022F052455345543A25702D25700D0A000000AD
S3150000230010B5DFF8004CDFF8001C2078FEF7E8FE79
S315000023102078DFF8481CBDE81040FEF7E1BE0178E2
S31500002320A1F130030A2B0AD3A1F14103062B38BFD2
S31500002330373904D3A1F16102062A03D257390907B6
S31500002340090E00E000214078A0F130030A2B02D2EA
S31500002350401830380CE0A0F14103062B02D2401899
S31500002360373805E0A0F16102062A03D24018573833
S31500002370C0B270470809704710B505F0E9FF0200C2
S315000023801BD0DFF8804B2078042A08BF0FF668417F
S3150000239008D0062A08BF0FF6AC4103D0072A04D19D
S315000023A0DFF8BC1BFEF79CFE03E00FF21001FEF700
S315000023B097FE20780FF23801ADE710BD68616C53C7
S315000023C07461636B496E6974546F6B656E732046F6
S315000023D041494C4544207769746820456D626572B1
S315000023E05374617475733A2025580D0A0000000075
S315000023F0546F6B656E7320617265207374696C6CC3
S3150000240020616374697665207768656E20757369E7
S315000024106E672074686973206170706C696361749B
S31500002420696F6E2E0D0A00002DE9F04FC1B080686D
S31500002430DFF8D07A0568FFF763FFA8B206F0F2F876
S315000024400446A8B205F0DBFF8046A8B206F074F990
S315000024508346002C38781ABF4FF6FF7188450FF671
S3150000246028412CD02346AAB20FF62841FEF738FEA3
S3150000247000250FF2A4190FF2A41A0AE01DF806208F
S3150000248038784946FEF72CFE761CF6B2A642F5DBF6
S315000024906D1CEDB25D4510DABBF1010F234603D189
S315000024A07F2200F069F806E02A4600F065F83878E1
S315000024B05146FEF715FE0026E7E738785146FEF747
S315000024C00FFE41B0BDE8F08F2DE9F047C0B080683F
S315000024D004684768DFF82C6AFFF712FFA0B206F01F
S315000024E0A1F88146A0B205F08AFF8046A0B206F0A8
S315000024F023F90546B9F1000F30781ABF4FF6FF7180
S3150000250088450FF6843132D0A5F1010A15B1FFB224
S31500002510BA450BDA0FF68831FEF7E2FD30780FF692
S31500002520B83153460022FEF7DBFD22E04B46A2B24D
S315000025300FF66031FEF7D4FD012D08BF7F274B460D
S315000025403A4600F019F835A430782146FEF7C8FD62
S3150000255000270FF2C40805E01DF807204146FEF7E4
S31500002560BFFD7F1CFFB230784F45F5DB2146FEF7F5
S31500002570B7FD40B0BDE8F0874146684605F00ABFA2
S315000025802DE9F047C2B08068DFF8D8790668FFF712
S31500002590B7FEB0B206F046F88146B0B205F02FFF9E
S315000025A08246B0B206F0C8F80646B9F1000F1CBF65
S315000025B04FF6FF70824505D138780FF6CC21FEF72D
S315000025C08FFD28E000240FF6343803E0504605F06E
S315000025D0F1FE641CB4421EDA002513E016FB09F076
S315000025E0431E387809FB04524146FEF779FD3878D8
S315000025F003226946FFF7DDFA6846FFF790FE01A958
S3150000260048556D1C4D45E9DB012E4B4601AA0CBF12
S315000026107F21E1B2DAE758E0202558000D0A0000D4
S315000026202DE9F047C2B0806807684468DFF8D458DF
S31500002630FFF766FEB8B205F0F5FF8046B8B205F0C2
S31500002640DEFE8146B8B206F077F80746B8F1000F0D
S3150000265028781CBF4FF6FF71894504D10FF6282153
S31500002660FEF73EFD31E07E1E17B1E4B2A6420BDA5C
S315000026700FF62C21FEF734FD28780FF65C21334641
S315000026800022FEF72DFD20E000260FF6702A11E04D
S315000026902878A8F1010332465146FEF721FD287835
S315000026A003226946FFF785FA6846FFF738FE01A957
S315000026B08855761C4645EBDB012F08BF7F24434631
S315000026C001AA2146484605F075FE42B0BDE8F087EE
S315000026D02DE9F043ADF5497DDFF828480FF634259E
S315000026E0FFF70EFE20784EF2455200F030FC2078BF
S315000026F00FF62821FFF771FADFF86C0800F015FCD9
S3150000270000270FF2883802A84146C25D00F06AFC35
S315000027107F1C082FF7D3DEA700F01CFC20784CF2B4
S31500002720563200F014FC20780FF60421FFF755FA14
S315000027300126DFF8380800F004FC00F056FC9DF88E
S31500002740012000F054FC761EF3D100F003FC207843
S315000027504EF2453200F0FBFB20780FF6E811FFF74A
S315000027603CFADFF80C0800F0E0FB02A800F038FCA9
S31500002770761C082EF9D300F0EDFB20784EF6735246
S3150000278000F0E5FB20780FF6D011FFF726FADFF808
S31500002790E40700F0D0FB002604A800F021FC761C1C
S315000027A0102EF9D300F0D6FB20784CF24E2200F022
S315000027B0CEFB20780FF6AC11FFF70FFADFF8B8075B
S315000027C000F0B9FB002604A800F00AFC761C102EC7
S315000027D0F9D300F0BFFB20784CF6441200F0B7FBAB
S315000027E020780FF69011FFF7F8F90126DFF88C072D
S315000027F000F0A7FB00F0F9FB9DF8012000F0F7FBC5
S31500002800761EF3D100F0A6FB20784DF2430200F0CD
S315000028109EFB20780FF66C11FFF7DFF90126DFF833
S31500002820600700F08EFB00F0E0FB9DF8012000F051
S31500002830DEFB761EF3D100F08DFB20784CF24312BE
S3150000284000F085FB20780FF64C11FFF7C6F9DFF88C
S31500002850340701880223F2B2684605F09BFD00F0BA
S31500002860C4FB9DF8012000F0C2FB761C142EEEDBA3
S3150000287000F070FB20784DF2463200F068FB2078BD
S315000028800FF62011FFF7A9F90126DFF8FC0600F084
S3150000289058FB00F0AAFB9DF8012000F0A8FB761E6D
S315000028A0F3D100F057FB20784CF2433200F04FFB97
S315000028B020780FF60811FFF790F90126DFF8CC060D
S315000028C000F03FFB00F091FB9DF8012000F08FFB2C
S315000028D0761EF3D100F03EFB20784CF6535200F002
S315000028E036FB20780FF6E801FFF777F9DFF8A00648
S315000028F000F01BFB02A800F073FB761C082EF9D330
S3150000290000F028FB20784CF2543200F020FB2078AF
S315000029100FF6D001FFF761F90126DFF8780600F01F
S3150000292010FB00F062FB9DF8012000F060FB761EB4
S31500002930F3D100F00FFB20784DF6540200F007FBB0
S3150000294020780FF6AC01FFF748F90126DFF84806B4
S3150000295000F0F7FA00F049FB9DF8012000F047FB74
S31500002960761EF3D100F0F6FA20784DF2570200F009
S31500002970EEFA20780FF68401FFF72FF9DFF81C0630
S3150000298000F0D9FA04A800F02BFB761C102EF9D320
S3150000299000F0E0FA20784CF2573200F0D8FA2078AE
S315000029A00FF66C01FFF719F9DFF8F40500F0B7FA36
S315000029B0002600F014FB761C042EFAD300F0CAFAA7
S315000029C020784CF6575200F0C2FA20780FF65401E0
S315000029D0FFF703F9DFF8CC0500F0A1FA002600F0B6
S315000029E0FEFA761C042EFAD300F0B4FA20784DF2E3
S315000029F0575200F0ACFA20780FF63C01FFF7EDF8DD
S31500002A00DFF8A40500F08BFA002600F0E8FA761C41
S31500002A10042EFAD300F09EFA20784CF2574200F0CA
S31500002A2096FA20780FF62401FFF7D7F8DFF87C0531
S31500002A3000F075FA002600F0D2FA761C042EFAD3BE
S31500002A4000F088FA20784CF24B2200F080FA2078C9
S31500002A500FF60C01FFF7C1F8DFF8540500F06BFA2A
S31500002A60002604A800F0BCFA761C102EF9D300F05C
S31500002A7071FA20784CF2423200F069FA20780FF2AF
S31500002A80F871FFF7AAF8DFF82C0503E020255800B7
S31500002A900D0A000001885C237F22B2A805F07AFCAB
S31500002AA00026B2A800F09CFA761C5C2EF9D300F042
S31500002AB051FA20784CF6431200F049FA20780FF2CA
S31500002AC0C871FFF78AF8DFF8F004018814237F2223
S31500002AD010A805F05FFC002610A800F081FA761C0D
S31500002AE0142EF9D300F036FA20784DF2433200F076
S31500002AF02EFA20780FF2A871FFF76FF80126DFF89B
S31500002B00BC0400F01EFA00F070FA9DF8012000F0F7
S31500002B106EFA761EF3D100F01DFA20784DF242329D
S31500002B2000F015FA20780FF28C71FFF756F8DFF8EF
S31500002B30900400F000FA04A800F052FA761C102E59
S31500002B40F9D300F007FA20784CF2453200F0FFF98D
S31500002B5020780FF27C71FFF740F8DFF868040188EF
S31500002B6094237F228DA805F015FC00268DA800F081
S31500002B7037FA761C942EF9D300F0ECF920784DF252
S31500002B80583200F0E4F920780FF25871FFF725F873
S31500002B90DFF8340400F0BDF9002608A800F020FA9A
S31500002BA0761C202EF9D300F0D5F920784DF2593253
S31500002BB000F0CDF920780FF24871FFF70EF8DFF834
S31500002BC00C0400F0A6F9002608A800F009FA761C05
S31500002BD0202EF9D300F0BEF920784CF64B2200F0F7
S31500002BE0B6F920780FF23471FEF7F7FFDFF8E0034D
S31500002BF0018822237F2284A805F0CCFB002684A826
S31500002C0000F0EEF9761C222EF9D300F0A3F9207815
S31500002C104BF2346200F09BF920780FF21471FEF744
S31500002C20DCFFDFF8B00300F080F9002602A800F010
S31500002C30D7F9761C082EF9D300F08CF920784FF6D8
S31500002C40017200F084F920780FF2F061FEF7C5FFFB
S31500002C50012602237F220021684605F09BFB00F037
S31500002C60C4F99DF8012000F0C2F9761EF1D100F0FA
S31500002C7071F920784EF2632200F069F920780FF29C
S31500002C80D461FEF7AAFF04237F22012100F03EF95A
S31500002C9000F0A5F9761C042EFAD300F05BF9207833
S31500002CA04EF2635200F053F920780FF2BC61FEF742
S31500002CB094FF04237F22022100F028F9002600F069
S31500002CC08EF9761C042EFAD300F044F920784DF2E2
S31500002CD0030200F03CF920780FF2A061FEF77DFFB9
S31500002CE004237F22032100F011F9002600F077F972
S31500002CF0761C042EFAD300F02DF920784DF2050249
S31500002D0000F025F920780FF29061FEF766FF0423A4
S31500002D107F22042100F0FAF8002600F060F9761C04
S31500002D20042EFAD300F016F920784DF2060200F0D0
S31500002D300EF920780FF27C61FEF74FFF08237F2201
S31500002D40052100F049F9002602A800F049F9761C91
S31500002D50082EF9D300F0FEF820784DF2070200F0B5
S31500002D60F6F820780FF27061FEF737FF08237F220E
S31500002D70062100F031F9002602A800F031F9761C90
S31500002D80082EF9D300F0E6F820784DF2080200F09C
S31500002D90DEF820780FF25C61FEF71FFF08237F2222
S31500002DA0072100F019F9002602A800F019F9761C8F
S31500002DB0082EF9D300F0CEF820784DF20A0200F082
S31500002DC0C6F820780FF24461FEF707FFBC237F2286
S31500002DD0082155A805F0DEFA002655A800F000F9EE
S31500002DE0761CBC2EF9D300F0B5F820784DF20D0212
S31500002DF000F0ADF820780FF23C61FEF7EEFEFE2300
S31500002E007F22092115A805F0C5FA002615A800F0AD
S31500002E10E7F8761CFE2EF9D300F09CF820784DF2E8
S31500002E200E0200F094F820780FF22C61FEF7D5FE22
S31500002E30FE237F220A2115A805F0ACFA002615A864
S31500002E4000F0CEF8761CFE2EF9D300F083F8207839
S31500002E504DF20F0200F07BF820780FF22461FEF7A6
S31500002E60BCFE00260523F2B20B2100F0B5F84FF0A8
S31500002E70000902A8414610F8092000F0B3F809F14C
S31500002E800109B9F1050FF4D3761C032EEADB00F035
S31500002E9061F820784DF2090200F059F820780FF217
S31500002EA00461FEF79AFE04237F220C2100F02EF81F
S31500002EB0002600F094F8761C042EFAD300F04AF8A7
S31500002EC020784DF2100200F042F820780FF2E85117
S31500002ED0FEF783FE00250E23EAB20D2104A805F0B5
S31500002EE059FA002604A800F07BF8761C0E2EF9D3BA
S31500002EF06D1C102DEFDB00F02DF80DF5497DBDE8BA
S31500002F00F08300002CE903208882010001A805F067
S31500002F1041BA018820237F2208A805F03BBA018820
S31500002F2004237F2201A805F035BA018808237F22F1
S31500002F3002A805F02FBA018810237F2204A805F005
S31500002F4029BA018802237F22684605F023BA29465A
S31500002F50FEF7C6B820783946FEF7C2B89882010057
S31500002F60C08201002CE90320C4920100C692010030
S31500002F70C8920100CA920100CC920100CE920100D3
S31500002F80D0920100D2920100D4920100D6920100A3
S31500002F90D8920100DA920100DC920100DE92010073
S31500002FA0E0920100E2920100E4920100E692010043
S31500002FB0E8920100EA920100EC920100EE92010013
S31500002FC0F0920100F2920100F4920100F6920100E3
S31500002FD0F8920100FA92010002A805F0DBB901A8F7
S31500002FE04146825D2078FEF77BB89DF80020207868
S31500002FF04146FEF775B8000068616C537461636BF7
S31500003000496E6974546F6B656E73204641494C4531
S3150000301044207769746820454D4245525F454550C6
S31500003020524F4D5F4D46475F535441434B5F5645A4
S315000030305253494F4E5F4D49534D415443480D0A33
S315000030400000000068616C537461636B496E6974BB
S31500003050546F6B656E73204641494C454420776931
S31500003060746820454D4245525F454550524F4D5F6D
S315000030704D46475F56455253494F4E5F4D49534D56
S31500003080415443480D0A00006E6F7420666F756EDA
S31500003090640D0A005B2532785D28256429203D00F1
S315000030A04552524F523A20446573697265642069ED
S315000030B06E646578206973206F7574206F66207260
S315000030C0616E676520666F72207468697320746F1D
S315000030D06B656E0D0A00000020202020202020565F
S315000030E0616C69642072616E67652069732025587A
S315000030F020746872752025580D0A00006461746199
S3150000310020627974655B2564206F662025645D3ACC
S31500003110000000005B2532585D2000004D46475FE9
S31500003120454D4245525F4555495F36340000000023
S315000031304D46475F435553544F4D5F56455253498D
S315000031404F4E00004D46475F435553544F4D5F4524
S3150000315055495F36340000004D46475F5354524987
S315000031604E4700004D46475F424F4152445F4E4135
S315000031704D4500004D46475F4D414E55465F49441B
S31500003180000000004D46475F5048595F434F4E468A
S31500003190494700004D46475F4153485F434F4E46FF
S315000031A0494700004D46475F53594E54485F4652C3
S315000031B045515F4F46465345540000004D46475F14
S315000031C04343415F5448524553484F4C4400000026
S315000031D04D46475F455A53505F53544F52414745FA
S315000031E0000000004D46475F4354554E4500000021
S315000031F04D46475F584F5F54554E45004D46475F15
S315000032004C4F434B424954535F504C57000000000B
S315000032104D46475F4C4F434B424954535F434C57CF
S31500003220300000004D46475F4C4F434B42495453D4
S315000032305F4D4C57000000004D46475F4C4F434BD7
S31500003240424954535F554C57000000004D46475FB6
S315000032504C4F434B424954535F444C5700000000C7
S315000032604D46475F424F4F544C4F41445F41455393
S315000032705F4B4559000000004D46475F43424B45B2
S315000032805F444154410000004D46475F494E535448
S31500003290414C4C4154494F4E5F434F44450000005A
S315000032A04D46475F53454355524954595F434F4E28
S315000032B0464947004D46475F5345435552455F4291
S315000032C04F4F544C4F414445525F4B455900000007
S315000032D04D46475F43424B455F3238334B315F447F
S315000032E0415441004D46475F5349474E45445F426E
S315000032F04F4F544C4F414445525F4B45595F580020
S315000033004D46475F5349474E45445F424F4F544CE5
S315000033104F414445525F4B45595F59004D46475F03
S315000033205448524541445F4A4F494E5F4B45590008
S315000033304D46475F4555495F363400005354414377
S315000033404B5F4E56444154415F56455253494F4E8A
S3150000335000000000535441434B5F424F4F545F43BC
S315000033604F554E5445520000535441434B5F4E4F08
S315000033704E43455F434F554E5445520049505F53A7
S315000033805441434B5F4D554C5449434153545F534D
S31500003390455155454E43450049505F535441434BB3
S315000033A05F53454355524954595F53455155454E10
S315000033B04345000049505F535441434B5F4D4553CD
S315000033C0485F4C4F43414C5F494E5445524641433A
S315000033D0455F49440000000049505F535441434B48
S315000033E05F4D41435F455854454E4445445F49440B
S315000033F00000000049505F535441434B5F50415217
S31500003400454E545F4C4F4E475F49440049505F5309
S315000034105441434B5F4F4C445F4143544956455FCB
S315000034204F5045524154494F4E414C5F44415441DF
S315000034305345540049505F535441434B5F414354F5
S315000034404956455F4F5045524154494F4E414C5F96
S31500003450444154415345540049505F535441434BF2
S315000034605F50454E44494E475F4F5045524154497F
S315000034704F4E414C5F4441544153455400000000B7
S3150000348049505F535441434B5F4F50455241544955
S315000034904F4E414C5F444154415345545F5441495A
S315000034A04C00000049505F535441434B5F4E4F441C
S315000034B0455F4441544100004348494C445F5441F0
S315000034C0424C450010B50446002003F05CFD002088
S315000034D003F079FD012003F090FC204605F0CBFBBC
S315000034E02046BDE8104000F0A3BF80B5022100F0E1
S315000034F016F9009805F010FD01BD8068DFF8A414E8
S315000035000068087008780228A8BF0FF2D44305DACD
S31500003510002814BF0FF2D4430FF2D843DFF8880413
S315000035200FF2AC42D0F8F012FFE70FF29840FEF728
S31500003530E0B81CB505F044FD044603F0D7FBDFF800
S315000035406C1401EB8402126901920FF2045200928C
S3150000355051F82030DFF850040FF2E842D0F850134B
S315000035600FF2BC40FEF7C5F813BD38B50446A06897
S315000035700568DFF83404D0F860130FF2E040FEF778
S31500003580B8F8EDB215B1012D07D00CE00FF2D4401A
S31500003590FEF7AFF803F0F6FA05E00FF2DC40FEF7AF
S315000035A0A8F803F0A1FB0FF2E040FEF7A2F82046D0
S315000035B0BDE83240BDE780B503F094F9034613F148
S315000035C0010F0FF2CC400FF2D04108BF0FF2D042EC
S315000035D00ED013B90FF2D0420AE0DFF8D403B3FBE2
S315000035E0F0F200FB123038B90FF2D8410FF2CC409E
S315000035F0BDE80840FEF77DB84FF47A71B3FBF1F2EF
S3150000360001FB12310029DFF8AC0300780EBF0FF280
S31500003610BC411A460FF2C441BDE80840FDF760BD43
S31500003620F0B504460D4685B0284603F092F80646E6
S31500003630284603F072F907460FF2C8423EB92B46F8
S3150000364004F111010FF2A440FEF753F810E00FF257
S31500003650E8400290039605F01F0001902B460FF2FA
S31500003660D040009004F111010FF2A040FEF741F89E
S31500003670AF4206D03A460FF2C8410FF24040FEF77D
S3150000368038F82846FFF797FF05B0BDE8F0405DA083
S31500003690FEF72FB810B5044603F0F0F801462046B1
S315000036A0BDE81040BCE738B5044603F01FFB050033
S315000036B0DFF8F402D0F810130FF28C4018BF012582
S315000036C0FEF717F803F010FBA0680068C0B203F01D
S315000036D07EF802460FF240310FF2A040FEF709F8DD
S315000036E00DB103F04FFA2046BDE83240D2E730B5BF
S315000036F0044683B0A0680568E8B203F01EF801909E
S31500003700EBB20FF214300FF29842009004F111015F
S315000037100FF27040FFE7FDF7ECFF37BD0121684669
S3150000372002F018BF10B5044603F006FD04F11101BE
S31500003730BDE81040034657A20FF27440FDF7D9BF0B
S315000037402DE9F84F06468946154603F0CFFA0400E0
S3150000375018BF012403F0F6FA002E4FF07F0A6FF02F
S315000037607F0B4FF000088DF8000005D101260220DE
S3150000377003F0ECFA374612E0F9D576420020F7E777
S31500003780802002F093FD03F0F2FB83455246B8BF5A
S31500003790834682469245C8BF924680447F1E012FCB
S315000037A0EEDA9DF8000003F0D1FA0CB103F0EAF965
S315000037B0B9F1000F18BF89F800A015B198FBF6F013
S315000037C028705846BDE8F28F10B500F01DF804F1D8
S315000037D01101BDE8104003460FF2F4320FF2DC305F
S315000037E0FDF787BF10B500F00FF803F0B5F804F148
S315000037F01101BDE81040034668A20FF2DC30FDF768
S3150000380078BF00007D0D0A00044600220021012039
S3150000381096E710B5044686B0A068006804AA0DF1C4
S315000038201101FFF78DFF039004F111010FF2F03043
S315000038309DF911300FF2D83202909DF910000190D7
S315000038400FF2D43000900FF2AC30FDF752FF06B005
S3150000385010BD80B503F0E2FC034653480FF2D832A0
S31500003860D0F8B0130FF2C030BDE80050FDF741BFED
S3150000387010B504464C48D0F8C0130FF2CC30FDF713
S3150000388038FFA068006840B203F095FC2046BDE80A
S315000038901040DEE7434341002DE9F84F464C05460C
S315000038A0207838B905F11101BDE8F44F0FF2A030C8
S315000038B0FDF71FBFA87B022838DBA8680678476893
S315000038C002F0DCFF8146AEB9F8B278B3A75506F12F
S315000038D00B00C0B203F021F87F1CFF28F6D006F1DA
S315000038E00B00814504BF484602F071FF761C102E7E
S315000038F0ECD31BE00B2E04BFF8B2002816D0A6F1BD
S315000039000B00102812D204EB060A30461AF80BBC3C
S315000039100AF80B7C03F001F8FF2808BF0AF80BBC75
S3150000392004D0B14504BF484602F051FF05F111012C
S315000039300FF238300FF208290FF238380FF24437F9
S315000039400FF2483AFDF7D5FE002515A6605D0090FA
S31500003950534605F10B0239464046FDF7CAFE05F10E
S315000039600B0B5FFA8BF0FFF726FE5FFA8BF002F087
S31500003970D4FFFF2805D0024649460FF21830FDF75E
S31500003980B8FE3046FDF7B5FE6D1C102DDED3304671
S31500003990BDE8F24FFDF7ADBE000000004544000053
S315000039A07D0D0A00F4EB0320487C010064E9032046
S315000039B040420F002CE9032058EB03208168096878
S315000039C0C9B22DE67B264E202674737D0D0A0000B3
S315000039D05045522054657374204D6F646500000095
S315000039E0656E61626C65642D6E657700656E6162F9
S315000039F06C65640064697361626C65640000000054
S31500003A0061736C65657000006177616B650000002D
S31500003A10656E657267790000737461747573000072
S31500003A207B264E20526164696F20706F7765722025
S31500003A30737461746520267473202674737D0D0A71
S31500003A4000000000706F7765722073746174650002
S31500003A505241494C20737461746500007B264E20E8
S31500003A6000000000536C656570696E6720726164C2
S31500003A70696F2E2E2E00000057616B696E672072EB
S31500003A806164696F2E2E2E00646F6E657D0D0A00CF
S31500003A902026747000000000667265710000000048
S31500003AA0696C6C6567616C0050657252616D52613C
S31500003AB064696F436F6E666967000000202674753F
S31500003AC000000000667265714D487A00207B6672C0
S31500003AD065714B487A3A256C7D000000207B667242
S31500003AE06571487A3A256C7D000000007B264E20E1
S31500003AF0526164696F206368616E6E656C2026741E
S31500003B00680000006368616E6E656C007B264E205F
S31500003B10526164696F206368616E6E656C202674FD
S31500003B2068202826746420696E20267464290000A3
S31500003B306368616E00000000706167650000000048
S31500003B405074694368616E007B264E205365747419
S31500003B50696E67206368616E6E656C20616E6420B5
S31500003B6063616C6962726174696E67202861732093
S31500003B706E6565646564292E2E2E00002674687DA8
S31500003B800D0A00007B264E2053657474696E67200B
S31500003B90267468202E2E2E202674687D0D0A0000BD
S31500003BA06368616E6E656C20706167650000000079
S31500003BB07B264E202674647D0D0A00007B264E204F
S31500003BC0267464205B64426D5D7D0D0A0000000072
S31500003BD052535349000000007B264E202674642071
S31500003BE05B3830322E31352E3420756E6974735D34
S31500003BF07D0D0A007B264E202674642026746420E0
S31500003C00267464205B64426D5D7D0D0A0000000031
S31500003C106D696E525353490061766752535349009A
S31500003C206D617852535349007B264E2026746420DA
S31500003C3064426D7D0D0A000043434120546872655D
S31500003C4073686F6C640000007B264E7D0D0A0000D1
S31500003C507B264E207B6E6F7420696D706C656D657A
S31500003C606E7465647D7D0D0A000000007B264E0D96
S31500003C700A0000007B267468203C3D3E20267468BE
S31500003C800000000046726F6D000000004D61705428
S31500003C906F000000202674640000000080B500203C
S31500003CA003F03FFDBDE8014005F05AB838B5DFF82E
S31500003CB03841DFF83811607DC870607B18B105F0B7
S31500003CC0F9F9002808D505F0F5F940054CBF0320A1
S31500003CD00120002105F045FAE06901224FF47A71CE
S31500003CE005F0EDFA050003D000F05DF9012020751E
S31500003CF0284632BDDFF8F010C861887DDFF8EC1089
S31500003D000871D3E770B58EB00C460CA805F0CEFA54
S31500003D10054605F0E3FA064605F0C4FABDF8361086
S31500003D20DFF8CC200B9103460FF244010FF2480056
S31500003D300A9103950196BDF8341009910FF280019E
S31500003D400891BDF8321007910FF27C010691BDF87B
S31500003D50301005910FF2780104910FF27C01029167
S31500003D600FF27C0100912146FDF7C3FC0EB070BD39
S31500003D7073757370000000007B264E202674752034
S31500003D8026743268202674642F31303025250D0ABA
S31500003D9020202674642F3130302525202674642F88
S31500003DA03130302525202674642F313030252520EA
S31500003DB02674642F31303025257D0D0A0000000061
S31500003DC063726974000000006C696D690000000090
S31500003DD074616C6B00000000757365640000000080
S31500003DE0616363656C00000080E9032098EF03209F
S31500003DF0F43D00006D6F6465000000002DE9F04B96
S31500003E0006468946904605F05FFADFF8C845070979
S31500003E1018BF7F1EA07066708C2E18BF02F082FF3E
S31500003E2030000FF22C1BDFF82C560CD0402E1CD085
S31500003E30882E18BF892E36D08C2E21D08D2E1DD0DF
S31500003E408F2E09D024E02069401C206100F0A6F8DE
S31500003E5048B340F2115123E0A069401CA06100F074
S31500003E609DF800B340F216511AE0E069401CE0618B
S31500003E7000F094F8B8B140F2225111E005F021FAB1
S31500003E806069401C6061287D68B140F2295107E0F5
S31500003E9032460FF2D4010120FDF7A9FE40F23A5155
S31500003EA05846FDF7CBFE402E84F80080C4F82890D3
S31500003EB025D1E078022822DB401EE0702089401CD4
S31500003EC0208105F0F7F800F08020B0F1004F01D016
S31500003ED000F069F805F0EEF8000408D505F0EAF8F8
S31500003EE040054CBF03200120002105F03AF9E8699E
S31500003EF000224FF47A7105F0E2F9060026D000F0B0
S31500003F0052F8300018BF8F2E1ED0207902281BDBF6
S31500003F10401E20716089401C6081DFF858050078DA
S31500003F2002280ADBE969DFF85005814205D10178EC
S31500003F30092902DBC178491CC170688B02F0B6F909
S31500003F40BDE8F04BFFF7B2BE01202875BDE8F08B47
S31500003F507068792D636F6D6D6F6E2D74782D746535
S31500003F6073742E6300000000656D626572526164B1
S31500003F70696F5472616E736D6974436F6D706C65B1
S31500003F80746549737243616C6C6261636B20737410
S31500003F90617475733A20307825780000206A3818E5
S31500003FA02062287D70470021002005F0DAB880B530
S31500003FB002F068FC00F010F8D0F8A01406E080B516
S31500003FC002F073FC00F008F8D0F8C0140FF2EC40D1
S31500003FD0BDE80050FDF78DBB0346DFF8A4040FF2E1
S31500003FE0E842704730B5044683B0A068056868B2F9
S31500003FF002F057FC01906BB200F026F8D0F8B0142E
S315000040000FF2D040FDF775FBA8A0FDF772FB204626
S31500004010BDE83E40CBE730B5044683B0A0680568EE
S3150000402028B202F047FC01902BB200F00DF8D0F850
S31500004030D0140FF2A040FDF75CFB9CA0FDF759FBE6
S315000040402046BDE83E40BAE70FF268400FF29442C0
S315000040500090DFF82C047047000000B5DFF8241448
S315000040600FF2A4420B8B0FF2B84183B0009101937B
S3150000407000F111010FF27C4031E18168DFF8042480
S3150000408009681183E9E72DE9F14F84B0806800885B
S3150000409001900124401E8041C00F029002F026FECE
S315000040A000B101208DF801004FF0000BDFF824531A
S315000040B0DFF8A08368697C4FADF80200D946019805
S315000040C0012813D000F006F93878029921B10FF2D1
S315000040D07041FDF705F803E0019A78A1FDF700F8B5
S315000040E0B8F8182000F0F1F800F0EAF8DFF8886375
S315000040F0DFF894A3802251463046FDF71BFBDFF81C
S31500004100740300780228A4BF3078092819DB9AF8CE
S31500004110011001F0200141F0C1017170A146182182
S31500004120B1703018029919B100F805BC002004E0FE
S31500004130019900F8051C019800123178711801F8F0
S31500004140040CDA4611E002F0E7F8834698F814000A
S3150000415048B9FFF7A3FD02F0DFF8A0EB0B0080B231
S31500004160B0F5FA6FF2D995F801B0029810B9019836
S3150000417082454FDA00208DF8000069463878FDF751
S315000041800EFD9DF80010652944D03878642906D1C3
S3150000419000F08EF8049800F11101002007E0442990
S315000041A007D100F085F8049800F111010120FFF70E
S315000041B0A9FD0AF101001FFA80FADFF8D0020078A3
S315000041C020B102F0D2F908B105F08AF8B8F8180063
S315000041D002F06CF8DFF89C02007880B1B9F1000FAC
S315000041E018BFF4703078042809DB301800F8034C47
S315000041F0201231787118641C01F8020CA4B2002058
S3150000420088F81400012068703046FFF773FD002817
S31500004210834698D038780FF24C315246FCF760FF4F
S3150000422098F80D0040B1A88ABDF80210421A3878F5
S315000042300FF24C31FCF754FF38780FF268315A46CA
S31500004240FCF74EFFDFF848020FF274310288387827
S31500004250FCF746FF38780FF28831FCF741FF2978E2
S315000042603878002914BF0FF294310FF29831FCF719
S3150000427037FF02F090FF28B16A6A38780FF28C3166
S31500004280FCF72EFFAA6A38780FF2AC31FCF728FF4C
S31500004290642002F00BF89DF8010008B102F072FCF0
S315000042A005B0BDE8F08F00002CE903200D0A0000E0
S315000042B052460FF2B021FCF713BF0000257500002F
S315000042C038780FF2E411FCF70BBF38780FF27C2137
S315000042D0FCF706BF38780FF26021FCF701BFFDF747
S315000042E008FA07BD38B500F03DF800F034F818BFFD
S315000042F00124FCF7F5FE02F0F7FC02F0E5FE02E011
S31500004300287800F00BF800F004F8F9D102F0EFFE7F
S315000043101DE09DF800006528704720786946FDF786
S315000043203EBC38B500F01EF800F015F818BF0124A1
S31500004330FCF7D6FE02F0D8FC02F0DDFE02E028789B
S31500004340FFF7ECFFFFF7E5FFF9D102F0E9FE0CB14C
S3150000435002F018FC31BDDFF83C510FF24C1104009D
S315000043602878704700208DF8000002F0BFBC2DE9C8
S31500004370F041DFF820410FF2F02120780FF2F82605
S315000043800FF2EC28DFF80071FCF7AAFE002515E015
S315000043907A5D20784146FCF7A3FE681005EB907025
S315000043A08010B5EB800007D13878854204DA207892
S315000043B02A463146FCF794FE6D1CEDB23878401C57
S315000043C08542E5DBBDE8F0818068DFF8BC10006857
S315000043D00870704798EF03202DE9F843044600253E
S315000043E0A068DFF8B06007680FF29829DFF89880B8
S315000043F07F1CFFB2802F06DAA06800EB85004068BC
S3150000440008F8070005E030786B1C7A1E4946FCF771
S3150000441067FE6D1C042DEBDBBDE8F1831A48142101
S31500004420017001214A1E4254491C8029FAD3704763
S315000044301248194A0021016141618161C16101622D
S315000044401160164A116001814181002014490860FB
S315000044507047000080E9032080680A4A007801005E
S3150000446018BF0121517302280E490CBF01200020FC
S3150000447008707047F4EB03201CFF032098EF03201D
S31500004480487C010080E903209CFE0320F5EB032015
S315000044909CFF03202CE9032020F803201CF80320AE
S315000044A0F4F80320DCF703202765276E642E2E2EF2
S315000044B00000000073746174757300007B264E2043
S315000044C026746464426D7D0061637475616C506F1F
S315000044D0776572007B264E2026746464426D202622
S315000044E074647D00726571756573746564506F7769
S315000044F0657200007B264E20267464757320267430
S31500004500327875737D0000007472616E736D697424
S315000045102064656C617920286465632900000000C9
S315000045207472616E736D69742064656C617920289C
S3150000453068657829000000005478696E67200000DD
S31500004540696E66696E6974650000000020706163BB
S315000045506B657473202575207573206170617274A4
S315000045602E2000000D0A2575207061636B6574733B
S31500004570207472616E736D69747465642E0D0A0021
S315000045802575206661696C65642064756520746FA5
S31500004590206368616E6E656C20627573792E0D0AF4
S315000045A0000000004C617374207061636B657420B9
S315000045B07374617475733A2030782532780D0A0069
S315000045C04C617374207061636B6574206261636B08
S315000045D06F66663A2030782532780D0A00000000B2
S315000045E04672616D652070656E64696E6720696EDE
S315000045F0206C6173742041434B3A20005965732E39
S315000046000D0A00004E6F2E0D0A000000534644208E
S3150000461074696D6520287669612053464420736568
S315000046206E742063616C6C6261636B293A2030782A
S315000046302532780D0A0000005346442074696D65E2
S31500004640202876696120545820636F6D706C6574FC
S31500004650652063616C6C6261636B293A2030782552
S3150000466032780D0A00000000206C656E3A200000CA
S3150000467030782578200000000D0A307825783A2019
S31500004680000000007061796C6F6164206279746566
S3150000469020696E6465783A202564206973206F75F9
S315000046A074206F662072616E67652E206172677571
S315000046B06D656E742025642069676E6F7265642E61
S315000046C00D0A0000130018BF01231A46FFF796BB18
S315000046D070B5054655480C4682B001884FF6FF7600
S315000046E0ADF8006002237F22684603F053FEBDF852
S315000046F00000B04205D02880BDF8000020800120CF
S3150000470076BD002076BD00B587B001A80FF2AC11CA
S315000047101422FDF71FF869460DF10200FFF7D8FFD6
S3150000472038B1BDF80200ADF80800BDF80000ADF8DC
S315000047300A0001A801F015FA01220121022001F068
S315000047406DFA3B4804F04EFE0421112001F0EDF80D
S3150000475000220021032001F061FA07B000BD10B568
S3150000476034498CB001200860334934480068000E93
S3150000477008D14AF6E852CA624A6B42F004024A631A
S315000047800022CA62022803DA086840F40050086072
S3150000479002AC2B48016821F4401141F488110160F4
S315000047A02848016841F4807101600FF2241000F07E
S315000047B051F8FFF7A8FF01220121012001F02EFA8E
S315000047C00321214801F0B1F80321204801F0ADF89A
S315000047D001211F4800F058FF04F031FE04F08CFE62
S315000047E006A80FF2FC011422FCF7B4FF06A804F099
S315000047F023FF0FF2001000F02DF804F0DAFF05F0A9
S31500004800A6F9FCF7EBFF0FF2FC00D0E90023CDE997
S31500004810002301208DF80300684605F0FDFA05F037
S315000048206DFD01F087FD0CB010BD0000DA920100AD
S3150000483000F0490210300E4064310E40FC81E00F5A
S3150000484020400E4000000E4002001A0003001C002B
S31500004850002508000FC884E80F0002A805F086BBF3
S315000048607047704780B50021002004F09CFCBDE82D
S31500004870014004F006BD04F005BD002818BF04F091
S3150000488075BD04F074BD80B503F0C1F801460FF2A2
S315000048907C000C2938BF00EB810002BD80B503F017
S315000048A0BAF80FF298010204120E51F8221000F025
S315000048B0FF0001EB800002BD0000000000000000C8
S315000048C0A00042010A200706020A040700000000B1
S315000048D0000108070F000A00C8002000A000010020
S315000048E001000000006A180006010C000000060125
S315000048F00D000000000108070F000A00C800200094
S31500004900A00001000000000000000000554E4B0012
S315000049104649420042544C004558540050575200F4
S31500004920574447002053570043525300465348000C
S3150000493042414400464C540042524F00608D0100F3
S31500004940648D0100BC8D0100DC8D0100E88D010045
S31500004950F08D0100FC8D01000C8E0100148E01000B
S31500004960208E0100308E0100508E0100012100F0E2
S315000049701F029140DFF86C2A05E0012100F01F02BA
S315000049809140DFF8642A400942F82010704701215F
S3150000499000F01F029140DFF8542AF4E73023DFF8D5
S315000049A0502A584310440C30890001EB401000F1A6
S315000049B0844001210160704710B5DFF8384A30B1F4
S315000049C0012807D0102802D0202803D004E00020B8
S315000049D0204410BD1C20FBE74FF49D710FF60430F8
S315000049E0FDF72CF9204610BD426892884089401A8E
S315000049F0824201DA012070470020704770B5012815
S31500004A0084B0044604D9B0F1100101D0103939D16F
S31500004A10012818BF202832D1FFF7CEFF054601F046
S31500004A203BFC0646A86901AB6A4602A906F049FFA7
S31500004A3000992A89286889B200F02EF8304601F0DC
S31500004A4031FCA86906F0B3FF012818D12968288926
S31500004A508988401A298A884211DBA86990F83110A2
S31500004A60022903D106F02BFF022804DAA86990F880
S31500004A703100012803D1A869002106F072FF0CB9A4
S31500004A80FDF70FF87FBDDFF87009416821F00201DC
S31500004A90416002210160704770B500F099FB01F09A
S31500004AA0FBFBE188A9420CD22288521A521992FBCA
S31500004AB0F6F306FB13222280A288AA18511AA180B7
S31500004AC0E580BDE8704001F0EDBBF8B5012818BFE0
S31500004AD020280C46154616D1FFF76EFF0646307B9A
S31500004AE010B101207073F1BD707B18B13046BDE87E
S31500004AF0F240B7E00FF2D51700F006F818B100F053
S31500004B0003F80028FBD1F1BDB0693B462A46214691
S31500004B1007F031B870B505460E46FFF74DFF012D7B
S31500004B20044640D1A069016890F83200E8B9042033
S31500004B30886400F06BF9A0690068C16C002E07D08C
S31500004B4041F00401C1640C20FFF710FF052106E0C7
S31500004B5021F00401C1640C20FFF70FFF0021A069BA
S31500004B600068BDE8704007F09DB80420486300F077
S31500004B704DF9A0690068816B002E07D041F0040151
S31500004B8081630C20FFF7F2FE052106E021F0040107
S31500004B9081630C20FFF7F1FE0021A0690068BDE8E3
S31500004BA0704007F0FCB870BDF8B50446DFF84C0855
S31500004BB081421D4634D0002600F0ABF82DD13A894B
S31500004BC03868A9B2FFF768FF39680020C88002E09C
S31500004BD0384600F026F8204606F071FE03281CDA57
S31500004BE0788AF989484339688A88002A80B2EFD0E2
S31500004BF00B88B7F80EC0498884446145B8BF98420F
S31500004C0007DB8B42E4D2FA8982189142A8BF984208
S31500004C10DEDA0121204606F0A4FE761C022ECBDB4E
S31500004C20F1BD38B50446DFF8D837E089658A2168D2
S31500004C3002466843084400F10801A06906F053FFE4
S31500004C40A06906F03CFE022803DBA069002106F0FD
S31500004C5088FE608AA18A401C90FBF1F201FB1200DB
S31500004C60608231BDFEB50446207B68BB60680FF2EA
S31500004C705D074188084400F10805A0696B4601AA52
S31500004C8002A906F03EFE60688188009A891A019A98
S31500004C908E1A4188008888420ED26089421AA0691D
S31500004CA03B46294606F067FF70B96068618942880D
S31500004CB0711A561800F10805A0693B46F2B229465A
S31500004CC006F059FF00B96073F7BD00002DE9F04109
S31500004CD004469846002600F01CF815D178688188AD
S31500004CE0414534BF8588454601F0D6FA79687A8908
S31500004CF04988ADB2691800F057F87A68518079682A
S31500004D008A88521B00F0C7F8761C022EE3DBBDE84A
S31500004D10F0811C21DFF8DC0611FB06F14718B869A3
S31500004D20A042704738B50D46FFF746FE112D0446E2
S31500004D3009D1A069002106F023FE00202073204639
S31500004D40BDE832408EE7132D06D1A069012106F099
S31500004D5017FE0120207331BD2068018808440572C2
S31500004D6020680188228900F01EF801808188491C8C
S31500004D708180A06906F01BFE226821899288891A23
S31500004D8089B220B9E2898A42A8BF012105DA012841
S31500004D9008D1208A814205DB0021A069BDE83440A4
S31500004DA006F0DFBD31BD491C91FBF2F302FB131186
S31500004DB0704780B5DFF84C060169090606D506F08E
S31500004DC0DBFFBDE8044001460120ABE701BD80B52D
S31500004DD0DFF83406016829B10168DFF83026116072
S31500004DE00021016000F012F80C20FFF7BFFDDFF88C
S31500004DF02006016841F0040101600221DFF8F80590
S31500004E000160416841F00201416001BD0C20BEE530
S31500004E1080B5DFF8000604210160416821F0040135
S31500004E204160FFF7F3FF0C20FFF7A7FDDFF8DC0575
S31500004E30006810B1DFF8D0150860BDE8014022E631
S31500004E40F8B50C461546FFF7B7FD0646EAB23068D8
S31500004E5080883189891A884201DB0120F2BD00274A
S31500004E600DE001F019FA31680B8814F8012B19448A
S31500004E707F1C0A7231680A88338900F004F8AF4251
S31500004E80EFD30020F2BD521C92FBF3FC03FB1C2265
S31500004E900A808A88521C8A8001F004BA7CB50128EF
S31500004EA004460D4603D9103801D010384BD12046A0
S31500004EB000F005FB10B9204600F085F800F0B1F8C7
S31500004EC0064600F0AEF82200DFF84C150CD0012C97
S31500004ED003D0102C08D0202C35D101F1D00202606D
S31500004EE04FF48C720A4402E0016001F1480242600C
S31500004EF04022028180224281200018BF102C03D15B
S31500004F00BDE87340FCF7D6BC012C18BF202C4ED14F
S31500004F10012C13BF202C4FF4D07008180020012C50
S31500004F2018BF202CB0610ED1DFF8F004E98CA8611F
S31500004F308030E861A88C814207D21C21304606F0F9
S31500004F406BFF022076BD012076BDF0812946E88CF4
S31500004F503082B06906F0CFFAA0BBB069017F007E4F
S31500004F600123022201F097F8287C012808D10121AB
S31500004F702046FFF7CFFDB069002106F0F2FC0CE0F9
S31500004F8000207082F189308990FBF1F0B0823046C2
S31500004F90FFF747FE3046FFF744FE012304220521B2
S31500004FA0002001F078F805210020FFF7F7FC00202B
S31500004FB0019000230120009001220121002001F030
S31500004FC02FF8002076BD58B50128044603D91038BD
S31500004FD001D0103812D1204600F071FAF8B92046F7
S31500004FE000F04DFA00F01DF8012C18BF202C0646E3
S31500004FF011D1B06906F063FB10B152BD012052BD5C
S31500005000B06990F83100012803D100212046FFF74E
S3150000501081FDFFF738FD1C21304606F0FDFE00201D
S3150000502052BD2046C8E438B50446FFF7C5FC054620
S315000050302046FFF7E3FC2868808832BDF8B50646AF
S3150000504001280F46344603D9103801D010380BD149
S315000050503046FFF7B1FC05463046FFF7CFFC28681F
S31500005060808818B92620F2BD0120F2BD01F014F99E
S315000050700646286841880844007A387028684188BE
S315000050802A89FFF790FE41808188491E012C18BFAE
S31500005090202C81801FD1A86990F83100012803D106
S315000050A019E02846FFF7BDFDA86906F008FC0228AE
S315000050B011DA2A68E889698A53881288414389B2D5
S315000050C040188342B8BF914205DB9A42E9D2834237
S315000050D0A8BF9142E5DA304601F0E4F80020F2BDBF
S315000050E0F8B500F074F81F4603D9103801D010380F
S315000050F007D13878010001D0B0420AD300202870C9
S3150000510007E00120F2BD3878411C39709DF8001087
S31500005110295469462046FFF791FF002856D19DF88D
S3150000512000008028F5DA39780A0003D10A2818BF6A
S315000051300028EED0B14207D3002038709DF8000059
S315000051400D2818BF0028E4D09DF80000082818BFD5
S315000051507F280CD138780100DBD0401E3870002142
S31500005160C0B2295451A1204600F045F8D1E738785D
S31500005170801C8642BCBF0D208DF800009DF80010F3
S31500005180204600F029F89DF8000061381A2804D25C
S315000051909DF8000020388DF800009DF800000D28CD
S315000051A018BF0A28AFD13978002068549DF800004E
S315000051B00D2805D10A21204600F00EF8002603E04E
S315000051C00D21204600F008F83E700020F2BD0128AF
S315000051D004460D461646704702B5012804D9B0F1BB
S315000051E0100101D0103904D10122694600F076F889
S315000051F002BD012002BD2DE9F047012881468846FF
S3150000520004D9B0F1100101D010390ED1002818BF11
S3150000521010280CD0FFF7D0FB0646002470680188E2
S31500005220084400F1080A002524E0012038E0404641
S31500005230FCF744F8C1B2404601F0BDF82FE001F09A
S315000052402BF871680B8818F8012B1944641C0A7234
S3150000525071680A887389FFF716FE7068008848B976
S31500005260671BFFB23A4600F01DF870687D19EDB273
S3150000527000F1080A98F8000050B100213046FFF707
S31500005280B3FB0028DBD1307B0028F6D0222007E0D4
S31500005290E4B2A54203DA621B92B200F003F80020E2
S315000052A0BDE8F08751464846FFF70FBC08200800C6
S315000052B010B5012804D9B0F1100301D0103B0BD171
S315000052C013460A4601460FF21500FBF7FBFD0024C4
S315000052D000B90124204610BD012010BD2DE9F84F6C
S315000052E0012881468A46934604D9B0F1100101D0BF
S315000052F010390ED1002818BF10280CD0FFF75CFB20
S315000053000746002478680188084400F1080800264A
S315000053102DE0012042E05946504601F04CF83CE0B1
S3150000532000F0BAFF79680B881AF8012B19440A7243
S3150000533079680A887B89521C92FBF3FC03FB1C22CA
S315000053400A808A88521C8A8009884D1EAD4100F069
S31500005350A9FFED0F761C55B1351BEDB22A46414625
S31500005360FFF7A1FF78682C19E4B200F10808F0B243
S3150000537058450AD200213846FFF736FB0028CFD120
S31500005380387B0028F6D0222008E05C4505DAABEB36
S31500005390040292B24146FFF786FF0020BDE8F28F75
S315000053A0F8B50127FFF713FF03D9103801D01038DD
S315000053B016D1002C18BF102C04D13146284600F017
S315000053C0FAFF0027FFF72DFE012C18BF202C05D170
S315000053D080693246294606F0ECFA07463846F2BDA1
S315000053E00120F2BD00E100E080E100E080E200E0A3
S315000053F000A000404CF7032024A40040097000F0F0
S31500005400A94B0000000001406C200E4084F70320E9
S315000054104C0001404800014078F5032024EA0320AF
S3150000542038B50546012D04D9B5F1100101D0103962
S3150000543023D1FFF7C1FA0446280018BF102D03D167
S31500005440606880880028FBD1012D18BF202D12D15D
S31500005450606880880028FBD1A06906F04EFA002813
S31500005460F6D1A06906F002FA8006F1D5A06906F029
S31500005470FDF98004ECD5002032BD012032BD38B5DF
S31500005480FFF79AFA0546A86990F831102C680129A9
S315000054900AD0022106F058F9002068822846FFF754
S315000054A0C0FB2846FFF7BDFB00F0F6FE0021A180F9
S315000054B021806180E180BDE8324000F0F3BE80B516
S315000054C0012804D9B0F1100101D0103906D1FFF737
S315000054D073FA00281CBF0068002801D1012002BD14
S315000054E0002002BD636F6D2E6300000062F30F2281
S315000054F062F31F42401810F0030308D0C91A1FD3E5
S31500005500DB0748BF00F8012D28BF20F8022D130045
S3150000551030B414461546103928BF20E93C00FAD8A5
S31500005520490728BF20E90C0048BF40F8042D890030
S3150000553028BF20F8022D48BF00F8012D30BC704767
S31500005540C91818BF00F8012DCB0728BF00F8012D98
S3150000555070470000890001EB401000F184400260B2
S315000055607047890001EB401000F1844000687047E5
S3150000557000F1806300F1C06019600260704710B5E9
S315000055808142A441E20F1021DFF87C06FFF7E2FF1B
S31500005590E20FBDE810401821DFF87808DAE7DFF8F7
S315000055A06C16CA6B02B1012241F67133CB630B68EC
S315000055B0DFF85C36984228BF4FF0007009D2DFF85A
S315000055C054361818DFF89838984234BF4FF0807078
S315000055D000200B6823F0407318430860D2B20AB16A
S315000055E00020C8637047C01C0F2801D2000770470F
S315000055F04FF070407047000038B50446002500F0B3
S315000056004DF9DFF80C27DFF81016944208D0DFF8C2
S315000056104027944206D0DFF83C27944204D006E0A7
S31500005620086802E0486800E0886800F00700401E4D
S31500005630032819D8DFE800F002050C0803F0F0FE95
S3150000564004E003F0F1FE01E003F0EBFE05460BE09B
S31500005650DFF830080068C00103D503F099FE85081D
