S017000052663463655A726332305461726765742E73333731
S3150800400060BC0020B9D2020841A4020845A40208EF
S31508004010A70A090100420008040803AC20599100C8
S315080040200000000000000000000000000000000082
S315080040300000000000000000000000000000000072
S315080040400000000000000000FFFFFFFFFFFFFFFF6A
S31508004050FFFFFFFF00E00708000000000000000067
S31508004060FFFFFFFFFFFFFFFFFF000000000000004B
S315080040700000000000000000000000000000000032
S31508004080F0FF002000000000E9FF0020E9FF002003
S3150800409060BC00200C4F030826D5020800B3002098
S311080040A0E81000200000080800000120BD
S3150800420060BC0020B9D2020841A4020845A40208ED
S315080042104DA4020849A4020851A40208C8A5020828
S31508004220C8A50208C8A50208C8A50208C8A50208A4
S3150800423055A40208C8A50208C8A50208A74D000883
S3150800424009640208C8A5020843940008C8A502081C
S31508004250DFE90008F99B0008C8A50208C8A50208F6
S31508004260F97F0008455D0008B1570008A542000817
S31508004270C8A50208539300089B930008979F020855
S3150800428043970008C8A50208C8A50208E59D0208C4
S31508004290012100F01F029140314A400942F82010DE
S315080042A07047000070B52F4C2F4D60782968490774
S315080042B027D5032825DAA18804EB4002918101213C
S315080042C0A27801FA00F01043A070284A2078002846
S315080042D012D0002320FA03F6F60708D59940637032
S315080042E04840207004EB4300808A106009E05B1C9C
S315080042F0DBB2032BEEDB04E0106000F091F803203C
S3150800430060704FF6FF702860BFF35F8F70BD80B591
S315080043101448002101700022032141700021C17058
S315080043200521018100218170001D10490A604A603B
S315080043304FF400428A601022CA60486101208861F1
S315080043400320C8600421084801644FF6FF71016024
S315080043500B20FFF79DFFBDE8014000F09FB8000065
S3150800436000E100E020C6002010A8004004E000405C
S3150800437000F0FDBB2248012181604EF6BE21416056
S315080043800121016070471F49012008607047A52870
S3150800439005D11B484DF6AD614160022101607047A9
S315080043A01748006810F0010018BF0120704780B553
S315080043B01549164A10200860154916480078030062
S315080043C00BD003280CBF00200120106040F65100D6
S315080043D00860002000F044FE06E0022010604FF45A
S315080043E00060086000F089FB0B4807210160002186
S315080043F00164102009490860002002BD0000000081
S31508004400006000400860004080E100E008000040CD
S315080044100C600040B0FF002014A0004000E100E05E
S3150800442070477047DFF8F03433F810001040C84082
S31508004430704730B50FF2A054DFF8E03434F8104076
S315080044409C601140DFF8D04434F810509543294356
S31508004450D96002221A6000221A6024F810105868DF
S315080044600028FCD130BDDFF8B824DFF8B80412788C
S31508004470DFF8B4140AB149780EE0895611F1090F2C
S31508004480B8BF302108DBC16D39B1C26D40F24A317F
S31508004490B1FBF2F189B2C91E01607047E0B5DFF8D9
S315080044A08C0401880A2300F065F8BDF806104FF65B
S315080044B0FF720D20FFF7BDFF07BDF8B50546B5F538
S315080044C0004FDFF864441AD1DFF864040188022338
S315080044D000F050F8BDF80000000AFF2801D00100DE
S315080044E000D118206070BDF800000006C00E102824
S315080044F01CBF001D00F09DF9BDF80000C543DFF89C
S315080045002064707808B1002005E0A089ADB2684043
S31508004510C00701D501207070DFF81804A58105F0E1
S315080045200104016841F4004101604FF440520FF262
S31508004530CC4000EB4400C5F340074078010389B23C
S315080045400220FFF776FF204600F0F2FD4022B9016F
S3150800455000F00CFA2D06A80E00F001003843307062
S31508004560FFF781FF707818B1FFF798FF0020707089
S315080045700020F2BD7F22684600F04EBE2DE9F04FBE
S31508004580DFF8B843DFF8B073207887B004230490C7
S315080045900C210B38C0B203906846039A00F0FAFE65
S315080045A09DF800008DF80A009DF801008DF80900B5
S315080045B09DF802008DF808009DF803008DF80500A7
S315080045C0DFF87C030078012806BF607880F00105D3
S315080045D0012501F0EEF982469DF9020003990AF1D8
S315080045E00A06AAF10A09B042B6BF81454FF001088A
S315080045F04FF0000801208840ADF806009DF801003C
S31508004600000604D47888BDF80610084201D04FF099
S31508004610010801F067FA9DF8030000060AD4B88875
S31508004620BDF80610084205D19DF90000B042B8BF92
S31508004630814502DB4FF0010901E04FF0000948EA25
S31508004640050059EA000000F0A480DFF8F8B2BE4978
S31508004650DBF80000BD4E400800F001008DF80400AC
S31508004660BB48006800F4E06005904FF4E06008601D
S31508004670002001F0F5FD00F0FFFBADB1607858B100
S31508004680DBF80000AE4940084000CBF800000120E6
S31508004690087000F0D6FC07E0306840F4005030603F
S315080046A0306820F480503060A5480078012810D181
S315080046B061780D4208BF01F050FFDBF80000A04901
S315080046C040F00100CBF8000000200870642000F0DC
S315080046D0B8FC607880F00100054203D00498C0B2A7
S315080046E002F011F8607838B1306820F480503060F4
S315080046F0306840F400503060BDF80600C543B8F194
S31508004700000F08D002F0EAF88DF801008DF802A033
S31508004710788828407880B9F1000F08D002F08FF920
S315080047208DF803008DF800A0B8882840B8809DF958
S3150800473000009DF90A10884202BF9DF801009DF805
S31508004740091088420BD19DF902009DF9081088428C
S3150800475002BF9DF803009DF80510884206D003990C
S3150800476004236A46C9B20C2000F025FE059878494C
S31508004770086000F057FE9DF8040001F071FD02F094
S315080047807EFA607828B148F260703060642000F0E4
S3150800479058FC9DF8010002F00DF89DF8030002F0A0
S315080047A049F907B0BDE8F08F80B501F0F5F8BDE826
S315080047B00140E3E601F0F0B870B5064601F0B8FC32
S315080047C00546A6F10B001028A6F10B0401D38A2092
S315080047D070BD60488168090702D40068C00701D522
S315080047E08C2070BD554806705B4801680C290FD0AF
S315080047F00FF27C11594A92F90020A4B231F824101C
S315080048005118C161FFF7BAFE012D08BF01F031FC4E
S31508004810002070BD10B5044601F0BEF82046BDE87C
S315080048201040C9E74548007870473F4890F90000AE
S3150800483070472DE9F041044614F12B0F86B048DB8A
S31508004840474801881423FFF795FEBDF810004FF678
S31508004850FF71884203D0400448BF012606D43F2290
S3150800486000211020FFF7DEFD0546002604F12B0285
S315080048702F2A2D483B491AD213220FF2341300E08F
S31508004880521ED2B213F91270BC42F9DB03EB420492
S31508004890032764780C60002413F8121001700021B5
S315080048A08846C6B1BDF810104FF6BF722AE0092C2B
S315080048B00FDA025D0A60047014232B480188FFF79B
S315080048C059FE4FF4C0514FF480744FF080082827E2
S315080048D0E7E78B201BE04FF4605200F047F84FF4EF
S315080048E0E062214600F042F88022414600F03EF898
S315080048F085F020003D18ADB2402DA8BF3F253F22C8
S3150800490085F0200100F032F8FFF7ADFD002006B073
S31508004910BDE8F0810000000000FB0020E810004020
S31508004920BAFF002064100040D8BF0020824A03085E
S315080049308E4A03081C1000404EC700208EC0002077
S315080049405AC000208020004080E100E0D0100040DE
S3150800495000E100E060200040AC100040B9FF0020F4
S315080049607E4A0308C0100040804A03080B2060E511
S31508004970AA2129005523290000252800AA26270050
S3150800498055282700002A2600AA2B2600552D250083
S31508004990002F2400AA3024005532230000342200B8
S315080049A0AA3522005537210000392000AA3A2000EE
S315080049B0D500E601EC02EF03F204F405F506F70765
S315080049C0F808F909FA0AFB0BFC0DFD0FFE11FF1397
S315080049D000160119021C031F1000110020003000E8
S315080049E04000410050006000700080009000A00068
S315080049F0B000C000D000E000F00000000000010395
S31508004A00DFF8DC145120086070472DE9F041DFF823
S31508004A10D4640546F0780428B4BF302760274FF4DD
S31508004A20F070B0FBF7F41E2D24B201DB281B04D569
S31508004A30A8B2BDE8F04100F004BB02F05BF900F053
S31508004A4028F870700721DFF8A004DFF8A02400F02A
S31508004A5047F8291B09B27943C91C8908491EDFF89A
S31508004A609054DFF87C7441602E6800F0AEF83C681C
S31508004A70386820F04000386002F042F93C602E6049
S31508004A8002F042F900F0F4F94046BDE8F04102F0C0
S31508004A9043B98046012080F31088704738B5DFF89F
S31508004AA04414C9780429B4BF302460244FF4F07143
S31508004AB0B1FBF4F1451A1E2D04DA9C210FF284404D
S31508004AC002F030F9DFF82004DFF82024072100F08F
S31508004AD007F805FB04F1C91C8908491E416031BD68
S31508004AE001600021416081604FF0007111607047DC
S31508004AF0DFF8F02301215170D0E72DE9F041DFF806
S31508004B00F453DFF8F46300242C6034604FF4A040BB
S31508004B10706041F29A084046FFF777FF686844F6E6
S31508004B209041081A00B24FF4487190FBF1F000B2B8
S31508004B300828A8BF072004DA10F1080FB8BF6FF0DD
S31508004B400700306008274046FFF75FFF4046FFF73B
S31508004B505CFF686804197F1EF8D1211DDFF89C03E5
S31508004B60C908B0FBF1F080B27060BDE8F08138B5D5
S31508004B70DFF88C5301206FF00F04A8602C608020AA
S31508004B80FFF743FFE868FF2802D8641C102CF5DB02
S31508004B9031BD70B5DFF86C03DFF85453016841F096
S31508004BA0010101600121416002F0A4F82E68044663
S31508004BB000F00BF8CA49512008602E6002F0A4F8EC
S31508004BC02046BDE8704002F0A7B8286840084000B3
S31508004BD0286002F099B810B5C24C01202070002058
S31508004BE02071C948816901F00301032907D1002012
S31508004BF0A070042000F060F80120207110BD0F217C
S31508004C000160022181610120E0706420BDE8104046
S31508004C106EE72DE9F041BD4CBB4EA088B14F4FF66B
S31508004C20FF78404540F2DC551CD1B948018802237B
S31508004C307F22201D00F0F0FAA088404504BF02201C
S31508004C40A080B069800703D4B06940F00200B06163
S31508004C500120B870A08830602846FFF749FF28462B
S31508004C60BDE8F081B2699207EED5BA78002AF6D186
S31508004C70B268B36812F0010203D10F2809D2401CAA
S31508004C8006E09B0705D523781BB1032801DB4044C2
S31508004C90A080A08822700228BCBF0220A0803068AD
S31508004CA0A1888842D4D1B06900F00300032818BF50
S31508004CB0FFF76FFF0020D3E72DE9F04780469548B8
S31508004CC00178002569B9C078072818BF09280DD0CA
S31508004CD0032818BF112809D013281CBF15280B282C
S31508004CE004D08D48016841F48071016002F002F831
S31508004CF08146FFF7CFFE4046FFF78BFF08B901252F
S31508004D0015E07B4F764E3C683868400840003860AE
S31508004D1001F0FAFFD6F800A0306820F040003060B5
S31508004D2001F0EEFFC6F800A03C6001F0EDFF00F0D0
S31508004D309FF8484601F0F0FF2800D7D0BDE8F08775
S31508004D400220B9E76848694A002141608160016824
S31508004D5021F0020101600021624841704FF00071A4
S31508004D601160817809B100218170C178012914D1B7
S31508004D706A4901220A606A4A1268D20748BF0321B3
S31508004D800FD40222C270086C40F0010008640420A7
S31508004D9064490860644908607047C178042901D1EC
S31508004DA00521C17070474F484078002818BFFFF7A3
S31508004DB0C9BF00F09EBF2DE9F8434A4C207908B3D5
S31508004DC054E001F097FF0546FFF764FEE0780328F4
S31508004DD013D0474EDFF8088100F0ACF8D8F80090F9
S31508004DE0D8F8000020F04000C8F8000001F088FF5D
S31508004DF0C8F80090376001F087FF00F039F82846B8
S31508004E0001F08AFFE0780328DBD1404E3E4DB0889A
S31508004E1028604FF6FF777088B8420CD1434801885E
S31508004E2002237F22B01C00F0F7F97088B84202D13D
S31508004E306420708001E0708878B170883C494A6DBA
S31508004E4042F001024A650A68AB68DB07FBD50B68C6
S31508004E509B1AC3F313038342F6D3FFF79AFE042083
S31508004E60E0704FF4C870BDE8F24341E6BDE8F1834F
S31508004E70002080F3108870472DE9F843194C2179F2
S31508004E80207881F0010108421DD124E001F032FFAB
S31508004E90FFF7FFFDE078052810D0154E104D00F0FD
S31508004EA049F8D5F80090286820F04000286001F0FD
S31508004EB027FFC5F80090376001F026FFFFF7D8FFF7
S31508004EC0404601F029FFE0780528DFD10020A070D0
S31508004ED00520FFF7F1FE00202070BDE8F1830000F1
S31508004EE000800040CEFF002010E000E004ED00E066
S31508004EF094ED00E0104000400C0000400060E3160E
S31508004F00084000401C4000400440004042C00020C9
S31508004F10904A0308960708083840004018A0004041
S31508004F200C40004080E200E000E100E0944A0308FB
S31508004F30382000403768306840084000306001F08B
S31508004F40E3BE0000636C6F636B732E6300000000A2
S31508004F5010B5002001F099FE684C40F68C21884275
S31508004F602068B4BF40F0080020F00800206010BD9B
S31508004F7010B504466248018882B000F05DF89DF8D5
S31508004F8000109DF80100FF2902BFFF280420002118
S31508004F9022005C4A136818BF801C23F46073C0B2F1
S31508004FA00828A8BF072043EAC0101060082910681F
S31508004FB0A8BF0721C00841EAC00010605248047023
S31508004FC013BD524800B5018883B000F035F8BDF826
S31508004FD000004FF6FF7188420EBF4FF4E1600A21C8
S31508004FE090FBF1F0ADF800004748007808B3444854
S31508004FF0018802237F2201A800F00EF99DF805001A
S31508005000BDF80030FF2808BF0420811CC9B2082952
S31508005010A8BF0721C1F12F0202EBD272C0F12F00FF
S31508005020521000FB0320C1F12F01B0FBF1F0ADF8DF
S315080050300000BDF800000EBD02237F22684600F07E
S31508005040EBB833490A68032809D34B6D43F00103CB
S315080050504B650B689B1AC3F313038342F9D3704756
S3150800506010B5040004D110BD4FF47A70FFF7E9FFBC
S315080050702046441E80B20028F6D110BD2548017886
S3150800508069B9C078072818BF092814D0032818BF9B
S31508005090112810D013281CBF15280B280BD01E4822
S315080050A0016841F480720260C80504D438210FF201
S315080050B0740001F037BE704720B1012807D00328D5
S315080050C018D019E0154801B11721016012E049B15D
S315080050D0480800F1B77000F55850B0FBF1F0B0F190
S315080050E0011F01D3202070470D4900F001024A60D4
S315080050F040080860002070472120704700BC004027
S31508005100844A030818000040BCFF0020864A0308AA
S31508005110382000409607080838400040100004E090
S3150800512068C800407573625F6572726F722E63009D
S31508005130F0B5044689B00020FFF71AFF2848018811
S315080051400A237F22684600F067F8BDF802004FF68A
S31508005150FF75A84204D1DC210FF2900001F0E2FDB0
S3150800516000260FF2A00701E02A4616B94FF47C4242
S3150800517003E0022E08BF4EF23F023DF81610B85D56
S31508005180FFF757F9761C052EEED3012C03D114230D
S315080051907F22144802E014237F22134801880FF265
S315080051A06C0703A800F038F800262A4608E02A46C5
S315080051B0012E08BF4FF6C07202D0082E08BF002283
S315080051C003A830F81610B85DFFF733F9761C0A2ED7
S315080051D0EDD3012C04BF0120FFF7CAFE09B0F0BDCC
S315080051E0824A0308804A03087E4A0308616E616C96
S315080051F06F6775652D63656C6C2D626961732E63C7
S315080052000000000000100C0D0E000000010203044F
S315080052100708090A0B0F000030B5044610467F2818
S3150800522008BF00204BF23462914283B01AD108239A
S315080052307F2240F612016846FFF7EEFF08220FF2BA
S31508005240C401684601F0BAFE30B908237F2240F24D
S31508005250A2716846FFF7E0FF08226946204601F07A
S3150800526063FE37BD1F4D294300FB03111A4620462E
S3150800527001F05AFE37BD2DE9F0410C4619490FF2E7
S31508005280780841EA0006C007154602D5622100F0F3
S315080052902FF8E80702D5632100F02AF8124886425B
S315080052A004D3A819401E1149884202D3642100F08C
S315080052B01FF8002706E0F05DFF2802D06B2100F0FA
S315080052C017F87F1CAF42F6D36A082146304601F02C
S315080052D0E0FE28B14046BDE8F041712101F022BD4B
S315080052E0BDE8F08100000808000808080010080852
S315080052F0404601F017BD00006D66672D746F6B653B
S315080053006E2E6300FFFFFFFFFFFFFFFF30B50FF2B2
S315080053100811DFF8FC500A6883B001A8002402606F
S3150800532001202870002001F0F9FE30B1002001F0BC
S31508005330F5FE10B12C7049203EBDDFF8D800018873
S3150800534002237F220DF1020000F024F802237F22B7
S315080053500021684600F01EF8002001A9BDF80220C9
S3150800536031F81010914208BF0124401C0228F4D3DA
S31508005370BDF8000024B1B0F57F7F07D100203EBDFF
S31508005380B0F57F7F14BF0420062000E00720002127
S3150800539029703EBD10B5FF2908DCDFF87440247873
S315080053A044B1BDE81040C9B202F0C2B9BDE8104028
S315080053B0FFF732BF10BD2DE9F0410546FF2D0E4619
S315080053C0174698460FF2540013DCDFF8444021785C
S315080053D0A1B1617811B1C02101F0A4FC012060706F
S315080053E0434632463946E8B202F00FFB00206070A9
S315080053F004E0BDE8F041CB2101F094BCBDE8F081A2
S31508005400DFF80C100978002918BF02F00ABC7047AB
S31508005410B5FF00208A4A0308FE01FD02746F6B651A
S315080054206E2E630010B5DFF858461020206301F091
S3150800543061FCDFF850160A6842F001020A6001F0C2
S315080054406BFCDFF84406606020608A306168893149
S31508005450616001212163E060A060DFF83016E06832
S315080054608930E060022020634FF6FF70086010BDA7
S31508005470DFF81C0645F26401C1601E214162502115
S315080054800162C821C1618165F021C16545F69001B7
S315080054904166882181660621C16644F2066101607B
S315080054A04FF6FF714160DFF8EC05007838B1DFF898
S315080054B0E80548F2607101604FF4C1514160DFF8B8
S315080054C0DC05016841F0040101600020DFF8D01511
S315080054D048707047DFF8B4050068C00700D408E0D4
S315080054E07047DFF8A805006810F0190F00D100E032
S315080054F070470021002002F0C5BC2DE9F047804620
S31508005500DFF8A015012002F050FD8A21DFF87805A2
S3150800551001FB08F14518681C4178007800EB012664
S31508005520DFF88415DFF884050978017000EB0809AF
S31508005530002089F80200B6B2B00603D5DFF8704538
S31508005540606E000640F18F80002106F007000328F0
S3150800555061D106F4406006F44042B0F5806F1CBF86
S31508005560B2F5804F002A56D00423B0F5006F08BF65
S31508005570082303D0B0F5406F08BF0E2370065CBF42
S315080055809B1CDBB2B2F5004F0CBF9F1C03F108074A
S31508005590FFB2781C00EBD070C0054FEA106A5FEACC
S315080055A0080014BF60682068504534D3E818B2F57F
S315080055B0404F03D102F05FFD014613E04078E95CF5
S315080055C001EB002080B202F05FFD0021FF2808D021
S315080055D0DFF8E024126832F810004FF4E462104253
S315080055E000D00121080016D0300714D45FEA08005D
S315080055F014BF606820680AF10102904207D2E06889
S315080056005FEA080214BF022201221042EED1E85DC9
S31508005610042818BF0021E06D000900F0010081424E
S3150800562089F802001FD00029A16C4FF400604FF4DE
S3150800563080620BD0B8F1000F08BF1046014212D0A5
S31508005640606C40F00100606401200AE0B8F1000FC8
S3150800565008BF1046014206D0606C400840006064EE
S31508005660002089F80200BDE8F0872DE9F84F0446C6
S31508005670DFF83C54DFF8346420000CBF28686868FB
S31508005680C1B2052905DAFFF725FF7068401C70606E
S315080056908CE040008DF800008A2000FB04FBDFF850
S315080056A0E8839DF8000008EB0B094844A0F10807B9
S315080056B03878797801EB00201FFA80FAB8786630D6
S315080056C0B870307818B9DFF8E003007830703078B1
S315080056D038700020307002F0FEFD7870DFF8AC7389
S315080056E0386C20F4805038642000686E02D17868DF
S315080056F0400504D4012C23D17868000520D5FFF78E
S31508005700E9FEDFF8B403017891B1002101701AF4BB
S31508005710E45FDFF8A803016802D00022402005E014
S3150800572099F80100000900F001028F2003F043F800
S3150800573020000CBF4FF480604FF40060786030E0C2
S315080057401AF4E45F2BD100F088FD10B15FEA4A40F5
S3150800575025D518F80B00802821DA386C99F801103D
S31508005760890626440ED5696E09060FD4A96CC906A2
S315080057700CD4396822000CBF80224FF4807208408E
S31508005780104203D1FFF7A6FE0020B070B2789DF84C
S315080057900010484603F0DEF80020B07001E0FFF77D
S315080057A099FE002C0CBF012002202861BDE8F18F6C
S315080057B02DE9F84FB54CBE4E2068216CDFF800B3D2
S315080057C0DFF8F482DFF8FC92DFF8D8A201EA0005D8
S315080057D038E061B18A22AC49504308444078C00693
S315080057E005D4B648016800228F2002F0E4FF280697
S315080057F008D50FB9FFF76EFE03F04EF8802025F0A6
S3150800580080052060E80509D50FB9FFF763FE03F0A8
S3150800581043F84FF4807025F480752060680407D536
S315080058200FB9FFF757FE4FF4804025F480452060F6
S31508005830280407D50FB9FFF74DFE4FF4004025F4AD
S3150800584000452060002D73D00027280706D50020C4
S31508005850FFF753FE082025F008052060E80606D560
S315080058600120FFF74AFE102025F01005206005F0FC
S315080058706000602803D1B06CC0050AD401E0A80610
S3150800588005D52020206025F02005002006E06806C2
S3150800589006D54020206025F040050120FFF7E5FEEB
S315080058A0E80404D54FF4805025F480552060E807B5
S315080058B09DD5012020606D0802F00BFB6D0078B1C4
S315080058C04FF448725146012002F012FB02F088FAA2
S315080058D040054CBF03200120002102F0D3FA01271E
S315080058E099F8010008B100F0FBF899F800000028C3
S315080058F006D000F027FC012807D198F800000028F8
S315080059003FF475AF9BF8000004287FF470AFF06889
S31508005910400800F00100002814BF7168316811B909
S315080059202168C904F7D5002814BF7168316850E7A3
S3150800593000202060BDE8F18F634800687047F0B525
S3150800594006460D4689B00021032001F041F904AC52
S3150800595008E034F811205040491C08293080F8DB4B
S315080059606D1EB61CE8B290B1002701F04CF924F878
S31508005970170001F048F9694621F817007F1C082F1F
S31508005980F3DB04A803F07AF900200021E5E701F02B
S3150800599076F9012009B0F0BD0321022001F018B9FB
S315080059A04FF6FF71081A292190FBF1F03A3040B200
S315080059B0704738B501F027F9FFF7F2FF434D044663
S315080059C02878B0B90321032001F002F9404801887C
S315080059D002237F226846FFF71FFC01F014F9BDF881
S315080059E00010401880B2FFF7DBFF153868700120F9
S315080059F0287001F044F96878201A40B232BD80B5A3
S31508005A000321022001F0E4F8BDE80140D1E770B5B2
S31508005A1030480078002490B9FFF7F1FF204E05467C
S31508005A20707848B13078401B40B203F030F90B2843
S31508005A3005DB3570012402E00120357070702046C0
S31508005A4070BD25480078704723490B78984200D1E5
S31508005A50704780B5087040B12049002008600948A1
S31508005A60016821F08001016001BD00F02DFC00F005
S31508005A7003FC00F0B5FBBDE8024000F099BB00004E
S31508005A80002000408420004000FE002000A00040C6
S31508005A904C1000408FC00020D010004080200040ED
S31508005AA0C9FF0020E35400088EC0002088FB0020B0
S31508005AB020200040C8BD00209CFC0020A4FC00203B
S31508005AC059C00020C5FF002038200040C7FF00202D
S31508005AD0884A03085AC00020CBFF00205410004013
S31508005AE07047704710B50D48018884B00A237F2295
S31508005AF06846FFF791FBBDF800004FF6FF74A04219
S31508005B0004D14E210FF2180001F00CF9BDF800106F
S31508005B1022460020FEF78DFC1FBD0000824A0308BE
S31508005B20616E616C6F6775652D66696C7465722E3A
S31508005B3063000000DFF89C07007848B1DFF8980793
S31508005B400179012904BF4079042801D10120704751
S31508005B50002070470FF624014008085C70470106CC
S31508005B6044BF4FF6F83101EAC0007047491C80016E
S31508005B7089B2B0FBF1F080B2FF288CBF0020C0F1DB
S31508005B80FF00C0B2704738B5DFF85407C17809B1CD
S31508005B90002032BDDFF85447617871B1E1780079A9
S31508005BA045182079ADB28542A8BF054603F089F8A5
S31508005BB00121A940491E084000E000206179081823
S31508005BC0C0B232BD2DE9F0470446C00705D540F2FC
S31508005BD07B110FF2987001F0A5F8DFF81457286DBD
S31508005BE0C00748BF8C2000F18280DFF8F406DFF892
S31508005BF0FC7600210170417829B9397819B1A96F65
S31508005C0041F0010102E0A96F49084900A967DFF8D8
S31508005C10C8867A7898F80610DFF8D896DFF8D86636
S31508005C2092B1002202710129286D40F0040028650E
S31508005C3006D14FF6FF7030604FF40070C9F80000C7
S31508005C40FFF7A1FF82460CE0286D20F00400012929
S31508005C5028654FF0000A04D100F038FA6420FFF7EF
S31508005C60F0F9A86F20F00800A8671420E864C5F8C2
S31508005C7048A0787838B198F80600002801BFA86CC3
S31508005C8000280120A864B8790028286D14BF40F0C0
S31508005C90080020F008002865FFF74CFF18B1306CA3
S31508005CA040F008003064202028626C602C604FF4B5
S31508005CB0E06468687F30686004202862DFF83C0684
S31508005CC0046006E003F00EF818B103F013F801F0CB
S31508005CD011F8DFF82C06006800F003000328F1D05D
S31508005CE0C9F80040286D40F0010028650020BDE88D
S31508005CF0F087DFF81006002141608160016821F015
S31508005D00020101604FF00070DFF8FC150860012001
S31508005D10DFF8F81508707047A0F13301DFF8F025B1
S31508005D20914200D3704710B5DFF8E0450021217095
S31508005D30FEF7B4FE02E0012002F0EAFF2078002810
S31508005D40F9D010BD2DE9F84FDFF8AC85DFF890558E
S31508005D50D8F80000D8F84010DFF8947501EA000476
S31508005D60A4B2C8F800406878002840F0D380E0075D
S31508005D70DFF8A065DFF874954CD5D7F800A0386C25
S31508005D80796C41EA0041A96099F8000000283DD0E5
S31508005D909AF80100800639D501202870FFF7CAFE57
S31508005DA0C0B31920FFF74DF9DFF86CB54FF4404042
S31508005DB0CBF82800DBF800000090F06E40F40050A5
S31508005DC0F066F06E40F48050F0669AF80010A86805
S31508005DD04901B83101EB000AFFF7AEFDAAEB000056
S31508005DE0C0F31300FFF798FFF06E80098001F06694
S31508005DF0F06EBDF800100843F0660020CBF82800C6
S31508005E0048F26070F066E888306003E000220020FF
S31508005E1002F0D1FC20060ED5287830B10020287073
S31508005E200022A968402002F0C6FCD8F83C0020F4FD
S31508005E308050C8F83C00600608D5687830B9FFF786
S31508005E407BFD01460022892002F0B5FCE00652D50A
S31508005E50DFF884A4DFF89CB49AF80400012804BF8C
S31508005E609AF8061001291FD100F077FB386F40F029
S31508005E7001003867002400208AF80600FFF7D2FAE6
S31508005E800A20FFF7DEF84FF6FF70C8F800004FF457
S31508005E90E060CBF800000920B8660120B864B86F46
S31508005EA040F00800B86718E02979491C2971C9B279
S31508005EB099F80220914215D2012808BF00F0D9F8B6
S31508005EC0B86F20F00800B8671420B866FFF75BFEC5
S31508005ED0B8644FF40070CBF80000386D40F001004C
S31508005EE0386508E0687830B9FFF726FD01460022D4
S31508005EF08D2002F060FC20070CD5FFF71BFE48B189
S31508005F003068E88001203060D8F8400020F00800AA
S31508005F10C8F84000A0060AD520203862687830B94B
S31508005F20FFF70AFD01460022882002F044FC687843
S31508005F3020B114F4407F04BF0120A870BDE8F18F9A
S31508005F40DFF898130028086814BF40F4404020F48E
S31508005F5040400860704770B582B00546FEF72AFCD7
S31508005F60DFF8C003DFF87C43DFF86C6300210160CB
S31508005F701521E160092101651F21416001210166A2
S31508005F80DFF89C030088FEF798FAFFF771FA03F02A
S31508005F9083F900F028F9308900F052F9708900F089
S31508005FA057F900F0A7FE616841F04001616000F012
S31508005FB0B3FE707800F0E8F8B07800F0F9F8DFF88A
S31508005FC06803007800F026F9DFF8600390F900000E
S31508005FD0FEF72FFC307800F043F996F9030000F03D
S31508005FE04BF9DFF84C0300F069F9BDF80000DFF85B
S31508005FF04413C0054CBF0020BDF800000870DFF848
S3150800600038030078FEF7D8FB28B140F2C2310FF208
S315080060105C3000F087FE012D04D12068C00748BF18
S3150800602000F027F86DB92068C0070AD400F095FA81
S31508006030206840F001002060C820FFF702F8002021
S31508006040B071F120DFF8B052286440F2F910E86325
S3150800605001F03FFFFFF774FFFFF7E4F92068C00778
S3150800606004D54FF6FF70286000F05DF8FEF704FFD0
S3150800607073BD70B5DFF8C452DFF85C422E68A079AC
S31508006080012822D000F036FEB6B2DFF870222E6064
S315080060904FF4E0611160DFF884120A6A5208520070
S315080060A00A620A68520852000A600A6842F0020246
S315080060B00A604A6A42F001024A620121A17100F0AF
S315080060C02BFEBDE8704000F03ABA70BD70B5824C40
S315080060D0A07938B300F041FA00F00CFE0546DFF867
S315080060E06012814E01200860306D40F00100306575
S315080060F00020A071FFF796F920203060306B40F041
S3150800610002003063F06D40F00800F065284600F0A4
S3150800611003FE0A20FEF795FF77494FF6FF700860E1
S3150800612000F001F870BD4FF4E060724908607047EE
S3150800613069488079704768480079012808BFFFF7E1
S3150800614098BF704764480079704780B5022801DB1C
S31508006150012002BD604908718979884205D010B9C5
S31508006160FFF7B4FF01E0FFF784FF002002BD754882
S315080061700068800200149A3801B211F1800FB8BF86
S315080061806FF07F0040B2704710B5044600F0B2FDCC
S315080061906D490A68002C04D042F012020A600121F7
S315080061A003E022F012020A6000214B4A517040E0D7
S315080061B038B5054600F09EFD0446FFF742FC40B997
S315080061C061482900016814BF41F0800121F080016F
S315080061D00160414885702046BDE8324000F09CBD0C
S315080061E03D488078704759494A780B78584803EBF8
S315080061F0022202608B78CA7803EB022242600B798E
S315080062004A7903EB02228260CA79897901EB022175
S31508006210C160704710B5044600F06CFD4A4922007B
S315080062200A6814BF42F0200222F020020A603E49A2
S315080062300C70BDE8104000F06FBD27480089704714
S3150800624025490881434908607047234840897047B3
S31508006250214948814049086070474048007870479E
S31508006260204902000A6814BF42F0020222F0020224
S315080062700A6019490870704738B504467F2C0AD158
S31508006280374800F01BF8BDF80000C00554BFBDF83C
S3150800629000406FF04A0400F02DFD0546FFF7D1FBDC
S315080062A030B964B204F19A0080052E49000C0860E2
S315080062B00948C470284600F02FFD31BD0188022325
S315080062C07F226846FEF7A8BF034890F90300704787
S315080062D000000000DCFF002054C0002040A0004061
S315080062E09CFC0020802000403020004004C0002094
S315080062F01020004000E100E004A0004080E100E03A
S31508006300A820004010E000E004ED00E0DDFF0020DA
S31508006310CDFF070064100040E410004060200040F4
S31508006320E4BF00205C100040DBFF0020D8BF00203F
S31508006330924A0308B9FF00208EC000201C100040B6
S31508006340281000400C1000408420004080FB0020EC
S315080063509820004094200040902000409CC00020D7
S31508006360984A030854100040704700007068792D59
S31508006370636F6D6D6F6E2E6300000000FEF7C80137
S3150800638038B50120FEF745FC0020FEF7F1FD914CDB
S31508006390206840F008002060FDF7ECFFFEF7D8FD06
S315080063A08D498E480A78C2604B788D4AD3608D4BEA
S315080063B08D78DD608D880560CD8845600889106018
S315080063C04889506088891860C889586000F0B7F80D
S315080063D0206820F010002060FDF799FF02F068FFA2
S315080063E0FEF7AEFCFDF7C4FFBDE83140FDF7DFBFA1
S315080063F040F2016003F004B810B503F0CEF803F0DC
S31508006400DEFB794900F001F810BD74480A78C260CD
S315080064104B78734AD360734B8C78DC608C88046045
S31508006420CC8844600889106048895060888918605B
S31508006430C8895860704710B5FEF7CDFBFEF788FD92
S315080064406549FFF7E2FF00F07AF800F034F8FEF746
S31508006450B2FC03F0BEFBBDE8104003F0BAB88A6888
S31508006460037802F00F0203F0F0031A438A604378B8
S315080064705B4AD3605B4B8478DC60C4880C60018916
S3150800648011604189516081891960C08958607047D7
S3150800649010B5FEF7A0FBFEF75BFD54494E48FFF723
S315080064A0DEFF00F04CF800F006F8FEF784FCBDE8C5
S315080064B0104003F08EBB4748016821F010010160C7
S315080064C0FDF725BFF0B50F249D0004FA05F51668FB
S315080064D0284215D0002505EB830720FA07F7FF07A2
S315080064E00BD5AF0004FA07FC26EA0C0631F813C0F0
S315080064F004FA07F707EA0C073E436D1C042DEADB8E
S315080065001660F0BDF0B5FF24DD00AC4016682042E9
S3150800651013D00024012504EBC30720FA07F7FF0769
S3150800652008D505FA04F7BE43CF5C05FA04FC0CEA65
S3150800653007073E43641C082CEDDB1660F0BD38B532
S315080065400021002001F09EFC01F0C6FC284C2068C2
S31508006550002801D0244D0AE031BD38B501F0BDFC54
S31508006560234C2068002801D01B4D00E031BD214A8C
S3150800657000232946FFF7C6FF20681F4A012329463C
S31508006580FFF7C0FF20681D4A02232946FFF7BAFF16
S315080065902068124A002300F037F82068134A0123BE
S315080065A000F032F820680E4A022300F02DF8206821
S315080065B0134A032300F028F820680A4A042300F047
S315080065C023F82068291D01B0BDE8304005230D4A8F
S315080065D078E7000000BC004064BE002000B0004020
S315080065E000B2004000B4004074BE002004B0004071
S315080065F084C900200CB000400CB200400CB4004026
S3150800660004B2004004B40040291D5BE70320FEF7EE
S31508006610F7BE80B503F099FB01460FF270000B290F
S3150800662038BF00EB810002BD80B503F092FB0FF284
S3150800663088010204120E51F8221000F0FF0001EB47
S31508006640800002BD0000000010B503F07EFB044682
S3150800665003F07FFBC0B208B9012C07D1072C11D86B
S31508006660DFE804F004100608080A0C0E002010BD26
S31508006670092010BD022010BD032010BD0B2010BD3F
S31508006680062010BD44F0800010BD0000554E4B009A
S315080066904649420042544C0045585400505752004F
S315080066A05744470020535700435253004653480067
S315080066B042414400464C5400984103089C41030853
S315080066C0F4410308144203081C420308284203083D
S315080066D03442030840420308484203085442030868
S315080066E0644203082A490A68920992010A600A68FC
S315080066F0104308604FF400412648016000210160FC
S315080067006420FEF79EBC2DE9F047234D204FD5F8AF
S315080067100090224C8046286840F40040286038687B
S3150800672020F480503860207868B162781C48A178D7
S3150800673000EB820200EB880012F82A2C10F82A0CCB
S31508006740891A461802E0012020262070B0B2FFF709
S31508006750C9FF0FF2500A02E0B0B2FFF7C3FF386B69
S31508006760042805D0386B400754BF761E761CF3E71D
S31508006770F86A38B184F80180A6701FFA89F0286093
S31508006780BDE8F08740F22111504600F0CBFAE6E763
S31508006790D0100040181000401C100040D8FF002000
S315080067A070490008616E616C6F6775652D76636F59
S315080067B02E63000081014FF4FE5289B20C20FDF7CA
S315080067C038BE2DE9F84F8F4CDFF83CB2A568206833
S315080067D01FFA80FA00F053FA0127B020ADB200265E
S315080067E04FF00A08B946206308E016F1190FB8BF3A
S315080067F04FF00A08464436B27019A060DBF800006C
S31508006800000702D559EA070028D00120FEF719FC2F
S31508006810B9F1000F11D0AAF10300874202DAFF1C72
S31508006820BFB213E00AF5004020600621092000F0F7
S31508006830CFF957464FF000090BE0DBF800000007D8
S3150800684007D5042FA6BFFF1EBFB2002707F50040D5
S3150800685020601A2EC9DB6FF00908CBE7A560C4F8DB
S3150800686000A00820CBF800006848006880B2BDE8A0
S31508006870F28F80B5624B66491B784FF0FF326BB1D9
S31508006880002819BF4A606348486041F21110086041
S31508006890614841880088BDE8044092E7002819BF8E
S315080068A04A600A604860086000F0E9F9BDE80440FB
S315080068B00621092000F0DDB938B50120FFF7D9FF18
S315080068C004460020FFF7D5FF05460120FFF7D1FF54
S315080068D04042001B00EB450000B232BD2DE9FE4FD9
S315080068E04E4CDFF83C81A06A454EADF8020025689B
S315080068F0D8F800B0307860B14FF6FF720021082052
S31508006900FDF790FDADF80000C022C0210820FDF774
S3150800691090FD4448DFF81091007818B148F260708D
S31508006920C9F8000070883C4F40F4404040F04C00E5
S31508006930C9F83C000220A0620120206040F24C40C9
S31508006940FEF77FFB0120C8F80C00C8F800000020FD
S31508006950388040207880307800B12020FFF72AFF61
S31508006960FFF7AAFF8246402038807F207880FFF70D
S3150800697021FFFFF7A1FF0290504602F088F9FE2199
S3150800698001FB00F70298AAEB00000190307860B18D
S31508006990029802F07CF98246019802F078F980B2F2
S315080069A007EB8A11B1FBF0F005E0019802F06FF9E8
S315080069B080B2B7FBF0F080B2401CC7031FFA8BF019
S315080069C0C8F80000ADB20020C8F80C00022020600C
S315080069D02560BDF80200A0620020C9F83C003078A6
S315080069E030B1BDF800104FF6FF720820FDF721FD03
S315080069F040F24C40FEF725FB380CBDE8FE8F000040
S31508006A0050C00020C010004018A000400070004090
S31508006A1038100040EEEEFFFF18FF0020602000400F
S31508006A20281000408FC00020D010004041003F22AF
S31508006A3089B201E001463F220220FDF7FABC2DE9A2
S31508006A40F04F564C564D95B0E06CADF810004FF629
S31508006A50FF782068ADF80E004246E86AADF80C00EB
S31508006A6000210120FDF7DEFCADF80A0042460021B0
S31508006A700B20FDF7D7FCADF8080000264FF40040C0
S31508006A8020600DF1140B00202861686148F20200AD
S31508006A9000F088F84CF68C30E0644FF4805248F2E7
S31508006AA0F000E86211460120FDF7C3FC42460021CA
S31508006AB00B20FDF7BEFC0621062000F0DAF801904F
S31508006AC000F082F800904CF69C30E0640020FFF756
S31508006AD0ADFF0621062000F07BF8B0B2FFF7A6FF4F
S31508006AE00621062000F074F800F08DF82BF8160041
S31508006AF0761C202EF1DB00F086F81020FFF796FFB3
S31508006B0000F062F80099019A401ABBF820108E1A14
S31508006B10404306FB06094FF0100A112700F04EF80D
S31508006B2000F052F800F043F805DB1FFA87FA7F1CDD
S31508006B30202F8146F2DBBAF1100F0ED10F2700F095
S31508006B403DF800F041F800F032F806DB1FFA87FA44
S31508006B507F1E3FB2002F8146F1D5BDF81000E064D4
S31508006B604246BDF80E002060BDF80C00E862012020
S31508006B70BDF80A10FDF75DFCBDF8081042460B206B
S31508006B80FDF757FC01202861002000F00BF84FEABA
S31508006B904A00C0B215B0BDE8F08F0000C010004032
S31508006BA018100040286040F24C40FEF74ABA009997
S31508006BB0401A404306FB0600484570473BF8170055
S31508006BC00199461AB8B231E70621072000F051B8F4
S31508006BD070B505460E4603F0CFF83F4C206C20F002
S31508006BE00800206403F0CAF800F084F8E90141F0CF
S31508006BF001013A4A41EA0631116008212160BDE8DF
S31508006C00704000F089B82DE9F041354C354D324ECB
S31508006C1025E003F0B1F8344904200860306C40F0F0
S31508006C20080030642F68286840084000286000F093
S31508006C306BF8D4F80080206820F04000206000F04F
S31508006C405FF8C4F800802F6000F05EF8306C2749C2
S31508006C5020F0080030640420086003F08FF83068DC
S31508006C600007D6D5082030602148006880B2BDE804
S31508006C70F08180B5FFF7ACFFBDE80140C3E71748D0
S31508006C8001684908490001607047F8B50746FEF7EC
S31508006C9098F9044639460320FFF7EBFF05463946BF
S31508006CA00120FFF7E6FF0646FDF7BBFB3946002045
S31508006CB0FFF7DFFF0746FDF7B3FB084801684908F9
S31508006CC049000160781B0004711BB0FBF1F06043BA
S31508006CD04000000CF2BD000018A0004004700040FF
S31508006CE00080004094ED00E000E100E080E200E072
S31508006CF000700040EFF31180602181F3118870471E
S31508006D0000BF30BF00BF7047BFF35F8FBFF34F8F21
S31508006D10BFF36F8F7047000080F31188704700003B
S31508006D2042DE704738B504460D46FDF72CFBFFF7E3
S31508006D30E1FF2946204603F048F82B4622460FF283
S31508006D40D411012003F0B3FA29462046BDE83440A1
S31508006D50E6E767482DE9F047664D01682E1D4FF4B2
S31508006D6020687165016AB16563490968F165416A18
S31508006D703166816A7166C16AB166016BF166806BBC
S31508006D80306796F8340040074CBFF46BB46B02F0DA
S31508006D90CAFB0022F2648442584A014624BFA2F183
S31508006DA0200AA2452746316505F18C03DFF850C154
S31508006DB0DFF850E118D3A0693064E4697464746D2F
S31508006DC0C4F30804062C13D1704511D360450FD2BD
S31508006DD000884DF64264A0420AD13068586040F2F5
S31508006DE001787068986003E000273764776407467F
S31508006DF04548814202D2014600E0091D08469042F4
S31508006E0003D20C68B4F1CD3FF7D04049081AB064F4
S31508006E100021002005EB8004401C0628A167F9DB49
S31508006E20002003E0C0B205EB8004A167974222D296
S31508006E3052F8041D7145F9D36145F7D2CC07F5D54B
S31508006E40002405EB8409D9F87890894502D0641C9A
S31508006E50062CF6DB062CE9D1002814BF401E0520B7
S31508006E60E0E7716F002405EB8402641CD76F97670F
S31508006E70052CF8DB19600146481EC9B20029F0D175
S31508006E80706DC0F3080002280AD0032815D004281C
S31508006E9016D0052817D0062818D00C281CD01EE0B6
S31508006EA01B480168890748BF40F602181CD40068C9
S31508006EB0C00719D540F2025816E040F6012813E03B
S31508006EC040F6022810E040F603280DE0B8F5206FDA
S31508006ED00AD140F6042807E040F6052804E018B170
S31508006EE0242838BF40F607284046BDE8F08700004A
S31508006EF004ED00E00000002000E300E060BC002094
S31508006F0026D50208904200089800002060BC0020A0
S31508006F101CA000400D0A5B4153534552543A257054
S31508006F203A25645D0D0A0000814233D210441144AB
S31508006F30401E491E10E011F8013900F80139121FE8
S31508006F4011F8013900F8013911F8013900F8013949
S31508006F5011F8013900F8013992B2042AEBDA93B232
S31508006F60002B1EBF11F8013900F80139521EF6D15F
S31508006F70704711F8013B00F8013B121F11F8013B5D
S31508006F8000F8013B11F8013B00F8013B11F8013B01
S31508006F9000F8013B92B2042AEBDA93B2002B1EBF2B
S31508006FA011F8013B00F8013B521EF6D17047130059
S31508006FB003D00A46194603F0BBB9704710B500E07E
S31508006FC0521E93B223B100F012F8F9D0181B10BD67
S31508006FD0002010BD10B500E0521E93B22BB100F090
S31508006FE006F8F9D0181B40B210BD002010BD10F8E5
S31508006FF0013B11F8014BA342704700004148018A42
S3150800700040F6A772914202BF408A4FF47F41084278
S3150800701003D1022801DB01207047002070472DE9C3
S31508007020F84F82468846384DDFF8D4B0FFF762FE3F
S315080070302F6804462868400840002860FFF764FE69
S3150800704001208BF80000FFF7D9FF28B940F201119B
S315080070500FF2B800FFF766FE2A48D0F82890414696
S315080070604AF48070C84706462F60FFF74DFE204653
S31508007070FFF752FE00208BF800000FF298040EB1BD
S31508007080A05D04E041464AF40070C847205CBDE8AC
S31508007090F28F2DE9F84F804689464FEA420A1A4E82
S315080070A0FFF728FE3768054630684008400030601C
S315080070B0FFF72AFEFFF7A2FF28B94FF4A2710FF2D5
S315080070C04C00FFF72FFE0F48D0F824B00023524695
S315080070D049464046D84704463760FFF715FE284616
S315080070E0FFF71AFE0FF22C050CB1285D05E0534692
S315080070F0002249464046D847285CBDE8F28F000082
S31508007100CDFF00200000080894ED00E0666C61736E
S31508007110682E6300000202024B4B46472DE9F04FEA
S315080071208BB080462722FF216846FFF740FFDFF82D
S31508007130B0A0D222FF215046FFF739FF27250027A6
S31508007140284CDFF8A490294EF05D19F807B0E15DE8
S31508007150401C00EBD070401001B11930401C00FBF8
S315080071600BF2234830F817100FF2980092B203F08A
S3150800717013F9BBF1010F1CBF2AF817505D447F1C99
S31508007180272FE1DB0FF29800272340F21C4240F23A
S31508007190873103F001F94FF4E04000F00CF90FF2E3
S315080071A0540518B19D212846FFF7BCFD4FF48040D1
S315080071B000F001F918B19F212846FFF7B3FD4FF4F7
S315080071C0805000F0F8F818B1A1212846FFF7AAFD6B
S315080071D06946404600F01DF90BB0BDE8F08F000087
S315080071E070F9002094460308E4460308BC460308E1
S315080071F04446030873696D2D656570726F6D2E635D
S315080072000000000043726561746F723A2030782579
S3150800721032582C20576F7264733A2025640A00008E
S3150800722053696D454520646174613A202564207769
S315080072306F726473206F66202564206D61782C2038
S31508007240746F6B656E436F756E743A2025640A0019
S3150800725010B5DFF8944ADFF8143B2488001B06E0D3
S3150800726010B5DFF80C4BDFF8043B24681B1B03EB57
S315080072704000002304E030F8134021F813405B1C5B
S315080072809342F8DB002010BD2DE9F04182B0044698
S315080072900D4616460027DFF8D48A01E0BF1CFFB268
S315080072A0B74217DAE819E95D4078DFF8C83A1B886B
S315080072B001EB0020ADF80000012207EBD77004EBC4
S315080072C06000C01A00F09CFB0100E7D003F072F8DA
S315080072D0002000E00120BDE8F681F8B504460F4617
S315080072E0154600260DE000F019F8BDF8000004EB7D
S315080072F04601000A48707F1CBDF8000004F8160015
S31508007300761CB6EB550FEEDBE80706D500F006F857
S31508007310BDF80000611901F8010CF1BD01226946AA
S31508007320B8B295E7DFF8C029DFF8401A1288801A44
S3150800733001EB40010220FFF772BEDFF83C1ADFF8C6
S315080073403C2A095C125CDFF8383A185C10B102F581
S31508007350997292B241EAC21080B27047DFF8183AC1
S31508007360DFF8202A1B5C012B1CBF32F81000081816
S3150800737002EB4000704738B50C46DFF80C1A0D785A
S315080073802A462146FFF764FF208801001CBF4FF6F6
S31508007390FF7188420BD0012000E0401CC1B2A9420F
S315080073A007D2C0B234F8101022889142F5D00020D6
S315080073B032BD012032BDF0B5DFF8B41987B00860D8
S315080073C00C2269460020FFF74BFFBDF81600BDF8F2
S315080073D00C200346040A012000254FF6FF763DF8E7
S315080073E01570BDF80010B94203D1B74218BF002F77
S315080073F000D100206D1C062DF1DBB21A914218BF90
S315080074000020DBB2C4F1FF018B4218BF002007B091
S31508007410F0BD2DE9F24F0446DFF8706900203070A0
S3150800742070809CB0DFF868090088ADF8020007A9EB
S31508007430FFF7A1FF83460120707009A9DFF85409F8
S315080074400588DFF85409B0F80080DFF89C0807883B
S31508007450BDF802A03846FFF78EFFB8B1BBF1000FA2
S315080074603DD0BDF81C10BDF824004FF6FE729142BF
S3150800747002D1012804D10CE0012908BF90422ED080
S315080074800846BDF82410884229D202E0BBF1000F55
S3150800749024D000207070029750460695CDF81080CB
S315080074A00122DFF8E41891F800804044ADF80600A0
S315080074B06946BDF80600FFF7CBFEDFF8E00800884E
S315080074C005904FF6FF79BDF80000000B404518BF40
S315080074D00F2801D1200021D0002516E0012470785C
S315080074E00028D8D03846CDF808A0CDF818800495DD
S315080074F0D6E7059805FB00F4E01900F05DFCBDF839
S315080075000200201800F058FC6D1C4545F1DB0120EF
S3150800751030704D2002F04EFF0025F7E0BDF806500A
S31508007520012201A92846FFF793FEBDF80400C043CF
S3150800753000F0FF00ADF804006F1CDFF8640805884A
S31508007540BDF80400A84218BF01244FF0000A20E045
S31508007550401CC1B2A94218D2C0B2DFF84818BDF81B
S315080075600E20834631F81B109142F1D1FFF7E5FE54
S315080075704FF680710840BDF80C104FF68072114026
S31508007580884204BF1C9800F80BA00AF101001FFAF4
S3150800759080FABDF80400824507DA022203A9B8B2C8
S315080075A0FFF756FEBF1C0020D3E7002001E0401C71
S315080075B080B2A84217DA1C99095C8142F7D00124E7
S315080075C011E02AF81070BDF8060000EB4300401CD5
S315080075D000F0DBFABDF80200C0F3C710401C00EB50
S315080075E0D07007EB60070498DFF898A7BFB2874208
S315080075F00EDA00F099F8BDF80000484508D0030AED
S3150800760000F07F01BDF804007F1C834202DB0124E1
S3150800761000252DE0002000E0401CA842D3DA1C9A81
S31508007620125C9A42F8D1C0B2FF28CCD0DFF84827BE
S31508007630125C7F290CBF4FF0000C8C4694450BDA80
S31508007640BDF800C0DFF838E71EF800E04FEA0C6C1A
S315080076504FEADC7CF44501D00124B4E7012AB0D016
S315080076607F293AF8100008BF00210818A9E76D1C01
S31508007670DFF834070088854204DA3AF815004845E9
S31508007680F5D1012477800498BFB2874207DA00F063
S315080076904BF8BDF800007F1C4845F4D039E7002CAC
S315080076A0FCD1029801220BA980B2FFF7D1FDBDF8E3
S315080076B02C0048450DD105E0401C80B2202813DB7C
S315080076C02034A4B20699029A891A8C4205DB012055
S315080076D0307000201DB0BDE8F08FA51820220BA938
S315080076E0A8B2FFF7B5FD00200BA931F810104945DF
S315080076F0E2D0A8B2FFF716FE203CA4B2E0E7029853
S31508007700059905FB010000F057FB6D1C4545F6DBA6
S3150800771001203070494600F046F818B100F035F9F6
S315080077200028D6D10120D5E70122694638468FE5DB
S315080077302DE9F0420F46DFF86816DFF8405609884B
S315080077408F420446164699460CD2DFF82C16C95DB8
S3150800775030467F2808BF0020884203DAE95D89455C
S3150800776000D11CB940F2D64100F00BFA3146384632
S31508007770FFF7F4FD0188DFF80806C05D60B13846FA
S3150800778000F035FAE95D012908BF207009D0022901
S3150800779014BF2060208004E04A462046BDE8F04237
S315080077A09BE5BDE8F0822DE9F34FDFF83C05DFF8ED
S315080077B0D8150488DFF8D4050978407883B00028FE
S315080077C01ABFDFF8CC05008820460D18DFF8D0056B
S315080077D00088ADF80800ADB2C04300F0FF0000EB2A
S315080077E0013000F55060ADF802002B1BDFF87C0570
S315080077F001220DF1020100F0E3FA6E1C0100B6B297
S315080078003AD10025DFF89C7513E0E8B2FFF795FD3D
S31508007810ADF80400331B37F81500ADF80600022250
S31508007820DFF8480500F0CBFA010025D1B61CB6B240
S315080078306D1CBDF808008542E7DB002500E06D1CDD
S31508007840BDF80800854280F29B80DFF83405405D6C
S315080078508DF80A004FF0000A1BE001220DF1020123
S315080078601FFA89F0FFF7F4FCBB19DFF8000500F0F2
S3150800787092F9010009F101097AD17F1CFFB2B7EB31
S315080078801B6FEADBDFF82405405D8619B6B20AF1FC
S31508007890010ADFF8E404475D5FFA8AF0B842CED2FF
S315080078A05FFA8AF1E8B2FFF759FD80469DF80A00AB
S315080078B0B8F80090C00140EA0520ADF80000012F95
S315080078C0BDF800000EBF40F07F005FFA8AFA4AEA68
S315080078D00000ADF80000311BDFF8900400EB410012
S315080078E04FF6FF71771C89451EBFBDF80010BDF81D
S315080078F010209142BFB219D19DF80C100029C6D0AC
S3150800790001226946FFF7C5FB01003E4630D1DFF884
S315080079106C04A8F80060425DDFF8940450F825105E
S315080079203046FFF7B1FC0028ACD124E0DFF84C1450
S31508007930495D491C01EBD1714FEAC15B01226946D9
S31508007940FFF7A7FB01003E4612D1A8F800609DF894
S315080079500A0098B14946E8B200F049F90190331B8C
S31508007960DFF808044FEA1B6200F029FA010089D003
S3150800797002F020FD002005B0BDE8F08F00277DE766
S31508007980DFF8080446800120F5E7DFF804042DE94E
S31508007990F0410688DFF85003DFF8F053048868786A
S315080079A0DFF8C883002882B012BF20463046264634
S315080079B001226946FFF74CFCBDF8000001280CBF00
S315080079C04FF6FE70401EADF80000DFF8BC030778DE
S315080079D03846471E58B1BFB2B819001B012200F03D
S315080079E00FF80100F4D002F0E5FC002006E0687804
S315080079F080F001006870002028700120BDE8F6813B
S31508007A00694608EB4000FFF744BB2DE9FE4F0D46DB
S31508007A10DFF88C1309888842044617461E464FF03D
S31508007A2000094FF001080ED2DFF84C13095D3846FD
S31508007A307F2808BF0020884205DADFF84013095D71
S31508007A408E4200D11DB940F2FA5100F09AF8394633
S31508007A502046FFF783FC0190CC4F787820B1CD48BB
S31508007A60B0F800A0A04803E0CB48B0F800A0C8488A
S31508007A703978008849B97988081ACE490988884228
S31508007A80B4BF4320442002F095FC01980188BC4805
S31508007A90005DF8B1204600F0AAF8012E08BF297843
S31508007AA003D0022E0CBF29882968814267D0019825
S31508007AB00088401E00F069F8BC48065D7888AAF17F
S31508007AC00101891B814201DB002837D1387868BB60
S31508007AD0452046E00291CB4622E002980BEBDB7389
S31508007AE000EB630000F002F905EB0B0015F80B102C
S31508007AF0407801EB0020711E8B4580B207D1BDF896
S31508007B00001001F0FF0100F0FF00ADF80010BDF80D
S31508007B10001088420BF1020018BFC8465FFA80FBC6
S31508007B20B345DADBB8F1000FC1D028E0BDF8021082
S31508007B300020FFF738FE10B34FF0010978888F4907
S31508007B40401C788080B20A5D2946FFF79DFBB0B1DC
S31508007B50654C7B88248885485B1E00F01CF801006C
S31508007B6002D002F027FC0AE0B9F1000F02D0FFF7B5
S31508007B700CFF20B101997888088030187880BDE814
S31508007B80F78F0FF24420FFF7CDB801220DF102015D
S31508007B9080B2FFF75DBB1B1B01220DF1020100EB52
S31508007BA04300FFF776BA70B582B004460025192659
S31508007BB001226946A0B2FFF74BFBBDF80000641C22
S31508007BC048B14FF47F41401A02D0FF3806D007E08B
S31508007BD0681C40B276BDAD1C761EE9D168B276BD8A
S31508007BE0BDF80000C0B200B96D1CE843F1E738B52E
S31508007BF00C460021009161490D5C2A4621466846DB
S31508007C00FFF76BFB681C00EBD07004EB600080B2DA
S31508007C10FFF7C9FF002848BFC043009940B2401883
S31508007C2032BDF0B55E4909880446564883B02546F4
S31508007C3030F815608C4202D25148405D18B940F2BE
S31508007C403D71FFF79EFF4D48455D681C00EBD070FF
S31508007C5006EB6007B8B2FFF7A6FF322814D2BFB208
S31508007C60C10707EB6000204F404B3F884CBF0021FF
S31508007C704FF47F41ADF80410C01B012201A903EBA4
S31508007C804000FFF706FA60B131462046FFF7AFFF1E
S31508007C9000902B46401C00907F2269462046FFF73D
S31508007CA0B4FEF7BD70B53948017882B00024C1B971
S31508007CB04078002814BF36480B48058832480678AD
S31508007CC00BE0F6B2701900F011F8BDF800000028B4
S31508007CD01EBF4FF6FF718842641C3046461E0028B8
S31508007CE0EFD1E0B276BD00000C46030801226946D2
S31508007CF080B2FFF7ADBAF8B5244C207800270028E3
S31508007D0032D11C480588607800281ABF20480688A2
S31508007D102E461D4807783846471E02281DDBFFB247
S31508007D20B819FFF7E3FFBDF800000028F3D01B4899
S31508007D30008807FB006000F03FF80020ADF800005F
S31508007D40BB190A485B1B0122694600F039F8010095
S31508007D5018BF02F02FFB3846F2BD3046FFF7E2FAAD
S31508007D60F8B208B901202070F8B2F2BD00E00708A1
S31508007D7090FB00200C460308E4460308BC460308AB
S31508007D809446030870F900200846030814FF0020EB
S31508007D90104603080E460308124603080A46030857
S31508007DA01646030844460308184603081C460308F3
S31508007DB0C44903081446030880B2FFF7B3BA01A9F9
S31508007DC000EB4300FFF765B973696D2D6565707241
S31508007DD06F6D2D696E7465726E616C2E630000009E
S31508007DE042484068704710B5404CA078E17800F0EA
S31508007DF0010001F0010108436168C90319D4C0B143
S31508007E00E06848B1E078000706D5E16808208847A9
S31508007E10E07800F0F700E070A06870B1A07800077D
S31508007E200BD5A16808208847A07800F0F700A07055
S31508007E3003E0607808B100206070BDE810404DE0AE
S31508007E402DE9F04104460D46FEF754FF274F8046BC
S31508007E5038780126A8B120000BD1B87800281CBFB5
S31508007E60B868002805D0B878400602D5B968402019
S31508007E708847BD60B878A0421CBFBC70FFF7B3FF47
S31508007E80002620E02DE9F04104460D46FEF732FFB4
S31508007E90164F804638780126A8B120000BD1F8780D
S31508007EA000281CBFF868002805D0F878400602D5D7
S31508007EB0F96840208847FD60F878A0421CBFFC702E
S31508007EC0FFF791FF00264046FEF726FF3046BDE83D
S31508007ED0F081064800787047704700BF034801786C
S31508007EE0002141700020FDF7AFBD0000B4C6002098
S31508007EF02DE9F84305460E463000144605D1FDF730
S31508007F001BFD2018C0F313004DE02F46022F0FF279
S31508007F10501803DB40214046FEF704FF102C05D21B
S31508007F202846B047BDE8F143FDF706BDDFF82091C6
S31508007F3059F8270018B148214046FEF7F3FEB4F574
S31508007F40002F03D349214046FEF7ECFE49F8276087
S31508007F50404F414E95B9FEF7CDFE0546FDF7ECFCC0
S31508007F602418A0B27860200C3860022030602846B9
S31508007F70FEF7D2FE306C40F0020011E0FEF7BAFEC2
S31508007F800546FDF7D9FC2418A0B2F860200CB860A5
S31508007F90042030602846FEF7BFFE306C40F004002F
S31508007FA03064C4F31300BDE8F28370B50446264670
S31508007FB0022E0D4604DB66210FF2A400FEF7B2FE80
S31508007FC0FEF798FE224951F82620AA4210D100222F
S31508007FD041F82620002C20490A6C04D122F002021E
S31508007FE00A64022203E022F004020A6404220A60F8
S31508007FF0BDE87040FEF790BE70B5174C144E206869
S31508008000216C01EA0005ADB2A80709D5206C20F05D
S31508008010020020643168080002D0002030608847DA
S3150800802068070AD5206C20F00400206471680800EF
S3150800803003D00020706001208847256070BD02F0DB
S31508008040F9BA010008BF01200201044900204FE7E0
S31508008050C4FD00204020004008A000403F800008E2
S3150800806073796D626F6C2D74696D65722E6300008D
S315080080707047012070470020704700207047002095
S315080080807047002070477047F8B50F4D2E680400FA
S3150800809001D1FF20F2BDFEF72DFE0C4F29683A7874
S315080080A021F8124036F8021BA142FBD1FEF734FE36
S315080080B029683A78B01E401A4010C1B2914208BFEA
S315080080C0FF20C0B2F2BD00BFC4BD00206BC00020B7
S315080080D02DE9F047DFF8DC45DFF8DC552068DFF8E6
S315080080E0DCA5DFF8DC85DFF8DC95E8612862002688
S315080080F026E02068F6B24821714347184822002135
S315080081003846FEF754FF98F800003870761C0020B1
S31508008110387378730B20B8730320F8734FF6FE7024
S3150800812038824FF6FF70788200F0CBFD387600F083
S31508008130C8FD787600F0C5FDB8769AF80000F8769E
S31508008140F0B299F800108842D3D3281DBDE8F0474D
S315080081500222FF21FEF72BBF2DE9F041DFF8685513
S315080081600FF28458044695F9000010F1010F03DA5E
S3150800817052214046FEF7D6FDDFF8487539788C421D
S31508008180264605D3FE2E03D054214046FEF7CAFDE7
S315080081902878DFF82415401C287040B20844047477
S315080081A038788442DFF80C05006828BF0E78482224
S315080081B072431044C861BDE8F08110B5DFF8084580
S315080081C094F90000002802D5652100F0A3F820786C
S315080081D0DFF8E414401E207040B2DFF8E8440A785D
S315080081E0247800284EBF10460818007CA04238BFE5
S315080081F00246DFF8C004006848235A431044C861A1
S3150800820010BD10B50020DFF8B01400E0401C00F0E7
S315080082107BF80AD2DFF89C34C0B21B68CA694824C6
S31508008220444323449A42F1D110BD7E2168E0DFF829
S31508008230980490F9000010F1010F01D10120704750
S3150800824000207047FE2087E7DFF86C040078704747
S3150800825038B50446FFF7EBFFDFF85C5450B9DFF892
S31508008260680490F900002844007CFE2802D09A2170
S3150800827000F050F8DFF84C1409788C4201D3B1208D
S3150800828032BDDFF830042C70482100686143084489
S31508008290E861002032BD38B5DFF82C04DFF8185441
S315080082A090F900402819007CFE2807D0FFF7BFFF89
S315080082B020B9B62100F02EF8FF2032BD611E00E07D
S315080082C0491E49B2080004D46818007CFE28F7D075
S315080082D032BD287832BD10B50020DFF8DC1300E087
S315080082E0401C00F011F80AD2DFF8C833C0B21B6888
S315080082F00A6A4824444323449A42F1D110BDD52141
S3150800830000F008F8FF2010BDDFF8B8331B78C2B2BA
S315080083109A4270470FF2D030FEF704BD10B5FCF74D
S3150800832081FADFF89443216A897B884203D008469C
S31508008330FCF770FA50B9FCF778FA0146206A90F90A
S315080083400F00814204D0FCF774FA08B1012010BD71
S31508008350206A008AFDF774FF206A408AFDF778FFD5
S31508008360206A007B012818BF0020FDF753FF002074
S3150800837010BDDFF8501310B509788842044602D3B9
S31508008380F721FFF7C7FFDFF84403007808B9702024
S3150800839010BDDFF820030068482161430844DFF870
S315080083A018130862BDE81040B8E7DFF82013087014
S315080083B0704710B5DFF818430020207002F056FA0F
S315080083C020B92046BDE8104002F0B0BA00F05FF8C8
S315080083D0DFF8F01209788842044609D2FFF7BCFE96
S315080083E002F0A0FC08B102F02AFDFFF7E6FE05E060
S315080083F0FFF707FF044600F00EF818B12046BDE85F
S315080084001040B6E710BDAC48006A008A7047AA4813
S31508008410006A408A7047A7490968482250430844B9
S31508008420407B02281CBF1128432801D10120704730
S31508008430002070479F490968482250430844007B3A
S31508008440012818BF022804D003281CBF06280728BD
S3150800845001D1012070470020704710B5002400E0C4
S31508008460641C00F028F810D2FFF7D5FF0028F7D0D3
S315080084709048E4B20068482161430844007B01281B
S3150800848018BF0228ECD1204610BDFF2010BD10B53C
S31508008490002400E0641C00F00EF80AD2FFF7CAFFB9
S315080084A00028F7D0E0B2FFF7B6FF0028F2D0E0B216
S315080084B010BDFF2010BD83490978E0B28842704795
S315080084C070B5002400257F4E08E0FFF745FE02F050
S315080084D0FEFB00B10124FFF770FE6D1C3178E8B28F
S315080084E08842F2D3204670BD80B5FFF7D0FFFF283B
S315080084F001D0012002BD002002BD38B5754C0546E5
S3150800850020680321A94088432060FFF77AFE216886
S31508008510A8400843206031BD6E490968C14001F092
S315080085200300704738B500F01AF82946204602F0CD
S315080085309DFE11E010B50446FE20FFF70DFE20460D
S3150800854003F028F8BDE8104037E638B500F007F81C
S315080085502946204602F097FEBDE831402DE604463E
S315080085600D46FE20F8E538B5FFF74BFE554A524B47
S315080085701278002100E0491CCCB294420ED29C78B5
S31508008580C9B20C1994FBF2F502FB1544E4B21C447B
S315080085902579854202D0FF2DEDD1207131BD70B508
S315080085A0454C484EA0783178204405798D4203D34E
S315080085B04FF4F571FFF7AEFEA0782218FF2111716E
S315080085C0401C317890FBF1F201FB1200A07028469E
S315080085D070BD3948817808440079FF2801D0012008
S315080085E070470020704710B5FFF77EFF78B1324C10
S315080085F0E069007B001F022809D21420FFF77DFFDF
S3150800860004F10800BDE81040642102F099B9BDE8FC
S31508008610104003F06AB900002DE9F8438146FFF7D8
S31508008620F0FDB9F1070F0FF2C0082B4C224F2B4D66
S315080086302B4E35D8DFE809F0040B0B1C1C1C3B3B02
S31508008640F86900F128010020086088602FE0FFF72C
S315080086504BFF20B140F221214046FEF763FBF86943
S31508008660316840F8281F21688160297801711EE069
S315080086702A783568F9690E2303FB02F63544434325
S315080086802B4441F8283F236803EB8202154B1B78DD
S3150800869002EB830202EB800088600120087106E085
S315080086A04046BDE8F44340F23721FEF73BBBBDE840
S315080086B0F1830000D8BD002024FB002079C00020EB
S315080086C078C000206EC0002091C0002090C0002015
S315080086D048FB002050FB0020E0BD00206FC00020B2
S315080086E0DCBD00206BC00020656D6265722D6D755E
S315080086F06C74692D6E6574776F726B2E630000005B
S3150800870001224FF48061824803F0DABA38B504468C
S315080087100D46012003F00EFB7E48002D12BF0021F6
S315080087200178491C017002F0BFF87B4D98B920000A
S3150800873003D0FFF755FB002808D5FFF751FB400586
S315080087404CBF032001200021FFF77AFB6C70102034
S31508008750FFF7D6FF22E001280DD100206870FFF749
S315080087603FFB40054CBF022000206C4940F0110039
S31508008770FFF766FB12E002280BD100210020FFF765
S315080087805FFB00212020FFF7E0FE8D2003F05DF956
S3150800879004E075210FF2B010FEF7C4FABDE83240C6
S315080087A0002003F0C7BA80B5FDF7C5FCBDE8024056
S315080087B0312003F04AB938B50446402C154606D18F
S315080087C0FFF70EFB00F08020B0F1004F03D0002128
S315080087D00020FFF735FB002C49D0402C27D0882CE9
S315080087E018BF892C4AD08C2C4AD08D2C33D08F2C8C
S315080087F04ED14B48007804280FD155B1494902207B
S3150800880008704AF26002BDE8384047490020FFF781
S315080088106FBBFDF790FC312036E0012001F0C0FD6A
S31508008820FDF789FC002D0CBF312000202CE0FDF758
S3150800883082FC03F086FA37483C4900780978884272
S3150800884004D2BDE83440002101205FE7002001F092
S31508008850A7FD402018E003F035FA002001F0A0FD3E
S31508008860FDF769FC00212020FFF76FFE0BE00120D1
S3150800887001F096FDFDF75FFC002005E0FDF75BFCC7
S31508008880002001F08DFD8D20BDE8324003F0DDB8F3
S31508008890BDE83440E22153E022480078022800D09F
S315080088A0704780B522480078042807D00C2810D1D4
S315080088B020480078022818BF7C280AD11A490020C7
S315080088C0FFF773FBFDF737FCBDE80240002003F015
S315080088D0BCB801BD38B5FEF70DFA05461148007853
S315080088E0002410B9FDF793F804462846FEF714FA53
S315080088F01CB1BDE8314001F05BBD31BD80B5FFF765
S31508008900E9FFBDE804404FF4A0510B4802F018B83F
S315080089101CFF0020E7FF002004C000200187000894
S3150800892059C00020A8FC0020A7870008A7C000207F
S31508008930DFFF0020E0FF0020A8FD002040F2131111
S315080089400FF20400FEF7EEB96D61632D7068792E9B
S315080089506300000070B504460D461646FDF740FC58
S3150800896038B16078002E14BF40F0200000F0DF0018
S3150800897060702946204603F0E0FAFF2823D0984C79
S31508008980984D0146201D03F0FDFC2888401C2880D0
S3150800899080B2218881420AD26888401C6880201DDE
S315080089A003F005FD03F046FA2888401E2880208833
S315080089B029888842F3D38C48007802F0AFF8BDE8DE
S315080089C0704002F068BC70BD2DE9F04FA5B0824634
S315080089D0FEF790F9834C2188491E21800027FEF76F
S315080089E09BF9504603F0B0F990F8009081784078EA
S315080089F0009700EB01201FFA80F800F0D3F8A0F1E9
S31508008A0008020823D2B2514602A803F0B2FA02AD10
S31508008A10687800F00F00FFF79FFB74480078F8B1FC
S31508008A20606800281BD0E878FDF799F84946FDF7F5
S31508008A309DF807460020009009F1010395F90250B8
S31508008A40DBB20022514604A803F093FAFFF7FAFBBB
S31508008A5063682A46394604A89847FFF7AEFB97E0AD
S31508008A6008F0070002282DD0FF208DF80400504694
S31508008A7003F06AF900F1010B584603F049FD044674
S31508008A80A9EB0400861E76B2002E1BD45FEA885036
S31508008A9003D508F00700032810D101A9584603F0AA
S31508008AA0D3FE002875D108F0070001280BD19DF8E0
S31508008AB004000BEB040105F019FA20B99DF804002F
S31508008AC003F0B8F965E04A499DF8040009680F5CA7
S31508008AD04849096801F800A000F064F800F120018F
S31508008AE09DF80400C9B203F035F99DF8040003F0B7
S31508008AF0D9FC00F00C0004281CBFA619002470B28B
S31508008B0080B20090631C9DF804009BB25246394619
S31508008B1003F004FCF1199DF80400C9B203F0DAFA6F
S31508008B2035496878097800F00F00884204DBD121BE
S31508008B300FF2CC00FEF7F6F89DF8040003F0ADFC42
S31508008B406978C0F30D0040EA81319DF8040089B2C6
S31508008B5003F0A5FCE878FDF702F84946FDF706F8A4
S31508008B6002469DF80400032103F076FCAA789DF8D6
S31508008B700400042103F070FC9DF808209DF8040009
S31508008B80052103F069FC9DF804A0504602F0B9FFE0
S31508008B900127504603F04EF9FFF70FFB384625B07C
S31508008BA0BDE8F08F1248006810F80A00704710B543
S31508008BB00C4C6188080005D0C9B21D20FFF7C5FC1A
S31508008BC0002060800D4803F0F2FBFF2803D0FFF772
S31508008BD0FBFE0028F6D010BD084803F00FBC0000C5
S31508008BE01CC0002034FD0020C3FF00209DFC00208F
S31508008BF0B4BD0020BCBD00206EC0002020C00020EF
S31508008C006D61632D726563656976652E6300000084
S31508008C100268174912BACA60426812BA8A6082683C
S31508008C2012BA4A60C06800BA08607047704710B543
S31508008C30104980220A6006230F4A136007230B6037
S31508008C4013689B07FCD5002350F823405B1C24BA05
S31508008C50042B8C62F8D313685B07FCD500220B6BD8
S31508008C601BBA40F82230521C042AF8D310BD000063
S31508008C70383000400030004010A0004010B50446CF
S31508008C800846FFF7C5FF2046BDE81040CFE7002895
S31508008C9048BF40427047000001468AB20AB94BF6FF
S31508008CA0EF610F4A000C08BF4FF6CE2011805080A6
S31508008CB070470288130448BF4A4051000180104695
S31508008CC0704738B5064C62212046FFF7F2FF054685
S31508008CD041F20B01A01CFFF7ECFF684032BD000013
S31508008CE02CC00020EFF3118060288041C043C00FDC
S31508008CF070470000002181F311887047012100F0B8
S31508008D001F029140DFF83825400942F820107047C5
S31508008D102DE9F04FDFF8304591B0616810910728CA
S31508008D2008BF032006D0082808BF022002D005285D
S31508008D3008BF0420DFF8145529686A6841EA022149
S31508008D40AA6841EA024100916968490703D5E169C1
S31508008D5041F00201E1612968490703D5E16941F05B
S31508008D600401E1610099EA69D140C90703D5E169BF
S31508008D7041F00801E161401EDFF8C864DFF8D074ED
S31508008D8000210328316000F22A82DFE810F0000291
S31508008D9006001B000400616014E0386CC00703D5A8
S31508008DA0E06940F04000E061386C400703D5E069AF
S31508008DB040F02000E061386C800703D5E06940F098
S31508008DC01000E061FDF796FFFBF7EAFA8DF83C0024
S31508008DD00120DFF88014DFF880A4C1F58031090B83
S31508008DE000FA01F1491ECAF838104FF00009090ABD
S31508008DF007D1DFF86814097819B1616C41F02001D0
S31508008E006164396CDFF85884DFF858240E91796C60
S31508008E100D91D8F84C100C91D8F850100B91D8F841
S31508008E2054100A91D8F858100991DAF800100891E8
S31508008E30DAF804100791DAF814100691DAF8241013
S31508008E400591DAF834100491DFF81C1409681268E1
S31508008E50039202222260DFF8142412688DF8042097
S31508008E60DFF80C2412688DF80520DFF8082412684C
S31508008E708DF806204FF0FF326262DFF8C4231368CC
S31508008E80DB040AD56B68DB0707D5E369DB0704D57E
S31508008E90336843F480738146336013689B040AD5AC
S31508008EA06B685B0607D5E369DB0704D5336843F4CB
S31508008EB080438146336013685B0412D5009BD5F85E
S31508008EC018C023FA0CF3DB070BD5E369DB0708D5D3
S31508008ED03368D5F818C000FA0CFC4CEA030381463F
S31508008EE0336013681B0414D5009BD5F81CC023FAFD
S31508008EF00CF3DB070DD5E369DB0702D4E3691B072F
S31508008F0007D53368D5F81CC0814600FA0CF018431B
S31508008F1030601068C00308D5E069000605D5F0780A
S31508008F2040F008004FF00109F07000206A68D20787
S31508008F306A6848BF4FF480505206009AAB6948BF2A
S31508008F4040F40050DA40D207009AEB6948BF40F473
S31508008F508040DA40D207E26948BF40F40040D206B2
S31508008F6005D4E269920602D4E269520601D540F0B8
S31508008F701000E269120648BF40F4803008400290AB
S31508008F80A520FBF704FA0120E063E069A16B11B1A3
S31508008F90616A0142FAD0616A014200F0C980002084
S31508008FA0E063F07840F04000F07000F0E5FE0498C9
S31508008FB0CAF83400072038600F20C8F8000005F00A
S31508008FC019F81098A84960600E9838640D98786466
S31508008FD00C98C8F84C000B98C8F850000A98C8F8BE
S31508008FE054000998C8F858000898CAF80000079865
S31508008FF0CAF804000698CAF814000598CAF82400A6
S31508009000029808609749039808604FF0FF309A491C
S3150800901008609648006830709548006870709548F2
S315080090200068B070606AE169EA69336808400199C6
S315080090304B4000990B400106490E01F0010143EA35
S3150800904081230106890E01F0010143EA8103010625
S31508009050C90E01F0010101FA02F200051A4300F0F7
S315080090607C5010433060FDF745FE00F087FE002077
S3150800907020609DF83C0008B1FBF77CF9F0787A4946
S315080090800968C90304D5C0F3C00109B120212162CA
S31508009090396C890703D5C10744BF0221F960396CC9
S315080090A0490704D5C0F3400109B10421F960396CB8
S315080090B0C90704D5C0F3800008B10120F860D8F8C4
S315080090C04C0010F0E00F05D03068C00544BF0C20F6
S315080090D0FFF714FED8F8500010F0E00F05D03068FE
S315080090E0400444BF0D20FFF709FED8F8540010F0DD
S315080090F0E00F07D03068A969C840C00744BF0E20F2
S31508009100FFF7FCFDD8F8580010F0E00F07D03068DC
S31508009110E969C840C00744BF0F20FFF7EFFDF078A4
S3150800912040F08000F07011B0BDE8F04FFFF7E2BDE7
S31508009130B9F1000F7FF435AFDAF818004949DFF8BE
S315080091403CB140084000CAF818004648806840F01C
S315080091500400886040F20721BBF80000884202BF7D
S31508009160BBF802004FF20F01884205D14CF23C30A1
S31508009170ABF802004FF00109012004F075FFB9F1C0
S31508009180000F03D04FF20F00ABF802000FE7FBF712
S3150800919007F90446A520FBF7FAF800F0EDFDFFF7FE
S315080091A0A9FD374D374F2E682868400840002860CB
S315080091B0FDF7AAFDD7F80080386820F0400038602F
S315080091C0FDF79EFDC7F800802E60FDF79DFD0CB1EA
S315080091D0FBF7D0F811B0BDE8F04F00F0CFBD11B0E5
S315080091E0BDE8F04F40F254410FF2A400FDF79ABDD6
S315080091F011F1010F154A08D001F0FF031360C1F3FE
S3150800920007235360C1F30741916000231E490B6091
S315080092101368002B04BF5368002B01D192681AB15A
S315080092200A6842F001020A600A6842F400720A609B
S315080092300A6842F080020A606AE51449D8E7000025
S3150800924000E200E044FA00200400004008BC0040A8
S3150800925014A00040000000000440004098070808D9
S3150800926014A8004008ED00E000E100E008B0004066
S3150800927008B2004008B4004080E200E00000002088
S3150800928094ED00E0008000402000004000404000CF
S31508009290736C6565702E63000348018803480823CC
S315080092A07F22FBF7B9BF00BF9A4A030880FB00205C
S315080092B02DE9F0414B4C4C4EDFF8308100202065FB
S315080092C04FF40055356002202060E56000202065D7
S315080092D04FF48047206D40F0600020650E2000F0B6
S315080092E027F888F8000000206065376004202060B1
S315080092F0E76016203E49086000206065606D40F012
S3150800930060006065162000F013F888F801003948F7
S3150800931005600760BDE8F0810E28344902D016289A
S3150800932002D003E0087870474878704700207047F5
S315080093300E2802D0162802D009E02F4800E02F4850
S315080093400068800900F0010080F0010070470020E5
S31508009350704710B52348254C4FF40051C1600221CF
S3150800936001600E20FFF7E4FF227801468A4218BF03
S3150800937021700DD1501E8041C00F20700E2021781B
S3150800938005F01AFA2178481E8041C00F207021780E
S31508009390BDE810400E2005F00FBA10B51148134C61
S315080093A04FF48041C160042101601620FFF7C0FF19
S315080093B0627801468A4218BF61700DD1501E8041FD
S315080093C0C00F60701620617805F0F6F96178481EBE
S315080093D08041C00F60706178BDE81040162005F026
S315080093E0EBB9000014A8004080E100E09FFF0020D0
S315080093F020BC004000E100E008B2004008B400408C
S3150800940010B50446FDF776FC4849302008604849FF
S31508009410086048490860102047490860200A002863
S31508009420464808BF24024FF20F0104804180BFF36B
S315080094305F8F434800210160416042484249086005
S3150800944010BD42480168C90708D5414A0321117071
S31508009450016C490849000164012101600168090796
S3150800946003D5016C21F008010164704780B500201E
S3150800947000F009F830B9BDE80440FD210FF2E40018
S31508009480FDF750BC01BD2DE9F042324C216842423D
S315080094908D1815F01F0108D0002802D4484205444B
S315080094A003E04842284400F120052B48A5F1200690
S315080094B0A84224BF2948864203D3EFF30880854291
S315080094C001D300202DE0FDF715FC814624480068ED
S315080094D010F0010718BF04F0A4FD206801468D426C
S315080094E006D2A84224BFCD2100F80119F9D206E018
S315080094F02038002201E000F8012B8842FBD32560C2
S31508009500304604F093FDE22001E006F8010BAE4276
S31508009510FBD30FB104F06EFD4846FDF7FDFB20684E
S315080095202038BDE8F0820B480068704730200040BC
S3150800953030C8004030C0004010E000400000002065
S315080095401C4000400400FA050CED00E018A000409D
S31508009550D1FF002010C0002000B30020E810002032
S3150800956094ED00E06D6963726F2D696E7465726EB5
S31508009570616C2E630000000080B5A648002141609A
S3150800958041708170A5210170012000F004FF00F0F0
S3150800959006FF00F01EF8002002BD9F480168C907B3
S315080095A000D4704780B59D490A6822F440620A6073
S315080095B0016849084900016001680902FCD4984815
S315080095C0006810B16420FBF73CFD9649002008604E
S315080095D001BD80B59448016841F0807101600120A1
S315080095E09249086000209249FBF766FD9149924A24
S315080095F0022008600020914908609148914901605D
S3150800960001211160844A9049116040F201410165C7
S315080096104FF480308D49086001BD824800680028F3
S315080096201EBF7F480068002805D07F480068000EE6
S3150800963000F00100704700207047D1220270417087
S31508009640090A817082490A78C270501C0870042081
