S01300006E6F6465746573742D7573622E73333704
S31508004000B0EB0020B54A0108D5430108D943010899
S31508004010A70A090100420008040803AC20599100C8
S315080040200000000000000000000000000000000082
S315080040300000000000000000000000000000000072
S315080040400000000000000000FFFFFFFFFFFFFFFF6A
S31508004050FFFFFFFF00E00708000000000000000067
S31508004060FFFFFFFFFFFFFFFFFF000000000000004B
S315080040700000000000000000000000000000000032
S31508004080F0FF002000000000EEFF0020EEFF0020F9
S31508004090B0EB0020B8740108BC4C010850E20020BF
S311080040A0A40F0020000008080000012002
S31508004200B0EB0020B54A0108D5430108D943010897
S31508004210E1430108DD430108E54301085C44010860
S315080042205C4401085C4401085C4401085C440108DC
S31508004230E94301085C4401085C4401084BAE0008E8
S31508004240552801085C440108F7B800085C440108D1
S31508004250A5B10008E1B700085C4401085C44010800
S31508004260C91B01084DBC000809F20008A5F9000899
S315080042705C440108EBFC000833FD00084FF6000813
S315080042803B5C00085C4401085C440108C54401081D
S3150800429070472DE9F047DFF894580FF29C010FF2AA
S315080042A0945A0FF28058DFF888980446287800F068
S315080042B011FE0027E4A603E000F083F97F1CBFB2D5
S315080042C0206800EB07114A68287813001AD04A4577
S315080042D009D14A69130018BF4A45EFD00A68414612
S315080042E000F0F8FDEAE78B680A68514600F0F2FD2F
S315080042F0206800EB0710C2682878002ADCD00FF285
S315080043003C51EDE70FF2AC0100F0E4FD28780FF21E
S31508004310CC0100F0DFFD28780FF2F00100F0DAFD9D
S3150800432028780FF2141100F0D5FD28783146BDE83B
S31508004330F04700F0CFBD0000434F4D4D414E44209D
S315080043405B504152414D45544552535D205B2D20EB
S315080043504445534352495054494F4E5D0D0A202057
S3150800436077686572653A20623D6275666665722C85
S315080043702073313D696E74385F742C2073323D6941
S315080043806E7431365F742C2075313D75696E7438DC
S315080043905F742C2075323D75696E7431365F742CE6
S315080043A02075343D75696E7433325F740D0A0D0AD3
S315080043B00000000020202120202D20526563616C1A
S315080043C06C73207468652070726576696F757320E2
S315080043D0636F6D6D616E640D0A00000020205B74CA
S315080043E061625D202D20417474656D70747320744C
S315080043F06F2074616220636F6D706C6574652063ED
S315080044006F6D6D616E640D0A00000000202020208B
S315080044102A2A204E4F54453A20616C6C20696E70EA
S3150800442075742076616C7565732061726520696E96
S3150800443020686578210D0A00202020202A2A20439A
S315080044406F6D6D616E647320617265204E4F5420E6
S31508004450636173652073656E7369746976650D0AA1
S3150800446000000000A0F141011A293CBF2030C0B26B
S3150800447070472DE9F84F0546DFF8B816A8680068B2
S315080044800968DFF8A876C0B200240E5C212EA04683
S3150800449007DB38780FF2CC01BDE8F84F202200F090
S315080044A019BD00F047FD8246A14607E01AF8090043
S315080044B0FFF7D8FF0AF8090009F10109B145F5DB4C
S315080044C032460FF2E401504600F0D6FF40B94FF0ED
S315080044D0010805E038780FF2D8015A4600F0FAFCD0
S315080044E0296820010A185268130039D0DFF8409667
S315080044F0641C4A45A4B2F3D151F800B0B8F1000FD4
S31508004500E8D1584600F0CCFFB042E9D132465146D0
S31508004510584600F0A5FF0028E2D1BFA60FF21C38C6
S315080045200FF2940A03E000F04CF8641CA4B2286861
S3150800453000EB041041680A0018BF494510D083688B
S3150800454002683878514600F0C5FC286800EB04106C
S31508004550C2683878002AE6D0414600F0BBFCE4E79A
S31508004560BDE8F18F4572726F723A206C69737420D8
S31508004570617267756D656E7420746F6F206C6F6EEF
S31508004580672C207765206F6E6C7920737570706F55
S31508004590727420757020746F202575206279746591
S315080045A0732E0D0A000000006D6F64756C6573004C
S315080045B025700D0A000000002570202570000000F7
S315080045C02078314600F086BC70B5044688B0A068ED
S315080045D0016801B10121DFF860552970406800B112
S315080045E00120DFF8586530700FF2600001F073F9AA
S315080045F0A068C16801B10121DFF84425117000697E
S3150800460000B10120DFF83C15087008782B78079070
S3150800461004F111010FF25C00069010780FF25C02AB
S3150800462005900FF260000490012003907BA0029091
S31508004630307801900FF2540000900FF2580001F004
S315080046404AF908B070BD00000D0A00005475726E74
S31508004650696E67206F66662074616773206E6F7473
S315080046602079657420737570706F727465640D0AAD
S3150800467000000000746578740000000068656164D5
S315080046806572000064656C696D000000636F6D6D8E
S31508004690616E64007B264E20566572626F7369747C
S315080046A079206F7074696F6E732073657420746FE8
S315080046B03A0D0A2674750D0A2674750D0A26747540
S315080046C00D0A2674750D0A2674757D0D0A000000FC
S315080046D0DFF87414007C51F82020DFF850040FF23C
S315080046E00801007800F0F6BB4349204572726F72E4
S315080046F03A2025700D0A000038B5DFF830442078D6
S3150800470045A500F067FA20780FF2340100F0E2FBC5
S3150800471000F05FFA20780FF24C0100F0DBFB2078FE
S315080047203FA100F0D7FB20780FF2440100F0D2FB3E
S3150800473020780FF24801BDE8344000F0CBBB0000FA
S31508004740456D626572204E6F6465205465737420EA
S315080047504170706C69636174696F6E2076312E30B2
S31508004760000000004D6179203136203230313700A3
S3150800477030333A32333A3230000000000D0A0D0A5F
S31508004780000000002DE9F24F044682B0256BDFF8E1
S315080047909CB39046002705E01FA100F09BFB7F1CF9
S315080047A0BFB210356868A8B3D5F80090DDF808A040
S315080047B000260DE01AF8010BFFF754FE009019F8D1
S315080047C0010BFFF74FFE0099C9B28142E7D1761C6B
S315080047D0B0B24045EED32068D54E00EB07114B68C2
S315080047E00A689BF80000B34204D10FF2380100F0C2
S315080047F071FBD4E78B680FF23C0100F06BFB206875
S3150800480000EB0710C2689BF80000002AC4D00FF21C
S315080048102C01ECE7BDE8F78F0D0A0000746167000C
S315080048202C2000002D2D2D2D202570202D2D2D2DF1
S315080048300D0A00002020257020257000202D202537
S31508004840700D0A002DE9F0439BB00EA80FF2FC216B
S31508004850342201F071F84FF000098DF80190A52077
S3150800486001F0A5F801F004F9012300220F21002028
S3150800487001F072FA050006D0012300220A21002061
S3150800488001F06AFA0546012300220F21012001F0F2
S3150800489063FA060006D0012300220A21012001F04E
S315080048A05BFA0646012300220F21022001F054FA82
S315080048B05FEA000806D0012300220A21022001F03F
S315080048C04BFA804601F04EFC00230022002103200B
S315080048D001F042FA954C85B1002E00F08680B8F1B9
S315080048E0000F00F08A80002800F08A8040F2FB1151
S315080048F00FF28C2001F03CFC05E0002E1CBFB8F13D
S31508004900000F002875D084F80090201D01F062FD84
S31508004910201DFFF7F1FE0FF2782520780FF2782890
S3150800492000F058F920780FF2C42100F0D3FA7CA6DB
S31508004930FFF746FE201D02F037F800F04AF9207806
S315080049400FF2B42100F0C6FAFFF73AFE201D02F076
S3150800495003F900F03EF920780FF2A82100F0BAFA20
S31508004960FFF72EFE201D02F0BEFB00F032F920787C
S315080049700FF29C2100F0AEFAFFF722FE201D02F08E
S31508004980ECFE00F026F920780FF2902100F0A2FA4A
S31508004990FFF716FE201D04F022FB00F01AF9207816
S315080049A00FF2842100F096FAFFF70AFE201D04F0A4
S315080049B039FB00F00EF920780FF2782100F08AFA18
S315080049C0FFF7FEFD201D04F04AFB00F002F92078EF
S315080049D00FF2CC1100F07EFAFFF7F2FD201D05F06C
S315080049E05FFA50A550A601AF44E0B8F1000F18BF12
S315080049F0002808D00120207087E720B10220FAE7B6
S31508004A000320F8E725702078FF28F5D100256946A8
S31508004A10284601F0E1F938B99DF800000D2818BFBD
S31508004A200A2818BF2A28EDD06D1CEDB2042DEEDB3E
S31508004A30E9E78DF800009DF800107A5C481C0A2A00
S31508004A4018BF0D2A18BF002AF3D10D227A548DF803
S31508004A50000001A99DF80020201D01F0C7FC9DF863
S31508004A60002001A90EA800F0B1FC9DF800900020D6
S31508004A708DF8010000F0A9F820780DF10103322223
S31508004A8001A901F0F3F90028D3D000F08CFF01F05A
S31508004A9061F905F0DFFC04F069FE9DF8010020B31A
S31508004AA09DF8011001A8084410F8010C09281CD12A
S31508004AB0FFF786FD9DF80100401E8DF8010001A94B
S31508004AC09DF80120201DFFF75DFE9DF801100020CE
S31508004AD0785400F07AF8002004E000F071F89DF8A8
S31508004AE00000401C00F064F8F7D39DF80400212864
S31508004AF0C2D1FFF765FD4A460EA901A800F066FC7B
S31508004B00A9F101008DF8010000F05FF8002000F01F
S31508004B104FF8B1D200F054F89DF80000401CF6E7B3
S31508004B205D0D0A00256300000D0A0000B0EB0020A9
S31508004B309142000820ED0020BAED0020BBED0020D0
S31508004B40BCED0020BDED002064ED00200D00000046
S31508004B500000000000000000000000000000000047
S31508004B600000000000000000000000000000000037
S31508004B700000000000000000000000000000000027
S31508004B80706C6174666F726D746573742E63000061
S31508004B905B494E49542000000D0A3E2000000000E3
S31508004BA07365745065725465737454780000000018
S31508004BB08DF800009DF801109DF8000088427047A6
S31508004BC03A5C2078294600F085B94146207800F0FD
S31508004BD081B92078294600F07DB980B505F0DEFC5C
S31508004BE0BDE8024000202DE6002070476473555347
S31508004BF0425761726E0000006372617368696E667F
S31508004C006F00000065665553425761726E000000DA
S31508004C10696E6974546F6B656E73000072657365AF
S31508004C2074737472696E6700696E69745261646937
S31508004C306F00000073656564506E726700000000BF
S31508004C4070B51346104402E0A4192C705B1EDCB242
S31508004C504CB101F00F060909451E0A2E2846B4BFB5
S31508004C6030243724F0E7104470BDF0B5002341B175
S31508004C70002806D501232D21B0F1004F117018BF69
S31508004C804042002100240FF2882555F8247000269A
S31508004C9001E0C01B761CB842FBD2F7B20FB90F0071
S31508004CA005D0DBB206F13001D1545B1C0121641C2E
S31508004CB0092CEADBDBB23030D054581CC0B2F0BD48
S31508004CC02DE9F24F80468AB007A80190154603A839
S31508004CD09B4603AE002700248DF800000BE0012454
S31508004CE005460198864205D300F0DCF800284FD126
S31508004CF000F0CEF86D1C9DF800002978301A0A00DD
S31508004D000BD0252903D014B906F8011BE9E7002CB6
S31508004D1014BF00246D1C29780A0000F0AF80B1F199
S31508004D20250216D00B3A092A40F28980283A7DD006
S31508004D300A3A12D0521E41D0521E5FD0083A5DD0B0
S31508004D40121F3ED0D21E3CD0921E57D0D21E6DD016
S31508004D50C7E7252006F8010BC3E7DBF80000029039
S31508004D604FF0000A0BF1040000F1040BD0F8009094
S31508004D70CA45B6D2029810F80A1002223046FFF742
S31508004D805FFF06460198864205D300F08BF8002897
S31508004D907AD100F07DF8A9F1010082453CBF2020B8
S31508004DA006F8010B0198864205D300F07BF8002827
S31508004DB06AD100F06DF80AF1010AD9E75BF8040B2D
S31508004DC0C8E75BF8049B00F067F800285CD100F0A0
S31508004DD05FF84FF0000A01E00AF1010A5FFA8AFA61
S31508004DE019F80A000028F7D19DF8280052464946C6
S31508004DF0C047002848D15744FFB272E76C290AD148
S31508004E006A785BF8040B752A0EBF00210121642A13
S31508004E1007D16D1C05E075295BF8040B0CBF002152
S31508004E2001213246FFF721FF36185AE75BF8041BC3
S31508004E300222C9B23046FFF703FF064651E76A78F1
S31508004E400124782A18BF582AF8D16D1C0024681E38
S31508004E50322904D15BF8040B042281B2EAE734292B
S31508004E607FF43DAF5BF8049B04224FEA19413046B4
S31508004E70FFF7E6FE04221FFA89F1DCE700F00CF8DA
S31508004E8010B9F019C0B200E000200BB0BDE8F08FF1
S31508004E90F719FFB203AE704706469DF82800F2B22E
S31508004EA003A940479DF80000361A9DF82800F2B27B
S31508004EB003A9404713A10DE00CB438B5044604AA6B
S31508004EC000F010F805462046FFF7F4FF284632BCE6
S31508004ED05DF80CFB0CB480B502AA00F003F802BC1E
S31508004EE05DF80CFB10B5084B1B5C0024012B07D1A1
S31508004EF013460A4601460548FFF7E2FE00B90124B3
S31508004F00204610BD0D0A00004C6100082F600008FD
S31508004F1000CA9A3B00E1F5058096980040420F00CA
S31508004F20A086010010270000E803000064000000C6
S31508004F300A000000DFF86414096801EB40107047A6
S31508004F40DFF85C241268115470472DE9F04104001B
S31508004F5035D005F0ABFCDFF84C14DFF84C340E788E
S31508004F60FF228046FE2EDFF844041BD100260E7071
S31508004F70DFF83CC4DFF83C6437781F70002708E088
S31508004F8007F1010E05F807E0DCF80050EA555FFA6C
S31508004F908EF796F800E005687745F1DB05EB0E0617
S31508004FA006F8012C1E78A6420BD2404605F084FC72
S31508004FB0052005F0BBFC00211B2005F03BFDFF206A
S31508004FC01EE0361B1E70DFF8F0330E780F78D3F824
S31508004FD000E001250EF80750641E056815F807E07D
S31508004FE081F800E05FFA84FEBEF1000FEED1EA55C3
S31508004FF000213046FFF7A4FF404605F05DFC304629
S31508005000BDE8F08110B5044605F050FCDFF8A8139A
S3150800501009680A5D521C0A55BDE8104005F04CBCEB
S315080050202DE9F041054600F031F8044605F03EFC4E
S31508005030DFF87023DFF87033DFF87063DFF8788302
S31508005040FF2D1FD0D8F800104F5D7F1E4F557F27C4
S31508005050D8F800E01EF80510394213D13168495DC9
S3150800506000270EF805701F787F1C1F70FF29376808
S3150800507092F800E007F805E0157006BF2546FF24FC
S315080050800D46DDE7BDE8F04105F016BC80B5DFF852
S3150800509028130968095C090603D5FFF74BFF007852
S315080050A002BDFF2002BD70B504460D4605F11F007E
S315080050B00004400D82B0C0B2FFF747FF0646FF2E38
S315080050C00CD02946FFF73CFF3CB1012000902B4647
S315080050D000223146204600F002F8304676BD73B508
S315080050E000F0C0F8405C15461E467119884203DA7E
S315080050F040F2571100F0DBF830000CD0294601A821
S3150800510000F0D9F8024606989DF804100090334638
S31508005110204600F001F873BD2DE9F843089CDFF836
S315080051208C820546894616461F460BE06A5C425441
S31508005130491CB142FADBD8F80000BF1BAD1910F8BC
S3150800514009900026F8B2C8B14846FFF7F3FEFFB249
S315080051508019F1192029B2BF3E46C6F12006F6B2DB
S315080051602100324604D10146284600F02FF9E2E72D
S31508005170012C08BF2946F8D00021DAE7BDE8F183FB
S315080051802DE9F04100F06EF882B0055D17467819F2
S31508005190A84288461E4606DB0ED07919C9B22046B3
S315080051A000F04EF808B1182007E000963B462A465C
S315080051B021464046FFF793FF0020BDE8F68101230C
S315080051C0DEE70A4600E0521C1378002BFBD1521A80
S315080051D00223D2B2D4E7F8B5044601F11F00C5048C
S315080051E002F11F00C0042D0E000E05B9012500B9F5
S315080051F00120854222D0DFF8B46110DA401BC0B224
S31508005200FFF7A3FE0746FF2F01D10020F2BD691E56
S31508005210C9B2204600F02BF831680F540EE08A42D6
S315080052200CD2411EC9B2204600F021F80446306867
S31508005230005DFFF7F5FE3168FF2008550120F2BD35
S3150800524038B500F00FF80D46015D2A462046FFF7EF
S31508005250C2FF28B129462046FFF772FE002032BD5C
S31508005260182032BD0446DFF838010068704704E0AC
S31508005270DFF838211268105C491ECAB2002AF7D135
S31508005280704711B50C46DFF81811096881B0095C3A
S315080052908C4203D340F2E31100F009F8214601A835
S315080052A000F009F8044600F060F8204416BD0FF235
S315080052B00C1000F05DBF38B504460D46E9042078A9
S315080052C0090EFFF7D4FF207005F01F0032BD80B528
S315080052D0FFF7D7FF007802BD10B51446FFF7D1FFD8
S315080052E0047010BD70B500F00AF8064600F004F820
S315080052F000EB062080B270BD29462046E7E70D463A
S31508005300691C0446C9B2E2E72DE9FC4405B40A9CC7
S3150800531020001F4627D089B26846FFF7CCFF06460D
S31508005320B9B201A8FFF7C7FF0746BE42A8BF304675
S31508005330A4B2C0F120002546C0B2A842B8BF0546AF
S3150800534000F013F882469DF80000FFF7F3FD2A46A1
S315080053500AEB0701304400F039F8641BA919EF1964
S31508005360A0B20028D7D1BDE8FF849DF80400E1E586
S3150800537070B504460D4605F099FA0D4B21781B6861
S31508005380FF2908BF5D5503D019440E785E550D7088
S315080053902570BDE8704005F08FBA00001CED0020AE
S315080053A020ED0020CAED0020C6ED002028ED0020E3
S315080053B02CED0020C5ED002024ED00207061636B04
S315080053C065742D6275666665722E6300814233D2F6
S315080053D010441144401E491E10E011F8013900F826
S315080053E00139121F11F8013900F8013911F801398C
S315080053F000F8013911F8013900F8013992B2042A86
S31508005400EBDA93B2002B1EBF11F8013900F8013907
S31508005410521EF6D1704711F8013B00F8013B121FE6
S3150800542011F8013B00F8013B11F8013B00F8013B7C
S3150800543011F8013B00F8013B92B2042AEBDA93B269
S31508005440002B1EBF11F8013B00F8013B521EF6D196
S315080054507047130003D00A46194605F0EFBA70479D
S3150800546010B500E0521E93B223B100F012F8F9D03D
S31508005470181B10BD002010BD10B500E0521E93B2D7
S315080054802BB100F006F8F9D0181B40B210BD002069
S3150800549010BD10F8013B11F8014BA34270470000FC
S315080054A000F10103810704D010F8011B89B18107B7
S315080054B0FAD10268B2F10131914311F0803F04BF7D
S315080054C050F8042FF6E710F8011B11B110F8011B6C
S315080054D0FBE7C01A7047000038B50446611D206A0C
S315080054E02368451A2079EAB2984708B1002032BDE8
S315080054F000F018F8601D2062012032BD38B5044658
S31508005500002500E06D1CEDB2485D0028FAD120792F
S3150800551023682A46984718B900F004F8012032BDD6
S31508005520002032BD94F82900281884F8290070470D
S315080055302DE9F04F804608F1200785B008F10500EF
S3150800554038600E4608F1150078609146002078729A
S31508005550DFF8B44313E018B108F1050038601646C1
S3150800556025B17D2000F0A0F901F8010D38687968A9
S31508005570884203D300F096F9002862D0761C30786A
S31508005580010000F075812528617818BF262809D002
S315080055907B281CBF7D28232802D10029E6D0E1E715
S315080055A0A178FAE716F8012F252A18BF262A04D16A
S315080055B000F07AF901F8012DD8E726280BD151B168
S315080055C001256E2A18BF4E2A06D000F06DF97B20F9
S315080055D001F8010D00E00025317800204E2906D09B
S315080055E0542923D06E2902D074291FD032E020789E
S315080055F059F804BB0028B9D035B138687B21017049
S31508005600811C39602821417000F04CF9002818D017
S3150800561000F03BF9002814D0002DA7D038682921BE
S315080056200170811C39607D2141709FE700F038F9CF
S31508005630002806D000F029F9002802D000F032F937
S31508005640002800F07C8000F02FF93A2001F8010DBF
S31508005650761C0120317896F801E0A1F13002D2B229
S31508005660911E05293CD2BEF1640F18BFBEF1750F15
S3150800567036D159F804CB002301211FFA8CFCBEF160
S31508005680640FE24609D15FEA0C4E06D56FEA0C0CA8
S315080056900CF1010C01231FFA8CFCBCF1000F0AD097
S315080056A04FF00A0E9CFBFEFC5B1C1FFA8CFCBCF13F
S315080056B0000FF5D10BE05B1C09E0D7F800E00EF10E
S315080056C0010EC7F800E04FF0200C0EF801CD9C46FD
S315080056D00CF101035FFA8CFC9445EEDB761C00E0C6
S315080056E000213378721E002B00F0BE80322B18BFC3
S315080056F0342B00F09580482B06D0582B0FD0632BFF
S315080057000FD0642B1FD0682B00F07F806C2B52D0F3
S31508005710702B18BF732B0BD0752B14D0782B76D023
S3150800572019E73868411C396059F8041B017017E7F6
S3150800573000F0B6F818B100F0A8F80028F7D1002054
S3150800574005B0BDE8F08F002919BF1FFA8AFA51463D
S3150800575059F8041B89B229B900F0A6F8302001F8D7
S31508005760010DFDE60020642B0DD10A040BD53B681C
S315080057705B1C3B602D22B1F5004F03F8012D02D0CA
S31508005780494289B259B10A2291FBF2F20A23C0B200
S3150800579003FB12110DF80010401C91B2F2E7014606
S315080057A0481EC9B20029DCD0C0B23A681DF80010FC
S315080057B000F065F8F3E759F8041B0029CCD000205F
S315080057C000290AD53B685B1C3B602D22B1F1004FCE
S315080057D003F8012D01D0494259B10A22B1FBF2F270
S315080057E00A2303FB121102ABC0B21954401C11461E
S315080057F0F2E70146481EC9B2002910D002A9C0B274
S315080058003A68095C00F03BF8F3E700F041F8022239
S3150800581059F8041B3868C9B2FFF712FA38609FE6D0
S3150800582016F8010F682818BF48280BD100F030F881
S3150800583016F8011C386832290AD159F8041B0422C3
S3150800584089B2E9E7782818BF5828F1D0761E87E686
S3150800585059F804BB04224FEA1B41FFF7F1F93860F7
S3150800586004221FFA8BF1D7E701007FF474AE76E6BF
S3150800587000F018F800283FF462AF787A60E7521C07
S315080058803A60303102F8011D70475946404635E600
S31508005890386830210170811C396078214170704761
S315080058A059F804BB404617E63968491C3960704701
S315080058B00EB410B5154909788BB0002409B9002033
S315080058C008E000F019F801466846FFF731FE00B90E
S315080058D0012420460CE00EB410B58BB000F00CF88D
S315080058E0002401466846FFF723FE00B90124204636
S315080058F00BB010BC5DF810FB054900910DAA0549CF
S3150800590009788DF804107047BBED0020BAED002029
S315080059102F600008B0EB002062B38B0708D0521E38
S3150800592011F8013B00F8013B00F024808B07F6D103
S31508005930830740F0208000BF103A07D330B4B1E89F
S315080059403810103AA0E83810F9D230BC530724BFF3
S31508005950B1E80810A0E8081044BF51F8043B40F825
S31508005960043BD20724BF31F8022B20F8022B44BF90
S315080059700B7803707047083A07D3B1E80810083A5D
S3150800598040F8043B40F804CBF7D25307E4E700009D
S3150800599005F03FB92C48012181604EF6BE214160D1
S315080059A00121016070472949012008607047A52830
S315080059B005D125484DF6AD61416002210160704769
S315080059C02148006810F0010018BF0120704700F058
S315080059D007011F4AC00802EB40200122806807E041
S315080059E000F007011A4AC00802EB40200122C068ED
S315080059F08A401040C840704780B51649164A10209C
S31508005A00086016491648007803000BD003280CBF17
S31508005A1000200120106040F651000860002005F0C3
S31508005A2071FB06E0022010604FF40060086005F084
S31508005A30B6F80C48072101600021016410200A49C4
S31508005A400860002002BD00000060004008600040B9
S31508005A5000B0004080E100E0080000400C60004013
S31508005A60CDFF002014A0004000E100E07047704719
S31508005A7080B5A6480021416041708170A52101705A
S31508005A80012004F01DFF04F04CFF00F01EF8002072
S31508005A9002BD9F480168C90700D4704780B59D4973
S31508005AA00A6822F440620A600168490849000160F0
S31508005AB001680902FCD49848006810B1642005F012
S31508005AC012FB96490020086001BD80B5944801681C
S31508005AD041F08071016001209249086000209249D6
S31508005AE005F01EFB9149924A022008600020914960
S31508005AF0086091489149016001211160844A9049E2
S31508005B00116040F2014101654FF480308D4908600B
S31508005B1001BD8248006800281EBF7F48006800282B
S31508005B2005D07F480068000E00F00100704700208D
S31508005B307047D12202704170090A817082490A7839
S31508005B40C270501C0870042070472DE9F14F82B0CE
S31508005B50DFF8F88100900026D8F800000099405C2C
S31508005B60451D05F00FFBEDB201904FF6FF7A19E0DF
S31508005B70B11E9DF80800C9B2FFF7A9FB07465146B2
S31508005B8005F022FB82465E46FFB24FEAC90007FAD5
S31508005B9000F0044309F10109B9F1040F17DB4FF0CE
S31508005BA060400460FFF7B5FFF6B298B3AE4231DA4B
S31508005BB005F0E8FA0199401A80B2B0F5FA7F29DCB7
S31508005BC04FF0604000680128ECD10024A146F0B2ED
S31508005BD010B95B270126D7E706F1010B0128F6B2B3
S31508005BE004D1D8F800000099475CCCE7E91E884242
S31508005BF008BF5746C7D0A91E884208BF4FEA1A27CA
S31508005C00C1D0691E884208BF5D27BCD0A842AFD163
S31508005C100027B9E74FF4C87005F065FAAE420CBF25
S31508005C2000200120BDE8FE8F48490968095C04295F
S31508005C30A8BFFFF78ABF012070472DE9F04D334D05
S31508005C406E78300060D005F09DFA83463146002014
S31508005C50FFF729FA0446FF2CA04602D100206870F7
S31508005C6052E0202EB4BF37462027FFF763F9686055
S31508005C70AF70DFF8DCA004E04046FFF75BF9686028
S31508005C80AF706878C8B105F07DFAA0EB0B0080B25A
S31508005C90B0F5FA7F11DCA8780028F2D1F61BF0B22D
S31508005CA000286E70EDD0DAF8000010F80880F6B219
S31508005CB0202EB4BF37462027DEE7F6B2002E04BFF3
S31508005CC06878002818D1A878B0B920480068005D1F
S31508005CD0851EE9B22046FFF705FB122808D1E9B26E
S31508005CE02046FFF7ADFA2146122005F04BFB06E0E9
S31508005CF0204605F091FA02E000206870A870204658
S31508005D00BDE8F04DFFF78CB9BDE8F08DF0FF002037
S31508005D10800E00E0001000E034000040100004E0AF
S31508005D20FCED00E0040004E020A10700F00004E018
S31508005D30000E00E0040304E0B00F00E055CEACC549
S31508005D400D00010000E100E0D1FF002020ED002059
S31508005D5028ED0020704700002DE9F04704468846E4
S31508005D6091469A4600F0E3F9002801BF25460FF24E
S31508005D70DC30405D012821D1DFF8A46356F8257090
S31508005D8004F094FD0021B9803980798004F094FDEF
S31508005D9006EB8500066904F089FD0021B180318093
S31508005DA07180DFF88023515504F086FD53464A4634
S31508005DB041462046BDE8F04705F056BB2120BDE820
S31508005DC0F08710B5044605F0CDFCDFF8540300EB68
S31508005DD084000069808810BD2DE9F84381464C4649
S31508005DE0DFF83C0300EB840088460669484600F065
S31508005DF09EF908B1012037E0DFF82853285D05EB46
S31508005E00440760B1B8887188884208D104F04EFD0D
S31508005E102E5D0021295504F04FFD304624E0484602
S31508005E2005F0A0FCB088F0B104F040FD71880FF2CF
S31508005E3028323144897988F800104FF6FF7871883E
S31508005E4032F8142000F0EDF87180B1884144B18031
S31508005E5004F032FD285D20B1B888404504BF30887B
S31508005E60B880002000E02620BDE8F283F8B51F467A
S31508005E70044638780D460100164601D0B04208D3CC
S31508005E800020287005E03878411C39709DF800100C
S31508005E90295469462046FFF79FFF010056D19DF811
S31508005EA000008028F5DA39780A0003D10A2818BFD5
S31508005EB00028EED0B14207D3002038709DF80000C4
S31508005EC00D2818BF0028E4D09DF80000082818BF40
S31508005ED07F280CD138780100DBD0401E38700021AD
S31508005EE0C0B229548DA1204600F057F8D1E738787A
S31508005EF0801C8642BCBF0D208DF800009DF800105E
S31508005F00204600F038F89DF8000061381A2804D2B7
S31508005F109DF8000020388DF800009DF800000D2837
S31508005F2018BF0A28AFD13978002068549DF80000B8
S31508005F300D2805D10A21204600F01DF8002603E0A9
S31508005F400D21204600F017F83E700020F2BD70B50E
S31508005F5082B0044600200D4616468DF8000001E082
S31508005F60FFF721FD6B46324629462046FFF77EFF9E
S31508005F700028F5D176BD02B50122694600F057F82A
S31508005F8002BD80880FF2BC1333F81110891A8842B3
S31508005F9001DA01207047002070472DE9F047824654
S31508005FA056460FF2A810805D01280D4636D15C488A
S31508005FB00FF2AC1850F826700FF29419002414E06A
S31508005FC004F074FCB98801B901243A8815F8011B54
S31508005FD03A449171398839F8162000F022F8398048
S31508005FE0B988491CB98004F067FC287888B1002272
S31508005FF051463846FFF7C5FF0028E1D11CB1504687
S3150800600005F0B9FA002418F806000028EFD1222076
S3150800601005E0504605F0AFFA002000E00120BDE893
S31508006020F087491C91FBF2F302FB131170472DE927
S31508006030F84F804647460FF21410C05D01288B467C
S31508006040164638D136480FF2181950F827400FF27D
S31508006050001A002514E004F029FCA18801B90125DD
S3150800606022881BF8011BA218917121883AF817207B
S31508006070FFF7D7FF2180A188491CA18004F01CFCEA
S315080060803046461EC0B288B1002241462046FFF778
S3150800609078FF0028DFD11DB1404605F06CFA0025CF
S315080060A019F807000028EFD1222005E0404605F040
S315080060B062FA002000E00120BDE8F28F80B50146B3
S315080060C00FF28802525C012A05D1154A52F82110AE
S315080060D08A88002AFCD105F0B1FA002002BD0CB46A
S315080060E038B504460D4605F07AFA04AB2A46214629
S315080060F00D48FEF7E5FD20460FF25001095C01291F
S3150800610007D1074951F82000808810B1204605F0CC
S3150800611032FA32BC00205DF80CFB000008200800AB
S3150800612044ED002018FD0020EFB50008704704284C
S3150800613006DA0FF21801095C481E8041C00F704745
S315080061400120704780008000800080000101010165
S315080061508000800080008000400040004000400031
S3150800616001010101002181F31188704742DE704761
S3150800617038B504460D46FFF716FC04F097FB29468A
S31508006180204605F035F82B4622460FF2D411012099
S31508006190FFF7A5FF29462046BDE83440E6E76748ED
S315080061A02DE9F047664D01682E1D4FF4206871658C
S315080061B0016AB16563490968F165416A3166816AB0
S315080061C07166C16AB166016BF166806B306796F8D5
S315080061D0340040074CBFF46BB46B05F0FEFB00229D
S315080061E0F2648442584A014624BFA2F1200AA24515
S315080061F02746316505F18C03DFF850C1DFF850E119
S3150800620018D3A0693064E4697464746DC4F308042F
S31508006210062C13D1704511D360450FD200884DF670
S315080062204264A0420AD13068586040F2017870682A
S31508006230986003E00027376477640746454881423B
S3150800624002D2014600E0091D0846904203D20C68B6
S31508006250B4F1CD3FF7D04049081AB06400210020B8
S3150800626005EB8004401C0628A167F9DB002003E043
S31508006270C0B205EB8004A167974222D252F8041DEA
S315080062807145F9D36145F7D2CC07F5D5002405EB5E
S315080062908409D9F87890894502D0641C062CF6DB67
S315080062A0062CE9D1002814BF401E0520E0E7716FCF
S315080062B0002405EB8402641CD76F9767052CF8DB6E
S315080062C019600146481EC9B20029F0D1706DC0F3A5
S315080062D0080002280AD0032815D0042816D0052855
S315080062E017D0062818D00C281CD01EE01B480168B9
S315080062F0890748BF40F602181CD40068C00719D59C
S3150800630040F2025816E040F6012813E040F602284B
S3150800631010E040F603280DE0B8F5206F0AD140F6E4
S31508006320042807E040F6052804E018B1242838BFF9
S3150800633040F607284046BDE8F087000004ED00E077
S315080063400000002000E300E0B0EB0020BC4C010890
S315080063509042000898000020B0EB00201CA00040E6
S315080063600D0A5B4153534552543A25703A25645DEC
S315080063700D0A00002DE9F8430446DFF8B803006863
S31508006380055D0026E807B14648BF002020D400274F
S315080063900FF2C84802E04FEA00197F1CFFB2AF426D
S315080063A011DA39462046FEF792FFF90718F8000079
S315080063B000F00F00EFD549EA0002F1B22046FEF7D9
S315080063C08BFF761CE9E7F1B22046FEF7B9FD0120FE
S315080063D0BDE8F28300F12401FF228A700022C2730D
S315080063E0C2830A7082730068C86070472DE9F74F48
S315080063F082B000208DF801000298041D00F12405E2
S3150800640008E0607A68720120E07202999DF800003F
S3150800641000F0A2F903980027002660BB9DF810003B
S315080064206946FFF7D9FC002839D0262826D00298D5
S31508006430012100F083F978208DF80000B046102776
S3150800644000208DF80100E07A0828E3D8DFE810F08C
S315080064500A004B008E00E900E9003B014701AC0049
S315080064609D00D7E7102FCCD09DF80000232836D101
S315080064700820E072CEE79DF8100020B99DF80100CB
S3150800648005B0BDE8F08F0398401C0390401E0078C5
S315080064908DF800009DF81000401E8DF81000B046DB
S315080064A09DF8000067280FD29DF800100FF2AC3057
S315080064B0405C00F0300700F00F08400607D5687A00
S315080064C0804504DA012602E07B2838BF10279DF8AC
S315080064D000000A2818BF0D28B2D10120B1E7202FE5
S315080064E098D0032021E1102F1CBF9DF800005F28DB
S315080064F000D01EB128780C28F3DA86E7202F18BFBB
S31508006500302F3ED102992A781144002048744FF062
S315080065100009E8680BE01AF8010B00F016F91BF8F9
S31508006520011B81420DD00198103009F10109019033
S315080065300198406828B30198D0F800A0029800F1A5
S31508006540110B9BF800000028E5D19AF800000028F6
S31508006550E9D1A4F81A90E868618B00EB011080680D
S31508006560E0610020A07228700220E072607A6872EA
S315080065706EB32B202872C5F80480607A68720420EE
S3150800658077E70321029800F0D9F89DF80100002862
S3150800659009D0207B20B10298216888470020207303
S315080065A00298FFF717FF35E79DF8010018B1029822
S315080065B000F0DEF8F4E79DF80000232803D10298DE
S315080065C000F0D6F854E7202FEDD00420ADE09DF872
S315080065D000002D2818BF2B2806D1287200206860D5
S315080065E0607A6872032044E722280AD10120FEF760
S315080065F0ACFCFF28A8700BD00021FEF7A1FC0520F3
S3150800660037E77B28D0D10120FEF79FFCFF28A8702A
S3150800661000F08A800021FEF793FC1020687206209D
S3150800662027E73EB16868697A01FB00800421E172B8
S315080066306860EFE69DF80010782918BF582904D13C
S315080066406A6812B910206872E4E6742918BF5429DA
S3150800665003D1696809B90A20F5E7032854D0202F21
S3150800666018BF302F50D1E0692B7A696802784078D4
S315080066702D2B08BF4942752A08D134281AD0002282
S31508006680312814BF4FF6FF70FF200FE0732A08D198
S31508006690312807BF6FF07F027F20274A47F6FF7031
S315080066A004E00421029800F049F86EE79142A8BF79
S315080066B0884206DB0298022200F079F80028F4D016
S315080066C052E70621EEE79DF8000022281ED102981F
S315080066D0002100F084F80028B6D00220C9E69DF80B
S315080066E000007D280DD1A878FFF744FE06460298DB
S315080066F0012100F074F808B10220E072002EA3D13F
S3150800670002E0202FA0D00EB907200EE00949A8788C
S315080067100968095CFF2908BF082006D001226946D6
S31508006720FEF74DFD00288FD002208DF800009DF859
S31508006730001027E720ED00200080FFFF027C1AB931
S315080067400822C27301745FE07047A0F141011A295B
S315080067503CBF2030C0B2704738B50C4694F8245078
S31508006760FFF7F3FF61194874681C84F8240031BDEB
S3150800677010B50446206A017831B162290CBF01219F
S315080067800221405C2A2807D1216BE28B01EB02111A
S3150800679020464968884706E0042020742046616838
S315080067A08847002020742046BDE810402CE038B504
S315080067B0837B057BAB4204D10521FFF7BFFF002091
S315080067C032BD846844F82310817B491C8173016AB1
S315080067D08B5C2A2B1CBF89180162012032BD10B5BB
S315080067E000F1200213681B78622B04D00421FFF7FE
S315080067F0A5FF002010BD9379FF2494710122BDE8FE
S31508006800104003EB0121D2E770B500F10804A06A35
S31508006810E18A00EB01100026856805E00220295C64
S315080068202A2918BF2D18761CA179F0B288420BD2F6
S3150800683028786228F2D12068F6B250F82600C0B24D
S31508006840FEF7EEFB0120EAE70020A071A07FFF28F3
S3150800685003D0FEF7E5FBFF20A07770BD000000001F
S31508006860000000000020202020200000000000007A
S31508006870000000000000000000000000200030308A
S315080068800000000000000030003000004041424394
S31508006890444546474849000000000000005A5B5C32
S315080068A05D5E5F10101010101010101010101010F0
S315080068B0101010101010103000000000005A5B5C19
S315080068C05D5E5F00284603F0F7BF2078FFF7F6BB4A
S315080068D0F0B50FF24411DFF8F8400FF244162078AD
S315080068E0D1E9002383B00FF2F401CDE90023002596
S315080068F0FEF7F0FA00271DF805000121B940084205
S3150800690006D020783B4605F141023146FEF7E2FA09
S315080069107F1C082FEFDB6D1C062DEBDB20780FF2B2
S315080069201411FEF7D7FAFFF7D0FF05F02AFBFFF799
S31508006930B0F803F0BBFF00F012F8032005F0B1FF32
S3150800694003F083FEFFF7BEFFFFF7BFF8012005F04F
S315080069508AFA20780FF27C01FEF7BCFAF7BD0546E5
S3150800696003F054BEBDE81040FEF7B4BA30BF704716
S315080069707047000030BF70477047000030BF70474F
S315080069807047000030BF70477047000030BF70473F
S315080069907047000030BF70477047000030BF70472F
S315080069A07047000030BF704710B5094C207803289F
S315080069B00CD10FF2B401FEF78DFA20780FF2F80128
S315080069C0FEF788FA20780FF24011CBE710BD0000D9
S315080069D0B0EB00204177616B650D0A0057696C6C56
S315080069E02077616B652066726F6D204750494F208E
S315080069F06163746976697479206F6E20746865209E
S31508006A00666F6C6C6F77696E6720706F7274207032
S31508006A10696E733A0D0A000000404000000000004D
S31508006A20506F72742025632C2070696E2025642EA1
S31508006A300D0A0000456E746572696E6720534C45F1
S31508006A4045504D4F44455F4D41494E5441494E547A
S31508006A50494D4552207669612068616C536C6565BD
S31508006A60702E2E2E0D0A00005761726E696E673AF7
S31508006A7020546865202273687574646F776E2220C7
S31508006A80636F6D6D616E642077696C6C20636175E8
S31508006A9073652055534220746F20646973636F6E63
S31508006AA06E65637420616E642074686520636F6D1B
S31508006AB06D616E640D0A00006C696E6520696E74FE
S31508006AC06572666163652077696C6C2073746F7094
S31508006AD0206F7065726174696E672E204F6E6365EC
S31508006AE0207468652064657669636520686173202B
S31508006AF072657475726E65642066726F6D20646562
S31508006B0065700D0A00000000736C6565702C2055D1
S31508006B1053422077696C6C20656E756D6572617479
S31508006B206520616E642074686520636F6D6D616EA3
S31508006B3064206C696E6520696E746572666163654A
S31508006B402063616E20626520726573746172746574
S31508006B50642E0D0A0000000010B505F010FF40F283
S31508006B60A174C440E0070BD5064C207805F01EFF3B
S31508006B70207805F0A5FF2078BDE8104006F0A1B8FA
S31508006B8010BD00BFB0EB00201CB5044606F067FC3C
S31508006B90DFF888150FF2A452498A019103460FF2CD
S31508006BA0A4510FF28450009104F11101FEF793FEEF
S31508006BB013BD3EB5044606F09DFB05462B469AA234
S31508006BC004F111010FF28850FEF785FE75BB06F039
S31508006BD0A2FB040024D060880FF29C530FF2905158
S31508006BE002900FF2A05001902069009022880FF2BF
S31508006BF06C50FEF770FEDFF82805A368E268007897
S31508006C000FF29051FEF766F9A0880FF2C0530FF203
S31508006C10B0510090E2880FF29C50FEF75CFE37BD3B
S31508006C20BDE83E400FF2B050FEF755BE37BD10B571
S31508006C30044606F095FB04F11101BDE810400FF279
S31508006C40B450FEF748BE10B5044606F064FB38B9E2
S31508006C5004F11101BDE810400FF2A050FEF73BBE4B
S31508006C60C168002006F0D2FB03466FA204F11101A9
S31508006C700FF2BC50FEF72FFECDA404E02046FEF727
S31508006C802AFE00F0A7F806F0D3FB0028F6D1BDE8E7
S31508006C901040F3E0F8B500208DF80000002706F054
S31508006CA029FB0024B8B90FF2B850FEF714FE06F017
S31508006CB032FB050013D029690FF2D850FEF70BFEF8
S31508006CC0E968002006F0A2FB60B90FF2F450FEF75F
S31508006CD002FEB7A611E001460FF2985005E00FF242
S31508006CE0C8506FE001460FF2F050FEF7F4FDF1BD13
S31508006CF03046FEF7F0FD00F06DF806F099FB002827
S31508006D00F6D10FF2F450DFF81864FEF7E4FD0FF23F
S31508006D100060FEF7E0FD02E08DF800000027E86855
S31508006D20844251D23078FFF74CF8B0B130780DF183
S31508006D300101FFF751F89DF8000000018DF80000E9
S31508006D407F1C9DF80100A0F130010A2919D200F034
S31508006D503CF8303908438DF80000FFB2022FDEDB1D
S31508006D6001226946204606F03BFB641C0028D3D066
S31508006D709DF800200146631E0FF2E450FEF7ABFDB6
S31508006D80F1BDA0F14101062903D200F01EF83739FA
S31508006D90E0E76138062803D200F017F85739D9E733
S31508006DA09DF80100202818BF092804D00D2818BF0F
S31508006DB00A2800D020B99DF800007F1E0009CAE7FE
S31508006DC00FF29450FEF787FDF1BD9DF801109DF86E
S31508006DD00000704746F2A81004F085B938B506F0E9
S31508006DE0C7FA0FF2A450FEF776FDC8A406F0D5FA46
S31508006DF005462046FEF76FFD4FF6FF708542F5D033
S31508006E002DB9BDE832400FF29C50FEF764BD0FF273
S31508006E10B450FEF760FD06F0D7FABDE834400146E7
S31508006E200FF2D850FEF757BD6572720030B583B0C1
S31508006E3081680C684D680FF234610091019400F185
S31508006E4011012B46B2A20FF2F850FEF744FD29466F
S31508006E50204606F0DBFA0246AEA10FF21860FEF7EE
S31508006E603AFD53A404E02046FEF735FDFFF7B2FFCE
S31508006E7006F0DEFA0028F6D1BDE83E400FF2D03023
S31508006E80FEF729BD2DE9F04786B081680C6800F049
S31508006E9072F80FF210690FF2006800919DA300F1D5
S31508006EA011010FF2D850FEF703FD0FF26C2A0EE01F
S31508006EB001A95046895DFEF70EFD761CF6B2BE4264
S31508006EC0F6DB4846FEF707FDED1BADB23C197DB172
S31508006ED0112DACBF10272F463A4601A9204606F0C9
S31508006EE08AFA024621464046FEF7F5FC0026E5E703
S31508006EF03EE02DE9F04786B08168D1F8008000F0C1
S31508006F003AF80FF2945A009182A300F111010FF298
S31508006F109C50FEF7CDFC0FF2002901AC0EE0E15DB6
S31508006F204846FEF7D8FC7F1CFFB2B742F7DB0FF2E4
S31508006F307450FEF7D0FCAD1BADB2B044C5B1112DEF
S31508006F40ACBF10262E46002703E006F0C2FAE0552D
S31508006F507F1CFFB2B742F8DB324601A9404606F06D
S31508006F603FFA024641465046FEF7B5FC0027DBE7E6
S31508006F7006B0BDE8F0878D880FF214510FF2EC4287
S31508006F8070470288130448BF4A40510001801046E2
S31508006F90704738B5634C62212046FFF7F2FF054675
S31508006FA041F20B01A01CFFF7ECFF684032BD000060
S31508006FB02E0000002DE9F041C4B081680D684C68C8
S31508006FC000F087F80FF20C50FEF785FC0FF23C181C
S31508006FD004E04046FEF77FFCE41B7D1924B306F067
S31508006FE078FA00F0FF07A74228BFA7B2002604E0F8
S31508006FF0FFF7CFFF03A98855761CF6B2BE42F7DB2A
S315080070003A4603A9284606F0EBF90028E1D040A144
S3150800701001910246029700953EA10FF250430FF2E6
S31508007020E040FEF758FC03E00FF2F840FEF753FC89
S315080070304CE02DE9F041C4B081680C684D6800F059
S3150800704048F80FF2FC40FEF746FC0FF2C00804E0D1
S315080070504046FEF740FCED1B3C199DB306F039FA95
S3150800706000F0FF07AF4228BFAFB23A4603A9204651
S3150800707006F0C1F9020009D0029725A001900094F4
S3150800708024A10FF2E8330FF2E04018E0002600E0F2
S31508007090761CF6B2BE42DBDAFFF77BFF03A9C0B265
S315080070A0895D8142F4D00291009032190FF2145191
S315080070B00FF204530FF2D04001910FF2B031FEF7F0
S315080070C00AFC03E00FF25C40FEF705FC44B0BDE89D
S315080070D0F0818B6813491A0C0B804A8000F1110164
S315080070E00FF21442704710B50D4C0FF2E4412078A8
S315080070F0FDF7F0FE20780FF22851FDF7EBFE207819
S315080071000FF27051BDE81040FDF7E4BE2E000000F6
S315080071106C656E0065727200202578000000000814
S31508007120B0EB0020A4FD00207B264E202674326892
S3150800713020267432687D0D0A000000007665727399
S31508007140696F6E0042415476657273696F6E00000E
S315080071507B264E202674680D0A00000026743268C5
S315080071600D0A2674700D0A267432680D0A0000008E
S31508007170696E666F566572007061727444657363F2
S31508007180000000006361706162696C697469657307
S31508007190000000007B7061727453697A653A256C49
S315080071A07D207B7061676553697A653A256C7D0D2C
S315080071B00A000000267475202674757D0D0A0000E5
S315080071C07061727445726173654D730070616765AD
S315080071D045726173654D73004E6F2070617274203D
S315080071E0696E666F20617661696C61626C657D0D9A
S315080071F00A0000007B264E7D0D0A00007B264E20E5
S315080072004E6F207061727420696E666F2C20636100
S315080072106E27742065726173652063686970212022
S315080072207B6572723A307830317D7D0D0A00000038
S315080072307B264E204368697020457261736520532A
S3150800724074617274696E67202674682000000000F5
S3150800725020436F6D706C657465217D0D0A00000012
S31508007260466C61736820696E697469616C697A65D0
S31508007270640D0A00466C617368206E6F7420696E2F
S31508007280697469616C697A65643A20307825780D85
S315080072900A000000466C61736820747970653A20AC
S315080072A025700D0A00000000466C61736820747929
S315080072B0706520756E6B6E6F776E0D0A00000000A4
S315080072C0466C6173682065726173652073746172B8
S315080072D07465640D0A000000466C61736820657267
S315080072E0617365206E6F7420737461727465643A95
S315080072F020307825780D0A00466C6173682065721F
S3150800730061736520636F6D706C6574650D0A0000A6
S31508007310526561647920746F2061636365707420B7
S3150800732068657820646174612C20616E7920696EC5
S3150800733076616C6964206865782063686172616348
S31508007340746572732077696C6C20656E6420636F50
S315080073506D6D616E640D0A00446F6E650D0A00005E
S31508007360466C617368207772697465206661696C1A
S3150800737065643A203078257820307825782030786A
S315080073802534780D0A000000496D61676520766529
S3150800739072696669636174696F6E20737461727469
S315080073A0656400000D0A496D616765207665726936
S315080073B06669636174696F6E206661696C65640DE0
S315080073C00A0000000D0A496D6167652076657269D5
S315080073D06669636174696F6E20636F6D706C65743E
S315080073E0650D0A496E766F6B696E6720626F6F74FA
S315080073F06C6F616465720D0A000000004572726F59
S31508007400723A2068616C417070426F6F746C6F617C
S31508007410646572496E7374616C6C4E6577496D610B
S3150800742067652072657475726E656420776974681D
S3150800743020737461747573202532780D0A00000074
S315080074407B264E2045726173696E67202674346800
S31508007450206279746573207374617274696E67202B
S3150800746066726F6D20267434682000006164647249
S31508007470000000002674682000000000237B264ECA
S315080074802026742026742026747D0D0A000000002C
S3150800749064617461000000007B5B2634685D202609
S315080074A068207B00207D0D0A00000000237B264E05
S315080074B02026742026742026747D0D0A5772697456
S315080074C0696E672072616E646F6D20646174610D08
S315080074D00A0000007B264E2057726974696E672081
S315080074E072616E646F6D20646174612066726F6D7F
S315080074F02026743478200000736565640000000057
S315080075000D0A5772697465204572726F72212026BA
S31508007510746820267434682026743268207D0D0A23
S315080075200000000020436F6D706C65746521207B38
S315080075306572723A307830307D7D0D0A00000000A1
S315080075407B264E20566572696679696E6720726178
S315080075506E646F6D20646174612066726F6D20269B
S3150800756074347820000000000D0A526561642045D5
S3150800757072726F7221202674682026743468202659
S31508007580743268207D0D0A000D0A4D69736D6174A9
S315080075906368204572726F7221207B6572723A3079
S315080075A07830317D20267434682026746820267445
S315080075B068207D0D0A00000065787065637465644F
S315080075C000000000656E636F756E74657265640011
S315080075D05761726E696E673A2053696E6365205506
S315080075E053422069732070617274206F6620746834
S315080075F0697320636F646520696D6167652C206116
S315080076006E792066756E6374696F6E616C697479DC
S31508007610207468617420757365730D0A0000000094
S3150800762053657269616C20436F6E74726F6C6C651A
S315080076307220322077696C6C206E6F742062652028
S315080076406F7065726174696F6E616C206475652010
S31508007650746F2055534220636F6E73756D696E673C
S31508007660204750494F732050415B333A305D2E0D09
S315080076700A0000004974656D73207375636820619C
S31508007680732065787465726E616C20666C617368C8
S3150800769020636F756C6420626520696D7061637420
S315080076A065642E0D0A00000010B5DFF834440FF2A9
S315080076B018012078FDF70EFC20780FF21C01BDE8B2
S315080076C01040FDF707BC0000286C6974746C6520CF
S315080076D0656E6469616E00002C20616C6C206461C3
S315080076E0746120726570726573656E746564206175
S315080076F0732062797465206172726179290D0A00B6
S315080077000178A1F130030A2B0AD3A1F14103062B14
S3150800771038BF373904D3A1F16102062A03D2573993
S315080077200907090E00E000214078A0F130030A2B72
S3150800773002D2401830380CE0A0F14103062B02D2E1
S315080077404018373805E0A0F16102062A03D240182E
S315080077505738C0B270470809704710B505F0CAFE19
S3150800776002001AD0DE4C2078042A08BF0FF22C013A
S3150800777008D0062A08BF0FF2700103D0072A04D1E1
S315080077800FF2A801FDF7A6FB03E00FF2E801FDF7EB
S31508007790A1FB20780FF2101191E710BD68616C53B8
S315080077A07461636B496E6974546F6B656E732046BA
S315080077B041494C4544207769746820454D424552F5
S315080077C05F454550524F4D5F4D46475F53544143C1
S315080077D04B5F56455253494F4E5F4D49534D4154A1
S315080077E043480D0A0000000068616C537461636BBE
S315080077F0496E6974546F6B656E73204641494C45F2
S3150800780044207769746820454D4245525F45455086
S31508007810524F4D5F4D46475F56455253494F4E5F4F
S315080078204D49534D415443480D0A000068616C5355
S315080078307461636B496E6974546F6B656E73204629
S3150800784041494C4544207769746820454D42455264
S315080078505F454550524F4D5F535441434B5F564524
S315080078605253494F4E5F4D49534D415443480D0AB3
S315080078700000000068616C537461636B496E69743B
S31508007880546F6B656E73204641494C4544207769B1
S31508007890746820456D6265725374617475733A2015
S315080078A025580D0A00000000546F6B656E73206141
S315080078B07265207374696C6C2061637469766520DF
S315080078C07768656E207573696E67207468697320BA
S315080078D06170706C69636174696F6E2E0D0A0000C1
S315080078E02DE9F04FC1B080687D4F0568FFF7DCFED3
S315080078F0A8B206F043F80446A8B205F075FE80461D
S31508007900A8B206F025F98346002C38781ABF4FF638
S31508007910FF7188450FF27C212CD02346AAB20FF2BC
S315080079200C11FDF7D7FA00250FF2AC190FF2AC1AB5
S315080079300AE01DF8062038784946FDF7CBFA761C8A
S31508007940F6B2A642F5DB6D1CEDB25D4510DABBF169
S31508007950010F234603D17F2200F06EF806E02A467F
S3150800796000F06AF838785146FDF7B4FA0026E7E7DA
S3150800797038785146FDF7AEFA41B0BDE8F08F2DE9EB
S31508007980F047C0B0806804684768554EFFF78CFE1C
S31508007990A0B205F0F3FF8146A0B205F025FE8046A9
S315080079A0A0B206F0D5F80546B9F1000F30781ABF2F
S315080079B04FF6FF7188450FF2DC1131D0A5F1010AA7
S315080079C015B1FFB2BA450BDA0FF2D411FDF782FAF8
S315080079D030780FF2042153460022FDF77BFA21E0A6
S315080079E04B46A2B20FF24401FDF774FA012D08BF07
S315080079F07F274B463A4600F01FF838A430782146D0
S31508007A00FDF768FA00270FF2D00804E01DF80720F2
S31508007A1001F093F87F1CFFB230784F45F6DB21461C
S31508007A20FDF758FA40B0BDE8F08700005B253278CC
S31508007A305D28256429203D004146684605F09EBD1F
S31508007A402DE9F047C2B08068DFF8807E0668FFF748
S31508007A502BFEB0B205F092FF8146B0B205F0C4FD28
S31508007A608246B0B206F074F80646B9F1000F1CBF9C
S31508007A704FF6FF70824505D138780FF21811FDF7D9
S31508007A8029FA28E000240FF2741803E0504605F09E
S31508007A9086FD641CB4421EDA002513E006FB09F0D5
S31508007AA0431E387809FB04524146FDF713FA387825
S31508007AB003226946FEF74BFA6846FFF721FE01A93D
S31508007AC048556D1C4D45E9DB012E4B4601AA0CBFF6
S31508007AD07F21E1B2DAE759E0202558000D0A0000B7
S31508007AE0B0EB00202DE9F047C2B08068076844680B
S31508007AF0DFF8D85DFFF7D8FDB8B205F03FFF80463E
S31508007B00B8B205F071FD8146B8B206F021F807460D
S31508007B10B8F1000F28781CBF4FF6FF71894504D1CC
S31508007B200FF27001FDF7D6F930E07E1E17B1E4B208
S31508007B30A6420BDA0FF26801FDF7CCF928780FF2A6
S31508007B40980133460022FDF7C5F91FE000260FF21B
S31508007B50AC0A10E02878A8F10103324600F0EAFFE3
S31508007B60287803226946FEF7F2F96846FFF7C8FD4A
S31508007B7001A98855761C4645ECDB012F08BF7F24F2
S31508007B80434601AA2146484605F009FD42B0BDE82C
S31508007B90F08700006E6F7420666F756E640D0A00BC
S31508007BA04552524F523A204465736972656420699A
S31508007BB06E646578206973206F7574206F6620720D
S31508007BC0616E676520666F72207468697320746FCA
S31508007BD06B656E0D0A00000020202020202020560C
S31508007BE0616C69642072616E676520697320255827
S31508007BF020746872752025580D0A00006461746146
S31508007C0020627974655B2564206F662025645D3A79
S31508007C10000000002DE9F043F9B0DFF8B04CDFF8BA
S31508007C20B08CFFF741FD20784CF2443200F085FF16
S31508007C3020780FF6D041FEF7B0F9DFF8980C0188E6
S31508007C4018237F2210A805F099FC00270FF2903917
S31508007C5010A84946C25D00F09EFF7F1C182FF7D377
S31508007C60E0A700F056FF20784FF2640200F065FFA7
S31508007C7020780FF6A041FEF790F9DFF85C0C018832
S31508007C80062300F036FF002500F082FF6D1C062D46
S31508007C90FAD300F03EFF20784FF2644200F04DFF21
S31508007CA020780FF68041FEF778F9DFF8300C018866
S31508007CB0062300F01EFF002500F06AFF6D1C062D46
S31508007CC0FAD300F026FF20784EF2455200F035FF31
S31508007CD020780FF66041FEF760F9DFF8040C00F033
S31508007CE006FF002500F054FF6D1C082DFAD300F09E
S31508007CF010FF20784FF26E4200F01FFF20780FF633
S31508007D004841FEF74AF9DFF8DC0B00F0E4FE0025EF
S31508007D1008A800F03EFF6D1C142DF9D300F0F9FEFB
S31508007D2020784FF2424200F008FF20780FF63041E3
S31508007D30FEF733F9DFF8B00B00F0CDFE002508A8F2
S31508007D4000F027FF6D1C142DF9D300F0E2FE207811
S31508007D504FF2624200F0F1FE20780FF61C41FEF762
S31508007D601CF9DFF8880B01880A237F220DA805F085
S31508007D7005FC00250DA800F00CFF6D1C0A2DF9D393
S31508007D8000F0C7FE20784FF2742200F0D6FE207865
S31508007D900FF6FC31FEF701F90125DFF8540B00F068
S31508007DA0ACFE00F0B0FE9DF8012000F0AEFE6D1EA0
S31508007DB0F3D100F0AEFE20784FF2762200F0BDFE39
S31508007DC020780FF6DC31FEF7E8F80125DFF8240BFA
S31508007DD000F093FE00F097FE9DF8012000F095FE56
S31508007DE06D1EF3D100F095FE20784FF2766200F012
S31508007DF0A4FE20780FF6BC31FEF7CFF80125DFF890
S31508007E00F80A00F07AFE00F07EFE9DF8012000F0E8
S31508007E107CFE6D1EF3D100F07CFE20784FF26342A3
S31508007E2000F08BFE20780FF6A031FEF7B6F8012594
S31508007E30DFF8C80A00F061FE00F065FE9DF8012033
S31508007E4000F063FE6D1EF3D100F063FE20784FF25A
S31508007E50744200F072FE20780FF67C31FEF79DF82A
S31508007E600125DFF89C0A00F048FE00F04CFE9DF85C
S31508007E70012000F04AFE6D1EF3D100F04AFE20787C
S31508007E804FF6097200F059FE20780FF65C31FEF7BE
S31508007E9084F80125DFF8840C00F02FFE00F033FE8D
S31508007EA09DF8012000F031FE6D1EF3D100F031FE81
S31508007EB020784EF2636200F040FE20780FF63831E3
S31508007EC0FEF76BF80125DFF8580C00F016FE00F0F7
S31508007ED01AFE9DF8012000F018FE6D1EF3D100F081
S31508007EE018FE20784EF26F6200F027FE20780FF613
S31508007EF01C31FEF752F8DFF82C0C00F0F8FD00F004
S31508007F0047FE6D1C082DFAD300F003FE20784EF2CA
S31508007F106F3200F012FE20780FF6FC21FEF73DF8CE
S31508007F20DFF8040C00F0DDFD002504A800F031FEA2
S31508007F306D1C102DF9D300F0ECFD20784CF256326A
S31508007F4000F0FBFD20780FF6DC21FEF726F8012568
S31508007F50DFF8D80B00F0D1FD00F0D5FD9DF8012023
S31508007F6000F0D3FD6D1EF3D100F0D3FD20784EF25C
S31508007F70453200F0E2FD20780FF6BC21FEF70DF839
S31508007F80DFF8AC0B00F0B3FD00F002FE6D1C082D07
S31508007F90FAD300F0BEFD20784EF6735200F0CDFD00
S31508007FA020780FF6A821FDF7F8FFDFF8940B00F00C
S31508007FB098FD002504A800F0ECFD6D1C102DF9D3E2
S31508007FC000F0A7FD20784CF24E2200F0B6FD20788E
S31508007FD00FF68421FDF7E1FFDFF8680B04E000BF28
S31508007FE0202558000D0A000000F07BFD002504A896
S31508007FF000F0CFFD6D1C102DF9D300F08AFD207816
S315080080004CF6441200F099FD20780FF65C21FDF736
S31508008010C4FF0125DFF8300B00F06FFD00F073FD9B
S315080080209DF8012000F071FD6D1EF3D100F071FD81
S3150800803020784DF2430200F080FD20780FF63821B3
S31508008040FDF7ABFF0125DFF8040B00F056FD00F045
S315080080505AFD9DF8012000F058FD6D1EF3D100F081
S3150800806058FD20784CF24B2200F067FD20780FF679
S315080080701821FDF792FFDFF8D80A00F032FD04A8B0
S3150800808000F087FD6D1C102DF9D300F042FD207815
S315080080904CF6535200F051FD20780FF60421FDF7F7
S315080080A07CFFDFF8B00A00F022FD002500F070FD25
S315080080B06D1C082DFAD300F02CFD20784CF24312E3
S315080080C000F03BFD20780FF6EC11FDF766FF002562
S315080080D0DFF8840A01880223EAB200F0F9FC00F00E
S315080080E012FD9DF8012000F010FD6D1C142DEFDB2C
S315080080F000F00FFD20784CF2423200F01EFD207889
S315080081000FF69821FDF749FFDFF8500A01885C232E
S315080081107F2262A805F032FA002562A800F039FD30
S315080081206D1C5C2DF9D300F0F4FC20784CF6431254
S3150800813000F003FD20780FF67421FDF72EFFDFF817
S31508008140200A00F0C8FC002508A800F022FD6D1CD6
S31508008150142DF9D300F0DDFC20784BF2542200F000
S31508008160ECFC20780FF65C21FDF717FF0125DFF8F8
S31508008170F40900F0C2FC00F0C6FC9DF8012000F0EE
S31508008180C4FC6D1EF3D100F0C4FC20784DF24632D3
S3150800819000F0D3FC20780FF64421FDF7FEFE0125FA
S315080081A0DFF8C40900F0A9FC00F0ADFC9DF8012039
S315080081B000F0ABFC6D1EF3D100F0ABFC20784BF25F
S315080081C0532200F0BAFC20780FF62821FDF7E5FEC9
S315080081D00125DFF8980900F090FC00F094FC9DF862
S315080081E0012000F092FC6D1EF3D100F092FC20787D
S315080081F04DF2433200F0A1FC20780FF61021FDF76E
S31508008200CCFE0125DFF8680900F077FC00F07BFC5E
S315080082109DF8012000F079FC6D1EF3D100F079FC81
S3150800822020784CF2433200F088FC20780FF6F011E3
S31508008230FDF7B3FE0125DFF83C0900F05EFC00F00F
S3150800824062FC9DF8012000F060FC6D1EF3D100F081
S3150800825060FC20784DF2423200F06FFC20780FF671
S31508008260D411FDF79AFEDFF8100900F03AFC04A8CD
S3150800827000F08FFC6D1C102DF9D300F04AFC207815
S315080082804CF2545200F059FC20780FF6C411FDF751
S3150800829084FEDFF8E8080188062300F02AFC00259A
S315080082A000F076FC6D1C062DFAD300F032FC20781F
S315080082B04CF2453200F041FC20780FF6AC11FDF780
S315080082C06CFEDFF8BC08018894237F223DA805F0E0
S315080082D055F900253DA800F05CFC6D1C942DF9D3DA
S315080082E000F017FC20784DF6540200F026FC2078A2
S315080082F00FF68811FDF751FE0125DFF8880800F012
S31508008300FCFB00F000FC9DF8012000F0FEFB6D1E52
S31508008310F3D100F0FEFB20784CF64B2200F00DFC62
S3150800832020780FF66411FDF738FEDFF85C0801883F
S3150800833022237F2234A805F021F934A800F029FC6D
S315080083406D1C222DF9D300F0E4FB20784BF2346241
S3150800835000F0F3FB20780FF64411FDF71EFEDFF858
S315080083602C0800F0C4FB002500F012FC6D1C082D3B
S31508008370FAD300F0CEFB20784FF6017200F0DDFB51
S3150800838020780FF62411FDF708FE012502237F2227
S31508008390002100F09DFB00F0B6FB9DF8012000F0DF
S315080083A0B4FB6D1EF2D100F0B4FB20784EF2231216
S315080083B000F0C3FB20780FF60811FDF7EEFD042345
S315080083C07F22012100F081FB01A800F0E2FB6D1C71
S315080083D0042DF9D300F09DFB20784EF2754200F08B
S315080083E0ACFB20780FF6F001FDF7D7FD11237F22AD
S315080083F0022100F067FB002508A800F0CAFB6D1CE7
S31508008400112DF9D300F085FB20784EF2632200F097
S3150800841094FB20780FF6D401FDF7BFFD04237F22D5
S31508008420032100F052FB002501A800F0B2FB6D1CE9
S31508008430042DF9D300F06DFB20784EF2635200F05C
S315080084407CFB20780FF6B801FDF7A7FD04237F22F1
S31508008450042100F03AFB002501A800F09AFB6D1CE8
S31508008460042DF9D300F055FB20784EF2621200F085
S3150800847064FB20780FF69C01FDF78FFD012502238A
S315080084807F22052100F024FB00F03DFB9DF801202A
S3150800849000F03BFB6D1EF2D100F03BFB20784EF658
S315080084A0793200F04AFB20780FF68001FDF775FD5A
S315080084B011237F22062100F005FB08A800F069FBBE
S315080084C06D1C112DF9D300F024FB20784EF664625A
S315080084D000F033FB20780FF66001FDF75EFD1023F0
S315080084E07F22072104A805F049F8002504A800F012
S315080084F050FB6D1C102DF9D300F00BFB20784EF2C3
S31508008500241200F01AFB20780FF63C01FDF745FD12
S315080085101A237F2208212DA805F030F800252DA85A
S3150800852000F037FB6D1C1A2DF9D300F0F2FA20780B
S315080085304EF2251200F001FB20780FF62001FDF718
S315080085402CFD08237F22092102A805F017F800252B
S3150800855000F01EFB6D1C082DFAD300F0DAFA20781D
S315080085604EF2261200F0E9FA20780FF60C01FDF714
S3150800857014FD0A237F220A210DA804F0FFFF002517
S315080085800DA800F006FB6D1C0A2DF9D300F0C1FA00
S3150800859020784EF2271200F0D0FA20780FF2EC710C
S315080085A0FDF7FBFC012502237F220B2100F090FA40
S315080085B000F0A9FA9DF8012000F0A7FA6D1EF2D185
S315080085C000F0A7FA20784DF2452200F0B6FA207896
S315080085D00FF2D871FDF7E1FC0423EAB20C2100F092
S315080085E074FA002601A84946825D00F0D4FA761C82
S315080085F0042EF7D36D1C102DEEDB00F08AFA2078D6
S315080086004EF2102200F099FA20780FF2B071FDF7B9
S31508008610C4FC00F07EFA20784EF2112200F08DFAA2
S3150800862020780FF2B471FDF7B8FC00F072FA2078E2
S315080086304EF2122200F081FA20780FF2BC71FDF793
S31508008640ACFC00F066FA20784EF2132200F075FAB8
S3150800865020780FF2C871FDF7A0FC00F05AFA2078CE
S315080086604EF2142200F069FA20780FF2D471FDF761
S3150800867094FC00F04EFA20784EF2152200F05DFACE
S3150800868020780FF2E471FDF788FC00F042FA2078B2
S315080086904EF2202200F051FA20780FF2EC71FDF725
S315080086A07CFC04237F22132100F00FFA002501A881
S315080086B000F06FFA6D1C042DF9D300F02AFA207821
S315080086C04EF2212200F039FA20780FF2E071FDF718
S315080086D064FC00F01EFA20784EF2742200F02DFA9F
S315080086E020780FF2F471FDF758FC00F012FA2078A2
S315080086F04FF60D7200F021FA20780FF2F071FDF7AF
S315080087004CFC00250B23EAB216210DA804F036FF0F
S3150800871000260DA84946825D00F03DFA761C0B2E10
S31508008720F7D36D1C062DEDDB00F0F3F920784EF239
S31508008730564200F002FA20780FF2C471FDF72DFCBC
S3150800874000F0E7F920784FF4654200F0F6F9207852
S315080087500FF2BC71FDF721FC00F0DBF920784EF230
S31508008760035200F0EAF920780FF2BC71FDF715FC08
S3150800877000250123EAB219210DF1020004F0FEFEDC
S315080087809DF8022000F0C1F96D1C062DF1DB00F002
S31508008790C0F920784EF2015200F0CFF920780FF296
S315080087A0A471FDF7FAFB10237F221A2104A804F00E
S315080087B0E5FE002504A800F0ECF96D1C102DF9D390
S315080087C000F0A7F920784EF2025200F0B6F92078A8
S315080087D00FF28071FDF7E1FB28237F221B2123A8D6
S315080087E004F0CCFE002523A800F0D3F96D1C282D33
S315080087F0F9D300F08EF920784EF2502200F09DF958
S3150800880020780FF26471FDF7C8FB12237F221C2122
S3150800881000F058F9002508A800F0BBF96D1C122DC8
S31508008820F9D300F076F920784EF2512200F085F956
S3150800883020780FF24871FDF7B0FB00F06AF920784E
S315080088404EF2582200F079F920780FF24C71FDF7B4
S31508008850A4FB12237F221E2100F034F9002508A864
S3150800886000F097F96D1C122DF9D300F052F9207813
S315080088704EF2592200F061F920780FF22C71FDF7BB
S315080088808CFB00253423EAB21F2116A804F076FED5
S31508008890002616A84946825D00F07DF9761C342E1E
S315080088A0F7D36D1C052DEDDB00F033F920784EF279
S315080088B05A2200F042F920780FF20471FDF76DFB99
S315080088C000F027F979B0BDE8F0830000B0EB00208E
S315080088D0806601084C7201084E7201085072010840
S315080088E0527201085472010856720108587201083A
S315080088F05A7201085C7201085E720108607201080A
S31508008900627201084D46475F434849505F444154E7
S31508008910410000004D46475F504152545F44415460
S31508008920410000004D46475F5445535445525F4445
S31508008930415441004D46475F454D4245525F4555B6
S31508008940495F3634000000004D46475F414E414CB2
S315080089504F475F5452494D5F4E4F524D414C0000B0
S315080089604D46475F414E414C4F475F5452494D5F14
S31508008970424F4F53540000004D46475F414E414C0D
S315080089804F475F5452494D5F424F5448000000001C
S315080089904D46475F5245475F5452494D0000000017
S315080089A04D46475F3156385F5245475F564F4C54E0
S315080089B0414745004D46475F565245465F564F4C20
S315080089C054414745000000004D46475F54454D5009
S315080089D05F43414C000000004D46475F54455354E1
S315080089E05F54454D500000004D46475F4649425F7B
S315080089F056455253494F4E004D46475F4649425FDA
S31508008A00434845434B53554D000000004D46475FCC
S31508008A104649425F4F4253004D46475F4349425FCE
S31508008A204F4253004D46475F435553544F4D5F568B
S31508008A30455253494F4E00004D46475F43555354E0
S31508008A404F4D5F4555495F36340000004D46475F38
S31508008A50535452494E4700004D46475F424F4152D4
S31508008A60445F4E414D4500004D46475F4D414E55CA
S31508008A70465F4944000000004D46475F5048595F2D
S31508008A80434F4E46494700004D46475F424F4F54B5
S31508008A904C4F41445F4145535F4B45590000000028
S31508008AA04D46475F455A53505F53544F52414745C9
S31508008AB0000000004D46475F4153485F434F4E460E
S31508008AC04947000008A804F059BD01A804F056BD9E
S31508008AD0684604F053BD018814237F2208A804F0D1
S31508008AE04DBD018810237F2204A804F047BD0188E4
S31508008AF008237F2202A804F041BD018802237F22B1
S31508008B00684604F03BBD9DF8002020784946FCF7EE
S31508008B10E1B920783946FCF7DDB90000647201082E
S31508008B2066720108687201086A7201086C720108A7
S31508008B306E7201085146FCF7CDB94146FCF7CAB931
S31508008B40707201087272010874720108767201085F
S31508008B50787201087A7201087C7201087E7201082F
S31508008B6080720108827201088472010886720108FF
S31508008B70887201088A7201088C7201088E720108CF
S31508008B80907201089272010894720108967201089F
S31508008B9002A84946425D2078FCF79CB94D46475FD6
S31508008BA043424B455F444154410000004D46475FF0
S31508008BB0494E5354414C4C4154494F4E5F434F44E0
S31508008BC0450000004D46475F4F534332344D5F42E0
S31508008BD04941535F5452494D000000004D46475FD6
S31508008BE053594E54485F465245515F4F4646534582
S31508008BF0540000004D46475F4F534332344D5F5390
S31508008C004554544C455F44454C4159004D46475FD1
S31508008C1053454355524954595F434F4E46494700B9
S31508008C204D46475F4343415F5448524553484F4C6E
S31508008C30440000004D46475F5345435552455F4241
S31508008C404F4F544C4F414445525F4B455900000025
S31508008C504D46475F45544845524E45545F41444446
S31508008C6052455353000000004D46475F43424B456B
S31508008C705F3238334B315F44415441004D46475FBC
S31508008C80584F5F54554E45004D46475F5448524528
S31508008C9041445F4A4F494E5F4B4559004D46475F31
S31508008CA04555495F36340000535441434B5F4E5691
S31508008CB0444154415F56455253494F4E0000000007
S31508008CC0535441434B5F4150535F4652414D455FB4
S31508008CD0434F554E54455200535441434B5F414C04
S31508008CE05445524E4154455F4B45590053544143F0
S31508008CF04B5F424F4F545F434F554E544552000009
S31508008D00535441434B5F4E4F4E43455F434F554E79
S31508008D1054455200535441434B5F414E414C5953BD
S31508008D2049535F5245424F4F540000005354414344
S31508008D304B5F4B4559530000535441434B5F4E4FCD
S31508008D4044455F4441544100535441434B5F545298
S31508008D505553545F43454E544552000053544143BE
S31508008D604B5F4E4554574F524B5F4D414E41474519
S31508008D704D454E5400000000535441434B5F50414B
S31508008D8052454E545F494E464F00000053544143E6
S31508008D904B5F504152454E545F4144444954494FF4
S31508008DA04E414C5F494E464F000000005354414324
S31508008DB04B5F43414C5F4441544100004D554C5470
S31508008DC0495F4E4554574F524B5F535441434B5F8F
S31508008DD04B455953000000004D554C54495F4E45CC
S31508008DE054574F524B5F535441434B5F4E4F444584
S31508008DF05F444154410000004D554C54495F4E456F
S31508008E0054574F524B5F535441434B5F414C544563
S31508008E10524E4154455F4B45590000004D554C5440
S31508008E20495F4E4554574F524B5F535441434B5F2E
S31508008E3054525553545F43454E5445520000000062
S31508008E404D554C54495F4E4554574F524B5F5354FA
S31508008E5041434B5F4E4554574F524B5F4D414E4130
S31508008E6047454D454E5400004D554C54495F4E45B7
S31508008E7054574F524B5F535441434B5F50415245F1
S31508008E804E545F494E464F004D554C54495F4E452A
S31508008E9054574F524B5F535441434B5F4E4F4E43CB
S31508008EA0455F434F554E5445520000004D554C54AE
S31508008EB0495F4E4554574F524B5F535441434B5F9E
S31508008EC0504152454E545F4144444954494F4E41DE
S31508008ED04C5F494E464F0000535441434B5F42494D
S31508008EE04E44494E475F5441424C45005354414312
S31508008EF04B5F4348494C445F5441424C450000008F
S31508008F00535441434B5F4B45595F5441424C4500CE
S31508008F10535441434B5F4345525449464943415490
S31508008F20455F5441424C4500535441434B5F4144CD
S31508008F30444954494F4E414C5F4348494C445F4469
S31508008F4041544100535441434B5F5A4C4C5F444192
S31508008F5054410000535441434B5F5A4C4C5F5345B0
S31508008F604355524954590000535441434B5F5246A6
S31508008F703443455F44415441000000005354414383
S31508008F804B5F52463443455F50414952494E475F0D
S31508008F905441424C45000000535441434B5F4750EF
S31508008FA05F44415441000000535441434B5F4750CE
S31508008FB05F50524F58595F5441424C4500000000DB
S31508008FC0535441434B5F47505F53494E4B5F54419F
S31508008FD0424C450021210FF22C00FDF7C9B810B507
S31508008FE001F029FC044601F01BFC0246234604480E
S31508008FF00FF220010078BDE81040FBF76BBF0000B8
S31508009000B0EB002072657365742D746573742E63F6
S315080090100000000052455345543A25702D25700D21
S315080090200A00000010B50446002003F035F80020B9
S3150800903003F046F801F0B0FC012002F014FF02F03C
S3150800904003FF10F0060018BF012004F044FE204676
S3150800905005F083FA2046BDE8104000F02BBF80B526
S31508009060022100F0E1F8009804F01EFA01BD8068BC
S31508009070DFF858140068087008780228A8BF0FF2AD
S31508009080884305DA002814BF0FF288430FF28C4391
S31508009090DFF83C040FF26042D0F89013FFE70FF2B6
S315080090A04C40FCF718BC80B502F0CAFFDFF8241460
S315080090B00FF2B44251F82030DFF81404D0F8F01358
S315080090C00FF2844065E138B50446A0680568DFF804
S315080090D00004D0F800140FF29C40FCF7FCFBEDB23C
S315080090E015B1012D07D00CE00FF29040FCF7F3FB09
S315080090F002F047FF05E00FF29840FCF7ECFB02F0A0
S315080091006DFF0FF29C40FCF7E6FB2046BDE83240B7
S31508009110C9E780B505F05DFD034613F1010F0FF2AF
S3150800912088400FF28C4108BF0FF28C420ED013B95B
S315080091300FF28C420AE0DFF8A003B3FBF0F200FB63
S31508009140123038B90FF294410FF28840BDE8084052
S31508009150FCF7C1BB4FF47A71B3FBF1F201FB123194
S315080091600029DFF8780300780EBF0FF278411A4617
S315080091700FF28041BDE80840FBF7ACBE70B5044667
S315080091800D46284605F01FFD06462B460FF28C4273
S315080091900FF2704004F11101FCF79DFBAE4206D0B8
S315080091A032460FF280410FF22C40FCF794FB28461A
S315080091B0FFF7AFFFBDE870406FA0FCF78CBB10B59A
S315080091C0044605F048FD01462046BDE81040D5E7AF
S315080091D038B5044602F034FF0500DFF8F402D0F88B
S315080091E0B0130FF2484018BF0125FCF774FB02F0D4
S315080091F0F5FEA0680068C0B205F025FD02460FF22C
S3150800920040310FF25C40FCF766FB0DB102F0B9FE87
S315080092102046BDE83240D2E7FFE700F111010FF220
S315080092204840FCF758BB0121684606F0B4B838B583
S31508009230044602F005FF050018BF012502F0CEFE20
S31508009240502001F050FF02F0DCFF03465CA204F157
S3150800925011010FF22C40FCF73EFB1DB1BDE8314071
S3150800926002F08FBE31BD2DE9F84F064689461546F0
S3150800927002F0E6FE040018BF012402F0EBFE002E01
S315080092804FF07F0A6FF07F0B4FF000088DF8000053
S3150800929008D10126002002F0E0FE502001F023FF4D
S315080092A0374611E0F6D57642F4E7802001F01BFF39
S315080092B002F0E5FE83455246B8BF8346824692458C
S315080092C0C8BF924680447F1E012FEEDA9DF8000043
S315080092D002F0C3FE0CB102F054FEB9F1000F18BF3C
S315080092E089F800A015B198FBF6F028705846BDE835
S315080092F0F28F10B500F01AF804F11101BDE810401C
S3150800930003460FF29C320FF28430FCF7E4BA10B52C
S3150800931000F00CF802F0AEFB04F11101BDE81040B4
S31508009320034668A20FF28030FCF7D5BA044600223D
S315080093300021012097E710B5044686B0A0680068AA
S3150800934004AA0DF11101FFF78EFF039004F1110134
S315080093500FF29C309DF911300FF2843202909DF97C
S31508009360100001900FF2803000900FF25830FCF791
S31508009370B2FA06B010BD00007D0D0A0080B502F0F5
S3150800938091FF034652480FF28032D0F850140FF27C
S315080093906830BDE80050FCF79EBA10B504464C4844
S315080093A0D0F860140FF27030FCF795FAA0680068E0
S315080093B040B202F04FFF2046BDE81040DEE700004D
S315080093C0434341002DE9F84F454C0546207838B906
S315080093D005F11101BDE8F44F0FF24430FCF77BBAF2
S315080093E0A87B022838DBA8680678476805F033FCAE
S315080093F08146AEB9F8B278B3A75506F10B00C0B2EC
S3150800940005F0E1FB7F1CFF28F6D006F10B0081452D
S3150800941004BF484605F017FC761C102EECD31BE05B
S315080094200B2E04BFF8B2002816D0A6F10B001028A0
S3150800943012D204EB060A30461AF80BBC0AF80B7C63
S3150800944005F0C1FBFF2808BF0AF80BBC04D0B145DC
S3150800945004BF484605F0F7FB05F111010FF2DC20C1
S315080094600FF2C0190FF2DC280FF2E8270FF2EC2AE8
S31508009470FCF731FA002514A6605D0090534605F105
S315080094800B0239464046FCF726FA05F10B0B5FFA44
S315080094908BF0FFF73EFE5FFA8BF005F094FBFF2892
S315080094A005D0024649460FF2BC20FCF714FA3046AE
S315080094B0FCF711FA6D1C102DDED33046BDE8F24FCD
S315080094C0FCF709BA454400007D0D0A00BFED0020EF
S315080094D0F05F0108E8EB002040420F00B0EB0020E7
S315080094E068F3002081680968C9B247E67B264E20E2
S315080094F02674737D0D0A0000504552205465737416
S31508009500204D6F6465000000656E61626C65642DB0
S315080095106E657700656E61626C6564006469736187
S31508009520626C65640000000061736C65657000001C
S315080095306177616B65000000656E6572677900008A
S3150800954073746174757300007B264E2052616469DA
S315080095506F20706F77657220737461746520267446
S31508009560737D0D0A00000000706F776572207374B2
S31508009570617465007B264E2000000000536C65650B
S3150800958070696E6720726164696F2E2E2E00000066
S3150800959057616B696E6720726164696F2E2E2E00A3
S315080095A0646F6E657D0D0A00202674700000000049
S315080095B06672657100000000696C6C6567616C0015
S315080095C050657252616D526164696F436F6E666968
S315080095D06700000020267475000000006672657139
S315080095E04D487A00207B667265714B487A3A256C3D
S315080095F07D000000207B66726571487A3A256C7D8D
S31508009600000000007B264E20526164696F20636863
S31508009610616E6E656C202674680000006368616E72
S315080096206E656C005074694368616E007B264E2037
S3150800963053657474696E67206368616E6E656C2025
S31508009640616E642063616C6962726174696E672019
