S02500007365637572652D6170702D626F6F746C6F616465722D737069666C6173682E733337FB
S31508000000000400207500000881000008810000082F
S31508000010A70B0A0100000000010254610020000835
S31508000020041B0000CD120008551800081806000821
S315080000303D0A0008CD0A00080B0B0008CB0B000888
S3150800004011090008110C0008DD0C0008000000006A
S31508000050FFFFFFFF05480068202100EA010020B1E4
S315080000600348016842688D46104770472C000040D7
S3150800007000200008FFF7EEFF00F00DF800F040F84A
S3150800008005E00000854670474248008870474FF4EF
S31508000090017000F099B838B500F0C0F84FF20F04B7
S315080000A03D4D28B140F2052028806C80012032BDE4
S315080000B03A480068C00615D56888A0421ED1288827
S315080000C040F2022188421CBF40F20621884215D020
S315080000D040F2011188421EBFB0F58A7F40F2111125
S315080000E088420BD02E4C208A40F6A721884205D19B
S315080000F02068FFF7C7FF6068804700BF002032BD51
S3150800010038B50400274872B60168490849000160F5
S3150800011000F0CAF821480068000910F001000CBF79
S315080001202149224902E0CD2201F8012B204A9142B9
S31508000130F9D32049204A214B03E011F8015B02F864
S31508000140015B9A42F9D31E491E4A002301E001F8D1
S31508000150013B9142FBD3104A53884FF20F05AB423D
S3150800016040F205210AD113888B4205D030B1180A0E
S31508000170012818BF022801D1194601E004B9002157
S31508000180044801804CF23C30508000F015FABDE876
S3150800019032407CE7B40C0020000000202C00004010
S315080001A000200008FCED00E0000000209800002078
S315080001B000040020181F0008000400200404002082
S315080001C004040020BD0C00200D4A302111600D4AA0
S315080001D0116010210C4A1160010A00290B4908BF59
S315080001E0000208804FF20F004880BFF35F8F08486F
S315080001F00021016041600748074908607047000010
S315080002003020004030C8004010D0004000000020D8
S315080002101C4000400400FA050CED00E00020704781
S3150800022080B500F0FDF90121152000F006FA152029
S3150800023000F02DFA0121072000F0FFF9072000F051
S3150800024019FA1748016821F01001016001BD000084
S31508000250052800D9704710B5DFE800F01721030F0D
S315080002601C17104C2088411E2180C0B9072000F0B9
S315080002701BFA42F21070208010BD072000F007FA22
S31508000280BDE81040152000F00FBABDE81040152053
S3150800029000F0F0B9BDE81040152000F0F8B910BD1F
S315080002A000BC0040B60C0020554951200860704734
S315080002B038B55449C9780429B4BF302460244FF4AA
S315080002C0F071B1FBF4F1451A1E2DBCBF4FF4017055
S315080002D0FFF77AFF4C484D4A07210160002141602B
S315080002E081604FF00071116005FB04F1C91C890893
S315080002F0491E416031BD434A01215170D8E72DE9B5
S31508000300F041444F424D78883E4E4FF6FF784045BF
S3150800031040F2DC541CD14048018802237F22B81CD5
S3150800032000F0D8F97888404504BF02207880A8698B
S31508000330800703D4A86940F00200A8610120B070C4
S31508000340788828602046FFF7D6FF2046BDE8F0816A
S31508000350A8698007EED52C480068C00348BF00F09E
S315080003603BF8B0780028F0D1A868A9687A8810F018
S31508000370010003D10F2A08D2521C06E0890704D5CA
S31508000380397811B1032AA8BF424492B2022A3870BA
S31508000390B8BF02227A80286879888842CED1A869AF
S315080003A000F00300032808D0A869154940F00100A9
S315080003B0A8610120E861512008600020C6E710B551
S315080003C0044601E000F0BCF92046FFF798FF01005B
S315080003D0F8D110BD0220F2E70B480C4A0021416013
S315080003E08160016821F00201016000210548417021
S315080003F04FF000711160817809B100218170704752
S3150800040000800040B80C002010E000E004ED00E099
S315080004100440004000040020141F000800787047BC
S31508000420002101608180C18001817047F8B50446CA
S315080004300D461646002711E020688030206000200F
S31508000440E08080202081A088401CA080BFB2E08880
S31508000450411C2044E180807AE8557F1CB8B2B0423E
S315080004600CD2E08821898842F0D32068802204F1E2
S315080004700A0100F02BFB0100DED0F2BD0020F2BD20
S315080004801720704710B5044600F0D3F82046BDE89B
S31508000490104000F054BD2DE9F041A4B000F038FD3D
S315080004A000F0C7F800F08AFD0121684600F08EFDCD
S315080004B03F4C04F1800500206860A86000F028FA27
S315080004C000280FBFE8608168E96040882880684690
S315080004D000F04BFE0028074644D1BDF80610BDF8CB
S315080004E004600DEB010000F10A0828788007F6B2CF
S315080004F00ED5E96861B1686832184B1E22EA03070F
S3150800050010B1A868B84203D2384600F081FBAF6044
S3150800051032466868414600F0F8FA074680B96868C6
S315080005203246214600F0D2FA002000E0401CB042D4
S3150800053006DA215C18F800209142F7D0832706E0F6
S3150800054068683018002F6860C1D01B2FBFD0042000
S31508000550FFF77EFE0121384600F08FFD384624B0AD
S31508000560BDE8F081172FF0D10020F8E770B5DAB0B2
S31508000570044636A8FFF754FF012000904FF40263A3
S315080005800C4A36A901A800F0A1FE0FF28C050FF25D
S315080005907C0600F04EF8200014BF3246002201A95E
S315080005A0284601F057F95028F3D05AB070BD00001C
S315080005B0240C00200404002010B5FFF765FD04464E
S315080005C001F07AF9FFF72CFE00F038FA18B14FF46B
S315080005D00170FFF7F9FD00F02CF840F20110844293
S315080005E01CBF40F21110844209D0B4F58A7F1FBFA0
S315080005F040F20520844240F20320844201D10120C2
S3150800060000E0002001F05AF9002010BD931D0008F3
S31508000610CF1D00081D0400082D04000881040008E9
S315080006201148012181604EF6BE2141600121016019
S3150800063070470E49012008607047F0B5C20892025B
S315080006400B4CA518830010F0040014BF6E68A6585A
S3150800065003F00C030F279F40BE439940314308B16E
S315080006606960F0BDA150F0BD006000400860004020
S3150800067000B00040C108032908DA012100F007028A
S315080006809140C008104A02EB802001607047C108FB
S31508000690032908DA012100F007029140C0080B4A35
S315080006A002EB802001607047C10803290ADA084A6C
S315080006B002EB812101230A6800F0070003FA00F023
S315080006C0504008607047000014B0004010B0004069
S315080006D00CB0004030B5044610467F2808BF0020FD
S315080006E04BF23462914283B01AD108237F2240F636
S315080006F012016846FFF7EEFF08220FF23C01684632
S3150800070001F040F930B908237F2240F2A271684609
S31508000710FFF7E0FF08226946204601F013F937BDC6
S31508000720044D294300FB03111A46204601F00AF935
S3150800073037BD000000000408FFFFFFFFFFFFFFFFB3
S3150800074007490A68032809D34B6D43F001034B6533
S315080007500B689B1AC3F313038342F9D3704700004F
S315080007603820004010B5044602E0FF2001F01CF9CD
S315080007702046441EC0B20028F7D110BD10B5044665
S3150800078001E001F017F92046441EC0B20028F8D14E
S3150800079010BD10B504462002000E01F005F920042C
S315080007A0000E01F001F9E0B2BDE8104001F0FCB816
S315080007B010B501F0FFF8044601F0FCF840EA042001
S315080007C010BD80B501E080B5FF2001F0EDF8BDE869
S315080007D0014001F0EFB838B501F0F3F89F20FFF7B4
S315080007E0F0FFFFF7F0FF04460220FFF7BBFFFFF715
S315080007F0DFFF054601F0E7F8012C0AD01F2C3ED092
S31508000800202C4FD09D2C60D0C22C15D0EF2C06D0B2
S3150800081072E044F2140085426ED1012032BD43F2E3
S315080008201200854204D044F21400854202D063E0E7
S31508000830022032BD032032BD42F212002D1A10D01A
S315080008406D1E10D06D1E10D06D1E12D04FF4A46010
S315080008502D1A10D040F2DF202D1A08D0ED1E0CD02C
S315080008604AE0042032BD052032BD062032BD0720ED
S3150800087032BD082032BD092032BD0A2032BD44F2FD
S315080008800140854208D044F20150854208D048F21A
S315080008900140854202D02FE00B2032BD0C2032BD2C
S315080008A00D2032BD42F212002D1A06D06D1E06D05A
S315080008B06D1E06D06D1E06D01EE00E2032BD0F201E
S315080008C032BD102032BD112032BD44F209002D1A66
S315080008D008D0ED1F08D06D1E08D06D1E08D06D1EFD
S315080008E008D009E0122032BD132032BD142032BDD3
S315080008F0152032BD162032BD002032BD80B501F06C
S3150800090060F80620FFF75DFFBDE8014001F05BB81F
S3150800091080B500F0E3F90028FBD1FFF75CFF401E25
S3150800092015284ED8DFE800F00B0E1114171A1D20F3
S315080009302326292C2F3235383B3E4144474A0FF2AD
S31508000940C03002BD0FF2D03002BD0FF2E43002BD56
S315080009500FF2F43002BD0FF2084002BD0FF2184044
S3150800096002BD0FF22C4002BD0FF23C4002BD0FF251
S31508000970504002BD0FF2604002BD0FF2744002BD46
S315080009800FF2844002BD0FF2984002BD0FF2A84054
S3150800099002BD0FF2BC4002BD0FF2CC4002BD0FF201
S315080009A0E04002BD0FF2F04002BD0FF2045002BD56
S315080009B00FF2145002BD0FF2285002BD0FF2385044
S315080009C002BD002002BD000010B5044600F086F9FD
S315080009D00028FBD114B9FFF7FEFE05E020780100D8
S315080009E002D1FFF7F8FE2070401E152824D8DFE84C
S315080009F000F01A141A14171A1A1D1D2017171A149C
S31508000A00171A1D0B0E1114174FF4004010BD4FF4A2
S31508000A10803010BD4FF4003010BD4FF4802010BD5B
S31508000A204FF4002010BD4FF4801010BD4FF4001095
S31508000A3010BD4FF4000010BD002010BD10B500F029
S31508000A40D9FF00F0C4FF00F0EAFF00F0E9FF42F228
S31508000A501074204600F0E0FF00F0B3FFAB20FFF76C
S31508000A60B0FE00F0B0FF204600F0D6FFFFF7B3FE59
S31508000A7008B9862010BD0B3803280BD2FFF73EFFB6
S31508000A8000F09FFF0120FFF79CFE0020FFF799FE6C
S31508000A9000F099FF002010BD10B50C18B4F5802F92
S31508000AA001D8012010BD1046FFF78EFFA0428041F5
S31508000AB0C043C00F10BD10B50C46FFF782FE204696
S31508000AC0FFF767FEBDE81040032057E670B50D46F0
S31508000AD000F076F808B9852070BD00F0FFF8002808
S31508000AE0FBD100F06EFF21460320FFF7E4FF03E089
S31508000AF0FFF769FE05F8010B3046461E80B200284E
S31508000B00F6D100F060FF002070BD2DE9F84F894648
S31508000B1000F056F808B9852050E0374600F0DEF8B0
S31508000B200028FBD100F04DFF21460320FFF7C3FF45
S31508000B303846471E80B228B1FFF745FEFF28F7D092
S31508000B4087203BE000F03FFF200640F201174FF4F4
S31508000B50807808D0200A000200F580703119814299
S31508000B6003D3051B04E0BE4201DA354600E04546DC
S31508000B70300022D0AB46CA4600F0B0F80028FBD1B8
S31508000B80FFF7BCFE00F01DFF21460220FFF793FF8A
S31508000B9003E01AF8010BFFF714FE5846A0F1010B03
S31508000BA080B20028F5D1761B00F00DFFADB22C19E6
S31508000BB0B6B2BE42A944DADAD7E70020BDE8F28F1A
S31508000BC0164604460022314666E780B500F086F8E8
S31508000BD00028FBD100F0F5FEB920FFF7F2FD00F082
S31508000BE0F2FEBDE8014000F01CBF38B504460D46CC
S31508000BF000F074F80028FBD1FFF780FE00F0E1FE54
S31508000C0029462046FFF757FFBDE8314000F0DBBE16
S31508000C102DE9F843044600208DF800000D46684685
S31508000C20FFF7D2FE9DF800108046A1F10E0240F6AD
S31508000C30FF764FF6FF70042A4FF48037814638BF97
S31508000C40064607D3A1F1120002283CBF4FF400471D
S31508000C5047F6FF79354218BF82203DD1344218BF86
S31508000C60812039D16A46A9B22046FFF715FF08B98F
S31508000C70852031E0BCB9454515D100F02FF800288C
S31508000C80FBD1FFF73BFE00F09CFEC720FFF799FD5E
S31508000C9000F099FE1FE021462020FFF7A6FF04F585
S31508000CA08054A5F58055002D18BF14EA090FF2D116
S31508000CB0BD420ED32146D820FFF797FF3C19ED1BFE
S31508000CC0F6E721462020FFF790FF04F58054A5F5A6
S31508000CD08055002DF5D10020BDE8F28310B500F04F
S31508000CE070FE0520FFF76DFDFFF76DFD044600F069
S31508000CF06AFE14F0010018BF012010BD00000000B4
S31508000D00020103009A01003C0010000000001000D8
S31508000D101C1E000801000000020103009A010008D9
S31508000D200010000000000400281E00080100000052
S31508000D30020103009A0100180010000000001000CC
S31508000D40341E000801000000020103009A01340F56
S31508000D500010000000000400401E0008010000000A
S31508000D60020103009A01001E00100000000008009E
S31508000D704C1E000801000000020103009A01003C15
S31508000D800010000000001000581E000801000000B6
S31508000D90020103009A01007800100000000010000C
S31508000DA0641E000801000000020103009A01007891
S31508000DB00010000000002000701E0008010000005E
S31508000DC0020103009A0100500010000000002000F4
S31508000DD07C1E000801000000020103009A0100C001
S31508000DE00010000000008000881E000801000000B6
S31508000DF0020103009A01001C001000000000080010
S31508000E00941E000801000000020103009A01003048
S31508000E100010000000000800A01E000801000000E5
S31508000E20020103009A010070001000000000100083
S31508000E30AC1E00080100000002010300000C0018A7
S31508000E400000010000000400B81E000801000000B0
S31508000E5002010300000C0028000001000000080041
S31508000E60C01E00080100000002010300000C00502B
S31508000E700000010000001000C81E00080100000064
S31508000E8002010300000C00A0000001000000200081
S31508000E90D01E000801000000020103009A010002AA
S31508000EA00010000000800000D81E000801000000A5
S31508000EB0020103009A01000400100000000001006E
S31508000EC0E41E000801000000020103009A01000662
S31508000ED00010000000000200F01E000801000000DB
S31508000EE0020103009A010008001000000000040037
S31508000EF0FC1E000801000000020103009A01000C14
S31508000F000010000000000800081F0008010000008B
S31508000F1080B527486821416102218160012101606D
S31508000F2009200921FFF789FBBDE8044004210A20AE
S31508000F30FFF783BB1F4800684006FBD570471E496C
S31508000F40CA685207FCD50860704710B5044603E026
S31508000F5014F8010BFFF7F3FF20780028F8D110BD2D
S31508000F6010B5044600090A28ACBF37303030C0B285
S31508000F70FFF7E5FF04F00F000A28BDE81040ACBFF4
S31508000F8037303030C0B2DAE70A48006810F002009D
S31508000F9018BF0120704710B50446FFF7F5FF20B1CA
S31508000FA0054800682070002010BD012010BD000013
S31508000FB054C8004048C800403CC8004080B5684650
S31508000FC0FFF7E9FF0028FAD001BD000001700122F1
S31508000FD001290CBF80214021818042700021827046
S31508000FE0C1800181204801600E218162016821F0DB
S31508000FF010010160002141634162426170472DE999
S31508001000F041194F194E044600F032F890464FF059
S31508001010FF303060C7F82C80002078620D463868AB
S3150800102040F001003860FFF704FB012C0FD135B9F9
S31508001030FFF7AAFF00F0010080F0010002E0284651
S31508001040FFF7A9FF28B900F013F800200AE00120ED
S3150800105008E03068C007E6D55FEA0800E3D000F08C
S3150800106007F81620BDE8F08100E0004000A800401F
S315080010703868400840003860704738B504460D4661
S3150800108000F009F800F007F82A462146BDE838407E
S315080010901820FFF7F7B92A4621461820FFF7F2B9B4
S315080010A070B5044682B0002020814AF6B432207812
S315080010B06946FFF7A4FF08B11C2076BD9DF800001D
S315080010C0032818BF182801D1182076BD042801D195
S315080010D0172076BD012801D0212076BD002500E025
S315080010E06D1CA188EDB2091D8D420BDA601900F15D
S315080010F00A01207840F2DD22FFF781FF0028EFD0B1
S31508001100262076BD0025002006E00146EDB26019CE
S315080011106D1C007B00F086FCA288E9B29142F4D3EC
S31508001120A37AE17AC918FF2901D0222076BDA5182D
S315080011302E7BB6EB102F01D0232076BD697BC0B27B
S31508001140814201D0242076BDA078834207D0401E74
S31508001150C0B2834201D1272076BD252076BD901CDA
S3150800116020810220E080002076BD38B504466078EC
S31508001170012804D040D303283CD033D33CE0207860
S31508001180012816D13B256846FFF705FF0028FAD047
S315080011904320FFF7D4FE207840F2DD220021FFF736
S315080011A02EFF30B12846451EC0B20028F0D11B20BC
S315080011B032BD022060702046FFF772FF050018BF97
S315080011C0FFF7FCFE272D19D1A0782278411EC9B257
S315080011D00620FFF757F9002DEDD10320FFF738F861
S315080011E0002032BDFFF7EAFE00F023F8A078401C85
S315080011F0A070E0E7172032BD182032BDA80603D537
S315080012002278A1781520E4E7680603D4182D18BFBC
S315080012101C2D07D121782846FFF72FFF0420607080
S31508001220284632BD172DD6D100F003F8032060708A
S31508001230E0E72278A1780620FFF724B9F8B5044636
S315080012400D4616461F4607E03046A047294600F0D9
S31508001250FCFB05467F1E761CB8B20028F4D128464A
S31508001260F2BD38B50C46154605E0014614F8010BE3
S3150800127000F0EBFB6D1EA9B20029F6D132BDF8B518
S3150800128007460E4614461D4630683B682A462146E0
S315080012909847070005D1F0682A462146FFF7E1FF7F
S315080012A0F060D6F8A8002818C6F8A80096F8A7008F
S315080012B050B1AC362A462146304600F09BFC2A46F9
S315080012C02146304600F016FC3846F2BD70B58AB0A5
S315080012D004460E98A072238162600D460222286891
S315080012E06946FFF7F3FBBDF8000048B328682022DB
S315080012F001A9FFF7EBFB00200FF2B05101AA0B5C26
S31508001300125C9A421CD1401C0828F7DBBDF80C0079
S3150800131040BAA8B9079801BA202911D306BAFFF727
S31508001320F7FAC06886420BD2202201A94FF0FF3097
S31508001330FFF797FFBF49884202D1079800BA28608D
S3150800134025604FF0FF30E06000210020207428223D
S3150800135004F1A4000180802181700021C1704160E0
S3150800136004F1AC0000F007FB0AB070BD2DE9F84F98
S315080013708B4604469BF81B70D068AE49802FA8BFE1
S31508001380802788421E4653D1002E4FD0B068009061
S315080013904FF0FF384FF000090BEB490000F1480AFF
S315080013A09AF800500DE0FFF744F9E80240F00062B1
S315080013B000984FF400634146FFF740FF6D1C8046D6
S315080013C0ADB29AF80100A84205DA09F10109B9F1A6
S315080013D0060F02DAE0E7FF2DE5D1DBF844006FEAF5
S315080013E00801884224D1A068736800BA7A08594669
S315080013F09847C8B9E06805BAA06802BAB0683B461B
S315080014004FF0FF31FFF71AFFC04385420CD140F673
S31508001410A720ABF810000122A068736800BA0BF188
S3150800142010011030984708B1422002E0172000E06A
S315080014304320BDE8F28F2DE9F04F894609F10406ED
S3150800144083B08046D6F800B0B088ADF800001446E0
S3150800145004235A464046FFF712FF010010D1BBF895
S31508001460000040BA80B20190BBF8020047BABFB28A
S31508001470F80706D501984FF20861884218BF46203A
S315080014807DD1B7F5026FC8BF4E2078DC002F75D026
S315080014900198DFF8A4A109F13C0560B14FF2086193
S315080014A0401A70D040F2FC51401A67D0FF387CD001
S315080014B0FE387AD0BBE0307B08B151205FE08D2F33
S315080014C028BF4F205BD23B4609F1180249464046E1
S315080014D0FFF7D5FE010052D1EA78802AA8BF8022FC
S315080014E002F10C00874201BFB08A40BA00F47F407F
S315080014F0B0F5007F45D1F08A40BA4EF250318842A5
S3150800150002BF308E40F6A72188423AD1708E00F489
S315080015107F41B1F5807F01BFB16909BADAF81C309D
S3150800152099422ED1BAF8181040F2032399420DD1E8
S31508001530B0F5847F25DB686C410522D13F49081A3E
S31508001540B0F5303F1DD8B0F5005F1AD34FF6FF70DF
S31508001550308609F124014FF0FF30FFF782FEF1696A
S3150800156009BAC943884204BF2878042809D168788B
S315080015701B2818BF062804D1012030730020BDE8B7
S31508001580FE8F4520FBE7307B88B1BDF80000874217
S31508001590B4BF3C460446234600F052F80100EED19B
S315080015A03F1BBFB2002FF0D1E8E7307B08B94120D6
S315080015B0E5E7042300F044F80100E0D1DBF8000079
S315080015C006BADAF81C003F1F8642BFB238BF482069
S315080015D0D5D3E96BB819884228BF4920CFD20198DC
S315080015E04FF6035188420AD14CB12268314602208F
S315080015F0904720B14A20C2E77F1BBFB2AE19002F21
S31508001600BCD0BDF800008742B4BF3D4605462B4610
S3150800161000F016F80100B2D1002CEDD063686A0814
S315080016205946304698470028E6D04B20A7E744207D
S31508001630A5E70000E320BBDE000000080000030861
S315080016405A46494640461AE62DE9F04715462E1DE4
S315080016500446B6F804A0102C894638BF4E2031D36C
S3150800166005F1AC080423424600F02EF8010029D102
S315080016700C2305F1B00200F027F8010022D1D5F8B5
S31508001680AC0000BA103CC5F8AC00A4B221464046EE
S3150800169000F0F8F905E031683A46404600F02AFAC3
S315080016A0E41BA0B250B1A7B2574588BF5746326867
S315080016B03B4600F009F80100EDD003E0404600F093
S315080016C03CFA0020BDE8F08729464846D7E52DE9CB
S315080016D0FE4F8346884608F1A40608F10404B0784C
S315080016E02568832891464FF6071A05D1B7888222BE
S315080016F050465146B2700DE004232A465846FFF775
S31508001700BEFD01006AD12888698840BA80B24FBAFE
S31508001710BFB20146FA0706D54FF6062291421CBF0C
S31508001720514546205AD14FF20972B178801A56D0DF
S315080017304FF4FF72801A37D0FF382CD0FF3802D00A
S31508001740FF3868D07FE0802967D1062F20D306238B
S3150800175001AA41465846FFF792FD010019D1BDF886
S31508001760040040BA00F47F40B0F5007F01BFBDF821
S31508001770080040BA4EF25031884209D1BDF8060039
S3150800178041BA012903BF40BA30800020522000E048
S315080017904520812155E081293FD1424659463846A0
S315080017A0FFF752FF82214CE0822936D1042F2DD330
S315080017B00120F0704A460020706041465846FFF7FF
S315080017C03AFE010022D10021F17071688F421DD3C3
S315080017D0B94239D28322791AB270716034E082290B
S315080017E01BD108F1AC09484600F0A7F9A088B84211
S315080017F0B8BF4F2028DB3B4600F028F8010023D16C
S31508001800FAB22946484600F0BEF908B954201BE04A
S315080018100020842115E0842901D0512014E0042FEA
S3150800182018BF4C2010D1042300F010F801000BD18A
S315080018304B46424608F1240108F11400FFF796FDCD
S315080018408521B17000E04420BDE8FE8F2A46414656
S31508001850584614E570B50D4604462889802816466C
S3150800186001DA4F2070BD00F001F908B9532070BDA8
S31508001870324629462046FFF72AFF002818BF1728B0
S3150800188003D08F2185F8A61070BD95F8A600852887
S3150800189006D1286861688847172805D1002070BDD9
S315080018A0A87A0028E4D0502070BD0000534C41426D
S315080018B04942522000000000FEF78CBD10B50446D0
S315080018C00020FEF7C5FC24BB0020FEF74FFE50B9EA
S315080018D00120FEF74BFE30B90520FEF7B9FC40F2B1
S315080018E00120FEF771FC0420FEF7B2FC0120FEF78A
S315080018F0AFFCBDE8104040F20320FEF765BC0FF2CE
S315080019003400FFF722FBFFF715FB40F20220FEF733
S315080019105BFCFEF7C0FD0400F1D00FF22000FFF7D4
S3150800192014FB2046FFF71CFB01A0FFF70EFBF0E7B0
S315080019300D0A00000D0A4F6B0D0A00000D0A4552EC
S3150800194052200000814212D210441144401E491E02
S3150800195093B2002B1EBF11F8013900F80139521E47
S31508001960F6D1704711F8013B00F8013B521E93B2BD
S31508001970002BF7D17047130003D00A46194600F02A
S3150800198065B9704710B500E0521E93B223B100F056
S3150800199005F8F9D0181B10BD002010BD10F8013B42
S315080019A011F8014BA342704717494A685207FCD5FC
S315080019B008607047144841688907FCD50068C0B2BA
S315080019C07047124900E0124910200860704780B538
S315080019D009210920FEF731FE04210A20FEF72DFE13
S315080019E009210B20FEF729FEBDE8044001210C2041
S315080019F0FEF723BE07480021C1600161416010213E
S31508001A0041600221016070473CC8004014B40040A0
S31508001A1010B4004054C8004080B2FEF791BE70472B
S31508001A20704770470A46090241EA12214840C0F346
S31508001A300311484080EA003041010206C9B2D20EBD
S31508001A4041EA0221484080B270470A0A484000F03D
S31508001A50FF0008214308C00746BF034858401846F8
S31508001A60491EF7D1504070472083B8ED00206049E1
S31508001A70095CFF2901D001207047401C1028F6DBBD
S31508001A800020704712B5044683B02068039900BA4F
S31508001A9000903A2001B17A2020740C22211D04F10D
S31508001AA01100FFF74FFF03220DF1010104F11D009C
S31508001AB0FFF748FF00F03CF80398D0B1B0F57F4F28
S31508001AC005D200BA039002220DF10E010EE00FF2C4
S31508001AD078100088ADF804000222039800BA039033
S31508001AE001A9204600F006F8042203A9204600F0C2
S31508001AF001F81FBDF8B504460D461646002714E042
S31508001B0094F82500EA5D2044017C5140017494F85C
S31508001B102500401C84F82500C0B2102804D300F024
S31508001B2007F8002084F825007F1CB742E8D3F1BDEA
S31508001B302F4904F1100000F0F3B81FB504466846B3
S31508001B40102100F0F7F894F82500C0F11000C11034
S31508001B5000EB11710911A0EB011269462046FFF747
S31508001B60C9FF1FBD1FB50C46011D6A46002000F0BF
S31508001B7027F80020215C1DF8002051402154401C04
S31508001B801028F7DB1FBD38B5102A04460D4607D1C5
S31508001B90216A94F82420206802EB0111884201D0BA
S31508001BA0002032BD29462046FFF7DCFF102204F14B
S31508001BB010012846FFF7E6FE401E8041C00F32BDE1
S31508001BC011B581B000BA01901446022020700C228B
S31508001BD0601CFFF7B7FE03220DF1050104F10D00A5
S31508001BE0FFF7B0FE0249204600F09AF813BD000040
S31508001BF0F80804082DE9FF4104460D4690460020E2
S31508001C00002704F120061AE0010006D130686A466A
S31508001C10211D401CFFF7D4FF01203379E95D1DF82B
S31508001C2003205140E9553179491CC9B2102904DB12
S31508001C303068401C30600021002031717F1C474508
S31508001C40E2D3BDE8FF810000FFFE000062F30F2229
S31508001C5062F31F42401810F0030308D0C91A1FD3B5
S31508001C60DB0748BF00F8012D28BF20F8022D130016
S31508001C7030B414461546103928BF20E93C00FAD876
S31508001C80490728BF20E90C0048BF40F8042D890001
S31508001C9028BF20F8022D48BF00F8012D30BC704738
S31508001CA0C91818BF00F8012DCB0728BF00F8012D69
S31508001CB0704700000268174912BACA60426812BA29
S31508001CC08A60826812BA4A60C06800BA08607047BB
S31508001CD010B5114980220A600623104A13600723AB
S31508001CE00B6013689B07FCD5002350F823405B1C48
S31508001CF024BA042B8C62F8D313685B07FCD5002240
S31508001D000B6B1BBA40F82230521C042AF8D310BDBC
S31508001D1000000000383000400030004010A00040AD
S31508001D2010B504460846FFF7C5FF2046BDE8104033
S31508001D30CEE70000002200F001B8000000B500BFA1
S31508001D40130096469446103928BFA0E80C50FAD8D6
S31508001D505FEA417C28BF0CC048BF40F8042BC9077E
S31508001D6028BF20F8022B48BF00F8012B00BD000051
S31508001D702748018A40F6A772914202BF408A4FF46B
S31508001D807F41084203D1022801DB01207047002069
S31508001D907047F8B504461D4E012030700D46FFF712
S31508001DA0E7FF18B94FF40170FEF70EFA1848876A6C
S31508001DB0294644F48070B847002131700FF2540662
S31508001DC018B9294644F40070B847305CF2BD2DE9CD
S31508001DD0F041044688465600FFF7CAFF18B94FF483
S31508001DE00170FEF7F1F90A480FF22805476A002341
S31508001DF0324641462046B84720B933460022414676
S31508001E002046B847285CBDE8F0810000BC0C0020DD
S31508001E1000000408000202024B4B4647533235467F
S31508001E204C3230384B000000573235583230425663
S31508001E300000000057323551383042560000000085
S31508001E404D5832354C323030364500004D58323513
S31508001E504C343030364500004D5832354C38303029
S31508001E60364500004D583235523830333546000075
S31508001E704D5832354C313630364500004D583235DE
S31508001E8055313633354500004D58323552363433E0
S31508001E90354600004154323544463034314100005D
S31508001EA041543235534630343100000041543235FE
S31508001EB044463038314100004D323550323000004A
S31508001EC04D323550343000004D3235503830000030
S31508001ED04D32355031360000495332354C51303287
S31508001EE035420000495332354C51353132420000F3
S31508001EF0495332354C51303130420000495332355E
S31508001F004C51303230420000495332354C5130344E
S31108001F1030420000EE0800000100FFFF50
S705080000757D
