S021000073657269616C2D756172742D6F74612D626F6F746C6F616465722E733337A1
S31508000000000400207500000881000008810000082F
S31508000010A70B0A0100000000030154610020000834
S31508000020041A0300AF0F000875120008C40600087A
S3150800003000000000000000000000000000000000B2
S3150800004000000000000000000000000000000000A2
S31508000050FFFFFFFF05480068202100EA010020B1E4
S315080000600348016842688D46104770472C000040D7
S3150800007000200008FFF7EEFF00F00DF800F040F84A
S3150800008005E00000854670474248008870474FF4EF
S31508000090017000F099B838B500F0C0F84FF20F04B7
S315080000A03D4D28B140F2052028806C80012032BDE4
S315080000B03A480068C00615D56888A0421ED1288827
S315080000C040F2022188421CBF40F20621884215D020
S315080000D040F2011188421EBFB0F58A7F40F2111125
S315080000E088420BD02E4C208A40F6A721884205D19B
S315080000F02068FFF7C7FF6068804700BF002032BD51
S3150800010038B50400274872B60168490849000160F5
S3150800011000F0D4F821480068000910F001000CBF6F
S315080001202149224902E0CD2201F8012B204A9142B9
S31508000130F9D32049204A214B03E011F8015B02F864
S31508000140015B9A42F9D31E491E4A002301E001F8D1
S31508000150013B9142FBD3104A53884FF20F05AB423D
S3150800016040F205210AD113888B4205D030B1180A0E
S31508000170012818BF022801D1194601E004B9002157
S31508000180044801804CF23C30508000F075F9BDE817
S3150800019032407CE72C0E0020000000202C00004096
S315080001A000200008FCED00E0000000209800002078
S315080001B000040020D81F0008000400201C040020AA
S315080001C01C0400205A0F00200D4A302111600D4AE8
S315080001D0116010210C4A1160010A00290B4908BF59
S315080001E0000208804FF20F004880BFF35F8F08486F
S315080001F00021016041600748074908607047000010
S315080002003020004030C8004010D0004000000020D8
S315080002101C4000400400FA050CED00E00020704781
S3150800022080B500F053FA00F0A1FA38B1092115207B
S3150800023000F059FA0921162000F055FA0121152077
S3150800024000F051FA152000F07AFC0121072000F091
S315080002504AFA072000F066FC1648016821F01001EA
S31508000260016001BD052800D9704710B5DFE800F028
S315080002701721030F1C17104C2088411E2180C0B976
S31508000280072000F069FC42F21070208010BD07209C
S3150800029000F055FCBDE81040152000F05DBCBDE837
S315080002A01040152000F03EBCBDE81040152000F0B7
S315080002B046BC10BD00BC00402E0E002055495120FA
S315080002C00860704738B55449C9780429B4BF302442
S315080002D060244FF4F071B1FBF4F1451A1E2DBCBF32
S315080002E04FF40170FFF770FF4C484D4A0721016033
S315080002F00021416081604FF00071116005FB04F137
S31508000300C91C8908491E416031BD434A0121517003
S31508000310D8E72DE9F041444F424D78883E4E4FF6D6
S31508000320FF78404540F2DC541CD14048018802233E
S315080003307F22B81C00F026FC7888404504BF0220BE
S315080003407880A869800703D4A86940F00200A861EC
S315080003500120B070788828602046FFF7D6FF20462F
S31508000360BDE8F081A8698007EED52C480068C0036F
S3150800037048BF00F03BF8B0780028F0D1A868A96813
S315080003807A8810F0010003D10F2A08D2521C06E021
S31508000390890704D5397811B1032AA8BF424492B215
S315080003A0022A3870B8BF02227A802868798888427B
S315080003B0CED1A86900F00300032808D0A86915491A
S315080003C040F00100A8610120E86151200860002082
S315080003D0C6E710B5044601E000F038FC2046FFF7F2
S315080003E098FF0100F8D110BD0220F2E70B480C4A2D
S315080003F0002141608160016821F00201016000214D
S31508000400054841704FF000711160817809B10021EB
S315080004108170704700800040500F002010E000E017
S3150800042004ED00E00440004012040020D21F00083A
S315080004300078704730B5DBB00446214636A800F090
S315080004401DFC002000904FF402638A4A36A901A8D1
S3150800045000F0ADFD0FF260220FF2682001A900F04E
S3150800046009FF054600F03BF928001CBF214600F0AD
S3150800047062FC28465BB030BD80B5FFF7B5FF00F0DB
S315080004802BFF01F005F8FFF7CBFE01F025F801F088
S31508000490B1F840F20120FFF797FE002002BDF8B53B
S315080004A004460F461546744E0FF2E4111D223046D7
S315080004B001F0DEF90A227149301D01F0D9F97048B8
S315080004C0018808237F2206F10E0000F05BFB522C00
S315080004D0B4761BD13520307006220FF2D41106F1FE
S315080004E02E0001F0C5F90120F0760223654801883F
S315080004F07F2206F11C0000F045FB634801881023A3
S315080005007F2206F11E0000F03DFB02E01D20307040
S31508000510F776012D04D12046BDE8F24000F0F3BF7E
S315080005203046BDE8F24000F055BFF8B5574C601CA0
S3150800053000F0B7FF112821D101F0DBF9400800F0DF
S3150800054085FB0A2508264D4F08226119B81C01F0BB
S315080005508FF90222A119384601F08AF97878397894
S3150800056001EB002080B200F0CEFE0120B873022213
S31508000570BDE8F8400021522091E7F1BD1528FCD1CD
S315080005800E250426DFE72DE9F04180463B4C3F4E19
S3150800059000206073304600F0D4FEC0073AD5701CC0
S315080005A000F07FFF070035D07D1CEDB204220FF264
S315080005B0F601701901F075F960BB281D2073C0B2E9
S315080005C0305C01280DD003281CBF0428182811D038
S315080005D0512808BFB8F1000F1CD1FFF7A6FF00206D
S315080005E019E045206073A07B90B1112F07D106F161
S315080005F00A0008E0B8F1000F0CD00120F2E7152F29
S3150800060006D106F10E000822A11C01F04AF910B124
S31508000610002060730120BDE8F08138B5174C054607
S31508000620607B10B90120FFF7AEFF607B50B1207BDD
S315080006301649095C2970401C2073607B401E607354
S31508000640002032BD012032BD0C4800214173817360
S315080006500020704780B50020FFF795FF38B9074995
S315080006600A48097B405C012801D1002002BD01200F
S3150800067002BD0000EC040020B8040020A8040020F5
S31508000680D61F0008CE1F0008CC1F00081C04002037
S315080006900063CC00FFFF0000000000000000FFFF21
S315080006A0FFFFFFFFFFFF7C656D01000000000000F3
S315080006B000041A03615400003B1F0008771F000856
S315080006C031040008F90E0008330F0008114801210B
S315080006D081604EF6BE2141600121016070470E49D6
S315080006E0012008607047F0B5C20892020B4CA518A5
S315080006F0830010F0040014BF6E68A65803F00C03BC
S315080007000F279F40BE439940314308B16960F0BD49
S31508000710A150F0BD006000400860004000B00040F5
S31508000720DFF8303398600120186000201860586898
S315080007300028FCD118691040C8407047DFF8143308
S315080007409860012018600020186058680028FCD1BD
S31508000750114018699043084380B2D8600220186097
S315080007600020186058680028FCD17047DFF8E802B6
S3150800077000787047DFF8E022DFF8E0021278DFF849
S31508000780E0120AB149780EE0895611F1090FB8BF8F
S31508000790302108DBC16D39B1C26D40F24A31B1FB77
S315080007A0F2F189B2C91E01607047F8B50546B5F57C
S315080007B0004FAB4C19D1AB480188022300F078F9F9
S315080007C0BDF80000000AFF2801D0010000D118205A
S315080007D06070BDF800000006C00E10281CBF001D82
S315080007E000F0CAF8BDF80000C5439B4E707808B102
S315080007F0002005E0A089ADB26840C00701D50120F8
S3150800080070709948A58105F00104016841F400411A
S3150800081001604FF440520FF2083000EB4400C5F374
S3150800082040074078010389B22020FFF787FF20465A
S3150800083001F070F84022B90100F032F92D06A80E31
S3150800084000F0010038433070FFF794FF0020F2BD36
S315080008502DE9F04F864D8748007885B0A0F10B0446
S31508000860287801280CBF0026012601F0B3F8824833
S315080008700078E4B220B900F015F9BDF8029002E05C
S315080008807E4890F808907E4FDFF8F8B138687E49C0
S31508000890400800F0010ADBF8000000F4E0684FF4B5
S315080008A0E0600860002001F071F93EB13868400840
S315080008B0400038600120287000F0C8F9287801281F
S315080008C008D1386840F0010038600020287064209C
S315080008D000F0BCF96D4D286820F48050286028681F
S315080008E040F40050286001F0C5F906465F48418883
S315080008F00122A24091434180CBF8008001F016FA0C
S31508000900504601F043F901F0C0FA48F260702860D9
S31508000910642000F09BF9F0B201F084F95FFA89F0DF
S3150800092001F0C0FA05B0BDE8F08F01F07BBA38B522
S31508000930054601F011F9A5F10B001028A5F10B04E5
S3150800094001D38A2032BD52488168090702D400685B
S31508000950C00701D58C2032BD464805704D48016850
S315080009600C2907D00FF25011A4B231F82410C16136
S31508000970FFF76EFF002032BD2DE9F041044614F161
S315080009802B0F86B045DB00F08DF8BDF810004FF64A
S31508000990FF71884203D0400448BF012606D43F228F
S315080009A00021F020FFF7BCFE0546002604F12B02C5
S315080009B02F2A2B4838491AD213220FF23C1300E08B
S315080009C0521ED2B213F91270BC42F9DB03EB420491
S315080009D0032764780C60002413F8121001700021B4
S315080009E08846C6B1BDF810104FF6BF722AE0092C2A
S315080009F00FDA025D0A60047014232848018800F0A3
S31508000A0057F84FF4C0514FF480744FF080082827E8
S31508000A10E7E78B201BE04FF4605200F041F84FF4F3
S31508000A20E062214600F03CF88022414600F038F8A2
S31508000A3085F020003D18ADB2402DA8BF3F253F22C6
S31508000A4085F0200100F02CF8FFF794FE002006B090
S31508000A50BDE8F081E8100040550F00206410004002
S31508000A6000040020D01F00081C100040300E002093
S31508000A701B04002016040020360E0020000000206B
S31508000A808020004000E100E080E100E0D010004056
S31508000A9060200040AC100040C0100040C61F00088F
S31508000AA0A0204BE6004801E0C41F00080188142373
S31508000AB07F22684600F066B8AA2129005523290036
S31508000AC000252800AA26270055282700002A2600E0
S31508000AD0AA2B2600552D2500002F2400AA30240015
S31508000AE05532230000342200AA352200553721004A
S31508000AF000392000AA3A2000D500E601EC02EF03EF
S31508000B00F204F405F506F707F808F909FA0AFB0BE3
S31508000B10FC0DFD0FFE11FF1300160119021C031F21
S31508000B2000000103C108032908DA012100F00702C1
S31508000B309140C008104A02EB802001607047C10846
S31508000B40032908DA012100F007029140C0080B4A80
S31508000B5002EB802001607047C10803290ADA084AB7
S31508000B6002EB812101230A6800F0070003FA00F06E
S31508000B70504008607047000014B0004010B00040B4
S31508000B800CB0004030B5044610467F2808BF002048
S31508000B904BF23462914283B01AD108237F2240F681
S31508000BA012016846FFF7EEFF08220FF23C0168467D
S31508000BB000F077FE30B908237F2240F2A27168461A
S31508000BC0FFF7E0FF08226946204600F051FE37BDD0
S31508000BD0044D294300FB03111A46204600F048FE3F
S31508000BE037BD000000000408FFFFFFFFFFFFFFFFFF
S31508000BF010B504461D48018882B000F022F89DF819
S31508000C0000109DF80100FF2902BFFF2804200021DB
S31508000C102200174A136818BF801C23F46073C0B2F9
S31508000C200828A8BF072043EAC010106008291068E2
S31508000C30A8BF0721C00841EAC00010600D4804702B
S31508000C4013BD02237F226846FFF79CBF0A490A683C
S31508000C50032809D34B6D43F001034B650B689B1AB8
S31508000C60C3F313038342F9D370470000CA1F000871
S31508000C7018000040540F002038200040017001225F
S31508000C8001290CBF80214021818042700021827099
S31508000C90C1800181234801600E218162016821F02B
S31508000CA010010160002141634162426170472DE9EC
S31508000CB0F0411C4F1C4E044600F038F890464FF0A1
S31508000CC0FF303060C7F82C80002078620D463868FF
S31508000CD040F001003860FFF702FD012C0FD155B92D
S31508000CE000F062FC00F0010080F0010078B900F025
S31508000CF01DF8002014E0284600F05DFCF6E7022CFB
S31508000D0003D12846FFF789FCF0E7012008E03068A0
S31508000D10C007E0D55FEA0800DDD000F007F8162026
S31508000D20BDE8F08100E0004000A8004038684008AF
S31508000D3040003860704738B504460D4600F009F89B
S31508000D4000F007F82A462146BDE838401820FFF784
S31508000D50A6BB2A4621461820FFF7A1BB70B5044654
S31508000D6082B0002020814AF6B43220786946FFF71F
S31508000D709EFF08B11C2076BD9DF80000032818BF09
S31508000D80182801D1182076BD042801D1172076BD70
S31508000D90012801D0212076BD002500E06D1CA18820
S31508000DA0EDB2091D8D420BDA601900F10A012078AF
S31508000DB040F2DD22FFF77BFF0028EFD0262076BD24
S31508000DC00025002006E00146EDB260196D1C007B87
S31508000DD001F06EF8A288E9B29142F4D3A37AE17AD7
S31508000DE0C918FF2901D0222076BDA5182E7BB6EB9F
S31508000DF0102F01D0232076BD697BC0B2814201D075
S31508000E00242076BDA078834207D0401EC0B2834214
S31508000E1001D1272076BD252076BD901C2081022091
S31508000E20E080002076BD38B504466078012804D0F5
S31508000E3040D303283CD033D33CE02078012816D190
S31508000E403B25684600F0B7FB0028FAD0432000F09F
S31508000E505AFB207840F2DD220021FFF728FF30B147
S31508000E602846451EC0B20028F0D11B2032BD0220FC
S31508000E7060702046FFF772FF050018BF00F0AEFB52
S31508000E80272D19D1A0782278411EC9B20620FFF76E
S31508000E9006FB002DEDD10320FFF7E4F9002032BD53
S31508000EA000F09CFB00F023F8A078401CA070E0E757
S31508000EB0172032BD182032BDA80603D52278A1789E
S31508000EC01520E4E7680603D4182D18BF1C2D07D192
S31508000ED021782846FFF72FFF04206070284632BD88
S31508000EE0172DD6D100F003F803206070E0E72278CA
S31508000EF0A1780620FFF7D3BAF8B504460D4616467C
S31508000F00002707E0E088411C2044E180BFB2807AD0
S31508000F10E8557F1CB8B2B04209D2E08821898842D8
S31508000F20F0D32046FFF77FFF0100EBD0F2BD00208B
S31508000F30F2BD10B504462046FFF775FF0100FAD04A
S31508000F4010BD0000F8B504460D4616461F4607E0D4
S31508000F503046A047294600F0BEFF05467F1E761C90
S31508000F60B8B20028F4D12846F2BD38B50C46154665
S31508000F7005E0014614F8010B00F0ADFF6D1EA9B29D
S31508000F800029F6D132BDF8B504460D4616461F4669
S31508000F90286823683A4631469847040005D1E86828
S31508000FA03A463146FFF7E1FFE8602046F2BD10B544
S31508000FB0029C84720381426001604FF0FF31C16078
S31508000FC00021017410BD2DE9F84F8B4604469BF8A5
S31508000FD01B70D068A349802FA8BF802788421E4669
S31508000FE053D1002E4FD0B06800904FF0FF384FF025
S31508000FF000090BEB490000F1480A9AF800500DE089
S31508001000FFF76DFBE80240F0006200984FF40063BA
S315080010104146FFF797FF6D1C8046ADB29AF801006E
S31508001020A84205DA09F10109B9F1060F02DAE0E783
S31508001030FF2DE5D1DBF844006FEA0801884224D188
S31508001040A068736800BA7A0859469847C8B9E0682C
S3150800105005BAA06802BAB0683B464FF0FF31FFF701
S3150800106071FFC04385420CD140F6A720ABF81000AB
S315080010700122A068736800BA0BF110011030984776
S3150800108008B1422002E0172000E04320BDE8F28FB5
S315080010902DE9F04F894609F1040583B08046D5F855
S315080010A000A0A888ADF80400164604235246404618
S315080010B0FFF769FF010076D1BAF8000040BA80B29E
S315080010C00090BAF8020044BAA4B2E00706D5009820
S315080010D04FF20861884218BF462064D1B4F5026F02
S315080010E0C8BF4E205FDC002C5CD00098DFF878B1D2
S315080010F009F13C0748B14FF60441401A00F09880C0
S31508001100FF3854D0FE3852D0AAE0287B08B15120C7
S3150800111049E08D2C28BF4F2045D2234609F11802F5
S3150800112000F0A5F801003ED1FA78802AA8BF8022EF
S3150800113002F10C00844201BFA88A40BA00F47F403D
S31508001140B0F5007F31D1E88A40BA4EF25031884274
S3150800115002BF288E40F6A721884226D1688E00F461
S315080011607F40B0F5807F01BFA86900BADBF81C1084
S3150800117088421AD14FF6FF70288609F124014FF0EC
S31508001180FF30FFF7F2FEE96909BAC943884204BF8E
S315080011903878042809D178781A2818BF062804D17F
S315080011A0012028730020BDE8FE8F4520FBE7287B39
S315080011B000283FD0042300F059F80100F3D1DAF8EB
S315080011C0000005BADBF81C00241F8542A4B238BF0C
S315080011D04820E8D3F96B6019884228BF4920E2D233
S315080011E000984FF6035188420AD14EB13268294613
S315080011F00220904720B14A20D5E7E41BA4B27D1906
S31508001200002CCFD0BDF804008442B4BF2746074659
S315080012103B4600F02BF80100C5D1002EEDD07368CF
S315080012207A085146284698470028E6D04B20BAE760
S31508001230287B08B94120B6E7042C18BF4C20B2D148
S315080012402A68042300F013F80100ACD133464A4655
S3150800125009F1240109F1140003B0BDE8F04FB2E624
S315080012604420A0E7E320BBDE0000000852464946BA
S31508001270404688E670B50D460446288980281646F5
S3150800128003DA4F2070BDA87A78B932462946204637
S31508001290FFF7FEFE0028F6D0172807D128686168F0
S315080012A08847172802D1002070BD502070BD000065
S315080012B070B50D460446687800260146A05D00F024
S315080012C0F7FD06F0070120FA01F2A95D5140A15584
S315080012D0761C102EF1DB70BD80B5FEF7D5FE40F208
S315080012E00621884261490CBF012000200870604829
S315080012F082888A8082794A70C07988700020BDE821
S31508001300024000F083BB5B49086070475A495B4856
S31508001310486008608C304A6889324A60C8608860CC
S31508001320574AC8688930C8604FF6FF70106055483C
S31508001330026842F001020260102008630320086375
S3150800134070472DE9F84F4E4E376817F4105F804600
S315080013504FF0000A02D0FFF7D9FF38E017F0600F08
S31508001360454C28D0B80647BF256AD4F80090656A68
S31508001370D4F80890A8B209EB4000A0F1080B414840
S315080013800068800704D509F1010000F08AF890B1D9
S315080013909BF800009BF8011001EB002000F4B9400F
S315080013A0B0F5804F07D16A0092B24946404600F030
S315080013B05FFA4FF0010AB80603D501202063202002
S315080013C004E0780603D502202063402030605046AA
S315080013D0BDE8F28F2DE9F0412B4D0446286DC00774
S315080013E048BF8C2040D42948254E0178E170002753
S315080013F0491C0170202028624FF6FF784FF4807050
S3150800140070606C602C6068687F3068600920A86727
S3150800141004202862C6F8048000F06BFA00F00F007A
S31508001420C01CA8640D202865706810F0110FFBD049
S315080014307068C007ECD5607880060FD5706810F024
S31508001440820F04D130688004F8D5FFF75FFF706813
S31508001450800703D47F1CBFB2042FD9DB042FC6F83C
S315080014600480B4BF00200120BDE8F081360E0020BC
S315080014700000002090200040002000400C0D0020B5
S3150800148000A000408420004010200040570F002094
S3150800149080B50221684600F098FC009800F014FA1E
S315080014A001BD4178007800EB01204CF207010140AC
S315080014B04CF2030291420DD100F44461B1F5006F7C
S315080014C001D11120704700F44460B0F5446F01D192
S315080014D0152070470020704780B53D486821416156
S315080014E0022181600121016009200921FFF7FBF82B
S315080014F0BDE8044004210A20FFF7F5B8354800681E
S315080015004006FBD570473449CA685207FCD50860BF
S31508001510704710B5044603E014F8010BFFF7F3FF14
S3150800152020780028F8D110BD1CB50FF2C00205219D
S31508001530D2E90034CDE9003404220EE080B20A2351
S3150800154090FBF3F30A2404FB1304E4B2184604F1EF
S3150800155030030DF8013004B10A46491E49B2002984
S31508001560ECD5D2B20DEB0200FFF7D3FF13BD10B5D1
S31508001570044600090A28ACBF37303030C0B2FFF73E
S31508001580C2FF04F00F000A28BDE81040ACBF373090
S315080015903030C0B2B7E710B50446000AFFF7E7FFD8
S315080015A0E0B2BDE81040E2E70A48006810F0020021
S315080015B018BF0120704710B50446FFF7F5FF20B1A4
S315080015C0054800682070002010BD012010BD0000ED
S315080015D054C8004048C800403CC8004080B568462A
S315080015E0FFF7E9FF0028FAD001BD0000303030309F
S315080015F0300000002DE9F84FFFF771F8FFF7EEFF0E
S31508001600FFF722F80020FEF72DFE5C4C5C4D5D4E80
S315080016100FF2E8180FF2D8190FF2C41A0FF2541B7A
S315080016201DE00FF26410FFF774FF0C272888F840B6
S3150800163000F00F00FFF778FF012FA4BF2E20FFF759
S3150800164062FF3F1FF2D54CA0FFF763FF688EFFF7D6
S315080016506BFF0FF25010FFF75CFFFFF7BFFFFFF7B6
S315080016603EF80220FEF7FEFDFEF7F4FF10BB5046DB
S31508001670FFF74FFF0220FEF7DDFE074660B905209B
S31508001680FEF7F0FD4846FFF744FFFFF737FF012056
S31508001690FEF7E8FDBDE8F18F0420FEF7E3FD4046BE
S315080016A0FFF737FF3846FFF776FF5846FFF731FF53
S315080016B0FEF7CAFF2046441E18B9FEF7E5FCFEF7FA
S315080016C083FD6846FFF777FF0028C8D19DF800001C
S315080016D0FFF719FF9DF800000A2818BF0D28A0D0AB
S315080016E0312804D03228D2D033282BD0B5E70FF2D0
S315080016F01810FFF70EFF0120FEF79CFE07460FF2B3
S315080017001C10FFF706FF27B90520FEF7ABFD484674
S31508001710A1E70420FEF7A6FD0FF21410FFF7F9FE65
S31508001720B80648BF0FF2141005D478064CBF0FF25E
S3150800173024100FF23010FFF7ECFE3846FFF72BFFA8
S31508001740584688E75846FFF7E4FE308A002740F6F1
S31508001750A721884218BF0FF27800F2D1F0197F1C32
S3150800176090F824000100EBD0FFF7CDFEFFB2202F42
S31508001770F4DBE5E70D0A000020620000403CF803B0
S315080017801A000008002000080D0A454D333432209F
S3150800179053657269616C2F4F54412042746C2076F0
S315080017A0000000000D0A312E2075706C6F616420F0
S315080017B065626C0D0A322E2072756E0D0A332E2064
S315080017C065626C20696E666F0D0A424C203E2000E9
S315080017D02A2A206E6F20617070202A2A0D0A0000BE
S315080017E00D0A4F54412075706C6F6164200000002B
S315080017F0636F6D706C6574650D0A00006572726FB3
S3150800180072203078000000000D0A626567696E2054
S3150800181075706C6F61640D0A000000000D0A53654F
S315080018207269616C2075706C6F616420000000003D
S3150800183061626F727465640D0A0000000D0A584DE6
S315080018406F64656D20626C6F636B206572726F7270
S31508001850203078000D0A66696C65206572726F72B1
S31508001860203078000D0A6572726F72203078000099
S31508001870814212D210441144401E491E93B2002BD5
S315080018801EBF11F8013900F80139521EF6D170470A
S3150800189011F8013B00F8013B521E93B2002BF7D119
S315080018A0704710B500E0521E93B223B100F005F858
S315080018B0F9D0181B10BD002010BD10F8013B11F817
S315080018C0014BA3427047000001468AB20AB94BF69B
S315080018D0EF610F4A000C08BF4FF6CE2011805080EA
S315080018E070470288130448BF4A40510001801046D9
S315080018F0704738B5064C62212046FFF7F2FF0546C9
S3150800190041F20B01A01CFFF7ECFF684032BD000056
S315080019100E040020F0B5044689B00020FFF768F9E8
S3150800192024480FF29C0701880A237F226846FFF79E
S3150800193029F900264FF6FF7501E02A4616B94FF435
S315080019407C4203E0022E08BF4EF23F023DF8161015
S31508001950B85DFEF7F3FE761C052EEED3012C03D1F7
S3150800196014237F22144802E014237F221348018897
S315080019700FF2540703A8FFF705F900262A4608E0E0
S315080019802A46012E08BF4FF6C07202D0082E08BF9D
S31508001990002203A830F81610B85DFEF7CFFE761CB5
S315080019A00A2EEDD3012C04BF0120FFF721F909B057
S315080019B0F0BD0000C81F0008C61F0008C41F0008A5
S315080019C010F0B0C0D0000000112030406070809048
S315080019D0A0E0000010B50C48018884B00A237F22D5
S315080019E06846FFF7CFF8BDF800004FF6FF74A0422F
S315080019F004BF4FF40170FEF7E7FBBDF8001022465E
S31508001A001020FEF79BFE1FBDC81F0008F8B5044648
S31508001A10FEF78BFFDFF8E001DFF8C451DFF8DC6181
S31508001A20002101601521E960092101651F21416036
S31508001A3001210166DFF8BC010088FEF7B6FE00F05A
S31508001A4096F900F059FA00F08AF8DFF8B411DFF8D1
S31508001A50B401097819B902213170032101704FF6D2
S31508001A60FE716961DFF87471DFF89C1109882961D4
S31508001A70696841F0D201696090F90000FEF77CFFC1
S31508001A8097F9000000F08EF830780B30C0B2FEF7F8
S31508001A904EFF18B14FF40170FEF796FB012C04D1E6
S31508001AA02868C00748BF00F01FF85CB92868C00757
S31508001AB008D4286840F001002860C820FFF7C6F857
S31508001AC00020F870F120DFF82041206440F2F91078
S31508001AD0E06300F02BF92868C00704D54FF6FF70BD
S31508001AE0206000F034F8F1BDDFF820113B480A68A1
S31508001AF0C378012B00D1704710B548F2D0030B60AC
S31508001B004C68640509D548F222040C604C68E40563
S31508001B10F3D50B604B685B07EFD492B20A604FF4BB
S31508001B20E061324A116032490A6A520852000A6272
S31508001B300A68520852000A600A6842F002020A60FD
S31508001B404A6A42F001024A620121C17010BD4FF48F
S31508001B50E0602449086070472048C07870472C49DF
S31508001B604A780B782B4803EB022202608B78CA78F6
S31508001B7003EB022242600B794A7903EB0222826068
S31508001B80CA79897901EB0221C160704714490200BC
S31508001B900A6814BF42F0020222F002020A601E49D5
S31508001BA00870704780B57F280ED11C48018802232B
S31508001BB07F226846FEF7E6FFBDF80000C00554BF61
S31508001BC0BDF800006FF04A0040B200F19A0189059D
S31508001BD0134A090C11600149087001BD1804002058
S31508001BE08020004000E100E004A0004080E100E021
S31508001BF0602000400C0400205C100040370E0020D6
S31508001C00360E0020380E00203A0E00201C10004028
S31508001C10240E00209820004017040020D41F000836
S31508001C205410004081014FF4FE5289B2B020FEF7ED
S31508001C3085BD80B5394908B14FF0FF304860086066
S31508001C4000F023F9BDE804400621092000F017B981
S31508001C5038B50120FFF7EDFF04460020FFF7E9FF3E
S31508001C6005460120FFF7E5FF4042001B00EB450053
S31508001C7000B232BD2DE9F04F294C2A4EDFF8A88074
S31508001C8083B0A06A019048F2607025683768C8F882
S31508001C90000040F24C494CF24C00C8F83C00BFB278
S31508001CA00220A062ADB2012020604846FEF7CEFFB2
S31508001CB00120F06030600020FFF7B4FFFFF7C8FF8F
S31508001CC082467F20FFF7AEFFFFF7C2FFADF80000A0
S31508001CD0504600F01DF98346BDF90000AAEB000046
S31508001CE000F016F9FE2180B201FB0BF1B1FBF0FA08
S31508001CF037600020F06002202060256001A8008877
S31508001D00A0620020C8F83C004846FEF79FFF1FFA6D
S31508001D108AF1481CC003000CBDE8FE8F381000404D
S31508001D206020004028100040D0100040DFF8FC007A
S31508001D3010210163DFF8F8100A6842F001020A6010
S31508001D40DFF8F010416001608A31426889324260EA
S31508001D5001220263C1608160C1688931C1600221C4
S31508001D6001634FF6FF70DFF8D01008607047DFF8A0
S31508001D70CC0045F26401C1601E2141625021016216
S31508001D80C821C1618165F021C16545F690014166AA
S31508001D90882181660621C16644F2066101604FF614
S31508001DA0FF71416048F26071DFF8940001604FF4FA
S31508001DB0C1514160DFF88C00016841F004010160FF
S31508001DC00020DFF8841048707047F0B506460D46C7
S31508001DD089B00021032000F039F804AC08E034F893
S31508001DE011205040491C08293080F8DB6D1EB61CAE
S31508001DF0E8B290B1002700F038F824F8170000F090
S31508001E0034F8694621F817007F1C082FF3DB04A86D
S31508001E10FFF74EFA00200021E5E700F036F801202A
S31508001E2009B0F0BD0321022000F010B800200040E0
S31508001E30842000403C0E002000A000404C100040CA
S31508001E40D010004080200040580F0020124A136C22
S31508001E50C00140F0010040EA013023F008030F49B1
S31508001E60136408600820106070470B48016809076A
S31508001E70FCD5082101600A48006880B2704780B521
S31508001E80FFF7E4FFBDE80140EFE7044801684908A9
S31508001E90490001607047000018A000400470004027
S31508001EA00070004001463F222020FEF747BC000094
S31508001EB00A46090241EA12214840C0F30311484084
S31508001EC080EA003041010206C9B2D20E41EA022177
S31508001ED0484080B270470A0A484000F0FF000821CF
S31508001EE04308C00746BF034858401846491EF7D15D
S31508001EF0504070472083B8ED0348018803480823FB
S31508001F007F22FEF73FBE00BFD61F0008240E002022
S31508001F10002848BF404270472748018A40F6A77202
S31508001F20914202BF408A4FF47F41084203D10228FA
S31508001F3001DB0120704700207047F8B504461D4EA6
S31508001F40012030700D46FFF7E7FF18B94FF401700E
S31508001F50FEF73AF91848876A294644F48070B84764
S31508001F60002131700FF2540618B9294644F400705E
S31508001F70B847305CF2BD2DE9F04104468846560064
S31508001F80FFF7CAFF18B94FF40170FEF71DF90A48A2
S31508001F900FF22805476A0023324641462046B847CD
S31508001FA020B93346002241462046B847285CBDE89A
S31508001FB0F0810000B70400200000040800020202B5
S31508001FC04B4B4647AA07BE07D207DC072A083A083A
S31508001FD03C08EE08F60834B6031800001316191C58
S31508001FE01F0000000080EFBECEFA0100FFFF0B01C4
S30908001FF07F01FF015F
S705080000757D
