S01A0000657A73702D7370692D626F6F746C6F616465722E73333747
S31508000000000400207500000881000008810000082F
S31508000010A70B0A0100000000040154610020000833
S3150800002004110000B30A0008790D00080806000844
S3150800003000000000000000000000000000000000B2
S3150800004000000000000000000000000000000000A2
S31508000050FFFFFFFF05480068202100EA010020B1E4
S315080000600348016842688D46104770472C000040D7
S3150800007000200008FFF7EEFF00F00AF800F03EF84F
S3150800008002E00000854670474FF4017000F09AB808
S3150800009038B500F0C5F84FF20F043E4D28B140F2CE
S315080000A0052028806C80012032BD3B480068C006C8
S315080000B015D56888A0421ED1288840F202218842B8
S315080000C01CBF40F20621884215D040F20111884231
S315080000D01EBFB0F58A7F40F2111188420BD02F4C13
S315080000E0208A40F6A721884205D12068FFF7CAFF73
S315080000F06068804700BF002032BD000038B50400A4
S31508000100274872B6016849084900016000F0E8F816
S3150800011021480068000910F001000CBF2149224956
S3150800012002E0CD2201F8012B204A9142F9D3204959
S31508000130204A214B03E011F8015B02F8015B9A4261
S31508000140F9D31E491E4A002301E001F8013B9142FA
S31508000150FBD3104A53884FF20F05AB4240F20521F4
S315080001600AD113888B4205D030B1180A012818BF66
S31508000170022801D1194601E004B90021044801808A
S315080001804CF23C30508000F089F9BDE832407BE7FC
S31508000190840D0020000000202C00004000200008EC
S315080001A0FCED00E00000002098000020000400207C
S315080001B0F8130008000400200404002004040020AA
S315080001C0970D00200E4A302111600E4A11600E4A22
S315080001D0116010210D4A1160010A00290C4908BF57
S315080001E0000208804FF20F004880BFF35F8F09486E
S315080001F0002101604160084808490860704700000E
S315080002003020004030C8004030C0004010D00040C8
S31508000210000000201C4000400400FA050CED00E038
S3150800022008210E2010B500F000FA2A484021816006
S3150800023000240A2100BF491EFCD1C82102685206C3
S3150800024001D4012401E0491EF8D104210E2000F052
S31508000250ECF9204610BD80B500F0DAF90121152029
S3150800026000F0E3F9152000F00AFA0121072000F052
S31508000270DCF9072000F0F6F91748016821F01001AB
S31508000280016001BD052800D9704710B5DFE800F008
S315080002901721030F1C17114C2088411E2180C0B955
S315080002A0072000F0F9F942F21070208010BD0720EF
S315080002B000F0E5F9BDE81040152000F0EDB9BDE8FD
S315080002C01040152000F0CEB9BDE81040152000F00A
S315080002D0D6B910BD08B4004000BC0040900D0020FF
S315080002E0554951200860704738B55449C9780429DA
S315080002F0B4BF302460244FF4F071B1FBF4F1451A11
S315080003001E2DBCBF4FF40170FFF75CFF4C484D4AE9
S31508000310072101600021416081604FF00071116082
S3150800032005FB04F1C91C8908491E416031BD434AD1
S3150800033001215170D8E72DE9F041444F424D7888A4
S315080003403E4E4FF6FF78404540F2DC541CD14048FB
S31508000350018802237F22B81C00F0B4F9788840454A
S3150800036004BF02207880A869800703D4A86940F0F2
S315080003700200A8610120B070788828602046FFF73F
S31508000380D6FF2046BDE8F081A8698007EED52C483F
S315080003900068C00348BF00F03BF8B0780028F0D1E9
S315080003A0A868A9687A8810F0010003D10F2A08D234
S315080003B0521C06E0890704D5397811B1032AA8BF6B
S315080003C0424492B2022A3870B8BF02227A8028685C
S315080003D079888842CED1A86900F00300032808D09E
S315080003E0A869154940F00100A8610120E86151207B
S315080003F008600020C6E710B5044601E000F098F949
S315080004002046FFF798FF0100F8D110BD0220F2E759
S315080004100B480C4A002141608160016821F0020105
S3150800042001600021054841704FF000711160817824
S3150800043009B100218170704700800040920D0020AC
S3150800044010E000E004ED00E0044000400004002055
S31508000450F41300080078704730B5DBB0044621462F
S3150800046036A800F077F9002000904FF40263514A4D
S3150800047036A901A800F01DFB0FF280120FF28810B2
S3150800048001A900F079FC054600F0CBF828001CBF4E
S31508000490214600F0B2F928465BB030BD80B5FFF7BB
S315080004A0B5FFFFF7D8FE00F085FC00F0BAF800F0BB
S315080004B0B1FC0020FFF7E6FE07E01A2000F09DFADF
S315080004C001220021522000F023F800F0AAF80220A9
S315080004D0FFF7D8FE684600F06FFC0028F5D19DF8B6
S315080004E000005128E9D03449002008700120FFF7A0
S315080004F0B3FF20B90520FFF7C5FE012000E0042060
S31508000500FFF7C0FE40F20120FFF75CFE002002BDA7
S31508000510F8B506460F461546284C0FF2B8011D22B7
S31508000520204600F078FC0A2204F13401201D00F070
S3150800053072FC2348018808237F2204F10E0000F08C
S31508000540C1F8522EA6761BD13520207006220FF24E
S31508000550A40104F12E0000F05EFC0120E0760223DF
S31508000560184801887F2204F11C0000F0ABF81648F1
S31508000570018810237F2204F11E0000F0A3F802E090
S315080005801D202070E776012D12D12078A0F11B05D9
S31508000590012000F086FC0D48FD2101704570EAB285
S315080005A004F11A01801C00F036FC09490120087084
S315080005B0F1BD0000640500208F0D002024050020F1
S315080005C0F6130008F2130008F0130008940400203C
S315080005D08E0D00200063CC00FFFF00000000000025
S315080005E00000FFFFFFFFFFFFFFFF7C656D010000B6
S315080005F000000000000411006154000067130008A1
S31508000600A3130008550400087D090008B709000867
S315080006101148012181604EF6BE2141600121016029
S3150800062070470E49012008607047F0B5C20892026B
S315080006300B4CA518830010F0040014BF6E68A6586A
S3150800064003F00C030F279F40BE439940314308B17E
S315080006506960F0BDA150F0BD006000400860004030
S3150800066000B00040C108032908DA012100F007029A
S315080006709140C008104A02EB802001607047C1080B
S31508000680032908DA012100F007029140C0080B4A45
S3150800069002EB802001607047C10803290ADA084A7C
S315080006A002EB812101230A6800F0070003FA00F033
S315080006B0504008607047000014B0004010B0004079
S315080006C00CB0004030B5044610467F2808BF00200D
S315080006D04BF23462914283B01AD108237F2240F646
S315080006E012016846FFF7EEFF08220FF23C01684642
S315080006F000F0AAFB30B908237F2240F2A2716846AF
S31508000700FFF7E0FF08226946204600F084FB37BD64
S31508000710044D294300FB03111A46204600F07BFBD3
S3150800072037BD000000000408FFFFFFFFFFFFFFFFC3
S3150800073007490A68032809D34B6D43F001034B6543
S315080007400B689B1AC3F313038342F9D3704700005F
S31508000750382000400170012201290CBF8021402168
S315080007608180427000218270C1800181B148016098
S315080007700E218162016821F01001016000214163A8
S315080007804162426170472DE9F041AA4FAA4E0446DC
S3150800079000F02EF890464FF0FF303060C7F82C80F6
S315080007A0002078620D46386840F001003860FFF78F
S315080007B038FF012C0FD135B900F010FB00F001000D
S315080007C080F0010002E0284600F0F6FA28B900F0A9
S315080007D00FF800200AE0012008E03068C007E6D5D7
S315080007E05FEA0800E3D000F003F81620BDE8F081C0
S315080007F03868400840003860704780B50A460146A8
S315080008001820FFF785FE012000F04BFBBDE80140EC
S31508000810F7E070B5044682B0002020814AF6B4326B
S3150800082020786946FFF7AFFF08B11C2076BD9DF812
S315080008300000032818BF182801D1182076BD0428FF
S3150800084001D1172076BD012801D0212076BD0025CB
S3150800085000E06D1CA188EDB2091D8D420BDA601906
S3150800086000F10A01207840F2DD22FFF78CFF00280C
S31508000870EFD0262076BD0025002006E00146EDB221
S3150800088060196D1C007B00F015FCA288E9B2914244
S31508000890F4D3A37AE17AC918FF2901D0222076BDBC
S315080008A0A5182E7BB6EB102F01D0232076BD697BC9
S315080008B0C0B2814201D0242076BDA078834207D0F9
S315080008C0401EC0B2834201D1272076BD252076BDC1
S315080008D0901C20810220E080002076BD38B50446B1
S315080008E06078012804D02CD3032828D01FD328E009
S315080008F0022060702046FFF78CFF05462078012805
S3150800090004BF284600F079F80DB100F083FA272DC8
S3150800091019D1A0782278411EC9B20620FFF7F8FD42
S31508000920002DE7D10320FFF7ADFC002032BD00F013
S3150800093071FA00F04AF8A078401CA070DAE7172090
S3150800094032BD182032BDA80603D52278A178152015
S31508000950E4E7680603D4182D18BF1C2D07D12178A3
S315080009602846FFF74AFF04206070284632BD172D37
S31508000970D6D100F02AF803206070E0E7F8B50446FF
S315080009800D461646002707E0E088411C2044E18012
S31508000990BFB2807AE8557F1CB8B2B04209D2E08867
S315080009A021898842F0D32046FFF798FF0100EBD053
S315080009B0F2BD0020F2BD10B50446FFF78FFF00F028
S315080009C004F800F01EF8172010BD2278A17806203A
S315080009D0FFF79EBD80B51949FD220A70887001226D
S315080009E04A70012000E0002000F030FB00F084FA95
S315080009F00028F8D11249087001BD010008BF192066
S31508000A00E8E710B582B00F4C207860B1002000F0FE
S31508000A101DFB0028F8D0002000F043FA012000F062
S31508000A2015FB0020207040F2DD2269460120FFF701
S31508000A30AAFE13BD00E0004000A800409404002070
S31508000A408D0D00208E0D0020F8B504460D4616467D
S31508000A501F4607E03046A047294600F03EFB0546FC
S31508000A607F1E761CB8B20028F4D12846F2BD38B5E8
S31508000A700C46154605E0014614F8010B00F02DFB5F
S31508000A806D1EA9B20029F6D132BDF8B504460D4649
S31508000A9016461F46286823683A4631469847040092
S31508000AA005D1E8683A463146FFF7E1FFE860204697
S31508000AB0F2BD10B5029C84720381426001604FF05A
S31508000AC0FF31C1600021017410BD2DE9F84F8B4636
S31508000AD004469BF81B70D068A349802FA8BF8027BF
S31508000AE088421E4653D1002E4FD0B06800904FF072
S31508000AF0FF384FF000090BEB490000F1480A9AF855
S31508000B0000500DE0FFF78DFDE80240F00062009806
S31508000B104FF400634146FFF797FF6D1C8046ADB260
S31508000B209AF80100A84205DA09F10109B9F1060F98
S31508000B3002DAE0E7FF2DE5D1DBF844006FEA0801A9
S31508000B40884224D1A068736800BA7A08594698473B
S31508000B50C8B9E06805BAA06802BAB0683B464FF063
S31508000B60FF31FFF771FFC04385420CD140F6A7203D
S31508000B70ABF810000122A068736800BA0BF11001E7
S31508000B801030984708B1422002E0172000E04320C1
S31508000B90BDE8F28F2DE9F04F894609F1040583B0C7
S31508000BA08046D5F800A0A888ADF8040016460423A8
S31508000BB052464046FFF769FF010076D1BAF80000B1
S31508000BC040BA80B20090BAF8020044BAA4B2E0076C
S31508000BD006D500984FF20861884218BF462064D1AE
S31508000BE0B4F5026FC8BF4E205FDC002C5CD00098BD
S31508000BF0DFF878B109F13C0748B14FF60441401ACD
S31508000C0000F09880FF3854D0FE3852D0AAE0287BEE
S31508000C1008B1512049E08D2C28BF4F2045D22346E4
S31508000C2009F1180200F0A5F801003ED1FA78802AE9
S31508000C30A8BF802202F10C00844201BFA88A40BAEC
S31508000C4000F47F40B0F5007F31D1E88A40BA4EF211
S31508000C505031884202BF288E40F6A721884226D105
S31508000C60688E00F47F40B0F5807F01BFA86900BA9E
S31508000C70DBF81C1088421AD14FF6FF70288609F156
S31508000C8024014FF0FF30FFF7F2FEE96909BAC943BC
S31508000C90884204BF3878042809D17878112818BF03
S31508000CA0062804D1012028730020BDE8FE8F4520C0
S31508000CB0FBE7287B00283FD0042300F059F8010001
S31508000CC0F3D1DAF8000005BADBF81C00241F8542C8
S31508000CD0A4B238BF4820E8D3F96B6019884228BF08
S31508000CE04920E2D200984FF6035188420AD14EB104
S31508000CF0326829460220904720B14A20D5E7E41BEE
S31508000D00A4B27D19002CCFD0BDF804008442B4BF2C
S31508000D10274607463B4600F02BF80100C5D1002EB2
S31508000D20EDD073687A085146284698470028E6D0D9
S31508000D304B20BAE7287B08B94120B6E7042C18BF30
S31508000D404C20B2D12A68042300F013F80100ACD174
S31508000D5033464A4609F1240109F1140003B0BDE8F7
S31508000D60F04FB2E64420A0E7E320BBDE000000080F
S31508000D7052464946404688E670B50D4604462889D7
S31508000D808028164603DA4F2070BDA87A78B932460D
S31508000D9029462046FFF7FEFE0028F6D0172807D179
S31508000DA0286861688847172802D1002070BD50203E
S31508000DB070BD000000F060B810B5044600F00EF8EB
S31508000DC050B1124812498278114489782170817885
S31508000DD0491C8170002010BD012010BD10B50B4CB8
S31508000DE0207888B900F032F978B1607840B10020EF
S31508000DF000F057F8012000F029F90020607010BDB6
S31508000E00012020700020A070012010BD8D0D00204B
S31508000E10040400207047814212D210441144401E37
S31508000E20491E93B2002B1EBF11F8013900F801398B
S31508000E30521EF6D1704711F8013B00F8013B521ECD
S31508000E4093B2002BF7D1704710B500E0521E93B24B
S31508000E5023B100F005F8F9D0181B10BD002010BD0D
S31508000E6010F8013B11F8014BA34270478B4800214B
S31508000E704171817100F042B980B5884800218170BE
S31508000E800121C1700171002101700921417000F032
S31508000E9064F9FFF7EBFF00F061F9BDE8014000F0E7
S31508000EA06FB958B17E480168C90705D50068C006FC
S31508000EB002D57C4980200860002000E0012077499F
S31508000EC0C870704775490A7922B90870012200204E
S31508000ED00A714870704710B5044600F088F97248E0
S31508000EE04078A72807BF714804700320FFF7EAFF78
S31508000EF0BDE810400120A9E0684880797047F8B538
S31508000F00664C6B4D2179664E0A0004D03268D206CB
S31508000F1044BF80226A60A278A2B18020686001E09E
S31508000F20FFF77FFB3068C007FAD5802028600020CD
S31508000F30A070E07820B93220FFF7FAFB80206860BD
S31508000F400020F2BD6279594F104225D031B10020F8
S31508000F502071022221463846FFF75DFFE07808B186
S31508000F60802028603878052803DAA720B87003207F
S31508000F700DE0FE2818BFFD2806D179783944A72048
S31508000F8088707878C01C02E0A72078700220A071CB
S31508000F90A07900F047F9D1E7A0790028D0D100F070
S31508000FA052F930B93068C00603D500F053F900F09D
S31508000FB027F900F05FF90028C2D00120607180206F
S31508000FC0286000F062F9384D00BB00F066F9002889
S31508000FD0B6D028780A2806D00B2808D0FD2818BFCE
S31508000FE0FE2806D0ACE78220FFF775FFA8E7C120E8
S31508000FF0FAE76878862805DBFFF738FF0120FFF750
S3150800100061FF9DE700F04DF9002899D000F0E5F85A
S3150800101000F0EDF800F0EFF8207918B1012000F0A3
S3150800102015F88DE7687828448078A72803D0032028
S31508001030FFF748FFF2E72878FE2803D10420FFF7D8
S3150800104041FFEBE7FD2038700120F2BD70B5134E65
S31508001050174D0446B07900F02EF918B180202860A3
S315080010600120707100F02EF908B10120B07000F06F
S3150800107031F970B180202860B07900F036F910B9DE
S315080010800220FFF71FFFFFF7F1FEF07808B980206E
S3150800109068602046BDE8704031E70000860D0020F4
S315080010A008B4004014B8004004040020940400204A
S315080010B010B800400A46090241EA12214840C0F326
S315080010C00311484080EA003041010206C9B2D20E37
S315080010D041EA0221484080B270470A0A484000F0B7
S315080010E0FF0008214308C00746BF03485840184672
S315080010F0491EF7D1504070472083B8ED7F48016CF0
S315080011004908490001641022016C21F40071016448
S315080011107B490A6320220A6300224A650A664A66F0
S315080011208A6502224A65774A0A608D324A60764A9B
S315080011300A618D324A61754A1268D20609D5026C6F
S3150800114042F001020264026C42F400720264012257
S315080011500A634FF6FF710160704770476C48016873
S3150800116001F00F0141F4884141F0900101604168A6
S315080011700909090141F00401416010210161704724
S3150800118010B5644964484FF480520A600023C3646A
S315080011905F4B1C682409240144F008041C600124E0
S315080011A01C6104605D4B5E4C1A604022C2644FF4B9
S315080011B080420A60002141650C21216004210160FA
S315080011C01A602021416580215648C160016821F4D2
S315080011D0704141F48051016010BD534801684908C7
S315080011E049000160016821F40071016070474F49A8
S315080011F010200860704741494FF400700860704736
S315080012003E48012101604FF400710160016C41F014
S3150800121001010164016C41F4007101640120434934
S3150800122008607047384A42498018401E0860012203
S31508001230FF208862314802600422CA61016C41F0CD
S315080012400101016470473B48006810F0010018BFAF
S3150800125001207047384881B001688DF80010016890
S315080012608DF8001001688DF8001000688DF80000F0
S3150800127001B070473148006818B9204800688005F1
S3150800128001D501207047002070471C48006810F4FB
S31508001290007018BF0120C0B27047284800680228AD
S315080012A005E02648174900684978C91C88428041E4
S315080012B0C043C00F70471148006810F0010018BFFE
S315080012C00120704714480168C90701D5012109E0C2
S315080012D00020704710480168490701D5042101E03C
S315080012E0002070470160012070471549096881424E
S315080012F001D00020704701207047000008A8004070
S3150800130000C80040040400209404002008B40040EB
S3150800131000B4004080E100E014A8004080E200E04C
S3150800132014BC004004B8004048A8004030C800403B
S3150800133014C800402CC800403CC8004020C80040E3
S3150800134028C800402748018A40F6A772914202BF82
S31508001350408A4FF47F41084203D1022801DB01206D
S31508001360704700207047F8B504461D4E01203070BE
S315080013700D46FFF7E7FF18B94FF40170FEF722FF95
S315080013801848876A294644F48070B84700213170A6
S315080013900FF2540618B9294644F40070B847305C71
S315080013A0F2BD2DE9F041044688465600FFF7CAFF0C
S315080013B018B94FF40170FEF705FF0A480FF2280521
S315080013C0476A0023324641462046B84720B9334685
S315080013D0002241462046B847285CBDE8F081000057
S315080013E0960D002000000408000202024B4B4647F7
S311080013F02A083A08EE0834B60100FFFF90
S705080000757D
