S00E00006E63702D7370692E7333372C
S113400050590020893E0300F93D0300FD3D0300A3
S1134010A70A09010042000004180FAC10228C000A
S1134020000000000000000000000000000000008C
S1134030000000000000000000000000000000007C
S11340400000000000000000FFFFFFFFFFFFFFFF74
S1134050FFFFFFFF00E0030000000000000000007D
S1134060FFFFFFFFFFFFFFFF100000000000000044
S1134070000000000000000000000000000000003C
S11340800000000000000000717C0020717C002012
S1134090505900203476030006490300784A002072
S10F40A070170020000004000000000065
S113420050590020893E0300F93D0300FD3D0300A1
S1134210053E0300013E0300093E0300853E030002
S1134220853E0300853E0300853E0300853E030072
S11342300D3E0300853E0300853E0300196F000018
S113424015E1000079B60000D95A000081B60000DB
S1134250C3B60000A1B600009FB60000BBB60000C4
S11342609D9702008BD000007FD2000063B0000055
S1134270853E0300853E03001B450000853E030088
S1134280853E0300A9D00000853E03006BA8020010
S1134290853E0300853E0300853E0300853E030002
S11342A0853E0300853E0300853E0300ABB6000057
S11342B0B3B600007FD40000853E0300853E0300B2
S11342C0E5420300853E0300853E0300853E03006E
S11342D0853E0300853E0300853E0300853E0300C2
S11342E07149724A01E021B1491E1369DB07FAD40E
S11342F001B9BAE0506001201060106910F0060F97
S113430005D0410700D5B3E0800700D5B3E0002015
S11343107047F0B513460022002936D0624C634D35
S11343208BB98B4231D250F8046BEE605B1C0826CB
S11343302E60264601E036B3761E2F69FF07FAD4B5
S1134340002EEED11FE0EFF3108672B600230EE0CC
S11343502F6907F01907102F08BF2F602F693F0737
S1134360F6D550F8047BEF6010272F605B1C8B425E
S1134370F4D306B962B6264601E026B1761E286952
S1134380C007FAD40EB96FF002021046F0BD2DE951
S1134390F84F04460D469B460020454F396841F0CE
S11343A0010139604FEA92088146AA4602E0B1440D
S11343B00AEB860AC14517D204EB89063046FFF79B
S11343C08FFF010022D1C6F30A00C0F50060860801
S11343D0A8EB0900B04238BF06465A46314650465B
S11343E0FFF797FF0100E2D021682A68914209D0C3
S11343F02046FFF775FF010004D15A4601212846E3
S1134400FFF787FF3968490849003960BDE8F28F32
S1134410254A27490B6843F001030B60886001209B
S113442048604869400704D50868400840000860AF
S11344301EE04869800704D5086840084000086009
S113444019E00220486001E022B1521E4869C00709
S1134450FAD422B9086840084000086005E00868FA
S1134460400840000860002070476FF00200704769
S11344704FF0FF3070476FF001007047002386E76C
S11344800B48016841F00101016046F21A31C16430
S11344904FF4807141604169C907FCD40021C164B3
S11344A00020704700000000809698000C000E4029
S11344B008000E40072803D20FF2EC01085C704795
S11344C0FF207047072803D20FF2E401085C70470D
S11344D0FF20704738B504462D4800EB8105A878C5
S11344E00009FFF7E7FF2071A87800F00F00FFF73D
S11344F0E9FF6071FF2814BF01200020E870E8780C
S1134500A071287860706878A070224D21462846F2
S113451000F0A8F80120A86031BD10B584B0684649
S11345200FF278011CC91CC01948817B1A4AD36850
S113453014682340DB072AD5032928DA126900EB23
S1134540410300EB8104E4781CB114B2002C48BF91
S113455000229A820122C37B02FA01F11943C1733A
S1134560417B91B10021437BCB40DB0708D58173AC
S1134570437B8A405A4042736846FFF7ABFF1FBD36
S1134580491CC9B20329EEDB1FBD032181731FBD82
S11345904861002000200040382000400000000056
S11345A000FF000000000000E07B7C65466C6D00AD
S11345B0FF7B7C65466C6D00890001EB401000F1C7
S11345C084400260704730B5002A1ABF1022DFF819
S11345D04031DFF84031446B23400025DFF8384197
S11345E051B101290ED002291ED0032910D0062969
S11345F015D0812918D020E02168256800F022F820
S1134600246816E02168256800F022F8246804E094
S11346106168656800F01CF86468240C09E0A1680E
S113462001F00F01A46804E06168656800F00AF80D
S1134630646804F0F00444EA010505FA02F1194340
S1134640416330BD01F4FE4105F00F052943704775
S1134650090C01F4FE41C5F3034529437047A978C9
S11346602046B0E738B504460D460220A06000227B
S1134670FFF7F5FF28796978020242EA01626B7953
S113468042EA0342EB7842EAC302EB790BB142F00F
S113469000522B7A0BB142F00402AB790BB142F019
S11346A002026B7A0BB142F00102AB78F32806D117
S11346B0180004D10429BCBF042060F31B6218064F
S11346C04CBF42F0E00042EA4310206160691349A4
S11346D00840A9780A0644BF21F0800108432978DC
S11346E040EA4140E97A09B140F480406061AA7A25
S11346F002212046FFF760FF2879F3280CBF01222E
S11347000022102104F13000BDE8384054E70000D5
S1134710FFFF00800080FFFF1082E00F07401E00B3
S113472042DE704738B504460D4600F0E3FB01F065
S1134730F6F901F00BFA2946204601F00DFA2B4652
S113474022460FF2B811012001F075FB29462046DC
S1134750BDE83440E4E72DE9F0474FF420685F4DAD
S11347602E1D5F4801687165016AB1655D490A687B
S1134770F26549683166416A7166816AB166C16AE7
S1134780F166016B3167806B706796F834004007FF
S11347904CBFF46BB46B274601F01DFC0146316538
S11347A00022F26405F19003DFF83CC1DFF83CE13C
S11347B04F4A844224BFA2F1200AA24518D3A0691B
S11347C03064E4697464746DC4F30804062C13D172
S11347D0704511D360450FD200884DF64264A04263
S11347E00AD1306858607068986040F2017803E03C
S11347F000273764776407463E48814202D2014667
S113480000E0091D0846904203D20C68B4F1CD3F84
S1134810F7D03949081AB0640020002105EB800460
S1134820E167401C0628F9DB002003E0C0B205EB79
S11348308004E167974223D252F8041D7145F9D3ED
S11348406145F7D2CC07F5D5002405EB8409D9F8E6
S11348507C90894502D0641C062CF6DB062CE9D139
S1134860002814BF401E0520E0E7B16F002405EBCB
S11348708402D2F88070D767641C052CF7DB1960BA
S11348800146481EC9B20029EFD1706DC0F308007B
S1134890032808D0042809D005280AD006280BD0FC
S11348A00C280FD011E040F6012813E040F602284E
S11348B010E040F603280DE0B8F5206F0AD140F669
S11348C0042807E040F6052804E018B1312838BF71
S11348D040F607284046BDE8F087000000000020AD
S11348E004ED00E000E300E006490300B4440000E6
S11348F0505900209C000020505900200D0A5B41B3
S113490053534552543A25703A25645D0D0A00000C
S1134910890001EB401000F184400260704700F10F
S1134920806300F1C06019600260704710B54C00EC
S1134930214601F0F3FBA04201D0002010BD01206C
S113494010BD80B501F01EFC00B10120C0B202BD53
S1134950DFF8280A007800B101207047DFF88C1ACC
S1134960097B01B9704780B501F088FB20B1BDE82F
S1134970044040F22911B5E201BD10B5DFF8FC296D
S11349801378010018BF012103B10123994210706B
S113499017D058B16FF07F00FFF7E0FF01F02AFC59
S11349A0C0050ED5BDE8104001F047BDDFF8904AC0
S11349B094F9050000F094FD2079BDE8104000F062
S11349C0BCBC10BDDFF8B419097801F0FE0108433E
S11349D0D3E7DFF87C0A0068000E00F00F0003281C
S11349E001D1012070470020704780B5B0F5004F19
S11349F007D100F09FFDDFF8F80900F069FCBDF86D
S1134A000000DFF83C1A4883002002BD410904D1AC
S1134A10DFF8E819097861F34710A0F10B011029B8
S1134A2004D2DFF81C1A084410F8030C70472DE96F
S1134A30F04F440900F01F050027DFF8088A00E062
S1134A407F1C98F80660F8B2B04245D2D8F8080046
S1134A50FFB250F827004FF0000C01E00CF1010CFC
S1134A60C67E5FFA8CFEB645EAD2D0F81CE05FFA47
S1134A708CFC182616FB0CF6B6449EF8086006F06B
S1134A800706A642EAD19EF80960B542E6DB9EF825
S1134A9001B09EF8009006EB0B0AAAEB090AAA459E
S1134AA0DCDBDFF8B049247854B1DFF84049E47B1B
S1134AB034B9DEF80C401CB12468EC40E4070BD593
S1134AC011B1AC1B4C440C7012B19EF8081011705B
S1134AD01BB1C3F800E000E00020BDE8F08F4009FE
S1134AE018BF40F01800704780B501F04BFBBDE8DB
S1134AF0084001460022002001F051BB0B38102869
S1134B0034BFDFF8D809DFF8AC0A0068704710B585
S1134B10DFF84C0AC1790A0018BF022913D10078C2
S1134B2000F0B3F8044601F09BFC60B101210020C1
S1134B3001F0C6FC204601F093FC20B1BDE8104012
S1134B4040F28E21CEE110BD2DE9FF41FFF75EFF5B
S1134B50044604F01F001B2824D2002000906B465A
S1134B6001AA00212046FFF762FF07001AD0204661
S1134B70FFF7C4FF5FEA000814D0DFF87068DFF8BD
S1134B80C058706B80450FD002A84146082201F03E
S1134B9011FD288BADF80A00C6F8348002A801F094
S1134BA045FD08B98A2020E000983062F76100983A
S1134BB000B1006970629DF8040070730020291828
S1134BC0097AA14214D0401CC0B21028F7D3297826
S1134BD0E0B288421CBF2C70FFF799FF96F90E00D3
S1134BE0DFF8D81AC0010860002004B0BDE8F081E5
S1134BF000F10B04EBE7DFF8680900787047DFF891
S1134C006009B0F91800002854BF05216FF00401B1
S1134C1008180A2190FBF1F040B270470A2110FBFA
S1134C2001F0FFE7F8B500F5D77240F277239A4216
S1134C3001D38B20F2BDDFF8B427DFF82449136ACF
S1134C400A25002B1EBFA67E06F0C006802E12D0B9
S1134C50D67B86B993F9026016FB05F7B842B8BF54
S1134C6016FB05F007DB93F9033013FB05F68642C8
S1134C70B8BF13FB05F0117B11B102F0D7F801E0C6
S1134C8010FB05F020830020F2BD38B5FFF7BEFE0F
S1134C900446FFF733FF90B1002300220021204691
S1134CA0FFF7C5FE58B104F01F051B2D07D220469F
S1134CB0FFF715FF18B90B2D01DB284632BDFF2085
S1134CC032BD7047C0B2704710F1630F01DA0020A3
S1134CD0704710F1240F01DBFF207047643000029D
S1134CE0411100EB91608004000E704738B5DFF885
S1134CF0FC46DFF8185A0020A063687828B102F057
S1134D0097F8012818BF032801D1002032BD616A39
S1134D10DFF8682A00291FBF236A5B69002B022879
S1134D2013D1207DA26318B100200021642203E086
S1134D30E87829794FF4A0722070A2806170A87875
S1134D40A0708020E080002028E0DFF8705A207DE9
S1134D50AB420FD1DFF8202BA26368B90879207029
S1134D6001228B7808799A40101891F903201018C1
S1134D70401E08E0A26318B100202080642005E0F2
S1134D80487820708878607008780001A08048799D
S1134D90A07008890001E080C8880001A06000F0CC
S1134DA0CFFBE07094F90200010048BF4042C0B25A
S1134DB032BD2DE9FC410446DFF83066257896F9CA
S1134DC0150008B18C2042E0FFF790FFF075DFF882
S1134DD03C79DFF8A88AB87928B1012200F074FA86
S1134DE0AD1E012203E0002200F06EFA00220A2127
S1134DF000F06BFAF07B60B9387850B160788006C7
S1134E0007D5012030766FF001007075E078B07539
S1134E1004E0002030764FF0FF307075032000F07E
S1134E20BFF80094EDB2681CADF804006424684631
S1134E3002F00CF820B1641EE0B20028F7D101E0C2
S1134E40E4B21CB940F24A4100F06FFA0020BDE818
S1134E50F68138B5DFF8944594F9151021B9FFF7B8
S1134E60A8FF010004D032BD94F91500012837DAF7
S1134E7001F09EFAE8B1A06BDFF80019884218D15E
S1134E80E07DB0B1DFF8C8050068002811D5DFF86F
S1134E90F009C168C1600122006800F00F0002FA45
S1134EA000F0401E014204D100F086FB642001F0B2
S1134EB0D1FF94F91500DFF8A856404260752878B0
S1134EC0FFF7E3FEA26B234604F1180101F078FF1B
S1134ED020B901F0F5FF2862002032BD0020607582
S1134EE08C2032BDDFF8F00AFFF71CBCDFF8700637
S1134EF0408B704770B502F01AF8DFF84455044649
S1134F00E879012801D120462FE2DFF8D01ADFF832
S1134F10C86A4020086000F0AEFADFF8401B4FF486
S1134F200010086000220021022001F027FB18B1C4
S1134F3040F2CE4100F014F90021012001F00AFBF7
S1134F4018B14FF49A6100F00BF902F0E6FC00216D
S1134F50002001F0A6F900F01EFB0120E87100F02A
S1134F601AF8891C05290BD8DFE801F003030E06A3
S1134F7006060021417507E0892000F0A1FB03E04B
S1134F8040F2E94100F0ECF8204602F0B9FEBDE839
S1134F90704002F092BFDFF8C40590F91510704715
S1134FA02DE9F843DFF898540446E879A04251D03B
S1134FB00328DFF8AC7ADFF8208ADFF8A09A4FF4F0
S1134FC0001640D8DFE800F03802301F02F07EFF00
S1134FD0687880F001020121022001F0CFFA20B1AB
S1134FE040F206514046FFF79DFB0121012001F0EC
S1134FF0B1FA20B14FF4A1614046FFF793FB0320BF
S1135000032CE87116D0C9F800600220E8712878F2
S1135010FFF73BFE01F024FA20B140F2165140465E
S1135020FFF780FB022C15D0002C18BF032C11D1E4
S11350300020E8713E600DE0022C0BD1C9F800603D
S11350400220E87106E04046BDE8F44340F22C51EA
S1135050FFF768BBBDE8F183DFF82C0AC07970471D
S113506010B5032804460ED8DFE800F00902090948
S1135070FFF740FFBDE81040002000F0A0BC012075
S113508000F09DFCE0E1BDE8104040F24A5129E700
S1135090DFF8580390F91510002944BF0021417529
S11350A0DFF89C038079012808BFFFF723BF70470E
S11350B0DFF8D4098079704780B5032801DB01202B
S11350C002BDDFF87C138871C979884218BFFFF7E5
S11350D0C7FF002002BD38B5DFF8B049226822EAD4
S11350E00003084040EA0305954209D001212846FF
S11350F001F0A9F918B140F2735100F016F92560D6
S113510031BD70B5B9490446087B40B340F67440DC
S1135110220018BF014602D1C97C01B10421FFF766
S1135120DAFFDFF86C590FF690164CB1DE2001F06F
S113513045FE18B140F2AC5100F012F8002208E02C
S11351401E2001F03BFE18B140F2B45100F008F803
S113515001222846BDE870400321FFF7D9BB70BD8A
S11351603046FFF7DFBA2DE9F0410446022C82B045
S11351700FF6441703DB40F2E55100F0A2F89B4D13
S1135180287B002840F09880AD4EF079012803D0A8
S113519040F2EB5100F095F80FF6241001F06CF991
S11351A018B140F2ED5100F08CF8052001F07AF9C5
S11351B018B140F2EE5100F084F806F12C0002F030
S11351C0FBFE18B140F2EF5100F07BF802F03CFF17
S11351D018B14FF4BE6100F074F84FF400424FF47C
S11351E07041DFF8B008FFF79AFB1E2001F0E6FDDE
S11351F018B14FF4C06100F064F80FF6D00000F06D
S1135200EAFF18B140F2016100F05BF800224FF4AC
S11352108031002000F0C3FFDFF8748801220021F0
S113522000F053F80122032100F04FF80120287305
S11352300223DFF8640800F04BF8BDF80000C00555
S11352404CBF0020BDF80000A87301F0B1F8FFF7CF
S113525058FF708BFFF7C9FB02F04CFF00F090F889
S11352603078FFF771FC18B140F2216100F029F8A1
S1135270F07800F03EF8307900F05FF8687C00F0D8
S11352808FF8707800F0CDF800F05AF900F028F9A2
S1135290E87C00F0E7FBB6F91800FFF7C3FCB08B1D
S11352A000F08EF8F08B00F0ABF8B07800F00AF95B
S11352B0601E8041C00FF0712046FFF7D1FEBDE8AB
S11352C0F3813846FFF72EBA0B214046FFF720BB87
S11352D001887F22684602F03FBF80B500F0D0FE0F
S11352E010F5007F02D16FF07F0002BD800500162B
S11352F002BD38B5044601F01AFE05463B48007B62
S113530048B1601E8041C00F02F0CBFE18B140F2DC
S1135310636100F00AF82000494918BF0120C870F1
S11353202846BDE8324002F0EBBC0FF28C70FFF768
S1135330F9B9DFF85407C078704770B5044601F036
S1135340F6FD05463E4804712848067BFFF700FB3E
S113535000F0010080F00100064205D014B101F014
S11353606EF801E001F069F82846BDE8704002F0EB
S1135370C7BCDFF81407007970470000577C002091
S11353801A48007B00B9704780B5DFF8100702F0B7
S11353907AFE20B9BDE8044040F28D61A2E501BD6A
S11353A0DFF8FC164874097B01B9704780B502F038
S11353B06CFE20B1BDE8044040F2976192E501BD66
S11353C01F498883DFF8D816097B01B9704780B577
S11353D002F057FE20B9BDE8044040F2A66181E521
S11353E001BDDFF8A406808B70470000B06E00207A
S11353F042710300DFF89006C08B7047567C002092
S11354000F49C883DFF89816097B01B9704780B546
S113541002F035FE20B9BDE8044040F2BA6161E50E
S113542001BD07494A78824200D1704710B5CC7952
S11354304870012C02D0FFF75DFD05E010BD0000AF
S1135440D45C0020C46903002046BDE81040A7E5F1
S113545004400840F45F002080B500F00CF800F030
S113546020F8012101F0D0FC20B1BDE8044040F255
S1135470DC6137E501BD0121012001F021B880B5CF
S113548001F0CFFC1AE080B5FFF7F5FF00F009F852
S113549001F0AFFC20B1BDE8044040F2EA6121E52F
S11354A001BDDFF8E4050078FFF7EFBB80B501F03C
S11354B0A9FC18B140F2EF61FFF737FFBDE80140E6
S11354C0FFF725BB10B5040002D002F049FF01E04C
S11354D002F062FFDFF8B005847010BD605C00204C
S11354E038B504467F2C0CD100F024F8DFF8B4055D
S11354F0FFF7EEFEBDF80000C00554BFBDF8004044
S11355007E2401F014FD0546FFF722FA58B960B273
S11355107E2804D11149096A09B191F904007E2851
S1135520B8BFFFF71BFADFF860054471284602F0A4
S1135530E7FB31BD4FF6FF70ADF800000223704762
S1135540074890F905007E2807D1DFF85405006A62
S113555008B97F20704790F904007047B06E0020AE
S1135560D45C002010B500F045FE800411D5DFF8AE
S113557018454FF0FF30606200F03CFEC0044CBFA1
S113558003200120002100F0ABFE01F099FCA06291
S113559010BDBDE8104080B5DFF8EC044FF0FF31DA
S11355A041628162FFF715FA10B9BDE804402FE1AA
S11355B001BD0000C06A002080B500F01BFE40055C
S11355C0BDE804404CBF03200120002100F069BE67
S11355D010B5DFF8CC4400206075042001F02FFCE6
S11355E0DFF8A4144FF0FF300862E07B10B1012013
S11355F0207410BDBDE81040002200218D2002F06F
S113560026BFDFF89C0490F9151003290BD1002163
S113561041754FF0FF31DFF8702411620022816A76
S1135620402002F014BF704738B5DFF874440546D3
S113563094F91500012835DB94F91500032831DAB3
S1135640DFF86404006868B3002003F04AF948BB3B
S11356502868A06201F045FCE062E07D08B1E06AE0
S1135660206394F91500012804D0022814D10320E2
S1135670607531BD002060754FF0FF30DFF808140D
S11356800862E07B10B10120207431BDA16ABDE83D
S11356903840002202F0DBBEBDE8344040F6010190
S11356A0FFF720BCFFF777FF01F01BFCE06202F07C
S11356B02AFFBDE8314001F0C0BB00004030084083
S11356C0F8B50446FFF767FFDFF8BC63DFF8D05393
S11356D04FF0FF37376201F004FCE86295F91500DA
S11356E0012812DBE87D08B1E86A286300206875A8
S11356F03762E87B10B101202874F1BD2046BDE873
S1135700F8400022002102F0A2BEF1BD985D002005
S113571010B5DFF88C4394F91510012906DAC00698
S11357202BD5FFF738FF0020A07410BD810748BFB8
S1135730882002D4010703D58920BDE81040BFE7C3
S11357401421084202D0BDE8104041E7410609D5C2
S11357504C480068400410D4BDE8104000210020EB
S113576000F09FBD000602D5BDE8104024E7BDE867
S1135770104040F68701FFF7B5BB10BD017500006E
S113578010B500F015FE78B1FFF723F960B1DFF82A
S1135790F8424FF0FF30A06201F092FB606200F02B
S11357A0C8FD002100F09CFDDFF8F402C07C18B1B4
S11357B0BDE8104000F08FB910BD0000D45A0000BD
S11357C010B50446600748BF002002D4200702D564
S11357D00120FFF7D5FFE00648BFFFF7C3FE14F42E
S11357E08C6F18BFFFF7D7FE200510D500F0E0FD41
S11357F068B1FFF7EEF850B100F0A7FD044600F0E1
S113580098FD844203D02046BDE8104000E010BD5E
S1135810002100F065BD38B50178A14CDFF88C5249
S1135820022909D1408803F005F9FF280ED000F0C1
S113583015F80BD100200FE00329FBD1801C03F0E5
S113584018F9FF2802D000F009F8F3D00020A07462
S113585002F03FFC08B90120A07431BD296831F879
S113586010004FF4567108427047952801D3002068
S113587070478F48704700003B760000A400084042
S11358804C50084004400840704708447047704733
S11358902DE9F0417C4E7278044682F001022079B1
S11358A094F8088000F00101114379D0B8F1060F93
S11358B076DBA17A090673D4E17A0FF2FC15784FEE
S11358C001F00701022926D1FFF765FE97F91500BB
S11358D003281CD12079B8F1060F14D1410716D53D
S11358E0B97D627B91420ED10020787500214FF082
S11358F0FF303062E07ABDE8F041000900F00102B7
S11359008F2002F0A4BD400748BFFFF77AFEF0786D
S1135910002848D115E0400748BFFFF772FEF07831
S113592078B12079400706D540F66F112846FEF776
S1135930F9FEF07828B1E07A800602D500F081FD06
S113594018B1FFF728FE0020B874A07A401C404527
S113595004D040F689112846FEF7E4FE04EB08055E
S11359603078A8720020E8726079287395F90C00E9
S1135970FFF7AAF9687308F10801FF20A873C9B2F8
S11359802068000CE8732068000A28742068687492
S113599004F10A00BA7C03F0A3F80020B87402E012
S11359A0BDE8F041DEE5BDE8F081002003F0C8B9B0
S11359B003F095BA70477047704770477047324993
S11359C0C979012906D13B490B7898421CBF08705C
S11359D002F07EBA70470000B85A00000840084040
S11359E038B50446012C0D4607DB01F069FA011BAA
S11359F089B28D428041C00F32BD002032BD70B5E6
S1135A00040004D101F01AFA01F091FA05461E4E81
S1135A10306A4FF47A71FFF7E3FF50B1204890F9F0
S1135A201500032802D1FFF7ECFD02E08920FFF7FF
S1135A3047FE706A0A21FFF7D3FF08B1FFF7ABFDF9
S1135A4000F0D8FB00F0FF01B06AFFF7C9FF08B10E
S1135A50FFF7A1FD04B987E470BD00001860084693
S1135A601860084438B50E4D0446287B50B1200018
S1135A7002D100F09DFC08B1042100E000210420C3
S1135A80FFF729FBEC7431BDD45C0020EC6E0020E0
S1135A90440008400400084044710300C07800201A
S1135AA0B06E00204671030008100840345C0020EA
S1135AB0F06E0020587C00207068792E630000008E
S1135AC07F00000000F04902010001000100010014
S1135AD0506703000000704712480068800704D52F
S1135AE02E210FF25800FEF71DBE704780B501212C
S1135AF00D4803F09DFA0421072003F0D5FD0B485F
S1135B000B49016004210B4A116002214162042106
S1135B10094A1160816A41F00201816201BD0348B2
S1135B2003F034BE1C200540000508000020054099
S1135B300108030080E200E000E100E06D696372A7
S1135B406F2D636F6D6D6F6E2E630000602080F3A8
S1135B501188704703F0F2BE03460A469DA1042053
S1135B60FFE70CB480B502AA00F05CF801BC5DF854
S1135B700CFB0A0003D0034697A11120F1E77047FC
S1135B8000B589B002F0B6F900210791069105919C
S1135B9004910391029101910246904900910023DE
S1135BA00FF24C210120FFF7DCFF8D48C1784378C8
S1135BB00278039181680291818801918178009132
S1135BC043200FF23821FFF7CCFF09B000BD85490F
S1135BD0087070470EB410B5044682480078A1B02E
S1135BE080B103F035FE68B180226946022000F0DE
S1135BF0B5F823AB224600210FF2791003F016FF0B
S1135C0000F0DCF821B010BC5DF810FB0C22002180
S1135C10754804F0BDB8744931F81020521C21F8BD
S1135C20102070472DE9F04107466E480078A2B075
S1135C300C469046002690B9380018BF012F0ED0AC
S1135C40042F18BF052F0AD0312F18BF332F06D0C9
S1135C50372F1EBF3B2F4FF6FF718F4275D103F0D4
S1135C60F7FD002871D0802202A9384600F076F8AA
S1135C70002C68D007E08DF80400012201A900205F
S1135C8000F078F8641C207801005CD0A0F13002A8
S1135C900A2A05D20A2101FB0600A0F13006F1E729
S1135CA0422818BF44280CD0462827D0572808D0AB
S1135CB0622836D0662821D06C281CD070281DD0CC
S1135CC0D9E7422807D158F8042B6946012004F08B
S1135CD08AF801220DE0572858F8042B694604D1AC
S1135CE0012004F080F8022203E0012004F07BF894
S1135CF004226946C3E758F8046BC3E758F8041B49
S1135D00462807D10026885D00281EBF761CF6B2FF
S1135D10FF2EF8D1F2B2002000F02CF898B900263A
S1135D20B0E758F8047BB8B20028ABD004F0A5FC67
S1135D300546B8B204F08AFC0146EAB2002000F03D
S1135D4019F800289ED000F039F822B0BDE8F0819F
S1135D50122804BF002005F094B9704710B5234CF5
S1135D60616001462270606803F078FD607010BDC8
S1135D7000000000F8B515000C461C4E1CD07078CD
S1135D80317873680F1AFFB2EDB2BD42B8BF2F4627
S1135D903A462146184403F099FF70783818707019
S1135DA0ED1B3C44E8B238B17068711C03F0B9FDD6
S1135DB00028E4D00120F2BD0020F2BD10B50B4C48
S1135DC06068611C03F0ADFD08B1012010BD607076
S1135DD010BD0000574600006C700000C078002021
S1135DE0205F0300597C0020846F0020906F002006
S1135DF04242387042424242574242004242425773
S1135E004442000080B50146002009B905F067F955
S1135E10C0B202BD80B50246262012B9002005F0AA
S1135E2026FAC0B202BD80B50146002009B905F0CA
S1135E308BFAC0B202BD0CB438B5044604AA00F013
S1135E400FF805462046FFF7EEFF284632BC5DF802
S1135E500CFB80B508461146FFF78BFE002002BDFF
S1135E6080B513460A460146034803F0DFFD401E91
S1135E708041C00F02BD0000535E000038B50446E7
S1135E800D46284603F0FCFFC2B229462046FFF720
S1135E90E0FF002032BD0000890001EB401000F15A
S1135EA0844002607047000010B50446FFF74EFEC0
S1135EB04E484AF6E8510160C162016B01F00F01DE
S1135EC0022913D14A4A01211160806B00F00300BA
S1135ED0012818BF022809D100221C214548FFF7D8
S1135EE0DBFF002200214448FFF7D6FF200A0028E8
S1135EF0424808BF24024FF20F0104804180BFF3DF
S1135F005F8FBFF34F8F3E483E4A016801F4E06162
S1135F1011430160BFF34F8F00BFFDE780B5002040
S1135F2000F009F830B9BDE80440E0210FF2EC00BC
S1135F30FEF7F8BB01BD2DE9F042334C2168424223
S1135F408D1815F01F0108D0002802D448420544DA
S1135F5003E04842284400F120052C48A5F120061E
S1135F60A84224BF2A48864203D3EFF3088085421F
S1135F7001D300202DE000F0DAFF814625480068B7
S1135F8010F0010718BF05F072FA206801468D422F
S1135F9006D2A84224BFCD2100F80119F9D206E0A7
S1135FA02038002201E000F8012B8842FBD3256051
S1135FB0304605F063FAE22001E006F8010BAE4238
S1135FC0FBD30FB105F030FA484601F099FE206882
S1135FD02038BDE8F0820C48006870470A48006821
S1135FE0203870470C4870470000000008300E400D
S1135FF04040084060300E4074300E4000000020E5
S11360000CED00E00400FA05105D0020784A002041
S11360107017002094ED00E0000000206D696372A9
S11360206F2D696E7465726E616C2E6300000000E2
S113603080B505F0F8FA344901200870002002BD4B
S113604010B5044600F046FA20684168806805F0FF
S113605093FC05F077FC002814BF2C482C4805F06D
S113606045FD2948017829B1002101704FF48030A1
S113607000F062F820680088C0B210BD01F01CBBBB
S113608005F09BBB80B505F07FFEBDE80440002110
S113609005F0D1BE10B50446208806F003F8208030
S11360A0608805F0EAFF6080A08805F070FFA0809A
S11360B0E08805F096FFE080002010BD10B584B0A4
S11360C00178032928BF00201BD26946002200233F
S11360D000241CC1002109E04268525C0DF8012033
S11360E00DEB01038268525C9A70491C027891425C
S11360F0F2DBC0680190FF208DF80800684606F0C6
S113610003FD04B010BD00005F7C0020C0CF6A0016
S1136110E067350006F01CBD06F02BBD06F0C0BEDE
S113612010B5044606F04CFF15494C6000220A6085
S1136130BDE8104006F048BF10B5044606F040FF25
S11361400F494A680B682240140018BF01241A43FF
S11361500A6006F039FF1CB1BDE81040FFF728BC07
S113616010BD10B5044606F02BFF05494B680A68BC
S1136170234022EA03040C600DE0014840687047A4
S11361809878002010B506F01BFF014902E000BF1B
S1136190987800200C6806F017FF204610BD70B5F3
S11361A082B0040006BF0FF24800006820680D4664
S11361B01646009015B9FFF7E5FF05462846FFF798
S11361C0D0FF2946684601F0BCFB002E1EBF002C00
S11361D00098206073BD38B5044601F0AFFB054656
S11361E0206800F00110FFF79BFF284632BD000035
S11361F0FFFFFFFF764840687047F8B50446002665
S1136200734F7D687348044214BF02267C6024EAFD
S11362100500C00307D50021002000F042F800214A
S1136220002000F05DF830000CD1786800F4804064
S113623005F48041884205D0A00B00F0010000F075
S1136240BAF806463046F2BD10B5614CA07800F0AD
S11362500100E17801F0010108436168C90319D420
S1136260C0B1E06848B1E078000706D50820E168CD
S11362708847E07800F0F700E070A06870B1A0787B
S113628000070BD50820A1688847A07800F0F70024
S1136290A07003E0607808B100206070BDE8104091
S11362A08EE02DE9F04100F03FF88046484F387801
S11362B0A8B120000BD1B87800281CBFB86800280A
S11362C005D0B878400602D54020B9688847BD603B
S11362D0B878A0421CBFBC70FFF7B6FF00261DE0D3
S11362E02DE9F04100F020F88046394F3878A8B104
S11362F020000BD1F87800281CBFF868002805D0CE
S1136300F878400602D54020F9688847FD60F8789F
S1136310A0421CBFFC70FFF797FF0026404601F027
S1136320EFFC3046BDE8F08104460D46012600F03E
S1136330FEBD27494A680020097829B1510303D4D6
S11363400120110548BF03207047002020490A7826
S1136350002A1FBF012049681F4A114218BF0320A9
S1136360704738B504461A4D297888421ED020005B
S11363700ED00121194802F05BFE112006F035FE13
S113638018B9092006F031FE50B106F050FE07E0BE
S113639000210020FFF7A4FF00210020FFF781FF68
S11363A02C702046FEF7ADFE00F00AF8002032BD46
S11363B007480078704700B102207047704700BF5B
S11363C003480178002141700020FEF7FBBA000069
S11363D064610020FFFC0FF8000808000025080095
S11363E01CB5044600222178022000F0C7F820B929
S11363F02178012000F0AEF808B1012016BD6088B4
S1136400ADF804006088ADF80000A088ADF806007F
S1136410A0880A38ADF802006846FFF73BFE204624
S113642001F034FB01F01BFB002016BD017941296A
S1136430B8BF01F041BB0120704701F065BB01F01A
S11364406BBB01F07BBB10B5044611B101F0A2F99E
S113645001E001F0A4F92046BDE8104001F0A4B920
S113646010B5044600F039F8010004D12046BDE817
S1136470104001F03EB910BD10B5044682B0A068CA
S113648000F00110FFF74CFE204600F01DFF010054
S113649007D100200090684600F0DAFC010008BF34
S11364A0002016BD10B5044600F0A3FF08B1022079
S11364B010BD2046BDE8104000F078BF0021012047
S11364C010B50C4600F080FF1CB100F092FF0028CC
S11364D0FBD110BD1E4988607047F8B51C4DA968F2
S11364E0044600291CBF0868002811D0496879B106
S11364F000220C2606FB02F7C35B9C4222BFC7198D
S11365007F88A7423CBF521C8A42F3D38A4201D3FC
S11365100120F2BD06FB02F14618E868B04204D13E
S11365202878A04203D10020F2BD012200E000221D
S11365303146204601F069FA010004BFEE602C7078
S1136540F2BD034800787047014840687047000076
S1136550A478002038B504460D46022C18BF022D3D
S113656001D1012032BD00F044FF022805D02946A4
S11365702046BDE8344001F0FAB932BD70B50D468D
S1136580022D0446164601D1012070BD00F031FFF2
S1136590012801D1022070BD2946204601F0F2F9FC
S11365A0010005D1304601F07FF9010008BF002049
S11365B070BD000062B38B0708D0521E11F8013B76
S11365C000F8013B00F024808B07F6D1830740F0EC
S11365D0208000BF103A07D330B4B1E83810103A25
S11365E0A0E83810F9D230BC530724BFB1E8081032
S11365F0A0E8081044BF51F8043B40F8043BD2071C
S113660024BF31F8022B20F8022B44BF0B7803700F
S11366107047083A07D3B1E80810083A40F8043B39
S113662040F804CBF7D25307E4E7000010B50400A8
S113663016D004F0CDFFDFF8D80500210022002396
S11366400EC02178DFF8CC05DFF8CC35022909D15A
S1136650196889021BD503210170DFF8C015418038
S1136660002010BD012904D1196811F4400FF2D1A2
S11366700DE00029EFD1DFF8A81509681A6801F0C8
S1136680010181F0010102F480021143E3D10822E7
S11366902146FFF78FFFE08800F003FA00F014F8BA
S11366A0B4F9020000F008F8DFF878150320086058
S11366B000F08AFA012010BD80B500F05CF9DFF823
S11366C05405B0F9020002BDDFF84805007802283D
S11366D008BF00F03EB8012808BF00F01DB8DFF87D
S11366E03005DFF84425016811400160042241F0BF
S11366F0804141F0140101600721DFF83005016099
S1136700DFF82C150A600722C2600522CA60C02285
S11367108260812088607047DFF8F404DFF8082580
S1136720016811400160032241F003010160072167
S1136730DFF8F8040160DFF8F8140A600722C26089
S11367400622CA60DFF8EC1481604FF440414160D6
S11367507047DFF8BC04DFF8D02401681140016001
S113676041F0804141F0200101604FF4EE40DFF838
S1136770C81408604FF48A41DFF8C0044160012165
S113678001607047F8B5DFF88C341C78032C01D114
S11367900020F2BD012CDFF878240FD10828A8BF0F
S11367A0072002DA010008BF01201168DFF89034E5
S11367B01940116041EA00611160F2BD1468DFF80C
S11367C084542C40146044F47C5444F0C804146091
S11367D0DFF87454DFF840442468E44304F4FE14FE
S11367E0B4FA84F4C4F11304C4EB4414E6B2B04222
S11367F088BF30460600044604D1DFF850142960EF
S1136800002103E04FF0E0662E60401EC0B21F2559
S113681090FBF5F5012705F1010C07FA0CF77F1E33
S11368201668BF0307F47F173E431660C5EB451592
S11368301668401B401C46EA006010604FF480005C
S113684039B1197829B9DFF80814086044F4807460
S113685002E0DFF800140860C82000F0CAF82046FF
S1136860F2BDC11320F400404211521EC2EB421289
S113687000F01F0080B58018FF2803DA012802DA2F
S1136880012000E0FF2001F00101C0B2FFF77AFF10
S113689010F47F4F14BF4FF40041002120F47F40D7
S11368A01F2290FBF2F2531CC2EB421241EA431145
S11368B0801A084302BDB1F900208242B8BF1046D5
S11368C0A0F1C8026FF0270392FBF3F2082AA8BFD5
S11368D0072201EBC201091D01284B68B1F902101E
S11368E000FB0131A8BF01F5FA714FF47A70B1FBD6
S11368F0F0F0072A1FBFC7490978022940F4004075
S11369007047012231F83230834202D3521C082AE4
S1136910F8D3521E01EBC20120F400404FF47A7206
S113692050434A68B1F90210801A0128A8BF00F543
S1136930FA7090FBF1F07047B6490978032919D031
S1136940B349C54B0A681A4083280A6008DA130A57
S113695003F47F531A431F280A6006DABD4905E091
S113696042F47C5242F0C8020A60B94901220A602A
S11369708A613EE0704770B5A64CB4F9041045181E
S11369802078032834D0012815D1A148AC4A0168E5
S11369901140016006210FF2144232F911309D4278
S11369A001DA491EF9D132F911500268491C42EA50
S11369B00161016016E0617800B1891C44220FF284
S11369C0DC205143461831462846FFF774FFFFF791
S11369D048FF212808BFB6F9025003D0311DFFF744
S11369E090FF05462846FFF7A7FFA088281A608075
S11369F070BD884A9949527A7AB179280DDB4DF6EF
S1136A00017008679649974A08604FF457419648C1
S1136A100167116008210160704708200860704711
S1136A2010B504F08FFF914C28B12068216800F064
S1136A300CF8206004E0A069A16900F006F8A061E8
S1136A404FF000708A49086010BD490820F47F1097
S1136A5001F4FE1108437047704738B504F072FF23
S1136A60724C84494FF40015002814BF2560A561B9
S1136A704FF00060086031BD6648C088704780B53B
S1136A8000F0A2F863487C4A017A1268C2F38212C9
S1136A90914204D0C06800F004F8012002BD002037
S1136AA002BD7CB55B4C06467348E660006880090D
S1136AB000F007002072801E012801D9001F01D1B7
S1136AC0002508E02078022808BF962503D0012875
S1136AD00CBF3225B42506F01DFB4FF47A71B0FBD0
S1136AE0F1F07043B0FBF5F04001B0FBF1F04FF072
S1136AF0FF3101E04008491C0028FBD149B21029AC
S1136B00A8BF4FF4706003DA002958BF084600029A
S1136B100FF28011D1E90023CDE90023009028046D
S1136B200190684600F012F800F01BF8054606F0E4
S1136B30F1FA6421B0FBF1F042F210716943B1FB48
S1136B40F0F0E08005F0D5FAE08876BD41684B4A64
S1136B50116040F6FF714A4A1160006849490860B3
S1136B60704730B548494A6848684B680C680D68F6
S1136B70D2B2000404F00F04000E096802FA04F40F
S1136B80821AC5F303151B02AA401B0E090A5211EF
S1136B90181A01F00F0102EB6412884002EB601036
S1136BA030BD0301394A03F4F87300F007001843B9
S1136BB010600A01364802F4F87201F0070111432B
S1136BC0016070470000000080B504F0AAFE401E7A
S1136BD0082817D8DFE800F005160E0E101013135E
S1136BE013000C480078012819BF04210020042157
S1136BF0042009E0002103E00321032004E00A212A
S1136C00002001E00A210F20BDE80440C9E700008C
S1136C10E40F0021045E002088410E400080FFFF45
S1136C20D481E00F58410844E8FFFFBF0041084405
S1136C3000410846C1004000244108442041084660
S1136C403F00C0E0FF3FC0E0584108402C0000076F
S1136C50084108460841084437C0FFFF94400844EF
S1136C601C4108441C410846944008460041084021
S1136C701C40084020400844186008406C600840EC
S1136C80686008446860084668600840EC0F0021AA
S1136C90E80F00210000000000000000C800FCFE16
S1136CA01F811D0B6ABDFBFFB0807F054A32FFFFC9
S1136CB074801603EA4B00005180B50127B200002E
S1136CC03F80490184C500003280D100F0C3000038
S1136CD02880740034B4000028004B00EAB500009A
S1136CE08C00FCFEFFFF0000000000001F81581113
S1136CF04C42FAFFA180CA050197FFFF5D806A023A
S1136D004CA4000041805701A7CC00003480E0006F
S1136D10BECA00002A808C00CABC000029005200B0
S1136D20B5B90000C800FCFE1F01C80B7D30FBFF95
S1136D30AB001C05035BFFFF7300FD02DC55000084
S1136D405300D501BEAF00003F001901E4C80000A4
S1136D503300AC0090C700002C006C00B1BC0000F4
S1136D602700430046AF00009600FCFEFFFF000032
S1136D70000000001F016D0FA182FAFF7E00C10315
S1136D80791F00005500E401F4B10000410037010F
S1136D90C7C900003300C000CAC700002B006E0042
S1136DA0F7B90000260038008AA8000083FFBFFF5F
S1136DB0E2FFF1FFF9FFFEFF0000000000F045BD17
S1136DC0F8B504460D4616461F4600F03EFB08B9CA
S1136DD00220F2BD2046FFF780FB010008D13B46AC
S1136DE032462946204601B0BDE8F04000F066BCBA
S1136DF0F2BD10B5FFF771FB040008BF00F0F7FD0A
S1136E00204610BD80B50DE010B5012901D0012048
S1136E1010BDFFF762FB040008BF00F0EFFD204641
S1136E2010BD80B500F0DCFD002002BD00F0BCBD4B
S1136E3000207047FEF70DB870477047704702494D
S1136E400870704700000000607C002000F033BB35
S1136E5000F0B2BE06F0E9B910B5044605211120D0
S1136E6002F001FA00220021022002F0C7FA1049C0
S1136E7010480A6802400A600B680F4A02EAC422FA
S1136E8013430B604B6818404860486810434860DF
S1136E9001220121022002F0B1FABDE810400421D0
S1136EA0112002F0E0B9054800680003C00D7047E6
S1136EB02C400E40FF07F0FF00F80F0030400E405A
S1136EC080B506F0BDFA06F0C8FA80B202BD80B5FE
S1136ED006F0B6FA06F0C1FAFA21B0FBF1F080B27E
S1136EE002BD80B506F0ACFABDE8044006F0B5BAC0
S1136EF080B506F042F9074800214160001D06F004
S1136F0007FA20B13A210FF21400FDF70BFC002020
S1136F1002BD0000D86F002000F008B873797374C4
S1136F20656D2D74696D65722E6300007047EFF313
S1136F301180602181F311887047000080B505F04D
S1136F4004FC05F009F900906846FEF76DFB01BDED
S1136F502DE9F04F87B0044604F0B7FB8346278839
S1136F6000254FF6FF7087426CD0A7EB0B07BFB22A
S1136F7007F10C00FEF779FC80461EE005F10A09D2
S1136F807E1B00966A4649464046FEF77EFC8246D2
S1136F90009810B94FF0000A00965046009989B243
S1136FA005F0BBFA49464519BAF1000F08BF0020A5
S1136FB002464046FEF76BFCADB2BD42DEDB01A9E2
S1136FC0584605F0BAFA0C2000906A460021404663
S1136FD0FEF75BFC050002D000980C2801D20022C9
S1136FE026E0DFF8EC092F81C16801682A7900F0F6
S1136FF02DFE29718021816028799DF80A2000F0F6
S11370001FFE28719DF809002979687101F0FB01C0
S1137010A078C00800F0010041EA80002871E078FF
S1137020A871049805F073F828600C220020E87118
S113703000214046FEF72BFC4046FEF729FC404663
S1137040FEF722FC07B0BDE8F08F80B5684601F07A
S1137050D9FCDFF82C0A0078400703D50020FEF79E
S113706017FC01BD6846FFF773FF01BDDFF8141A72
S1137070802008601020FEF7A3BB2020FEF7A0BBF1
S11370804FF40060FEF79CBBDFF81809DFF84429D1
S113709000684FF08071C001116054BF4FF48060EC
S11370A04020FEF78DBBDFF8F819C968012806D027
S11370B002280AD1C80508D54FF4807003E088057A
S11370C003D54FF40070FEF77BBB7047DFF8D4188C
S11370D00968002009060FD5DFF8FC08006880085D
S11370E000F0010090F0010006D0DFF8B809006854
S11370F000F0010080F00100704710B5044614F060
S11371001C0F0AD0FFF7E2FF38B1DFF8C81880205F
S113711008601020DFF8C4180860DFF884090069EB
S1137120204205D02040BDE81040C0B2FEF7F0BABE
S113713010BD0220FEF744BB0420FEF741BB08202B
S1137140FEF73EBBDFF8000A0068000E00F00F00F7
S1137150FEF732BC3EB50446A00248BFFEF751FA22
S1137160200328D505F04CFE28B3DFF81C19DFF8FE
S1137170383948680968402202FA01F11A68DFF8D0
S1137180D8391B68491EC3F38113032B00F1005047
S113719089B292B28DF800300ED100239C18083CBD
S11371A00C400DEB0305045DAC705B1C082BF5DB98
S11371B06846FEF730FB37BD022BFCD1931E0B4013
S11371C0521EC35CADF802301140405C43EA00201B
S11371D0ADF80200ECE7DFF8D4286FF0FF0111608E
S11371E0000ADFF8941900020860704738B50546B4
S11371F0042004F052FD6802DFF8B44811D52720BA
S113720001F0D4F801202060DFF8A818086800F025
S11372107F40B0F1007F1AD1DFF81C19022008600A
S113722015E0E80204D5282001F0C0F820200FE082
S1137230E8040FD504F0EFFDDFF80809006810F446
S1137240A00F07D12A2001F0B1F80120206004200A
S1137250FFF753FFBDE83240DFF820094068BAE782
S11372604020FEF755BA8020FEF752BA80B5DFF809
S1137270EC180120087105F0BDFDBDE80140FEF7E2
S113728094BB10B5DFF81848E07800F0FB00E0701C
S1137290206804F0B1FF04F090FA2081FFF70EF9A2
S11372A06179002914BFDFF8B818DFF888194FF4A2
S11372B000100860B4F90800FEF77DFB6069FFF771
S11372C08AFF0120A07110BD10B5044605F022FF0D
S11372D06168884201D0012010BD05F086F8DFF80E
S11372E0A008DFF8BC471B21816060210160207881
S11372F040F007002070A07840F04000A070FEF736
S11373003CFFC00703D5A07840F00800A070A07827
S113731040F01000A0700FF2280005F029F8206852
S1137320DFF85C4704F068FF201D01F030FA00200C
S1137330206001F049FAFEF73DFB002010BD00007B
S11373403D6F0000FB7000004B7000006D7000008A
S11373507B70000089700000A7700000000000002E
S11373600000000081700000000000003371000084
S1137370397100003F7100000000000045710000F9
S11373800000000000000000000000003779000049
S11373905571000000000000ED71000061720000F2
S11373A0677200006D72000083720000F0210842D1
S11373B001D001207047DFF880180A68120900F034
S11373C00F0040EA02103DE20023002100220328BE
S11373D007D8DFE800F00302070A0123184605F086
S11373E019B9704701230121F8E701230121012282
S11373F0F4E7DFF84808006800F07060B0F1807FBF
S113740018BFB0F1007F1AD0B0F1407F18BFB0F1BF
S1137410806F14D0B0F1A06F18BFB0F1E06F0ED040
S1137420B0F1006F18BFB0F1106F0AD0B0F1206F47
S11374301CBFB0F1306FB0F1406F02D003E0012007
S113744070470220704700207047DFF85805006835
S1137450C00900F0010080F00100704770B505F02C
S1137460AFFD0446032004F079FC10B904F0DCFC01
S113747010B100F047FA1AE0DFF8CC060568DFF82F
S11374802405066800F03EFA15F0404F0FD130068F
S11374900DD405F07060B0F1407F18BFB0F1C06F3B
S11374A005D0B0F1106F18BFB0F1406F01D10020CA
S11374B070BD012070BD70B5044605F081FD06461F
S11374C0DFF884060068000E032500F00F0008288A
S11374D018BF072803D0092818BF0C2804D1DFF8E7
S11374E0C4040068C00309D4DFF8B417012008609D
S11374F0A2882168002001F089F9002500F0FFBA74
S11375002DE9F84FDFF87467DFF87056040030682F
S1137510686070D094F90310E08804F069F9306869
S1137520A8604FF00109A07821786278A0F1010ADF
S1137530884618B94FF0000AD146C8469346C34559
S113754038BFC34619B9561EB641F60F00E00026EF
S1137550A088DFF8487704F082FC4FF604013EB3BC
S11375600346002201E04008521C80B2FF28FADCE6
S11375705FFA82FBBBF1000F09D0FF2807DA9BB248
S1137580A2F1010823FA08F303F001031818BB6DF4
S11375909BB28B4208BF5B1C012191402B80491E8A
S11375A0B9654FF008084FF400017965C34604E05B
S11375B02A888A421CBFBA65298080B2401EFF28EF
S11375C0A8BFFF20F8625FFA8AF3002000904A46C1
S11375D05946404604F0E0FB56B1DFF8C8164FF4B4
S11375E080100860386820F4400040F4800038605F
S11375F0A068E86004E0A868FFF7EDFD04F0F6FB7E
S113760004F053FFEC689CB1042004F0A7FB10B114
S1137610042004F042FB204604F021FC0146012230
S1137620042004F048FB00F0010090F0010401D1B3
S113763004F0E8FB2046BDE8F28F10B584B0B8B37F
S11376400178002904BF4178002931D01CC869465B
S11376501CC110F80C1D0A000FD08388BDF8062049
S113766059438918ADF8061002789DF80110891A5B
S11376708DF8011000218DF8001001219DF80120E2
S113768000E0491C01238B409342FAD380888DF893
S113769000105C0802FB0040B0FBF3F0ADF80400FE
S11376A09DF800008DF801006846FFF729FF01E00E
S11376B0FFF726FF04B010BD04F0C0B870B514463F
S11376C01D4639B1DFF8E0251068800644BF08780C
S11376D000F048FA0026200007D02846A0470600FC
S11376E005D0012000F03EFA01E004F0F9FE304636
S11376F070BD80B5DFF8B4050068000608BF01F06E
S11377001BF9002004F05FFF002002BD012809D00E
S11377100BD3032803D008D24FF0C05006E04FF03B
S1137720005003E04FF0605000E00020DFF88015C7
S11377300A6822F06052104308604FF40010DFF82A
S11377402014DFF870250860DFF86C05016821F06B
S1137750060141F0040101604FF0805111600421E1
S1137760416100207047DFF85415062008600020AE
S1137770DFF84C1508604FF08050DFF848150860BA
S11377804FF40011DFF8AC0401604FF06051016068
S113779000207047DFF830151B2008607047DFF8C1
S11377A0281500200860704710B5040904F001048E
S11377B0DFF8EC124A78430802F0F70203F0010301
S11377C042EAC302830802F0EF0203F0010342EA33
S11377D00312C30802F0DF0203F0010342EA43127A
S11377E00B784A7003F0F70343EAC403440903F037
S11377F0EF0304F0010443EA0413840A03F0DF03F3
S113780004F0010443EA44130B7010F4407403F0D1
S1137810BF0318BF012443EA84130B7002F0FD0276
S1137820C30A03F0010342EA43024A7000F0010371
S1137830DFF89844227802F0F70242EAC302227089
S1137840C86029E008600020704710B594498C4C4A
S11378508A7802F07F02830942EAC31242F04002AE
S11378608A70C309CA7802F0FE0203F001031A43C6
S1137870CA7010F01B030A7802F0FD0218BF01233E
S113788042EA43020A7000F00103227802F0FD028A
S113789042EA430222700861086804F0ADFC2068E3
S11378A000F092FF002010BDC00747BF0220DFF8A0
S11378B020140220DFF81C14C4E7F8B50D0018BF2B
S11378C001250229064603D100F027F80020F2BD65
S11378D005F076FBDFF884720446F87840F0020085
S11378E0F870386804F088FC00203871304604F0E1
S11378F0B6FA294605F079FA054600F003F885F052
S11379000100F2BD204605F05FBB80B505F075FAB5
S1137910BDE80440002104F08EBA80B505F06AFA8F
S1137920DFF83802C17801F0FD01C170BDE8024002
S1137930006804F061BC0120FEF7FEBB406805F05E
S113794083BE38B504460D46E80748BF06F062FA20
S1137950E8030BD5206810F1010F03D105F0EBFE0D
S1137960206031BDBDE8324005F047BF31BD10B5E0
S1137970504A1368012410309BB204FA00F0183105
S1137980184309E010B54B4A136801241B0C04FA90
S113799000F0083140EA034004FA01F108431060A2
S11379A0002010BD8840084038B5FEF785FEDFF89A
S11379B030530446286820B1FEF7C3FD2A6801212C
S11379C09047204632BDDFF8181308607047000066
S11379D060000840884008440C50084000400844B7
S11379E080B506F0BFFABDE8014006F055BA80B58F
S11379F006F020FABDE8014006F07EBA80B506F034
S1137A0019FABDE8014006F09FBAF8B504460D46E0
S1137A101646FEF799FD01281FD0FFF71FFD4A4FB8
S1137A2018B1386810F0706FF7D1386810F0706FC3
S1137A3001D00220F2BDDFF8A8020268100002D0D3
S1137A400021204690471EB16968A86803F094FF9E
S1137A502888201AC0B204F0DAFD0020F2BD10B567
S1137A6005F0AEFADFF840120C6844F02002FFE79C
S1137A700A6005F0A9FA600900F0010010BD0000D9
S1137A803C5E0020680008403010084080B5C08883
S1137A9004F0E5F9DFF84C2240421060002002BDFA
S1137AA0145E0020A4500840040F002118700844FC
S1137AB0281008400C0F002170B5044605F080FA28
S1137AC00646DFF824120220086003251E480068D9
S1137AD0000E00F00F00082818BF072803D009285B
S1137AE018BF0C2804D1DFF804020068800304D412
S1137AF02179206800F0FDFE002500F027F83046CB
S1137B0005F062FA284670BD80B505F059FA00F018
S1137B100FF842F0080206E080B505F051FA00F0D3
S1137B2007F822F008020A60BDE8024005F04CBAEA
S1137B305D490A6870470000004008465A490868D1
S1137B4020E000005C5008400440084068490220DE
S1137B5008607047000000008C400840145E00205C
S1137B601860084600280CBF5F4861484FF48071D4
S1137B700160704700000000187008462C5E002069
S1137B8044000840C00800F00100704780B50020A0
S1137B9000F09CFEBDE80240FDF710BF0120FDF798
S1137BA0B7BD80B5012000F09CFEBDE80240FDF7A2
S1137BB004BF0120FDF704BE38B50446A078E1787F
S1137BC0884201D0012032BD6078010002D1FFF764
S1137BD0CAFD01E0FFF79AFD3C4DA178287819B958
S1137BE000F0FE00287004E040F00100287000F06E
S1137BF037F82878E17851B900F0FB00287060204C
S1137C003349086040203A49086000200BE040F006
S1137C100400287060202F49086000F031F83249D0
S1137C20402008600120FFF73FFE286800F0CCFDEB
S1137C30002032BD186008446C0F00210440084045
S1137C4000F0FE0002B1012210437047C90901F09F
S1137C50010181F0010102F0FD0242EA4101704795
S1137C601E490420086001200D4908604FF40050AB
S1137C702049086004200EE000000000187008404D
S1137C8016491D4A4FF480600860012111604FF4C9
S1137C9000511A4A116010490860704700500840AA
S1137CA0281008404C500846000F002100400840AE
S1137CB0186008409440084670000840700008446A
S1137CC084000840944008444C0008403C5E002076
S1137CD04400084644000844EC100846EC100844EC
S1137CE0A0780020080F00218840084688400840FA
S1137CF0884008442410084458100840541008448C
S1137D0080F311887047000070B582B005460C46B8
S1137D104FF6FF76ADF8006002237F2257480188B2
S1137D20684606F08EF9BDF80000B04205D0288000
S1137D30BDF800002080012076BD002076BD00B58E
S1137D4087B001A80FF2F0111422FEF743FC694634
S1137D500DF10200FFF7D8FF38B1BDF80200ADF80D
S1137D600800BDF80000ADF80A0001A801F0F6FA19
S1137D7001220121022001F041FB414805F0CDF927
S1137D800421112001F06FFA00220021032001F0E8
S1137D9035FB07B000BD30B58DB00120394908600E
S1137DA039480068040E684606F08EF98F2C10DA04
S1137DB03648016841F00402026000224FF050137B
S1137DC0334C302555436351521C062AF9D30160C4
S1137DD001E0902C06DA2F480168C909C90141F075
S1137DE0200101609DF80100012804D12A4801689E
S1137DF041F0040101600FF254100FC803AC00F00D
S1137E0053F8FFF79CFF01220121012001F0F6FA4B
S1137E100321224801F027FA0321214801F023FA23
S1137E200121204801F004F906F068F906F067F929
S1137E3007A80FF228111422FEF7CCFB07A800F0C4
S1137E4047FA0FF22C100FC800F02EF805F093FA41
S1137E5006F01DFAFDF74AFE0FF22410D0E90023C4
S1137E60CDE9012301208DF8070001A806F09CFA52
S1137E7006F0F8FCFFF73CF80DB030BD4A71030082
S1137E8000F0490210300E40FC81E00FB0400E407B
S1137E9000A000402C400E4064310E4002001A0045
S1137EA003001C000005080084E80F0003A806F086
S1137EB0F7BA40F20160FDF7F7BF80B5002100205A
S1137EC0FEF70EFABDE80140FEF778BAFEF777BA7E
S1137ED0002818BF06F019BE06F018BE80B506F0DB
S1137EE002FF01460FF2A0000C2938BF00EB81000D
S1137EF002BD000010B506F0F6FE044606F0F7FEDB
S1137F00C0B208B9012C07D1072C11D8DFE804F05E
S1137F1004100608080A0C0E002010BD092010BD2C
S1137F20022010BD032010BD0B2010BD062010BD83
S1137F3044F0800010BD000000000000A0004201D9
S1137F400A200706020A04070000000000010807CF
S1137F500F000A00C8002000A0000000010000007B
S1137F60006A180006010C06010B06010D00000052
S1137F70000108070F000A00C8002000A00000004C
S1137F800000000000000000554E4B00464942002E
S1137F9042544C004558540050575200574447002F
S1137FA02053570043525300465348004241440073
S1137FB0464C540042524F0070B588B0044606F057
S1137FC0B3FE607800F061F8207800F06AF8A078D9
S1137FD000F073F8E0788DF80400A088ADF806008E
S1137FE0E088ADF808002089ADF80A0001A8FEF782
S1137FF0F7F9050002D106F039FF0546FEF78CF8C3
S11380000020ADF8020003AE0FF2CC000088ADF8FA
S113801000000FF2C8000FC886E80F000DF102003F
S11380200490CDF814D003A8FEF748F8064606F0ED
S1138030A3FE064208BF0125FEF76CF8E06800F0D5
S11380400CF8284608B070BD80B50FF2A000FDF70B
S1138050F7FFBDE8014006F083BE38B5040001D146
S1138060002032BD208806F099FE0546608806F09F
S11380709BFE0543606806F0A5FE284332BD06F06A
S11380808DBE06F091BE06F09DBE10B5044606F006
S11380904DFE08B9022010BD2046BDE8104006F090
S11380A0A2BE10B5044606F041FE08B9022010BD78
S11380B02046BDE8104006F089BE10B5044606F01F
S11380C035FE08B9022010BD2046BDE8104006F078
S11380D09BBE06F0A4BE00000208000002000000DF
S11380E0000000000000000000000000A46903007C
S11380F00100000010B5144C207858B913480188C9
S113810008237F22201D00F027F8201D00F011F81D
S11381100120207010BD10B50B4C01460822201D13
S113812001F0D4FD201D00F004F80120207010BDE2
S1138130074880B501460822064801F0C7FDBDE89E
S11381400140FDF71DB90000B47800204C71030014
S1138150B8780020C078002030B583B004467F2A68
S113816008BF002241F2F0154BF23460814219D16C
S113817008237F2241F202016846FFF7EDFF08223F
S11381800FF24411684601F00AFE28B908237F2241
S113819029466846FFF7E0FF08226946204601F0B9
S11381A095FD37BDA94211D140480168406821704E
S11381B00A0A62700A0CA270090EE1702071010AA9
S11381C06171010CA171000EE07137BD12FB03F067
S11381D0C1F30B0501F47042B2F5805F03D11A4676
S11381E045F07E610CE0B2F5005F1CBF01F4704104
S11381F0B1F5405F08D11A4645F07C6141F40111A4
S11382004118204601F062FD37BD2DE9F8430746C9
S11382108846154600246FF00F060FF2A009F807F0
S113822002D5542100F046F8E80702D5552100F0A4
S113823041F8C7F30B0007F47041B1F5805F0CD12E
S113824040F07E642646B4F17E6F04D32819401EA4
S11382501749884210D35A210CE0B1F5005F18BFCA
S1138260B1F5405F05D140F07C6444F40114264626
S113827002E0612100F01EF8002706E0F05DFF280F
S113828002D06B2100F016F87F1CAF42F6D36A08C7
S11382904146204606F04CFE28B174214846BDE80C
S11382A0F443FCF73FBABDE8F1830000F081E00F2E
S11382B00008E00F4846FCF735BA00006D66672DEC
S11382C0746F6B656E2E6300FFFFFFFFFFFFFFFF00
S11382D010B5040030D00121384806F051FE0121C8
S11382E0374800F0A5FE374960684860F8223648F0
S11382F08260227AE37A42EA0322A37B42EA0342BF
S113830042602278130018D102220A60072101601A
S11383100023617B207B042206F0F2FE217CE07BBB
S11383200023042206F0ECFEA17A607ABDE8104036
S11383300123042206F0E4BE10BD012A03D10A6021
S113834005210160EAE7022A04D105220A6001211D
S11383500160E9E7032AE7D100220A60026010BD48
S113836070B51A4C174E25687168002049B113483E
S113837006F021FE716800EB5100B0FBF1F0401EE5
S11383800002134A4FF080411160124A31682A40BA
S113839011430843206070BD0C48016889088900B6
S11383A001604FF080400C49086070470B49096830
S11383B0002944BF0A4908607047000000340600E1
S11383C000250800E86F0020740008407C00084085
S11383D094400846FC00FFFF944008449440084041
S11383E08000084038B504466048614D002912BF3A
S11383F000210178491C01700120012106F0F1FEE1
S11384002878411C89B2032006F0EBFE200003D03B
S1138410FDF7F0FE002808D5FDF7ECFE40054CBF43
S1138420032001200021FDF73CFF524844702846F8
S1138430BDE8384001224FF47A71FEF7FBBC80B5E9
S1138440FCF726FEBDE80240312007F02AB838B513
S11384500446402C154606D1FDF7CCFE00F08020E2
S1138460B0F1004F03D000210020FDF71AFF002CCB
S11384703AD0402C24D0882C18BF892C38D08C2C8E
S113848038D08D2C2DD08F2C39D13B48007804283E
S11384900FD155B13949022008704CF25032BDE871
S11384A038403749002000F059BCFCF7F1FD312079
S11384B021E0FCF7EDFD002D0CBF312000201AE077
S11384C0FCF7E6FD07F0B1F828482E490078097852
S11384D0884204D2BDE834400021012082E74020D4
S11384E009E0FEF7A9FC03E0FCF7D2FD002002E05E
S11384F0FCF7CEFD8D20BDE8324006F0D2BFBDE8CA
S11385003440B62145E01D480078022800D0704769
S113851080B51D480078012807D0032810D11B48D6
S11385200078022818BF7C280AD11549002000F0E1
S113853053FCFCF7ADFDBDE80240002006F0B1BFDE
S113854001BD38B5FEF7F3FC05460C48007800245D
S113855010B9FCF7F6F904462846FFF7D1FB1CB125
S1138560BDE8314000F0BBBC31BD0000617C00209F
S1138570BA7B0020985D0020F35F00206E7C002011
S11385803F840000F75F0020697C00206A7C0020A3
S1138590EB210FF20800FCF7C5B800006D61632DF4
S11385A07068792E63000000012100F01F029140E1
S11385B0DFF8E023400942F820107047890001EBFE
S11385C0401000F184400068704710B50446FFF77E
S11385D0EBFF012004F01F018840DFF8BC1362099F
S11385E041F8220010BD2DE9F047DFF8B073DFF841
S11385F0B083F86DB96EDFF8ACA3DFF8AC53DFF8E5
S1138600AC6301EA000460077C664FF400590FD59F
S11386103078C0070CD50D212846FFF7CFFF28B1CD
S1138620CAF80090B0680068804701E0C8F800907C
S1138630600505D53078400702D5B068806880476A
S113864060031AD50D213846FFF7B8FF30B1DFF8C3
S1138650601310200860CAF860900EE0DFF854033D
S1138660DFF85423102101601160317919B1002120
S1138670317140210160C8F86090DFF84003044282
S113868009D000F059F9A00505D53078000702D5C6
S1138690B068C068804714F0090FDFF824730BD06A
S11386A02020386001206860E00705D53078800715
S11386B002D5B0684068804714F0106F05D02020C0
S11386C038600021BDE8F04727E1BDE8F08730B508
S11386D03025BC4C6843204401604260039919432F
S11386E0416230BD38B50020009040F6FF75B64CAD
S11386F02B46224603210120FFF7E9FF00200090CA
S11387002B464FF40070221803210020FFF7DFFFEF
S11387100020009003234FF48060221800210220DF
S1138720FFF7D5FF4FF40050009000234FF488600A
S1138730221800210320FFF7CAFF0021002002F0C5
S1138740E0FF0021012002F0DCFF0121022002F001
S1138750D8FF0121032002F0D4FF9C49F0200860D7
S1138760A0209B49086003209A4902F080FF07205B
S1138770FFF72BFF9849012008609849086000F032
S1138780DBF8BDE832400FF2A82000681CE010B509
S113879004460720FFF708FF914980200860002263
S11387A0824884602146C26051B151F8223023B11D
S11387B0C368012494402343C360521C042AF4D3A5
S11387C0BDE81040072000E711B578480099C26859
S11387D0844C114000910099016083489DF8001079
S11387E0C9079DF8001048BF8048490780494A6876
S11387F048BF40F4806082EA00031A4022600A60A5
S1138800184008607B49086011BD000002B9704738
S113881010B46C4B00EB400403EB0410D31DDB08D5
S113882002F00702072A1FD8DFE802F00419161322
S1138830100D0A0711F8012B826111F8012B8261D6
S113884011F8012B826111F8012B826111F8012BBF
S1138850826111F8012B826111F8012B82615B1E88
S113886011F8012B8261E5D110BC704702B9704741
S113887010B4544B00EB400403EB0410D31DDB088D
S113888002F00702072A1FD8DFE802F004191613C2
S1138890100D0A07426901F8012B426901F8012B06
S11388A0426901F8012B426901F8012B426901F880
S11388B0012B426901F8012B426901F8012B5B1E6F
S11388C0426901F8012BE5D110BC704730223D49C3
S11388D050430844006AC0F30C00C0F5007080B235
S11388E070473022374950430844006AC0F30C00F3
S11388F07047F8B50446394E012030600D4604F047
S11389005FFB07462A4621460320FFF77FFF3846D0
S113891004F05AFB04203060F1BD0020E9E7364939
S1138920002248600A8018B132494FF48060086020
S1138930704731484068704780B504F041FB2E4AC7
S11389400021118001222D490A600A6310212C4A5A
S11389501160BDE8024004F037BB0A46014601201D
S113896084E710B582B0044604E001216846FFF7AD
S1138970F4FF641EA0B20028F7D113BD80B5022015
S1138980FFF7AFFF04288041C043C00F02BD0120A0
S1138990A7E7000080E200E000E100E08410084066
S11389A02410084624100844241008408878002025
S11389B06C000844640008406C000846000A0A0081
S11389C00840084000100840087400204000084493
S11389D040000846E785000028100840B810084009
S11389E080E100E0EC100844090A0E090D0A0E09A2
S11389F0E8100840EC1008460074002058100840A5
S1138A006800084010B50446FFF7B8FF28B94FF6D0
S1138A10FF7020800020A07010BD04222146022097
S1138A20FFF724FF2088C0F30800208010BD000059
S1138A3000000000F8B5274D2E68040001D1FF2086
S1138A40F2BDFEF774FA244F29683A7821F81240EF
S1138A5036F8021BA142FBD1FFF752F929683A7894
S1138A60B01E401A4010C1B2914208BFFF20C0B2EC
S1138A70F2BD2DE9F843194C174D26688146287834
S1138A8006EBC007FEF753FA8046082249463846EB
S1138A9001F01CF9F88800E00836F188814202BF31
S1138AA031883A889142F7D171887A88914202BF1D
S1138AB0B188BA889142EFD14046FFF721F9206886
S1138AC02A78301AC010C1B2914208BFFF20C0B248
S1138AD0BDE8F283385C0020EC5F00203C5C0020A1
S1138AE070B504468F480D460178164619B1418881
S1138AF0491C418070BD204606F09EFD80B1FCF704
S1138B0038FC38B1A078002E14BF40F0010000F00A
S1138B10FE00A07029462046BDE870402E2200E0E9
S1138B2070BD70B504460D461646601C01F04AF946
S1138B3010F0070F1ABF41F64901884200260121AF
S1138B40002006F04EFB2078411C89B2022006F07A
S1138B5048FB32462946204601F01BFF18B1BDE808
S1138B60704007F063B86F488188491C818070BDEC
S1138B702DE9F047A4B001F056FF6A4D804668889D
S1138B8008B100206880A988080004D00D2006F0F0
S1138B9028FB0020A8805FEA080038D001F056FDC9
S1138BA00646701C377801F00DF910F0070F1BBF53
S1138BB041F64901884200242E24404601F05DFD1F
S1138BC0304461420844A0F10801082201A801F0E0
S1138BD07DF801ACE078FCF774F83946FCF772F8DC
S1138BE08146514894F902A0007888B1A868002809
S1138BF00DD0002000907B1CDBB20022414603A86C
S1138C0001F030FFAB685246494603A8984786E016
S1138C10404607F0EEFD0028F9D00521404601F05A
S1138C2067FF07460320FCF7F6FF404C404907F076
S1138C3007002070FF20087086F8019086F802A0D3
S1138C409DF80400F070404608F089F90328404676
S1138C5002D109F055FB62E008F072F900F005005A
S1138C60042807D02078032804D1404606F059FC94
S1138C70002854D107F01CF818B107F019F801289E
S1138C8002D1207800284AD1EA68100004D00021DB
S1138C9040469047002842D1264D2878032818BF23
S1138CA0042805D0022821D123480078C0071DD408
S1138CB006F0FEFF032819D1404608F008FAB0F583
S1138CC0004F13D1404608F025FA1C490988814217
S1138CD00CD0404608F034F9000707D4404608F0A9
S1138CE02FF940061BD52078012818D128780428AC
S1138CF003D1F80648BF06F0F5FA207820B1012820
S1138D000AD0032804D00AE0404608F071FE06E0C9
S1138D10404609F0CBFF02E040460AF015F824B0C3
S1138D20BDE8F087C8780020BF6E0020697C002071
S1138D306A7C0020B2720020B6720020725D0020AE
S1138D4010B53C4A014652F821301C0005D00024DD
S1138D5042F82140BDE81040184710BD2DE9F84302
S1138D6004460E463000154603D1FDF78BF928184A
S1138D702DE02746022F0FF2C40802DB452100F044
S1138D8028F8DFF8B09059F8270010B1462100F018
S1138D9020F8B5F1004F02D3472100F01AF849F842
S1138DA02760200002D04A2100F013F80121284650
S1138DB0FEF783FD38B1FDF765F905462046FFF758
S1138DC0BFFF681E03E0BDE8F143FEF79EBDBDE8AA
S1138DD0F2834046FBF7A6BC2DE9F0410446264643
S1138DE0022E0D460FF2540703DB57213846FBF7DA
S1138DF099FCFEF79CF880460E4850F82610A942CC
S1138E0009D1002140F826101CB160213846FBF737
S1138E1089FCFEF782FD4046BDE8F041FEF770BFD5
S1138E200BF08AB8010008BF0120020102490020AA
S1138E3094E70000E0780020218E000073796D62D1
S1138E406F6C2D74696D65722E63000070477047F6
S1138E50704770B504460FF2A405433808D0401E8D
S1138E60012809D9801E01280ED9C01F31D02AE05B
S1138E70BDE870400BF01DBE0BF0F3FD20B10BF00C
S1138E8018FE0028FBD170BD124E307808BB0120BB
S1138E90307000200BF086FE442C11D00CD3462CED
S1138EA005D00DD3472C07D140F6010001E040F670
S1138EB00200FCF7F9FF03E0AF212846FBF732FC80
S1138EC00020307070BDC1212846BDE87040FBF71A
S1138ED029BC70BD557C0020704770477047FBF774
S1138EE003BE70477047704770471CB5059C0194DA
S1138EF0049C0094FFF7F8FF13BD000074687265CA
S1138F0061642D63616C6C6261636B2D7374756253
S1138F10732E6300890001EB401000F1844002606D
S1138F207047890001EB401000F1844000687047ED
S1138F3000F18063196000F1C0600260704710B5F1
S1138F408142A441E20F1021DFF8E005FFF7E2FFC0
S1138F50E20F1821DFF8DC06BDE81040DAE7DFF89D
S1138F60D015CA6B02B1012241F67133CB630B6891
S1138F70DFF854361818DFF8C036984234BF4FF083
S1138F80807000200B6823F0407318430860D2B24D
S1138F900AB10020C8637047C01C0F2801D2000723
S1138FA070474FF07040704738B50446002500F014
S1138FB013F9DFF85816DFF87826944208D0DFF862
S1138FC07C26944206D0DFF87826944204D006E04A
S1138FD0086802E0486800E0886800F00700401E66
S1138FE0032819D8DFE800F002050C0804F0A6F8FD
S1138FF004E004F0A9F801E004F0A3F805460BE04E
S1139000DFF830060068C00103D504F059F885087C
S113901002E004F055F84508284632BDDFF824166E
S11390204A68D20702D40A680242FCD170470000A1
S113903070B50C460021DFF81C56021202F00F0234
S1139040521E092A14D8DFE802F005141313071678
S113905019131C20DFF8D454C0F3043611B10846A8
S1139060FFF7DCFF224631462846BDE8704051E751
S113907070BD1035F0E730350121EDE738351021AA
S1139080EAE740354FF48031E6E7DFF8CC55E3E713
S113909070B5DFF8B4150E68DFF8C045DFF8902529
S11390A00125DFF8981510F478105AD0B0F5003F78
S11390B027D0B0F5802F1ED0B0F5002F51D0B0F5D9
S11390C0202F24D0B0F5402F43D0B0F5602F4DD0E1
S11390D0B0F5901F38D0B0F5A01F21D0B0F5B01F67
S11390E027D0B0F5D01F19D0B0F5E01F1FD0B0F5D0
S11390F0001F29D039E003F0F2FF6168C1F30821B1
S11391000AE003F0ECFF2168C1F3082104E003F056
S1139110E6FFE168C1F30421491C12E0104615E0A2
S11391201046FFF741FFA16901F00F0107E008466F
S11391300CE00846FFF738FF216A01F0030105FA45
S113914001F1B0FBF1F611E0DFF8F404FFF72CFFB6
S113915009E0DFF80C0500F03FF8072806D00828DE
S113916003D103F0BCFF064600E00026304670BD84
S1139170DFF8C0140122031103F00F035B1E072B59
S113918028D8DFE803F004060A0E10141C27086828
S113919000E04869C0F3042070470868C0F3006029
S11391A07047C86800E08868C0F308207047DFF89B
S11391B0B43498420ED1086A00F00F0006E0DFF8DC
S11391C0A834984206D1886A00F0030002FA00F03D
S11391D0401E7047002070470121DFF8982400F0FA
S11391E00F00401E05283BD8DFE800F00311153AB4
S11391F02230506A00F00700022804D005D3042866
S113920007D01FD301E004212BE0052129E01069D8
S11392100FE0022125E0506900F00700401E0328FA
S11392201FD8DFE800F00F020311F2E7062118E06F
S1139230906900F00700012804D00228E9D004282E
S113924002D00EE003210CE009210AE0106810F0BE
S1139250010003D0012804D1082102E0072100E025
S11392600021084670472DE9F04103260327DFF863
S1139270BC42DFF8D883DFF8945300F00F000128D4
S113928006D0022834D0032831D005282DD03CE064
S1139290DFF8DC03022906D003291CD004291CD0E2
S11392A0052920D03BE0042600270122012138466D
S11392B000F0A4F803F011FFFFF751FE6667DFF832
S11392C0AC03FFF7E5FE4146FFF739FE03F0F8FE75
S11392D0FFF745FE19E00127E7E70226022741468A
S11392E0FFF72DFEE1E70126F9E7083500E02D1D23
S11392F0012908D0022914D0032919D006291ED027
S1139300092929D00BE00020286010212046FFF70E
S113931008FE1821DFF81C03BDE8F04101E6BDE8B2
S1139320F08101220121002000F068F80220EBE71F
S113933001220121012000F061F80120E4E703F09B
S1139340BFFE4146FFF7FBFD01220021DFF80403C5
S1139350FFF7E0FD0320D7E70420D5E710B500F0C0
S113936044F801220021022000F048F80022207C69
S1139370022808BF0122207808B142F4807240F22A
S11393800111DFF8F802FFF7D3FDE27A0721DFF8D5
S1139390F002FFF7CDFDA088617A41EAC022DFF830
S11393A0E412DFF8E402FFF7C3FD207AFFF7F4FDCF
S11393B0E188227AD20142EAC121A27A114340EA29
S11393C001026FF07F61DFF8C402FFF7B1FD207B7B
S11393D0617B090341EA0040A17B40EA0110E17B83
S11393E041EA0002AA49AB4802E004461120F3E630
S11393F0BDE81040FFF79CBD000000002DE9F84FC8
S113940082469046042870D8DFE800F04B463C03BF
S113941041000126022001270024DFF83492974DF1
S113942000295DD04FF0000BBAF1020F04BF286889
S113943010F0300F0AD14FF0010B2868C00705D592
S1139440286820F0300040F010002860EE6300F03F
S11394504EF80028FBD0B8F1000F46D0394600F092
S113946047F80028FAD0BAF1020F3ED1BBF1000F41
S11394703BD02868C0071BD501222021022000F020
S1139480C7F819E00426082003270224C5E710269C
S1139490202005270424C0E740268020072706242F
S11394A0BBE74FF480764FF4007009270824B4E733
S11394B00021022000F08AF8022000F01DF8044682
S11394C0012200210220FFF799FF2146022000F02B
S11394D031F8EE63394600F00BF80028FAD004E0C6
S11394E0E86300F004F80028FBD1BDE8F18F2146C1
S11394F04846FFF716BD00005F49401E032812D8F6
S1139500DFE800F0020C06080869C0F308007047A1
S1139510086800E0886800F07F0070475E480068D3
S1139520C0F30A00704700207047000000400E405E
S113953004000E4070B50C4604F07F014E4D414EC0
S1139540401E03283FD8DFE800F0022A101DC4F3B0
S113955008041A213046FFF7E4FC0028F9D12869F1
S1139560400A44EA4020286170BD0C461821304668
S1139570FFF7D7FC0028F9D12868C00944EAC010D5
S1139580286070BD0C4619213046FFF7CAFC00283C
S1139590F9D1A868C00944EAC010A86070BD3B4E68
S11395A0306E686920F0300040F010006861C4F348
S11395B0C310FFF7F1FC40EA040238493046BDE825
S11395C07040FFF7B5BC70BD7F4573FE2B48026841
S11395D012F0300F18BF002907D0202902D03029FB
S11395E003D005E04FF4000103E04FF4400100E034
S11395F02B49C26E0A408A42FBD1490204D5C06F8E
S1139600800A00F0010070470120704780400E403E
S113961010B502280AD10B0004D0224B4FF4806409
S11396205C64196012B1BDE81040CFE7012010BDA1
S113963002001A0000410E40809FD50003001C0068
S11396400500200040410E40305C00200048E80145
S113965090400E40B0400E4050410E4008410E4034
S113966006000C00600614007007160000050800D0
S11396700148E80170400E4010400E4024400E4066
S113968028400E407FF80F002C400E4030400E4022
S1139690FFF00F0034400E409C400E40FF0700F0E6
S11396A0FF03E10764400E4010B590FAA0F2B2FA4D
S11396B082F21F4B1C6824EA0000914008431860A2
S11396C010BD01201B490860704730B51A48016875
S11396D0002000220FF26C0303EBC2046468174DF0
S11396E02D686D070FD453F83250B5F5007F18BFBD
S11396F0B5F5806F05D0B5F5006F18BFB5F5803F9F
S113970001D144F480740E4D2D68ED0548BF24F05A
S11397101C0453F83250294202D0214208BF284386
S1139720521C092AD8D3C10348BF20F01C0030BD05
S113973000500E4008500E4004500E40E841E00F27
S113974088300E400100000000000000040000000A
S113975001000000080000000100000010000000EB
S113976001000000000100000100000000080000EA
S11397701D000000000200001D00000000040000A5
S11397801D000000000001001D0000000168C90761
S113979007D58168890704D48168C907FCD40121ED
S11397A04160704780B501216C48FFF741FC6C496A
S11397B001200860002005F062FC0123042202213C
S11397C0052005F09DFC012201210420FFF716FE6F
S11397D00BF02FFB0123402262490FF2C0100BF063
S11397E0F3FA61490028086001D5012002BD012077
S11397F0FCF7EDF900F004F8FCF708FA002002BDCC
S113980010B55D485A4C016841F001010160002225
S1139810C16841F08071C16000235849584808600C
S113982058480260514A1360022323601523564CA2
S1139830236000230364554B0B65554911604FF4B5
S113984080714C4A1160016841F48071016010BD5F
S11398504948006800B10120C0B27047D1220270AB
S11398604170090A81704B490A78C270501C087013
S1139870042070472DE9F84F80464D1DFDF720FB6D
S1139880002782464FF6FF7B434C15E008EB0700A8
S1139890594610F8026C30460BF0DAFA83464F460C
S11398A032480068C00707D536480068C00503D5AC
S11398B020680028FCD02670FFF7CAFF40B3F8B236
S11398C0E9B2884224D2FDF7FBFAA0EB0A0080B289
S11398D0B0F5FA7F22DCF8B210B95B260127DFE786
S11398E007F10109FFB2012F08BF6E1FD7D0EDB2F7
S11398F0E81E874208BF5E46D1D0A81E874208BF33
S11399004FEA1B26CBD0681E8742BFD15D26C6E72F
S1139910FFB2EDB2AF4208BF002000D00120BDE885
S1139920F28F10B50C460246217800200529A4BF09
S11399301046FFF79FFF0421217010BD00B50A48AF
S1139940006891B0402269460BF028FA20B1C2B2F7
S113995069461220FCF7FCF911B000BD002508008F
S113996010881442986F0020145D0020800E00E0DF
S1139970F00004E0040304E0F0ED00E0B00F00E0C8
S113998055CEACC5000E00E0100004E0FF0300401B
S11399900D0001005A7C0020200000E073696C6116
S11399A062737675617274646F776E0070B5134676
S11399B0104402E0A4192C705B1EDCB24CB101F01F
S11399C00F060909451E28460A2EB4BF3024372441
S11399D0F0E7104470BDF0B5002341B1002806D56E
S11399E02D2111700123B0F1004F18BF4042002116
S11399F000240FF2B425002655F8247001E0C01BA2
S1139A00761CB842FBD2F7B20FB90F0005D006F1AD
S1139A103001DBB2D1545B1C0121641C092CEADB4C
S1139A203030DBB2D054581CC0B2F0BD2DE9F24F37
S1139A3096B0804615469B4603AE0027002413A823
S1139A40019003A88DF800000BE00124054601985D
S1139A50864205D300F0DCF800284FD100F0CEF8A0
S1139A606D1C9DF80000301A29780A000BD02529B6
S1139A7003D014B906F8011BE9E7002C14BF002435
S1139A806D1C29780A0000F0AF80B1F1250216D0D0
S1139A900B3A092A40F28980283A7DD00A3A12D03A
S1139AA0521E41D0521E5FD0083A5DD0121F3ED0E4
S1139AB0D21E3CD0921E57D0D21E6DD0C7E72520AF
S1139AC006F8010BC3E7DBF8000002900BF1040079
S1139AD0D0F8009000F1040B4FF0000ACA45B6D24A
S1139AE00222029810F80A103046FFF75FFF06467C
S1139AF00198864205D300F08BF800287AD100F053
S1139B007DF8A9F1010082453CBF202006F8010B35
S1139B100198864205D300F07BF800286AD100F052
S1139B206DF80AF1010AD9E75BF8040BC8E75BF8A2
S1139B30049B00F067F800285CD100F05FF84FF058
S1139B40000A01E00AF1010A5FFA8AFA19F80A0028
S1139B500028F7D1524649469DF85800C0470028CE
S1139B6048D15744FFB272E76C290AD15BF8040B61
S1139B706A78752A0EBF00210121642A07D16D1C61
S1139B8005E075295BF8040B0CBF00210121324666
S1139B90FFF721FF36185AE75BF8041B0222C9B20B
S1139BA03046FFF703FF064651E701246A78782A16
S1139BB018BF582AF8D16D1C0024681E322904D11C
S1139BC05BF8040B042281B2EAE734297FF43DAF49
S1139BD05BF8049B04224FEA19413046FFF7E6FE86
S1139BE004221FFA89F1DCE700F00CF810B9F0192F
S1139BF0C0B200E0002017B0BDE8F08FF719FFB243
S1139C0003AE70470646F2B203A99DF858004047D8
S1139C109DF80000361AF2B203A99DF85800404797
S1139C202DE9F047804615461E46FCF727F901004A
S1139C3015D100270FF2680A0BA40FF2300900E0D7
S1139C407F1CB7420BDA701E8742B4BF4B462346D3
S1139C50EA5D5146404600F01BF80100F0D0BDE833
S1139C60F08703A114E000000000000020000000C1
S1139C700D0A00000CB438B5044604AAFCF7F0F849
S1139C8005462046FFF7EDFF284632BC5DF80CFB85
S1139C900CB480B502AAFCF7E3F802BC5DF80CFB37
S1139CA0257825730000000000CA9A3B00E1F50501
S1139CB08096980040420F00A08601001027000003
S1139CC0E8030000640000000A000000814233D26F
S1139CD01044401E1144491E10E0121F11F80139AE
S1139CE000F8013911F8013900F8013911F8013986
S1139CF000F8013911F8013900F8013992B2042A47
S1139D00EBDA93B2002B1EBF11F8013900F80139C8
S1139D10521EF6D17047121F11F8013B00F8013BA7
S1139D2011F8013B00F8013B11F8013B00F8013B3D
S1139D3011F8013B00F8013B92B2042AEBDA93B22A
S1139D40002B1EBF11F8013B00F8013B521EF6D157
S1139D50704710E0121F11F8013B00F8013B11F8A5
S1139D60013B00F8013B11F8013B00F8013B11F8FD
S1139D70013B00F8013B92B2042AEBDA93B2002BC8
S1139D801EBF11F8013B00F8013B521EF6D170478B
S1139D90130003D00A4619460BF06EB8704710B58D
S1139DA000E0521E93B223B100F005F8F9D0181B5D
S1139DB010BD002010BD10F8013B11F8014BA34267
S1139DC0704700004178007801E00178407800EBAA
S1139DD0012080B270470170090A417070470A0A75
S1139DE002704170704710B50023040014BF1C4674
S1139DF0C3F10304E4B25B1C0A55120A042BF4DB1E
S1139E0010BD30B50024050014BF2546C4F1050576
S1139E10EDB2641C4A55120A42EA03621B0A062C7C
S1139E20F1DB30BD30B54A788B78CC78097818B13D
S1139E3020461D460C4602E0154608461A4645EAE9
