S02800007365637572652D6170702D626F6F746C6F616465722D7370692D6D3435706532302E733337CC
S31508000000000400207500000881000008810000082F
S31508000010A70B0A0100000000010254610020000835
S31508000020041B0000110D00089912000818060008A4
S315080000308B07000815080008730800080908000857
S31508000040E707000839090008ED0700080000000066
S31508000050FFFFFFFF05480068202100EA010020B1E4
S315080000600348016842688D46104770472C000040D7
S3150800007000200008FFF7EEFF00F00DF800F040F84A
S3150800008005E00000854670474248008870474FF4EF
S31508000090017000F099B838B500F0C0F84FF20F04B7
S315080000A03D4D28B140F2052028806C80012032BDE4
S315080000B03A480068C00615D56888A0421ED1288827
S315080000C040F2022188421CBF40F20621884215D020
S315080000D040F2011188421EBFB0F58A7F40F2111125
S315080000E088420BD02E4C208A40F6A721884205D19B
S315080000F02068FFF7C7FF6068804700BF002032BD51
S3150800010038B50400274872B60168490849000160F5
S3150800011000F0CAF821480068000910F001000CBF79
S315080001202149224902E0CD2201F8012B204A9142B9
S31508000130F9D32049204A214B03E011F8015B02F864
S31508000140015B9A42F9D31E491E4A002301E001F8D1
S31508000150013B9142FBD3104A53884FF20F05AB423D
S3150800016040F205210AD113888B4205D030B1180A0E
S31508000170012818BF022801D1194601E004B9002157
S31508000180044801804CF23C30508000F015FABDE876
S3150800019032407CE7B40C0020000000202C00004010
S315080001A000200008FCED00E0000000209800002078
S315080001B000040020F01700080004002004040020B2
S315080001C004040020BD0C00200D4A302111600D4AA0
S315080001D0116010210C4A1160010A00290B4908BF59
S315080001E0000208804FF20F004880BFF35F8F08486F
S315080001F00021016041600748074908607047000010
S315080002003020004030C8004010D0004000000020D8
S315080002101C4000400400FA050CED00E00020704781
S3150800022080B500F0FDF90121152000F006FA152029
S3150800023000F02DFA0121072000F0FFF9072000F051
S3150800024019FA1748016821F01001016001BD000084
S31508000250052800D9704710B5DFE800F01721030F0D
S315080002601C17104C2088411E2180C0B9072000F0B9
S315080002701BFA42F21070208010BD072000F007FA22
S31508000280BDE81040152000F00FBABDE81040152053
S3150800029000F0F0B9BDE81040152000F0F8B910BD1F
S315080002A000BC0040B60C0020554951200860704734
S315080002B038B55449C9780429B4BF302460244FF4AA
S315080002C0F071B1FBF4F1451A1E2DBCBF4FF4017055
S315080002D0FFF77AFF4C484D4A07210160002141602B
S315080002E081604FF00071116005FB04F1C91C890893
S315080002F0491E416031BD434A01215170D8E72DE9B5
S31508000300F041444F424D78883E4E4FF6FF784045BF
S3150800031040F2DC541CD14048018802237F22B81CD5
S3150800032000F0D8F97888404504BF02207880A8698B
S31508000330800703D4A86940F00200A8610120B070C4
S31508000340788828602046FFF7D6FF2046BDE8F0816A
S31508000350A8698007EED52C480068C00348BF00F09E
S315080003603BF8B0780028F0D1A868A9687A8810F018
S31508000370010003D10F2A08D2521C06E0890704D5CA
S31508000380397811B1032AA8BF424492B2022A3870BA
S31508000390B8BF02227A80286879888842CED1A869AF
S315080003A000F00300032808D0A869154940F00100A9
S315080003B0A8610120E861512008600020C6E710B551
S315080003C0044601E000F0BCF92046FFF798FF01005B
S315080003D0F8D110BD0220F2E70B480C4A0021416013
S315080003E08160016821F00201016000210548417021
S315080003F04FF000711160817809B100218170704752
S3150800040000800040B80C002010E000E004ED00E099
S315080004100440004000040020EC17000800787047EC
S31508000420002101608180C18001817047F8B50446CA
S315080004300D461646002711E020688030206000200F
S31508000440E08080202081A088401CA080BFB2E08880
S31508000450411C2044E180807AE8557F1CB8B2B0423E
S315080004600CD2E08821898842F0D32068802204F1E2
S315080004700A0100F0CFF90100DED0F2BD0020F2BD7E
S315080004801720704710B5044600F0D3F82046BDE89B
S31508000490104000F076BA2DE9F041A4B000F05AFAFF
S315080004A000F0C7F800F0ACFA0121684600F0B0FA8F
S315080004B03F4C04F1800500206860A86000F093F9BD
S315080004C000280FBFE8608168E96040882880684690
S315080004D000F06DFB0028074644D1BDF80610BDF8AC
S315080004E004600DEB010000F10A0828788007F6B2CF
S315080004F00ED5E96861B1686832184B1E22EA03070F
S3150800050010B1A868B84203D2384600F015FAAF60B1
S3150800051032466868414600F0ACF9074680B9686813
S315080005203246214600F076F9002000E0401CB04231
S3150800053006DA215C18F800209142F7D0832706E0F6
S3150800054068683018002F6860C1D01B2FBFD0042000
S31508000550FFF77EFE0121384600F0B1FA384624B08E
S31508000560BDE8F081172FF0D10020F8E770B5DAB0B2
S31508000570044636A8FFF754FF012000904FF40263A3
S315080005800C4A36A901A800F0C3FB0FF28C050FF23E
S315080005907C0600F04EF8200014BF3246002201A95E
S315080005A0284600F079FE5028F3D05AB070BD0000F6
S315080005B0240C00200404002010B5FFF765FD04464E
S315080005C000F09CFEFFF72CFE00F0DFF818B14FF4A0
S315080005D00170FFF7F9FD00F02CF840F20110844293
S315080005E01CBF40F21110844209D0B4F58A7F1FBFA0
S315080005F040F20520844240F20320844201D10120C2
S3150800060000E0002000F07CFE002010BD5B1700080B
S31508000610971700081D0400082D0400088104000827
S315080006201148012181604EF6BE2141600121016019
S3150800063070470E49012008607047F0B5C20892025B
S315080006400B4CA518830010F0040014BF6E68A6585A
S3150800065003F00C030F279F40BE439940314308B16E
S315080006606960F0BDA150F0BD006000400860004020
S3150800067000B00040C108032908DA012100F007028A
S315080006809140C008104A02EB802001607047C108FB
S31508000690032908DA012100F007029140C0080B4A35
S315080006A002EB802001607047C10803290ADA084A6C
S315080006B002EB812101230A6800F0070003FA00F023
S315080006C0504008607047000014B0004010B0004069
S315080006D00CB0004030B5044610467F2808BF0020FD
S315080006E04BF23462914283B01AD108237F2240F636
S315080006F012016846FFF7EEFF08220FF23C01684632
S3150800070000F062FE30B908237F2240F2A2716846E3
S31508000710FFF7E0FF08226946204600F035FE37BDA0
S31508000720044D294300FB03111A46204600F02CFE0F
S3150800073037BD000000000408FFFFFFFFFFFFFFFFB3
S3150800074007490A68032809D34B6D43F001034B6533
S315080007500B689B1AC3F313038342F9D3704700004F
S31508000760382000406F49086048680007FCD50868CB
S3150800077070476C49FF2008604A681207FCD54A682A
S31508000780920748BF0868C0B2704710B5092109200A
S31508000790FFF753FF04210A20FFF74FFF09210B201B
S315080007A0FFF74BFF01210C20FFF747FF5E485F4C20
S315080007B00021C16001614160102141600221016090
S315080007C042F21070FFF7BCFF102060609F20FFF711
S315080007D0C9FFFFF7CEFF10212028216001D1002094
S315080007E010BD862010BD0FF25410704700207047C8
S315080007F010B54E4C102060600520FFF7B3FFFFF7D9
S31508000800B8FF1021216010BD80B5FFF7F1FFC007C2
S31508000810FBD401BDF8B5064645480C461546864242
S315080008203CBFA919814201D38520F2BDFFF7E0FF3D
S31508000830C007FBD43D4F102078600320FFF792FFD6
S31508000840300200F077F8300400F074F8F0B2FFF7E1
S3150800085089FF05E0FFF7EDFEFFF78BFF04F8010BB4
S315080008602846451E80B20028F4D1102038600020A2
S31508000870F2BD2DE9F84F04462D48884616468442AF
S315080008803ABF31198142852049D220064FF4807A31
S3150800089007D0200A000200F58070814204D3051BA8
S315080008A005E0B6F5807F01DC354600E055463000A8
S315080008B034D0AB46C146FFF79BFFC007FBD41B4F9E
S315080008C0102078600620FFF74DFF1020386078600A
S315080008D00A20FFF747FF200200F02CF8200400F05A
S315080008E029F8E0B203E0FFF7A4FE19F8010BFFF7B9
S315080008F039FF5846A0F1010B80B20028F3D1102029
S315080009003860FFF775FFC007FBD4761BADB22C190C
S31508000910B6B2B6F5807FA844C8DCC5E70020BDE8B6
S31508000920F28F00003CC8004054C8004010B4004094
S3150800093001000400000E15E7882070470201000038
S31508000940000000000001000000000400E417000891
S315080009500100000080B527486821416102218160B5
S315080009600121016009200921FFF767FEBDE804405F
S3150800097004210A20FFF761BE1F4800684006FBD520
S3150800098070471E49CA685207FCD50860704710B5FB
S31508000990044603E014F8010BFFF7F3FF207800285C
S315080009A0F8D110BD10B5044600090A28ACBF373087
S315080009B03030C0B2FFF7E5FF04F00F000A28BDE8A3
S315080009C01040ACBF37303030C0B2DAE70A480068AA
S315080009D010F0020018BF0120704710B50446FFF753
S315080009E0F5FF20B1054800682070002010BD0120E1
S315080009F010BD000054C8004048C800403CC800402C
S31508000A0080B56846FFF7E9FF0028FAD001BD000067
S31508000A100170012201290CBF80214021818042708A
S31508000A2000218270C1800181204801600E21816207
S31508000A30016821F0100101600021416341624261B1
S31508000A4070472DE9F041194F194E044600F032F867
S31508000A5090464FF0FF303060C7F82C80002078624F
S31508000A600D46386840F001003860FFF7E2FD012CBA
S31508000A700FD135B9FFF7AAFF00F0010080F0010099
S31508000A8002E02846FFF7A9FF28B900F013F800206E
S31508000A900AE0012008E03068C007E6D55FEA0800EA
S31508000AA0E3D000F007F81620BDE8F08100E000402A
S31508000AB000A800403868400840003860704738B5DC
S31508000AC004460D4600F009F800F007F82A462146C4
S31508000AD0BDE838401820FFF7D5BC2A46214618201D
S31508000AE0FFF7D0BC70B5044682B0002020814AF6D4
S31508000AF0B43220786946FFF7A4FF08B11C2076BDFA
S31508000B009DF80000032818BF182801D1182076BDC3
S31508000B10042801D1172076BD012801D0212076BDF1
S31508000B20002500E06D1CA188EDB2091D8D420BDA87
S31508000B30601900F10A01207840F2DD22FFF781FFF3
S31508000B400028EFD0262076BD0025002006E00146C5
S31508000B50EDB260196D1C007B00F048FCA288E9B272
S31508000B609142F4D3A37AE17AC918FF2901D0222049
S31508000B7076BDA5182E7BB6EB102F01D0232076BDA7
S31508000B80697BC0B2814201D0242076BDA078834219
S31508000B9007D0401EC0B2834201D1272076BD25204A
S31508000BA076BD901C20810220E080002076BD38B5F5
S31508000BB004466078012804D040D303283CD033D3B8
S31508000BC03CE02078012816D13B256846FFF705FF4B
S31508000BD00028FAD04320FFF7D4FE207840F2DD2221
S31508000BE00021FFF72EFF30B12846451EC0B2002867
S31508000BF0F0D11B2032BD022060702046FFF772FF3D
S31508000C00050018BFFFF7FCFE272D19D1A07822781A
S31508000C10411EC9B20620FFF735FC002DEDD1032091
S31508000C20FFF716FB002032BDFFF7EAFE00F023F8B7
S31508000C30A078401CA070E0E7172032BD182032BD0E
S31508000C40A80603D52278A1781520E4E7680603D418
S31508000C50182D18BF1C2D07D121782846FFF72FFF1E
S31508000C6004206070284632BD172DD6D100F003F84F
S31508000C7003206070E0E72278A1780620FFF702BC1F
S31508000C80F8B504460D4616461F4607E03046A04707
S31508000C90294600F0BEFB05467F1E761CB8B2002822
S31508000CA0F4D12846F2BD38B50C46154605E001468E
S31508000CB014F8010B00F0ADFB6D1EA9B20029F6D1A0
S31508000CC032BDF8B507460E4614461D4630683B68E1
S31508000CD02A4621469847070005D1F0682A46214644
S31508000CE0FFF7E1FFF060D6F8A8002818C6F8A800B4
S31508000CF096F8A70050B1AC362A462146304600F091
S31508000D005DFC2A462146304600F0D8FB3846F2BD3F
S31508000D1070B58AB004460E98A072238162600D46AB
S31508000D20022228686946FFF775FDBDF8000048B33A
S31508000D302868202201A9FFF76DFD00200FF2B051A7
S31508000D4001AA0B5C125C9A421CD1401C0828F7DBEE
S31508000D50BDF80C0040BAA8B9079801BA202911D3E2
S31508000D6006BAFFF740FDC06886420BD2202201A9C9
S31508000D704FF0FF30FFF797FFBF49884202D1079827
S31508000D8000BA286025604FF0FF30E060002100209F
S31508000D902074282204F1A40001808021817000219A
S31508000DA0C170416004F1AC0000F007FB0AB070BDE9
S31508000DB02DE9F84F8B4604469BF81B70D068AE4960
S31508000DC0802FA8BF802788421E4653D1002E4FD0B9
S31508000DD0B06800904FF0FF384FF000090BEB490060
S31508000DE000F1480A9AF800500DE0FFF722FCE802E5
S31508000DF040F0006200984FF400634146FFF740FF59
S31508000E006D1C8046ADB29AF80100A84205DA09F1D0
S31508000E100109B9F1060F02DAE0E7FF2DE5D1DBF8A3
S31508000E2044006FEA0801884224D1A068736800BAB2
S31508000E307A0859469847C8B9E06805BAA06802BA58
S31508000E40B0683B464FF0FF31FFF71AFFC0438542B3
S31508000E500CD140F6A720ABF810000122A0687368F1
S31508000E6000BA0BF110011030984708B1422002E091
S31508000E70172000E04320BDE8F28F2DE9F04F8946A0
S31508000E8009F1040683B08046D6F800B0B088ADF8FC
S31508000E900000144604235A464046FFF712FF010095
S31508000EA010D1BBF8000040BA80B20190BBF802002E
S31508000EB047BABFB2F80706D501984FF208618842CB
S31508000EC018BF46207DD1B7F5026FC8BF4E2078DC23
S31508000ED0002F75D00198DFF8A4A109F13C0560B18F
S31508000EE04FF20861401A70D040F2FC51401A67D0A0
S31508000EF0FF387CD0FE387AD0BBE0307B08B1512071
S31508000F005FE08D2F28BF4F205BD23B4609F11802C0
S31508000F1049464046FFF7D5FE010052D1EA78802AB5
S31508000F20A8BF802202F10C00874201BFB08A40BAEE
S31508000F3000F47F40B0F5007F45D1F08A40BA4EF202
S31508000F405031884202BF308E40F6A72188423AD1F6
S31508000F50708E00F47F41B1F5807F01BFB16909BA8F
S31508000F60DAF81C3099422ED1BAF8181040F2032349
S31508000F7099420DD1B0F5847F25DB686C410522D1F5
S31508000F803F49081AB0F5303F1DD8B0F5005F1AD3AF
S31508000F904FF6FF70308609F124014FF0FF30FFF756
S31508000FA082FEF16909BAC943884204BF2878042831
S31508000FB009D168781B2818BF062804D10120307388
S31508000FC00020BDE8FE8F4520FBE7307B88B1BDF8E1
S31508000FD000008742B4BF3C460446234600F052F858
S31508000FE00100EED13F1BBFB2002FF0D1E8E7307BFE
S31508000FF008B94120E5E7042300F044F80100E0D1F0
S31508001000DBF8000006BADAF81C003F1F8642BFB2BA
S3150800101038BF4820D5D3E96BB819884228BF49207C
S31508001020CFD201984FF6035188420AD14CB12268B3
S3150800103031460220904720B14A20C2E77F1BBFB243
S31508001040AE19002FBCD0BDF800008742B4BF3D469C
S3150800105005462B4600F016F80100B2D1002CEDD05B
S3150800106063686A085946304698470028E6D04B20F8
S31508001070A7E74420A5E70000E320BBDE0000000840
S31508001080000003085A46494640461AE62DE9F04745
S3150800109015462E1D0446B6F804A0102C894638BFFE
S315080010A04E2031D305F1AC080423424600F02EF851
S315080010B0010029D10C2305F1B00200F027F8010040
S315080010C022D1D5F8AC0000BA103CC5F8AC00A4B2E1
S315080010D02146404600F0BAF905E031683A464046EE
S315080010E000F0ECF9E41BA0B250B1A7B2574588BF8F
S315080010F0574632683B4600F009F80100EDD003E098
S31508001100404600F0FEF90020BDE8F087294648462B
S31508001110D7E52DE9FE4F8346884608F1A40608F16F
S315080011200404B0782568832891464FF6071A05D136
S31508001130B788822250465146B2700DE004232A46EB
S315080011405846FFF7BEFD01006AD12888698840BA6B
S3150800115080B24FBABFB20146FA0706D54FF6062245
S3150800116091421CBF514546205AD14FF20972B178B7
S31508001170801A56D04FF4FF72801A37D0FF382CD019
S31508001180FF3802D0FF3868D07FE0802967D1062F64
S3150800119020D3062301AA41465846FFF792FD0100CF
S315080011A019D1BDF8040040BA00F47F40B0F5007FBD
S315080011B001BFBDF8080040BA4EF25031884209D145
S315080011C0BDF8060041BA012903BF40BA30800020A5
S315080011D0522000E04520812155E081293FD1424631
S315080011E059463846FFF752FF82214CE0822936D10C
S315080011F0042F2DD30120F0704A4600207060414626
S315080012005846FFF73AFE010022D10021F1707168B5
S315080012108F421DD3B94239D28322791AB2707160CE
S3150800122034E082291BD108F1AC09484600F069F977
S31508001230A088B842B8BF4F2028DB3B4600F028F804
S31508001240010023D1FAB22946484600F080F908B9C8
S3150800125054201BE00020842115E0842901D0512068
S3150800126014E0042F18BF4C2010D1042300F010F806
S3150800127001000BD14B46424608F1240108F114003F
S31508001280FFF796FD8521B17000E04420BDE8FE8F8A
S315080012902A464146584614E570B50D46044628893F
S315080012A08028164601DA4F2070BD00F0C3F808B949
S315080012B0532070BD324629462046FFF72AFF0028EC
S315080012C018BF172803D08F2185F8A61070BD95F88A
S315080012D0A600852806D1286861688847172805D199
S315080012E0002070BDA87A0028E4D0502070BD000008
S315080012F0534C41424942522000000000FFF76AB8A9
S3150800130010B504460020FEF7A3FF24BB0020FFF714
S315080013102DF950B90120FFF729F930B90520FEF754
S3150800132097FF40F20120FEF74FFF0420FEF790FFDB
S315080013300120FEF78DFFBDE8104040F20320FEF7BE
S3150800134043BF0FF23400FFF722FBFFF715FB40F20D
S315080013500220FEF739FFFFF79EF80400F1D00FF2DE
S315080013602000FFF714FB2046FFF71CFB01A0FFF740
S315080013700EFBF0E70D0A00000D0A4F6B0D0A000080
S315080013800D0A455252200000814212D210441144DF
S31508001390401E491E93B2002B1EBF11F8013900F8F2
S315080013A00139521EF6D1704711F8013B00F8013B8E
S315080013B0521E93B2002BF7D17047130003D00A468A
S315080013C0194600F027B9704710B500E0521E93B2CF
S315080013D023B100F005F8F9D0181B10BD002010BD88
S315080013E010F8013B11F8014BA34270470A4609025F
S315080013F041EA12214840C0F30311484080EA003010
S3150800140041010206C9B2D20E41EA0221484080B221
S3150800141070470A0A484000F0FF0008214308C00741
S3150800142046BF034858401846491EF7D150407047F2
S315080014302083B8ED00206049095CFF2901D001200E
S315080014407047401C1028F6DB0020704712B504468A
S3150800145083B02068039900BA00903A2001B17A2037
S3150800146020740C22211D04F11100FFF78DFF0322C1
S315080014700DF1010104F11D00FFF786FF00F03CF8AD
S315080014800398D0B1B0F57F4F05D200BA0390022277
S315080014900DF10E010EE00FF278100088ADF8040089
S315080014A00222039800BA039001A9204600F006F824
S315080014B0042203A9204600F001F81FBDF8B504462A
S315080014C00D461646002714E094F82500EA5D2044E8
S315080014D0017C5140017494F82500401C84F82500CD
S315080014E0C0B2102804D300F007F8002084F82500BD
S315080014F07F1CB742E8D3F1BD2F4904F1100000F074
S31508001500F3B81FB504466846102100F0F7F894F8BA
S315080015102500C0F11000C11000EB11710911A0EBF4
S31508001520011269462046FFF7C9FF1FBD1FB50C46C5
S31508001530011D6A46002000F027F80020215C1DF8EE
S31508001540002051402154401C1028F7DB1FBD38B538
S31508001550102A04460D4607D1216A94F824202068EB
S3150800156002EB0111884201D0002032BD29462046EF
S31508001570FFF7DCFF102204F110012846FFF724FFCD
S31508001580401E8041C00F32BD11B581B000BA01902E
S315080015901446022020700C22601CFFF7F5FE032279
S315080015A00DF1050104F10D00FFF7EEFE0249204694
S315080015B000F09AF813BD0000F80804082DE9FF4169
S315080015C004460D4690460020002704F120061AE03E
S315080015D0010006D130686A46211D401CFFF7D4FF7A
S315080015E001203379E95D1DF803205140E955317929
S315080015F0491CC9B2102904DB3068401C3060002140
S31508001600002031717F1C4745E2D3BDE8FF81000009
S31508001610FFFE000062F30F2262F31F42401810F02B
S31508001620030308D0C91A1FD3DB0748BF00F8012DEA
S3150800163028BF20F8022D130030B414461546103979
S3150800164028BF20E93C00FAD8490728BF20E90C0042
S3150800165048BF40F8042D890028BF20F8022D48BF4E
S3150800166000F8012D30BC7047C91818BF00F8012DC5
S31508001670CB0728BF00F8012D7047000002681749FC
S3150800168012BACA60426812BA8A60826812BA4A6096
S31508001690C06800BA0860704710B5114980220A6010
S315080016A00623104A136007230B6013689B07FCD5B3
S315080016B0002350F823405B1C24BA042B8C62F8D311
S315080016C013685B07FCD500220B6B1BBA40F8223067
S315080016D0521C042AF8D310BD000000003830004020
S315080016E00030004010A0004010B504460846FFF739
S315080016F0C5FF2046BDE81040CEE70000002200F0F6
S3150800170001B8000000B500BF13009646944610398C
S3150800171028BFA0E80C50FAD85FEA417C28BF0CC065
S3150800172048BF40F8042BC90728BF20F8022B48BF3A
S3150800173000F8012B00BD00002748018A40F6A77271
S31508001740914202BF408A4FF47F41084203D10228E2
S3150800175001DB0120704700207047F8B504461D4E8E
S31508001760012030700D46FFF7E7FF18B94FF40170F6
S31508001770FEF72AFD1848876A294644F48070B84758
S31508001780002131700FF2540618B9294644F4007046
S31508001790B847305CF2BD2DE9F0410446884656004C
S315080017A0FFF7CAFF18B94FF40170FEF70DFD0A4896
S315080017B00FF22805476A0023324641462046B847B5
S315080017C020B93346002241462046B847285CBDE882
S315080017D0F0810000BC0C0020000004080002020290
S315080017E04B4B46474D34355045323000EE08000025
S309080017F00100FFFFE8
S705080000757D
