S01400004861536D6172744F75746C65742E733337B3
S1134000A0570020913A0300E1150300E5150300D1
S1134010A70A09010042000004180FAC20599100BE
S1134020000000000000000000000000000000008C
S1134030000000000000000000000000000000007C
S11340400000000000000000FFFFFFFFFFFFFFFF74
S1134050FFFFFFFF00E003000B0000000000000072
S1134060FFFFFFFFFFFFFFFF100000000000000044
S1134070000000000000000000000000000000003C
S11340800000000000000000AA7E0020AA7E00209C
S1134090A057002070D803008A3D0300404E002042
S10F40A0A010002000000400000000003C
S1134200A0570020913A0300E1150300E5150300CF
S1134210ED150300E9150300F1150300051703006C
S1134220051703000517030005170300051703000E
S1134230F51503000517030005170300D117010046
S1134240A9C10100099A0200FBD00000119A0200E2
S1134250539A0200319A02002F9A02004B9A0200EC
S1134260B9E302002F9702001F750200F308010052
S113427005170300051703001B450000051703007D
S1134280051703004D9702000517030005170300E7
S1134290051703000517030005170300051703009E
S11342A00517030005170300051703003B9A0200D6
S11342B0439A0200C7BF0100051703000517030056
S11342C0D93C030005170300051703000517030075
S11342D0051703000517030005170300051703005E
S11342E07149724A01E021B1491E1369DB07FAD40E
S11342F001B9BAE0506001201060106910F0060F97
S113430005D0410700D5B3E0800700D5B3E0002015
S11343107047F0B513460022002936D0624C634D35
S11343208BB98B4231D250F8046BEE605B1C0826CB
S11343302E60264601E036B3761E2F69FF07FAD4B5
S1134340002EEED11FE0EFF3108672B600230EE0CC
S11343502F6907F01907102F08BF2F602F693F0737
S1134360F6D550F8047BEF6010272F605B1C8B425E
S1134370F4D306B962B6264601E026B1761E286952
S1134380C007FAD40EB96FF002021046F0BD2DE951
S1134390F84F04460D469B460020454F396841F0CE
S11343A0010139604FEA92088146AA4602E0B1440D
S11343B00AEB860AC14517D204EB89063046FFF79B
S11343C08FFF010022D1C6F30A00C0F50060860801
S11343D0A8EB0900B04238BF06465A46314650465B
S11343E0FFF797FF0100E2D021682A68914209D0C3
S11343F02046FFF775FF010004D15A4601212846E3
S1134400FFF787FF3968490849003960BDE8F28F32
S1134410254A27490B6843F001030B60886001209B
S113442048604869400704D50868400840000860AF
S11344301EE04869800704D5086840084000086009
S113444019E00220486001E022B1521E4869C00709
S1134450FAD422B9086840084000086005E00868FA
S1134460400840000860002070476FF00200704769
S11344704FF0FF3070476FF001007047002386E76C
S11344800B48016841F00101016046F21A31C16430
S11344904FF4807141604169C907FCD40021C164B3
S11344A00020704700000000809698000C000E4029
S11344B008000E40072803D20FF2EC01085C704795
S11344C0FF207047072803D20FF2E401085C70470D
S11344D0FF20704738B504462D4800EB8105A878C5
S11344E00009FFF7E7FF2071A87800F00F00FFF73D
S11344F0E9FF6071FF2814BF01200020E870E8780C
S1134500A071287860706878A070224D21462846F2
S113451000F0A8F80120A86031BD10B584B0684649
S11345200FF278011CC91CC01948817B1A4AD36850
S113453014682340DB072AD5032928DA126900EB23
S1134540410300EB8104E4781CB114B2002C48BF91
S113455000229A820122C37B02FA01F11943C1733A
S1134560417B91B10021437BCB40DB0708D58173AC
S1134570437B8A405A4042736846FFF7ABFF1FBD36
S1134580491CC9B20329EEDB1FBD032181731FBD82
S11345901862002000200040382000400000000085
S11345A000FF000000000000E07B7C65466C6D00AD
S11345B0FF7B7C65466C6D00890001EB401000F1C7
S11345C084400260704730B5002A1ABF1022DFF819
S11345D04031DFF84031446B23400025DFF8384197
S11345E051B101290ED002291ED0032910D0062969
S11345F015D0812918D020E02168256800F022F820
S1134600246816E02168256800F022F8246804E094
S11346106168656800F01CF86468240C09E0A1680E
S113462001F00F01A46804E06168656800F00AF80D
S1134630646804F0F00444EA010505FA02F1194340
S1134640416330BD01F4FE4105F00F052943704775
S1134650090C01F4FE41C5F3034529437047A978C9
S11346602046B0E738B504460D460220A06000227B
S1134670FFF7F5FF28796978020242EA01626B7953
S113468042EA0342EB7842EAC302EB790BB142F00F
S113469000522B7A0BB142F00402AB790BB142F019
S11346A002026B7A0BB142F00102AB78F32806D117
S11346B0180004D10429BCBF042060F31B6218064F
S11346C04CBF42F0E00042EA4310206160691349A4
S11346D00840A9780A0644BF21F0800108432978DC
S11346E040EA4140E97A09B140F480406061AA7A25
S11346F002212046FFF760FF2879F3280CBF01222E
S11347000022102104F13000BDE8384054E70000D5
S1134710FFFF00800080FFFF1082E00F07401E00B3
S113472000B583B000F01FF84FF6FD71684600F045
S11347301BF90246FF2A02D10FF210110FE00FF20B
S1134740281125E000B583B000F00DF8684600F0AC
S113475077F900280CBF0FF230110FF23C11012041
S113476000F0BAF907BD012308226946002000F0D1
S11347706FBC00B583B0FFF7F6FF684600F0D6F8CB
S11347800246FF2A02D10FF22811E8E70FF2301196
S1134790012000F0A1F907BDF0B583B000240FF2A9
S11347A04011022000F098F9002519A60FF24017D5
S11347B01EE0E8B200F068FE4FF6FF71884216D0A2
S11347C0641C0346EDB22A463946022000F08AF9F9
S11347D06946284600F04AFE022000F037F910B17D
S11347E0684600F0FBFF3146022000F075F96D1CAD
S11347F001F0D5FAE9B28142DBD301F0D0FA0346E5
S1134800E2B20FF2F801022000F066F9F7BD0000F1
S11348100000000030B583B0002000F0EFFB044638
S1134820022000F0EBFB05466946012000F035FC50
S1134830AAB26946E0B200F0CDF80346E2B20FF244
S1134840D401022000F048F937BD00005461626CC5
S1134850652066756C6C2C20656E747279206E6FA1
S11348607420616464656400456E747279206164C7
S113487064656420617420706F736974696F6E205D
S11348803078257800000000456E747279207265D6
S11348906D6F766564000000456E747279207265F0
S11348A06D6F76616C206661696C65640000000060
S11348B0456E747279206E6F7420666F756E640035
S11348C0466F756E6420656E747279206174207011
S11348D06F736974696F6E2030782578000000006A
S11348E02320206E6F646520202065756900000018
S11348F025643A2030782532782000002564206F22
S11349006620256420656E7472696573207573650D
S1134910642E00007365742061646472657373208F
S113492025643A20307825780000000030B583B043
S1134930040017D00025284600F0A6FD4FF6FF71AD
S113494088420BD06946284600F090FD082269464B
S1134950204601F01DFB08B928463EBD6D1CEDB292
S1134960022DE8DBFF203EBDF0B583B005460E46C0
S1134970FF240027384600F087FD4FF6FF71884278
S11349800BD06946384600F071FD08226946284676
S113499001F0FEFA20B93C460CE0FF2C08BF3C466F
S11349A07F1CFFB2022FE5DBFF2C11D029462046E5
S11349B000F0F3FC4FF6FD70864203D031462046EA
S11349C000F029FD022C03DA1C490A5D521C0A5529
S11349D02046FEBDF8B5064614466A27022E13DAB1
S11349E0164DA85D78B9304600F0D7FC074638B9B3
S11349F04FF6FD70844203D02146304600F00BFD93
S1134A000120A85500E076273846F2BD02466A2008
S1134A10022A00DB704710B50848835C1C001FBFE6
S1134A205B1E8354DBB2002B04D14FF6FF7110469A
S1134A3000F0F1FC002010BD00000000C26A00205C
S1134A4080B5FFF773FFBDE80240DFE74FF6FF7163
S1134A50884207D0010A01D0002070473F490978F5
S1134A60084000D001207047020A07D13B4A13785E
S1134A70002914BF184323EA000010707047C108CE
S1134A800122830800EB5373DB08A0EBC30002FA96
S1134A9000F000EB012080B27047F8B504460D46E3
S1134AA016461F46FFF7D2FF58B13A463146012059
S1134AB001F0E4FB1DB126A1012001F0D7FB284839
S1134AC00480F1BD80B5FFF7C1FF20B10120BDE82E
S1134AD0024001F034BC01BD0CB480B502AB0A46FF
S1134AE0012104E00CB480B502AB0A460021FFF7B3
S1134AF0D4FF01BC5DF80CFB2DE9F04182B0002429
S1134B000FF27C05DFF85C8012A713A6E0B2FFF772
S1134B10B6FFFFF79BFF002814BF304638460090CD
S1134B2058F8243022462946012001F091FB012047
S1134B3001F005FC641C062CE8DBBDE8F3810122CE
S1134B40FF2101E001220021044801F01ABA00000B
S1134B500D0A00006E6F000059455300E15F00200C
S1134B60FA760020245E002080B5FFF788FF01213B
S1134B7003E080B5FFF783FF0021BDE8044073E73D
S1134B805B25645D202570203A202570000000001C
S1134B90DFF80C07C06F00687047DFF804070021D6
S1134BA0017000F165010022CA740A708A740A75E2
S1134BB0FF224A7500228A75C26770476128A8BF20
S1134BC0572107DA4128A8BF372103DA3A28B4BFAE
S1134BD030210021401AC0B27047DFF8C4160844DF
S1134BE0653041780078C9E1DFF8B416084490F8DC
S1134BF065000844401C70472DE9F84F80468946FB
S1134C000026DFF89C7607F1770402E0DFF89416BB
S1134C100870B8F1000F0AD169465FFA89F001F013
S1134C2084FB80B1262818BF012073D102E05FFA0B
S1134C3089F010B93046BDE8F28F18F8010B8DF8F1
S1134C400000A9F101099DF80000DFF85816097861
S1134C500D2908BF0A28D9D0DFF8482610700D287E
S1134C6005D101260025222807D1012106E00A28C2
S1134C70F7D000262028F5D1012500213A78042A0E
S1134C80C7D8DFE802F004171F234A00C1E716B1B2
S1134C9000F08BF8BDE7002DBBD131B10220387094
S1134CA06578642D4FD1062034E07B2814BF0120A1
S1134CB00320F4E755EA0600F2D02078112836D113
S1134CC0032027E00029F8D11EBBE9E794F803A0EC
S1134CD0BAF1FF0F14BF4FF0010B4FF0000B7D280A
S1134CE003D1BBF1000F14D1E7E79DF80000FFF7F3
S1134CF065FF10280BDABBF1000F06D000EB0A1099
S1134D008DF80000FF20E070CAE7E07081E7002D15
S1134D10FCD10520A07004203870002EF6D0A078B5
S1134D20010018BF00F072FAFFF737FF71E7401C6B
S1134D3020706178C0B2384480F865100020387063
S1134D40002EF3D0A4E73878012805D19DF800009F
S1134D5000F018F88DF800009DF8000079194870EB
S1134D606078401C607054E782684068030008BFA4
S1134D700A6003D012786E2A02D1086001207047BD
S1134D8000207047A0F141011A293CBF2030C0B275
S1134D907047DFF80C1591F87B201018C0B2084456
S1134DA090F865000844407870472DE9FE4FDFF81D
S1134DB0F80401900024DFF8F4542878002862D025
S1134DC0DFF8EC040078C0071AD500260FF2782823
S1134DD00FE070B2FFF708FF0746F0B2FFF7FDFEE1
S1134DE002463946012001F0A5FA414600F0FDF9DA
S1134DF0761C2978F0B28842EBD394A100F0F5F93F
S1134E00019E4FF0000860B2FFF7EEFE8346E0B269
S1134E10FFF7E3FE029000270DE019F8010BFFF7FE
S1134E20B1FF00901AF8010BFFF7ACFF0099C9B26B
S1134E30814206D01436D6F800A0BAF1000F17D07C
S1134E40D946A9EB0B00029988420CBF012100212D
S1134E509AF80000421E924111EAD27F0CD151EA25
S1134E60D270DAD0B8F1000F0CBFB0460127E1E7E9
S1134E70002F14BF00264646019646B90220A870AA
S1134E80A87800F0C3F9FFF788FEBDE8F78FDFF8D4
S1134E901014CE67641C2879401C287101A901985C
S1134EA0FFF762FF20B12978E0B28842A8D357E027
S1134EB00198806800783F2854D00026B0460FE05F
S1134EC00720A87001988068304440782A281CBFC5
S1134ED0761CF6B2A878002844D1641C08F10108B5
S1134EE02978E0B288420198806832D2875D5FFAFF
S1134EF088F0FFF74EFF57B3B7F1620121D00F39A5
S1134F00022984BF091F0229DAD8752F08BFFF2799
S1134F100ED0762F08BF4FF6FF7709D0732F08BF46
S1134F207F2705D0722F0CBF47F6FF774FF0FF376E
S1134F3001215FFA88F000F024F88742C2D20420ED
S1134F40BFE7222818BF7B28BCD00520B9E703207F
S1134F50B7E7815D00291EBF801940782A2801D057
S1134F6003208CE7A87800288AD10198406801F0D2
S1134F700DFA88E7DFF8340301780079081AC0B223
S1134F8070472DE9F0478846DFF8141301F17905DD
S1134F90AA781018C0B20A1892F8652011444E1C61
S1134FA0FFF71BFE82460024DFF8F00290F8009021
S1134FB0002707E0A4B9012F18BF022F10D14FF02A
S1134FC010097F1C574516DAF05D5FEA080103D02B
S1134FD0002F08BF2D28F4D0782818BF5828E9D00E
S1134FE0FFF7ECFD4845B8BF09FB0404E9DB0520E5
S1134FF02870002000E02046BDE8F0870021C0E7CB
S113500038B50446FFF7C5FE2D280CBF0125002541
S113501029462046FFF7B5FF05B1404232BD70B5C1
S11350200C469F4991F87B100D18C6432CB1E8B289
S1135030FFF7D3FDA0EBD670207068B2FFF7D4FD64
S113504000EBD67070BD0000200000000D0A0000C7
S1135050F8B50C4616461F466946FFF7E0FF0546BD
S113506030469DF80010884288BF08468DF800003D
S1135070002F1ABF9DF80000361A0026F6B23246F9
S11350800021204600F07DFF9DF800202946A0194C
S113509000F034FF9DF80000F2BD38B50C46012342
S11350A00822FFF7D5FF00214A422244D379655CE8
S11350B0D5716354491C0429F6DB32BD2DE9F04156
S11350C007460C46A66822686CA100F0F5F80FF2BA
S11350D0B018606818B96BA100F087F84BE0002F96
S11350E049D00027E06888B10FF2D41100F07DF8B0
S11350F00CE000F07AF8206930B1FFB250F82720B4
S11351000FF2242100F0D8F87F1C761C357885B383
S1135110206908B100F068F8752D08BF0FF2AC11D2
S1135120E7D0762D08BF0FF2B011E2D0772D08BF7B
S11351300FF2B011DDD0732D08BF0FF2B411D8D027
S1135140722D08BF0FF2B411D3D0712D08BF0FF226
S1135150B811CED0622D08BF0FF2B811C9D06E2D90
S113516008BF0FF2BC11C4D02A2D0CBF46A147A121
S1135170BFE700F010F8012001F0E1F8E2681AB18D
S11351800FF2AC1100F098F800F005F80120BDE82A
S1135190F04101F0D4B84146012001F059B810B5EE
S11351A082B0044621460120FFF788FF6946204665
S11351B0FFF7DAFD48B913BD00F016F80099002096
S11351C0FFF77CFF009814300090009800680028D6
S11351D0F2D113BD80B50FF2601100F006F8012082
S11351E0BDE8024001F0ABB829A1012001F03EB8AE
S11351F010B52D4CFFF7EEFF04E021460020FFF729
S11352005DFF143420680028F7D110BD2DE9F84360
S1135210284951F820200FF2601100F04DF8204C7D
S1135220E06F10B9BDE8F143E2E7FFF7D3FF0027D1
S113523018A50FF2640910E0F6B218F806204946E2
S113524000F03AF8761C3846FFF7C7FCF1B2814209
S1135250F2D32946FFF7C9FF7F1CFFB294F87B0005
S1135260401E874205DA78B2FFF7BEFC804600266E
S1135270E9E7E06FBDE8F24391E700002570000024
S1135280000000002E2E2E00202A0000203F0000E7
S1135290202000002000000025630000C15F0020E2
S11352A0586900207E7E00204CBA0300CF6900209C
S11352B07F7E00202C5B0020012000F0D7BF00007F
S11352C020286172677329200A000000203C756958
S11352D06E74385F743E0000203C75696E7431361C
S11352E05F743E00203C75696E7433325F743E0017
S11352F0203C696E74385F743E000000203C696E87
S11353007431365F743E0000203C696E7433325F42
S1135310743E0000203C737472696E673E000000A6
S1135320202E2E2E00000000202025700A000000F0
S1135330202D20257000000055736167653A0D0A21
S11353403C696E743E3A20313233206F72203078DB
S1135350314142430D0A3C737472696E673E3A20D0
S113536022666F6F22206F72207B304120314220F1
S113537032437D0D0A0D0A0025700D0A000000005D
S1135380DFF8B80300780C2110FB01F2DFF8B0035A
S1135390006892B2FF2100F0F4BD70B50C46DFF84E
S11353A09C1309788842054601D36A2070BD01F038
S11353B036FF08B1762070BD204602F055F94FF64D
S11353C0FF71884208BF4FF6FD700C21DFF870634F
S11353D04D4331684853204600F05EF93168294452
S11353E0887202F0E8FA042804DB2B210FF27430EF
S11353F002F04CFB02F0DFFA316829448A7A42EA6F
S1135400400088720822306828442146801C00F03D
S113541075FD002070BD38B5C84B1B78984224D266
S11354200C22C74D12FB00F42A6811534FF6FF7289
S1135430914208BF01F0F5FE02F0BDFAC1490978B6
S1135440884204D345210FF21C3002F01FFB286868
S11354502044817A01F0F101817202F0ACFA2968EA
S113546021448A7A42EA4000887231BD10B50B4665
S1135470B34909680C2460430844BDE81040811C0A
S11354800822184600F03ABDAD4909680C22504381
S1135490085A7047F8B507460C46A84DA84E00E0D8
S11354A00C37297830680C2251430844874214D2BF
S11354B038884FF6FF718842F2D008222146B81C82
S11354C000F066FD0028EBD102F075FAB97AC1F359
S11354D042018142E4D13846F2BD0020F2BDF8B564
S11354E0044602F0F5FB9648944F066800250EE04A
S11354F03088A04209D102F05EFAB17AC1F34201C8
S1135500814204BF4FF6FD7030806D1C0C36397833
S1135510E8B28842ECD3F1BD70B504460D46284686
S1135520FFF7DDFF2946204602F0F3FB84480068BC
S1135530214605E0358001F04FFA214606F10C00C2
S1135540FFF7A8FF0600F5D170BD7FB50446082219
S11355507D4900F01DFD10B902F0D5F834E07B4D13
S11355602868011D0822204600F012FD10B92868A1
S1135570408829E0002000904FF6FF7500230122A7
S11355802146284602F008FDFF284FF6FC7605D098
S11355906F49096831F81000B04215DB01A802F028
S11355A083FE50B9BDF80400400606D50822214602
S11355B00DF1060000F0ECFC30B100F087F810B1FA
S11355C00088B04200DB284604B070BD2DE9FF41DD
S11355D00446884602F097F8844202D108225A49C8
S11355E03EE05A4E30684288944209D10022082194
S11355F0001D03F0DCFC18B930680822011D2FE0FF
S113560000200090002301220021204602F0C4FC67
S1135610FF280AD0694602F00CFC30B908220DF1CB
S11356200501404600F06AFC1DE04548434F05680B
S1135630002601E0761C0C353978F0B2884214D289
S113564028884FF6FC718842F4DAA042F2D102F0C5
S1135650B2F9A97AC1F342018142EBD10822A91C13
S1135660404600F04BFC012000E0002004B0BDE8FF
S1135670F08110B50446002003F0D1FDFF2808D0C6
S11356803449096831F810000006800E00F001006A
S113569010BD04F0010010BD38B5044600F016F842
S11356A0002508B1857A0CE00090002301222146F0
S11356B04FF6FF7002F070FCFF2802D026490968FB
S11356C00D5C21462846BDE83440D2E71C480068FA
S11356D02146DFE638B504460D4602F063FB184860
S11356E00068214602E0857221460C30FFF7D2FEA5
S11356F00028F8D131BDF8B505462946002002F04E
S11357001BFCFF2815D11548154E0768002401E03D
S1135710641C3F1D3178E0B288420CD23888A8421C
S1135720F6D102F048F9F9788142F1D1B87800282D
S1135730EED00120F2BD0020F2BD0000CE5F0020BB
S1135740AC5C0020CA5F0020D07400209C74002050
S1135750A05C0020785C0020A45C00208C5C00200D
S1135760C95F0020616464726573732D7461626C37
S1135770652E63002DE9F04104460D461646984611
S1135780FFF764F9A0B1002710E0EA5D4146204626
S1135790FFF7A8F9F81007EB10700011A7EB001041
S11357A0062804BF2046FFF78DF97F1CB742ECDBC7
S11357B0BDE8F081002B14BF42A343A3DAE738B558
S11357C004460D46284604F0D1F840A30246691C5D
S11357D0FFE7204601B0BDE83040CBE700B587B015
S11357E0017806914178059181780491C1780391FB
S11357F0017902914179019181790091C3793E2225
S11358000FF2E80100F008F8FFF76CF907B000BDEB
S113581000220146022008E033480088704702460F
S11358202CA131480088FFF757B92DE9F84F8A4673
S113583093460025814628A628A70FF294082A4CEF
S113584008E0424631462088FFF74CF92088FFF7EC
S113585039F96D1C4D450EDA012308220AEBC50106
S11358602088FFF7A7FFBBF1000F02D1681C484551
S1135870E7D13A46E6E7BDE8F18F2DE9F041044669
S1135880194D2888FFF7E2F8C8B10120E40A0B2675
S113589013A70FF25008E1070DD518B9414628881F
S11358A0FFF720F9324639462888FFF71BF9288884
S11358B0FFF708F900206408761C1B2EEBDBBDE81B
S11358C0F081000025782000257800002563000081
S11358D00000000025700000202570000D0A000063
S11358E0256400002C200000FA7600202825632976
S11358F025582558255825582558255825582558BC
S11359000000000010B504F041F8012300224FF418
S1135910E131012000F0CAFC04F02FF9044604F040
S113592004FA234602460FF248510120FFF7D4F847
S113593004F02EF9044604F0FCF9234602460FF263
S113594048510120FFF7C8F840F2A17404F0EDF9C2
S1135950C440E0070CD5DFF87044207804F004FA62
S1135960207804F0A0FA2078BDE8104004F068BB69
S113597010BD38B500220021684604F081FE08B14C
S1135980009832BD01F090FC60B103460FF22C5236
S11359900FF214510120FFF79FF89E210FF22450BB
S11359A002F074F804F0AAFE04F0D8FE05F0B8FB87
S11359B006F0B2FA0221022006F0C2FA05F0F9F963
S11359C0FFF7EBF841F20200DFF8001408805220E0
S11359D0DFF8FC130880DFF8FC1308804FF4004064
S11359E006F023FB9EA40FF2EC4501E004F09DFEBB
S11359F007F0A6FB01F02CFD07F0CEFB012818BF31
S1135A0006F091FA00F0AEFC07F0F4FB012100204F
S1135A10FFF7F2F80028E9D02A4621464FF6FF7036
S1135A20FFF760F8E2E710237F22DFF8AC13098860
S1135A3007F000BD01F067BE01F06DBE03F07BBA54
S1135A4008F0FEB930B585B002A808F01AFB78B9A1
S1135A50002469462046FFF709FD082202A968468A
S1135A6000F096FA88B1641CE4B2022CF1DB12E077
S1135A7008F0FFFA05464FF6FF7085420BD000246C
S1135A802046FFF701FDA84201D1204604E0641C32
S1135A90E4B2022CF4DBFF2005B030BD38B5044677
S1135AA004F038FE050008D14FF4A851204608F050
S1135AB088FB054604F037FE284632BD30B585B074
S1135AC000F0AFF801F01FFE38B16088B0F5006F48
S1135AD003D1601D04F0DCFD13E0204604F0FFFD5B
S1135AE0050015D100256946284602F0A2F90028D0
S1135AF004BF9DF80000002805D12146284602F085
S1135B00A3F9054604E06D1CEDB20A2DEBDBB425C8
S1135B1004F009FE284605B030BD38B500F081F820
S1135B20204604F0DAFD050003D1204602F0D7F93F
S1135B30054604F0F8FD284632BD38B50446FF2575
S1135B408DF80050694604F090FD10B19DF80000F6
S1135B5032BD01F027FFA14901EB0411097B814209
S1135B6007D1204605F018FB18B1204605F012FEB7
S1135B700546284632BD70B504460D4604F077FD4F
S1135B80F8B9204605F002FE0646FF2E07D001F0C4
S1135B9009FF924901EB06110A7B824201D00020E1
S1135BA070BD488828808888688088792871012198
S1135BB0204605F0F3FD68710021204605F0EEFD56
S1135BC0A871012070BD2DE9F04105460E469046AE
S1135BD005F0DCFD07464FF6FF74FF2F14D001F0EB
S1135BE0E1FE7E4901EB0711097B81420CD13000B3
S1135BF008BF012202D0012E06D1002241462846C8
S1135C0005F0F2FD00B104882046BDE8F08110B52E
S1135C1000F007F8204605F03DF8BDE8104004F018
S1135C2082BD044604F074BD38B50C466C4909685D
S1135C300D5C2B469A4209D200920FF280220FF299
S1135C40A4210220FEF748FF002032BD002100916C
S1135C5000220146204608F084FC284632BD00009C
S1135C6025703E0070B598B004460D46164604F003
S1135C704FFD522203A93046FFF7D6FF060011D08C
S1135C800DF1090008F0EEF902A808F0EDF903A8F7
S1135C90019000969DF908309DF809202946204678
S1135CA004F02CFF04F03FFD18B070BDF0B599B0BE
S1135CB004460D4616461F4604F02AFD522203A947
S1135CC03846FFF7B1FF48B1029703A9019100904C
S1135CD01E9B32462946204604F051FF04F023FD62
S1135CE019B0F0BDF0B583B007460D461646194607
S1135CF0089808F01AFC0446FF2C01D11820FEBDB8
S1135D00099804700A980B9A062F2CD8DFE807F03C
S1135D100404040B12221B0023463246294638464B
S1135D2007F0A6FD1DE023460C220C21304607F0A7
S1135D306EFE16E00192009023460C220C213046A0
S1135D4007F04AFE0DE023460C223146284607F0B0
S1135D50EFFD06E001940C2100913346294607F03B
S1135D6009FE054600E00225204608F05BFB2846B4
S1135D70FEBD08221B4900F0C1B810B50446084610
S1135D8003F0EAF82046BDE810400AF0CBB80AF068
S1135D90C9B805207047062070470A2070470420C0
S1135DA070471148007870474B20704700B583B0A6
S1135DB068460E4908220AF089F9DDE9000105F078
S1135DC05BF807BD00000000BD5F0020AC5F002051
S1135DD0B05F0020B25F0020C4CE030064620020E4
S1135DE0645C0020D0740020C45F0020F0CE030067
S1135DF010B582B0FFF715FF0DF1010008F032F97C
S1135E00684608F031F900F00AF80AF07CFA18B98B
S1135E1000F005F804F03BFC04F085FC13BD9DF98B
S1135E2000209DF801102046704738B504460D4601
S1135E3004F06EFC294620460AF032FA18B92946C5
S1135E40204604F051FC0DE038B504460D4604F03C
S1135E505FFC294620460AF0A8FA18B929462046CC
S1135E6004F0FCFBBDE8314004F05DBC7047000069
S1135E70526573657420696E666F3A2030782578B0
S1135E802028257029000000457874656E646564D7
S1135E9020526573657420696E666F3A20307825E8
S1135EA032582028257029002570656D6265724975
S1135EB06E69742030782578000000004552524FF6
S1135EC0523A200061662D6D61696E2D736F632EE9
S1135ED0630000004861536D6172744F75746C65A2
S1135EE07400000025706D736720746F6F20626901
S1135EF06720282564203E2025642900814233D26E
S1135F001044401E1144491E10E0121F11F80139BB
S1135F1000F8013911F8013900F8013911F8013993
S1135F2000F8013911F8013900F8013992B2042A54
S1135F30EBDA93B2002B1EBF11F8013900F80139D6
S1135F40521EF6D17047121F11F8013B00F8013BB5
S1135F5011F8013B00F8013B11F8013B00F8013B4B
S1135F6011F8013B00F8013B92B2042AEBDA93B238
S1135F70002B1EBF11F8013B00F8013B521EF6D165
S1135F807047130003D00A4619460AF05BBA7047FB
S1135F9010B500E0521E93B223B100F012F8F9D00C
S1135FA0181B10BD002010BD10B500E0521E93B2A6
S1135FB02BB100F006F8F9D0181B40B210BD002038
S1135FC010BD10F8013B11F8014BA3427047704714
S1135FD070B51346104402E0A4192C705B1EDCB2A9
S1135FE04CB101F00F060909451E28460A2EB4BF1C
S1135FF030243724F0E7104470BDF0B5002341B1DC
S1136000002806D52D2111700123B0F1004F18BFCF
S11360104042002100240FF27025002655F8247018
S113602001E0C01B761CB842FBD2F7B20FB90F00D7
S113603005D006F13001DBB2D1545B1C0121641C94
S1136040092CEADB3030DBB2D054581CC0B2F0BDAE
S11360502DE9F24F96B0804615469B4603AE0027C5
S1136060002413A8019003A88DF800000BE001247C
S113607005460198864205D300F0DCF800284FD18C
S113608000F0CEF86D1C9DF80000301A29780A0043
S11360900BD0252903D014B906F8011BE9E7002C1D
S11360A014BF00246D1C29780A0000F0AF80B1F100
S11360B0250216D00B3A092A40F28980283A7DD06D
S11360C00A3A12D0521E41D0521E5FD0083A5DD017
S11360D0121F3ED0D21E3CD0921E57D0D21E6DD07D
S11360E0C7E7252006F8010BC3E7DBF800000290A0
S11360F00BF10400D0F8009000F1040B4FF0000AFB
S1136100CA45B6D20222029810F80A103046FFF7A8
S11361105FFF06460198864205D300F08BF80028FD
S11361207AD100F07DF8A9F1010082453CBF20201E
S113613006F8010B0198864205D300F07BF800288D
S11361406AD100F06DF80AF1010AD9E75BF8040B93
S1136150C8E75BF8049B00F067F800285CD100F006
S11361605FF84FF0000A01E00AF1010A5FFA8AFAC7
S113617019F80A000028F7D1524649469DF85800FC
S1136180C047002848D15744FFB272E76C290AD1AE
S11361905BF8040B6A78752A0EBF00210121642A7A
S11361A007D16D1C05E075295BF8040B0CBF0021B9
S11361B001213246FFF721FF36185AE75BF8041B2A
S11361C00222C9B23046FFF703FF064651E7012415
S11361D06A78782A18BF582AF8D16D1C0024681EE2
S11361E0322904D15BF8040B042281B2EAE7342992
S11361F07FF43DAF5BF8049B04224FEA194130461B
S1136200FFF7E6FE04221FFA89F1DCE700F00CF840
S113621010B9F019C0B200E0002017B0BDE8F08F4B
S1136220F719FFB203AE70470646F2B203A99DF810
S1136230580040479DF80000361AF2B203A99DF8B1
S11362405800404701A111E0000000000D0A0000C1
S11362500CB438B5044604AA00F010F805462046EC
S1136260FFF7F0FF284632BC5DF80CFB0CB480B598
S113627002AA00F003F802BC5DF80CFB80B50AF03A
S1136280D0FCC0B202BD000000CA9A3B00E1F50593
S11362908096980040420F00A0860100102700005D
S11362A0E8030000640000000A0000002DE9F0414A
S11362B094B004460F4690461E46012514B1012CA5
S11362C011D021E000210AF089FB0546012C1CBFF6
S11362D0022C032C25D10197ADF80C80012E15D189
S11362E04FF4805016E00AA80FF27C01242209F032
S11362F0FDFE68460AA9242209F0F8FE1020ADF834
S11363002400ADF82600E1E701200BE0022E03D1C2
S11363104FF44050ADF80A00694620460AF05EFB8F
S11363200546E8B214B0BDE8F08180B50AF01EFC61
S1136330C0B202BD80B50AF08BFCC0B202BD80B50C
S11363400AF02AFDC0B202BD0CB480B502AB0A4605
S113635001460348FFF77CFE002002BC5DF80CFBFD
S1136360150D0100704700000000014000C201004B
S11363700000001000000000000002000300000004
S113638000000000000000001E1E000010B50446BE
S1136390E448007804F0B9F9A047BDE8104004F0DF
S11363A0C2B900B585B0684604F056FD6A460FF2DE
S11363B094310220FEF790FB05B000BD2DE9F04FAB
S11363C08BB0FF208DF808000DF109014FF0FF306C
S11363D0FEF725FEFFF7E5FF41F202020FF28431DA
S11363E000F016F903A8FFF7C4FC05A902A8FFF7FB
S11363F0C4FC0FF28C3100F0EBF80220FEF726FB10
S113640010B103A8FFF7EAF99DF91E309DF81F208B
S11364100FF2743100F0D9F8FFF70CFB0346BDF816
S11364201C200FF27C310220FEF75CFB0FF290314E
S113643000F0CEF80220FEF709FB10B105A8FFF723
S1136440CDF9B5A400F0BDF8FFF7B0FC0FF27C3134
S113645000F0BEF89DF80820FF2A05D00FF278312D
S11364600220FEF73FFB03E00FF2743100F0B0F8B6
S113647000F0A7F8FFF78DFC03460FF27C320FF211
S1136480683100F0A2F802F056FD02460FF27431B2
S11364900220FEF727FBFFF787FC0446FFF781FC89
S11364A0234602460FF2AC2100F08FF804F070FE90
S11364B002460FF2643100F0ABF800270FF2E43427
S11364C00FF288390FF27C3A01E07F1CFFB204F02E
S11364D05FFE874250DA944800EB0715D5F8088030
S11364E0384605F057F90AF0BDFC002814BF56469B
S11364F04E46384604F050FE002814BFD346CB461F
S1136500384605F047F900965B4602460FF214310F
S11365100220FEF7E7FAA8790190A88800906B881A
S11365202A7B0FF234310220FEF7D6FA002510E060
S113653033880FF258310220FEF7D4FA0220FEF716
S113654085FA10B130880AF056FD74A100F03AF8CB
S11365506D1C98F80410E8B28842B6D2D8F800004E
S1136560EDB2142111FB05F14618307B00064CBF37
S113657022460FF23C32DBE70FF2E0310A68009268
S113658001220FF2383100F043F8684C002004F087
S1136590BCF8009B00220FF2303100F016F820689E
S11365A050B102780FF22C3100F032F820684278B2
S11365B00FF2343100F02CF804F0B5F80BB0BDE85C
S11365C0F08F21460220FEF787BA0220FEF784BA34
S11365D00220FEF787BA80B500F02DF880B2BDE83E
S11365E00240FEF7C1BA80B500F025F880B2BDE8DC
S11365F00240FEF7BEBA38B54D4C49A504E054F844
S1136600142B294600F004F820680028F7D131BD86
S11366100220FEF761BA03F09CBA80B500F00BF8D3
S113662044490A78C0B2002814BF42F0010002F0C5
S1136630FE00087001BD0020FEF7E0BC2DE9F84F14
S113664000240BF070F805460FF2CC260FF2BC2B99
S11366500FF2B028DFF8E090DFF8E0A007E07868F8
S1136660421B31460120FEF737FA641CE4B25AF8A3
S113667034706FB159F8242041460120FEF732FAF4
S113668038780028EBD159460120FEF725FAECE7CB
S1136690BDE8F18F2DE9F047002420A50FF2802AF0
S11366A0214F0FF290280FF284290EE0E4B2260164
S11366B0BA5D51460120FEF715FAB85DFFF7D6FB27
S11366C029460120FEF708FA641C04F061FDE1B2DA
S11366D0814207D2E0B204F05FFD002814BF4B46AC
S11366E04346E3E7BDE8F08780B5FFF7A4FF14490C
S11366F009680968097865290CBF01210021C0B225
S113670005F012F830B90FF238210120BDE8044039
S1136710FEF7E2B901BD00005D00000000000000CA
S1136720257000008B7E00206462002088700020A9
S11367304CBA03007F7E00209C5900200CD300003B
S1136740D46900204D464720537472696E673A201D
S11367502573000042756666733A202564202F2055
S1136760256400004170704275696C646572204D47
S1136770464720436F64653A20307825325800003C
S11367806E6F6465205B00005D206368616E205B52
S113679025645D20707772205B25645D0000000035
S11367A070616E4944205B30782532785D206E6FCD
S11367B064654944205B30782532785D2000000010
S11367C07870616E205B3078000000006E6F646545
S11367D054797065205B0000307825780000000053
S11367E0756E6B6E6F776E002570206C6576656CC8
S11367F0205B25785D0000005365637572697479C8
S1136800000000006E6574776F726B20737461749E
S113681065205B25785D2000457020636E743A2006
S1136820256400006570202564205B656E64706FCC
S1136830696E742025702C20646576696365202553
S1136840705D2000656E61626C65640064697361EB
S1136850626C6564000000006E776B205B25645DEC
S11368602070726F66696C65205B30782532785DC4
S1136870206465764964205B30782532785D207623
S11368806572205B307825785D0000002020202090
S1136890257020636C75737465723A2030782532E4
S11368A0782000006F757428636C69656E74290024
S11368B0696E202873657276657229004E776B20A5
S11368C0636E743A202564006E776B202564205B28
S11368D025705D0020206E6F646554797065205BBF
S11368E0307825785D000000202073656375726937
S11368F0747950726F66696C65205B307825785DB9
S113690000000000257020203A200000696E6163B9
S11369107469766500000000256C206D730000002A
S113692045502025643A202570200000456E6162A0
S11369306C65640044697361626C65640000000006
S11369404572726F723A2020556E6B6E6F776E20AF
S1136950656E64706F696E742E000000DCBD030008
S113696070B5DFF8F408DFF8F4480568002602E0A3
S1136970761CAD1DF6B22078864211DAA978FF297B
S1136980F6D1401E2070C0B28642F4D0801B06218E
S113699010FB01F292B2A91D2846FFF7AFFAEAE70D
S11369A000B9207170BD70B50025DFF8AC68DFF860
S11369B0AC4809E03068EDB2062212FB05F266210C
S11369C0104400F0B1FA6D1C2178E8B28842F1D38A
S11369D000202070207170BD10B5DFF88048207948
S11369E050B1201D0AF027FF652805D3201DBDE8FE
S11369F0104064210AF012BF10BD2DE9F8430F4680
S1136A00DFF85858DFF85018096806469046287889
S1136A10062212FB00F28C18DFF844180978884229
S1136A2008BF722016D049F2600000EA030930461C
S1136A3007F0EAFCA670E77084F8058049EA19209B
S1136A402071002020802878401C2870002000F04D
S1136A508EF80020BDE8F2832DE9F04FDFF80458EA
S1136A60DFF804B82868DFF804A8DFF8EC87DFF85B
S1136A70EC9785B0C088C00B80F001000C460090F4
S1136A80002699F8000086425BDAD8F80000062157
S1136A9011FB06F1471801A9B8780BF09AF9286898
S1136AA09DF80E20817A914248D1009999B90189C3
S1136AB0BDF80C20C8B20904D2B282420BDB9AF8AA
S1136AC00030C3189A4239DA0123101A03FA00F28B
S1136AD012EA116F32D020460BF06FF906469DF88A
S1136AE00A00800603D528688079800629D538797C
S1136AF000F00C00042809D1B8780BF012FBB87828
S1136B0000210BF0C5FCB8780BF0D7FF0021384604
S1136B1000F00AFAFFF724FFDBF80000005D86426C
S1136B2008D27879DFF8481708700022012120463E
S1136B3007F040FA00980028A2D002E0761CF6B2D2
S1136B409FE705B0BDE8F08F012010E080B50AF0A2
S1136B50D9FDDFF808178A89801A80B2B0F5807FE2
S1136B6004DD081DBDE802400AF04EBE01BD2DE95A
S1136B70F14F0AF0C7FDDFF8E446A189A081461A67
S1136B806078B6B28642ACBF0020801B60704FF6BE
S1136B90FF78DFF8C40607684FF0000B0CE0012112
S1136BA0384600F074F838884045B8BF804600F095
S1136BB007FF0BF1010BBF1D21785FFA8BF08842B0
S1136BC055D23D79B7F80090B8780CF0B6F800F0DB
S1136BD0F6FEDFF8A0060068007B001F02284FF0D5
S1136BE0000A0ED200F0AAFC4FF6EF71084208D159
S1136BF00CF027FADFF880160988884238BFA1EB29
S1136C00000AB9F1000F08BFB14616FA8AF04845E8
S1136C100AD23888801B38809DF800000028C2D032
S1136C202807C0D50021BBE705F00C00042802D1D9
S1136C3000203880BBE7690605F003004CBF032140
S1136C400121884208DB9DF800000028ABD06621B2
S1136C50384600F069F9A6E72806A0D5607809EB64
S1136C6000018E429BDA4844801B38809BE7FFF783
S1136C7077FE4FF6FF70804505D04146201DBDE8E4
S1136C80F44F0AF0CBBD00202071BDE8F18FF8B5B8
S1136C9004460E46A078DFF8DC550CF04EF800F000
S1136CA08EFE30001DD02079401C2071400616D580
S1136CB0DFF8C805078801220021204600F065F8A6
S1136CC018B1DFF8B4050088C7192868007B001FD5
S1136CD0022805D2DFF8A0050088C71900E00027C4
S1136CE0278000223146204600F04FF8002848D083
S1136CF0A0780CF00EF80646207900F0030100F0AD
S1136D00F30020712868427E521C4276F271DFF84B
S1136D1070050078C8B12079420616D5022914DB23
S1136D20800612D5A0780423002200210CF034FB45
S1136D3038BBA0780123002200210CF02DFB20B1E8
S1136D40207940F0030020711BE0A0780CF076FC61
S1136D5010B101280DD014E0207940F00400207116
S1136D6000060ED5DFF81C05DFF8F0140078487033
S1136D7007E0207940F008002071307800F07F00AF
S1136D803070BDE8F14000F01BBE2DE9F047044629
S1136D9086B0A0780D4617460BF0BBFF0646E07898
S1136DA0E94628B101282AD0022813D008280BD19B
S1136DB0B01C0DF063FE5FB1694600F06FFC18B9BA
S1136DC06846FEF769FC00E0002006B0BDE8F087E5
S1136DD00120FAE7607902A901F02BF808220DF1ED
S1136DE00D016846FFF78AF8DFF89C14096860799A
S1136DF031F81080DFF894140968085C0BE0DFF8C0
S1136E009004617900680C225143084400F102099E
S1136E10B0F80080807A1FB14946FEF72AFCD4E717
S1136E204FF6FC77B8450CDB484602F0D0FA8246B0
S1136E304FF6FF70824504D051464846FEF76CFB7E
S1136E40D046B84504DA4146B01C0DF01EFEBFE73B
S1136E502079C106B8D5B84504BF00F00C000C2851
S1136E604FF6FD7108D13DB14846FEF755FB66214A
S1136E70204600F059F8A7E7884509D100230022ED
S1136E80002148460EF080F839464846FEF744FB98
S1136E90207940F00C00207196E7F8B504460D46C1
S1136EA00AF008FF0146204607F054FC10F00301E5
S1136EB039D110F00C002CD1DFF8A06300E0401CA5
S1136EC03278C1B291422ED2DFF88C13C0B2096875
S1136ED0062212FB00F28F18B978A142EFD138795B
S1136EE0410611D500F0FB00387120460BF011FF6C
S1136EF0017801F07F0101703888A0B9301DBDE828
S1136F00F44000210AF08ABC2946384600F00CF807
S1136F109EE120460BF00CFFC00604D4294620460F
S1136F20BDE8F440DDE0F1BD2DE9F04F04468DB03D
S1136F3094F802800D4640460BF0FFFE00F03FFD42
S1136F40B52D4FF0FF0900F0C080607900904046F5
S1136F50E6780BF0DEFE0746207900F003000B9084
S1136F6008A940460AF035FF40460BF0DCFE400518
S1136F7005D5BDF8260040F40050ADF82600207970
S1136F80C00605D5BDF8260040F48050ADF82600B3
S1136F904FF00C0A9DF82600DFF8F4B280061CD5E9
S1136FA00022022E0BD1607903A900F042FF0822CF
S1136FB00DF1110101A8FEF7A1FF01AA08E0012EBD
S1136FC006D16179DBF800001AFB01F10844821C48
S1136FD00423002140460CF0DFF9404607F058FA3C
S1136FE0022E8DF81C0005D1A7480068009930F8DE
S1136FF011700CE0012E06D10099DBF800000AFBA9
S113700001F1475A03E0B81C0DF038FD074628008B
S11370101CD0BDF82600410618D54FF6FC718F42EE
S113702014DA944909680A7BD21E032A02D24988D9
S11370308F420BD0C00544BF38460EF041F9BDF86D
S11370402600C00444BF3846FEF749FA40460BF018
S11370506FFEC00639D40EB1009FFFB2BDF8260002
S11370600FF23821DFF82CA20590069533469DF8DF
S1137070250004900E229DF824000390BDF8220000
S11370800290BDF820000190009703200EF0F8FC58
S1137090A0788AF8000000F08DFC9DF81C30009563
S11370A008AA39463046FEF701FE00F089FC0B9829
S11370B08AF80090002814BF411E0021002D0CBF47
S11370C009200B20C9B200F0CEFC404607F0AAF913
S11370D00020208084F8029000F072FC0DB0BDE81E
S11370E0F08F2DE9F04D8AB082460C460AF0E2FD9D
S11370F00146504607F02EFB804650460BF009FE31
S11371000546A81C0DF0BAFC8346AE7907A9504683
S11371100AF05FFE062708F00C000C28687808BF08
S11371200327C00748BF0327504607F0B1F980463C
S113713050480068007BC01E03281ED3022E1CDBAF
S11371404FF6F870834503DA287AE021084214D018
S1137150281D0DF093FCE97906460EF0BDFC0546AA
S113716030460EF060FF3DB1A9884FF6FF729142A0
S113717003D00143814200D16624BDF822000FF2FE
S11371801C11444D05900694CDF800B03B469DF883
S1137190210004900E229DF820000390BDF81E00EB
S11371A00290BDF81C00019003200EF069FC3A49DE
S11371B009788A4505D1601E8041C00F0FF05DF843
S11371C00CE085F800A000F0F5FB0094434607AA04
S11371D059463846FEF76AFD00F0F2FBFF2028709E
S11371E00021072000F03FFC0AB0BDE8F08D30B567
S11371F0194B1B68002201E0521C9B1D174D2D7872
S1137200D4B2AC4207D25C79844204BFDC788C42AD
S1137210F2D1012030BD002030BD0221E7E7012179
S1137220E5E7F8B504460C480C4E076800250BE06A
S11372307879A04204BFF878012803D1B5213846F3
S1137240FFF772FE6D1CBF1D3178E8B28842EFD3A0
S1137250BDE8F140FFF784BBB05C00204876002015
S1137260CF5F0020A8740020645C0020D05F002061
S1137270967E00209C7400209C5F0020985F002074
S1137280F05F0020847E0020A05C0020A45C00202D
S1137290AC5C0020E65F0020FA5F002042425757B2
S11372A0574242574200000038B50FF003F90FF07F
S11372B019F912200FF04AFA0006DFF878441AD5BB
S11372C000F0C0F8000616D500F0BFF8000612D58D
S11372D000F0B5F800060ED5606880077DD52068FB
S11372E080077AD5206810F4407F76D00FF078FAC2
S11372F0010074D032BD12200FF028FA000610D518
S113730000F0A0F800060CD400F09FF8000608D5A1
S113731000F095F8000604D56068C0075DD52068C4
S11373201EE000F08FF800060BD400F08EF8000683
S113733007D500F08AF8C00703D400F080F80006EF
S11373401ED500F07FF800060CD500F07EF800F0A2
S11373508100812806D100F072F8000602D460682A
S113736080070FE000F06EF8000611D400F06DF80D
S113737000F0810081280BD100F061F8000607D4E9
S11373806068C00729D5206810F4407FAED124E09E
S113739000F058F800060ED500F057F800060AD49D
S11373A000F04DF8000606D56068800715D5206802
S11373B080079BD411E000F045F8000696D400F055
S11373C044F8000692D400F03AF800068ED56068BE
S11373D0C00702D52068800788D4B02032BD02F0EF
S11373E0C9FB012005F0DEF90FF09AFA00F078FEEF
S11373F0FDF7C6FF0FF0D7FA0FF28830DFF83843F5
S11374000AF09BFA2070DFF834030AF096FA6070F1
S11374100FF00CFC054660780AF0B1FA28460FF02C
S11374200BFC00F01BFA0BF0F3FA0CF03BF80FF036
S113743008FC0FF009FC0FF01CFC002032BD0020FA
S11374400FF084B910200FF081B911200FF07EB92C
S11374502DE9F0470EF05FFB0FF0B6FC002005F0BD
S1137460DEFD0FF0BBFF08B90FF0A3FFDFF8D082F9
S1137470404607F0CBFA08B90CF035FBDFF8C492AC
S1137480484607F0C3FA08B906F0EEFA0BF0BDFD62
S11374900BF072F8DFF8A062DFF8AC523078DFF856
S11374A0ACA20AF032FA70780AF02FFA0FF0B2FFA9
S11374B0002700240AE000F082FA2868007B001FFD
S11374C0022838BF012700F07BFA641C9AF80010E8
S11374D0E0B28842EFD3002F1EBFDFF874020078B9
S11374E0002805D000F02AF8102808BFFFF72EFB6B
S11374F00FF020FA10F054F90FF098FB07460FF044
S11375006DFF68B1404607F081FA48B1484607F07C
S11375107DFA28B110F042F910B130780AF02FFA50
S113752038460FF089FB00F043FA18B940F26911AC
S113753000F077F8BDE8F04710F045B92DE9F047C1
S11375400BF050FA48B10AF012FE30B110F053F9C2
S113755000F0010080F0010801E04FF0010805F09F
S1137560A7F800280CBF4FF004094FF000090FF0F2
S113757035FF48B1724807F049FA28B1714807F05D
S113758045FA08B1002600E0022672480078002877
S11375906F48007814BF2027002700286E48007821
S11375A014BF10240024002814BF4025002510F027
S11375B01EF9002814BF4FF0800A4FF0000A10F0A3
S11375C018F908B14FF480706449097809B14FF48F
S11375D00071634A12780AB14FF4806249EA0803E1
S11375E033433B4323432B434AEA030318430843EF
S11375F01043BDE8F08780B52D224DA103200EF085
S11376003FFA0BF0EFF918B94FF4D17100F009F813
S113761004F09AFF534807F000FABDE801400EF069
S11376208BBF0FF2501000F031BA80B50EF0A5FFF9
S11376302E223FA103200EF023FA05F058F805F09E
S1137640B1F84948007808B110F07DFA474800784D
S113765008B10EF057FD4648007808B110F00CFD53
S1137660BDE8014010F0C9B838B504463648006892
S1137670007BC01E03280BD3204601F0A8FE4FF662
S1137680FF75A84204BF20460EF0F3FAA84204D1C5
S11376902046BDE83240FDF758BF32BD70B5044600
S11376A04FF6F87084420D4601DB012070BD2000C6
S11376B0254E07D13068007D800703D4284610F09A
S11376C067FBB0B930684288944205D1011D082295
S11376D02846FEF713FC0CE0007BC01E03280AD3E7
S11376E0204610F0DFFCFF2805D0294610F0FEFCF0
S11376F008B1002070BD29462046FDF767FF401EF3
S11377008041C00F70BD10480068008A70470E4960
S11377100968088270470C480068408A70470A4923
S1137720096848827047084800680078704700007C
S113773042000000E881E00F927E002000CF0300A9
S1137740405F00202C5F00209C740020CA5F002052
S11377504C760020BC74002000780020B077002014
S1137760B8770020345F002098770020D876002076
S1137770407600207A69676265652D737461636B76
S11377802E630000F07600204525010010770020CC
S1137790DD8201000C76002085320200D0770020C3
S11377A0C1220100E07700208D620100BC7400203A
S11377B025F70000C8740020E1F700004C76002093
S11377C0496B0000B4740020A9EC0000F875002097
S11377D009960100A477002017A50100F87700207E
S11377E0AD850200D876002005610100987700205D
S11377F0477B01004076002079800100C876002094
S113780029770100007800204B6C01008C74002063
S11378102B790000B0770020832F0200B877002076
S1137820BD2F02003476002027500100E8770020A5
S1137830CB9C0100E076002055390200C47700207B
S113784049100200D07600206921020094740020BF
S11378505B7A0000000000000000000010B57348CF
S1137860734C00682060606048220021FEF789FBA9
S11378707048216800780870002021680873216826
S113788048730B202168887314202168C8734FF64D
S1137890FE71206801824FF6FF71418210F0F3FC03
S11378A02168087610F0EFFC2168487610F0EBFCB4
S11378B021688876604821680078C8765F49206826
S11378C0096840F8281F5E49097801715D482168FC
S11378D00068086310BD10B504F0ADFC544C616839
S11378E0897B884203D0084604F04EFC50B904F06A
S11378F0A6FC0146606890F90F00814204D004F0B0
S1137900ADFC08B1012010BD6068008A05F076F86E
S11379106068408A05F090F86068007B012818BF11
S1137920002005F05BF8002010BD10B5464C002087
S1137930207010F0C3FE20B92046BDE8104009F0C5
S113794063BF01F071FB08B10FF04FFF63E080B536
S1137950002000F015F828B1002000F005F808B167
S1137960002002BDFF2002BD31480068407B022890
S11379701CBF1128432801D1012070470020704703
S11379802B480068007B012818BF022804D0032874
S11379901CBF0628072801D101207047002070472A
S11379A000207047002070477047704700207047E0
S11379B001207047704700207047002070477047CF
S11379C070470020704780B50020FFF7CDFF18B145
S11379D0BDE802400020D3E702BD80B50020FFF7D8
S11379E0C3FF30B112480068007B032801DA00208D
S11379F002BDFF2002BD10B5040004D0E5210FF242
S1137A006C0000F043F809480068482111FB04F1B8
S1137A10084407494860BDE810405CE704484068F2
S1137A20008A704702484068408A7047905C002092
S1137A309C740020D35F0020D45F0020945C00205D
S1137A40CB5F0020985C00208C74002070470020DD
S1137A507047002070470AF046BF7047704710F027
S1137A60AABEFEF7D4B810F013BF0000656D6265BE
S1137A70722D6D756C74692D6E6574776F726B2DD4
S1137A80737475622E63000042DE704738B5044695
S1137A900D4604F059FD05F053FB10F0A7FF2946ED
S1137AA020460EF06CFF2B4622460FF2B81101203F
S1137AB0FEF74AFC29462046BDE83440E4E72DE9B8
S1137AC0F0474FF420685F4D2E1D5F4801687165D3
S1137AD0016AB1655D490A68F26549683166416ABF
S1137AE07166816AB166C16AF166016B3167806B48
S1137AF0706796F8340040074CBFF46BB46B2746AC
S1137B0011F017F8014631650022F26405F1900383
S1137B10DFF83CC1DFF83CE14F4A844224BFA2F1C4
S1137B20200AA24518D3A0693064E4697464746DB2
S1137B30C4F30804062C13D1704511D360450FD249
S1137B4000884DF64264A0420AD1306858607068DB
S1137B50986040F2017803E00027376477640746B1
S1137B603E48814202D2014600E0091D0846904287
S1137B7003D20C68B4F1CD3FF7D03949081AB06488
S1137B800020002105EB8004E167401C0628F9DB96
S1137B90002003E0C0B205EB8004E167974223D2E2
S1137BA052F8041D7145F9D36145F7D2CC07F5D5D8
S1137BB0002405EB8409D9F87C90894502D0641C23
S1137BC0062CF6DB062CE9D1002814BF401E052044
S1137BD0E0E7B16F002405EB8402D2F88070D76728
S1137BE0641C052CF7DB19600146481EC9B2002944
S1137BF0EFD1706DC0F30800032808D0042809D021
S1137C0005280AD006280BD00C280FD011E040F626
S1137C10012813E040F6022810E040F603280DE0A6
S1137C20B8F5206F0AD140F6042807E040F605288D
S1137C3004E018B1312838BF40F607284046BDE8B3
S1137C40F08700000000002004ED00E000E300E005
S1137C508A3D0300B4440000A05700209C0000208B
S1137C60A05700200D0A5B4153534552543A2570E6
S1137C703A25645D0D0A00001FB50C4602460D232B
S1137C80142168460EF0D6FD0D2269462046FEF703
S1137C9035F9207840096073207800F01F002070C7
S1137CA01FBD30B585B004460D460D226846FEF76B
S1137CB025F99DF80000697B40EA41108DF8000029
S1137CC00D236A46214614200EF0F6FD05B030BDA2
S1137CD02DE9FF41044600F05FF814E03068EDB28E
S1137CE0A84630F81800A0420CD16946284600F096
S1137CF0A0F89DF80000022804D031684FF6FD700A
S1137D0021F818006D1CE8B239788842E6D3BDE842
S1137D10FF812DE9F04588464FF6FF7AD04585B0BE
S1137D20044605D100F0D8F910B9FFF7ECFC30E0B7
S1137D3000F032F80CE0D04508D0306830F8151067
S1137D40414504BF4FF6FD7120F815106D1CEDB2CE
S1137D50387885421CDA306830F8150000F018F9DC
S1137D60F4DA69462846FFF787FF082221460DF119
S1137D700500FEF70DF90028DDD13068D04502D1A9
S1137D8030F8150005E020F81580FEF725FEDDE744
S1137D90504605B0BDE8F0850025DFF8C463DFF880
S1137DA0C47370472DE9FF47804689460026DFF8F3
S1137DB0B873DFF8AC43DFF8AC5316E02068F6B2D2
S1137DC0B24630F81A0000F0E3F80DDA694630469E
S1137DD0FFF752FF082241460DF10500FEF7D8F8DF
S1137DE010B9386800F80A90761CF0B229788842F5
S1137DF0E4D3BDE8FF87DFF86813096831F81000A1
S1137E0070471FB5DFF85C23127890420C460FD2FE
S1137E10D349096831F810104FF6FE72914207DA1F
S1137E20694600F006F821460DF10500FFF771FFE1
S1137E301FBD80B5CB4B1B78984201D3692002BD8E
S1137E40FFF71AFF002002BD70B504460D46234615
S1137E500022B4A103200DF013FE28780028204648
S1137E6002D1BDE870403AE0BE490978884201D3A6
S1137E70692070BDFFF7D1F908B1752070BDFFF717
S1137E809AFD6873681DFDF707FC06464FF6FF71FF
S1137E90681DFFF73EFF024629783346204600F06E
S1137EA006F829462046FFF7FCFE002070BD30B5D9
S1137EB04FF6FF740D0008BF224608D0032908BFFF
S1137EC04FF6FE7203D0A24208BF4FF6FD72A449DA
S1137ED0096821F81020A44909680B5430BD30B555
S1137EE005462C4685B0234601228EA103200DF0C1
S1137EF0C7FD9C4909782846884228BF692019D2C1
S1137F00FFF78BF908B1752014E069462846FFF79E
S1137F10B3FE9DF8000030B100208DF800006946E2
S1137F202846FFF7BEFE8E4909684FF6FF7021F818
S1137F301400002005B030BDF0B585B007460C46EE
S1137F40874D884E00E07F1C3178F8B288421CD2FD
S1137F502868FFB230F8170000F01AF8F3D1694628
S1137F603846FFF789FE9DF80500E1B2884204BF58
S1137F709DF80610B1EB142FE5D1FFF71CFD9DF819
S1137F800D108142DFD1384600E0FF2005B0F0BD7E
S1137F904FF6FE71884270472DE9F14F84B00D46CB
S1137FA00E9C6F4FDFF8BCA190469946002607E06F
S1137FB03868BDF8101030F81B0088422CD0761CAD
S1137FC09AF80010F0B2884228D23868F6B2B34664
S1137FD030F81B00FFF7DCFFF1DA69463046FFF7A3
S1137FE04BFE5FEA080007D19DF80100484504BF35
S1137FF09DF80400A042E2D1FFF7DDFC9DF80D10CE
S11380008142DCD1002DD3D008220DF10501284690
S1138010FDF7BEFF0028D2D1304600E0FF2005B0B6
S1138020BDE8F08F10B51446FFF726FE2046BDE8E4
S1138030104008224D49FDF761BF2DE9FF47044672
S1138040084615461E4600F047F808B1002040E0F7
S11380500027DFF80C81DFF80C9100E07F1C99F811
S11380600010F8B2884223D2D8F80000FFB2BA4612
S113807030F81A004FF6FF718842EFD0694638464F
S1138080FFF7FAFD0C220DF10101601CFDF780FFE2
S11380900028E3D1BAF1FF0F0CD100203070FFF7B4
S11380A089FC307855B138B92046FDF707FD09E061
S11380B0FF27F2E70120F1E7012006E028B1384666
S11380C0FDF72BFD401E8041C00F3070FFF778FC98
S11380D0012004B0BDE8F08708222449FDF758BF09
S11380E030B585B000241F4D16E06946FFF7C4FD86
S11380F09DF80000042806DB00208DF80000694686
S1138100E0B2FFF7CEFD9DF8001000234FF6FF729A
S1138110E0B2FFF7CCFE641C2978E0B28842E4D3D5
S113812005B030BD4242000030B585B002220BA13B
S113813003200DF0A5FC00208DF800000024094D5B
S113814003E06946FFF7ADFD641C2978E0B288427C
S1138150F7D3FFF7C5FF002005B030BD4200000093
S1138160A05C0020CD5F0020A45C0020D07400201F
S113817070B5DFF8F05C0446286882B02688407B3E
S113818008B1702076BDB00504D504F1120000F0EA
S113819002FEF0B906F08600862801D1B72076BD2C
S11381A000F0ECFD286816F4045F466120D0B004AA
S11381B00BD5A01C10F0E0FC010051D128684169E6
S11381C021F4005141F480714161A01C00F0E3FDF1
S11381D008B1B22076BD0FF0E4FA20B928684169ED
S11381E041F4803141612868416941F020014161D5
S11381F02868416941F40041416148064CBF04F1DB
S113820023020022A31C47F2FF100FF02BFD684647
S113821000F040F828684069C004BDF8000004D5A7
S113822040F02000ADF8000008E04FF6DF71084090
S1138230ADF8000010F0C9FC0AF03AFFBDF80000E8
S113824000F00FF828684069800506D594F82210DC
S1138250012204F1120000F090FB2968002048621A
S113826076BD10B5044604F4E66001040023002240
S11382704FF07F600FF0F6FC23462F22CEA103209F
S11382800DF0FEFBE00703D5002130200FF021FDA7
S1138290002010BDDFF8CC1B09684969090C01F402
S11382A0E66101800020704738B5DFF8B85B04460A
S11382B02868407B022801D0932032BD0A22002185
S11382C02046FDF75EFE2868406900F0FF01820643
S11382D048BF41F01001218080075CBFA01C0FF053
S11382E057FD002032BD38B504460D4610F07AFC27
S11382F008B9952032BD00F03CFBC17E89B14069CC
S1138300010401D4A82032BD5DB110F0420F08BFB2
S1138310002C04D000F44070B0F5407F01D0B720A9
S113832032BD002032BD00002DE9F04F8BB08246F3
S11383308B4609F0BFFC0146504606F00BFA044692
S113834050460AF0E6FC8046002698F80100DFF863
S1138350145B800748BF0126A00648BF46F002060A
S1138360504609F02AFD8DF8040002ACDFF8F80A43
S113837000689DF8041010F80A009DF80420431AC0
S1138380DBB2242BA8BF232300200090514602A86F
S113839006F0E7F860789DF8087000902868C07EC1
S11383A088B100F036FD002814BF4FF4D0704FF4AC
S11383B0F070F840C00706D5B00704D4082F09D1DF
S11383C00098042805D10BF0BDF8002818BF052F2C
S11383D003D09AE0052FF6D097E09DF804200023FF
S11383E0514602200EF076F87F1F0B2F4FF6FF79CF
S11383F0F2D8DFE807F00617374E548A8A8A8A597A
S11384006D73009806280CDA08F102000CF036FBB4
S1138410044650460AF09EFC334602AA214600F068
S113842012FB72E0FFF76FF900286ED12868C17E55
S113843000296AD0B10702D44069800165D40DF1E6
S113844011000CF01BFB0246DFF8204A9DF81300D4
S113845084F800A00DF10903594610F04DFEFF20E9
S1138460207052E00822DFF8081A0DF10900FDF728
S11384708FFD20B90222594611F0E9F845E00DF1CB
S1138480090000F0A4FF48453FD0002111F028FA6C
S11384903BE0324602A9584610F012FF35E06178FD
S11384A0012000F027FA30E0F0072ED50DF1090085
S11384B000F08DFF484504BF0DF109000DF0D9FB14
S11384C0484522D09DF80420514600F021F81CE0D4
S11384D0324602A9584611F09BFB16E02868407BFF
S11384E0022808BFBBF1000F0FD168460FF050FC03
S11384F058B1DFF8801900200870607800280CBF9C
S1138500652164216846FFF7AAFA0BB0BDE8F08F35
S11385102DE9F0478046DFF8500900680D4688B021
S1138520405D02F10906871BF9B2002005F0FDFF4A
S11385300446FF2C3DD00120009000234246082130
S1138540204609F00DFB8146B9F1FF0F2ED0F1B2A0
S1138550284609F012FC8246002000905346F2B2ED
S1138560294601A805F0FDFF524601A9484606F038
S113857069F8C0B9A7EB0A07F9B2204605F0E2FE94
S1138580404611F0E9FBFF28564400F0A7F9FFB27A
S11385900097F3B22A460021204606F0A3F941468B
S11385A048460BF055F9484605F03CFF204605F0D7
S11385B039FF08B0BDE8F087425700002DE9F34FBA
S11385C0924685B01C460021504606F0C3F80826A2
S11385D00746E008082F18BF052F00F001054FF0EB
S11385E000084FF0020B03D0062F18BF102F01D143
S11385F060080CE000F0BDF9C07E58B100F009FC41
S1138600002814BF4FF4D0704FF4F070F84000F01D
S1138610010900E0C14600F010FDBAF1FF0F79D066
S1138620E00748BF4FF40276C82000900023BDF84D
S113863014203146504609F093FA8246BAF1FF0FEE
S113864068D025B1069910F0ACFF00285FD0BDF8C2
S113865014004FF6F8718842ACBF09200120102F96
S113866018BF0F2F8DF8040005D19DF8040040F0C9
S113867040008DF80400DFF8EC07DFF8FC670068C1
S1138680817E4A1C8276B9F1000F8DF805100CD05A
S11386909DF8040040F020008DF804003078284351
S11386A014BF4FF00F0B4FF0070B5A4601A9504669
S11386B005F0C8FF58BBB9F1000F1CD00021052FED
S11386C00BD1504605F0E4FE012106F043F8622781
S11386D0C740F8074CBF1021182115B1069A022390
S11386E005E03078002814BF4123012300225046BE
S11386F00AF052FE58B9600705D5BDF8141050466B
S11387000BF0A6F802E050460AF029FF80465046D6
S113871005F088FE404607B0BDE8F08FF8B5044682
S11387200D4628460AF06BFBDFF8407706463D709D
S1138730FEF7E9FF014633462246012010F0DCFC37
S1138740FF203870F1BD7CB51C46DFF818371B6874
S11387501B7D00259B0701D5002076BD019200906A
S11387600B4606220FF22471002006F03AF8064662
S1138770FF2E0CD0002C14BF03230123324600210A
S11387800020FFF71BFF0546304605F04BFE284648
S113879076BD2DE9F04104460D46164600270FF03C
S11387A0DDFBB84618B1012300F014F807460FF0BA
S11387B0D5FB38B100F02DFB40B100F0DAF8406988
S11387C0800103D4002300F005F8804648EA07003E
S11387D0BDE8F081324629462046B4E72DE9F34F3F
S11387E09B46BBF1030F92460CBF01270027BAF149
S11387F0000F8DB018BFD04605D101A80FF0C8FAFC
S113880048B10DF104082321002005F08EFE8146B5
S1138810B9F1FF0F01D100205FE005F08DFD0446A2
S11388200520207084F801B0199DE80607D51122AF
S11388300021A01CFDF7A5FB04F1130618E018990C
S11388401022A01CFDF75AFB622020FA0BF0C0078F
S113885004F112060CD503A908A800F07FFA3046EB
S1138860461CA9064CBF9DF81C109DF830100170E1
S1138870380008BFDDF838A0082251463046FDF71D
S11388803DFB08362FB1A80900F0010006F8010BE2
S113889009E001200090321B0823D2B24946404629
S11388A005F05FFE0836311BC9B2484605F04AFDA3
S11388B0680706D5BDF8340011F04EFAFF2800F021
S11388C00DF80E99BDF834002B464A46FFF776FEA4
S11388D00446484605F0A6FD204625E209D0DFF807
S11388E09C15096831F810204BF6FF731A4021F8E3
S11388F01020704730B58BB004460D4600F0A0F848
S1138900684600F048FA60B99DF810009DF82410FC
S11389100A1AD2B2812A04DB2CB1A94201D0A8429E
S113892001D0002023E01123022205A900F070F8F1
S11389309DF810100122684600F01FF80FF058FC53
S113894001214FF4007000F008FC10F039F9B0F187
S1138950004F88BF10F039F9FFF72CF800F009F840
S113896090F820000DF0A7FDFFF72AF801200BB0C6
S113897030BDDFF8F00400687047F0B58FB00546ED
S11389800C461646112200216846FDF7FAFA012723
S11389908DF810402DB9102200216846FDF7F1FA38
S11389A004E0102229466846FDF7A8FA11220021A6
S11389B00AA8FDF7E6FA1122002105A8FDF7E1FA5D
S11389C005A90AA800F0CAF9300014BF0AA805A82E
S11389D011226946FDF7DCFA00B9002786B1DFF8F9
S11389E084544FB11123062200F011F82868407B0B
S11389F0432808BF0FF068FB286880F8204004E093
S1138A001FB11123022200F002F80FB0F0BD694635
S1138A10002011F0D6B970B58AB004460D4616464A
S1138A2000F00EF8002E14BF05AE6E46102231463B
S1138A302046FDF763FA307C28700AB0002070BD30
S1138A40694605A88AE12DE9FF4F02F1010A8BB0BE
S1138A501AF8010B029003280CBF01240024FEF72E
S1138A6052FE4FF0000BD8460028C14657D00AF0FA
S1138A7069FD002804BF9DF8380000284FD05546F2
S1138A80284600F088F906460299DFF8D873622078
S1138A90C84010F001000AF1100A8DF8000018BF58
S1138AA01AF801BBCDF80CA094B90AF10808B8B3C0
S1138AB03868007D800733D5FF220821404600F046
S1138AC076FA68BB00234246002102200FF0CAF860
S1138AD0FEF719FEBDF83010884207D144B9039857
S1138AE0DFF88C130822FDF753FA002840F0F480D5
S1138AF00020ADF802000DF10200FFF7CBFB029855
S1138B009DF83840012800F07D8003286FD00428A8
S1138B1005D10FF023FA002818BF032C0FD003E16E
S1138B2040460FF068F90028D2D13868407B4328CA
S1138B3004BF02980128F2D14FF00109C8E7002EC2
S1138B40EDD12B4642462021DFF834030FF08AF89A
S1138B50396800204862C749C74809780078084244
S1138B6033D003208DF80000FEF7CDFD68B300F08C
S1138B70A1F950B301A80FF00BF930B33868007DA8
S1138B80800722D40F208DF80C00082204208DF8D1
S1138B900D000DF10E00B649FDF7B0F90DF1160305
S1138BA001226946284611F0B7F91A2103A805F0F5
S1138BB0BCFC0546FF2D08D001232A4601A900204C
S1138BC0FFF7FCFC284605F02DFC3868417B0229A0
S1138BD007D103214046FEF742FF00200FF030FA90
S1138BE0A2E04129FCD140694005F9D571E0032C8C
S1138BF0F6D10D98817E01B101212A46123011F07F
S1138C0003FB91E03868407B022806D10FF0A6F9F7
S1138C1018B19DF838008007F3D53868407B4128A7
S1138C200AD036B90AF08EFC024659462846FFF7A8
S1138C30A4FE0AF087FC002876D09DF8380000F0E6
S1138C4002050FF08BF960B138684169090502D457
S1138C50407B432805D1280003D1AC2005F003FF55
S1138C6062E03868007D800704D4BDF82C10002031
S1138C700CF060FC3868417B112912D14069400531
S1138C800FD500200FF074F900284DD105F008FF2E
S1138C90AE2005F0E8FE00200FF0D2F905F0E7FE63
S1138CA042E00DB100F088F8B9F1000F11D04FF097
S1138CB0805100200FF00DF80EF073FD18B94FF439
S1138CC080310FF006F839680020486240460FF002
S1138CD090F805F03DFF27E09DF8000088B1BDF84D
S1138CE030004FF6F87188420BDB0398002208210C
S1138CF000F05DF928B1002259462846FFF73DFEF1
S1138D0012E00398FEF7B0FC4FF6FF7188420BD0D7
S1138D10002E14BF15210421019100954246029BA7
S1138D200399DBB2FFF75AFD0FB0BDE8F08F10B521
S1138D308AB00446FFF784FE9DF824108C4205D1C6
S1138D4005A811F0DAFA01200AB010BD9DF8100050
S1138D50844208BF6846F4D00020F5E710B50C46FD
S1138D60014611230622012011F02BF82146BDE80B
S1138D70104011230222012011F023B880B50022F3
S1138D8000210020FFF7F9FDBDE8044000214FF663
S1138D90FF700EF09EBF0022102100F008B980B5CC
S1138DA0FFF7E7FDC07E30B100F006F8BDE80240F1
S1138DB02F480FF01CB801BD2A480068007D10F050
S1138DC0300F03D0202130200EF083BF7047254898
S1138DD00068C17E01B9704780B5007BC01E0328BE
S1138DE016D300200EF096F848B1017930221142D2
S1138DF00ED101F0CF0141F01001017101BD0CF061
S1138E0070FF28B1BDE80440002100200CF092BBA3
S1138E1001BD80B5FEF777FC0028FFF7AAFD406985
S1138E200CBF8008000D00F0010002BD10B588B031
S1138E3004A80EF099FF0FF25C000FC86C4684E89A
S1138E400F001022694604A8FDF7A2F8401E8041D5
S1138E50C00F08B010BD0B48007870470A4800885E
S1138E60704700009C740020645C0020E65F0020D2
S1138E70D0740020A37E0020F75F0020785C0020DF
S1138E8030000100E75F0020AA5F00203138323152
S1138E90000000005A6967426565416C6C69616E47
S1138EA0636530395C480068408870475A480068F8
S1138EB0001D704758480068C07E704770B5564C16
S1138EC0564D2168564E4873022819D100F0ACF86B
S1138ED078B92068007B001F022824BF304608F0C0
S1138EE093FC2068007BC01E032824BF284608F09A
S1138EF08BFC20684069C00054BF9024BC240AE065
S1138F0000F092F810B10EF071FC03E0307028709C
S1138F1009F0F7FC912420460DF0A4FE50B9234635
S1138F2013223CA103200CF0ABFD2046BDE87040A9
S1138F30FEF797BD70BD38480068407B00F00F0015
S1138F40704735480068407B00F00F00022801D1CB
S1138F50012070470020704738B5044600F064F8DB
S1138F6020B12046BDE832400EF034BCFFF7E9FFE3
S1138F70294D28B92868407B032801D0932032BDAD
S1138F80FEF7C9FB20812868C07BA0722868807B1B
S1138F90E072204606F0E5FF0020207304F114017E
S1138FA004F1100011F0EEF9E081002032BD10B59B
S1138FB0002300E05B1CDCB28C4205D210F8014BAC
S1138FC09442F7D0002010BD012010BD80B50821C7
S1138FD002F0CCFF08B1002002BDA52002BD0E485E
S1138FE00068407B01281CBF3128332801D10120AF
S1138FF070470020704710B5044603F02FF90100B4
S113900002D105490968CC7310BD03480068807B10
S113901070470000424200009C74002098770020B2
S1139020D876002003F08BBA80B5FEF77CFB0328CA
S113903001D1012002BD002002BD80B5FFF7F4FF7D
S113904038B1BDE804404FF490710FF20800FEF708
S11390501DBD01BD656D6265722D737461636B2DF9
S1139060636F6D6D6F6E2E63000000002DE9FF418C
S1139070DFF85017DFF85057FF2008700021DFF8A1
S11390804C0741804170002406E0FEF798FC09F08B
S1139090CCFFFEF795FC641C2978E0B28842F4D337
S11390A0DFF82C47DFF82C572078DFF82C874200B4
S11390B000F033FA0021FCF764FF227828680921C4
S11390C0FCF75FFF002601AF1BE00B23F2B2152172
S11390D001A80DF0AFFB787A397A01EB0020D8F8BB
S11390E00010F6B221F8160081B200291EBF80B22A
S11390F04FF6FF71884203D0B97A304600F019F870
S1139100761C2178F0B28842DFD300260BE00123DD
S1139110F2B2182168460DF08DFB2968BDF80000F5
S1139120F6B28855761C2178F0B28842EFD3BDE8B8
S1139130FF81DFF8A826126809074CBF002104212B
S113914041F4805141F0020122F810100021DFF8AF
S11391509026126842F82010704770B5DFF87C46FC
S113916024680022002302E024F813505B1CDFF87B
S113917060562D78AB4209DA34F813506E07F5D5F2
S113918001220E0014BF05438543EDE7104670BD70
S1139190002100E0491CDFF838361B78CAB29A4235
S11391A00AD2DFF838261268C9B232F81120024018
S11391B08242EFD101207047002070472DE9FE4321
S11391C006460C461546DFF81086DFF8049601E0E3
S11391D0EFB1761C99F80010F0B288421CD2D8F88E
S11391E00000F6B230F816706946304600F075FAA1
S11391F0002CEDD0002F1CBF4FF6FF708742E8D043
S1139200082269462046FCF7C3FE0028E1D19DF8F8
S11392100A002870304600E0FF20BDE8FE8380B5D8
S11392206A46FFF7CBFF02BDFEB50D460446114664
S11392301E4608226846FCF761FE00F089F98DF8A5
S11392400A6031462046FFF774FF00F066F92746AE
S113925030F81710320641F4804104D441F008017B
S113926020F8171006E020F81710DFF878050078CA
S1139270FE2805DB6946204600F0E4F930B9FEBD5E
S11392800B236A46214615200DF016FBDFF8440532
S113929002680F21D15501230068C2192146182004
S11392A00DF00AFBDFF83005006820F817500022A3
S11392B0DFF8340500682C3041680078381841F82C
S11392C020200120FEBD2DE9F04784B08246884667
S11392D016461D466A4651460020FFF76FFFFF28D9
S11392E00746DFF8F4440CD09DF80010B14202BFE9
S11392F0226832F81000804503D0384600F04CF95B
S1139300FF274FF6FF79C84513D095B901A9404608
S1139310FEF7C4F998B90022082101A8FFF747FE17
S113932068B9082201A95046FCF732FE38B1C84694
S113933005E0FF2F03D0384600F02EF9FF27B107D0
S1139340404604D548452CD111F0EFF929E0FF2F10
S113935020D1DFF87854DFF894142A780978914200
S113936011D0484502D111F0E0F9804600210020D7
S1139370FFF755FF0746FF2F05D0334652464146B7
S1139380FFF752FF08B948460BE02878401C2870C4
S113939006F040FA0C99384600F093F8206830F84B
S11393A0170004B0BDE8F087DFF830140968002026
S11393B04EF6FF7305E031F810201A4021F8102012
S11393C0401CDFF80C2412789042F4DB704780B51F
S11393D001460020FFF723FFFF2802D14FF6FF705C
S11393E002BDBDE80240DFF8F413096811F810105B
S11393F0890705D5DFF8E013096831F810007047D4
S11394004FF6FF70704770B51446DFF8E02312780A
S1139410904284B00D4606D2DFF8C013096811F8F3
S11394201010890701D4932017E0694600F055F91C
S11394309DF80A60082269462846FCF75FFDB007DC
S113944048BF022007D4300748BF032003D43006A6
S11394504CBF042005202070002004B070BD80B5EE
S113946010F07AFCFF2803D000F00DF8800E11E014
S1139470002002BD80B510F06FFCFF2801D0012050
S113948002BD002002BDDFF85413096831F8100052
S11394900006704700F0010002BD10B584B00C4610
S11394A010F05AFCFF2809D0694600F016F908228A
S11394B069462046FCF722FD012000E0002004B0AC
S11394C010BD70B501F001050446280084B026469D
S11394D010D06A4601A92046FFF795FF50B900F065
S11394E01CF830F816000006800E00F0010101A8F7
S11394F0FCF7F0F820460DF0DBFD009533462322FF
S113950087A103200CF0BCFAFEF754FA2946204642
S11395100CF0D2FFFEF754FA7FBDB04800687047E4
S1139520FEB5AD4F04463868264630F8160088422A
S11395300D460CD06946204600F0CFF800F008F83C
S11395406946204600F0EEF8386820F81650F7BD5A
S1139550280A8DF809008DF80850704738B505467B
S11395609D4800682C4630F81400A0B19748017853
S1139570491E017006F04EF900212846FFF7D0FF7E
S113958096490968002021F814000021BDE8344000
S11395901120FEF768BA31BD944910B509788842A4
S11395A004460CD28C48006830F8140038B100210D
S11395B02046FFF786FF2046BDE81040CEE710BDE9
S11395C070B50025824C03E00021FFF7A9FF6D1C54
S11395D02178E8B28842F7D37A4D7C4E2878FF2868
S11395E005D004F01FFFFF202870002070800020A9
S11395F03070002120784200BDE870407748006850
S1139600FCF7BFBC30B5754B764A1B68127833F84B
S113961010400021FE2AACBF02220822E4B2144208
S11396200DD0002407E033F81450EDB215421CBFEE
S11396300B3189B2641C8442F5DB084630BD4FF619
S1139640FF7030BD2DE9F04383B007468846FFF72D
S1139650D9FF5C4C614E5D4D81462078FF2808D1CE
S11396600B21002004F061FF207000216980FF2895
S113967006E0698801F10B0292B204F0EFFF0028C2
S113968009D1306830F817104FF6F772114020F8FE
S1139690171000201FE0698808E00B200090A1F15A
S11396A00B07BBB2104605F01DF9B9B22278894503
S11396B0F3DB8DF80420494601A805F03FF800F0DB
S11396C097F8404604F06AFF68880B306880687831
S11396D0401C68700120BDE8FE8330B583B00446A9
S11396E00D46FFF78FFF4FF6FF71884206D10B231B
S11396F02246152128460DF09DF837BD31490978D9
S11397008DF80410014601A805F018F8024600205F
S113971000900B239DF80410284604F03FFF37BD4A
S1139720424242007CB505460E46FFF76BFF0146F8
S11397304FF6FF70814206D10B233246294615208D
S11397400DF0BAF873BD1F4C707A337A227813EB9C
S113975000202BD1FFF7E1FE30F815304FF6F776F5
S1139760334020F81530194D6878012806D1104689
S113977004F058FEFF202070002612E06888A0F153
S11397800B06701A83B23BB180B2009001F10B0357
S11397909BB2104605F0A6F869882078B2B204F0AE
S11397A05DFF68786E80401E687073BD8DF804207C
S11397B001A804F0C3FF00F01BF8304604F0EEFEED
S11397C073BD0000EB5F0020CA5F0020647E0020B0
S11397D0C65F0020A85C0020745C0020785C002038
S11397E07C5C0020877E00209C740020D55F0020D4
S11397F00121009102469DF804100B2370470000DC
S1139800008F8E8C8000000010B500205349087032
S1139810534CFCF70FF92080522200215148FCF7E9
S1139820B0FB002060800C220021201DBDE8104008
S1139830FCF7A7BB10B54A494A88522A07DA494CB3
S1139840A054501C488080B22044401E10BD00200B
S113985010BD38B500F023F80546200AFFF7EAFFEB
S1139860002D18BF002801D0284632BD002032BD8B
S1139870F8B500F014F800F029F800F023F80746D2
S1139880200EFFF7D7FF002D18BF002E05D0002FA4
S113989018BF002801D02846F2BD0020F2BD0446BE
S11398A0C0B2C7E770B5FFF7FAFF00F00FF800F099
S11398B009F8002D18BF002E02D008B1284670BD4B
S11398C0002070BD06462002000EB3E705462004C2
S11398D0000EAFE7B0B50C46214D6B88E118522954
S11398E00CDA204F22460146F818FCF707FB68887B
S11398F02018688080B2001B3844B0BD0020B0BD81
S113990030B50024CD18AA4209DA002030BD220265
S113991051FA83F4044414F8014C14195B1EDAB2AE
S1139920002AF4D1204630BD0423E9E780B50223A0
S1139930FFF7E6FF80B202BDF8B50C4615460A4EA5
S1139940914207D20719384600F010F82018401C3D
S1139950854201DA3046F2BD3846F2BDE27300209A
S11399608C6E00209C6E0020567600200078FF2824
S113997008BF0020704780B502220021FFF7D6FF00
S11399804FF6FF71884208BF002002BD002080F31B
S11399901188704770B582B005460C464FF6FF76C5
S11399A0ADF8006002237F225C48018868460CF011
S11399B041FFBDF80000B04205D02880BDF800008A
S11399C02080012076BD002076BD00B587B001A8B7
S11399D00FF21C21142206F089FB69460DF10200E6
S11399E0FFF7D8FF38B1BDF80200ADF80800BDF8A4
S11399F00000ADF80A0001A811F01AFA01220121B1
S1139A00022011F065FA464811F0E5FB042111200B
S1139A1011F093F900220021032011F059FA07B044
S1139A2000BD30B58DB001203E4908603E48006855
S1139A30040E684611F0F6FB8F2C10DA3B480168DF
S1139A4041F00402026000224FF05013384C3025DC
S1139A5055436351521C062AF9D3016001E0902C4E
S1139A6006DA34480168C909C90141F020010160DE
S1139A709DF80100012804D12F48016841F0040138
S1139A8001600FF280100FC803AC00F05DF8FFF71F
S1139A909CFF01220121012011F01AFA0321274819
S1139AA011F04BF90321264811F047F9012125480B
S1139AB011F028F811F0D7FB11F012FC07A80FF2EF
S1139AC05411142206F012FB07A811F07BFC0FF2CC
S1139AD05810D0E90023CDE9012301A811F0FCFCC2
S1139AE00FF24C100FC800F02FF812F0FAF812F031
S1139AF018FC03F00CFB0FF24810D0E90023CDE969
S1139B00012301208DF8070001A812F06DFD12F069
S1139B10D9FF07F00FFE0DB030BD0000CCCE03001E
S1139B2000F0490210300E40FC81E00FB0400E40BE
S1139B3000A000402C400E4064310E4002001A0088
S1139B4003001C000005080084E80F0003A812F0BD
S1139B50C7BD40F201600EF055BF7047704780B535
S1139B600021002013F08FF8BDE8014013F0CFB8B6
S1139B7013F0CEB803200CF0C5BE80B500F0D5F8C4
S1139B8001460FF2C4000C2938BF00EB810002BD6E
S1139B9080B500F0CEF80FF2E0010204120E51F885
S1139BA0221000F0FF0001EB800002BD10B500F0B0
S1139BB0BCF8044600F0BDF8C0B208B9012C07D1C6
S1139BC0072C11D8DFE804F004100608080A0C0E6C
S1139BD0002010BD092010BD022010BD032010BDBF
S1139BE00B2010BD062010BD44F0800010BD000005
S1139BF000000000A00042010A200706020A040730
S1139C0000000000000108070F000A00C80020003F
S1139C10A000000001000000006A180006010C0604
S1139C20010B06010D0000000001640000000A00A1
S1139C30000108070F000A00C8002000A00000006F
S1139C400000000000000000554E4B004649420051
S1139C5042544C0045585400505752005744470052
S1139C602053570043525300465348004241440096
S1139C70464C540042524F0080C7030084C703007F
S1139C80DCC70300FCC7030008C8030010C80300B6
S1139C901CC803002CC8030034C8030040C80300D8
S1139CA050C8030070C8030038B513F050F80446D8
S1139CB013F049F80020002124FA01F2D20713D549
S1139CC00FF2800030F811004CF23C324FF20F03D7
S1139CD0194C06281DD16088984216D12188080A9B
S1139CE00C2812DA084612E0491C89B21129E3D380
S1139CF012490881088940F20172904204D1104847
S1139D00D0E90023C1E9002331BD4FF4C060628073
S1139D10EEE740F20725A84201BF618899422188F5
S1139D20A942E5D162800846E2E704480089000AB6
S1139D30704702480089704700000020B86A00207C
S1139D409400002001040000050B060B060B000024
S1139D5000000000010301090600010500000000E5
S1139D6000000000030600002DE9F04F85B0804696
S1139D70CD4DA86B410707D50FF24036296C0391EE
S1139D802F6D0024A14607E00FF23836E96B0391EA
S1139D90EF6C6C6DDFF8149300074CBF0FF22C329C
S1139DA00FF23032B9EB040A07D064204FEA5A01AB
S1139DB000FB0710B0FBFAFB01E04FF0000B039827
S1139DC00290CDF80490009433460FF210314046CF
S1139DD0FCF73EFA1FFA8AF0019000961FFA8BF303
S1139DE0BAB20FF228314046FCF732FA95F838003F
S1139DF040070CD4AAF19C00874208D1686DAC4995
S1139E00884204D20FF240314046FCF721FA03980D
S1139E10814528BFA04205D232460FF25831404650
S1139E20FCF716FA4046FCF78AFA286E002804BFAD
S1139E30686E00282FD00FF25C314046FCF716FA0A
